S0190000436C656172434E435F4669726D776172652E73726563B4
S2140040000000032039E10000D1420000D142000048
S214004010D1420000D1420000D14200000000000062
S214004020000000000000000000000000D142000078
S214004030D142000000000000D1420000D5DF0000A1
S214004040D1420000D1420000D1420000D14200001F
S214004050D1420000D1420000D1420000D14200000F
S214004060D1420000D1420000D1420000D1420000FF
S214004070A9DE0000B9DE0000C9DE0000D9DE0000BF
S214004080E9DE0000F9DE000009DF000019DF0000AD
S21400409029DF000039DF000049DF000059DF00009B
S2140040A069DF000075DF000085DF000095DF000097
S2140040B0D1420000D1420000D1420000D1420000AF
S2140040C0D1420000D1420000D1420000D14200009F
S2140040D0D1420000D1420000D1420000D14200008F
S2140040E0D1420000D14200000000000000000000A5
S2140040F000000000D14200003DDE0000D14200007A
S21400410049DE000055DE0000D1420000D14200002A
S214004110D1420000D142000061DE0000D142000022
S2140041206DDE000079DE0000D1420000D1420000C2
S214004130D1420000D1420000D1420000D14200002E
S214004140D1420000D1420000D1420000D14200001E
S214004150D1420000D1420000D1420000D14200000E
S214004160D1420000D142000085DE0000D1420000AE
S21400417091DE00009DDE0000000000000000000050
S2140041804DBA010051BA010055BA010059BA0100F2
S21400419031DE000029E00000D1420000D1420000DC
S2140041A0D1420000D1420000D1420000D1420000BE
S2140041B0D1420000D1420000D1420000D1420000AE
S2140041C0D1420000D1420000D1420000D14200009E
S2140041D0D1420000A5DF0000D1420000D14200001D
S2140041E0BDDF0000D1420000D1420000D1420000F5
S2140041F0D1420000D1420000D1420000D14200006E
S214004200D1420000D1420000D1420000D14200005D
S214004210D1420000D1420000D1420000D14200004D
S214004220D1420000D1420000D1420000D14200003D
S214004230D1420000D1420000D1420000D14200002D
S214004240D1420000D1420000D1420000D14200001D
S214004250D1420000D1420000D1420000D14200000D
S214004260D142000010B5054C237833B9044B13B186
S2140042700448AFF300800123237010BDF00A00202D
S2140042800000000018ED03000C4B43B10C480D492C
S21400429010B5AFF300800C48036823B910BD0A4878
S2140042A0036833B97047094B002BF7D0BDE81040C0
S2140042B01847064B002BF5D0184700BF000000003B
S2140042C018ED0300F40A0020E40A002000000000B5
S2140042D0FEE700BF000000002DE9F843002200239F
S2140042E004460D462CF020FC254E40B9D6E902893E
S2140042F000220023404649462CF016FC10B13069D7
S214004300BDE8F88396F88030012B08D12046294670
S21400431019A3D3E900232CF08BF904460D46424638
S2140043204B46204629462CF083F90022154B2CF0EC
S214004330A9FA0022144B04460D462CF0EBFB08B1FC
S214004340114D002430692CF0FDF806460F46024653
S2140043500B46204629462CF0FBFB08B134463D466A
S21400436000220A4B204629462BF0B0FF2CF038FCE2
S214004370BDE8F883AFF30080666666666666394019
S214004380100B002000004E400000F03F0000E03F11
S21400439038B52C4C6378032B10D82B4A52F8235090
S2140043A065B13035284621690CF00EFA2846616959
S2140043B00CF032FA2846A1690CF046FA94F821303F
S2140043C0032B10D8204A52F8235065B130352846C2
S2140043D0216B0CF0F9F92846616B0CF01DFA2846A3
S2140043E0A16B0CF031FA94F84130032B10D8164A22
S2140043F052F8235065B130352846216D0CF0E4F9AB
S2140044002846616D0CF008FA2846A16D0CF01CFADF
S21400441094F86130032B00D938BD0B4A52F823506C
S214004420002DF9D030352846216F0CF0CDF92846FE
S214004430616F0CF0F1F92846A16FBDE838400CF02A
S21400444003BA00BF100B0020D8AC0300F8B55B4CD5
S21400445094F883200023054684F8813084F882305F
S2140044601AB194F88430002B7ED1554A5549002362
S21400447041F2E80E41F2701741F2F81682F8203247
S21400448041F20830137041F2903284F8983B84F879
S214004490203C84F8A83C84F8303D84F8B83D84F885
S2140044A0403E84F8C83E84F8503F84F8D83F04F86D
S2140044B00E30E355A3552354A35481F8203381F8D6
S2140044C0213381F8223381F8233381F8243381F8AD
S2140044D0253381F8263381F82733C1F8283305B908
S2140044E0F8BD237843B16278032A4BD9D1F82C3330
S2140044F0C1F82C33C1F83C3394F820304BB194F813
S2140045002120032A50D9D1F83033C1F83033C1F80E
S214004510403394F840304BB194F84120032A3AD9FE
S214004520D1F83433C1F83433C1F8443394F86030EA
S2140045304BB194F86120032A1BD9D1F83833C1F85F
S2140045403833C1F8483394F88330002BC8D094F839
S2140045508430002BC4D0D1F830231B48D1F82C135C
S214004560BDE8F8400EF0D6BB04F188000DF0DEFB87
S2140045707BE71648D1F8383350F82220002ADED0E0
S214004580536CDCE71148D1F82C3350F82220002A6F
S214004590AED0536CACE70D48D1F8343350F8222037
S2140045A0002ABFD0536CBDE70848D1F8303350F826
S2140045B02220002AA9D0536CA7E700BF100B0020CA
S2140045C0701B0020081C0020980B0020D8AC0300AD
S2140045D070B515460E462FF0FDFC044680B13046F9
S2140045E02FF0AEFA225C074923183D2A08BF013394
S2140045F02A4618462FF0BCF8431E5842584170BD54
S21400460070BD00BFE8AC0300F8B504460846174680
S21400461031F0F8FF094EC5B214F8013B18465BB1FD
S21400462031F0F0FF8542F7D13A46314620462FF06A
S2140046309FF80128F0D1F8BD1846F8BDE8AC030095
S21400464070B5114C114A94F8213394F8221394F85B
S21400465023538826581C06FB0323012200F00F0074
S214004660114484F8210383F8982B84F8272384F8D0
S214004670221345B994F824332BB984F8232309F080
S2140046801FFFC4F84C0370BD081C0020100B002050
S214004690F8B5234C94F883302BB194F8843013B1DA
S2140046A0D4F8085B0FE094F82130032B08D81D4A95
S2140046B052F8233023B194F820200AB15D6C02E052
S2140046C0194BD3F83053D4E90A670022002330464A
S2140046D039462CF029FAB8B928462BF043FF324663
S2140046E03B462CF0CFF894F8235002460B466DB9A3
S2140046F094F88040012C09D107A3D3E900232CF0BD
S214004700C1F802460B4601E0002200231046194677
S214004710F8BD00BFAFF30080666666666666394021
S214004720100B0020D8AC0300081C0020000000007E
S214004730F8B5214C94F883302BB194F8843013B13B
S214004740D4F8045B0DE06378032B07D81B4A52F8B5
S21400475023301BB122780AB15D6C02E0184BD3F807
S2140047602C53D4E9026700220023304639462CF049
S214004770DBF9B0B928462BF0F5FE32463B462CF066
S21400478081F8E57802460B466DB994F88040012C16
S21400479009D107A3D3E900232CF074F802460B4690
S2140047A001E00022002310461946F8BDAFF3008052
S2140047B06666666666663940100B0020D8AC030055
S2140047C0081C002070B55C4C6378032B28D85B4A25
S2140047D052F8235025B395F8D830022B08D0584904
S2140047E0C5F8F0100222012385F8D82085F87B3121
S2140047F00422012305F13006C5F8E82085F8E430E8
S214004800304621690BF0E0FF304661690CF004F891
S2140048103046A1690CF018F82846002104F09EFFE7
S21400482094F82130032B28D8444A52F8235025B355
S21400483095F8D830022B08D04149C5F8F01002226E
S214004840012385F8D82085F87B310422012305F161
S2140048503006C5F8E82085F8E4303046216B0BF0CA
S214004860B3FF3046616B0BF0D7FF3046A16B0BF001
S214004870EBFF2846002104F071FF94F84130032B2B
S21400488028D82E4A52F8235025B395F8D830022B54
S21400489008D02B49C5F8F0100222012385F8D8204D
S2140048A085F87B310422012305F13006C5F8E8209F
S2140048B085F8E4303046216D0BF086FF3046616D9A
S2140048C00BF0AAFF3046A16D0BF0BEFF2846002174
S2140048D004F044FF94F86130032B00D970BD174AEA
S2140048E052F82350002DF9D095F8D830022B08D076
S2140048F01349C5F8F0100222012385F8D82085F860
S2140049007B310422012305F13006C5F8E82085F83E
S214004910E4303046216F0BF057FF3046616F0BF0E6
S2140049207BFF3046A16F0BF08FFF28460021BDE8C5
S214004930704004F013BF00BF100B0020D8AC03007B
S214004940003C1CC6000000002DE9F04F2DED028B48
S214004950B34DB44C95F82473DFF8E0C2B24A95F82C
S2140049605083DFF8DCE294F88060B049B04B94F8EE
S21400497083A09DB0002E08BF11461B9795F825739F
S2140049801797D5F82873159795F822731697074644
S2140049906046B8F1000F08BF704695F8512319908D
S2140049A01A91189293ED008BBAF1000F04D094F888
S2140049B08430002B40F0DA806378032B07D89D4ABA
S2140049C052F823201AB12378002B40F00C81D5F83A
S2140049D02CB3D4E9028900220023404649462CF035
S2140049E0A3F8002840F0FA8058462BF0BBFD4B4653
S2140049F042462BF047FFE378CDE9100113B9012EAC
S214004A0000F0DA80BAF1000F40F0C98094F8213047
S214004A10032B08D8874A52F8232022B194F8203076
S214004A20002B40F0E380D5F830A3D4E90A890022B1
S214004A300023404649462CF077F8002840F0C68010
S214004A4050462BF08FFD4B4642462BF01BFF94F84A
S214004A502330CDE9120143B9012E06D16CA3D3E968
S214004A6000232BF00FFFCDE9120194F84130032B01
S214004A7079D8704A52F82320002A74D094F840302F
S214004A80002B70D0D2F844A0D4E91289002200236B
S214004A90404649462CF048F8002840F088805046AA
S214004AA02BF060FD4B4642462BF0ECFE94F843306C
S214004AB082468B4613B9012E00F09B8094F8613035
S214004AC0032B4DD85B4A52F82320002A48D094F88E
S214004AD06030002B44D0556CD4E91A89002200239C
S214004AE0404649462CF020F8002874D128462BF082
S214004AF039FD42464B462BF0C5FE94F8634002460D
S214004B000B4644B9012E06D141A3D3E900232BF06E
S214004B10B9FE02460B46CDE90E239DED127B189B8F
S214004B2005931A9B0493199B03938DED0A7B169BA2
S214004B3002939DED107B159B0193179B0093CDE987
S214004B400CAB8DED087B8DED068B1B9B3A4A3846E9
S214004B50F0212EF09BFD1DB0BDEC028BBDE8F08F62
S214004B60D5F83853B8E7D5F834A38DE7D4E90289E9
S214004B700022002340464946D4F804BB2BF0D4FF5D
S214004B8000283ED158462BF0EDFC4B4642462BF013
S214004B9079FEE378CDE91001002B3FF430AF94F8AE
S214004BA08430002B3FF432AFD4F808AB3DE74FF02B
S214004BB0000A4FF0000B81E7DDE9100114A3D3E9EA
S214004BC000232BF05FFECDE910011BE79FED127B63
S214004BD08DED127B49E7002200239CE79FED0E7BBC
S214004BE08DED107B0EE7D2F844B0F2E6D2F844A082
S214004BF01BE707A3D3E900232BF044FE82468B462F
S214004C005CE79FED057B8DED107BCDE7AFF3008075
S214004C1066666666666639400000000000000000B2
S214004C20081C0020100B0020F4AC0300F8AC0300B6
S214004C3000000020D8AC0300FCAC0300F0AC03007E
S214004C40ECAC030070B51F481F4C0CF0CBFD1F4B9F
S214004C5000220025012642F2B82104F57270C4E94C
S214004C60D823C4E9DC23C4E9E023C4E9E223C4E989
S214004C70E623C4E9EA23C4E9EE23C4E9F023C4F832
S214004C805863C4F8906384F8685384F8785384F8BB
S214004C90A05384F8B05304F099F804F57D7004F03E
S214004CA039F804F5806042F2B92104F08FF804F276
S214004CB02C4004F02FF804F58760BDE8704004F03F
S214004CC067B900BF980B0020081C00200000F03FCA
S214004CD030B5194C94F87034BDB00BB93DB030BD4A
S214004CE0054604F22C4004F031F80028F6D009F00E
S214004CF0E7FB024625B9D4F87434D31A312BEDD924
S214004D006846C4F87424FFF71FFE94F87034002B2E
S214004D10E4D00A4804F01AF80028DFD068462EF0DF
S214004D200FFF69460246054803F0B8FF0222044911
S214004D30024803F0B3FFD1E7081C0020342000200F
S214004D407CAD030070B51C4D95F878340446E3B985
S214004D5020462EF0F5FE60B1184E251801E0AC4254
S214004D6007D014F8011B304605F0B6FC0028F6D133
S214004D7070BD0D21114805F0AFFC0028F8D00A21BF
S214004D800E48BDE8704005F0A7BC05F57D7003F041
S214004D90DDFF0028DCD020462EF0D2FE214602465B
S214004DA005F57D7003F07AFF05F57D700222044953
S214004DB003F074FFCCE700BF081C0020902C0020F6
S214004DC07CAD03002DE9F0431E4A1F4B92F82000ED
S214004DD092F840601D4C117892F860501F6992F866
S214004DE08320D4F87C44C1B00028049714BF022066
S214004DF00020002ED3E90889D3E9026740EA0100C3
S214004E0082F0010214BF04210021002D069240EA20
S214004E10010014BF082100219D69014358690390D1
S214004E20079132463B460A490295CDE9008905942A
S214004E3009A82EF077FC09A8FFF784FF41B0BDE86B
S214004E40F08300BF100B002000000020081C00208C
S214004E5080AD0300000000002DE9F04F2DED028B21
S214004E60A94D9FB095F884600C910D931EB1A74E86
S214004E7096F851331BB9A648FFF764FF7CE39FED15
S214004E809E8B904600230EAA58210446404685F87D
S214004E9082308DED0E8B8DED108B8DED128B8DEDA2
S214004EA0148BFFF7B1FB10AA592107464046FFF7BF
S214004EB0ABFB12AA00905A214046FFF7A5FB14AAA6
S214004EC0029041214046FFF79FFB039007B12F78E1
S214004ED0009B13B195F820300093029B13B195F810
S214004EE040300293039B13B195F8603003934FB99B
S214004EF0009B3BB9029B2BB9039B1BB98548FFF768
S214004F0021FF39E30C9B8DED168B83B9404616AA1C
S214004F104621FFF779FB50B1DDE916890022002310
S214004F20404649462BF014FE002840F0B682FFF7B4
S214004F302FFA7CB106F54F7494E8100CD6F8483377
S214004F4004931A94CDF86CA0CDF870B01D933FB9B9
S214004F503C4633E096F85033012B40F0E180E9E719
S214004F60EB78DDE90E6763B995F88030012B08D140
S214004F703046394662A3D3E900232BF059FB064698
S214004F800F46D5E90223304639462BF051FB002266
S214004F90804689460023304639462BF0CFFD10B1B7
S214004FA000205D4901E05D49002042464B462BF05B
S214004FB08DF92BF0EDFD20441A900124009B83B35D
S214004FC095F82330DDE9106763B995F88030012B3A
S214004FD008D1304639464AA3D3E900232BF028FBF4
S214004FE006460F46484B3046D3E90A2339462BF08F
S214004FF01FFB0022804689460023304639462BF0A8
S2140050009DFD002208B1444B00E0444B4046494613
S2140050102BF05CF92BF0BCFD44F0020450441B90CE
S214005020E4B2029B7BB395F84330DDE9126763B9BF
S21400503095F88030012B08D13046394630A3D3E9A5
S21400504000232BF0F5FA06460F46D5E91223304624
S21400505039462BF0EDFA002280468946002330467A
S21400506039462BF06BFD002208B12B4B00E02B4B92
S214005070404649462BF02AF92BF08AFD44F00404FA
S21400508058441C90E4B2039B002B00F0418195F835
S2140050906330DDE9146763B995F88030012B08D1D9
S2140050A03046394616A3D3E900232BF0C1FA06464C
S2140050B00F46D5E91A23304639462BF0B9FA0022B6
S2140050C0804689460023304639462BF037FD0022BD
S2140050D008B1114B00E0114B404649462BF0F6F85C
S2140050E02BF056FD049B44F0080418441D90E4B2CF
S2140050F00EE100BFAFF300800000000000000000DB
S2140051006666666666663940100B0020081C00203E
S214005110E0AD0300FCAD03000000E03F0000E0BF90
S214005120FFF706FBCDE90401FFF7B2FA95ED127B17
S214005130CDE906010022002351EC170B8DED0A7B0A
S2140051402BF0F2FC002840F0B981D6F834032BF09F
S21400515009FADDE90A232BF095FB95F843308046E3
S2140051608946002B00F09D81A94C94ED1A7B002205
S214005170002351EC170B8DED087B2BF0D5FC002897
S21400518040F0AE81A34BD3F838032BF0EBF9DDE902
S21400519008232BF077FB94F8633082468B46002B6F
S2140051A000F091811FB19DED0E7B8DED047B009B81
S2140051B01BB19DED107B8DED067B029B0BB1DDE9EF
S2140051C01289039B0BB1DDE914AB914CE378002BFD
S2140051D000F08B81D4E90223DDE904012BF028FAE4
S2140051E0002204460D460023DDE904012BF0A6FC50
S2140051F00022002800F08881874B204629462BF0A5
S21400520065F8834C2BF0C4FC94F823301A90002BDE
S21400521000F07C81D4E90A23DDE906012BF008FAC8
S214005220002204460D460023DDE906012BF086FC2D
S2140052300022002800F07981774B204629462BF083
S21400524045F82BF0A5FC724B1B9093F84320002AE0
S21400525000F06D8142464B46DDE90A012BF0E8F985
S214005260002204460D460023404649462BF066FCC5
S2140052700022002800F06A81674B204629462BF062
S21400528025F82BF085FC624B1C9093F86320002ACF
S21400529000F05E8152465B46DDE908012BF0C8F956
S2140052A0002204460D460023504659462BF046FC85
S2140052B00022002800F05B81574B204629462BF041
S2140052C005F82BF065FC534B1D9017B9D3F83C231B
S2140052D01A92009A12B9D3F840231B92029A12B976
S2140052E0D3F844231C92039A12B9D3F848331D937B
S2140052F0009B3C4613B147F00204E4B2029B13B194
S21400530044F00404E4B2039B13B144F00804E4B28E
S21400531051EC180B1EAA62E906010D983F49FFF7EB
S21400532057F948B100223C4BDDE918012AF0CEFFC0
S2140053302BF02EFC074600E00746364D95F8222354
S2140053400F2A03DD3648FFF7FDFC15E10C9A354BB6
S21400535012B1D3F8188004E0D3E90001FEF7BCFFD1
S2140053608046002CEED095F821A3294B03930AEB38
S2140053700A1503F6983BED000BEB0503882632462C
S2140053801846002102932DF0C1FE9FED1F7B039B64
S214005390DFF8949006FB0A338DED007B002605F1BE
S2140053A00802C3F89C7BC3F8F08B5F460BEB020841
S2140053B083F8994B83F8A06BC3F8F46BC3F8F86BCB
S2140053C00DF1680B042E24FA06F22FD05BF8263077
S2140053D059F8261048F8043F5B1AD1071846C8F853
S2140053E010300DD52BF0BEF802460B462BF020F9F8
S2140053F002460B46DDE900012AF068FFCDE9000110
S2140054000136DFE7AFF30080000000000000000078
S214005410100B0020081C00200000E03F34AE030004
S21400542038AE030000000020441F00209DED000B56
S21400543028F0AEFA882359EC108B03FB0A7A8AED23
S214005440140B10EE100A4946002200232BF06CFBCA
S214005450002840F08E803035DFF840A13D440646F7
S2140054601AAF029B042E03EB860324FA06F211D031
S214005470D2070CD5D8692BF075F84B4642462BF070
S21400548001FA57F826304AF82630C5E900010136F9
S2140054900835E6E7FFF7D4F86BE03D4BC3E9008933
S2140054A045E595F88030012B7FF45EAE36A3D3E950
S2140054B000232BF0E7F98046894655E64FF00008B2
S2140054C04FF0000950E694F88030012B7FF46AAE66
S2140054D02DA3D3E900232BF0D5F982468B4661E64F
S2140054E04FF0000A4FF0000B5CE694F88030012B7A
S2140054F07FF470AEDDE9040123A3D3E900232BF08B
S21400550097F8CDE9040165E6224B76E694F88030FC
S214005510012B7FF47FAEDDE906011BA3D3E9002350
S2140055202BF086F8CDE9060174E61A4B85E693F86B
S2140055308030012B7FF48EAE4046494612A3D3E955
S21400554000232BF075F88046894683E6114B94E6D7
S21400555093F88030012B7FF49DAE504659460AA33F
S214005560D3E900232BF064F882468B4692E6094B7B
S214005570A3E60948FFF7E6FB1FB0BDEC028BBDE8CB
S214005580F08F00BFAFF300806666666666663940D9
S214005590000000200000E0BF4CAE0300441F0020C7
S2140055A02DE9F04F2DED068BADF5377D46AD014666
S2140055B007467F2228462EF083FB2878002385F8AE
S2140055C07F302C4630B131F01DF8207014F8010FF2
S2140055D00028F8D1A94928462EF046F9002800F000
S2140055E04481A74928462EF03FF900283AD1A54C19
S2140055F023784BB16378032B06D8A34A52F82300CE
S21400560010B1012104F0AAF894F8203053B194F8B0
S2140056102130032B06D89C4A52F8230010B10121F2
S21400562004F09CF894F8403053B194F84130032BC2
S21400563006D8954A52F8230010B1012104F08EF8DE
S21400564094F86030002B40F00181904B9048012286
S21400565083F85123FFF776FB0DF5377DBDEC068BFF
S214005660BDE8F08F8B4928462EF0FEF80028BED005
S214005670894928462EF0F8F8002800F0C9818749A5
S21400568028462EF0F1F8002800F0C281844928460A
S2140056902EF0EAF8002800F03981824928462EF0DC
S2140056A0E3F8002800F032817F4928462EF0DCF827
S2140056B0002800F048827D4928462EF0D5F80028BC
S2140056C000F041827A4928462EF0CEF8002800F0F5
S2140056D04582784928462EF0C7F8002800F03E821A
S2140056E0754928462EF0C0F8002800F04E8273490F
S2140056F028462EF0B9F8002800F047827049284660
S2140057002EF0B2F8002800F092826E4928462EF05D
S214005710ABF8002800F08B826B4928462EF0A4F8E0
S214005720002801F0AE87694928462EF09DF800282B
S21400573001F0A787664928462EF096F8002801F063
S2140057408E87644928462EF08FF8002801F0878758
S214005750614928462EF03EFC854201F080875F496D
S21400576028462EF081F8002801F062875C4928461A
S2140057702EF07AF8002801F05B875A4928462EF06A
S21400578029FC854201F05487574928462EF06CF8CC
S214005790002801F004870322544928462EF03EFADA
S2140057A0002801F0FC86524928462EF05DF80028B5
S2140057B001F017864F4928462EF056F8002801F0CB
S2140057C010864D4928462EF04FF8002801F0368501
S2140057D04A4928462EF048F8002801F02F85484907
S2140057E028462EF041F8002801F009850622454992
S2140057F028462EF013FA002801F042832C78202C3D
S21400580040F02C822B4613F8012F202AFBD0472A83
S21400581000F09A82A0462E46B8F1000F00F02182D2
S214005820B8F1200F08D116F8018FB8F1200FFAD082
S214005830B8F1000F00F01582B8F1470F00F09C8217
S21400584018F0DF0FE8D016F8018FF9E794F861300A
S214005850032B3FF6FAAE0C4A52F8230000283FF41A
S214005860F4AE012103F07AFFEFE62748FFF76AFA65
S2140058700DF5377DBDEC068BBDE8F08F50AE03000E
S214005880D8AE0300100B0020D8AC0300081C002084
S2140058904CAE0300E0AE0300E8AE0300F0AE03003B
S2140058A0F8AE030000AF030008AF030010AF03001C
S2140058B018AF030020AF03002CAF030034AF030083
S2140058C0ECAC03003CAF0300F0AC030040AF0300B9
S2140058D044AF030050AF030054AF03005CAF0300B7
S2140058E068AF03006CAF030074AF03007CAF030027
S2140058F080AF030084AF0300B8AF0300C0AF03005F
S21400590070B0030078B0030058AE0300CE4CCF4E04
S21400591094F88320002384F8813084F8823086F857
S214005920253332B194F884301BB104F188000CF0B2
S214005930FDF9C74A6178002341F2E80E41F270177C
S21400594082F8203241F2F815137041F2083041F225
S2140059509032032984F8983B84F8203C84F8A83CCD
S21400596084F8303D84F8B83D84F8403E84F8C83E5C
S21400597084F8503F84F8D83F86F8203386F82133E1
S21400598086F8223386F8233386F8243386F82533C0
S21400599086F8263386F82733C6F8283304F80E3000
S2140059A0E35563552354A35407D8AA4B53F8210054
S2140059B018B13030A1690AF0DBFE94F82130032BD1
S2140059C007D8A44A52F8230018B13030A16B0AF069
S2140059D0CFFE94F84130032B07D89E4A52F8230096
S2140059E018B13030A16D0AF0C3FE94F86130032B75
S2140059F007D8984A52F8230018B1A16F30300AF041
S214005A00B7FE0120FFF764F99348FFF79BF923E6FA
S214005A108D4C94F88320002384F8813084F88230FB
S214005A2022B194F88430002B40F08880884B62784E
S214005A30864E002541F2E80E41F2701783F8205298
S214005A4041F2F8101D7041F2083141F29033032AFA
S214005A5084F8985B84F8205C84F8A85C84F8305D51
S214005A6084F8B85D84F8405E84F8C85E84F8505FB9
S214005A7084F8D85F04F80E50E55525546554E5546F
S214005A8086F8205386F8215386F8225386F8235347
S214005A9086F8245386F8255386F8265386F8275327
S214005AA0C6F828530BD86B4B53F822703FB107F15A
S214005AB030000AF041FE2946384603F04FFE94F8BF
S214005AC02130032B0BD8634A52F823503DB105F121
S214005AD030000AF031FE2846002103F03FFE94F81D
S214005AE04130032B0BD85B4A52F823503DB105F1E9
S214005AF030000AF021FE2846002103F02FFE94F81D
S214005B006130032B0BD8534A52F823403CB104F1C2
S214005B1030000AF011FE2046002103F01FFE00238D
S214005B20012086F85133FFF7D3F84B48FFF70AF900
S214005B300DF5377DBDEC068BBDE8F08F04F18800CF
S214005B400CF0F4F872E70123404A184682F8253331
S214005B50FFF7BEF84048FFF7F5F87DE53B4C94F8B4
S214005B602233002284F82523002B3FF44AAF94F812
S214005B702433002B7FF445AF012384F8233308F049
S214005B809FFC6438C4F84C033BE72F4C94F8832002
S214005B90002384F8813084F882301AB194F8843077
S214005BA0002B4CD12A4A6378284E002541F2E80E95
S214005BB041F2701782F8205241F2F810157041F247
S214005BC0083141F29032032B84F8985B84F8205C0D
S214005BD084F8A85C84F8305D84F8B85D84F8405E8C
S214005BE084F8C85E84F8505F84F8D85F04F80E50D6
S214005BF0E55525546554A55486F8205386F8215358
S214005C0086F8225386F8235386F8245386F82553BD
S214005C1086F8265386F82753C6F828533FF64FAF24
S214005C200C4A52F82370002F7FF441AF47E7074B2A
S214005C300948002283F85023FFF784F80CE504F1A6
S214005C4088000CF073F8ADE7100B0020081C00204D
S214005C50701B0020D8AC03004CAE030022462B4637
S214005C60D5E504226F4928462DF0D8FFE0B103227F
S214005C706D4928462DF0D2FFB0B102226B49284666
S214005C802DF0CCFF80B10322694928462DF0C6FFCF
S214005C9050B10222674928462DF0C0FF20B1664960
S214005CA028462EF097F9F0B1644928462EF092F96E
S214005CB010F100092E4618BF4FF00109002C01F024
S214005CC0B380202C06D116F8014F202CFBD0002CD8
S214005CD001F0AA80472C01F0AF8014F0DF0FEDD062
S214005CE016F8014FF9E7564928462EF073F90028B2
S214005CF0DAD1544928462EF06DF90028D4D15249FD
S214005D0028462EF067F90028CED103224F492846B0
S214005D102DF084FF68B14E4928462DF0A5FD20B130
S214005D2028464C492DF0A0FD50B94B48FFF70AF81D
S214005D3092E42B463A4600210120FFF78DF88BE4CB
S214005D404648FEF7FFFF87E45A78312A7FF462ADB3
S214005D509A78372A04D0382A02D0392A7FF45AADE6
S214005D60DE78002EE1D030462CF044FD0028DCD151
S214005D702E2E7FF44FADD8E77378302B28D0322BF9
S214005D801CD0332B7FF45CADB378303B092B7FF609
S214005D9057AD0023169301231893314C2749284604
S214005DA02EF018F994F8843020901BB12D4E96F8FA
S214005DB051333BBB2C48FEF7C5FF4DE4B378303B70
S214005DC0092B7FF63DAD0123169300231893E4E7D5
S214005DD0B378322B00F0FE87332B7FF431AD96F884
S214005DE00390B9F1000F00F0EF8748462CF002FD53
S214005DF00028CED1B9F12E0F7FF422AD01231690E4
S214005E001893CAE794F8833043B1237813B194F813
S214005E1020307BBB1548FEF795FF1DE41448FEF7BF
S214005E2091FF19E4ECB203004CB2030050B2030039
S214005E3054B2030058B203005CB2030040AF030044
S214005E4064B203006CB2030074B203007CB20300B9
S214005E5080B2030084B203004CAE030088B2030095
S214005E60100B0020081C0020E0AD030044B1030026
S214005E7010B103004FF000084FF0000934AA582173
S214005E803846CDE93489CDE93689CDE93889CDE97A
S214005E903A89CDE93C89CDE93E89CDE94089FEF7CE
S214005EA0B3FB36AA592181463846FEF7ADFB38AA21
S214005EB01E905A213846FEF7A7FB3AAA1A904121AF
S214005EC03846FEF7A1FB3CAA492180463846FEF735
S214005ED09BFB3EAA2C904A213846FEF795FB40AA2B
S214005EE02E9052213846FEF78FFB3090B9F1000F06
S214005EF001D094F800901E9B13B194F820301E93A6
S214005F001A9B13B194F840301A93B8F1000F01D0E1
S214005F1094F860804FF0000A4FF0000B384642AA13
S214005F204621CDE942ABFEF76FFB78B19DED427B93
S214005F3052465B4651EC170B8DED1C7B2AF008FE93
S214005F4020B19DED1C7BB24B83ED007BFEF720FA63
S214005F50209B002B40F0478696F85033012B00F02C
S214005F604286FEF7E5FBCDE92001FEF791FB94EDB6
S214005F70127BCDE922010022002351EC170B8DED98
S214005F80247BD6F834732AF0CFFD002840F0228612
S214005F9038462AF0E7FADDE924232AF073FC94F861
S214005FA043302893CDE91C0153B994F88030012B77
S214005FB006D195A3D3E900232AF064FCCDE91C01A1
S214005FC094ED1A7B0022002351EC170B8DED267BF7
S214005FD0D6F838732AF0A8FD002840F0F285384637
S214005FE02AF0C0FADDE926232AF04CFC94F8633048
S214005FF02A9382468B4653B994F88030012B06D1FB
S21400600081A3D3E900232AF03DFC82468B46B9F1F2
S214006010000F03D09DED347B8DED207B1E9B1BB1C6
S2140060209DED367B8DED227B1A9B1BB19DED387B5B
S2140060308DED1C7BB8F1000F01D0DDE93AABE378BB
S21400604063B994F88030012B08D1DDE920016EA3F6
S214006050D3E900232AF0ECFACDE92001D4E90223A3
S214006060DDE920012AF0E4FA0022CDE9320100231E
S214006070DDE920012AF062FD0022002800F09E855E
S214006080644BDDE932012AF021F92AF081FD66AF82
S21400609094F82330386063B994F88030012B08D127
S2140060A0DDE9220158A3D3E900232AF0C1FACDE99D
S2140060B02201D4E90A23DDE922012AF0B9FA0022F6
S2140060C0CDE920010023DDE922012AF037FD002278
S2140060D0002800F03A854F4BDDE920012AF0F6F85B
S2140060E02AF056FD289B786063B994F88030012B1F
S2140060F008D1DDE91C0144A3D3E900232AF098FA6D
S214006100CDE91C01DDE91C23DDE924012AF090FA23
S2140061100022CDE920010023DDE91C012AF00EFD56
S2140061200022002800F00B853A4BDDE920012AF01A
S214006130CDF82AF02DFD2A9BB86063B994F880301C
S214006140012B08D1504659462FA3D3E900232AF045
S2140061506FFA82468B4652465B46DDE926012AF0F8
S21400616067FA0022CDE91C010023504659462AF062
S214006170E5FC0022002800F0E584264BDDE91C0142
S2140061802AF0A4F82AF004FDF860B9F1000F02D155
S214006190D6F83C333B601E9B13B9D6F840337B6081
S2140061A01A9B13B9D6F84433BB60B8F1000F02D17E
S2140061B0D6F84833FB601E9B1BB149F002095FFA14
S2140061C089F91A9B63B349F004095FFA89F9B8F1B3
S2140061D0000F07D049F008095FFA89F91A9B002BCF
S2140061E000F0FA8194F84030002B00F0F181BA6894
S2140061F0D6F844339A4200F0EB810748FEF7A2FD3A
S2140062000CE000BFAFF300806666666666663940DF
S214006210000000200000E03F74B10300FFF71CBA46
S214006220B8F1000FD6D149F003095FFA89F322933B
S214006230D6F8403324933B682093309BD6F83CB383
S214006240D7F804A0002B00F04581E378DDE940890B
S21400625063B994F88030012B08D14046494698A38C
S214006260D3E900232AF0E4F980468946D4E90223DC
S214006270404649462AF0DCF90022CDE91A010023FF
S214006280404649462AF05AFC0022002800F0548472
S2140062908D4BDDE91A012AF019F82AF079FC209BCB
S2140062A01A90A3EB0B002AF05DF9249A8046AAEB1D
S2140062B0020089462AF056F902460B4643EC112B9B
S2140062C049EC108BCDE92C23CDE92E8927F0FAFA7C
S2140062D059EC108B00227D4B10EE100A49462AF02E
S2140062E019FC002840F023841A982AF03BF9002273
S2140062F0CDE91C01744B404649462AF099F9DDE980
S2140063001C23CDE91E01104619462AF091F9DDE955
S2140063101E23CDE91C01104619462AF089F90246CB
S2140063200B46DDE91C0129F0CFFF00220023CDE952
S2140063301C012AF0EFFB002840F0F9839DED1C0BB2
S21400634027F026FB58468DED1C0B2AF00BF9CDE9FD
S2140063501E0120982AF006F9DDE91E2329F0B6FF73
S2140063600022594B2AF064F9CDE9280124982AF036
S214006370F9F8CDE9260150462AF0F4F8DDE926239F
S21400638029F0A4FF0022504B2AF052F9DDE92C2315
S214006390CDE92A01104603F1004142464B462AF059
S2140063A071FADDE91C232AF043F902460B46DDE9C3
S2140063B02801CDE9302329F089FF42464B46CDE936
S2140063C02C01DDE92E012AF05DFADDE91C232AF016
S2140063D02FF98046894602460B46DDE92A01CDE9BB
S2140063E02E8929F073FFDDE93023CDE91C01DDE9B4
S2140063F0280129F069FFDDE92E2380468946DDE97C
S2140064002A0129F061FF0B461A99002902461899BD
S214006410C0F28583002940F0858349EC108BCDE9D6
S2140064201C2327F07FF9DDE91C2343EC102BCDE974
S21400643028231A9027F076F9DDE928231C90DDE959
S214006440260129F041FF42464B46CDE92601DDE90B
S2140064501E0129F039FF9DED261B41EC100B27F09D
S21400646031FA27F05FF900281E9040F360831A9AED
S214006470209B981A2AF076F81C9B41EC1A0BAAEB84
S21400648003002AF06FF8B0EE4A0AF0EE6A0A41EC12
S214006490110B41EC190B27F015FA27F043F91E9B58
S2140064A0C21A82EAE273A3EBE273022B40F3A080E7
S2140064B00748FEF747FCFFF7CFB800BFAFF30080F2
S2140064C066666666666639400000E03F0000F03F9C
S2140064D0E8B103002C9B1BB92E9B002B00F0E68036
S2140064E0E378DDE93C8963B994F88030012B08D164
S2140064F04046494698A3D3E900232AF099F88046F7
S2140065008946D4E90223404649462AF091F80022FB
S214006510CDE91A010023404649462AF00FFB002227
S214006520002853D08E4BDDE91A0129F0CFFE2AF061
S2140065302FFB94F823301A90DDE93E8963B994F86E
S2140065408030012B08D14046494683A3D3E9002377
S2140065502AF06EF880468946D4E90A234046494622
S2140065602AF066F80022CDE91C0100234046494681
S2140065702AF0E4FA0022002800F0EB80784BDDE9F0
S2140065801C0129F0A3FE2AF003FB249A0346D31825
S21400659040421C9329F0E6FF1A9BCDE91E015842A3
S2140065A029F0E0FF9DED1E1B41EC100B27F08AF949
S2140065B027F0B8F81A9B1E905B4400281A933FF702
S2140065C056AF6848FEF7BEFBFFF746B8664BAAE72D
S2140065D0B8F1000F3FF427AE94F86030002B3FF47C
S2140065E022AEFA68D6F848339A427FF406AE1AE628
S2140065F01A9BABEB030029F0B5FF1C9A249BCDE950
S2140066002601981A29F0AEFF9DED261B41EC100BD3
S21400661027F056F9B0EE4A1AF0EE6A1AB0EE408A43
S214006620F0EE608AB0EE490AF0EE690A27F048F903
S2140066304FF000084FF00009284644AA4B49B0EE38
S214006640409AF0EE609ACDE94489FDF7C1FF90B319
S2140066500022434BDDE9440129F038FE2AF098FA7F
S2140066608046434BD3E90001FDF736FE22692490AD
S21400667094F88330002808BF0120904228BF1046B7
S2140066805BB194F8DE3A13B994F812382BB196F849
S214006690243393B194F881307BB196F822330F2BD4
S2140066A070DD3448FEF74EFBFEF7D6BF3248FEF7E5
S2140066B049FBFEF7D1BF8046D3E794F88230002B23
S2140066C0EBD096F88034169A9342E6D1D6F8843406
S2140066D0249A9A42E1D1D6F888341A9AD21A82EAD3
S2140066E0E273A3EBE273022BD7DCD6F88C341C9A49
S2140066F0D21A82EAE273A3EBE273022BCDDCD6F861
S21400670090341E9AD21A82EAE273A3EBE273022B4B
S214006710C3DCB0EE491AF0EE691AB0EE480AF0EEA5
S214006720680A169B009365691E9BC4F8180B1C9A92
S2140067301A991248C4F81C5B0BF04EFD034600285D
S21400674040F01C810E4884F88230FEF7FBFAFEF714
S21400675083BF054B13E700BF66666666666639400C
S2140067600000E03FC4B103000000E0BF34AE030009
S2140067700000002038AE0300A8B10300980B0020EC
S21400678020B2030096F821339B4D03EB031305EB71
S214006790C3058822002128462CF0B8FC9DF88810F6
S2140067A069702499A9651A9969661C99A9661E9943
S2140067B0E966002301229DF8581085F880102A7299
S2140067C0EB652B66C5F8048085ED1C8B85ED1E9B5E
S2140067D00022002351EC180B2AF09CF95BEC18AB56
S2140067E098B10FF20C29D9E900895BEC18AB50463A
S2140067F0594642464B4629F069FD00220023824650
S2140068008B462AF087F90028F1D179A3D3E9002333
S214006810504659462AF092F988B10FF2D419D9E9B0
S21400682000895046594642464B4629F04DFD4246A1
S2140068304B4682468B462AF081F90028F1D1002289
S214006840002351EC190B2AF065F959EC198B70B13D
S21400685067A3D3E900234046494629F037FD0022C6
S2140068600023804689462AF055F90028F0D160A317
S214006870D3E90023404649462AF060F978B14046FD
S21400688049465BA3D3E9002329F01EFD58A3D3E9AC
S2140068900023804689462AF051F90028EFD11E9839
S2140068A029F060FE189BCDE926015246002B00F029
S2140068B067815B46404649462AF04AF952465B469F
S2140068C0002800F04A814046494629F0FDFC024671
S2140068D00B46DDE9260129F0ABFE00220023C5E9C0
S2140068E014012AF021F9002840F03281D6F844231A
S2140068F0D6F83C031892209AD7F804E0D6F840134E
S214006900BB68EA60101A189AE861AEEB0101F868F5
S21400691029629A1AD6F848136A62229A6B61411A5B
S214006920A962910748BFC6F840E3520748BFC6F8B9
S2140069304433229B3F68A861DB08C5F810E018BF07
S214006940C6F84803C6F83C73FDF77AFE1A9AC6F8EE
S21400695088241C9AC6F88C241E9AC6F890249DF8A3
S214006960582086F880240123249A2448C6F88424D4
S21400697084F88230FEF7E6F9FEF76EBE96F82253EC
S214006980209BC6F83C33C6F840A3C6F89434C6F835
S21400699098A4002D3FF4C9A9D6F8900494F8823044
S2140069A096F82073D6F88894D6F88C840028024689
S2140069B0B8BF00F13F02921102F1100E002B00F05A
S2140069C08780DDF890B01890002303EB070C0CF0DE
S2140069D00F0202EB021204EBC20292F8A01B01297E
S2140069E00ED00133DBB2AB42EFDBFFF79EB900BF40
S2140069F0182D4454FB211940A81600204CAE030065
S214006A0092F8981B0029ECD092F8181C1698814230
S214006A10E7D1D2F8A41B2098081A80EAE071A1EB0F
S214006A20E0710C29DDDCD2F8A81BA1EB0A0080EA95
S214006A30E071A1EBE0710C29D3DCD2F8FC1BA1EBD2
S214006A40090080EAE071A1EBE0718E45C9DBD2F85F
S214006A50001CA1EB080080EAE071A1EBE0718E4516
S214006A60BFDBD2F8041C1898081A80EAE071A1EB84
S214006A70E0718E45B5DBD2F8F02B934545D95A45E3
S214006A80114638BF5A46521A052AAAD803F10108F9
S214006A90454523DD3B4401330CF00F0203F00F03A2
S214006AA003EB031302EB021204EBC30104EBC20078
S214006AB001F6983100F6983088222CF029FA5FFA11
S214006AC088F303F10108A84508DA03EB070CE1E7B1
S214006AD00133DBB2AB42FBDBFFF727B9EB19013B17
S214006AE003F00F0303EB031304EBC3046B1EDBB2CC
S214006AF0002286F8223384F8982B43B13B4403F0F7
S214006B000F0386F82133FFF710B95946BBE786F81E
S214006B10233386F8203386F82133FFF706B9002999
S214006B207FF47BACDDE91C23DDE92C8975E4BA48EB
S214006B30FEF708F9FEF790BDB84BFFF7AABBB74BB8
S214006B40FFF7F3BAB54BFFF719BBB44BFFF7C4BA60
S214006B50B348FEF7F7F8FEF77FBD4046494629F0F2
S214006B60D9FFD0B142464B465046594629F0ACFBB9
S214006B7002460B46A2A1D1E9000129F0A5FBA6E634
S214006B805B464046494629F0C5FF50B142464B4653
S214006B905046594629F098FB99E699A1D1E900019B
S214006BA095E652465B464046494629F0D1FF002806
S214006BB0F3D052465B4640464946D7E7974BFFF729
S214006BC060BA94F863302A934FF0000A4FF0000B37
S214006BD0FFF71DBA9FED8C7B94F8433028938DED1C
S214006BE01C7BFFF7EDB966AFD6F83C33D6F84023EA
S214006BF0D6F84413D6F84803229324922691209080
S214006C003B607A60B960F860B9F1000F00F0D98097
S214006C10E378DDE934AB63B994F88030012B08D112
S214006C20504659467AA3D3E9002329F001FD82464F
S214006C308B46D4E902235046594629F0F9FC002237
S214006C40CDE91C0100235046594629F077FF002263
S214006C50002800F0B480734BDDE91C0129F036FBF8
S214006C6029F096FF229B1844032338601C934FF0AC
S214006C7001091E9B73B394F82330DDE936AB63B984
S214006C8094F88030012B08D15046594660A3D3E9CA
S214006C90002329F0CDFC82468B46D4E90A235046D1
S214006CA0594629F0C5FC0022CDE91E0100235046B6
S214006CB0594629F043FF002200287ED0594BDDE9D3
S214006CC01E0129F003FB29F063FF249BDDF870907A
S214006CD0184478601A9B002B6AD094F84330DDE99C
S214006CE038AB63B994F88030012B08D1504659462A
S214006CF047A3D3E9002329F09BFC82468B46D4E9C0
S214006D0012235046594629F093FC0022CDE91C0177
S214006D1000235046594629F011FF0022002843D090
S214006D20404BDDE91C0129F0D1FA29F031FF269B02
S214006D3049F004091844B8605FFA89F9B8F1000F01
S214006D403FF450AA94F86330DDE93AAB63B994F89F
S214006D508030012B08D1504659462DA3D3E9002395
S214006D6029F066FC82468B46D4E91A2350465946DB
S214006D7029F05EFC0022CDE91C010023504659464E
S214006D8029F0DCFE002288B1264BDDE91C0129F043
S214006D909DFA29F0FDFE209B49F008091844F8608A
S214006DA05FFA89F9FFF71ABA1C4BBAE71B4BECE7F8
S214006DB0B8F1000FC6D1FFF736BA184B7FE7174B6E
S214006DC04AE702231C9354E70123CDF85890189302
S214006DD0FEF7E3BF96F80390B9F1000F4AD0484695
S214006DE02BF008FD00287EF4EEAFB9F12E0F7EF4EE
S214006DF027AD012318901693FEF7CFBFAFF30080A0
S214006E00182D4454FB21194000000000000000002B
S214006E106666666666663940F4B203000000E0BF48
S214006E201CB303000000E03F21462B463A46484686
S214006E30FEF712F8FEF710BC7378302B7EF44DAFD9
S214006E4096F80280B8F1300F0ED0B8F1000F09D0D6
S214006E5040462BF0CFFC28B9A8F13008B8F1090F4E
S214006E607EF63BAF0121E0E796F80380B8F1000F0D
S214006E70EED1F7E70123CDF860901693FEF78DBFAD
S214006E800026002744AAC0492846CDE94467FDF7F6
S214006E909FFB002800F0C781DDE94467002200233D
S214006EA03046394629F054FE002800F0C481DFF849
S214006EB01C83C8E9026744AAB4492846FDF788FB44
S214006EC0002800F05A83DDE944670022002330469C
S214006ED0394629F03DFE08B1C8E9086744AAAC491E
S214006EE02846FDF775FB002800F05083DDE944676F
S214006EF0002200233046394629F02AFE48B10022F7
S214006F00A44B3046394629F0E1F929F069FEC8F865
S214006F10180044AAA0492846FDF75AFB90B1DDE9BF
S214006F204467002200233046394629F011FE48B156
S214006F300022984B3046394629F0C8F929F050FE11
S214006F40C8F8140044AA95492846FDF741FB90B1BD
S214006F50DDE94467002200233046394629F0F8FD73
S214006F6048B100228B4B3046394629F0AFF929F05C
S214006F7037FEC8F8100044AA89492846FDF728FBC2
S214006F80002840F0E182874C874FD8E90201D8E913
S214006F900823C4E90201C4E90A23D8F81810D8F86F
S214006FA01400D8F810302161002621636061606308
S214006FB066AA7E49A3612846A363CDE96667FDF706
S214006FC007FB002800F0C980794E96F85133002B55
S214006FD040F021816F4B0022DDE9660129F09AFD21
S214006FE04FF0010300B9034694F88310DAB29142D9
S214006FF000F0B38000216F4884F8833002F0AEFBC7
S21400700000216D4802F0AAFB6C480AF08FFE0022B1
S2140070101146684802F03EFB00221146664802F020
S21400702039FB94F88330002784F88170002B00F039
S214007030F78039465F4802F091FB39465E4802F019
S2140070408DFB5D4A5B495D480AF044FE002800F06F
S214007050DA8094F84130032B28D8594A52F8237026
S21400706027B397F8D830022B08D0564BC7F8F03025
S2140070700222012387F8D82087F87B3104220123D7
S21400708007F13009C7F8E82087F8E4304846216D54
S21400709009F09AFB4846616D09F0BEFB4846A16DB3
S2140070A009F0D2FB3846002102F058FB94F8613014
S2140070B0032B28D8424A52F8237027B397F8D830C3
S2140070C0022B08D03F4BC7F8F0300222012387F886
S2140070D0D82087F87B310422012307F13009C7F84E
S2140070E0E82087F8E4304846216F09F06DFB4846F3
S2140070F0616F09F091FB4846A16F09F0A5FB384681
S214007100002102F02BFB9FED1C1B02229FED1C0BA7
S2140071104FF4487129480BF095FD02224FF4487150
S2140071209FED151B9FED160B24480BF0BFFDD6F800
S2140071307C24D8F81870D8F81430C4F8F02AD6F89A
S2140071402C13D6F830231D48C4F8187B0026C4F844
S2140071501C3B84F8F46A0BF0DDFD284644AA1A4965
S214007160FDF736FA002848D000220A4BDDE9440134
S2140071702EE000BFAFF30080000000000000F03FEC
S214007180000000000000144080B0030094B003002C
S214007190A8B003000000E03FB8B00300C0B0030092
S2140071A0C8B00300100B00200000F0BFD0B00300F2
S2140071B0081C002050220020E0230020980B00200E
S2140071C0D8AC0300003C1CC60CB103000000002035
S2140071D029F07CF829F0DCFC80F3040000F00101C3
S2140071E0C0F34002C0F38003C0F3C000217084F8EF
S2140071F0202084F8403084F86000FDF7C9F8FDF7D9
S214007200E1FDFEF729BA84F88300FDF7DBFABA48F9
S214007210FDF798FDA1E7B948FDF794FDFEF71CBA07
S214007220FDF7D0FA99E744AAB5492846FDF7D0F904
S21400723000287FF431AEDFF8D0823CE6B14EB2498A
S214007240B24CD6F8280396F850C3B14B94F8805049
S214007250189091ED007B96F82203DFF8CCE2AD4F54
S214007260AD4A1A9096F851032C90002D08BF1A4686
S214007270BCF1000F08BFBE4651EC170B8DED167B18
S214007280CDF8A0E02A92FDF727F823691E936369DC
S2140072902093A369229396F824B31C9094ED028B56
S2140072A0FDF746FACDE92401FDF7F2F994F84130EE
S2140072B0032BCDE9260100F29180984A52F823303C
S2140072C0002B00F08B8094F84020002A00F0868087
S2140072D05F6CD4E91289002200234046494629F013
S2140072E023FC002875D1384629F03CF94B46424627
S2140072F029F0C8FA94F843308046894643B9012DF0
S21400730006D17BA3D3E9002329F0BCFA8046894640
S21400731094F86130032B59D8804A52F82330002B5A
S21400732054D094F86020002A50D0D3F844A0D4E972
S2140073301A67002200233046394629F0F5FB00285C
S21400734041D1504629F00EF932463B4629F09AFACA
S21400735094F8634002460B4644B9012D06D164A357
S214007360D3E9002329F08EFA02460B469DED267BD4
S214007370CDE91423229B0C93209B0B938DED107B61
S2140073801E9B0A939DED247B1C9B06932C9B0393CC
S2140073908DED0E7B2A9B02939DED167B289B019319
S2140073A01A9B00938DED047B189B5D495A4666A890
S2140073B0CDE912898DED088B2CF0B4F966A8FDF79F
S2140073C0C1FCFEF749B900220023CFE7D6F838A360
S2140073D0ADE74FF000084FF0000999E7D6F8347390
S2140073E077E74A4C4A4B94F880A04B4DBAF1000F11
S2140073F008BF1D46FDF79CF9CDE91601FDF748F9D3
S21400740094F84130032BCDE9180100F29980434AE5
S21400741052F82330002B00F0938094F84020002A86
S21400742000F08E80D3F84480D4E91267002200234F
S2140074303046394629F078FB00287ED1404629F0B0
S21400744091F83B46324629F01DFA94F8433006463A
S2140074500F464BB9BAF1010F06D125A3D3E9002395
S21400746029F010FA06460F4694F86130032B60D8D0
S2140074702A4A52F82330002B5BD094F86020002A6A
S21400748057D0D3F844B0D4E91A89002200234046E6
S214007490494629F049FB002848D1584629F062F8A9
S2140074A042464B4629F0EEF994F8634002460B46F6
S2140074B04CB9BAF1010F06D10DA3D3E9002329F088
S2140074C0E1F902460B469DED187BCDE904230695AF
S2140074D0CDE902678DED007BDDE9162366A811492C
S2140074E02CF020F966A8FDF72DFCFEF7B5B800BF16
S2140074F06666666666663940A0B20300D8B00300CA
S21400750088B00300081C002000000020100B00209C
S214007510F4AC0300ECAC0300F8AC0300D8AC0300FA
S214007520C8AF03008CAF0300F0AC030000220023BA
S214007530C9E7584BD3F838B3A5E70026002793E7EA
S214007540544BD3F834836FE70022534B534CDDE99A
S214007550440128F0BBFE29F043FB4E4A94F88330E2
S214007560C2F87C04002B3FF40FAD94F88430002B57
S2140075703FF40AADC4F8F00A06E544AA484928468E
S214007580FDF726F800287FF49EACA7E444AA4549F8
S2140075902846FDF71DF800287FF4A8ACB9E43F4C58
S2140075A03C4E00220023D4E9020129F041F80022D3
S2140075B0394B28F08BFE29F0EBFA00220546C6F878
S2140075C02C030023D4E90A0129F032F80022324BBA
S2140075D028F07CFE29F0DCFA94F88330C6F83C5399
S2140075E00246C6F83003C6F840033BB194F8843030
S2140075F023B1294604F188000BF08CFB6378032B3B
S21400760006D8294A52F8233013B1D6F82C235A64E8
S21400761094F82130032B3EF688AB234A52F82330E9
S214007620002B3EF482ABD6F830235A64FEF77DBBBF
S2140076301E4C1A4D0126D4E900010022002385F8CD
S214007640806029F071FA18B1194B0022C4E90023B2
S214007650FCF79EFE1748FDF775FBFDF7FDBF134CC4
S2140076600E4D0026D4E900010022002385F8806034
S21400767029F05AFA0028EBD00F4B0022C4E9002369
S214007680E6E7044B0B48012283F85023FDF75AFB2C
S214007690FDF7E2BF081C00200000E03F100B0020B2
S2140076A09CB00300ACB00300D8AC03000000002080
S2140076B0000034404CAE030000407F400000000055
S2140076C02DE9F04F2DED028BD1A1D1E90001EBB0F1
S2140076D006F020FFBC484FF4E131064602F0E4FF16
S2140076E0304602F0D5FF06F0EBFE41F28735044641
S2140076F0304602F0C7FF002842D0B448DFF818A38F
S214007700002106F007FFB24B0A221868022108F093
S214007710E3FBB048002106F0FDFEAF4B002003F16E
S214007720100693ED027B96E8C040D3E9088901462F
S214007730044601220AE0032A83ED027BC3F810E028
S2140077405F619E6122DC0132D2B20130C5B24901CE
S214007750A5F1030C0AEB0103BCFA8CFC4FEA5C1C97
S214007760012D0AF801405D709D7083F803C0114634
S214007770E1D1C3E90289C3F810E05F619E61E2E7E8
S21400778006F09EFE001BA842B2D9B6E7934F944877
S214007790DFF888924FF0010B00219FED878B8AF867
S2140077A000B001F0DBFF00218E4801F0D7FF4FF05C
S2140077B000084FF4487602258AF88340FDF702F861
S2140077C007F55670C7E9DC89C7F8586387EDD88B8C
S2140077D087F868530BF0A8FA07F56470C7E9EA89DA
S2140077E0C7F8906387EDE68B87F8A0530BF09CFAFA
S2140077F09FED737B7849DFF828927B4B4B6141F213
S214007800883200204FF000080B6181ED007BC1E953
S2140078100289C1E908898A6187F85043C7F82C4372
S214007820C7F83C43C7F89C44C7F83043C7F8404302
S214007830C7F8A044C7F83443C7F84443C7F8A4447D
S214007840C7F83843C7F84843C7F8A84487F826431C
S2140078508AF88040FCF7FAFDFCF79AFD63488AF840
S21400786084B0FDF76FFA6248FDF76CFA97F8AC340F
S214007870002B01F04A815F4A04925F4A06920DF19E
S214007880B809DFF844B1002B5FD05C4801F078FC03
S214007890002840F0DC8097F8AC3483B197F8703459
S2140078A0002B40F03F834846554901F0E9FA484628
S2140078B001F04CFA002840F0F78487F87004584628
S2140078C002F0FEFE002810DB0A28B7F8AE3400F0FF
S2140078D0C7810D2800F0C4817E2B00F31984FA18A6
S2140078E0013382F8B004A7F8AE3497F8AC3483B10D
S2140078F097F87834002B40F025834846414901F03C
S214007900BFFA484601F022FA002840F0B88487F80B
S214007910780497F82433002B40F0EE8197F8224342
S214007920002C40F0CD8097F82733002B40F05A8487
S21400793097F87034002B40F0A0813348002106F001
S214007940E9FD97F8AC34002B9FD1049B1C6894F893
S2140079505C30002BB3D0204607F00AFD204607F027
S214007960A9FD002800F08C862648284D01F042FA32
S214007970234801F03FFA42F23871204801F01AFB22
S2140079800123069E87F8AC3415F8011B584602F012
S214007990A3FE08B1B542F7D1204607F0DDFC2E90D5
S2140079A0484617F0DDFC04462CF0CAF8002800F024
S2140079B0C785251839E000BF00000000000014400D
S2140079C00000000000407F40902C0020001BB70005
S2140079D00C340020808D5B0000000020081C002076
S2140079E050220020E0230020084C010048B303008A
S2140079F060B303000034002096B30300402000204C
S214007A0008200020D01F0020C0D4010084B303004B
S214007A100051250200000000100B00200000F03F7F
S214007A2000006440AC4200F08B8514F8011B5846F9
S214007A3002F052FE0028F5D197F8AC34002B3FF444
S214007A403EAFA44801F09CFB00283FF424AF5F2221
S214007A5016A9A04801F0C6FB00287FF71CAF16AC9D
S214007A600023235412229C4920462CF0D7F80028E5
S214007A707FF411AF049B186807F06EFC159015A8EC
S214007A8017F06EFC42F2B92302469449009348462A
S214007A9042F2B8232BF046FE8E4801F017FC04464F
S214007AA08C4801F015FC214602468A4801F0ACFAE3
S214007AB04946884801F0EEFA864801F0BDFAEAE643
S214007AC097F82533002B7FF433AF032C40F3028462
S214007AD097F8245397F82083002D40F04D862846CB
S214007AE0434603E0A04206F00F0320DA1901CA1845
S214007AF00AEBC20205F1010CD2F8F05BC2F8F45BA7
S214007B0000F1010E5E1CC2F8F85B08B9C2F8F40B6F
S214007B105FFA8EF0A4450546E4D10B440AEBC30396
S214007B200022A042C3F8F82B06F00F03DEDB4FEA74
S214007B30081606EB08050AEBC50505F698318822F7
S214007B4048462BF0E5F9664A08EB081302EBC30338
S214007B509AF883205978039159689B6D0891099388
S214007B606049002387F826338AF88130012381F89C
S214007B702830002A00F0DF8395F8983B0593002B09
S214007B8000F01E8695F8A03B002B40F0178695F86F
S214007B90993B13F0030209D0D5F8B42B002A40F025
S214007BA07C87D5F8B82B002A40F077870592039B90
S214007BB0DE0740F1C7839AF88130002B40F0C98376
S214007BC09AF80130032B00F27785474A52F8234093
S214007BD0002C00F071859AF80030002B00F06C85C0
S214007BE0319DD7F82C63AE1B00F06685099828F007
S214007BF0A9FCDDE93A2328F01BFD21F000430B9396
S214007C000A90DDE90A0128F0EBFFDAF810100028E8
S214007C1008BF0120814204F1300828BF01464046D3
S214007C2008F0D2FD4046DAF8141008F0F5FD40469C
S214007C30DAF8181008F008FE236831469B6A2046DA
S214007C40012298470590002800F0B28497F8263362
S214007C50C7F89C5443F0010387F82633039B71E36F
S214007C60002B3FF442AE3B440022204883F8B02469
S214007C70A7F8AE24FDF794FC37E61D4801F066F839
S214007C8000283FF45AAE06F01BFCD7F87434C31A2B
S214007C90312B02467FF651AE4846C7F87424FCF7EF
S214007CA053FE97F87034002B3FF447AE104801F0AF
S214007CB04DF800283FF441AE48462BF041FF4946B8
S214007CC002460B4800F0EAFF02220A49084800F084
S214007CD0E5FF32E64020002098B30300ACB3030073
S214007CE0A816002000000020D8AC0300B820002012
S214007CF0342000207CAD03009AF88130002B00F081
S214007D000F829AF8DE3A1BB99AF81238002B46D042
S214007D10884E9AF812380E2B3CDC97F82233CBB3F9
S214007D2097F8204325012B190AEBC30393F8982BE9
S214007D3082B3D3F8A41BD3F8B4EBD7F89404D3F8E3
S214007D40A82BD3F8B8CBA1EB0E08A0EB080888EA5E
S214007D50E870A0EBE8700328A2EB0C081ADCD7F852
S214007D609804A0EB080888EAE870A0EBE8700328FF
S214007D7010DC93F8A00B002840F0818093F8993B24
S214007D80980707D0BEF1000F40F04C82BCF1000F00
S214007D9040F048829AF88130002B00F0C1819AF8B2
S214007DA00130032B08D8644A52F8233023B1D3F8A5
S214007DB064319A0500F16F849AF82130032B08D8B5
S214007DC05D4A52F8233023B1D3F864319B0500F1A5
S214007DD0C6849AF8DE3A002B7FF4AAAD9AF81238D9
S214007DE0002B7FF4A5AD9AF84130032B10D8524AE9
S214007DF052F8232062B19AF840304BB1D2F8643181
S214007E009E0500F1F68192F83C30002B7FF490AD91
S214007E109AF86130032B10D8474A52F8233063B1E2
S214007E209AF860204AB1D3F86421960500F1E18102
S214007E3093F83C30002B7FF47BAD97F82633DAF8C6
S214007E40042BC7F82C235D07DAF8082BC7F8302375
S214007E5003D5D7F8A424C7F83423190744BFD7F8A6
S214007E60A834C7F8383300238AF881308AF882307D
S214007E7087F82633C7F8283387F824334EE50128D9
S214007E8088D1D3F8F03B002B40F07483DAF810303A
S214007E90012B28BF0123CAF8183B2819274BC0001E
S214007EA00344504493ED1E1B93ED1C0BD0F8002C9E
S214007EB0D0F8043CD0F8FC1B90F8180C0090304624
S214007EC00AF08AF900283FF465AF2C440AEBC40494
S214007ED097F82213D4F8A42BD4F8A83BC7F8942418
S214007EE0C7F89C24C7F89834C7F8A03400293FF494
S214007EF010AF97F8202302EB02104B1E01320AEB5C
S214007F00C001DBB202F00F024FF0000087F8223308
S214007F1081F8980B87F82023002B7FF4FAAE87F8B9
S214007F202333F6E6064800F011FF00287FF4C7ACBE
S214007F30B9E400BF980B0020D8AC0300A8160020B8
S214007F4034200020AF4800F001FF002840F09D805C
S214007F509AF883308AF881008AF8820023B19AF86A
S214007F608430002B40F0A4839AF80130A64A0024FF
S214007F70032B8AF8984B8AF8204C8AF8A84C8AF883
S214007F80304D8AF8B84D8AF8404E8AF8C84E8AF8BE
S214007F90504F8AF8D84F147082F8884082F8104103
S214007FA082F8984182F8204282F8A84282F830434C
S214007FB087F8204387F8214387F8224387F823432E
S214007FC087F8244387F8254387F8264387F827430E
S214007FD0C7F828430BD88D4A52F823503DB105F117
S214007FE0300008F0A9FB2146284601F0B7FB9AF8B6
S214007FF02130032B0BD8854A52F823403CB104F1BC
S214008000300008F099FB2046002101F0A7FB9AF803
S2140080104130032B0BD87D4A52F823403CB104F183
S214008020300008F089FB2046002101F097FB9AF803
S2140080306130032B0BD8754A52F823403CB104F14B
S214008040300008F079FB2046002101F087FB97F806
S2140080507034002287F85123002B40F0EB82002377
S2140080606B4C87F87834A7F8303514F8011B58465F
S21400807002F032FB48B1674BA342F6D10D215846B9
S21400808002F02AFB002840F0018397F87834002B92
S2140080903FF433AC5B4800F059FE00283FF42DACAB
S2140080A0584C5D4E0025204600F05EFE0028204617
S2140080B07FF72FAC00F06CFE0028FFF62AAC0A28EB
S2140080C0B7F8303512D00D2810D07E2B07EB030200
S2140080D003F1010316DC82F834052046A7F8303594
S2140080E000F042FE00282046E4DC12E4002BDAD042
S2140080F03B440022494883F83425A7F83025FDF78D
S2140081004FFA06E43046A7F83055FCF71BFECAE7E0
S21400811000234148A7F8AE34FCF714FEFFF7E5BB92
S2140081209AF80130032B0FD8384A52F823305BB147
S2140081309AF8002042B1D3F86421950559D493F8F3
S2140081403C30002B7FF4F4AB9AF82130032B0FD889
S2140081502E4A52F823305BB19AF8202042B1D3F869
S2140081606421940545D493F83C30002B7FF4E0ABB3
S2140081709AF84130032B0FD8244A52F823205AB1DC
S2140081809AF8403043B1D2F86431980531D492F869
S2140081903C30002B7FF4CCAB9AF86130032B0FD821
S2140081A01A4A52F823305BB19AF8602042B1D3F8ED
S2140081B0642191051DD493F83C30002B7FF4B8ABB6
S2140081C097F82633DA0703D5D7F89C24C7F82C236C
S2140081D09C0744BFD7F8A024C7F8302358077FF57C
S2140081E03CAE36E60E4887F82743FCF7ABFDFFF7B4
S2140081F09FBB0120FCF72AF99AF88130002BDFD0CC
S2140082001BE600BFFC1F0020701B0020D8AC03003C
S21400821004B403002DB40300ECB303003C2100209B
S214008220B8B403009AF8400048B1580707D5281993
S2140082300AEBC000D0F8BC0B00287FF4ABAD9AF870
S214008240600048B11B0707D52B190AEBC303D3F808
S214008250C03B002B7FF49EAD2B190AEBC303D3F86B
S214008260F00B002800F07E81DAF81030834228BF39
S2140082700346CAF8183B30460AF0B6FB22E62F9BA8
S214008280BDF8C020C7F8F8339DF8C230A7F8FC2325
S21400829087F8FE3301220023BA4887F87824A7F827
S2140082A03035FCF74FFDFBE601232F9A87F8703434
S2140082B01846BDF8C030C7F83024A7F834349DF807
S2140082C0C22087F836240023C7F87434FCF700FD74
S2140082D0FFF7F5BA06F0F4F8D7F84C33C31A632B59
S2140082E07FF626AB97F82243002C7FF4F1AB97F885
S2140082F0205305EB05110AEBC10101F698318822DF
S21400830048462AF005FEA04B9AF8832087F82643B5
S21400831005EB051503EBC503012158780390586853
S2140083209B6D0993994B8AF88140089083F8281032
S214008330002A40F04582039B13F0010340F03A8286
S2140083400593039B9D0704D59AF88130002B00F017
S214008350B781039B5C0740F11F819AF84130032BDD
S21400836000F21A818A4A52F82340002C00F0148149
S2140083709AF84030002B00F00F81339DD7F8346315
S214008380AE1B00F00981099828F0DCF8DDE93E23F1
S21400839028F04EF921F000420F920E90DDE90E0112
S2140083A028F01EFCDAF85010002808BF0120814291
S2140083B004F1300828BF0146404608F005FA40465A
S2140083C0DAF8541008F028FA4046DAF8581008F0A0
S2140083D03BFA236831469B6A20460122984705905F
S2140083E0002800F0E58097F82633C7F8A45443F039
S2140083F0040387F82633039B18074BD59AF8613099
S214008400032B47D8624A52F82340002C00F0CC8059
S2140084109AF86030002B00F0C780349DD7F8386398
S214008420AE1B00F0C180099828F08CF8DDE94023E7
S21400843028F0FEF821F0004311931090DDE91001BA
S21400844028F0CEFBDAF87010002808BF0120814221
S21400845004F1300828BF0146404608F0B5F940460A
S214008460DAF8741008F0D8F94046DAF8781008F010
S214008470EBF9236831469B6A20460122984700287C
S21400848000F0968097F82633C7F8A85443F0080300
S21400849087F82633089BC7F82833002B07DD1A46D3
S2140084A03C4916A82BF03EF916A8FCF74BFC012019
S2140084B0FCF70EFC354B93F828E0BEF1000F37D0E2
S2140084C0002697F82333039397F8220397F8202380
S2140084D0B446B046334604E0E0460133DBB29E4580
S2140084E01ADD02EB02110AEBC101551C441E0028DE
S2140084F0F3D04FF0000214F0FF0081F8982B4FF0F5
S214008500010C05F00F02E7D10133DBB201269E45D0
S214008510B446B0460390E4DCB8F1000F40F0488360
S214008520BCF1000F01D087F82203002E40F04383F1
S214008530164A012382F8283087F82433FFF7F8B963
S2140085400D21584602F0C8F800283FF475AA0A2103
S214008550584602F0C1F897F8AC34002B3FF4AFA9A8
S214008560FFF76FBADAF81030012B28BF0123CAF8DC
S214008570183B80E6DAF81020934228BF1346CAF864
S214008580183B8AE430B40300A81600200000002040
S214008590D8AC0300C0B40300039B190704D59AF8AF
S2140085A06130032B7FF62EAF059B002B7FF472AF56
S2140085B09AF8832000238AF881308AF8823022B124
S2140085C09AF88430002B40F0FF80B74A00238AF8E0
S2140085D0983B8AF8203C8AF8A83C8AF8303D8AF80E
S2140085E0B83D8AF8403E8AF8C83E8AF8503F8AF876
S2140085F0D83F137082F8883082F8103182F89831AC
S21400860082F8203282F8A83282F8303387F8203396
S21400861087F8213387F8223387F8233387F8243303
S21400862087F8253387F8263387F82733C7F82833A3
S214008630FFF77EB99D4800F089FB00283FF40FAD98
S21400864005F03EFFC7F874044846FCF77DF997F836
S2140086507034002B3FF403AD944800F077FB0028FD
S2140086603FF4FDAC48462BF06BFA494602468F486D
S21400867000F014FB02228E498C4800F00FFBEEE45B
S2140086808C49204606F06CFEFFF76EB90A21584664
S21400869002F022F8F9E48848FCF754FB0120FBF7C7
S2140086A0D5FE9AF88130002B3FF48AADFFF7C5BBA4
S2140086B0824809F03BFB57E4039B9B077FF549AED6
S2140086C09AF82130032B3FF644AE7D4A52F82340F9
S2140086D0002C3FF43EAE9AF82030002B3FF439AE23
S2140086E0329DD7F83063AE1B3FF433AE099827F0BF
S2140086F029FFDDE93C2327F09BFF21F000430D9383
S2140087000C90DDE90C0128F06BFADAF8301000283E
S21400871008BF0120814204F1300828BF01464046C8
S21400872008F052F84046DAF8341008F075F840467B
S214008730DAF8381008F088F8236831469B6A204635
S21400874001229847059000283FF432AF97F8263369
S214008750C7F8A05443F0020387F82633F9E55948D2
S214008760FCF7F0FA0120FBF771FE9AF88130002B37
S2140087703FF426ADFFF761BB0020014606464246A1
S21400878002EB02130AEBC30301300131A042D3F817
S214008790F05BC3F8F85BC9B202F1010208BFC3F888
S2140087A0F86BA142C3F8F45B02F00F020846E7DB61
S2140087B0FFF7BDB900230593FFF702BA012B07D0D8
S2140087C000230593FFF7F3B93C4809F0AFFAFCE63F
S2140087D008F10100012C264600F00F0000F0098287
S2140087E0060131180AEBC10108F00F03364A91F86A
S2140087F0985B03EB031302EBC303002D00F0E78145
S214008800D1F8B45BD1F8A4CBD1F8B8EBD1F8A82B4B
S214008810D968ACEB050CA1EB0C0181EAE17CACEB72
S214008820E17CBCF1030FA2EB0E0200F30B829AF878
S214008830401012919AF860101391A44601211B690A
S2140088409A1A82EAE273A3EBE273032B11DC331865
S2140088500AEBC30393F8A02B002A78D193F8993B30
S2140088609C0706D0002D40F0F380BEF1000F40F0CC
S214008870EF801029079140F3A580D7F83023D7F86A
S2140088802C130E480AF046FA10231E460793DAF811
S2140088901430CAF81C3B97F8204301238AF8F53AAF
S2140088A0DFF81880002520E0701B00203420002010
S2140088B07CAD0300C0A8006D48B40300980B0020F0
S2140088C0D8AC030080B40300A8160020DEF8A82B5E
S2140088D0DEF8A41B0AF088F890B30135EDB2013437
S2140088E0AE4204F00F0440F38680CB4BDAF810203B
S2140088F004EB041E4FEACE0E03EB0E01D6444046B0
S214008900DEF8F03B002B08BF0123934228BF134636
S2140089109EF8A02BCAF8183B002AD7D09EF8180C51
S214008920DEF8043CDEF8002C91ED1E1B91ED1C0BCE
S214008930DEF8FC1B0090404609F04EFC0028CCD127
S2140089400023B6488AF8F53A09F0F0F930E6012A2D
S2140089508FD10131C9B201308C4500F00F0088DD9F
S21400896008EB01030601013B32185C420AEBC20227
S21400897004F00F0403F00F03A74D58BF634292F8AC
S214008980984B03EB031305EBC303002C3FF471AFC6
S214008990D2F8B45BD2F8A44BD2F8B8EBD2F8A82B36
S2140089A00792DA68641B121B82EAE274A4EBE27494
S2140089B0079A032CA2EB0E027FF741AF102907910E
S2140089C03FF75BAF0E4600293FF4B5ACD7F830232F
S2140089D0D7F82C1391480AF09DF9DAF81430CAF843
S2140089E01C3B012E3346D4BF0023012397F82043B7
S2140089F08AF8F53A54E79AF8DE3A00228AF8F52A19
S214008A00002B41D097F82033854A9DF81C1082F839
S214008A1028103344013B03F00F0303EB03130AEB68
S214008A20C30397F82623D3F8A40BD3F8A81BC7F8DC
S214008A309C0442F003030122C7F89404C7F8A0146C
S214008A40C7F8981487F826338AF88120FFF7AFB85E
S214008A50129A4AB15A0707D532180AEBC202D2F860
S214008A60BC2B002A7FF405AF139A002A3FF471AF9F
S214008A701B077FF56EAF33180AEBC303D3F8C03B72
S214008A80002B3FF466AFF4E6644809F007FF0028C1
S214008A90B8D1624809F04AF98AE59AF8402052B1FE
S214008AA05A0708D506EB08020AEBC202D2F8BC2B1E
S214008AB0002A7FF485AE9AF86020002A3FF488AE3C
S214008AC01D077FF585AE06EB08030AEBC303D3F854
S214008AD0C05B002D7FF474AE08F10100012C264621
S214008AE000F00F007FF47CAED7F83023D7F82C13B5
S214008AF04A480AF00FF9DAF814308AF8F55ACAF834
S214008B001C3B97F820430796CAE6464B04931C681E
S214008B1094F85C2002F0FF032AB9434A06920DF14E
S214008B20B809FEF7AEBE204606F022FC204606F048
S214008B30C1FC18B93D49204606F012FC3C483D4EA3
S214008B403D4D00F057F93D4800F054F942F23871B7
S214008B503B4800F02FFA012306F11202069287F82E
S214008B60AC3402E0069BB34206D016F8011B28463A
S214008B7001F0B2FD0028F5D1204606F0EDFB0DF51C
S214008B80D47949F8F00D484616F0EAFB04462AF078
S214008B90D7FF002869D0284E251801E0AC4264D0E3
S214008BA014F8011B304601F097FD0028F6D165E069
S214008BB087F82023B4E49DF80C30194A87F823334D
S214008BC0012382F8283087F82433FEF7B1BED7F8A1
S214008BD03023D7F82C1311480AF09CF80126DAF84F
S214008BE014308AF8F55ACAF81C3B079697F82043C3
S214008BF056E6D7F83023D7F82C1308480AF08AF838
S214008C00DAF81430CAF81C3B00238AF8F53A97F8CD
S214008C102043079644E600BFA8160020980B0020C5
S214008C20000000200034002096B30300C0A8006DAA
S214008C30D01F002084B30300902C002008200020C2
S214008C4040200020D7F83023D7F82C130D480AF020
S214008C5061F8DAF81430CAF81C3B012600238AF8BB
S214008C60F53A079697F820431AE60D21064801F0D4
S214008C7033FD18B10A21044801F02EFD97F8AC34F4
S214008C80FEF7FFBD980B0020902C0020406820B116
S214008C904B68C01AB0FA80F040097047F8B54368D0
S214008CA033B11E6826B11AB111B11B7A042B02D05B
S214008CB000242046F8BDB6F86440944228BF144607
S214008CC00546A2B2304601231AF052F80028EFD12A
S214008CD06B6818681AF0D4FD0028E9D105F0F0FB9F
S214008CE06B681B68B3F86630032B0646E1DD084F59
S214008CF008E0386806F080FB6B681B68B3F86630DF
S214008D00032BD6DD05F0DCFB801B0428F1D9D0E769
S214008D1000340020044A02604FF4FA610022018108
S214008D2042608272704700BFD8B4030010B5044694
S214008D300EF002FC044B23604FF4FA6200232281FB
S214008D40A372204610BD00BFD8B40300406850B1DF
S214008D50006840B1007DC31F012B03D9003018BF47
S214008D600120704700207047084B10B5044618686D
S214008D7006F042FB606820B1C3888088181A01D4C8
S214008D8000B210BD00F5167000B210BD0034002011
S214008D904368ABB19A88D988914211D030B40A4D55
S214008DA0541C1A4485FB0415E117507AC1EBA51232
S214008DB04FF4167101FB124200B29A8030BC704725
S214008DC04FF0FF30704700BFB5814E1B002210B435
S214008DD0074C0460418142600272C26002614261D7
S214008DE08261C2610262426282625DF8044B704731
S214008DF0E8B4030030B5446883B005461CB1236868
S214008E004BB103B030BD4FF41971012029F036FA8A
S214008E1068600446F3E718F04DFC6B68206018683D
S214008E200028EED0438B43F04003438305F10C014A
S214008E3018F044FC104B186806F08EFA02A96B680E
S214008E4041F8040D6A89186817F0BEFE20B16968FB
S214008E5008680EF009FCD4E76C68FF21206817F05C
S214008E601FFF6B682060012418681C72034918F005
S214008E7035FC2C72C5E700BF0034002045750100A4
S214008E802DE9F043204B85B006461868894606F063
S214008E90B3FA3046FFF73EFF09F10C0400272568B9
S214008EA001A829469DB1FFF741FF0299BDF80C20A5
S214008EB09DF80E3071603281B3723046FFF746FF80
S214008EC08046C0B9284629F0CFFCC4F80080013798
S214008ED0082F04F10404E2D101A8FFF71BFF029952
S214008EE0BDF80C209DF80E30716030463281B372AA
S214008EF005B0BDE8F083023709EB8707002330464C
S214008F007B6005B0BDE8F083003400202DE9F04119
S214008F10114B064684B018688846174606F06CFA69
S214008F2006F10C042C3654F8045B01A82946FFF71A
S214008F30FDFE01A8FFF70AFF10B12B7A042B05D01F
S214008F40B442F0D1384604B0BDE8F0813A46414616
S214008F5001A8FFF7A3FEF3E700340020F8B5BDF83C
S214008F60187010B104688C4204D01046BDE8F84072
S214008F7016F054BF044640681E46154608B116F063
S214008F804DFF32682B892381E26027826560F8BD39
S214008F900022026042608260C26002618282826158
S214008FA0C261028442620285C2620286C0F8322032
S214008FB0704700BF30B590F8325083B015B100202E
S214008FC003B030BD818204461BF000FC0C4B2060D1
S214008FD025812584186806F0BFF902A9A28A41F8FF
S214008FE0040D20681BF062F90028E8D120680549C6
S214008FF022461BF0C1FB0120C4F8320003B030BD8E
S214009000003400205D8F0000F8B590F8325075B13E
S214009010084B0446186816460F4606F0EDF901227E
S2140090200023E762268684F8332084F83430284606
S214009030F8BD00BF0034002030B5054690F8320079
S21400904083B028B195F8330010B195F8340008B90C
S21400905003B030BD02AAEB6A42F8043DA9692B8E24
S21400906028681BF0B9FA0446A86916F0D7FE084A25
S21400907000231068AB61EB622B8685F8333085F8E9
S214009080343006F0B9F9B4FA84F0400903B030BDC4
S214009090003400202DE9F0410B7882B0002B67D019
S2140090A090F832208DF80730002A61D090F83330DF
S2140090B0002B5DD0314B04461F680D4600261CE091
S2140090C0A36901221B890DF10701404616F0DCFF5B
S2140090D038BBA06916F0A2FE0123C4F8188084F8F5
S2140090E0343015F8013F0136F3B194F832208DF88C
S2140090F00730CAB194F83330B3B1384606F07CF97D
S214009100A369ABB11989013189B24FF420723620B8
S21400911016F0D8FC804638B1A16916F001FF002889
S214009120CED0404616F07AFE304602B0BDE8F0815A
S2140091304FF420720121362016F0C4FCA0610028EE
S214009140F2D001220DF1070116F076FF48B9A369A7
S214009150012284F83420002BC3D1304602B0BDE88B
S214009160F081A06916F05AFE304602B0BDE8F081E4
S2140091700026304602B0BDE8F08100BF0034002073
S21400918038B5174B0446186806F036F994F83230AE
S214009190D3B12389C3B1E069E168228A238461627E
S2140091A0228518B116F03AFE0023E36163684FF497
S2140091B020721989362016F085FCE06120B16168BE
S2140091C016F0AEFE054608B1002038BD606816F001
S2140091D025FE0123208C6560258184F8353038BD56
S2140091E0003400202DE9F84F90F83230002B68D07C
S2140091F090F83530002B64D0038C002B61D0002A09
S2140092005FD09A42D0F81C80A8BF1A461646B8F11E
S214009210000F56D00F4605464FF00009B8F8081064
S2140092204E45A1EB03014C4689B244DDB8F80A303E
S2140092308B4206DC28E056453EDDB8F80A309942F7
S21400924023DA40464C1C17F043F807F809002B8C2D
S21400925009F1010A013B1FFA8AFAA4B29BB2214621
S214009260D14654462B84002BE5D156450EDCE869E2
S21400927016F0D4FD0023EB6185F83530BAF1000F07
S2140092801FD05046BDE8F88FCA46D146D8F800B081
S214009290BBF1000F02D0584616F002FE404616F00C
S2140092A0BDFD2B8CBBF1000F08D0D846002BDED0BE
S2140092B0A642B3DCE2E7CA46D146F7E7002BDDD18B
S2140092C0D5E74FF0FF30BDE8F88F00BF406A704723
S2140092D0008D70470020704790F91800704700BF57
S2140092E0062070470120704790F81401704700BFB1
S2140092F08079704738B583798B4200F0A780A1F15A
S21400930009030D460446032B00F2A280DFE803F0B3
S2140093107A464602303007F00FFA72B6D4F8B40038
S21400932003680022A4F810213BB1D4F8C410D4F886
S214009330C0200B681340FCD10360D4F8BC0003685F
S2140093400022A4F812213BB1D4F8CC10D4F8C820DF
S2140093500B681340FCD10360D4F8A4103D4A91F981
S2140093600130897802EBC3130B440C2093F84010AD
S21400937041F0010183F84010D4F8A81091F90130AB
S214009380897802EBC3130B4493F8402042F00102A5
S21400939083F84020A07162B6012038BD303007F057
S2140093A0CBF972B6D4F8BC0003680022A4F81221E8
S2140093B03BB1D4F8CC10D4F8C8200B681340FCD1CD
S2140093C00360D4F8A410234A91F90130897802EB9F
S2140093D0C3130B4493F840106FF3000183F840105A
S2140093E0D4F8A81091F90130897802EBC3130B4426
S2140093F093F8402042F0010283F84020A57162B63F
S214009400012038BD303007F097F9D4F8A410114A7F
S21400941091F90130897802EBC3130B44092593F8C0
S21400942040106FF3000183F84010D4F8A81091F9AB
S2140094300130897802EBC3130B44012093F84020D7
S2140094406FF3000283F84020A57138BD012038BDB7
S214009450002038BD0080004183790A2B0FD090F899
S2140094603D30A3B1D0F8A430D0F8B02093F9013045
S214009470DB0103F1824303F500435A61704790F81D
S214009480FC309B07EBD590F83D30002BEAD0D0F8A7
S214009490A430D0F8B02093F90130DB0103F1824309
S2140094A003F500439A617047A0F13000D4E700BF8F
S2140094B02DE9F047089FBDF82490BDF828800446A3
S2140094C016468A463A4600211D460DF089FB04F1F1
S2140094D0300007F0FFF86A4BC4F8A0A003F13C0286
S2140094E0C4F8A460C4F8AC702360C4F8A850226323
S2140094F0B2786449DFF898A1634F012303FA02F2B9
S214009500C4F8B020AA7884F8D69003FA02F24FF096
S214009510020C4FF07D0E0020C4F8B82084F8D780E7
S2140095200022A4F8E2C04FF019084FF6FF7CA4F81A
S214009530F8E04FF003094FF0FF3E84F8D820A4F877
S214009540DA20A4F8DC20A4F8DE20A4F8E02084F8D2
S214009550E42084F8F52084F8F620A4F8FC2084F8AB
S214009560002184F80121C4F8F0A084F8F490A4F84F
S214009570D0C0A4F8D2C0A4F8D4C0C4F8E880C4F818
S214009580ECE0C4F80421C4E94C01C4E95001C4E984
S2140095905401C4E95601C4F80821C4F8102184F81F
S2140095A0142184F81521C4F81821C4F81C21C4F825
S2140095B0202184F8382184F8482184F86021C4F8F2
S2140095C06421C4F86821C4F86C21C4F87021C4F87A
S2140095D07421C4F87821C4F87C2184F8882184F8A2
S2140095E0892184F88A21C4F88C21C4F80C81C4F837
S2140095F02831C4F880E1C4F884E16376337B042B19
S21400960098BF224A57F82300767B98BFD25CB6FBF9
S214009610F2F102FB11624FF48073D2B202F11C0128
S21400962003FA02F200EB810102F47C520830C4F81F
S214009630B410C4F8C400C4F8C0202A7B687B57F86E
S2140096402210042A9ABF114B9A5C0022B0FBF2F358
S21400965002FB1303DBB24FF4807203F11C0002FA24
S21400966003F301EB800003F47C530831C4F8BC001C
S214009670C4F8CC10C4F8C8302046BDE8F08700BF58
S21400968010B503000000F03FF4B40300ECB4030090
S214009690003C1CC691B1DAB190F864319B0770B5F6
S2140096A00C461646054602D5303007F045F801232D
S2140096B0C5F81861204685F8153170BD80F815117B
S2140096C0C0F81811C0F81C11C0F82011012070470E
S2140096D01046704790F81521002A38D082790A2A59
S2140096E070B5044600D070BD90F83D20CB0F81EADF
S2140096F0E1769A420D46A6EBE17604D0026880F841
S2140097003D30136B9847A06B636CB042A8BF3046E1
S214009710002DB4BF424202461344D4F8BC506364E2
S2140097202B68A4F8120186B2B34207D0D4F8CC1046
S214009730D4F8C8200B681342FCD12E60002894F899
S214009740643105DD43F0020384F8643170BD704770
S2140097506FF3410384F86431C5E700BF30B590F875
S2140097607A3183B00446002B71D190F8793183F0BA
S214009770010394F8002194F801518A4231D094F8FC
S214009780140184F80011002284F80121C4F808218D
S21400979058B3002172B66BB371B340F2E2420123B4
S2140097A0C4F87C2184F8793162B6A3790A2B2AD0D2
S2140097B094F889318B4235D0D4F8A03000293BD1BB
S2140097C0BFF35B8F2D4ADB4352E8000F184042E898
S2140097D00005002DF8D1BFF35B8F84F8891103B024
S2140097E030BD94F81421002A33D10029D1D072B6A6
S2140097F0002BD1D10029D7D1002384F87A3162B664
S214009800A3790A2BD4D119B994F864319A0728D4CD
S21400981094F8FC30DB0794F8893148BF81F00101E9
S2140098208B42C9D1002DD8D094F80131002BD4D169
S214009830D4F8A0300029C3D0BFF35B8F0F4A52E89C
S214009840000F184342E80005002DC4D0F7E70023B8
S2140098508FE7002284F8001184F80121C4F808215B
S21400986097E794F87431019143F0100384F874314B
S21400987004F1300006F060FF0199C9E7D4320020F9
S21400988090F87831002B4AD0354A90F801311268AA
S21400989000B512698BB990F88A31012B22D0022BC1
S2140098A03BD190F8F430002B45D1D0F88C31002B0A
S2140098B03CD180F88A315DF804FBD0F80431D0F84A
S2140098C00C11D31A8B422BD3D0F80831C0F80421E0
