S0190000436C656172434E435F4669726D776172652E73726563B4
S21400400000000320610A0100D1420000D1420000F6
S214004010D1420000D1420000D14200000000000062
S214004020000000000000000000000000D142000078
S214004030D142000000000000D1420000FD0801004F
S214004040D1420000D1420000D1420000D14200001F
S214004050D1420000D1420000D1420000D14200000F
S214004060D1420000D1420000D1420000D1420000FF
S214004070D1070100E1070100F10701000108010076
S2140040801108010021080100310801004108010063
S2140040905108010061080100710801008108010053
S2140040A0910801009D080100AD080100BD0801004F
S2140040B0D1420000D1420000D1420000D1420000AF
S2140040C0D1420000D1420000D1420000D14200009F
S2140040D0D1420000D1420000D1420000D14200008F
S2140040E0D1420000D14200000000000000000000A5
S2140040F000000000D142000065070100D142000028
S214004100710701007D070100D1420000D142000086
S214004110D1420000D142000089070100D1420000D0
S21400412095070100A1070100D1420000D14200001E
S214004130D1420000D1420000D1420000D14200002E
S214004140D1420000D1420000D1420000D14200001E
S214004150D1420000D1420000D1420000D14200000E
S214004160D1420000D1420000AD070100D14200005C
S214004170B9070100C50701000000000000000000AC
S21400418091D1010095D1010099D101009DD1010086
S2140041905907010051090100D1420000D142000038
S2140041A0D1420000D1420000D1420000D1420000BE
S2140041B0D1420000D1420000D1420000D1420000AE
S2140041C0D1420000D1420000D1420000D14200009E
S2140041D0D1420000CD080100D1420000D1420000CB
S2140041E0E5080100D1420000D1420000D1420000A3
S2140041F0D1420000D1420000D1420000D14200006E
S214004200D1420000D1420000D1420000D14200005D
S214004210D1420000D1420000D1420000D14200004D
S214004220D1420000D1420000D1420000D14200003D
S214004230D1420000D1420000D1420000D14200002D
S214004240D1420000D1420000D1420000D14200001D
S214004250D1420000D1420000D1420000D14200000D
S214004260D142000010B5054C237833B9044B13B186
S2140042700448AFF300800123237010BD000B00201C
S214004280000000002C0604000C4B43B10C480D49FE
S21400429010B5AFF300800C48036823B910BD0A4878
S2140042A0036833B97047094B002BF7D0BDE81040C0
S2140042B01847064B002BF5D0184700BF000000003B
S2140042C02C060400040B0020FC0A0020000000005E
S2140042D0FEE700BF03461A46184612F8011B2029BF
S2140042E001D11346F7E70929FBD03B2905D118462B
S2140042F001330278002AFAD17047282909D11346DB
S2140043001A7818460133002AE4D0292AF8D118462C
S214004310E0E77047000000002DE9F8430022002384
S21400432004460D462DF048FE254E40B9D6E90289D2
S21400433000220023404649462DF03EFE10B130696B
S214004340BDE8F88396F88030012B08D12046294630
S21400435019A3D3E900232DF0B3FB04460D464246CD
S2140043604B46204629462DF0ABFB0022154B2DF080
S214004370D1FC0022144B04460D462DF013FE08B166
S214004380114D002430692DF025FB06460F460246E7
S2140043900B46204629462DF023FE08B134463D46FE
S2140043A000220A4B204629462DF0D8F92DF060FE53
S2140043B0BDE8F883AFF300806666666666663940D9
S2140043C0200B002000004E400000F03F0000E03FC1
S2140043D038B52C4C6378032B10D82B4A52F8235050
S2140043E065B13035284621690EF0DEFE2846616943
S2140043F00EF002FF2846A1690EF016FF94F8213051
S214004400032B10D8204A52F8235065B13035284681
S214004410216B0EF0C9FE2846616B0EF0EDFE2846B5
S214004420A16B0EF001FF94F84130032B10D8164A0A
S21400443052F8235065B130352846216D0EF0B4FE93
S2140044402846616D0EF0D8FE2846A16D0EF0ECFEF3
S21400445094F86130032B00D938BD0B4A52F823502C
S214004460002DF9D030352846216F0EF09DFE2846E7
S214004470616F0EF0C1FE2846A16FBDE838400EF011
S214004480D3BE00BF200B00201CC2030070B504463C
S214004490264614F8015B284625B12FF0F7FB08B92D
S2140044A02A2DF5D1304670BD2DE9F043044683B081
S2140044B00846164634F0BEFB4FF00008C7B2207818
S2140044C0202801D0092801D10134F8E7B8B33B28E9
S2140044D034D0282809D1631C1A781C460133002AD8
S2140044E0EDD0292AF8D11C46E9E734F0A3FB874231
S2140044F014D1631C1D4613F8012B202AFAD0092A72
S214004500F8D001A92846CDF8048032F091F8019B36
S2140045109D4203D086ED000B012010E025462C4678
S21400452015F8019B4846B9F1000FC8D02FF0AEFB36
S2140045300028C4D1B9F13B0FF1D1C0E7002003B089
S214004540BDE8F0832DE9F843074608468846154639
S21400455030F056FD3C4606462046414630F09AFF6F
S2140045600446C0B1874209D010F8010C2FF08EFB2C
S21400457010F1000918BF4FF0010901E04FF00109E2
S214004580A35D3444184643B13D2B06D02FF07EFB86
S2140045900028E1D001E0BDE8F883B9F1000FDBD0D8
S2140045A0204614F8013B202BFAD0092BF8D03D2BDF
S2140045B007D12346184613F8012B202AFAD0092AD9
S2140045C0F8D02A46034930F01BFB431E5842584198
S2140045D0BDE8F8832CC2030038B5114C94F881303E
S2140045E094F8081994F80A598822581C02FB0343C9
S2140045F0012200F00F00114484F8810083F888201F
S21400460084F8092984F8081945B994F80B392BB9A8
S21400461084F80A290CF044FCC4F80C0938BD00BF25
S214004620200B002010B50446007834F003FB4E281B
S2140046300AD16378303B092B06D8631C1C4601332D
S2140046402278303A092AF9D9204610BD38B50446F2
S21400465001300D462FF05AF8A84207D1234613F82A
S214004660014FA4F13002092AF9D901E0002038BD33
S21400467054B120462FF00AFB30B93B2C04D0A4F1ED
S21400468028035842584138BD012038BD30B5C1B066
S2140046900146FF22684630F073FD00238DF8FF3098
S2140046A06C462378184623B134F0C4FA04F8010B9C
S2140046B0F7E76B461D4613F8014B202CFAD0092C61
S2140046C0F8D0002C65D005223349284630F006FD88
S2140046D018B96C7954B901205CE007222F492846A6
S2140046E030F0FCFC70B9EC79002CF4D020462FF0AA
S2140046F0CDFA0028EFD13B2CEDD0A4F12803584288
S214004700584147E04D2C03D02B784D2B0FD10AE0B3
S2140047106B78303B092BF7D8C8212846FFF796FF61
S2140047200028D8D1F0E76B78303B092B03D92B78DB
S2140047304D2B0BD106E0CB212846FFF787FF00283C
S214004740C9D1F4E76B78303B092B03D92B784D2B76
S2140047500BD106E005212846FFF778FF0028BAD1DE
S214004760F4E76B78303B092B03D92B784D2B10D10F
S21400477006E01E212846FFF769FF0028ABD1F4E7C4
S2140047806B78303B092B04D828460221FFF75EFFE2
S21400479000E0002041B030BD30C2030038C2030044
S2140047A03C4B9B79032B00D070473B4B2DE9F04FD9
S2140047B01D685C6844F62062954284BF1A60154600
S2140047C0364AAC4283B092F8101919D289B1D3E9AF
S2140047D0026702F61812D2E900890023002230464A
S2140047E03946A5EB040A2DF0E7FB10B9BAF1000F25
S2140047F010D1A1B2274803B0BDE8F04F05F05ABD6E
S2140048004FF47A6444F620655C601D600029DED1B2
S2140048102146EFE720462DF0DDF8CDE900015046B1
S2140048202DF0D8F832463B4682468B4640464946EF
S2140048302DF070FA0022002306460F462DF0B2FB3C
S21400484028BB0022164B304639462DF0C9FB08B16E
S214004850134F002652465B46304639462DF030F957
S214004860DDE900232CF07AFF00220E4B2CF076FFB9
S2140048702DF0FEFBA04238BF2046854228BF0546E5
S2140048800448A9B203B0BDE8F04F05F013BD0026FA
S2140048900027DFE7383B002000000020200B002028
S2140048A00000F03F0000E03FF8B5234C94F82039B4
S2140048B033B194F821391BB141F2A833E5580FE023
S2140048C094F82130032B08D81C4A52F8233023B121
S2140048D094F820200AB15D6C02E0194BD3F84453DB
S2140048E0D4E90A6700220023304639462DF064FBDF
S2140048F0B8B928462DF07EF832463B462DF00AFA27
S21400490094F8235002460B466DB994F88040012C6B
S21400491009D107A3D3E900232DF0FCF902460B4684
S21400492001E00022002310461946F8BDAFF30080D0
S2140049306666666666663940200B00201CC2030069
S214004940181C002000000000F8B5214C94F820390F
S21400495033B194F821391BB141F2A433E5580DE088
S2140049606378032B07D81B4A52F823301BB12278F2
S2140049700AB15D6C02E0184BD3F84053D4E90267E5
S21400498000220023304639462DF016FBB0B92846E3
S2140049902DF030F832463B462DF0BCF9E57802465D
S2140049A00B466DB994F88040012C09D106A3D3E9D3
S2140049B000232DF0AFF902460B4601E0002200234B
S2140049C010461946F8BD00BF6666666666663940DC
S2140049D0200B00201CC20300181C002070B55C4C85
S2140049E06378032B28D85B4A52F8235025B395F8F2
S2140049F0D830022B08D05849C5F8F01002220123FF
S214004A0085F8D82085F87B310422012305F130068D
S214004A10C5F8E82085F8E430304621690EF0C4FB7E
S214004A20304661690EF0E8FB3046A1690EF0FCFBEB
S214004A302846002107F0D8F894F82130032B28D810
S214004A40444A52F8235025B395F8D830022B08D0A4
S214004A504149C5F8F0100222012385F8D82085F8D0
S214004A607B310422012305F13006C5F8E82085F8DD
S214004A70E4303046216B0EF097FB3046616B0EF04B
S214004A80BBFB3046A16B0EF0CFFB2846002107F09B
S214004A90ABF894F84130032B28D82E4A52F823500E
S214004AA025B395F8D830022B08D02B49C5F8F0105E
S214004AB00222012385F8D82085F87B3104220123C1
S214004AC005F13006C5F8E82085F8E4303046216D5B
S214004AD00EF06AFB3046616D0EF08EFB3046A16D1F
S214004AE00EF0A2FB2846002107F07EF894F861300D
S214004AF0032B00D970BD174A52F82350002DF9D069
S214004B0095F8D830022B08D01349C5F8F0100222C9
S214004B10012385F8D82085F87B310422012305F18E
S214004B203006C5F8E82085F8E4303046216F0EF0F0
S214004B303BFB3046616F0EF05FFB3046A16F0EF018
S214004B4073FB28460021BDE8704007F04DB800BF53
S214004B50200B00201CC20300003C1CC670B51F487A
S214004B601F4C0FF02FFB1F4B00220025012642F2A0
S214004B70B82104F57070C4E9D623C4E9DA23C4E981
S214004B80DE23C4E9E023C4E9E423C4E9E823C4E956
S214004B90EC23C4E9EE23C4F85063C4F8886384F8B1
S214004BA0605384F8705384F8985384F8A85306F03A
S214004BB06FFA04F57B7006F00FFA04F57E7042F289
S214004BC0B92106F065FA04F2244006F005FA04F569
S214004BD08660BDE8704006F03DBB00BF481400206C
S214004BE0181C00200000F03F70B56A4C6A4D94F81F
S214004BF020290023064685F8683485F8693422B1F2
S214004C0094F82139002B40F09280002384F88830F5
S214004C1084F8103184F8983184F8203284F8A83269
S214004C2084F8303384F8B83384F8403484F8C834D1
S214004C3084F8503584F8D83584F8603684F8E83639
S214004C4084F8703784F8F83784F8803885F86A3442
S214004C5084F8813084F8083984F80A3984F80B39E6
S214004C6085F86B3485F86C3484F80939C5F87034E7
S214004C708EB994F81049002185F88414002C4CD085
S214004C80012C59D0454805F09FFC01214448BDE859
S214004C90704005F099BC237843B16278032A6FD937
S214004CA0D5F84033C5F84033C5F8743494F820304E
S214004CB04BB194F82120032A59D9D5F84433C5F8C6
S214004CC04433C5F8783494F840304BB194F841201A
S214004CD0032A43D9D5F84833C5F84833C5F87C3499
S214004CE094F860304BB194F86120032A2DD9D5F89A
S214004CF04C33C5F84C33C5F8803494F82039002B73
S214004D00B7D094F82139002BB3D0D5F84423D5F882
S214004D104013244810F0EEFCABE721461F4805F090
S214004D2053FC21461E48BDE8704005F04DBC04F615
S214004D3028100FF0EBFC68E7194805F045FC214603
S214004D401648BDE8704005F03FBC1749D5F84C330F
S214004D5051F82220002ACCD0536CCAE71249D5F865
S214004D60483351F82220002AB6D0536CB4E70E49D7
S214004D70D5F8443351F82220002AA0D0536C9EE781
S214004D800949D5F8403351F82220002A8AD0536CBE
S214004D9088E700BF200B0020181C0020A43B002042
S214004DA0043C0020481400201CC2030008B5094833
S214004DB005F024FF084B1B7C012B03D1B0FA80F0D2
S214004DC0400908BD022B03D1003018BF012008BDE2
S214004DD0002008BDA83A00200000002000000000C7
S214004DE02DE9F04F2DED028BB74CB84D94F80B39EA
S214004DF0DFF8F4E295F885C4B549B64A94F88060C1
S214004E00DFF8E882B44F94F820A9A1B097ED068B9E
S214004E101E9395F86B341C93D5F87034189394F859
S214004E200839199395F886341D937346BCF1000F24
S214004E3008BF0B461A931346002E08BF43461F9022
S214004E401B93BAF1000F04D094F82139002B40F0E0
S214004E50E4806378032B07D8A04A52F823201AB1BF
S214004E602378002B40F04481D5F840B3D4E902897A
S214004E7000220023404649462DF09EF8002840F0C8
S214004E80168158462CF0B6FD4B4642462CF042FFA3
S214004E90E378CDE9140113B9012E00F0F980BAF1D8
S214004EA0000F40F0D58094F82130032B08D88B4AA9
S214004EB052F8232022B194F82030002B40F01B81BA
S214004EC0D5F844A3D4E90A8900220023404649467F
S214004ED02DF072F8002840F0E58050462CF08AFD50
S214004EE04B4642462CF016FF94F82330CDE91601C7
S214004EF043B9012E06D170A3D3E900232CF00AFF94
S214004F00CDE9160194F84130032B00F28380734AF2
S214004F1052F82320002A7DD094F84030002B79D018
S214004F20D2F844A0D4E9128900220023404649461C
S214004F302DF042F8002840F0A68050462CF05AFD8E
S214004F404B4642462CF0E6FE94F8433082468B46AB
S214004F5013B9012E00F0DA8094F86130032B56D88E
S214004F605E4A52F82320002A51D094F86030002B75
S214004F704DD0556CD4E91A89002200234046494694
S214004F802DF01AF8002879D128462CF033FD4B4630
S214004F9042462CF0BFFE94F863308046894613B92B
S214004FA0012E00F0AB803B7C002B5BD101244C48EB
S214004FB005F024FE3B7C12931D9B05939DED167B0E
S214004FC01B9B04931A9B0393199B02930030189B18
S214004FD001938DED0A7B9DED147B18BF01201C9B71
S214004FE0119000938DED068B1E9B1F983D4A1094E2
S214004FF04FF49671CDE90E89CDE90CAB8DED087BAB
S2140050002FF08CFD21B0BDEC028BBDE8F08FD5F8FB
S2140050104C53AFE7D5F848A384E7D4E9028941F2B8
S214005020A43E404649460022002354F80EB02CF019
S214005030C3FF002876D158462CF0DCFC4B4642468F
S2140050402CF068FEE378CDE91401002B3FF424AF82
S21400505094F82139002B3FF426AF41F2A83354F8D8
S21400506003A02FE71E4805F0C9FD3B7C012B55D059
S214005070022B9BD1B0FA80F4640998E74FF0000841
S2140050804FF000098FE74FF0000A4FF0000B63E780
S214005090DDE9140108A3D3E900232CF03BFECDE99B
S2140050A01401FCE69FED067B8DED167B2AE79FED4F
S2140050B0047B8DED147BF2E66666666666663940AE
S2140050C00000000000000000200B0020181C00203C
S2140050D040C203004CC20300000000201CC20300B4
S2140050E0A83A002050C2030044C2030048C203008E
S2140050F0D2F844B0BAE6D2F844A0E3E60EA3D3E969
S21400510000232CF007FE804689464CE70AA3D3E925
S21400511000232CF0FFFD82468B461DE7041C18BFBB
S214005120012444E79FED027B8DED147B95E700BFDD
S214005130000000000000000066666666666639408D
S21400514030B5194C94F88734CDB00BB94DB030BD9E
S214005150054604F2244005F05BFF0028F6D00BF06D
S2140051609FFE024625B9D4F88834D31A312BEDD9E0
S21400517001A8C4F88824FFF733FE94F88734002B80
S214005180E4D00A4805F044FF0028DFD001A82FF03D
S21400519037FF01A90246054805F0E2FE022204494F
S2140051A0024805F0DDFED1E7181C00203C20002058
S2140051B0ECC2030070B500266C4D6D4C6D4885F84A
S2140051C08C64314685F88D6485F8846484F81069AB
S2140051D005F0FAF93146684805F0F6F9674B9B7911
S2140051E0032B00F0968094F82029002385F8683475
S2140051F085F8693422B194F82139002B40F0A98053
S21400520094F81069002184F8881084F8101184F846
S214005210981184F8201284F8A81284F8301384F8C1
S214005220B81384F8401484F8C81484F8501584F829
S214005230D81584F8601684F8E81684F8701784F891
S214005240F81784F8801885F86A1484F8811084F8B2
S214005250081984F80A1984F80B1985F86B1485F870
S2140052606C1484F80919C5F8701485F88414002E97
S2140052705FD0012E71D03F4805F0A6F901213E48C7
S21400528005F0A2F96378032B0BD83D4A52F8236049
S2140052903EB106F130000DF03FFF3046002106F02B
S2140052A0A3FC94F82130032B0BD8354A52F8236020
S2140052B03EB106F130000DF02FFF3046002106F01B
S2140052C093FC94F84130032B0BD82D4A52F82360F8
S2140052D03EB106F130000DF01FFF3046002106F00B
S2140052E083FC94F86130032B0BD8254A52F82340F0
S2140052F03CB104F130000DF00FFF2046002106F00F
S21400530073FC002385F886340120BDE87040FFF763
S21400531017BF1C4B1A6844F620618A4284BF196086
S2140053200A4659688A420DD989B2144804F0C2FF69
S21400533059E731460F4805F047F931460E4805F063
S21400534043F99FE74FF47A6144F6206259601A6089
S214005350EBE70D480FF0DAF952E7074805F034F9A5
S2140053603146044805F030F98CE700BF181C0020D1
S214005370200B0020A43B0020043C0020383B0020EB
S2140053801CC20300000000204814002070B504462C
S2140053902FF036FE68B10D4E251801E0A54208D064
S2140053A014F8011B304607F0DBFB0028F6D100207E
S2140053B070BD0D21054807F0D3FB0028F7D00A2161
S2140053C00248BDE8704007F0CBBB00BFD83D0020C8
S2140053D070B51C4D95F88E340446E3B920462FF080
S2140053E00FFE60B1184E251801E0AC4207D014F845
S2140053F0011B304607F0B4FB0028F6D170BD0D2126
S214005400114807F0ADFB0028F8D00A210E48BDE889
S214005410704007F0A5BB05F57B7005F0F9FD002888
S214005420DCD020462FF0ECFD2146024605F57B70C9
S21400543005F096FD05F57B700222044905F090FD07
S214005440CCE700BF181C0020D83D0020ECC20300AB
S2140054502DE9F0432B4A2C4B92F8204092F84060FE
S214005460117892F8605092F820091F7C274A002C89
S214005470ADF5137D14BF02240024002E44EA010477
S21400548014BF04210021002D0C9744EA010480F08B
S214005490010014BF08210021D3E902891E685D6857
S2140054A0069021439C6A0791D86A0B96D2F89C64B2
S2140054B00A95D2F898140494D2F894540390D2F82B
S2140054C09044D2F8A00411961A6B1091CDE9088981
S2140054D005900F950E940021D3E908450D91029290
S2140054E0D3E90E012246CDE900012B46084912A851
S2140054F02FF060FB12A8FFF76BFF0DF5137DBDE8DC
S214005500F08300BF200B002000000020181C0020A5
S214005510F0C2030070B5104D95F88D640F2E04DDB3
S2140055200E48FFF755FF002070BD95F88C443444B4
S21400553004F00F040146240205F2A4402044FF2292
S2140055402C442FF01DFE0136002385F88D6484F868
S214005550A335012070BD00BF181C0020C8C303007F
S2140055602DE9F04F2DED088B9D4DAFB095F82169D4
S214005570169117931EB19B4B93F8863423B99A481D
S214005580FFF726FF00F0E3BF95F8203923B99748C8
S214005590FFF71EFF00F0DBBF2B7813B195F8203025
S2140055A023B99348FFF714FF00F0D1BF9FED88ABF7
S2140055B01446582118AA804620468DED18AB8DED6E
S2140055C01AAB8DED1CAB8DED1EAB8DED20AB8DEDCE
S2140055D022AB8DED24ABFEF767FF1AAA59210646CB
S2140055E02046FEF761FF1CAA05905A212046FEF7CA
S2140055F05BFF1EAA412183462046FEF755FF20AAE0
S214005600492182462046FEF74FFF22AA0E904A21E5
S2140056102046FEF749FF24AA109052212046FEF7A6
S21400562043FF129006B12E78059B1BB16C4B93F886
S21400563020300593BBF1000F02D0694B93F840B0C1
S214005640BAF1000F02D0664B93F860A051EC1A0B2B
S2140056502EAA62E9080120464621FEF725FF50B132
S214005660DDE9264500220023204629462CF0B8FC1A
S214005670002840F0A385FEF7ABFE5A4FB8F1000FA6
S21400568012D0D7F87C340693D7F880340293069B62
S214005690D7F87444D7F878542C93029B2A942B9509
S2140056A02D933EB9344635E097F88534012B40F00B
S2140056B0EA80E6E74A4BDA789846DDE9186762B989
S2140056C093F88030012B08D13046394642A3D3E9FF
S2140056D000232CF0F5F906460F46D8E9022330469B
S2140056E039462CF0EDF900228046894600233046E4
S2140056F039462CF06BFC10B100203E4901E03E49D3
S214005700002042464B462CF029F82CF089FC204419
S2140057102A900124059B8BB3314B93F8232098469F
S214005720DDE91A6762B993F88030012B08D130465C
S214005730394629A3D3E900232CF0C2F906460F46C2
S214005740D8E90A23304639462CF0BAF900228046BA
S21400575089460023304639462CF038FC002208B132
S214005760244B00E0244B404649462BF0F7FF2CF034
S21400577057FC44F0020428442B90E4B2BBF1000F1F
S21400578000F0DF86164D95F84330DDE91C6763B9F7
S21400579095F88030012B08D1304639460EA3D3E960
S2140057A000232CF08DF906460F46D5E91223304625
S2140057B039462CF085F9002280468946002330467B
S2140057C039462CF003FC0022C0B10A4B17E000BF9C
S2140057D000000000000000006666666666663940E7
S2140057E0200B0020181C00200CC4030028C4030053
S2140057F05CC403000000E03F0000E0BFAC4B404646
S21400580049462BF0ABFF2CF00BFC069B44F004043F
S21400581018442C90E4B2BAF1000F00F03481A54D84
S21400582095F86330DDE91E6763B995F88030012B83
S21400583008D1304639469CA3D3E900232CF040F922
S21400584006460F46D5E91A23304639462CF038F975
S2140058500022804689460023304639462CF0B6FBA7
S214005860002208B1944B00E0914B404649462BF08D
S21400587075FF2CF0D5FB029B44F0080418442D90CD
S214005880E4B200F058BEFFF75FF88A4CCDE9060197
S214005890FFF70AF894ED127BCDE9080100220023F9
S2140058A051EC170B8DED0C7B2CF086FB002840F09E
S2140058B09884D7F848032CF09DF8DDE90C232CF0EB
S2140058C029FA94F84330CDE90201002B00F07B84DE
S2140058D0784C94ED1A7B0022002351EC170B8DEDCB
S2140058E00A7B2CF069FB002840F08F84734BD3F8BA
S2140058F04C032CF07FF8DDE90A232CF00BFA94F821
S214005900633080468946002B00F071841EB19DED01
S214005910187B8DED067B059B1BB19DED1A7B8DEDEF
S214005920087BBBF1000F03D09DED1C7B8DED027B49
S214005930BAF1000F01D0DDE91E895E4CE378002B3A
S21400594000F06984D4E90223DDE906012CF0B8F8FA
S214005950002204460D460023DDE906012CF036FB46
S2140059600022002800F06784534B204629462BF07F
S214005970F5FE504C2CF054FB94F823302A90002B64
S21400598000F05C84D4E90A23DDE908012CF098F8DD
S214005990002204460D460023DDE908012CF016FB24
S2140059A00022002800F05A84434B204629462BF05C
S2140059B0D5FE2CF035FB3F4B2B9093F84320002A66
S2140059C000F04F84DDE90223DDE90C012CF078F8C5
S2140059D0002204460D460023DDE902012CF0F6FA0B
S2140059E00022002800F04D84334B204629462BF039
S2140059F0B5FE2CF015FB2F4B2C9093F86320002A55
S214005A0000F0428442464B46DDE90A012CF058F885
S214005A10002204460D460023404649462CF0D6FA9E
S214005A200022002800F04084234B204629462BF015
S214005A3095FE2CF0F5FA214B2D9016B9D3F8742468
S214005A402A92059A12B9D3F878242B92BBF1000F4C
S214005A5002D1D3F87C242C92BAF1000F02D1D3F8ED
S214005A6080342D93059B344613B146F00204E4B20D
S214005A70BBF1000F00F01B8444F00404E4B2BAF15A
S214005A80000F40F018840B4B93F84030D3B10B4B0B
S214005A902C9AD3F87C349A4214D00948FFF798FC25
S214005AA000F055BDAFF300806666666666663940F0
S214005AB00000E0BF200B00200000E03F181C002084
S214005AC08CC40300BAF1000F09D0AD4B93F86030D8
S214005AD02BB1AC4B2D9AD3F880349A42DDD1A94B2A
S214005AE02A9A0592D3F87424D3F8783408932B9B1B
S214005AF00693129B0292002B00F00E81A04DEB78CD
S214005B00DDE9246763B995F88030012B08D130466B
S214005B10394699A3D3E900232BF0D2FF06460F4659
S214005B20D5E90223304639462BF0CAFF00228046CC
S214005B3089460023304639462CF048FA002208B140
S214005B40914B00E0914B404649462BF007FE2CF067
S214005B5067FA059B029A0546981A2BF04BFF069BA0
S214005B60089ACDE91001981A2BF044FF9DED100B12
S214005B7041EC110BCDE90A0129F0ECF85BEC10AB17
S214005B800022834B10EE100A59462CF00BFA002820
S214005B9040F0958328462BF02DFF002206460F4640
S214005BA0794B504659462BF08BFF32468046894645
S214005BB03B46304639462BF083FF424606460F46A4
S214005BC04B46404649462BF07BFF02460B46304686
S214005BD039462BF0C1FD00220023CDE90C012CF044
S214005BE0E1F9002840F06B839DED0C0B29F018F9C5
S214005BF0029859EC108B2BF0FDFECDE90C010598B0
S214005C002BF0F8FEDDE90C232BF0A8FD00225E4BFE
S214005C102BF056FFCDE9120108982BF0EBFECDE9EC
S214005C200E0106982BF0E6FEDDE90E232BF096FD1E
S214005C300022554B2BF044FF0B9BCDE91401524636
S214005C400A9803F100415B462CF064F842464B4646
S214005C502BF036FF06460F4602460B46DDE91201DC
S214005C602BF07CFD52465B46CDE90A01DDE91001CA
S214005C702CF050F842464B462BF022FF02460B46CD
S214005C8080468946DDE914012BF068FD32463B4626
S214005C9082468B46DDE912012BF05EFD4B4606463A
S214005CA00F464246DDE914012BF056FD002D169BEB
S214005CB001DB0BB905E023B952465B46DDE90A670E
S214005CC001E002460B4647EC106BCDE90A2328F0AC
S214005CD071FFDDE90A2343EC102B824628F06AFFA9
S214005CE0DDE90A238146DDE90E012BF035FD32465B
S214005CF03B46CDE90A01DDE90C012BF02DFD9DEDBB
S214005D000A1B41EC100B29F025F828F053FF002859
S214005D10804600F39280D2E20E9B33B9109B23B9E3
S214005D201C48FFF755FB00F012BC154DEB78DDE97B
S214005D30206763B995F88030012B08D13046394684
S214005D400DA3D3E900232BF0BBFE06460F46D5E98C
S214005D500223304639462BF0B3FE002280468946A1
S214005D600023304639462CF031F90022A0B1064B0C
S214005D7013E000BFAFF3008066666666666639406D
S214005D80200B0020181C00200000E03F0000E0BFB1
S214005D900000F03FC0C40300B94BBA4D4046494628
S214005DA02BF0DCFC2CF03CF995F823308246DDE93C
S214005DB0226763B995F88030012B08D13046394602
S214005DC0ABA3D3E900232BF07BFE06460F46D5E9AE
S214005DD00A23304639462BF073FE00228046894659
S214005DE00023304639462CF0F1F8002208B1A64BC5
S214005DF000E0A34B404649462BF0B0FC2CF010F9CF
S214005E00089B8146404299442BF0F4FDCDE90A01F7
S214005E10CAF100002BF0EEFD9DED0A1B41EC100BC5
S214005E2028F098FF28F0C6FE029B00289A44804679
S214005E3003DC9648FFF7CCFA89E3059BA3EB0A0040
S214005E402BF0D8FD069B41EC1B0BA3EB09002BF0B7
S214005E50D1FDB0EE4B0AF0EE6B0A41EC110B41ECB3
S214005E60190B28F077FF28F0A5FEA0EB080383EABD
S214005E70E370A0EBE370022803DD8548FFF7A8FA7D
S214005E8065E3029BA3EB0A002BF0B4FD089BCDE96B
S214005E900201A3EB09002BF0ADFD9DED021B41ECCA
S214005EA0100B28F055FFB0EE4B1AF0EE6B1AB0EE62
S214005EB0408AF0EE608AB0EE490AF0EE690A28F0F1
S214005EC047FF51EC1A0BB0EE409AF0EE609A2EAAFD
S214005ED062E9060117986F49FEF734FB48B10022C5
S214005EE0694BDDE928012BF039FC2CF099F80746C0
S214005EF000E00746684B634DD3E90601FEF70CFA4F
S214005F0095F8203908900246002808BF01229646D8
S214005F108BB141F27E32AA5C02F0FF0152B941F227
S214005F20B202AA5C3AB995F80B3923B15B4B93F8E9
S214005F30683400E00B46169995F80B29B1FA81F102
S214005F40490902911AB1554A92F868243AB933B110
S214005F50DFF848B19BF86934002B40F0B481494E15
S214005F6096F808390F2B03DD4D48FFF731FAEEE2BD
S214005F7096F881B00BEB0B13DB00882544F0030486
S214005F8006F188002A46069305FB0B651844002197
S214005F90E3B205932EF002FB9DF81430089985F8BD
S214005FA08A30C5F8E010002301229DF80810C5F8D5
S214005FB08C7085ED3E8B85ED409BC5F8ECA0C5F852
S214005FC0F090C5F8F48085F8081185F8902085F8DB
S214005FD08930C5F8E430C5F8E83055EC184B002297
S214005FE00023204629462BF0DDFF23A3D3E9002318
S214005FF010B916461F460CE0204629462BF0AEFB8D
S21400600004460D46EBE7204629462BF0A5FB044642
S2140060100D4632463B46204629462BF0D7FF3246F1
S2140060203B460028EFD157EC196B00220023304680
S21400603039462BF0B7FF10A3D3E9002330B1304622
S21400604039462BF08BFB06460F46EEE70AA3D3E94C
S2140060500023304639462BF0B9FF07A3D3E90023C7
S21400606000B3304639462BF077FB06460F46EDE781
S2140060706666666666663940182D4454FB211940EC
S2140060800000E0BF200B00200000E03FDCC403005F
S21400609000C5030038C5030000000020181C0020BF
S2140060A06CC5030040462BF0A5FC169BCDE90A0103
S2140060B03246C3B13B46204629462BF073FF30B12B
S2140060C022462B46304639462BF046FB2EE032461B
S2140060D03B46204629462BF083FF20B332463B46FC
S2140060E02046294615E03B46204629462BF078FFF9
S2140060F032463B4620B1204629462BF02DFB15E0C4
S214006100204629462BF04EFF68B122462B463046E5
S21400611039462BF021FB02460B46E3A1D1E90001EC
S2140061202BF01AFB02E0E0A1D1E9000102460B4683
S214006130DDE90A012BF0C4FCD14C882303FB0B4B92
S214006140CBE93601002200232BF036FF002840F072
S214006150EE81069BCB491C4490340E462AAD43592B
S214006160425844F8043F04309B1A10282361F6D1A5
S2140061700023059A042B22FA03F207D0D20744BF65
S21400618055F8232046F823200133F2E7FEF724FAD9
S214006190BD4ABE4BBE48C3F8B4A3012182F86914B9
S2140061A09DF8082083F8AC23089AC3F8B893C3F880
S2140061B0BC83C3F8B023FFF70BF9C8E1B54BC3E9BE
S2140061C00645FFF758BA94F88030012B7FF480AB71
S2140061D0A7A3D3E900232BF09DFDCDE90201FFF72D
S2140061E077BB9FEDA57B8DED027BFFF771BB94F827
S2140061F08030012B7FF48AAB9DA3D3E900232BF0DC
S21400620089FD80468946FFF781BB4FF000084FF0B6
S2140062100009FFF77BBB94F88030012B7FF492AB2C
S214006220DDE9060192A3D3E900232BF049FCCDE972
S2140062300601FFF787BB984BFFF797BB94F88030B3
S214006240012B7FF49FABDDE9080189A3D3E9002386
S2140062502BF036FCCDE90801FFF794BB8E4BFFF719
S214006260A4BB93F88030012B7FF4ACABDDE90201D0
S2140062707FA3D3E900232BF023FCCDE90201FFF72F
S214006280A1BB854BFFF7B1BB93F88030012B7FF4A1
S214006290B9AB4046494676A3D3E900232BF010FC61
S2140062A080468946FFF7AEBB7B4BFFF7BEBBBAF115
S2140062B0000F3FF414AC44F00804E4B23BE1774826
S2140062C0FFF786F843E1714E029A96F8AC33934294
S2140062D07FF445AED6F8B033089A9A427FF43FAEC4
S2140062E0D6F8B433AAEB030282EAE273A3EBE273B6
S2140062F0022B3FF734AED6F8B833A9EB030282EA96
S214006300E273A3EBE273022B3FF729AED6F8BC3359
S214006310A8EB030282EAE273A3EBE273022B3FF7D9
S2140063201EAEB0EE491AF0EE691AB0EE480AF0EE6C
S214006330680A029B009341F2B8372869704594BFFB
S214006340E85145F807E041F2BC346F6954482F51D4
S21400635043464A4651460EF02FFC034628B951489C
S2140063608BF86934FFF734F8F1E0D6F8B8331693B3
S214006370059BCBF87434069BCBF87834059B95F8D0
S2140063800849C6F8C033D6F8B4A3069B3C4D9BF824
S21400639069949BF86A74D6F8BCC3DDF820B0C6F8DA
S2140063A0C43340204FF0000E9CFBF0F04FF08808FE
S2140063B010300894089A5FFA8EF3934280F2B08009
S2140063C0B9F1000F00F0B080DE1906F00F0608FBEA
S2140063D0065292F89010012940F0A68092F8881094
S2140063E0002900F0A18092F80811029CA14240F01A
S2140063F09B80D2F89410059C0C1B84EAE471A1EBF8
S214006400E4710C2900F39080D2F89810069C0C1BBF
S21400641084EAE471A1EBE4710C2900F38580D2F8DC
S214006420EC10A1EB0A0484EAE471A1EBE471884263
S2140064307ADBD2F8F010169C0C1B84EAE471A1EB10
S214006440E471884270DBD2F8F420A2EB0C0181EAFA
S214006450E172A2EBE172904266DB08FB0656D6F8C4
S214006460E020934524D95A45114638BF5A4620E0C5
S214006470666666666666394000000000000000003A
S214006480200B00208C200020181C0020102D00203F
S21400649068C50300000000200000E0BF80C50300C0
S2140064A0481400203CC50300182D4454FB21194015
S2140064B05946521A052A37D8089C8826F818411CCF
S2140064C001F00F0100F00F0003F10108882206FB1F
S2140064D0005006FB015144451144104404DD2DF0E4
S2140064E05FFF5FFA88F3E9E73B19013B882203F078
S2140064F00F0302FB0353013CE4B2002285F808496F
S21400650083F888203CB9144B85F80A4985F8814001
S21400651083F86A4404E0274407F00F0785F8817083
S2140065200E48FEF755FF12E00EF1010E42E70C484A
S214006530FEF74EFF0BE0BBF1000F7FF4A4AAFFF7B7
S214006540C4BABAF1000F3FF4CAAAFFF768B92FB071
S214006550BDEC088BBDE8F08F181C002068C5030052
S214006560A8C50300000000002DE9F04F2DED028BBA
S214006570B34CA9B094F821590E910F931DB1B14DAB
S21400658095F8863423B9B048FEF722FF00F02FBCFA
S2140065909FEDA78B1646002310AA58218146304649
S2140065A085F869348DED108B8DED128B8DED148B87
S2140065B08DED168BFDF778FFA04612AA59210446EA
S2140065C03046FDF771FF14AA5A2182463046FDF781
S2140065D06BFF16AA834641213046FDF765FF019002
S2140065E00CB198F80040BAF1000F01D098F820A03E
S2140065F0BBF1000F01D098F840B0019B13B198F89A
S214006600603001935CB9BAF1000F08D1BBF1000FFE
S21400661005D1019B1BB98D48FEF7DAFEE7E30E9B1A
S2140066208DED188B83B9304618AA4621FDF73CFF3E
S21400663050B1DDE9186700220023304639462BF0BA
S214006640CFFC002840F06483FDF7C2FEB9F1000FCE
S21400665015D0D5F878340293D5F87C340493D5F861
S21400666080340693029B1D93049BD5F874941E9366
S214006670069BCDF870901F933CB9A14635E095F87F
S2140066808534012B40F0E880E3E798F80330DDE935
S214006690104563B998F88030012B08D1204629466A
S2140066A065A3D3E900232BF00BFA04460D46D8E980
S2140066B00223204629462BF003FA002206460F4600
S2140066C00023204629462BF081FC10B100206049AB
S2140066D001E06049002032463B462BF03FF82BF0A5
S2140066E09FFC48441C904FF00109BAF1000F32D0CD
S2140066F098F82330DDE9124563B998F88030012B0D
S21400670008D1204629464CA3D3E900232BF0D8F91C
S21400671004460D464A4B2046D3E90A2329462BF069
S214006720CFF9002206460F460023204629462BF0C6
S2140067304DFC002208B1464B00E0464B3046394639
S2140067402BF00CF82BF06CFC029A49F00203104474
S2140067501D905FFA83F9BBF1000F31D098F84330F3
S214006760DDE9144563B998F88030012B08D120463E
S214006770294631A3D3E900232BF0A2F904460D469F
S214006780D8E91223204629462BF09AF9002206461D
S2140067900F460023204629462BF018FC002208B19D
S2140067A02B4B00E02B4B304639462AF0D7FF2BF018
S2140067B037FC049A49F0040310441E905FFA83F9EC
S2140067C0019B002B00F04C8198F86330DDE91645FC
S2140067D063B998F88030012B08D12046294616A3C5
S2140067E0D3E900232BF06CF904460D46D8E91A23AA
S2140067F0204629462BF064F9002206460F46002361
S214006800204629462BF0E2FB002208B1104B00E0A0
S214006810104B304639462AF0A1FF2BF001FC069AB1
S21400682049F0080310441F905FFA83F918E100BF8F
S2140068300000000000000000666666666666394076
S214006840200B0020181C00200CC40300D4C5030035
S2140068500000E03F0000E0BFFEF776F806460F4671
S214006860FEF722F898ED127BCDE904010022002302
S21400687051EC170B8DED087B2BF09EFB002840F0AB
S2140068805882D5F848032BF0B5F8DDE908232BF03D
S21400689041FA98F84330CDE90201002B00F03C8223
S2140068A09A4D95ED1A7B0022002351EC170B8DEDC7
S2140068B0067B2BF081FB002840F04D82944BD3F8EA
S2140068C04C032BF097F8DDE906232BF023FA95F816
S2140068D0633080468946002B00F030820CB1DDE93B
S2140068E01067BAF1000F03D09DED127B8DED047B8F
S2140068F0BBF1000F03D09DED147B8DED027B019B59
S2140069000BB1DDE91689814DEB78002B00F028826B
S214006910D5E90223304639462BF0D2F80022CDE9DD
S2140069200C010023304639462BF050FB002200288D
S21400693000F02582774B754DDDE90C012AF00EFF3D
S2140069402BF06EFB95F823301C90002B00F019827C
S214006950D5E90A23DDE904012BF0B2F80022064649
S2140069600F460023DDE904012BF030FB002200284F
S21400697000F01682674B304639462AF0EFFE2BF0C1
S2140069804FFB624B1D9093F84320002A00F00A82CA
S214006990DDE90223DDE908012BF092F80022064625
S2140069A00F460023DDE902012BF010FB0022002831
S2140069B000F00782574B304639462AF0CFFE2BF0C0
S2140069C02FFB524B1E9093F86320002A00F0FB81A9
S2140069D042464B46DDE906012BF072F800220646D9
S2140069E00F460023404649462BF0F0FA00220028C6
S2140069F000F0F881474B304639462AF0AFFE2BF0C0
S214006A000FFB1F901CB9424BD3F874341C93BAF199
S214006A10000F03D13E4BD3F878341D93BBF1000F23
S214006A2003D13B4BD3F87C341E93019B1BB9384BE8
S214006A30D3F880341F93A146BAF1000F03D044F078
S214006A4002035FFA83F9BBF1000F03D049F0040399
S214006A505FFA83F9019B1BB149F008035FFA83F9DB
S214006A6054EC183B28AA62E90E340F982A49FDF721
S214006A7069FD48B10022274BDDE91A012AF06EFEB7
S214006A802BF0CEFA019000E00190204B93F80839E5
S214006A900F2B03DD2148FEF79BFCA8E10E9B002B85
S214006AA000F0A180DFF878A00026002720AD0024A3
S214006AB00DF17008042C29FA04F31BD0DB0785EDD2
S214006AC0008B14D55AF8243058F82400C01A2AF03F
S214006AD091FF02460B46C5E900232AF0F1FF024665
S214006AE00B46304639462AF039FE06460F46013434
S214006AF00835DFE700220023304639462BF05CFAE3
S214006B00044678B14FF0010873E000BF200B002068
S214006B10181C00200000E03F38C503006CC50300C9
S214006B208C20002047EC106B28F07AF90FF2C82B67
S214006B30DBE900ABB0EE408AF0EE608ADFF8F48264
S214006B4020AD042C05EBC401B8A3D3E9002329FA31
S214006B5004F02AD0C00726D5496855F834000A90B4
S214006B6021F000410B91DDE90A012BF01BFAD0B9A8
S214006B7058F824002AF02EFF53EC182B06460F4632
S214006B80DDE90A012BF0C6F802460B4630463946C8
S214006B902BF0C0F852465B4606460F462BF002FA2C
S214006BA008B1B246BB460134CBE793A3D3E9002332
S214006BB0504659462BF014FA38B90022944B5046EA
S214006BC059462BF0EFF920B19CE70FF22C2BDBE9AE
S214006BD000AB00228F4B504659462AF0BFFD2BF0E3
S214006BE047FA804605E08C4BD3E90601FDF794FB97
S214006BF08046B9F1000F3FF44DAF884F97F881609B
S214006C0006EB0614E40007F18803234488252A4689
S214006C101846002102932DF0C1FC05FB06739DF873
S214006C20381083F889100199C3F88C10002507F1F5
S214006C30880104F10802C3F8E08001974FF0000ACB
S214006C404FF0000B83F88A9001EB0208049183F85A
S214006C509050C3F8E450C3F8E8501CAF042D29FA4E
S214006C6005F21CD06E4957F8253051F8251048F823
S214006C70043F5B1AD1071846C8F810300DD52AF025
S214006C80B9FE02460B462AF01BFF02460B4650464C
S214006C9059462AF063FD82468B460135DEE74BEC0B
S214006CA010AB28F0BDF8019A88235BEC10AB03FB11
S214006CB0062686ED360B10EE100A594600220023F3
S214006CC02BF07AF9002840F08F80049B544E303425
S214006CD023441C4605461CAF029B042D03EB85038C
S214006CE029FA05F211D0D2070CD5D8692AF082FE0F
S214006CF05B4652462BF00EF857F8253046F82530FE
S214006D00C4E9000101350834E6E7FDF765FC6BE0F1
S214006D10414BC3E9066797E498F88030012B7FF46F
S214006D20BFAD37A3D3E900232AF0F4FFCDE9020173
S214006D30B6E59FED357B8DED027BB1E595F88030AD
S214006D40012B7FF4CBAD2EA3D3E900232AF0E2FF7C
S214006D5080468946C2E54FF000084FF00009BDE5C1
S214006D6095F88030012B7FF4D3AD3046394624A306
S214006D70D3E900232AF0A4FE06460F46C8E5294BB1
S214006D80D9E595F88030012B7FF4E2ADDDE904010A
S214006D901BA3D3E900232AF093FECDE90401D7E52F
S214006DA0204BE8E593F88030012B7FF4F1ADDDE968
S214006DB0020113A3D3E900232AF082FECDE90201E3
S214006DC0E6E5184BF7E593F88030012B7FF400AE2C
S214006DD0404649460AA3D3E900232AF071FE8046BE
S214006DE08946F5E50F4B06E60F48FEF7F1FA29B09F
S214006DF0BDEC028BBDE8F08F0000E0FFFFFFEF4127
S214006E0066666666666639400000000000000000A0
S214006E100000F03F0000E03F00000020200B0020B4
S214006E208C2000200000E0BF68C5030095D626E849
S214006E300B2E113EA82000202DE9F04F2DED028BE1
S214006E40ADF5557D30AD01460746FF2228462EF0AB
S214006E5097F92878002385F8FF302C4630B131F0BA
S214006E60E9FE207014F8010F0028F8D12C4647F6EA
S214006E70ED7823461C4613F8010B2028FAD0092883
S214006E80F8D03B280DD028280FD16378013423B9D9
S214006E90EFE714F8013F002BEBD0292BF9D1013492
S214006EA0E7E714F8010F0028FBD131F0C3FE4E28A7
S214006EB000F0CA80264614F8010B2028FAD00928CC
S214006EC0F8D03B280DD0282857D17378741C23B9E6
S214006ED0F0E714F8013F002BECD0292BF9D1013450
S214006EE0E8E716F8013F002BFBD14FF000084FF003
S214006EF000092E4615F8014B202CFAD0092CF8D0A4
S214006F003B2C0DD0282C0FD17378751C23B9F0E7D5
S214006F1015F8013F002BECD0292BF9D10135E8E715
S214006F2016F8014F002CFBD1204631F083FE4E2888
S214006F3002D1A5E016F8014F202CFBD0092CF9D081
S214006F403B2C0DD0282C3ED17378721C1BB90BE05D
S214006F5012F8013F43B1292BFAD1561C5478EBE7BF
S214006F6016F8013F002BFBD1B148FEF731FA0DF5BC
S214006F70557DBDEC028BBDE8F08F0028B5D02A28E1
S214006F80B3D031F057FEC0B2532800F086804D28AB
S214006F9040F099807378303B092B00F294802046AD
S214006FA02CF0B4FB831E032B02D91E2840F08B80E6
S214006FB07378303B092B3FF65CAF14F8013F303B4B
S214006FC0092BFAD955E7002CCED02A2CCCD0204657
S214006FD031F030FEC0B2532800F0DC804D283FD19F
S214006FE07378303B092B3BD8751C28462CF08EFB5B
S214006FF07378303B092B40F20E811E2809D88D4C41
S214007000C440E44314F0010400F07881032800F043
S214007010B18104287FF46DAF874C022384F81039C1
S214007020FDF7BEFB94F81049002C00F0AE81012C51
S2140070304FF0000100F0B281804803F0C5FA01214C
S2140070407F4803F0C1FA54E76378303B092B3FF6DC
S21400705031AF013414F8013F303B092BFAD929E748
S214007060354607E02A2C3FF444AF15F8014F002CB4
S2140070703FF43FAF20462CF009FE0028F2D038E758
S2140070807378303B092B3FF657AF013616F8014FA1
S214007090A4F13003092BF9D94EE773782B3BDBB20A
S2140070A00E2B06F101060ED828FA03F3DB4313F085
S2140070B0010308D170A9304670932FF0B9FA709C7E
S2140070C0A6427FF4D6AE5F4928462DF01DFE002866
S2140070D000F095805C4928462DF016FEB0B15B495D
S2140070E028462DF011FE88B1594928462DF00CFE91
S2140070F030B1584928462DF007FE002840F0B480ED
S214007100FEF758F84A48FEF763F930E74A4C23780A
S2140071104BB16378032B06D84F4A52F8230010B1C0
S214007120012104F061FD94F8203053B194F8213029
S214007130032B06D8484A52F8230010B1012104F068
S21400714053FD94F8403053B194F84130032B06D8E1
S214007150414A52F8230010B1012104F045FD94F88D
S214007160603053B194F86130032B06D83A4A52F88F
S214007170230010B1012104F037FD384B2C480122C2
S21400718083F88624FEF724F90DF5557DBDEC028BB9
S214007190BDE8F08F73782B3BDAB20E2A06F10105B4
S2140071A026D847F6ED73D340DB4313F001031FD117
S2140071B070A9284670932FF03BFA709B9D4200F012
S2140071C0C0800023002251EC100B8DED1A0B2AF024
S2140071D0E9FE234BE0B99DED1A0B83ED000BFDF79E
S2140071E0DFFA709D85E62A2C07D016F8014F24B1E9
S2140071F020462CF04BFD0028F5D0354679E6194898
S214007200FEF7E6F80DF5557DBDEC028BBDE8F08F78
S214007210C3E90089E3E715F8013F303B092B3FF649
S214007220ECAE15F8013F303B092BF4D9E5E600BF7C
S21400723068C5030024000040200B0020A43B00206B
S214007240043C0020DCCA0300F4C60300FCC60300AE
S21400725038C2030004C703001CC20300181C002029
S214007260381400200CC60300854928462DF04CFD36
S21400727030B1844928462DF047FD002840F096801E
S2140072800023814A814C82F86B341846FDF7ACFC2B
S2140072906378032B07D87E4A52F8230018B13030A3
S2140072A0A1690BF055FF94F82130032B07D8784AD4
S2140072B052F8230018B13030A16B0BF049FF94F858
S2140072C04130032B07D8724A52F8230018B13030E9
S2140072D0A16D0BF03DFF94F86130032B07D86C4A84
S2140072E052F8230018B1A16F30300BF031FF0120A7
S2140072F0FDF726FF6748FEF76BF845E7634B624AE3
S214007300654883F81049214682F8844403F05CF906
S2140073102146624803F058F9614B9B79032B7FF4B2
S214007320E8AD604B1A6844F620618A4284BF196053
S2140073300A465968914216D289B2594802F0BAFFF5
S214007340D7E53478354644B957E72A2C3FF4D1AD13
S21400735015F8014F002C3FF4CCAD20462CF096FCDF
S2140073600028F2D0C5E54FF47A6144F620625960F1
S2140073701A60E2E7454C012684F81069FDF710FA1A
S21400738094F81049002C7FF452AE2146424803F090
S2140073901BF92146414803F017F9AAE53F4803F0D8
S2140073A013F921463C4803F00FF9A2E53E4928466A
S2140073B02DF0AAFC20B13D4928462DF0A5FC50B979
S2140073C00123314A184682F86B34FDF7B9FE31487E
S2140073D0FDF7FEFFD8E6364928462DF095FC20B18D
S2140073E0344928462DF090FCB8B9284C264A94F823
S2140073F00839002182F86B14002B3FF478AF94F81C
S2140074000B39002B7FF473AF012384F80A3909F097
S21400741047FD6438C4F80C0969E7274928462DF06B
S21400742073FC00283FF46CAE244928462DF06CFC13
S21400743000283FF465AE224928462DF065FC20B1B1
S214007440204928462DF060FC38B90F4B1148002221
S21400745083F88524FDF7BCFF96E61B4928462DF0E9
S21400746053FC20B1194928462DF04EFC80BB064B34
S2140074700848012283F88524FDF7AAFF84E600BFAA
S2140074800CC7030014C70300181C0020200B0020A4
S2140074901CC2030068C50300A43B0020043C002077
S2140074A0383B0020000000201CC7030024C7030050
S2140074B02CC7030034C7030030C2030040C70300D4
S2140074C040C2030048C7030044C203004CC7030081
S2140074D0A14928462DF018FC002800F089809F4915
S2140074E028462DF011FC002800F082809C49284692
S2140074F02DF0D0FF85427BD09A4928462DF004FC1B
S21400750000285FD0984928462DF0FEFB002859D069
S214007510964928462DF0BEFF854253D0944928460A
S2140075202DF0F2FB30B10322924928462DF0D6FD0D
S21400753000286FD1904C914E00220023D4E902011E
S2140075402AF0BEFA00228E4B2AF008F92AF068FDCF
S21400755000220546C6F840030023D4E90A012AF0B3
S214007560AFFA0022864B2AF0F9F82AF059FD94F873
S2140075702039C6F874540246C6F84403C6F87804A0
S2140075803BB194F8213923B1294604F628100EF0B1
S214007590B1F86378032B06D87A4A52F8233013B131
S2140075A0D6F840235A6494F82130032B3FF6DCAC1F
S2140075B0744A52F82330002B3FF4D6ACD6F8442356
S2140075C05A64D1E4704C6C4D0126D4E906010022C1
S2140075D0002385F880602AF0EFFC18B16B4B002280
S2140075E0C4E90623FCF7F4FE6948FDF7F1FECBE597
S2140075F0654C614D0026D4E906010022002385F87B
S21400760080602AF0D9FC0028ECD0624B0022C4E946
S2140076100623E7E7604928462DF076FB30B15F4940
S21400762028462DF071FB002840F0C080524C5C4B81
S21400763094F880A05B4DBAF1000F08BF1D46FDF719
S21400764083F9CDE91A01FDF72FF994F84130032BA1
S214007650CDE91C0175D84B4A52F82330002B70D068
S21400766094F84020002A6CD0D3F84480D4E91267FE
S21400767000220023304639462AF09EFC00285DD1C1
S21400768040462AF0B7F93B4632462AF043FB94F8C8
S214007690433006460F464BB9BAF1010F06D12CA36C
S2140076A0D3E900232AF036FB06460F4694F86130ED
S2140076B0032B3FD8334A52F82330002B3AD094F8A5
S2140076C06020002A36D0D3F844B0D4E91A890022C4
S2140076D00023404649462AF06FFC40BB58462AF035
S2140076E089F942464B462AF015FB94F86340024659
S2140076F00B464CB9BAF1010F06D115A3D3E9002306
S2140077002AF008FB02460B469DED1C7BCDE90423C0
S2140077100695CDE902678DED007BDDE91A2370A89A
S21400772021492DF047FA70A8FDF752FE2CE50022FD
S2140077300023E9E7114BD3F84CB3C6E70026002731
S214007740B4E70E4BD3F8488390E700BFAFF3008052
S214007750666666666666394050C703005CC7030007
S21400776060C7030068C7030074C7030078C7030038
S21400777080C7030088C70300200B0020181C0020C9
S2140077800000E03F1CC20300000000200000344060
S21400779068C5030000407F408CC7030090C7030005
S2140077A048C203004CC2030098C70300904928460D
S2140077B02DF0AAFA30B18F4928462DF0A5FA0028F8
S2140077C040F0EE808C4C8D4EDFF8549294F80B19F6
S2140077D02A9199ED067BD6F8701496F885C4884BE6
S2140077E094F880501C91DFF83CE294F80819854F15
S2140077F0854A1F9196F886142B91002D08BF1A46CD
S214007800BCF1000F08BFBE4651EC170B8DED1A7B7E
S214007810CDF8A0E02992FCF77FFD236921936369E8
S2140078202293A3692393209094ED028BFDF78CF8A6
S214007830CDE92401FDF738F894F84130032BCDE963
S214007840260100F2AA80714A52F82330002B00F07D
S214007850A48094F84020002A00F09F805F6CD4E952
S21400786012AB00220023504659462AF0A5FB0028FA
S21400787040F08E8038462AF0BDF85B4652462AF025
S21400788049FA94F8433082468B4643B9012D06D117
S21400789055A3D3E900232AF03DFA82468B4694F896
S2140078A06130032B71D8594A52F82330002B6CD024
S2140078B094F86020002A68D0D3F84480D4E91A6788
S2140078C000220023304639462AF076FB002853D1A2
S2140078D040462AF08FF83B4632462AF01BFA94F8C8
S2140078E0633006460F4643B9012D06D13EA3D3E9C1
S2140078F000232AF00FFA06460F4699F81030002BA0
S2140079003DD10124424803F079F9239B99F81050A1
S2140079100C939DED267B229B0B93219B0A938DED6A
S214007920107B209B06939DED247B2B9B0393299B2A
S21400793002938DED0E7B289B01939DED1A7B10F133
S214007940000E1F9B009318BF4FF0010E1C9B2A9A37
S2140079503049CDF85CE070A8CDE91467CDE912ABEC
S2140079608DED088B8DED047B189516942DF022F97D
S21400797070A8FDF72DFD07E400260027BDE7FDF7FC
S21400798015FA80F00100C4B2BCE7D6F84C8395E740
S2140079904FF0000A4FF0000B81E7D6F848735EE719
S2140079A01D4928462DF0B0F9002800F0EB8206228B
S2140079B01A4928462DF092FBB0B32846FCF78AFCFD
S2140079C0FCF730FEFCF786FC03780446002B00F03C
S2140079D011832A2B00F00E83472B00F0D782204617
S2140079E0FCF754FDEAE700BF6666666666663940E1
S2140079F0C4C70300CCC70300200B0020181C0020BF
S214007A0048C2030040C203004CC203001CC203006D
S214007A10A83A0020D4C703009CC80300A4C80300EB
S214007A200000002044C20300002600272CAAB2490A
S214007A302846CDE92C67FCF785FD002800F0A983D1
S214007A40DDE92C6700220023304639462AF0C8FAC2
S214007A50002800F0A683DFF8EC92C9E908672CAA94
S214007A60A6492846FCF76EFD002800F08983DDE96C
S214007A702C6700220023304639462AF0B1FA08B1B6
S214007A80C9E90E672CAA9E492846FCF75BFD00282C
S214007A9000F06B83DDE92C67002200233046394670
S214007AA02AF09EFA002800F068830022954B3046A4
S214007AB0394629F053FE2AF0DBFA4FF00108C9F8E0
S214007AC030002CAA90492846FCF73CFD90B1DDE931
S214007AD02C6700220023304639462AF081FA48B146
S214007AE00022884B3046394629F038FE2AF0C0FA84
S214007AF0C9F82C002CAA85492846FCF723FD90B12E
S214007B00DDE92C6700220023304639462AF068FA61
S214007B1048B100227B4B3046394629F01FFE2AF03A
S214007B20A7FAC9F828002CAA79492846FCF70AFDC6
S214007B30002840F0EF82774C77492CAA2846FCF7BD
S214007B4001FD50B1DDE92C670022744B3046394602
S214007B502AF046FA08B1C9E902672CAA70492846F5
S214007B60FCF7F0FCD0B1DDE92C670022002330469C
S214007B7039462AF02BFA88B15DA3D3E900233046B4
S214007B8039462AF019FA48B100225E4B304639468B
S214007B9029F0E4FD2AF06CFAC9F804002CAA614921
S214007BA02846FCF7CFFC002840F09482D9F8000065
S214007BB044F62063984284BFC9F800301846D9F8C6
S214007BC00430834205D344F620624FF47A6389E892
S214007BD00C002CAA54492846FCF7B4FC78B1494B53
S214007BE00022DDE92C0129F0B9FD2AF019FA022855
S214007BF00346A8BF022323EAE37389F810302CAAB1
S214007C004A492846FCF79EFC002840F05182B8F10D
S214007C10000F0AD0464BD9F83020C3F89024C3F89A
S214007C209424C3F89824C3F89C242CAA41492846D7
S214007C30FCF788FC98B1DDE92C670022374B30460C
S214007C4039462AF0C3F950B12E4B00223046394649
S214007C5029F084FD2AF00CFA354BC3F890042CAAC0
S214007C6035492846FCF76EFC98B1DDE92C67002202
S214007C702A4B304639462AF0A9F950B1214B00224A
S214007C803046394629F06AFD2AF0F2F9284BC3F847
S214007C9094042CAA29492846FCF754FC98B1DDE93F
S214007CA02C6700221D4B304639462AF08FF950B11A
S214007CB0144B00223046394629F050FD2AF0D8F9F8
S214007CC01B4BC3F898042CAA1D492846FCF73AFC1F
S214007CD0002840D0DDE92C670022104B304639469C
S214007CE02AF074F9B8B3074B0022304639462BE029
S214007CF0000000000088D340ACC80300C0C80300E2
S214007D00D4C803000000E03FE4C80300ECC803004A
S214007D10F4C80300200B0020FCC803000000F03F5E
S214007D200CC903001CC903002CC9030038C9030092
S214007D30181C002040C9030048C9030050C90300AE
S214007D4058C903000000002029F008FD2AF090F929
S214007D50C94BC3F89C04D9E90801D9E90E23C4E944
S214007D600201C4E90A23D9F83010D9F82C00D9F852
S214007D702830C24F2161002621632165216760619A
S214007D8060636065606770AABD49A3612846A36307
S214007D90A365A367CDE97067FCF7D4FB002800F065
S214007DA0CE80B54E96F88634002B40F04E81B54B0B
S214007DB00022DDE970012AF0F5F84FF0010300B962
S214007DC0034694F82019DAB2914200F0B8800021F8
S214007DD0AD4884F8203903F007FF0021AB4803F0D4
S214007DE003FFAB480CF092FC00221146A64803F0B5
S214007DF097FE00221146A54803F092FE94F820391B
S214007E00002786F86874002B00F01C8139469E48CF
S214007E1003F0EAFE39469D4803F0E6FE9B4A9A497F
S214007E209B480CF047FC002800F0148194F8413081
S214007E30032B28D8974A52F8237027B397F8D830E0
S214007E40022B08D0944BC7F8F0300222012387F8A3
S214007E50D82087F87B310422012307F13008C7F8C1
S214007E60E82087F8E4304046216D0BF09DF9404647
S214007E70616D0BF0C1F94046A16D0BF0D5F938469F
S214007E80002103F0B1FE94F86130032B28D8814A14
S214007E9052F8237027B397F8D830022B08D07E4BC1
S214007EA0C7F8F0300222012387F8D82087F87B3104
S214007EB00422012307F13008C7F8E82087F8E430E9
S214007EC04046216F0BF070F94046616F0BF094F955
S214007ED04046A16F0BF0A8F93846002103F084FE57
S214007EE09FED611B02229FED620B4FF448716848BC
S214007EF00DF098FB02224FF448719FED5B1B9FED3F
S214007F005C0B63480DF0C2FB41F2B83341F2BC3261
S214007F1041F29030D9F83070E750D9F82C10D6F8E6
S214007F20A0E4A15041F29433002744F800E0D6F8CC
S214007F304423D6F840135648E7540DF0DBFB28469A
S214007F402CAA5649FCF7FEFAC0B100224D4BDDE9DB
S214007F502C0129F003FC2AF063F880F3040000F0FB
S214007F600101C0F34002C0F38003C0F3C0002170DB
S214007F7084F8202084F8403084F86000FCF728FA63
S214007F80FCF70EFCFDF764FAFFF7FEB84378302BDB
S214007F9000F0EC83342B7FF422AD8378303B092B42
S214007FA07FF61DADDFF804813D4F2846FCF792F9B9
S214007FB0FCF738FBFCF78EF904780646002C00F038
S214007FC0CB822A2C00F00681042241462DF086F84A
S214007FD0002800F0FA800322394630462DF07EF85D
S214007FE0002800F0F280472C00F0DE803046FCF7D8
S214007FF04DFADBE72C78202C40F02B822B4613F82A
S214008000012F202AFBD0472A00F00A83A0462E46DE
S214008010B8F1000F00F02082B8F1200F08D116F852
S214008020018FB8F1200FFAD0B8F1000F00F01482DB
S214008030B8F1470F00F00F8318F0DF0FE8D016F8FE
S214008040018FF9E7FCF7CAFC79E71648FDF7C0F997
S214008050FFF79AB884F82009FCF7C0FC1248FDF731
S214008060B7F96CE7AFF30080000000000000F03FB7
S2140080700000000000001440181C00200000F0BFA4
S21400808060C903000000E03F983300202835002038
S214008090481400201CC20300003C1CC69CC90300F8
S2140080A0A8C9030068C90300E4CA0300A0C9030006
S2140080B07D4B94F81069002183F88414002E4BD071
S2140080C0012E41D0794802F07FFA0121784802F06B
S2140080D07BFA9CE5DDE92C67002200233046394612
S2140080E029F07EFF00283FF461AD6DA3D3E900239D
S2140080F03046394629F060FF00283FF457AD00228D
S2140081006C4B3046394629F029FB29F0B1FFC9F8F7
S21400811000004DE50022674B674CDDE92C0129F095
S2140081201DFB29F0A5FF604A94F82039C2F8A00488
S214008130002B3FF401AD94F82139002B3FF4FCAC42
S21400814041F29033E050F7E4594802F03DFA3146E8
S214008150564802F039FA5AE53146544802F034FAE5
S2140081603146534802F030FA51E52CAA53492846C6
S214008170FCF7E8F900287FF48DAC4FF00008A0E487
S2140081802CAA4F492846FCF7DDF900287FF46FAC8F
S21400819078E42CAA4B492846FCF7D4F900287FF44B
S2140081A04FACDFF828915AE47378302B00F0438107
S2140081B0312B00F02E81322B02D0332B7FF416AFFA
S2140081C0B378303B092B7FF611AF3F48FDF700F937
S2140081D0FEF7DABF00260027CDE91A6700242846F6
S2140081E0A146A046A246CDE91C6747F6ED7BFCF704
S2140081F071F8FCF717FAFCF76DF8054600780028CA
S21400820066D02A2864D030F015FDC0B250282CD095
S214008210582811D055280BD16B782B3BDBB20E2B90
S21400822006D82BFA03F3DB4313F0010300F09D811D
S2140082302846FCF72BF9DAE76B782B3BDBB20E2BE4
S214008240F6D82BFA03F3DB4313F00103F0D16F1CCF
S214008250384670A970932EF0EBF970988742E7D0F5
S2140082608DED1A0B4FF00109C1E76B782B3BDAB2A4
S2140082700E2ADDD847F6E573D340DB4313F001033F
S214008280D6D16F1C0A22384670A970932EF054FB84
S214008290024670988742CBD090464FF0010AA6E778
S2140082A0000000000088D340181C0020A43B0020DB
S2140082B0043C00200000E03F200B0020D8C803004C
S2140082C0C8C80300B4C80300ACC9030000000020FF
S2140082D0DDE91C67BAF1000F27D1B9F1000F00F0F5
S2140082E05C81DDE91A45002200232046294629F054
S2140082F063FE002840F04C81204629460022B04B01
S21400830029F0DEFBACA3D3E9002304460D4629F092
S21400831067FE002840F037810022AA4B20462946F7
S21400832029F01CFA29F0A4FE8046B8F1000F00F0F0
S214008330CA82A54B984500F22681A44EA44C96F816
S21400834086341A9394F810391C9308F0A9FD06F5A4
S2140083507B7B1F9008F0A4FD1F9BC01A4045BEF40F
S214008360C6AF9C4B1B7C002B3ED19B4DDFF8ACA2CE
S21400837070AF4FF00009504604F0E6FB00280FDB14
S2140083800A2800F0E1810D2800F0DE81B5F8C83338
S214008390FE2B00F3D28170A95A1CC854A5F8C82336
S2140083A08E4F95F8CA3383B196F88E34002B40F082
S2140083B058822CA8394602F0C5FE2CA802F028FEEA
S2140083C0002840F01B8286F88E041A9B13B196F89C
S2140083D08634B3B11C9B13B194F810398BB1804826
S2140083E0002108F087FDB5E7FCF7E0FC08B1FCF7D4
S2140083F0E1FE784B1B7C002BB7D0FCF7D7FC00289F
S214008400B3D00120FCF79CFE7648FCF7E1FFFEF7B0
S214008410BBBEB378302B7FF4D4AEF478002C3FF498
S214008420D4AE20462BF032FC00287FF4CEAE2E2CA5
S2140084307FF4DCADC9E6B378302BEED0A3F1300282
S214008440092A3FF6C2AE322BE7D0332B7FF4CEADEF
S214008450E3E722462B46D6E50422634928462CF05D
S2140084603DFEE0B10322614928462CF037FEB0B14C
S21400847002225F4928462CF031FE80B103225D4976
S21400848028462CF02BFE50B102225B4928462CF0E1
S21400849025FE20B1594928462CF0FCFFF0B158497A
S2140084A028462CF0F7FF10F100092E4618BF4FF0B3
S2140084B00109002C00F00381202C06D116F8014F8C
S2140084C0202CFBD0002C00F0FA80472C00F0E08037
S2140084D014F0DF0FEDD016F8014FF9E749492846AA
S2140084E02CF0D8FF0028DAD1474928462CF0D2FFD6
S2140084F00028D4D1454928462CF0CCFF0028CED100
S2140085000322434928462CF0E9FD38B92B463A4663
S21400851000210120FEF728F8FEF736BE4FF00008CF
S2140085204FF0000970AA58213846CDE97089FBF74C
S214008530BBFF002800F02C81314928462CF0AAFF0A
S2140085402549003018BF01202B463A4691F8CE1335
S214008550FEF70AF8FEF718BE00260027CDE91A67D0
S2140085602846A146A046A2463DE66F1C384670A99E
S21400857070932EF05DF8709887423FF459AE8DEDFB
S2140085801C0B012433E62348FCF722FFFEF7FCBD54
S2140085902148FCF71DFFFEF7F7BD002CF8D000229F
S2140085A000233046394629F007FD0028F0D1304632
S2140085B03946A3E6AFF300800000E0FFFFFFEF417F
S2140085C000408F400000E03FC0270900181C002034
S2140085D0200B002000000020102D0020D81F0020B7
S2140085E0C0D40100A4CB0300A0C903008CCA0300BA
S2140085F090CA030094CA030098CA03009CCA0300EA
S2140086004CC70300A4CA0300ACCA0300B4CA0300E4
S214008610A8C9030030CA030030CB0300D83D0020B1
S2140086205A78312A7FF4F2AC9A78372A04D0382A5E
S21400863002D0392A7FF4EAACDE78002E3EF494AC01
S21400864030462BF023FB00287EF48EAC2E2E7FF4D3
S214008650DDACFEF789BC7378302B49D0322B3FD087
S214008660332B7FF4E9ACB378303B092B7FF6E4ACD0
S2140086704FF00109984928462CF00CFF00302B4695
S2140086803A46494618BF0120FCF76AFFFEF77CBD54
S2140086907378302B7FF41CAF96F80280B8F1300F59
S2140086A018D0B8F1000F09D040462BF0EFFA28B9E1
S2140086B0A8F13008B8F1090F7FF60AAF0124874EFB
S2140086C02B463A464846214686F8CE43FDF74CFFF1
S2140086D0FEF75ABD96F80380B8F1000FE4D1EDE737
S2140086E0B378303B092B7FF6A7AC4FF00009C1E703
S2140086F0B378322B11D0332B7FF49EAC96F80390D0
S214008700B9F1000FB4D048462BF0C0FA0028AFD11C
S214008710B9F12E0F7FF490ACAAE796F803A0BAF151
S214008720000FE2D050462BF0B1FA0028DDD1BAF1A6
S2140087302E0F7FF481AC81469CE700236848A5F89D
S214008740C833FCF745FE2BE6B5F8C833002B3FF4DC
S21400875027AE384607F80390A5F8C893FBF796FFB0
S214008760002847D03846FEF767FB04E68378342BAC
S2140087707FF435A9C678002E3FF414AC30462BF0B3
S21400878085FA00287FF40EAC2E2E7FF428A909E483
S21400879070AA59213846FBF787FE00287FF4CCAE36
S2140087A070AA5A213846FBF77FFE00287FF4C4AE35
S2140087B070AA41213846FBF777FE00287FF4BCAE4E
S2140087C0484928462CF0A0FA00283EF4CDAB46498E
S2140087D028462CF099FA00283EF4C6AB28464349B2
S2140087E02CF092FA00283EF4BFAB4148FCF7F0FDAF
S2140087F0FEF7CABC3846FCF78DFEBCE52D9ABDF8E0
S214008800B8309DF8BA10C6F8F023A6F8F433012263
S2140088100023384886F8F61386F88E24A5F8CC335D
S214008820FCF7D6FDDFF8B8904FF0000A584602F085
S214008830FDFB002858467FF7C8AD02F00BFC002869
S214008840FFF6C3AD0A282BD00D2870AA28D0B5F89D
S214008850CC33FE2B03F101011CDCA5F8CC13D0545D
S214008860E4E7584602F0D4FB814640B9FCF7A2FC88
S214008870214886F88E94A5F8CC93FCF787FD96F8E9
S2140088808E34002B3FF495AD584602F0C1FB00280D
S214008890C8D18EE54846A5F8CCA3FCF799FDC5E7F8
S2140088A0B5F8CC23002AC1D00DF5E0790023484660
S2140088B009F80230A5F8CC33FBF7E8FE40B148468D
S2140088C0FEF7BAFA6DE50D48FCF782FDFEF75CBCD4
S2140088D04846FCF71FFE64E54CC70300102D002039
S2140088E05CCA0300F0CB0300BCCA0300C0CA030086
S2140088F0C4CA030074CA030078CB030000CA03008E
S2140089002DE9F04F2DED048B3AA1D1E90001ADF52C
S2140089100B7D08F0EFFA30484FF4E131064604F0DC
S21400892007F9304604F0F8F808F0BAFA41F287354D
S2140089300446304604F0EAF8002847D02748DFF817
S214008940BC90274E002108F0D5FA264B0A2218685C
S214008950022109F0B1FF2448002108F0CBFA234B8E
S21400896093ED087BD3E90EAB4FF0000C62466446ED
S2140089704FF0010841F288375FFA8CF11C4B50012A
S21400898009EB8205A1F1030E03440695BEFA8EFE9E
S214008990174D59704FEA5E1E01292C54997083F8C2
S2140089A003E001F01B8383ED027B1F615E619E6125
S2140089B0069BB8F1030FC3F89074424620DC08F11A
S2140089C001085FFA88F80CF1010CD5E708F068FAA0
S2140089D0001BA842ADD9B1E7D83D0020001BB70068
S2140089E0084C010060450020808D5B0000000020E0
S2140089F0200B00200051250200000000181C00205B
S214008A00B54AB648DFF824A301231370002103F00B
S214008A10EBF80021B24803F0E7F89FEDA98BAE4BC8
S214008A209FEDA99B83F820494FF00208FBF7D6FF7D
S214008A304FF44875AB48C9F8505389EDD68B89ED8D
S214008A40DA9B89F860830CF05FFEA748C9F8885364
S214008A5089EDE48B89F8988389EDE89B0CF054FE49
S214008A60A249A34B0F63CE628E629B4989F8854468
S214008A709FED977B8E618E6381F880400F614E611B
S214008A800F634E630F654E658E650F674E678E6784
S214008A909649C9F8907400220020C1E90823C1E96C
S214008AA00E2381ED067BC9F84043C9F87444C9F823
S214008AB09474C9F84443C9F87844C9F89874C9F856
S214008AC04843C9F87C44CAF8D043CAF8D443CAF825
S214008AD0D843C9F89C74CAF8DC43C9F84C43C9F8B3
S214008AE0804489F86C4489F88C4489F88D44FCF7F6
S214008AF07BF8FBF76DFC7F4B7F4883F806800421EC
S214008B0001F0BEFD04217D4801F0BAFD00217A483F
S214008B1001F05AFD0021794801F056FD734B1B68A1
S214008B2044F62062934202D9704B1A6013466F4A8D
S214008B3052689A4206D36D494FF47A6244F620632F
S214008B404A600B6003216E4801F008FC20B1674BB9
S214008B506B48998801F0AEFB5F496A480123002202
S214008B6081F8213981F81029FCF732FC6648FCF7B9
S214008B702FFC9AF8CA33002B01F02282634A0F9228
S214008B80634A14920DF1FC0B624FDFF8A481002BB0
S214008B905DD0614802F056FC002840F03B859AF80C
S214008BA0CA3383B199F88734002B40F00D855846B8
S214008BB05A4902F0C7FA584602F02AFA002840F04E
S214008BC0C68589F8870499F88D64002E40F0C68023
S214008BD0404603F0B9FF002811DB0A28BAF8C8336C
S214008BE000F0DD820D2800F0DA82FE2B00F3F4841C
S214008BF00AEB0302013382F8E003AAF8C8339AF8B6
S214008C00CA33002B40F0DC82334B93F80B39002B31
S214008C1040F0ED82304B93F80849002C40F0BA80C3
S214008C2093F80939002B40F0ED84304B1B7C002B69
S214008C3040F0708299F88734002B40F083823848E1
S214008C40002108F057F99AF8CA33002BA1D10F9BE0
S214008C501C6894F85C30002BB5D0204609F078F8F4
S214008C60204609F017F9002800F07A862D482E4D88
S214008C7002F022FA294802F01FFA42F2387126481A
S214008C8002F0FAFA0123149E8AF8CA3315F8011B7B
S214008C90404603F065FF08B1B542F7D1204609F01B
S214008CA04BF8CBF80000584617F0A4FD04462CF00D
S214008CB0A7F9002800F0768525183EE0AFF300807F
S214008CC00000000000001440000000000000F03F1C
S214008CD00000000000407F40200B0020983300205A
S214008CE028350020681F0020A01F0020000000205C
S214008CF000006440A83A0020A43B0020043C00206A
S214008D00383B002018CC030030CC0300544500202C
S214008D1066CC0300BC200020482000201020002045
S214008D20C0D40100D81F002054CC0300102D002012
S214008D30D83D0020AC4200F0358514F8011B4046B3
S214008D4003F00EFF0028F5D19AF8CA33002B7FF403
S214008D5020AF99F88D64002E3FF43AAF002599F8BD
S214008D608C44FF2207EB0421584601342CF008FA05
S214008D70013E04F00F0458468BF8FF5089F88D64C6
S214008D8089F88C44FEF758F899F88D64002E3FF465
S214008D901FAFE4E799F86B34002B7FF446AF032C43
S214008DA040F3EC84054B93F80B5999F86A34089312
S214008DB0002D40F0F985284606E000BF200B002075
S214008DC0A04206F00F0323DAB94E1901CA1806EBC3
S214008DD0C20205F1010CD2F8E050C2F8E45000F1EE
S214008DE0010E5E1CC2F8E85008B9C2F8E4005FFA4B
S214008DF08EF0A4450546E3D1AD4A0B4402EBC3030F
S214008E00A0424FF00002C3F8E82006F00F03DBDBB9
S214008E10089EA74B3501A91903EBC10188318822AA
S214008E201CA82BF0BDFAA34AA34806EB061302EBD8
S214008E30C30399F88424597818919978069159684B
S214008E409B6D199111930121002389F86C3489F8E0
S214008E50683480F840100AB189F88434944B93F84B
S214008E6020390793002B40F0BE85914E079ACDF827
S214008E7054B028AD0024069BE340D9075FFA84FB74
S214008E8040F1C58099F8683413B1012C40F2BF80D8
S214008E907378032B00F2BB80884951F8233008937F
S214008EA0002B00F0B48031780791002900F0AF80E5
S214008EB0A1001CA80E9141188148C96850F82430BA
S214008EC00B91C91A099100F0A280119828F082FD32
S214008ED0D5E9002328F0F4FD0C9021F000400D9019
S214008EE0DDE90C0129F0C4F83369089A002808BFA8
S214008EF00120984228BF184630320146109010468E
S214008F000A920AF051F90A9871690AF075F90A98F6
S214008F10B1690AF089F908980999036801229B6AE1
S214008F209847002866D1189B002B00F0A885624B56
S214008F3093ED067B0022002351EC170B8DED127B80
S214008F4029F03AF8002840F07285594B93ED027BE1
S214008F500022002351EC170B8DED167B29F02CF820
S214008F60002840F06485524B93F88030012B00F0C7
S214008F707885DDE91223DDE9160128F0A1FD00223F
S214008F80504B28F0C7FE00224F4BCDE9120129F0C6
S214008F9009F8002840F05F85454B186928F01AFD4F
S214008FA0DDE91223CDE9160128F0FCFF18B99DED86
S214008FB0127B8DED167B0022444BDDE9160128F06E
S214008FC0CDFB29F055F83169109B002808BF012019
S214008FD0814228BF0146994280F00D840A980AF023
S214008FE0E3F808980999036801229B6A98470028C5
S214008FF000F001840E99364B99F86C2408460B99BC
S21400900019500123A3401343079A89F86C3401349E
S214009010042C06F1200605F108057FF42CAF079214
S214009020DDF854B0002A00F00B84199BC9F87034A0
S214009030002B07DD1A46274958462BF0BBFD58463D
S214009040FCF7C6F90120FCF77BF81B4B93F8406051
S214009050002E53D0164B99F86A2493F8081993F803
S2140090600AE9079DCDF81CB000240894A4462346C0
S21400907006940133DBB202EB021001F1FF3B59B359
S2140090800B4C08955FFA8BF1002904EBC000069C98
S21400909008BF2C4602F1010206944FF0000408BFF8
S2140090A04FF0000E80F8884002F00F02AC4613E046
S2140090B0200B0020A80B0020000000201CC203008C
S2140090C0581F002000004E400000F03F0000E03F28
S2140090D0E0300020A0CD03009E42CADC069CDDF8EE
S2140090E01CB0BCF1000F40F04287089B13B17C4BCC
S2140090F083F8081914B17A4B83F80AE9794A0123F0
S21400910082F84030764A82F80B39764B1B7C002B6F
S2140091103FF490AD744801F071FD724B1B7C012B3F
S21400912000F05283022B7FF485AD003018BF01207B
S21400913000283FF47FADFCF73DF899F88734002B04
S2140091403FF47DAD694801F063FF00283FF477AD3A
S21400915007F0A6FED9F88834C31A312B02467FF6EC
S2140091606EAD5846C9F88824FBF73AFE99F887345E
S214009170002B3FF464AD5D4801F04AFF00283FF441
S2140091805EAD58462BF03CFF59460246574801F064
S214009190E7FE02225649554801F0E2FE4FE5002B55
S2140091A03FF42DAD5344002283F8E0235148AAF83B
S2140091B0C823FDF741FE9AF8CA33002B3FF424ADCE
S2140091C099F88E34002B40F05F8258464A4901F0E9
S2140091D0B9FF584601F01CFF002840F0C783404BFB
S2140091E089F88E0493F80B39002B3FF413AD99F8E9
S2140091F06834002B00F03481404B1B78002B40F085
S214009200E4803F4B1B78002B40F0DF8099F86C24FD
S214009210D3070CD5324B5B78032B08D8394951F865
S214009220233023B1D3F864319E0500F104849507FA
S2140092300DD52B4B93F82130032B08D8314951F824
S214009240233023B1D3F864319C0500F102842B4B04
S2140092501B78002B7FF4E9AC294B1B78002B7FF49E
S214009260E4AC5107134616D51D4991F84110032961
S21400927011D8244850F8211069B1194890F84000D8
S21400928048B1D1F86401840500F11F8491F83C10C0
S21400929000297FF4CAAC100716D5114A92F861204F
S2140092A0032A11D8174951F822206AB10C4991F8BF
S2140092B0601049B1D2F86411890500F1C48592F8AE
S2140092C03C20002A7FF4B1AC0F4A1168C9F840135D
S2140092D004321268C9F844235A0700F1348136E193
S2140092E0200B002000000020A83A00203C20002090
S2140092F0ECC20300F0300020D81F00209E1E002085
S214009300D21B00201CC20300C41E0020B64890F8E2
S214009310400050B1580708D5B34E281906EBC000D8
S214009320D0F8AC00002840F09680AF4890F8600077
S21400933050B11E0708D5AC482B1900EBC303D3F871
S214009340B030002B40F08780A7482B1900EBC303F2
S214009350D3F8E000002800F04682A34B1B69834246
S21400936028BF0346A1480360A1480CF02DF800284A
S21400937071D09D4B2C4403EBC40493F80819D4F821
S2140093809420D4F89830CAF8C023CAF8D023CAF874
S214009390C433CAF8D433C1B199F86A244B1E924933
S2140093A002EB021001EBC0018F480132DBB202F083
S2140093B00F0280F808394FF0000081F8880089F81D
S2140093C06A2413B9884A82F80A398A4B1B780E2B0E
S2140093D041DC854B93F80839002B3CD099F86A4459
S2140093E0814A25012B1902EBC30393F8882092B318
S2140093F093F889207ABBD3F89410D3F8A460DAF8EF
S214009400C003D3F89820D3F8A8E0A1EB060CA0EB95
S2140094100C0C8CEAEC70A0EBEC700328A2EB0E0CA4
S21400942019DCDAF8C403A0EB0C0C8CEAEC70A0EBA9
S214009430EC7003280FDC93F89000002840F0A3801F
S21400944093F88A30980706D0002E7FF45FAFBEF1FF
S214009450000F7FF45BAF99F86834002B7FF4D6AE2C
S21400946099F86C24D007134614D55F494978032928
S21400947010D8614850F8211061B15B48007848B1B7
S214009480D1F86401800500F1E08491F83C100029D1
S2140094907FF4CBAB910716D5534991F821100329D9
S2140094A011D8554850F8211069B14F4890F820005F
S2140094B048B1D1F86401860500F1068591F83C10A4
S2140094C000297FF4B2AB550716D5474991F84110ED
S2140094D0032911D8484850F8211069B1424890F83D
S2140094E0400048B1D1F86401840500F1EE8291F89D
S2140094F03C1000297FF499AB100716D53A4A92F82B
S2140095006120032A11D83C4951F822206AB1364915
S21400951091F8601049B1D2F86411890500F193847E
S21400952092F83C20002A7FF480ABDA0703D5DAF8FD
S214009530D023C9F840239E0744BFDAF8D423C9F8DD
S21400954044235D0703D5DAF8D823C9F848231C0757
S21400955048BFDAF8DC33244999F8842448BFC9F8B0
S2140095604C33002389F8683489F8693489F86C34F8
S214009570C9F8703481F80B39002A3FF44BAB89F8F0
S2140095808434FFF747BB01287FF465AFD3F8E0309B
S214009590002B40F02081144B144A1B69012B28BF76
S2140095A001231360104B281903EBC00090ED401BFD
S2140095B090ED3E0B00F1EC0190F808010EC900900A
S2140095C00B480BF0F9FAD2E60C4801F021FD002812
S2140095D07FF4F9AAFFF7EBBA00230948AAF8C833C4
S2140095E0FBF7F6FEFFF70BBB200B0020D81E002073
S2140095F048140020D21B00201CC203003C20002080
S2140096005CCA0300AB4BAC4883F80949FBF7E0FEA5
S214009610FFF70BBB5F221CA9A84801F045FF0028F6
S2140096207FF7BDAA1CAC002323541222A44920466F
S2140096302BF054FD00287FF4B2AA0F9B186808F0A0
S2140096407BFB1B901BA817F0D5F842F2B923024605
S2140096509C490093584642F2B8232BF0ABFA974841
S21400966001F096FF0446954801F094FF2146024615
S214009670924801F02BFE5946904801F06DFE8F4847
S21400968001F03CFEFFF78BBA8F4801F0C1FC0446A0
S214009690C0B9FBF78FFD89F88E44AAF8CC438B4CF3
S2140096A014F8011B404603F05BFA58B1884B9C4205
S2140096B0F6D10D21404603F053FA18B10A21404670
S2140096C003F04EFA99F88E34002B3FF47EAD7E48B8
S2140096D001F09EFC00283FF478AD7B4C7D4E0025C3
S2140096E0204601F0A3FC002820467FF78DAA01F053
S2140096F0B1FC0028FFF688AA0A28BAF8CC3313D0A3
S2140097000D2811D0FE2B0AEB030203F1010318DC2F
S21400971082F8E0042046AAF8CC3301F087FC002843
S2140097202046E4DCFFF770BA002BD9D05344002261
S214009730694883F8E024AAF8CC23FDF77DFBFFF701
S21400974063BA3046AAF8CC53FBF742FEC8E70123BB
S214009750DBF8042089F887341846BBF80830C9F8C7
S2140097602824A9F82C349BF80A2089F82E240023F4
S214009770C9F88834FBF7E4FCFFF725BA07F090FB3E
S2140097804C4BD3F80C39C31A632B7FF64EAA494BC1
S21400979093F80849002C7FF405AB99F86A340893CF
S2140097A0FFF736BB0D21404603F0DAF900283FF4F8
S2140097B0CBAA0A21404603F0D3F99AF8CA33002B05
S2140097C03FF4C7AAFFF7E5B9B0FA80F040090028D1
S2140097D03FF430AAAFE4374A1269934228BF1346D3
S2140097E03E4A1360DEE6334B3C481B69012B28BF1C
S2140097F001230360B8E5089AD2F86401D2F8641130
S2140098005C46C0F34020DDF854B0C1F34011002C94
S21400981040F04C81324A5823324C334D109E002E75
S21400982008BF2C4603911099019109990490009164
S21400983002942E4958462BF0BDF95846FBF7C8FD52
S214009840069BDE0705D51F9AD9F840339A4240F0AA
S214009850A380069B9D0705D5D9F84423209B9A42F2
S21400986040F09A80069B5C0705D5D9F84823219BD3
S2140098709A4240F09180069B1B0705D5229AD9F89C
S2140098804C339A4240F08880194B93F840E0BEF182
S214009890000F5FD0074BCDF81CB0002693F80809E0
S2140098A093F80A39069399F86A24B4463346B346C1
S2140098B025E000BF200B002054CD030048200020E8
S2140098C068CC03007CCC03000420002078CB030087
