:1040000000000320B5C00000D1420000D1420000F2
:10401000D1420000D1420000D14200000000000067
:10402000000000000000000000000000D14200007D
:10403000D142000000000000D142000051BF00004A
:10404000D1420000D1420000D1420000D142000024
:10405000D1420000D1420000D1420000D142000014
:10406000D1420000D1420000D1420000D142000004
:1040700025BE000035BE000045BE000055BE000054
:1040800065BE000075BE000085BE000095BE000044
:10409000A5BE0000B5BE0000C5BE0000D5BE000034
:1040A000E5BE0000F1BE000001BF000011BF00002E
:1040B000D1420000D1420000D1420000D1420000B4
:1040C000D1420000D1420000D1420000D1420000A4
:1040D000D1420000D1420000D1420000D142000094
:1040E000D1420000D14200000000000000000000AA
:1040F00000000000D1420000B9BD0000D142000024
:10410000C5BD0000D1BD0000D1420000D142000079
:10411000D1420000D1420000DDBD0000D1420000CC
:10412000E9BD0000F5BD0000D1420000D142000011
:10413000D1420000D1420000D1420000D142000033
:10414000D1420000D1420000D1420000D142000023
:10415000D1420000D1420000D1420000D142000013
:10416000D1420000D142000001BE0000D142000057
:104170000DBE000019BE000000000000000000009D
:10418000896001008D60010091600100956001006F
:10419000ADBD0000A5BF0000D1420000D14200002B
:1041A000D1420000D1420000D1420000D1420000C3
:1041B000D1420000D1420000D1420000D1420000B3
:1041C000D1420000D1420000D1420000D1420000A3
:1041D000D142000021BF0000D1420000D1420000C6
:1041E00039BF0000D1420000D1420000D14200009E
:1041F000D1420000D1420000D1420000D142000073
:10420000D1420000D1420000D1420000D142000062
:10421000D1420000D1420000D1420000D142000052
:10422000D1420000D1420000D1420000D142000042
:10423000D1420000D1420000D1420000D142000032
:10424000D1420000D1420000D1420000D142000022
:10425000D1420000D1420000D1420000D142000012
:10426000D142000010B5054C237833B9044B13B18B
:104270000448AFF300800123237010BD900B002091
:1042800000000000545A03000C4B43B10C480D4988
:1042900010B5AFF300800C48036823B910BD0A487D
:1042A000036833B97047094B002BF7D0BDE81040C5
:1042B0001847064B002BF5D0184700BF0000000040
:1042C000545A0300940B0020840B002000000000CF
:1042D000FEE700BF1E4B1F48D3F89420D3F8981078
:1042E000F0B4D3F88860D3F88C50D3F89040D3F86A
:1042F0009C705E60DD60D3F8A060D3F8A4505C6170
:10430000DA61D3F8A840D3F8AC205962DF62D3F861
:10431000B010D3F8B4705E63DD63D3F8B860D3F83F
:10432000BC505C64DA64D3F8C040D3F8C42059654B
:10433000DF655E66DD665C670749DA67D3F8C8202B
:1043400040F8041BC3F88420F0BC02F0BFBB00BFE0
:1043500000000020AC0B0020C0A800A670B50446E9
:1043600029F04EFA60B1074E251801E0AC4207D0A3
:1043700014F8011B304603F01FFF0028F6D170BD72
:10438000012070BD3017002070B5044629F038FABE
:1043900068B10D4E251801E0A54208D014F8011BA4
:1043A000304603F009FF0028F6D1002070BD0D2132
:1043B000054803F001FF0028F7D00A210248BDE8B4
:1043C000704003F0F9BE00BF3017002010B504465E
:1043D00029F016FA21460246BDE81040014802F0D5
:1043E00039BB00BFB00B002000B589B00346084AB6
:1043F0002021684629F012F8684629F001FA69463A
:104400000246044802F026FB09B05DF804FB00BF39
:10441000F0140300B00B002010B5124B93F8CC2021
:1044200088B0AAB953F830300F4A2021684628F0E6
:10443000F5FF684629F0E4F9694602460B4802F0A8
:1044400009FB01220A49094802F004FB08B010BD2B
:1044500003EBC0035C68204629F0D2F921460246EE
:10446000ECE700BF00000020F0140300B00B0020B8
:104470008418030030B5A04BA049054689B021221D
:104480009F4853F8254002F0E5FA2B469D4A20212B
:10449000684628F0C3FF684629F0B2F9694602462B
:1044A000974802F0D7FA02229749954802F0D2FACB
:1044B000D4F86431934A2021684628F0AFFF68465B
:1044C00029F09EF9694602468D4802F0C3FA01229E
:1044D0008E498B4802F0BEFA12228D49884802F0BC
:1044E000B9FAD4F86431874A03F001032021684601
:1044F00028F094FF684629F083F96946024680480F
:1045000002F0A8FA012281497D4802F0A3FA1222A2
:1045100080497B4802F09EFAD4F86431794AC3F3AB
:1045200040032021684628F079FF684629F068F9A1
:1045300069460246724802F08DFA012273497048BA
:1045400002F088FA122274496D4802F083FAD4F816
:1045500064316C4AC3F380032021684628F05EFF73
:10456000684629F04DF969460246654802F072FA3C
:1045700001226649624802F06DFA122267496048DA
:1045800002F068FAD4F864315E4AC3F3C003202114
:10459000684628F043FF684629F032F9694602462A
:1045A000574802F057FA01225849554802F052FA8A
:1045B00012225B49524802F04DFAD4F86431514A54
:1045C000C3F300132021684628F028FF684629F02D
:1045D00017F9694602464A4802F03CFA01224B4963
:1045E000474802F037FA12224E49454802F032FAA3
:1045F000D4F86431434AC3F340132021684628F0BD
:104600000DFF684629F0FCF8694602463C4802F076
:1046100021FA01223D493A4802F01CFA122242498D
:10462000374802F017FAD4F86431364AC3F38013DE
:104630002021684628F0F2FE684629F0E1F8694634
:1046400002462F4802F006FA012230492C4802F0B7
:1046500001FA0D2235492A4802F0FCF9D4F86431F8
:10466000C3F3C113032B44D8DFE803F0403D3A0203
:104670002F490C22224802F0EDF90122234920485B
:1046800002F0E8F912222B491D4802F0E3F9D4F8B0
:1046900064311C4AC3F340232021684628F0BEFE43
:1046A000684629F0ADF869460246154802F0D2F98D
:1046B00001221649124802F0CDF90D221E49104878
:1046C00002F0C8F994F86531C3F38203042B00F2B9
:1046D0009581DFE813F090018D018A0187013B008D
:1046E00014221649C6E70D221549C3E70F221549C2
:1046F000C0E703221449BDE78C140300F81403003B
:10470000B00B0020F0140300FC1703008418030012
:104710001C15030030150300441503005815030051
:104720006C1503008015030094150300A815030001
:10473000F01503000416030018160300D815030033
:10474000C8150300B815030000160300AD49062282
:10475000AD4802F07FF90122AC49AB4802F07AF98A
:104760001222AB49A84802F075F9D4F86431A94A7D
:10477000C3F340332021684628F050FE684629F0F4
:104780003FF869460246A04802F064F901229F49B9
:104790009D4802F05FF912229F499B4802F05AF9A6
:1047A000D4F864319B4AC3F380332021684628F053
:1047B00035FE684629F024F869460246924802F020
:1047C00049F901229149904802F044F91222934993
:1047D0008D4802F03FF9D4F864318E4AC3F3C033F8
:1047E0002021684628F01AFE684629F009F8694633
:1047F0000246854802F02EF901228449824802F0DF
:1048000029F912228649804802F024F9D4F864314B
:10481000804AC3F300432021684628F0FFFD684624
:1048200028F0EEFF69460246774802F013F90122AC
:104830007649754802F00EF920227A49724802F052
:1048400009F901227149704802F004F9D4F8643181
:104850009B0540F1C580102273496B4802F0FAF8BD
:10486000D4F874316B4A2021684628F0D7FD684699
:1048700028F0C6FF69460246634802F0EBF80122C1
:104880006249614802F0E6F81F2268495E4802F07A
:10489000E1F8B4F874315F4A03F00103202168465F
:1048A00028F0BCFD684628F0ABFF69460246564832
:1048B00002F0D0F801225549534802F0CBF81F22EC
:1048C0005B49514802F0C6F8B4F87431514AC3F359
:1048D00040032021684628F0A1FD684628F090FF9B
:1048E00069460246484802F0B5F801224749464861
:1048F00002F0B0F81F224F49434802F0ABF8B4F879
:104900007431444AC3F380032021684628F086FDB1
:10491000684628F075FF694602463B4802F09AF85F
:1049200001223A49384802F095F81F224249364898
:1049300002F090F8B4F87431364AC3F3C003202172
:10494000684628F06BFD684628F05AFF6946024623
:104950002D4802F07FF801222C492B4802F07AF80A
:104960001F223649284802F075F8B4F87431294AF4
:10497000C3F300132021684628F050FD684628F054
:104980003FFF69460246204802F064F801221F49B1
:104990001D4802F05FF81F2229491B4802F05AF80F
:1049A000B4F874311B4AC3F340132021684628F041
:1049B00035FD684628F024FF69460246124802F099
:1049C00049F801221149104802F044F82022154903
:1049D0000D4802F03FF801220C490B4802F03AF86A
:1049E00009B030BD05221749B2E607221649AFE6E5
:1049F00008221649ACE608221549A9E60322154902
:104A0000A6E600BF50160300B00B00208418030078
:104A100058160300F01403006C1603008016030000
:104A200094160300A8160300CC160300E01603003A
:104A3000001703002017030040170300601703004E
:104A400080170300481603004016030034160300C5
:104A500028160300001603002DE9F04F2DED028B00
:104A6000A54895B04FF41651054603F08DFB284636
:104A700003F07EFB07F03EFD42F20F7402902846E1
:104A800003F070FB002800F023819C4B9FED9C8A73
:104A90001C680121204609F0A9F92046994C0A22F8
:104AA000022109F033FA94E80F0004F1100504AE76
:104AB00086E80F0095E80F0008AD85E80F00A4F127
:104AC00010084FF0020B4FF0010958F8043B93F81F
:104AD000D82003F1300A022A4FF00407504605D0CF
:104AE00083F8D8B083F87B9183ED3C8AC3F8E870F3
:104AF00083F8E49055F8041B09F07EFE504656F802
:104B0000041B09F0B1FE4445DFD103217E487F4CF0
:104B10007F4E00F029FD39467E4801F00FF83946F6
:104B20007D4801F00BF839467C4801F007F839461A
:104B30007B4801F0B5FE39467A4801F0B1FE7A496A
:104B40007A4A7B4802238B710121A371937100F093
:104B50003DFE0121774800F039FE0121764800F042
:104B600035FE0121754800F031FE376897F85C305A
:104B70007BB95FA5D5E90045DFF8E8814046FFF73E
:104B800003FC2046294607F0DFFC97F85C30002B39
:104B9000F4D0DFF8D4B1384608F004FC9BF8CD30EF
:104BA000002B00F0FD82384608F09EFC002800F043
:104BB000F3826348FFF7D2FB384608F0E7FB14ABFB
:104BC00043F8200D1846019314F090FDFFF7DCFB2D
:104BD0005C4846F67C5250F8041B01F083FF002825
:104BE00040F0E4825848FFF7CFFBD6F800A0574CBE
:104BF000574E0027504608F019FC21220021554845
:104C000028F04CF99AF85C30CBB9DFF8EC80524DC3
:104C100015F8011B404603F0CFFA38B1A542F7D191
:104C20000D21404603F0C8FA002859D130A1D1E93E
:104C3000000107F089FC9AF85C30002BE7D0474868
:104C400001F0BAFF002800F0FC80DFF82081002589
:104C5000A8F10B09484601F0DBFF0130484600F09F
:104C6000898001F0B7FF013508F8010F3946304659
:104C700007F06AFC202DEDD19BF8CC306BB13548A4
:104C800028F0BEFD33490246A1F10C0001F0E2FE1E
:104C900001223349314801F0DDFE304801F0B8FF10
:104CA000013074D00120FFF7B7FB2C4DDFF8C08036
:104CB0004FF0000905E001F0B7FF4046494607F014
:104CC00043FC284601F0A4FF01302846F3D191E7C8
:104CD00007F010FC029BC01AA0427FF6D0AED4E6CB
:104CE0000A21404603F068FAA0E700BFAFF3008056
:104CF000000E27070000000030170020B81E00201B
:104D0000003C1CC69C1403009014002030140020AA
:104D1000AC1E0020FC1400205C150020BC150020F7
:104D20001C160020A0160020001400206014002093
:104D3000A80C00203413002078130020BC1300209E
:104D4000D4170300AC0B002048180300DA18030046
:104D5000C0D40100BC0B0020B8180300B00B002029
:104D600084180300A017030000000020BB0B0020E4
:104D7000804F12009BF8CC30002B40F0B781002D03
:104D80003FF438AFA04801F043FF01308AD19F4B78
:104D90001B7CA3F14102192A78D89C4A2033137452
:104DA0009B4827F057F90328814600F29D81974BD5
:104DB0005B7C003318BF01239548039327F04AF921
:104DC0000C288046039B6BD8904A527C002A67D0FF
:104DD0008E4A9049127C51F82950633A172A00F202
:104DE0008981DFE812F0300173015101250187014B
:104DF0004701180087018701F2009C008701FA0132
:104E00008701C00087018701870187018000870132
:104E1000870187014B017F4B03EB88031D6B2B68D8
:104E200028461B689847022800F090812B68284686
:104E30001B689847012800F089810520FFF7ECFAEC
:104E4000D8E6724B46F67C521968181D01F04AFEEE
:104E500000287FF4CFAE07F04DFB029BC01AB0F5DF
:104E60007A7F7FF6C7AE6C4DDFF8C08103E06B4BF5
:104E7000AB4200F0438115F8011B404603F09CF95A
:104E80000028F4D107F036FB0290B3E6613B192B02
:104E900086D90220FFF7C0FA5B4801F0C5FEA9E6FB
:104EA0005A4A5C49127C51F82950633A172A00F299
:104EB0002181DFE812F0C8000B01E900BD001F01ED
:104EC000DF0015011F011F018A0034001F011501B9
:104ED0001F0158001F011F011F011F0118001F01A2
:104EE0001F011F01E300002B00F0CA8095F8653117
:104EF00013F01C0F00F0618195F86531C3F3820354
:104F0000012B00F05A81D5F86431C3F34028B8F181
:104F1000000F00F056810A20FFF77EFA6AE6002BA8
:104F200000F0AE8095F8653113F01C0F00F045815C
:104F300095F86531C3F38203012B00F03E81D5F86B
:104F40006431C3F34028B8F1000FE4D1344827F0AE
:104F500081F82B6801469B6A284601229847404603
:104F6000FFF75AFA46E6002B00F08A80274B9B7C1D
:104F7000503B262B00F28A81DFE813F0790188018B
:104F800088018C01880188014F018801880188010E
:104F900088018801880188018801880188018801C9
:104FA00088018801880188018801880188018801B9
:104FB00088018801880188018801880179018801B8
:104FC00088018C01880188014F01002B58D01548B9
:104FD00027F040F80D4B9B7C562B014607D040F242
:104FE0003C81612B00F02D81762B40F038810E4BF7
:104FF0004A1E9A4200F2378105F1300009F0FCFBAD
:105000000020FFF709FAF5E5B00B0020AC0B0020FB
:10501000BD0B00208C140300481803007018030017
:10502000BE0B0020BF0B00201FA10700301700207F
:10503000A84827F00FF8034610B101286DD10020D1
:105040008BF8CC30FAE6DBB1D5F8643195F8008105
:10505000DB066BD4BFF35B8F05F5BA75002055E80E
:10506000003F45E80002002AF9D1BFF35B8FFFF74C
:10507000D3F9BFE51020FFF7CFF9BBE5002B50D1E6
:105080000320FFF7C9F9B5E5002BF9D02846012127
:1050900002F0D8F80620FFF7BFF9D5F86431C3F362
:1050A000C113012B03D0D5F86431D906F5D5D5F855
:1050B0006401C0F3001000283FF4C0AE2846002170
:1050C00002F0C0F80720FFF7A7F993E5002BD7D02F
:1050D0002846002102F0B6F80020FFF79DF989E587
:1050E0000420FFF799F985E5002365E6002D3FF4DC
:1050F00081ADC4E50F20FFF78FF97BE50D217648E0
:1051000003F05AF800283FF4BDAE0A21724803F0BC
:1051100053F807F0EFF902906CE50E20FFF77CF9E9
:1051200068E500206864FFF777F963E50021284609
:1051300002F088F86948002107F006FAB8F1000F7C
:1051400088D00121284602F07DF883E72B682846A5
:105150001B6998479BF8CC30054643B16048FFF780
:1051600035F94046FFF740F95E48FFF72FF95E4AF0
:105170002B46019D2021284628F050F9284628F08A
:105180003FFB29460246594801F064FC0122584978
:10519000564801F05FFC2DE55648FFF7F5F8FEE7AD
:1051A0003846554908F0F6F8544803E55448FFF7E7
:1051B0000DF95448FFF70AF917E50920FFF72CF914
:1051C00018E5514826F046FF2B680146DB6A284661
:1051D00098474046FFF720F90CE54C4B03EB880855
:1051E000D8F830502B6828461B689847042806D00A
:1051F0002B6828461B68984703287FF41EAE444856
:1052000026F028FF2B6801B25B69284698470028E2
:105210005BD10820FFF700F9ECE405F1300009F05C
:1052200011FB9BF8CC30054643B13A48FFF7CEF866
:105230004846FFF7D9F83848FFF7C8F82B46374AF1
:1052400097E7374A4B1E93420DD805F1300009F01D
:105250000BFB0020FFF7E0F8CCE4412BF1D00D2050
:10526000FFF7DAF8C6E40C20FFF7D6F8C2E49BF8A3
:10527000CC306D6C002BE1D02648FFF7A7F84846EC
:10528000FFF7B2F82748FFF7A1F8D7E70B20FFF7A1
:10529000C3F8AFE49BF8CC301BB14846FFF7EAF8FF
:1052A000A8E4D5F86401FFF79FF81148FFF78EF8DE
:1052B000D5F864319A057FF59DACD5F87401FFF7F8
:1052C00093F80B48FFF782F894E40020FFF7A4F866
:1052D00090E400BFBD0B002030170020804F12006B
:1052E0001C19030028190300F4140300B00B00205C
:1052F0008418030000180300C0A803AE2818030098
:105300007418030088180300BE0B00208C140300DF
:10531000BF0B0020DC18030000190300F014030089
:10532000FFC99A3BE418030090F91800704700BFCA
:1053300090F83D00704700BF8079704704207047A7
:105340008079C31E012B83BF0638B0FA80F0400974
:105350000120704730B583B09DF81C40069D009435
:10536000044600F0FDFC95F90130054A23662260F1
:10537000AA78044B62662046A36603B030BD00BF26
:10538000842303000000A40638B53A4AD2F8283135
:105390006FF386130446C2F82831D2F828315D062F
:1053A000FBD4D2F828313349042060F30303C2F858
:1053B0002831D2F8283143F04003C2F828314B6835
:1053C000D806FCD42C4A2D49D0692D4B072565F30E
:1053D0001340D0610A6A42F400720A621A7842F0FD
:1053E00001021A709A68D207FCD45A7842F001027E
:1053F0005A705A7842F006025A709A8942F00202B4
:105400009A819A89052161F30B229A819A89022156
:1054100061F383029A811B8A9BB223BB194B1D68DF
:105420004FF4EE71284606F093FF4FF4EF71A4F8A5
:105430006800284606F08CFFB4F8683080B2B3F5F7
:10544000006FA4F86A001A4603DB00231A46A4F88A
:1054500068301044B0F5006F04DBC3F5D463043347
:10546000A4F86A3038BD064A936813F00403FBD1F0
:105470001382D3E7001C00400018004000080040E1
:1054800000240043901E002070B42E4AB0F868102B
:10549000138A9BB2994203D093685D07FCD41182B2
:1054A000C36829490469274A01EBC313234493F8CD
:1054B000404044F0010483F84040036E446E01EB29
:1054C000C313234493F8401041F0010183F84010C6
:1054D00093689C07FCD41378990707D4137819496B
:1054E00043F0020313708B689A07FCD4154AD379F2
:1054F0009B07FCD00279154B02F00F015A180024CB
:1055000082F88D408468B3F87460D3F8E800012213
:1055100003EB81058A4020433243C3F8E800A3F837
:105520007420C5F8A040F433BFF35B8F53E8002F1D
:1055300042F4801243E800210029F7D1BFF35B8FCA
:1055400070BC70470024004300800041801C002094
:105550008379062B05D8012202FA03F313F0540FC6
:1055600000D1704700F032BCF8B583798B426ED021
:105570008A1E0C460546042A0DD8DFE802F0110306
:10558000110C1100022100F0D9FA2846FFF77CFF28
:105590000323AB712346E01AB0FA80F04009F8BD4E
:1055A0002C4BBFF35B8F53E8002F22F4801243E8AB
:1055B00000210029F7D1BFF35B8F2A7933F8807C73
:1055C000E868AE682449F43B02F00F024FF0010E88
:1055D0000EFA02FE03EB820227EA0E07A3F87470AC
:1055E0002F69C2F8A060D3F8E82001EBC01038445E
:1055F00022EA0606C3F8E86090F84030174A6FF3D5
:10560000000380F840302B6E686E01EBC313034437
:1056100093F840106FF3000183F84010936813F083
:105620000203FBD11178890707D510780B4963F382
:10563000410010708B689B07FCD42146284600F07F
:105640007DFAAB79E01AB0FA80F04009F8BD01208C
:10565000F8BD00BF741D00200080004100240043FD
:105660008379062B05D8012202FA03F313F0540FB5
:1056700001D10020704700F0AFBC00BF8379023B2E
:10568000042B3CD8DFE803F03903393B390021EA29
:10569000E171F0B589B240F2FF74A14228BF214602
:1056A0000779194D194E1A4AC1EB012385FB03E511
:1056B00007F00F071D443E44DB17C3EBA52386F814
:1056C0008D30B0F86A50B0F86830124801FB05F12F
:1056D000A2FB0152891A02EB510103EB912189B21D
:1056E000038AA14228BF21469BB2994209D0836810
:1056F0005B07FCD401820120F0BD00F0C3B900209B
:1057000070470120F0BD00BF01021080801C002006
:10571000010420000024004338B504460D46FFF77D
:1057200033FE2046294600F077FC2069C20721D5C8
:10573000E168C90101F1824202F5004202EB500228
:10574000012192F8303061F3071382F83030616E36
:10575000CB0721D4236EDB0103F1824303F5004321
:1057600003EB5103012193F8302061F3030283F826
:10577000302038BDE268D20102F1824303F50043D4
:1057800003EB5003012193F8302061F3030283F807
:105790003020616ECB07DDD5226ED20102F182424C
:1057A00002F5004202EB5102012192F8303061F320
:1057B000071382F8303038BD002070478079704779
:1057C000032070470020704700207047F8B58379A8
:1057D0008B4272D001290C4605463CD0022935D1B6
:1057E000374E036BBFF35B8F56E8002F1A4346E832
:1057F00000210029F8D1BFF35B8FF43E96F8083101
:1058000043B1304B296B1A68536E0B42FCD02846CB
:1058100000F0ACFD2B79B6F87410AF68D6F8E8202C
:1058200003F00F030120984021EA000106EB8303F7
:10583000A6F87410022022EA07020021C3F8A07023
:10584000C6F8E8200346A87185F84010E01AB0FABF
:1058500080F04009F8BD036B194EBFF35B8FDB434B
:1058600056E8002F1A4046E800210029F8D1BFF37E
:105870005B8FF43E96F80831AC711BB195F840305F
:10588000002BFBD02B79B6F87420AD68D6F8E81061
:10589000012003F00F0306EB830700FA03F31A431A
:1058A0000346E01A2943B0FA80F0C7F8A050C6F8C2
:1058B000E810A6F874204009F8BD0120F8BD00BF2B
:1058C000741D0020B820002070B5044616461A4604
:1058D0009DF8105000F018FD0023054A266384F857
:1058E00034502260A363E36384F84030204670BDE7
:1058F000B42303008279012A04D0022A01D100F0E6
:1059000053BC7047174A016B12680346506E084239
:1059100026D193F8401070B491B9996B93F8344044
:105920000888072C80B207DC000402EBC4060834A8
:10593000050C706222F81450012283F8402000E028
:10594000996B0A8818790849C2F3C81300F00F024E
:10595000D8B20A440228D8BF002382F88D3070BC28
:10596000704700BFB8200020801C0020294B70B574
:1059700004461D680E46284694F83410012302227E
:105980000CF0E8F994F834305B0003F110022B447A
:105990001544A3633146E563204600F09FFB23686E
:1059A0001D4A5B68934230D1A379012B2CD0236B25
:1059B0001A4ABFF35B8FDB4352E8001F194042E8ED
:1059C00000100028F8D1BFF35B8FF43A92F8083149
:1059D0000121A1711BB194F84030002BFBD0237939
:1059E000B2F87460A468D2F8E80003F00F01012354
:1059F00002EB81058B4033432043C5F8A040A2F859
:105A00007430C2F8E80070BD70BD20460121BDE8C9
:105A100070401847B8200020CD570000741D0020AA
:105A20008279012A05D0022A01D100F043BB00206F
:105A300070470B4B10B50446186802F061FC58B96A
:105A4000084BE26B1B68108893F86C3080B2C3F18E
:105A50000F03184100B210BD4FF0FF3010BD00BF62
:105A6000540C0020B8200020807970470120704736
:105A7000807904281DBF0638B0FA80F04009012063
:105A8000704700BF82790023042A80F8593080F8DB
:105A90005B302AD0062A26D18BB2B3F5807F90F8EE
:105AA0003C3028BFFF2170B4C9B2002B40D00D4656
:105AB000026C90F84430D61896F83040AC4208D0CA
:105AC000002B0CBF4024802413692342FCD186F8AC
:105AD00030500279184B02F00F021344012083F872
:105AE0008D1070BC7047184670470B1C90F845200D
:105AF00018BF01239A4204D00C2280F8453080F868
:105B0000582021B1B0F85C10B1FA81F1490990F840
:105B10003C30826B8B42036B4FEAC31303F1824329
:105B200003F500434FF0010014BF9A615A617047BA
:105B3000CD43EDB2BCE700BF801C002083798B42CF
:105B400000F0CB802DE9F041042982B004460D46D7
:105B500000F08780062908D0022933D0E81AB0FA6D
:105B600080F0400902B0BDE8F0810368794A5B69C2
:105B7000A171934240F0B380016C90F8446090F8BA
:105B80003C300022881983F0010384F8592084F8FE
:105B90005B205B4290F83020DBB29A4208D0002EA6
:105BA0000CBF402680260A693242FCD180F8303092
:105BB000B4F90410684E01F00F02B318002083F806
:105BC0008D0093E0002390F83C20A17180F85930BB
:105BD00080F85B30036B816BDB01002A77D103F126
:105BE000824202F500425161B4F904105A4E676BCB
:105BF000B6F87480D4F808C0D6F8E80003F1824300
:105C000001F00F024FF0010E03F500433B440EFA82
:105C100002F728EA0707A6F8747006EB82026FEA1B
:105C20000C073840C2F8A0C0C6F8E80093F840203E
:105C30006FF3000283F8402094F83D30002B00F011
:105C40008680D6F8F03045480EFA01F100221F4058
:105C500084F83D200068C6F8F07002F045FDA37995
:105C60007CE70C22036880F858200026A1715B694C
:105C700090F84510A0F85C60984722793649206B6F
:105C8000636BB1F8747002F00F024FF0010E03EB7A
:105C9000C0130EFA02F027EA0007D4F808E0D1F8A2
:105CA000E800A1F8747001EB820203F1824303F56E
:105CB000004320EA0E00C2F8A0E0C1F8E80093F823
:105CC000402066F3000283F84020A37946E703F101
:105CD000824202F50042916186E70120704700216F
:105CE0009847B4F904101C4E01F00F02D6F8E830C2
:105CF000606B0193236BA768B6F8748000EBC31345
:105D00004FF0010C01980CFA02FE03F1824306EBFE
:105D1000820203F500434EEA080E3843A6F874E009
:105D2000C2F8A070C6F8E80093F8402042EA0C02DE
:105D300083F8402094F83D30002B90D0D6F8F03016
:105D400006480CFA01F1002223EA070780E7022344
:105D500004E700BF855A0000801C0020540C00207E
:105D600070B51D4604469DF8106000F0CDFA95F917
:105D70000130144A23632260AA78626301239340AE
:105D8000002284F83C60A36384F83D20EB7A84F819
:105D900044300C2384F8583084F84520A264E2642F
:105DA0002265626584F8592084F85A2084F85B20C3
:105DB000A4F85C20AA7A044B53F8223023642046CE
:105DC00070BD00BFE42303000C240300F8B50446B3
:105DD00000F0EAF9A379042B2DD1B4F85C305BBB59
:105DE00094F84530002B40F09D8094F83D300C2213
:105DF00084F858209BB1754DA768D5F8F030B4F9F8
:105E0000041073480022012623EA070384F83D208A
:105E100006FA01F10068C5F8F03002F065FC94F86C
:105E2000593043B1B4F8543003B3B4F856209A4211
:105E30001CDB934270D0F8BD013B9BB2A4F85C30F0
:105E4000002BECD194F8452094F83C309A42236B17
:105E5000A26B4FEAC31303F1824303F5004314BF5F
:105E60009A615A610C2384F85830D8E794F85A3074
:105E70005BBB94F85B30002B4ED1564A206D136803
:105E8000E16C1B1A8B42D6D3B4F85C3094F83C100A
:105E900012682265B3FA83F35B098B42236B4FEAE6
:105EA000C31303F1824303F500434FF00C0284F85F
:105EB00058204FF00100A26B84F85A0014BF9A6179
:105EC0005A61012384F84530F8BD424A206D1368B9
:105ED000A16C1B1A8B42AED3126894F83C30226539
:105EE00000210C2284F85A1084F85820002B5BD132
:105EF000236BA26BDB0103F1824303F500435A617C
:105F0000B4F8563094F85B2001330021A4F85630E1
:105F100084F84510002A8ED0002384F8593084F884
:105F20005B30F8BD204600F013FA00287FF45DAF27
:105F300094F85830002B3FF472AF013BDBB284F889
:105F40005830002B7FF46BAF94F83D60E6B91F4AE0
:105F50001F49D2F8F000A3680F68B4F904100125B6
:105F6000034384F83D5005FA01F13846C2F8F03099
:105F70002A4602F0B9FBB4F9042005FA02F23846C9
:105F80003146D2B202F004FA94F83C30ABB9236B3C
:105F9000A26BDB0103F1824303F500435A614FF426
:105FA000FA73A4F85C303AE7236BA26BDB0103F1D0
:105FB000824303F500439A61A2E7236BA26BDB01E6
:105FC00003F1824303F500439A61E8E7801C002057
:105FD000540C00209C1E00208379042B14D0062B27
:105FE00005D0022B01D00020704700F063B8036C8D
:105FF00073B190F8442090F83C10134493F83000AB
:1060000029B9C0F1FF00704790F84500704770470C
:106010004FF0FF30704700BF38B5456B0022EB07EB
:10602000044680F8452080F83D2080F8592080F80B
:106030005B201AD4026BD20102F1824303F50043C4
:1060400003EB5503042093F8302060F3030283F838
:106050003020204600F042F8236BA26BDB0103F1F5
:10606000824303F500439A6038BD006BC00100F124
:10607000824202F5004202EB5502042092F83030D1
:1060800060F3071382F83030E3E700BF8079704790
:106090004FF0FF30704700BF80797047022906BF7C
:1060A0008171012000207047002070470020704758
:1060B00000207047438D13B190F828007047064BBD
:1060C000C1681A68436952F8212012681A420CBF4D
:1060D00001200020704700BF480C00202E4BF0B478
:1060E000C0F82A30C3680469DA0102F1824500264B
:1060F00005F5004514F00107867180F8286005EB6E
:10610000540534D095F8307066F3071785F8307071
:1061100002F18242457E02F500422244002D34D134
:10612000022482F840401D4A846812681C4E0633DF
:106130009B00A3F10C051544134424320562C3618E
:106140004262E443BFF35B8F56E8003F234046E8DA
:106150000032002AF8D1BFF35B8F0368114A5B68F5
:106160008180934215D102238371F0BC704795F86A
:10617000306067F3030685F8306002F18242457EA5
:1061800002F500422244002DCAD0032482F8404088
:10619000C9E70221F0BC184703000100480C0020A9
:1061A000741D00209D600000C2694369126813429B
:1061B00000B505D0428D8285002A39D05DF804FBF8
:1061C000828D002AFAD0013A92B28285002AF5D156
:1061D000016A826809680B40002B0CBF0123002371
:1061E00080F8283053D0BFF35B8F414BD24353E844
:1061F000001F114043E8001EBEF1000FF7D1BFF3AE
:106200005B8F90F82830B0F90410426A002B4AD115
:10621000BFF35B8F01238B40DB4352E8001F194023
:1062200042E800100028F8D1BFF35B8F5DF804FB53
:10623000016A826809680B40002B0CBF0123002310
:1062400080F8283047D0BFF35B8F294BD24353E807
:10625000001F114043E8001EBEF1000FF7D1BFF34D
:106260005B8F90F82830B0F90410426A3BBBBFF353
:106270005B8F01238B40DB4352E8001F194042E84B
:1062800000100028F8D1BFF35B8F5DF804FB184BBA
:10629000BFF35B8F53E8001F114343E8001EBEF1BC
:1062A000000FACD0F6E701238B40BFF35B8F52E8C1
:1062B000001F194342E800100028E4D0F7E701234B
:1062C0008B40BFF35B8F52E8001F194342E8001078
:1062D0000028D8D0F7E7064BBFF35B8F53E8001FC9
:1062E000114343E8001EBEF1000FB8D0F6E700BF2F
:1062F000741D0020034A02604FF6FF710022818066
:10630000827170473424030070B492F90140C46074
:106310000D4D816000244FF6FF7686808471056004
:10632000957805610121A9404161D1780176117903
:10633000064AC4610462446280F828404176C0F88D
:106340002A2070BC704700BF6424030003000100D2
:10635000054BC1681A68436952F8212012681A4235
:106360000CBF012000207047480C0020036A4169DF
:106370001B6882680B40002B0CBF0123002300B573
:1063800080F8283023D0BFF35B8F1E4BD24353E8F5
:10639000001F114043E8001EBEF1000FF7D1BFF30C
:1063A0005B8F90F82830B0F90410426ADBB9BFF374
:1063B0005B8F01238B40DB4352E8001F194042E80A
:1063C00000100028F8D1BFF35B8F5DF804FB0D4B84
:1063D000BFF35B8F53E8001F114343E8001EBEF17B
:1063E000000FDCD0F6E701238B40BFF35B8F52E850
:1063F000001F194342E800100028F8D1BFF35B8F5B
:106400005DF804FB741D00208079704705207047FB
:106410008079043804288CBF00200120704700BF19
:10642000F0B583B09DF82C4000940446089D099E69
:10643000BDF92870FFF794FC00230F49A4F86030E1
:1064400040F6CC42A4F862306366A366E36684F843
:10645000703084F8823084F883306567A667A4F8CA
:1064600080702160A4F85E202A7B044B53F8223010
:10647000E367204603B0F0BD94240300BC2403006E
:1064800010B50368124A1B6880F88210934282B0EC
:10649000044615D18079082805D8012303FA00F0B5
:1064A00010F4D07F01D102B010BD236BA26BDB01D1
:1064B00003F1824303F5004331B15A6102B010BDCC
:1064C000019198470199E6E79A6102B010BD00BFBB
:1064D000096400008279072A014608D80123934005
:1064E00013F0540F12D113F0A00002D17047002016
:1064F0007047CB6F586C1A6C1B6CA0EB5200C0EB52
:10650000C030B0FBF3F040F34F007047FFF764BDBD
:1065100010B58379C46F023B226C052B2AD8DFE8C3
:1065200003F02529250325130079134B00F00F00F4
:1065300011F5004F03441BBF81EAE170A0EBE1704D
:10654000FF20C01183F88D00C2F34F020B4B01FBFB
:1065500002F183FB01030B449B13C917581AC91A94
:106560001044114420676167012010BDBDE8104050
:10657000FFF788BA002010BD801C002003000180B6
:10658000B0F96230B0F9601090F8702070B50B442B
:1065900002B390F87020042A1CD00446C3F30E0006
:1065A0002368A4F862005D6919F060FDB4F85E101C
:1065B000414B11FB00F19D4241F3CF3177D1A379DB
:1065C000E06F023B026C052B1ED8DFE803F06B1D69
:1065D0006B4A6B5A8279072A17D0C16F364C4B6AC7
:1065E00043F001034B6203685B690025A342A0F8F6
:1065F000625032D10B6C023A5B08042A04D8DFE8FF
:1066000002F02703271B270070BD47F6FE72934256
:10661000C3DDC16F284A4B6A43F001034B62036834
:106620005B6900249342A0F8624016D10B6C5B08B2
:106630009BB20B674B6770BD0079204A00F00F00DA
:1066400002449BB2002082F88D000B674B6770BD3F
:106650000021BDE87040FFF715BA0021BDE8704089
:1066600018472479154B04F00F0411F5004F23440B
:106670001BBF81EAE174A4EBE174FF24E41183F809
:106680008D40C2F34F020E4B01FB02F183FB01432D
:106690000B449B13C9175C1AC91A144411440467AC
:1066A000416770BD2046BDE87040FFF7EBB920465A
:1066B0002B46BDE87040184711650000801C002083
:1066C000030001808379023B052B04D8DFE803F047
:1066D0000403040304067047FFF778BB90F870309A
:1066E000032BF0B42CD0042B03D0022B4CD0F0BCE5
:1066F00070473749446E0B68C26E1B1B9342F6D934
:10670000C46F032380F87030A26A324B42F001025A
:10671000A262027909688568B3F87460D3F8E8402A
:10672000416602F00F01012203EB81008A403243EF
:106730002C43C0F8A050A3F87420C3F8E840D6E773
:106740002349446E0B68826E1B1B9342CFD9214AAA
:10675000037909688668B2F87450D2F8E840416657
:1067600003F00F030121994002EB830325EA0105A1
:10677000042724EA060480F87070A2F87450C3F865
:10678000A060C2F8E840B2E7114B416E1B68826E10
:106790005B1A9342ABD90F4A03798668D2F8E810A6
:1067A000B2F8744003F00F0301259D4002EB830310
:1067B00024EA050421EA0601002580F8705080F8DB
:1067C0008350A2F87440C3F8A060C2F8E8108EE7C6
:1067D0009C1E0020801C002070B50446FFF71CFCA6
:1067E0000023E26F84F88230136843F001031360E2
:1067F000936813F00103FBD101215363917715795D
:10680000244B254E254845F002051571D56B45F002
:106810000505D563556A0D4355621B68A6FB0353F6
:10682000DB0B013B1364136C5364136C9364636F51
:1068300093F901209D7800EBC21201FA05F656612A
:10684000A46F94F90130A478DB011844A140816160
:10685000966002EB5502816092F8301003F182439A
:106860000520ED0703F500434CBF60F3071160F30B
:10687000030103EB540382F8301093F83020052114
:10688000E0074CBF61F3071261F3030283F8302085
:1068900070BD00BFB00100203BC637BE0080004184
:1068A00082798A427AD00829F8B50D4667D8012244
:1068B00002FA01F313F0540F044671D113F4907FE0
:1068C0005FD001795D4A01F00F0194F88230002B0E
:1068D00040F09E80236BA66BDB0103F1824000F544
:1068E00000408661606B03F1824303F5004303447B
:1068F00002EB810693F840006FF3000083F840003C
:10690000A368C6F8A030052D00F08B80B2F87400A3
:10691000D2F8E860012707FA01F120EA0101A2F8A4
:10692000741026EA0303616FC2F8E83091F9013070
:10693000434A897802EBC3130B44012193F84000CA
:10694000084383F84000A06F90F90130807802EB93
:10695000C313034493F840200A4383F84020E26FB6
:106960001368C3F340038B4206D0136861F34103FD
:10697000136093689B07FCD4A5710120F8BD00202B
:10698000F8BD1A06FBD501792C4AB0F95E3001F04A
:106990000F015018DB1180F88D3096E70120704709
:1069A000264F0379D0F808E0B7F874C0D7F8E8604C
:1069B00003F00F039A4007EB83032CEA020226EA56
:1069C0000E06A7F87420C3F8A0E0C7F8E860FFF748
:1069D000B5F80028D3D0616F194B91F9012089785F
:1069E00003EBC2120A44002192F840006FF300004A
:1069F00082F84000A26F92F90100927803EBC01375
:106A0000134493F840206FF3000283F84020A6E778
:106A1000236BA66BDB0103F1824000F50040466169
:106A200060E7B2F87470D2F8E800012606FA01F1C6
:106A30003943A2F87410034375E700BF801C00209F
:106A400000800041406820B14B68C01AB0FA80F065
:106A500040097047F8B5436833B11E6826B11AB1D2
:106A600011B11B7A042B02D000242046F8BDB6F8E1
:106A70006440944228BF14460546A2B23046012322
:106A800016F042FB0028EFD16B68186817F0C4F8C5
:106A90000028E9D105F02EFD6B681B68B3F866305D
:106AA000032B0646E1DD084F08E0386806F0BEFC1F
:106AB0006B681B68B3F86630032BD6DD05F01AFD52
:106AC000801B0428F1D9D0E7AC1E0020044A0260E4
:106AD0004FF4FA610022018142608272704700BF68
:106AE000D8240300F0B5456883B004460F46164627
:106AF0004DB12B6883B11B7DDA1F012A0CD95BB124
:106B0000002003B0F0BD4FF41971012025F0A6FA62
:106B100060600028F4D0054614F098FF6168286092
:106B20000D68002D3ED06B8B43F040036B832846ED
:106B300014F090FF636802A90020187241F8047DE8
:106B400018681B4B324614F051FAC8B905F0D2FC54
:106B50006368184D1B7A0646F3B9286806F066FC90
:106B600005F0C8FC2389801B9842606817D8037A17
:106B7000082BF1D125F042FD0020606003B0F0BD8C
:106B800060680028BCD0037A082BF3D00146006867
:106B90000BF01CFC6068EDE7012003B0F0BD00289D
:106BA000F1D1E9E7084625F029FD2846A9E700BF0D
:106BB00009230100AC1E0020406850B1006840B1BC
:106BC000007DC31F012B03D9003018BF012070477F
:106BD000002070474368ABB19A88D988914211D0A0
:106BE00030B40A4D541C1A4485FB0415E117507A41
:106BF000C1EBA5124FF4167101FB124200B29A804C
:106C000030BC70474FF0FF30704700BFB5814E1B5E
:106C1000436833B19A88D988914202D01344587A94
:106C200070474FF0FF30704743680BB100225A6045
:106C3000704700BFF8B5144E346814F0010402D058
:106C4000124B1868F8BD802019F02CFA0546012770
:106C500040222C606C60AC60EC602C616C61214661
:106C6000AC61EC612C626C62AC62EC622C636C63B4
:106C700085F838703C3026F011F9044BA5F87C40BB
:106C800037601D602846F8BD440C00204C0C0020E5
:106C90000249034A034B80E80E0070472080004100
:106CA000A08000412081004110B5CCB20F2C2ED81D
:106CB000B2B16BBB012303FA01F100F13403BFF35E
:106CC0005B8F53E8002F0A4343E80024002CF8D1DF
:106CD000BFF35B8F90F83830CBB1104B196110BD0A
:106CE000012303FA01F1CA4300F13403BFF35B8FC0
:106CF00053E8004F144043E8004EBEF1000FF7D1B7
:106D0000BFF35B8F90F838300BB1044BD96010BDE6
:106D10000122024B02FA01F15961CEE7002800403E
:106D20000F2914DCB0F87C30CB4013F0010F4FF08A
:106D3000010310B503FA01F30AD10F4A00EB8101F8
:106D40005361CB6B13B1BDE81040184710BD7047BD
:106D5000DC4300F13402BFF35B8F52E800EF0EEA30
:106D6000040E42E800ECBCF1000FF6D1BFF35B8FDC
:106D7000014AD360E1E700BF002800400368C16812
:106D80001B68C36042684B40836112680369816875
:106D900002615340C3610A68436942615340036220
:106DA000704700BF00B5816A436ABFF35B8F00F193
:106DB0002C0223EA010352E8001F194342E8001E97
:106DC000BEF1000FF7D1BFF35B8F416A836ABFF357
:106DD0005B8F00F1300223EA010352E8001F1943E0
:106DE00042E8001EBEF1000FF7D1BFF35B8F436A8C
:106DF00083625DF804FB00BF08B5FFF71BFF014B82
:106E0000186008BD480C002006207047012070471C
:106E100090F81401704700BF8079704738B58379C6
:106E20008B4200F0A780A1F109030D460446032B15
:106E300000F2A280DFE803F07A464602303007F025
:106E400095FC72B6D4F8B40003680022A4F81021AF
:106E50003BB1D4F8C410D4F8C0200B681340FCD167
:106E60000360D4F8BC0003680022A4F812213BB1EF
:106E7000D4F8CC10D4F8C8200B681340FCD10360C0
:106E8000D4F8A4103D4A91F90130897802EBC3137C
:106E90000B440C2093F8401041F0010183F840109E
:106EA000D4F8A81091F90130897802EBC3130B4490
:106EB00093F8402042F0010283F84020A07162B6AE
:106EC000012038BD303007F051FC72B6D4F8BC0058
:106ED00003680022A4F812213BB1D4F8CC10D4F8F6
:106EE000C8200B681340FCD10360D4F8A410234AD7
:106EF00091F90130897802EBC3130B4493F84010E9
:106F00006FF3000183F84010D4F8A81091F9013014
:106F1000897802EBC3130B4493F8402042F001023E
:106F200083F84020A57162B6012038BD303007F0EB
:106F30001DFCD4F8A410114A91F90130897802EBB4
:106F4000C3130B44092593F840106FF3000183F835
:106F50004010D4F8A81091F90130897802EBC313DE
:106F60000B44012093F840206FF3000283F8402087
:106F7000A57138BD012038BD002038BD008000411A
:106F800083790A2B0FD090F83D30A3B1D0F8A4300C
:106F9000D0F8B02093F90130DB0103F1824303F50F
:106FA00000435A61704790F8FC309B07EBD590F88E
:106FB0003D30002BEAD0D0F8A430D0F8B02093F9BF
:106FC0000130DB0103F1824303F500439A6170470E
:106FD000A0F13000D4E700BF2DE9F047089FBDF8CD
:106FE0002490BDF82880044616468A463A46002179
:106FF0001D46FFF789F904F1300007F085FB6A4B65
:10700000C4F8A0A003F13C02C4F8A460C4F8AC70BA
:107010002360C4F8A8502263B2786449DFF898A1CD
:10702000634F012303FA02F2C4F8B020AA7884F86F
:10703000D69003FA02F24FF0020C4FF07D0E0020C2
:10704000C4F8B82084F8D7800022A4F8E2C04FF03A
:1070500019084FF6FF7CA4F8F8E04FF003094FF051
:10706000FF3E84F8D820A4F8DA20A4F8DC20A4F8A5
:10707000DE20A4F8E02084F8E42084F8F52084F8E9
:10708000F620A4F8FC2084F8002184F80121C4F83B
:10709000F0A084F8F490A4F8D0C0A4F8D2C0A4F86A
:1070A000D4C0C4F8E880C4F8ECE0C4F80421C4E912
:1070B0004C01C4E95001C4E95401C4E95601C4F8C3
:1070C0000821C4F8102184F8142184F81521C4F88B
:1070D0001821C4F81C21C4F8202184F8382184F830
:1070E000482184F86021C4F86421C4F86821C4F8F8
:1070F0006C21C4F87021C4F87421C4F87821C4F854
:107100007C2184F8882184F8892184F88A21C4F8B4
:107110008C21C4F80C81C4F82831C4F880E1C4F88B
:1071200084E16376337B042B98BF224A57F823000F
:10713000767B98BFD25CB6FBF2F102FB11624FF492
:107140008073D2B202F11C0103FA02F200EB81015A
:1071500002F47C520830C4F8B410C4F8C400C4F877
:10716000C0202A7B687B57F82210042A9ABF114B53
:107170009A5C0022B0FBF2F302FB1303DBB24FF484
:10718000807203F11C0002FA03F301EB800003F4A8
:107190007C530831C4F8BC00C4F8CC10C4F8C83023
:1071A0002046BDE8F08700BF042503000000F03F43
:1071B000E8240300E0240300003C1CC690F81521DD
:1071C000002A38D082790A2A70B5044600D070BDF2
:1071D00090F83D20CB0F81EAE1769A420D46A6EB6E
:1071E000E17604D0026880F83D30136B9847A06BBD
:1071F000636CB042A8BF3046002DB4BF4242024685
:107200001344D4F8BC5063642B68A4F8120186B20E
:10721000B34207D0D4F8CC10D4F8C8200B6813427E
:10722000FCD12E60002894F8643105DD43F00203A0
:1072300084F8643170BD70476FF3410384F86431A2
:10724000C5E700BF30B590F87A3183B00446002B13
:1072500071D190F8793183F0010394F8002194F80A
:1072600001518A4231D094F8140184F800110022AF
:1072700084F80121C4F8082158B3002172B66BB319
:1072800071B340F2E2420123C4F87C2184F87931E1
:1072900062B6A3790A2B2AD094F889318B4235D073
:1072A000D4F8A03000293BD1BFF35B8F2D4ADB43DC
:1072B00052E8000F184042E80005002DF8D1BFF356
:1072C0005B8F84F8891103B030BD94F81421002A33
:1072D00033D10029D1D072B6002BD1D10029D7D11A
:1072E000002384F87A3162B6A3790A2BD4D119B974
:1072F00094F864319A0728D494F8FC30DB0794F8AA
:10730000893148BF81F001018B42C9D1002DD8D00D
:1073100094F80131002BD4D1D4F8A0300029C3D087
:10732000BFF35B8F0F4A52E8000F184342E8000595
:10733000002DC4D0F7E700238FE7002284F8001166
:1073400084F80121C4F8082197E794F87431019179
:1073500043F0100384F8743104F1300007F006FAAA
:107360000199C9E7741D002090F87831002B4AD0AC
:10737000354A90F80131126800B512698BB990F85E
:107380008A31012B22D0022B3BD190F8F430002B14
:1073900045D1D0F88C31002B3CD180F88A315DF892
:1073A00004FBD0F80431D0F80C11D31A8B422BD344
:1073B000D0F80831C0F80421013BC0F808314BB9BE
:1073C00080F8013190F88A31012BDCD1022380F85A
:1073D0008A31DAE71D4BD0F8A020BFF35B8F53E86A
:1073E000001F514043E8001EBEF1000FF7D1BFF36C
:1073F0005B8F90F88A31012BC5D190F80131002BB9
:10740000E4D05DF804FB704790F88A31022BBCD0C1
:107410005DF804FB013BC0F88C315DF804FB0022F1
:1074200000F5BA73BFF35B8F53E8001F21F0200112
:1074300043E8001EBEF1000FF6D1BFF35B8F80F86A
:107440008A215DF804FB00BFA01E0020741D0020EF
:1074500090F87A3170B5044680F81411002B63D18E
:1074600090F8793183F0010394F8016139BB94F805
:10747000005172B65BB365B340F2E2420123C4F837
:107480007C2184F8793162B6A3790A2B28D094F84C
:107490008931AB4233D0D4F8A030002D39D1BFF3BD
:1074A0005B8F284ADB4352E8001F194042E8001076
:1074B0000028F8D1BFF35B8F84F8895170BD002597
:1074C00084F80151C4F8085172B6002BD3D1002DB5
:1074D000D9D1002384F87A3162B6A3790A2BD6D1A8
:1074E0001DB994F864319A0720D494F8FC30DB0776
:1074F00094F8893148BF85F00105AB42CBD1002E0D
:10750000DAD094F80131002BD6D1D4F8A030002D78
:10751000C5D0BFF35B8F0B4A52E8001F194342E806
:1075200000100028C6D0F7E700239DE794F87431D7
:1075300043F0100384F8743104F1300007F016F9B9
:10754000D3E700BF741D0020F8B590F8783103B977
:10755000F8BD0446FEF728FEA379984A94F8D610A1
:107560000A2B08BF94F8FC3052F8217008BFC3F30F
:10757000800694F8D830BD7A03F1FF3318BF002697
:10758000012BEDB240F2DF8094F8283073408C4A32
:1075900084F8F430C4F8F020B4F9D010481C12D0AC
:1075A000884804F02BF903689B680546984709282A
:1075B00000F06A822846FEF77DFD011C18BF0121FC
:1075C0002046FFF73FFEB4F9D2104A1C16D0A3792B
:1075D0000A2B39D07B4804F011F903689B680546F3
:1075E0009847092800F0D0802846FEF763FDA3796C
:1075F000092B00F0D3800B2B00F0D080B4F9D4100D
:107600004B1C21D0A3790A2B1ED06E4804F0F6F84B
:1076100003689B6805469847092800F05B82284666
:10762000FEF748FDA379092B0ED1D4F8A830D4F881
:10763000B82093F90130DB0103F1824303F50043E5
:10764000002800F0F6815A61B4F980114F1C10D067
:107650005C4804F0D3F803689B68054698470928FE
:1076600000F07E812B6828461B689847042800F0AC
:107670007781B4F984114E1C15D0524804F0BEF83D
:1076800003689B6805469847092800F00882284649
:10769000FEF710FD94F84030B0FA80F0400960F336
:1076A000C30384F84030B4F982114D1C15D045480D
:1076B00004F0A4F803689B6805469847092800F081
:1076C000F3812846FEF7F6FC94F84030B0FA80F0DB
:1076D000400960F3041384F84030B4F98611D4F8FB
:1076E0006451D4F87461481C00F03281354804F0CC
:1076F00085F803689B6807469847092800F0E281EF
:107700003846FEF7D7FCB0FA80F77F0994F83C3092
:10771000002B40F0338184F8883194F83E1067F3F1
:107720001045002952D194F8642192074ED594F85F
:107730003D0094F84020002800F07481D70649D518
:1077400046F0040646E0AA0700F083813323BB72AB
:10775000B4F8E230012293FA12F39AB2003218BF61
:107760000122A4F8E23084F87B21EB0600F17A8153
:1077700094F87B31002B40F02981D4F8E83003EBFA
:107780008303A4F8F83007E70F4BB4F9D210186858
:107790000BF068F9A379092B7FF42DAFD4F8A4304E
:1077A000D4F8B02093F90130DB0103F1824303F5F3
:1077B0000043002800F03B815A611FE74C2503007D
:1077C000003C1CC67C1C0020BC21002094F83D001D
:1077D00094F84020C2F3C00767F38E35C2F300125D
:1077E00094F8017162F3CF3567F34D3560F3C3054B
:1077F000002B00F0AB80981F18BF012094F87A216D
:1078000060F34105002A00F09B8094F8F40011B168
:10781000AF0740F101816FF30005032B70D015F025
:10782000020340F0F08000296AD063F3820594F8E7
:10783000793161F3861560F3C815002B64D0D4F854
:107840007C31002B40F3358162F345150122013B69
:1078500062F38C25C4F87C3105F002031BB1B3063A
:1078600048BF46F00106321C18BF0122D4F870311F
:10787000C4F8746162F34925C4F8645125EA03032E
:1078800004F5B472BFF35B8F52E8001F194342E85E
:1078900000100028F8D1BFF35B8FD4F87021BFF33C
:1078A0005B8F04F5B67322EA050553E8002F2A43DF
:1078B00043E800210029F8D1BFF35B8FA379D4F806
:1078C0006421C4F870210A2B7FF442AED4F8180169
:1078D000002860D090F8563A002B58D190F88A379B
:1078E00094F81521DBB2002A55D0002B53D0D4F8E0
:1078F0001C319C427FF42CAEBDE8F84007F062BA20
:10790000031C18BF012390E762F34515002A72D0CB
:1079100094F8D83033B940B905F00203042262F379
:107920008C259BE7002800F0868015F00203F5D136
:10793000032262F38C2563F3041505F002038DE73F
:1079400062F3000594F8F40013466EE7184655E715
:1079500094F83C30002B4BD184F888311F46DCE68C
:1079600094F8D810002950D02B6894F8F4105B6973
:1079700009B194F87A11284698477AE6002F37D053
:1079800094F88811002900F0CA800F46C5E694F8E3
:107990001531002BABD104F13005284606F03EFC32
:1079A000284606F0ADFFD4F8BC50606B2A68A4F8F6
:1079B000120180B282423FF4CBADD4F8CC10D4F89F
:1079C000C8200B681342FCD12860F8BD94F8283019
:1079D00094F8F5107340DAB2914200F0AC80D4F81C
:1079E000E83084F8F52003EB8303A4F8F830D3E5FE
:1079F00094F8887191E662F38C25AA077FF533AF7E
:107A000046F010062BE700230FE794F8F4202B68CC
:107A1000012A5B69AFD1ACE701287FF4FCAE45F0E9
:107A20000105FAE6170748BF46F00206D2E69A615A
:107A3000E4E59A6108E6022363F38C2545F010051E
:107A400004F1300006F092FE46F0200605F0020335
:107A500004E704F04FFDD4F8EC30C01A03283FF6D9
:107A600075AE82E604F046FDB4F8E230C4F8EC00EE
:107A7000002B3AD03023BB72002294F87B3184F87B
:107A8000F620A4F8E22075E6534BB4F9D01018683C
:107A90000AF0E8FF01462046FFF7D4FB93E52B6888
:107AA00028461B699847F5E52B6828461B699847C7
:107AB0000AE60122002345F0200584F87A2184F8A3
:107AC000793125E73B6838461B699847B0FA80F75B
:107AD0007F091BE6404BB4F9D41018680AF0C2FFC6
:107AE000A379092B3FF4A1ADAEE5AD067FF540AE1D
:107AF000B4F8DC10B4F8E020A4F8DA10A4F8DE2022
:107B0000F88BA4F8DC0094F8F600BD8BA4F8E050E4
:107B1000D0B994F87B31012284F8F6202AE604F1EA
:107B2000300006F03DFE012384F8883146F0080657
:107B300094F83C30F1E5B4F8F820002A3FF427AD82
:107B4000013AA4F8F82027E507EE901AB8EE677A14
:107B500007EE902AF8EE677A84F87B31C7EE276A41
:107B600016EE900A22F038FC17A3D3E9002322F086
:107B7000D3FA17A3D3E9002322F082FC22F078FF86
:107B800007EE900A1EB19FED157A77EE677A94F8AA
:107B9000D830C4ED3C7A022B04D0022384F8F430B0
:107BA0000023B8E717EE900A22F016FC00220C4BD7
:107BB00022F0B2FA02460B4622F0B0FA22F058FF49
:107BC000C4F8F000E9E700BF9A9999999999A93FFB
:107BD000721CC7711CC75B40BC2100200000C8425A
:107BE000000049402DE9F84304460F469046002A1C
:107BF00054D1456C4D1BED0FD4F87431002B4BD094
:107C000094F8743143F0010384F87431002694F839
:107C1000003133B994F8742142F010021E4684F802
:107C20007421B4F98611481C16D0294803F0E6FDEA
:107C300003689B6881469847092840D04846FEF76C
:107C400039FAB0FA80F0400930B194F8743143F059
:107C5000080384F87431002694F840306DB1D906D9
:107C600026D496B101234246394684F83E3004F1C9
:107C70003000BDE8F84306F04DBA1A07F1D594F884
:107C8000743143F0020384F8743194F864319B0733
:107C900006D40020BDE8F8830126B8E7CD0FABE796
:107CA00004F13000002106F07BFD0020BDE8F883E0
:107CB00094F8743143F0040384F87431E5E7D9F89B
:107CC000003048461B699847B0FA80F04009BBE78E
:107CD0007C1C0020A0F13000FFF784BFF8B5D0F87D
:107CE000743104460E46002B4AD090F8743143F0AC
:107CF000010380F87431002594F8003133B994F809
:107D0000742142F010021D4684F87421B4F98611E2
:107D1000481C16D0264803F071FD03689B6807468F
:107D2000984709283CD03846FEF7C4F9B0FA80F0ED
:107D3000400930B194F8743143F0080384F8743189
:107D40000025002E94F840300CDAD90621D48DB1EC
:107D50000023314684F83E3004F13000BDE8F8409D
:107D600006F012BA1A07F2D594F8743143F0020300
:107D700084F8743194F864319B0703D40020F8BD73
:107D80000125B9E704F13000002106F009FD0020CB
:107D9000F8BD94F8743143F0040384F87431E9E7D2
:107DA0003B6838461B699847B0FA80F04009C0E745
:107DB0007C1C0020A0F13000FFF790BFF8B5D0F890
:107DC000A430BC4D93F90130D0F8B02005EBC313BB
:107DD00004469A61D0F8A830D0F8B82093F9013061
:107DE00005EBC3130E469A610021FFF72BFA3146CB
:107DF0002046FEF773F9D4F8A43093F9012098785F
:107E000005EBC2121318002783F84070D4F8A810AD
:107E100091F901308E78DB01E9188D1903F1824365
:107E200085F84070D4F8B0509560D4F8B8508D60A3
:107E300002EB500210F0010F92F830104FF00500E5
:107E400003F5004314BF60F3071160F3030103EB74
:107E5000560382F8301093F83020F0074FF00501F8
:107E60004CBF61F3071261F3030283F830202368EB
:107E7000914A5B68934240F01981A379092B22D083
:107E800004F1300006F072FCD4F8A410894B91F98B
:107E90000120897803EBC2120A44092092F84010AD
:107EA0006FF3000182F84010D4F8A82092F9011075
:107EB000927803EBC113134493F840206FF3000250
:107EC00083F84020A071E3682269DB0103F182415D
:107ED00001F5004101EB520103F1824391F83000BA
:107EE00012F0010503F50043134414BF6FF30710AC
:107EF00065F3030081F8300093F840206F4942F0A9
:107F0000010283F8402094F8D60051F820301A6816
:107F10006FF341021A601A699207FCD41A6842F0A2
:107F200001021A601A6912F00102FBD11D6864494E
:107F300062F305151D601D6862F314551D601D6810
:107F400062F355551D601D6845F480351D601D6840
:107F500045F400351D601D6862F3CB251D601D686A
:107F600062F30A251D601D6845F080051D601D68CF
:107F700045F040051D601D6862F383051D60DD88C6
:107F8000052666F30205DD80DD8845F02005DD80ED
:107F9000DD8862F30C35DD80DD8862F34D35DD80F0
:107FA000DD8862F30825DD80DD8845F01005DD8081
:107FB0000D7862F341050D70D4F8AC208E68D57849
:107FC0000122AA4016438E60EF088E69BF0007F1B8
:107FD000804E16430EF5205E8E6105F00706DEF832
:107FE0001CC0B7000426BE4046EA0C06CEF81C6052
:107FF000CE6892B262F30F06CE600A7842F00202B7
:108000000A704A6812F00202FBD194F8D7E02D49B9
:108010000EF12B073E4651F827C062F3861C41F84B
:1080200027C051F826205706FBD451F82620254FAB
:108030004FF0060C6CF3030241F8262051F826207D
:1080400042F0400241F826207A6812F0180FFBD166
:108050001D4A1E4E74300EF101010FFA8EFE42F8D9
:10806000201006EBCE02917941F002019171D17995
:10807000C807FCD4123505F07F0545F4007546F8B5
:108080003E50D1798907FCD41A6842F002021A6086
:108090001A6912F00202FBD10123C4F86421C4F86A
:1080A0006821C4F86C2184F87831F8BD0921204694
:1080B000984708E7008000411D6E00004C25030032
:1080C00000280040001C004000E0004120E000418A
:1080D000A1F10200B0FA80F0400970470220704719
:1080E000A1F10100B0FA80F040097047A1F1080049
:1080F000B0FA80F040097047807A7047A0F1040020
:10810000FAE700BF807A401AB0FA80F04009704761
:10811000A0F10400F6E700BF08207047A0F10400BA
:10812000FAE700BF00207047A0F10400FAE700BFA3
:108130001123818183727047A0F10400F8E700BF2A
:10814000704700BFA0F10400FAE700BF014B1868B8
:1081500001F0ACB8600C0020014B186801F0B4B815
:10816000600C0020014B186801F0C8B8600C0020BA
:10817000014B186801F07EB8600C0020014B1868B4
:1081800001F052BC600C0020014B186801F06AB885
:10819000600C0020014B186801F066B8600C0020EC
:1081A000014B186801F0C8B8600C0020014B18683A
:1081B00001F0EEB9600C0020014B186801F0F4B931
:1081C000600C0020014B186801F022BA600C0020FE
:1081D000014B186801F024BA600C00200368044ABF
:1081E0001B6B934203D1034B186801F087B8184703
:1081F00065810000600C0020A0F10400EEE700BFE4
:1082000008B50368064A1B6B934205D1054B1868F5
:1082100001F074F800B208BD984700B208BD00BF75
:1082200065810000600C0020A0F10400E8E700BFB9
:1082300008B5036861B90B4ADB68934205D10A4B64
:10824000186801F0F1FB012008BD9847012008BD26
:10825000064A9B689342F8D1034B186801F00AF86C
:10826000012008BD7D810000600C002071810000AC
:10827000A0F10400DCE700BFF8B5194D2C6814F03C
:10828000010402D0174B1868F8BD442017F00AFF0C
:10829000144A154F154E164904600123446084604A
:1082A000C460046144618461C461446280F8284010
:1082B00080F82A4080F82B40046280F829408485A9
:1082C000C485048680F8324080F8334080F840400E
:1082D00080F8414047638663C16310602B60F8BD3E
:1082E000500C0020580C0020FA00C4098813EC2C14
:1082F0008813C4094068BFF35B8F0840704700BF14
:108300004068BFF35B8FC0F30020704708B50023BF
:10831000016280F840300360024805F0A1FC0120B2
:1083200008BD00BF801C002080F8411051B9174BD8
:108330000422C3F8042193F8422142F0010283F899
:1083400042217047031DBFF35B8F53E8002F42F0BB
:10835000080243E800210029F7D1BFF35B8FBFF388
:108360005B8F0C3050E8003F43F0080340E80032D8
:10837000002AF7D1BFF35B8F044B0422022183F85C
:108380004211C3F81821C3F808217047008000414A
:10839000014491F824301A4381F82420704700BF2B
:1083A000CBB2DA0710B5044605D590F8252042F087
:1083B000020280F82520980705D594F8252042F080
:1083C000010284F825205A0705D594F8262042F0AA
:1083D000010284F82620D80605D594F8252042F01D
:1083E000040284F82520C1F30721CA0605D594F8B4
:1083F000262042F0020284F82620144A126892F8DD
:10840000612012B111F00C0F18D11B0605D594F89C
:10841000263043F0080384F8263004F1240009F0E4
:108420000DFD94F829300A4A94F8321082F80A11A6
:10843000003318BF012382F8093110BD94F82620BB
:1084400042F0040284F82620DFE700BFAC1E0020C3
:10845000801C00202DE9F04182B000230193984B4D
:108460004468BFF35B8F1A68964F138ADFF87482F3
:10847000E1B2CE0705469BB24CBF42F6534043F2F1
:10848000A82083429DF804008F4ED4BF002301230F
:1084900063F300008DF80400138A366888079BB2E6
:1084A0004CBF41F2691040F6D37083429DF804003E
:1084B000CCBF0023012363F341008DF80400938AAD
:1084C0009DF80400C9069BB24CBF45F2447144F6C6
:1084D00092518B42CCBF0023012363F304108DF82B
:1084E0000400D7F8A03095F841C092F861E09DF8FB
:1084F00005207649764F0968DB43C0B263F38200FA
:108500006EF30002C3B28DF805206CF3C303D7F8F5
:10851000F0208DF804008DF8043091F892E00032DC
:10852000D1E926019DF8041096F85C3018BF0122AD
:1085300062F345119DF805208DF8041083F00103C6
:1085400063F341028DF80520CBB296F85D1096F8E2
:108550005E60D2B261F382028DF805206EF3C7131C
:108560005C4A8DF804309DF8041092F844219DF87F
:108570000530003260F3861157488DF8041018BF9B
:10858000012266F3C30362F304130268534E92F8A8
:10859000062262F345138DF8053028460199FFF74E
:1085A000FFFE306803681B68434540F08480807993
:1085B00004280CD09DF8043013F0040FD7F8F030E5
:1085C00014BF43F0080323F00803C7F8F0307068C5
:1085D00003681B68434570D1807904280CD09DF84E
:1085E000043013F0040FD7F8F03014BF43F0040345
:1085F00023F00403C7F8F030019ABFF35B8F019BAF
:108600006A6024EA030305F11002BFF35B8F52E8AE
:10861000001F194342E800100028F8D1BFF35B8F18
:10862000019ABFF35B8F05F10C0322EA040453E8BF
:10863000002F224343E800210029F8D1BFF35B8FCC
:1086400005F10803019ABFF35B8F53E8001F114344
:1086500043E800100028F8D1BFF35B8F019BBFF304
:108660005B8F55E8002F1A4345E800210029F8D117
:10867000BFF35B8F297995F8403041EAD10101F0D1
:1086800001018B4285F8401012D0154C04F11007FF
:1086900054F8040BFEF7DCFEBC4295F84010F7D10D
:1086A0003068FDF7EDFE95F840107068FDF7E8FEC4
:1086B00002B0BDE8F08198477AE798478DE700BFA0
:1086C000B820002000800041AC1E0020BC2100200A
:1086D000801C0020341B0020901E00201C2703005B
:1086E0002427030009640000C3694AB923EA010191
:1086F00042698369C1610A431943426181617047DC
:108700001943F5E708B5FFF7B7FD014B186008BD41
:10871000540C002030B583B01A4DADF804009DF81C
:1087200004102B6811F00104A3F8120112D12146A4
:10873000204608F07FF82146012008F07BF808F079
:108740006DF808F0A5F80368B3F5966F12D0002015
:1087500003B030BD0C49002008F06CF80B49012033
:1087600008F068F828684021803008F02FF80020D1
:1087700003B030BD0121064803F0FCFA002003B02D
:1087800030BD00BF600C002095870000CD8900003F
:108790007C1C00202DE9F04F83B072B68A490B682B
:1087A00003F18000C3F81821C3F8140162B6086809
:1087B00072B6D0F80431D0F80021D0F818419B1AD5
:1087C00048BF4033002C00F0D680D3F13F0300F0C7
:1087D000D280D0F80451D0F81421A34228BF2346F8
:1087E000C5F14001994228BF19464619002900F0F9
:1087F000E8802C1D0444171DBE4238BFA242C0F0C1
:10880000CE800B2940F2CB80544214F0030400F0D8
:10881000B78017784755012C06F1010C02F10108C9
:1088200000F0B08057787770022C06F1020C02F14C
:10883000020800F0A7809778B77006F1030C0326B2
:1088400002F103080196A1EB040BABF10406B60894
:108850002F1901364FEA8609074414444FF0000EE1
:108860000EF1010E54F804AB47F804AB7645F7D887
:10887000019CCB454C440CEB090708EB090E00F0BA
:10888000898018F826800CF82680661CB14240F2D8
:10889000818002349EF801607E70A1427AD99EF8F0
:1088A0000240BC705618D0F81421D0F818410A4480
:1088B000641A5B1AC0F81421C0F8184164D0311D45
:1088C000021D964238BF8842044671D30B2B6FD9E4
:1088D000724212F003025FD031780170012A00F178
:1088E000010406F1010E58D071784170022A00F19E
:1088F000020406F1020E50D0B1788170C41C06F15A
:10890000030E0327A3EB020CACF1040189084D1CF4
:1089100016444FEA850802440021013156F8049BB1
:1089200042F8049B8D42F8D8C44507EB080204EBDB
:1089300008010EEB08060DD01EF8257004F825700E
:10894000541CA34206D9023274784C70934201D968
:10895000B2788A70D0F81421D0F81841C0F80431E8
:108960001A44E41AC0F81421C0F818411CB9803028
:10897000402107F02BFF62B6012003B0BDE8F08F65
:10898000B446904601945EE7294401F03F01C0F8E7
:108990000411EBE7561886E7B6461746B2E7741E91
:1089A000561812F8017B04F8017FB242F9D17AE738
:1089B000421EF41816F8011B02F8011FB442F9D147
:1089C000C8E7164673E700BF600C00202DE9F04FA2
:1089D000D84883B0002940F0AB810168D1F8083154
:1089E0001A4402F03F02C1F808210023BFF35B8F55
:1089F00081F81031BFF35B8F0468BFF35B8F4FF0DA
:108A0000010104F58873D3E84F2FC3E8401F002805
:108A1000F9D1BFF35B8F12F0FF0F40F0DC80D4F888
:108A20000861D4F80C118E4200F0918104F14002EB
:108A300002EB060704F1C00EC0F0D180C6F140037E
:108A40001944402928BF40218B4228BF0B46002BE8
:108A500000F0A18106F1400506F1440C6019A44420
:108A600004F1C408404538BFE645C0F08A810B2BAD
:108A700040F28781404210F0030000F06181965D72
:108A800084F8C060012804F1C10C07F1010800F06E
:108A900059817E7884F8C160022804F1C20C07F184
:108AA000020800F04F81BE7884F8C260032607F107
:108AB000030804F1C30C0196A3EB000BABF1040611
:108AC000B60805440136C030254420444FEA8609E3
:108AD0000027013755F804AB40F804ABB742F8D390
:108AE0000198CB4548440CEB090508EB09070DD06C
:108AF00018F826800CF82680461CB34206D90230AE
:108B00007E786E70834201D9B878A8700EEB0300AE
:108B1000CB1A00F0FC8004F14405061DB24238BFB8
:108B2000A842C0F025810B2B40F22281554215F05E
:108B3000030500F0098194F840200270012D00F136
:108B4000010804F1410200F0008194F841204270D4
:108B5000022D00F1020804F1420200F0F68094F8C0
:108B60004220827000F1030804F143020327A3EBC3
:108B70000509A9F10406B60805F1400C01362844A0
:108B8000A4444FEA860B4FF0000A0AF1010A5CF890
:108B9000045B40F8045B5645F7D8D9455F4408EBC1
:108BA0000B0002EB0B0500F0B28012F8262008F84B
:108BB00026207A1C934240F2AA8002376A784270DB
:108BC000BB4240F2A480AB788370704607F012FE7F
:108BD000002840F0A280012003B0BDE8F08F891B7F
:108BE00006F1400306F14400402904EB0308204449
:108BF00004F1C40528BF4021A84538BF8645C0F010
:108C0000AD800B2940F2AA80C8F1000818F00308D3
:108C100000F09280925D84F8C020B8F1010F04F159
:108C2000C10507F1010600F089807A7884F8C12037
:108C3000B8F1020F04F1C20507F102067ED0BA783E
:108C400084F8C220FE1C04F1C3054FF0030943441D
:108C500008F1C000E2582250A1EB0808A8F1040274
:108C600023449208013220445F684760022A4FEA99
:108C7000820C35D09F688760032A31D0DF68C760D7
:108C8000042A2DD01F690761052A29D05F69476131
:108C9000062A25D09F698761072A21D0DF69C7612D
:108CA000082A1DD01F6A0762092A19D05F6A476225
:108CB0000A2A15D09F6A87620B2A11D0DF6AC76221
:108CC0000C2A0DD01F6B07630D2A09D05F6B476319
:108CD0000E2A05D09F6B87630F2A01D0DB6BC3631D
:108CE000E045E14405EB0C0306EB0C000FD016F851
:108CF000226005F8226009F10102914207D909F1C9
:108D0000020942785A70494501D982789A707046B2
:108D100007F070FD00283FF45EAFBFF35B8F0023C8
:108D200084F810310120BFF35B8F03B0BDE8F08FF2
:108D300001685AE6600C00203E467546C14686E74B
:108D4000B846F4460190B7E680462F460FE7BFF3DA
:108D50005B8F84F81021BFF35B8F3CE704F1BF0306
:108D6000781817F8012B03F8012F8742F9D1CEE7C5
:108D70000138134412F8015B00F8015F9A42F9D1FF
:108D8000C5E704F1BF00FE1817F8015B00F8015FAA
:108D9000BE42F9D1BAE67046BAE600BF70B5164ECB
:108DA000346814F0010402D0144B186870BD4FF4FD
:108DB000907017F077F9054600F18003C0F8004184
:108DC0000F49C5F80441C5F81431C5F80841C5F884
:108DD0001841C5F80C4185F81C4185F81041A5F8EB
:108DE000124185F81141032007F024FD034A0123B5
:108DF00015602846336070BD5C0C0020A40C002078
:108E0000158700002DE9F041C74AD2F8A8306FF36A
:108E100086138CB0C2F8A830D2F8A8305906FBD41B
:108E2000D2F8A830C049042060F30303C2F8A83088
:108E3000D2F8A83043F04003C2F8A8304B68DB06F4
:108E4000FCD4BA4BBA491A6942F480621A619A6931
:108E500042F001029A61A1F1D700032208F096F8CE
:108E60000446002800F09C81B24B0FCB8DE80F0028
:108E700003681D0FE8B2C3F3036800F13007373011
:108E8000092D88BF07465FFA88F0C3F3035600F147
:108E9000300C3730B8F1090FC8BF8446F0B2C3F3C5
:108EA00003458DF811C000F1300C3730092EC8BFD2
:108EB0008446E8B2C3F3033E8DF812C000F1300CD3
:108EC0003730092DC8BF84465FFA8EF08DF81070D8
:108ED0008DF813C0C3F3032700F1300C3730BEF117
:108EE000090FD4BFE6468646F8B2C3F303160A4616
:108EF0008DF814E000F1370E3030092FCCBF7746E3
:108F00000746F0B212688DF8157003F00F0300F1F8
:108F100037073030092ECCBF3E460646D8B2150F73
:108F20008DF8166000F137063030092BCCBF334680
:108F30000346E8B2C2F3036C8DF8173000F1370333
:108F40003030092D88BF18465FFA8CF3C2F3035EF8
:108F50008DF8180003F137003033BCF1090FCCBF96
:108F600084469C465FFA8EF3C2F303478DF819C01E
:108F700003F1370C3033BEF1090FD8BF9C46FBB26A
:108F8000C2F303368DF81AC003F1370C3033092FC2
:108F9000D8BF9C46F3B2C2F303258DF81BC003F182
:108FA000370C3033092ED8BF9C46EBB2C2F3031006
:108FB00002998DF81CC003F1370C3033092DCCBF5A
:108FC00065461D46C3B209688DF81D5002F00F02B8
:108FD00003F1370530330928CCBF28461846D3B2F1
:108FE0004FEA117E8DF81E0003F137003033C1F3D4
:108FF0000367092ACCBF02461A465FFA8EF5F8B21B
:109000008DF81F2005F137023035C1F30356BEF14C
:10901000090F88BF154600F137023030092FC8BF4D
:109020001046F3B203F137028DF821003033C1F35B
:109030000340092EC8BF1346C2B2C1F3033E02F17A
:10904000370830320928D8BF90465FFA8EF2C1F354
:1090500003278DF822302046039B8DF8205002F123
:1090600037043032BEF1090FD8BF1446FAB21B687C
:109070008DF82440C1F3031602F137043032092F72
:10908000CCBF27461746F2B201F00F018DF82570CC
:1090900002F137073032092ECCBF3E461646CAB21F
:1090A0001D0F8DF8266002F1370630320929CCBF3A
:1090B00031461146EAB2C3F3036C8DF8271002F172
:1090C00030013732092D88BF11465FFA8CF2C3F3A5
:1090D000035E8DF8281002F130013732BCF1090F20
:1090E000D4BF8C4694465FFA8EF2C3F3034402F178
:1090F00037013032BEF1090FCCBF8E469646E1B241
:10910000C3F303378DF82AE001F1370E3031092C13
:10911000D8BF8E46FAB2C3F303268DF82BE002F1D6
:10912000300E373208E000BF001C0040000800404D
:10913000AF01002060260300092FD4BF77461746F1
:10914000C3F30315F4B203F00F03DAB2E9B28DF8FA
:109150002C7004F130073734092ED8BF3C4601F19A
:10916000300E02F1300737313732092DD8BF714642
:10917000092BD4BF3B4613468DF82E108DF82F30A7
:109180008DF823808DF829C08DF82D400DF10F0347
:109190000DF12F0113F8012F20F8022F8B42F9D186
:1091A0002A4B2B4A2B4F2C4D2C4880214FF0807698
:1091B0004FF0804482F8501382F8511382F8521312
:1091C00082F853139E609C629F625E6193F8582000
:1091D00002F0FB0283F8582093F8582002F0FE02B8
:1091E00042F0010283F8582093F83C2002F0F0028C
:1091F0004FF0007142F0070283F83C2099609C62B6
:109200009D62596193F8592002F0FB0283F85920BE
:1092100093F8592002F0FE0242F0010283F859202F
:1092200093F83C2002F00F0242F0700283F83C20D9
:1092300007F0F4FD07F0ACFA094807F01DFE07F04F
:1092400033FE01200CB0BDE8F08100BF008000417A
:1092500000E100E0000100C0000200C0640C00203A
:10926000D00000200120704708B507F011FB00680E
:1092700008BD00BF38B590F81C3103B138BD0446B5
:109280000125184684F81C51064907F0D3FA2846F0
:10929000054907F0CFFA04F180004021BDE83840CD
:1092A00007F094BA95870000CD890000034600229C
:1092B000C0F80021C0F81821C0F8042140218030F6
:1092C00083F8112107F082BA38B504464FF0824581
:1092D000D4F80821D4F80C319A4200D138BD07F0F7
:1092E000D1FA0028FAD094F81231DB07F6D56B7B5F
:1092F00003F07F03022BEBD038BD00BF38B5054625
:1093000007F0C0FA044670B195F8124114F0010458
:1093100009D04FF082435C7B04F07F04A4F1020487
:10932000B4FA84F464090348002103F00DF92046DF
:1093300038BD00BF804F1200D0F80031D0F80421B2
:10934000934200F016812DE9F04F5A1C02F03F02C3
:10935000C45CC0F8002183B072B6D0F80431D0F8F4
:109360000021D0F818519B1A48BF4033002D00F05F
:10937000E380D3F13F0300F0DF80D0F80461D0F840
:109380001421AB4228BF2B46C6F14001994228BFA9
:1093900019468719002900F0F880351D054402F1AF
:1093A000040E774538BFAA42C0F0DA800B2940F29C
:1093B000D780554215F0030500F0C38092F800E015
:1093C00000F806E0012D07F1010802F1010900F0A3
:1093D000BA8092F801E087F801E0022D07F1020857
:1093E00002F1020900F0AF8092F802E087F802E093
:1093F00007F10308032702F103090097A1EB050B0E
:10940000ABF10407BF0806EB050E01374FEA870AE8
:10941000864415444FF0000C01940CF1010C55F8F2
:10942000044B4EF8044B6745F7D8009D019CD3458B
:10943000554408EB0A0E09EB0A0C00F08C8019F871
:10944000279008F827906F1CB94240F284800235BB
:109450009CF801708EF80170A9427CD99CF80250EA
:109460008EF802505718D0F81421D0F818510A4439
:109470006D1A5B1AC0F81421C0F8185165D0011D8F
:109480003A1D904238BF8F42054675D30B2B73D9D6
:10949000424212F0030260D039780170012A00F1D3
:1094A000010507F1010E59D079784170022A00F1C7
:1094B000020507F1020E51D0B9788170C51C07F181
:1094C000030E4FF00308A3EB020CACF10401890872
:1094D0004E1C17444FEA860902440021013157F817
:1094E00004AB42F804AB8E42F8D8CC4508EB090235
:1094F00005EB09010EEB09070DD01EF826E005F873
:1095000026E0551CAB4206D902327D784D7093425D
:1095100001D9BA788A70D0F81421D0F81851C0F85F
:1095200004311A44ED1AC0F81421C0F818511DB9BD
:109530008030402107F04AF962B620B203B0BDE89E
:10954000F08FB8469146009558E7314401F03F014D
:10955000C0F80411EBE7571885E7BE469046B2E71E
:109560007D1E571812F801EB05F801EFBA42F9D148
:1095700079E74FF0FF307047421EFD1817F8011BC6
:1095800002F8011FBD42F9D1C5E717466FE700BFDA
:10959000D0F80421D0F800319A421ABFD0F8003137
:1095A000C05C4FF0FF30704770B504460E464FF078
:1095B000824507F067F950B394F8120110F00100EA
:1095C00025D06B7B03F07F03022B01D0002070BD00
:1095D00094F81C0100B970BDD4F80831D4F80C21FE
:1095E0009B1A5A1E0ED4002AE3D0D4F80C3123441F
:1095F00083F84060D4F80C31013303F03F03C4F822
:109600000C3170BD03F13F02002AD2D0EDE770BDEE
:10961000D0F80431D0F80001181A48BF4030704724
:10962000D0F80831D0F80C219B1A581E48BF03F11E
:109630003F0070472DE9F04F00F5887383B04FF07D
:109640000101BFF35B8FD3E84F2FC3E8441F002C09
:10965000F9D1BFF35B8F12F0FF0F40F0E480D0F838
:109660000861D0F80C118E4200F0B68100F1400381
:1096700003EB060700F1C005C0F0D880C6F1400238
:109680001144402928BF40218A4228BF0A46002AA7
:1096900000F0C78106F1400E06F1440400EB0E080D
:1096A000044400F1C40CE04538BFA542C0F0AE81CF
:1096B0000B2A40F2AB816C4214F0030400F07F816E
:1096C0009E5D80F8C060012C00F1C10C07F101081B
:1096D00000F07B817E7880F8C160022C00F1C20C22
:1096E00007F1020800F07181BE7880F8C26003269D
:1096F00007F1030800F1C30C0196A2EB040BABF1D8
:109700000407BF080EEB04060137C03406440444C6
:109710004FEA87094FF0000E0EF1010E56F804AB28
:1097200044F804ABBE45F7D3019CCB454C4408EB51
:10973000090E0CEB09060FD018F827800CF82780CB
:10974000671CBA4208D902349EF801707770A242B1
:1097500002D99EF80240B470AC188A1A00F01A813F
:10976000261D00F14407BC4238BFB342C0F045811A
:109770000B2A40F242815F4217F0030700F0298173
:1097800090F840302370012F04F1010C00F14103E7
:1097900000F01D8190F841306370022F04F1020C3B
:1097A00000F1420300F0138190F84230A37004F1FD
:1097B000030C00F143034FF00309A2EB0708A8F1E3
:1097C000040E4FEA9E0E07F140060EF1010E3C44D6
:1097D00006444FEA8E0A0027013756F804BB44F8C6
:1097E00004BBBE45F8D8D04509EB0A0403EB0A07D1
:1097F0000CEB0A0600F0CE8013F82E300CF82E3059
:10980000631C9A4240F2C68002347B787370A24295
:1098100040F2C080BB78B3700446284606F0EAFFE9
:10982000002840F0BE8003B0BDE8F08F891B06F130
:10983000400206F14404402900EB020C044400F10C
:10984000C40E28BF4021F44538BFA542C0F0CB80EC
:109850000B2940F2C8806C4214F0030400F0AB8086
:109860009B5D80F8C030012C00F1C10607F1010EAC
:1098700000F0A9807B7880F8C130022C00F1C2068C
:1098800007F1020E00F09F80BB7880F8C23007F12C
:10989000030E00F1C3064FF0030C1319034404F147
:1098A000C0081A6840F808200F1B3A1F920800EB06
:1098B00008040132D3F80480C4F80480022A4FEA75
:1098C00082084FD0D3F80890C4F80890032A49D0F2
:1098D000D3F80C90C4F80C90042A43D0D3F810901D
:1098E000C4F81090052A3DD0D3F81490C4F8149011
:1098F000062A37D0D3F81890C4F81890072A31D028
:10990000D3F81C90C4F81C90082A2BD0D3F82090D0
:10991000C4F82090092A25D0D3F82490C4F82490C4
:109920000A2A1FD0D3F82890C4F828900B2A19D0FF
:10993000D3F82C90C4F82C900C2A13D0D3F8309084
:10994000C4F830900D2A0DD0D3F83490C4F8349078
:109950000E2A07D0D3F83890C4F838900F2A01D0D7
:10996000DB6BE36347450CEB080306EB08040EEBE7
:10997000080C0FD01EF8227006F822705A1C914273
:1099800008D902339CF801206270994202D99CF8F0
:109990000230A3700446284606F02CFF00283FF44E
:1099A00042AFBFF35B8F002384F81031BFF35B8FAE
:1099B00003B0BDE8F08FBE46A4462E466DE7B8461C
:1099C0000194AC4699E6A44667E7019495E6B9464A
:1099D000F3E6B946A446F0E6BFF35B8F80F81021AA
:1099E000BFF35B8F1FE700F1BF037C1817F8012B53
:1099F00003F8012FA742F9D1CCE7013C1A4413F830
:109A0000016B04F8016F9342F9D1C3E700F1BF0481
:109A100007EB020E17F8016B04F8016FBE45F9D190
:109A20009AE62C4699E600BF38B590F81C3103B988
:109A300038BD0546FFF7FEFD4FF08244D5F80821FA
:109A4000D5F80C319A420BD006F01CFF40B195F8C6
:109A50001231DB0704D5637B03F07F03022BEDD0CB
:109A60000024214685F81C41204606F0E3FE2146ED
:109A7000012006F0DFFE06F0D1FEC5F80041C5F872
:109A80001841C5F80441C5F80841C5F80C4185F8EE
:109A9000104185F8114138BD90F8103103B170477D
:109AA000D0F80821D0F80C319A4200F0FD802DE961
:109AB000F04F00F5887383B04FF00101BFF35B8F67
:109AC000D3E84F2FC3E8441F002CF9D1BFF35B8FBD
:109AD00012F0FF0F40F0E580D0F80861D0F80C11CB
