:104000000000032071BF0000D1420000D142000037
:10401000D1420000D1420000D14200000000000067
:10402000000000000000000000000000D14200007D
:10403000D142000000000000D14200000DBE00008F
:10404000D1420000D1420000D1420000D142000024
:10405000D1420000D1420000D1420000D142000014
:10406000D1420000D1420000D1420000D142000004
:10407000E1BC0000F1BC000001BD000011BD00006A
:1040800021BD000031BD000041BD000051BD000058
:1040900061BD000071BD000081BD000091BD000048
:1040A000A1BD0000ADBD0000BDBD0000CDBD000044
:1040B000D1420000D1420000D1420000D1420000B4
:1040C000D1420000D1420000D1420000D1420000A4
:1040D000D1420000D1420000D1420000D142000094
:1040E000D1420000D14200000000000000000000AA
:1040F00000000000D142000075BC0000D142000069
:1041000081BC00008DBC0000D1420000D142000003
:10411000D1420000D142000099BC0000D142000011
:10412000A5BC0000B1BC0000D1420000D14200009B
:10413000D1420000D1420000D1420000D142000033
:10414000D1420000D1420000D1420000D142000023
:10415000D1420000D1420000D1420000D142000013
:10416000D1420000D1420000BDBC0000D14200009D
:10417000C9BC0000D5BC0000000000000000000029
:104180006194010065940100699401006D9401003F
:1041900069BC000061BE0000D1420000D1420000B5
:1041A000D1420000D1420000D1420000D1420000C3
:1041B000D1420000D1420000D1420000D1420000B3
:1041C000D1420000D1420000D1420000D1420000A3
:1041D000D1420000DDBD0000D1420000D14200000C
:1041E000F5BD0000D1420000D1420000D1420000E4
:1041F000D1420000D1420000D1420000D142000073
:10420000D1420000D1420000D1420000D142000062
:10421000D1420000D1420000D1420000D142000052
:10422000D1420000D1420000D1420000D142000042
:10423000D1420000D1420000D1420000D142000032
:10424000D1420000D1420000D1420000D142000022
:10425000D1420000D1420000D1420000D142000012
:10426000D142000010B5054C237833B9044B13B18B
:104270000448AFF300800123237010BDC00A002062
:1042800000000000E83403000C4B43B10C480D491A
:1042900010B5AFF300800C48036823B910BD0A487D
:1042A000036833B97047094B002BF7D0BDE81040C5
:1042B0001847064B002BF5D0184700BF0000000040
:1042C000E8340300C40A0020BC0A002000000000FB
:1042D000FEE700BF000000002DE9F0414C4C4D48C6
:1042E0002DED068B00250021257008F02FF84A4B94
:1042F0000A221868022109F085FB4648002108F0CF
:1043000025F82946454803F053F92946444803F067
:104310004FF94048002108F019F804F10800404A1C
:104320003E490BF0A5F800285FD09FED338B9FED41
:10433000349BB0EE481AF0EE681AB0EE490AF0EE7F
:10434000690A02224FF4487104F108000BF0C6FF1D
:10435000B0EE481AF0EE681AB0EE490AF0EE690ABB
:1043600002224FF4487104F5CE6604F108000BF008
:10437000E9FF022730464FF448789FED23AB86EDE6
:10438000029B86ED068B84F88076C4F870860CF06C
:10439000EBFA04F5D563184683ED029B83ED068B9B
:1043A00084F8B876C4F8A8860CF0DEFAB0EE4A0AB3
:1043B000F0EE6A0A04F108000CF012F8DFF868E089
:1043C000184B84F8D055012641F288372A462946F1
:1043D00004F108008EED00AB84F8E066C4F8F075D7
:1043E000C4F8F4350BF0E2FF2670BDEC068BBDE897
:1043F000F08100BFAFF30080000000000000F03F3C
:1044000000000000000014400000000000C06F40E9
:10441000E00A0020808D5B002C2500207013002016
:1044200000150020084C01000000002010B5184CB9
:10443000184BC4F8E43604F108000AF0B7FE04F59E
:10444000DD6002F065FE144B002204F5CE6004F539
:10445000D561C0E90223C0E90623C0E90A23C0E907
:104460000C23C1E90223C1E90623C1E90A23C1E9FA
:104470000C2300230122C4F87026C4F8A82684F86F
:10448000803684F8903684F8B83684F8C83610BD83
:10449000E00A0020C0A8006D0000F03F10B5094CF4
:1044A0000948002107F052FF4FF4E131204604F0A3
:1044B00017F8204604F008F804480021BDE8104031
:1044C00007F044BFB01D0020808D5B00001BB700CB
:1044D000C0B170B504460C4803F0F0FF00B970BDE0
:1044E000204624F04DFA0028F9D0074E251801E0A7
:1044F000A542F4D014F8011B304604F009F8002856
:10450000F6D170BD704700BFB01D002070B5284CBB
:1045100094F8FC369EB004F10800E3B90BF074FF88
:1045200053EC102B04F10800CDE902230BF080FFBF
:1045300005AC8DED000BDDE9022320461D4924F07A
:104540000DF81D4803F0BAFF80B91B4803F0B6FF11
:1045500010BB1EB070BD0BF07FFF53EC102B04F1AD
:104560000800CDE902230BF08BFFE1E7204624F0A1
:1045700007FA0028E9D0104E251801E0AC42E4D03B
:1045800014F8011B304603F0C3FF0028F6D10A4897
:1045900003F094FF0028DCD00D21074803F0B8FF9A
:1045A0000028D6D00A21044803F0B2FF1EB070BD27
:1045B000E00A00205CF50200B01D002000000000B1
:1045C0002DE9F047DFF88CA32DED048B9AF800302D
:1045D000A4B08DED040B8DED061B8DED023B002B81
:1045E00000F05A81B0EE448AF0EE648A0022002383
:1045F00051EC140B59EC128B21F040FA002800F01A
:104600003B81B0EE480AF0EE680A9AF8FC360AF1EF
:1046100008063046002B00F09B800BF0E1FEC24BF9
:1046200083ED008B01238AF8E0369AF8FC36304699
:10463000002B40F0DA800BF0E7FE304655EC104BD3
:104640000BF0F6FE9AF8FD36012B8DED080B00F00D
:10465000DA8042464B462046294620F0D7FDDDE968
:10466000022306460F46DDE9080120F0CFFD424651
:104670004B4604460D464046494620F079FFDDE9A9
:104680000223804689461046194620F071FF0246F3
:104690000B464046494620F0B9FD41EC100B1EF098
:1046A00017F932463B46DDE90401B0EE409AF0EEE0
:1046B000609A20F0A9FD22462B46CDE90201DDE9F2
:1046C000060120F0A1FD9DED021B41EC100B1EF038
:1046D00097F80022002351EC100BB0EE408AF0EE68
:1046E000608A21F0B7F9002840F0BC809AF8FC36C7
:1046F0008E49002B63D147EC106B01200BF0FCFEC0
:1047000045EC104B8A49064601200BF0F5FEB0EE51
:10471000490AF0EE690A0446844901200BF0ECFED8
:10472000844A92F800211AB1834B93F80031ABB957
:10473000824803F0C3FE002840F085807F4803F0E4
:10474000BDFE002870D124B0BDEC048BBDE8F0871D
:104750000BF034FE744B83ED008B63E700250346BA
:10476000B0EE480AF0EE680A2246314600957448D9
:104770000BF0C6F9002840F0A7809AF85224D2B274
:10478000072A0BACCCBF6F496F49204623F0E6FEE9
:104790006A4803F093FE0028D0D0204624F0F0F8B9
:1047A0000028CBD0654E251801E0A542C6D014F8EC
:1047B000011B304603F0ACFE0028F6D1BEE747EC03
:1047C000106B02200BF098FE45EC104B0646584942
:1047D00002200BF091FEB0EE490AF0EE690A0446A1
:1047E000524902200BF088FE9AE70BF035FE304666
:1047F00055EC104B0BF044FE9AF8FD36012B8DED75
:10480000080B7FF426AFDDE9040122462B4620F099
:10481000FDFCDDE90823CDE90401DDE9060120F016
:10482000F5FCCDE9060114E70D21444803F070FEC4
:10483000002888D00A21414803F06AFE24B0BDEC6C
:10484000048BBDE8F087414C3C4D04F12E0614F872
:10485000011B284603F05CFE00283FF46FAFA64220
:10486000F5D16BE751EC180B2DA3D3E9002320F011
:10487000CDFC41EC180B39E79AF8E0360BB39AF807
:10488000FC36002B68D1284B0AF1080693ED000B8B
:1048900030460BF093FDC8E6284803F00FFE0028D1
:1048A0003FF44CAF2A4C254D04F14E0614F8011B81
:1048B000284603F02DFE00283FF440AFB442F5D166
:1048C0003CE70AF10806B0E61C4803F0F7FD80B9A2
:1048D0001A4803F0F3FDB8B99AF8FE36002B7FF4BE
:1048E00032AF9AF80030002B3FF42DAFFFF70EFEE9
:1048F00029E76F21114803F00BFE0028E8D06B2157
:104900000E4803F005FEE3E70D210C4803F000FE1E
:104910000028E1D00A21094803F0FAFDDCE700BFD6
:10492000182D4454FB211940000000205011002094
:10493000881100207013002000150020B01D0020F9
:10494000E80A0020BCF50200FCF5020044F6020073
:104950006CF50200E00A0020044B0AF1080693ED12
:10496000000B30460BF03CFD5FE600BF000000206E
:1049700070B5AD4C2DED068B23789AB0002B00F06E
:10498000E780B0EE40AAF0EE60AAB0EE419AF0EEF9
:10499000619A0022002351EC120BB0EE428AF0EE35
:1049A000628A21F06BF8002800F0C180B0EE480A5E
:1049B000F0EE680A94F8FC3604F10800002B3BD0B6
:1049C0000BF00EFD994B83ED008B012384F8E0364C
:1049D00094F8FD36012B00F08F80B0EE4A0AF0EE1D
:1049E0006A0A94F8FC369249002B55D101200BF04D
:1049F00083FDB0EE490AF0EE690A05468D490120B3
:104A00000BF07AFD2378002B55D08B4B93F80031B7
:104A10001BB18A4B93F80031A3B9894803F04EFDCE
:104A2000002840F0C080864803F048FD002855D19A
:104A30001AB0BDEC068B70BD0BF0C0FC7B4B83ED58
:104A4000008BC2E7024629467E480BF019FB00287E
:104A500040F0B88094F85224D2B2072A01ACCCBFFF
:104A600079497A49204623F079FD754803F026FDFF
:104A70000028D8D0204623F083FF0028D3D0704EE2
:104A8000251801E0A542CED014F8011B304603F0F2
:104A90003FFD0028F6D1C6E702200BF02DFDB0EE59
:104AA000490AF0EE690A0546624902200BF024FD2E
:104AB0002378002BA9D1624803F000FD0028B2D072
:104AC000634C5F4D04F14E0614F8011B284603F0B9
:104AD0001FFD0028A7D0B442F6D1A4E70D21584805
:104AE00003F016FD0028A3D00A21554803F010FD5D
:104AF0001AB0BDEC068B70BD94F8FC365148002B03
:104B00003BD10BF081FC51EC1A0B53EC102B20F035
:104B10007DFB41EC1A0B4B480BF08AFC51EC190B56
:104B200053EC102B20F072FB41EC190B55E794F875
:104B3000E036002B3FF44CAF94F8FC36002B55D1F7
:104B40003A4B04F1080093ED000B0BF037FC3FE704
:104B50003B4803F0B3FC00283FF465AF3C4C384DB4
:104B600004F14E0614F8011B284603F0D1FC00287E
:104B70003FF459AFB442F5D155E70BF06DFC51EC61
:104B80001A0B53EC102B20F041FB41EC1A0B2D4873
:104B90000BF076FC51EC190B53EC102B20F036FB8C
:104BA00041EC190B19E72B4C254D04F12E0614F896
:104BB000011B284603F0ACFC00283FF434AFA642AA
:104BC000F5D130E71E4803F079FC10BB1C4803F018
:104BD00075FC98B994F8FE36002B7FF429AF237842
:104BE000002B3FF425AFFFF791FC21E70F4B04F1B9
:104BF000080093ED000B0BF0F3FBE9E60D211048E4
:104C000003F086FC0028E5D00A210D4803F080FC63
:104C1000E0E76F210A4803F07BFC0028D6D06B2127
:104C2000074803F075FCD1E7E00A002000000020EF
:104C30005011002088110020701300200015002062
:104C4000B01D0020E80A0020BCF5020074F6020046
:104C50006CF5020044F602002DE9F04F0C4C2DEDEE
:104C6000048B2378E7B08DED0C0BABB9094803F04A
:104C700025FC002840F0F881064803F01FFC0028BE
:104C800040F0D68167B0BDEC048BBDE8F08F00BF6B
:104C9000E00A0020B01D002053EC102BB0EE418A3A
:104CA000F0EE618A8DED043BB0EE449AF0EE649A2A
:104CB0008DED022B8DED001B34A8C74959EC128BEA
:104CC00057EC136B23F04AFCC44803F0F7FB0028B1
:104CD00040F0D981C14803F0F1FB002840F0B881D1
:104CE0000022002351EC190B20F0C8FE002800F030
:104CF000EE8194F8FC36002B00F0DC81B0EE490A1E
:104D0000F0EE690AB64B199318460BF069FBB54BE8
:104D100083ED009B012384F8E036199D94F8FC365E
:104D20002846002B40F007820BF06EFB28468DEDE5
:104D3000100B0BF07DFB94F8FD36012B8DED120B63
:104D400000F0078242464B46DDE9100120F05EFA92
:104D50003246CDE90E013B46DDE9120120F056FA5C
:104D6000424682468B464B4640464946CDE914AB07
:104D700020F0FEFB3246804689463B4630463946A7
:104D800020F0F6FB02460B464046494620F03EFA2C
:104D900041EC100B41EC190B1DF09AFD4BEC17ABDD
:104DA0008DED087B9DED0E7B8DED067B9DED0C7BE7
:104DB0008DED027B9DED127B8DED0A0B8DED048B4D
:104DC0008DED007BDDE91023874934A823F0C6FB75
:104DD000824803F073FB002840F0FA817F4803F01B
:104DE0006DFB002840F0E881B0EE490AF0EE690A58
:104DF0001DF06EFDDDE90E23B0EE409AF0EE609AF4
:104E0000DDE90C0120F000FADDE91423CDE90C0105
:104E100051EC180B20F0F8F99DED0C1B41EC100B38
:104E20001DF0EEFC5BEC10AB0022002310EE100A2C
:104E3000594620F00FFE002840F0468200226B4BBE
:104E40005046594620F094FB61A3D3E9002320F09B
:104E5000B9FC5246CDE900015B46654934A823F010
:104E60007DFB5E4803F02AFB002840F083815B480D
:104E700003F024FB002840F0938194F8FC365D4950
:104E8000002B40F041819DED0E0B01200BF034FB17
:104E900059490C909DED140B01200BF02DFBB0EE49
:104EA000490AF0EE690A1790524901200BF024FBE1
:104EB0001890DDE90E23DDE9100120F0A5F9DDE908
:104EC0001423CDE90E01DDE9120120F09DF99DEDDD
:104ED0000E1B41EC100B1DF093FC57EC106B0022E5
:104EE000002310EE100A394620F0B4FD002840F0EF
:104EF000E18100223D4B3046394620F039FB34A396
:104F0000D3E9002320F05EFC3246CDE900013B46A8
:104F10003A4934A823F022FB304803F0CFFA0028A6
:104F200040F08D812D4803F0C9FA002840F07B81C4
:104F3000189B0093CDE904ABCDE90267179B0C9A4F
:104F40002F4934A823F00AFB244803F0B7FA0028BD
:104F500040F05481214803F0B1FA002840F08681E6
:104F60002378002B00F09181264B93F80031002B21
:104F700000F0B580244B93F80031002B00F0AF8097
:104F80000125189B179A0C99199800954BEC10ABBA
:104F90000AF0B6FD002840F0C18194F85224D2B244
:104FA000072A1BACCCBF19491949204623F0D6FA71
:104FB0000A4803F083FA00283FF45EAE204623F04F
:104FC000DFFC00283FF458AE24E000BFAFF30080C0
:104FD000182D4454FB210940BCF60200B01D0020EE
:104FE000E80A002000000020E4F60200008066408D
:104FF0002CF70200501100208811002050F7020009
:1050000074F702007013002000150020BCF50200A8
:10501000FCF50200BA4E251802E0A5423FF42CAE82
:1050200014F8011B304603F073FA0028F5D123E68B
:105030000D21B34803F06CFA00283FF423AE0A2197
:10504000AF4803F065FA67B0BDEC048BBDE8F08FA4
:105050000D21AB4803F05CFA00283FF441AE0A2171
:10506000A74803F055FA3BE6A64CA54D04F14E06C1
:1050700014F8011B284603F04BFA00283FF4FCAD5E
:10508000B442F5D1F8E534A823F07AFC00283FF4C7
:1050900021AE34ABDFF868A21D189B4602E05D45E7
:1050A0003FF418AE1BF8011B504603F031FA0028FC
:1050B000F5D10FE6944BB0EE490AF0EE690A1846B6
:1050C00019930BF07BF9914B83ED009B22E694F84A
:1050D000E036002B40F002818B4B19931DE6884887
:1050E00003F0ECF900283FF4C7AD894C844D04F17E
:1050F0002E0614F8011B284603F00AFA00283FF494
:10510000BBADA642F5D1B7E59DED0E0B02200BF02D
:10511000F3F980490C909DED140B02200BF0ECF993
:10512000B0EE490AF0EE690A17907B4902200BF0B5
:10513000E3F91890BDE60BF08FF928468DED100BC2
:105140000BF09EF994F8FD36012B8DED120B7FF4D8
:10515000F9ADDDE90C01DDE9102320F057F8DDE9B8
:105160001223CDE90C0151EC180B20F04FF841EC63
:10517000180BE7E534A823F003FC00283FF477AED2
:1051800034AB5F4E1D181F4602E0BD423FF46FAEC8
:1051900017F8011B304603F0BBF90028F5D166E68D
:1051A0000D21574803F0B4F900283FF466AE0A21F8
:1051B000534803F0ADF960E60D21514803F0A8F91A
:1051C00000283FF411AE0A214D4803F0A1F90BE687
:1051D00034A823F0D5FB00283FF400AE34AB484E92
:1051E0001D181F4602E0BD423FF4F8AD17F8011B41
:1051F000304603F08DF90028F5D1EFE534A823F00F
:10520000BFFB00283FF4A6AE34AF3D4E3D1802E090
:10521000BD423FF49FAE17F8011B304603F078F90A
:105220000028F5D196E60D21354803F071F90028E4
:105230003FF47EAE0A21324803F06AF978E634A8DA
:1052400023F09EFB00283FF46DAE34ABDFF8B08056
:105250001D18994602E0A9453FF464AE19F8011BF8
:10526000404603F055F90028F5D15BE60D212448AE
:1052700003F04EF900283FF473AE0A21204803F0F2
:1052800047F92378002B7FF46FAE1D4803F016F921
:1052900000283FF4F1AC1B4C194D04F14E0614F8F4
:1052A000011B284603F034F900283FF4E5ACA64280
:1052B000F5D1E1E4304639460FA3D3E900231FF0CE
:1052C000A5FF06460F4614E6504659460AA3D3E901
:1052D00000231FF09BFF82468B46AFE594F8FC3617
:1052E00083BB094A094B199293ED000B10460BF052
:1052F00065F812E5AFF30080182D4454FB211940E6
:10530000B01D00206CF50200E80A0020000000201B
:1053100044F602008811002050110020194803F0C3
:10532000CDF818BB174803F0C9F8A0B994F8FE36B9
:10533000002B7FF4A7AC2378002B3FF4A3ACFFF73E
:10534000E5F89FE4104A114B199293ED000B1046BB
:105350000BF046F8E1E40D210A4803F0D9F80028E3
:10536000E4D00A21074803F0D3F8DFE76F210548AE
:1053700003F0CEF80028D5D06B21024803F0C8F81E
:10538000D0E700BFB01D0020E80A00200000002088
:105390002DE9F04F2DED048B0178B34FDFB00022E3
:1053A0000023002647290546CDE91223CDE9142321
:1053B000CDE91623CDE91823CDE91A23CDE91C67E1
:1053C00019D04D2917D0A94803F078F8002840F0EB
:1053D000D480A64803F072F840B10D21A34803F031
:1053E00097F818B10A21A14803F092F85FB0BDEC1C
:1053F000048BBDE8F08F0FAA00249D490F94284626
:1054000023F0D2F82A78002AF0D0DFF8A0A2A14633
:10541000A04627462646AB4602F0DF02582A40D077
:10542000592A49D0492A52D04A2A5CD0522A66D0F9
:10543000462A00F097801BF8012F002AECD12B7828
:10544000472B67D04D2BD1D10F9BC92B00F02C825D
:1054500000F3E080732B00F0EC8140F35F81742B4C
:1054600000F00F83C82B40F0CB82824B1B78002BBF
:1054700000F0688480480AF027F87C4803F01EF8A2
:105480000028A6D07D4C794E04F11E0501E0A5420E
:105490009FD014F8011B304603F03AF80028F6D1EB
:1054A00097E712AA5846764923F07EF81BF8012F99
:1054B0000126002AB0D1C2E714AA5846714923F048
:1054C00073F81BF8012F0127002AA5D1B7E716AA08
:1054D00058466D4923F068F81BF8012F4FF001087A
:1054E000002A99D1ABE718AA5846514623F05CF838
:1054F0001BF8012F4FF00109002A8DD19FE71AAA4E
:105500005846624923F050F81BF8012F0124002A65
:1055100082D194E70F9B142B00F009823CDC012B15
:1055200000F0F88140F3E180022B00F0DB81032BD7
:1055300040F0F082002E00F05183002F00F04E83E7
:10554000B8F1000F41F04682B9F1000F01F0D282AC
:10555000002C01F046824E48FEF7BAFF4D48FEF798
:10556000B7FF43E71CAA58464B4923F01DF81BF828
:10557000012F002A7FF450AF61E7484C3B4D04F106
:10558000160614F8011B284602F0C2FF00283FF45B
:1055900020AFA642F5D11CE75A2B00F0E18140F381
:1055A00087805B2B00F0DC825C2B40F0B382314CB7
:1055B0002378002B00F04083002E41F00280002F62
:1055C00001F0628294F8FC36002B41F06C81D4F833
:1055D000E055334901209DED140B0AF08DFF024682
:1055E000254829460AF0E2FE204802F067FF00281D
:1055F0003FF4EFAE2B4C1D4E04F11C0502E0A5421A
:105600003FF4E7AE14F8011B304602F081FF00289A
:10561000F5D1DEE6CB2B00F0BD82C0F2BB80B3F546
:10562000FA7F00F0138240F2F512934240F0E881D5
:10563000104C0E482378002B40F0148502F03EFFFA
:1056400000283FF4C6AE184C084E04F11D0502E0D8
:10565000A5423FF4BEAE14F8011B304602F058FFDD
:105660000028F5D1B5E600BF0000F0BFB01D002056
:10567000CCF70200E00A0020E80A0020A8F90200A6
:10568000D8F70200E0F70200E8F70200F8F702009E
:1056900088F8020040F8020000F80200D0FC020086
:1056A0008811002044F9020024F90200F0F70200FA
:1056B000152B40F02F82BC4BBC48012283F8FC26FE
:1056C00002F0FCFE00283FF484AEB94CB74E04F162
:1056D000120502E0A5423FF47CAE14F8011B3046EF
:1056E00002F016FF0028F5D173E6002B40F012827D
:1056F000AE4802F0E3FE00283FF46BAEAD4CAB4E7B
:1057000004F11C0502E0A5423FF463AE14F8011B4E
:10571000304602F0FDFE0028F5D15AE6722B40F02B
:105720006F81A14B1A78002A00F0868293F8FC362C
:10573000A148002B40F03A870AF066FE53EC102B8C
:105740009D48CDE908230AF073FE2CAB18460C9354
:105750008DED000BDDE90823984922F0FFFE934808
:1057600002F0ACFE00283FF434AE0C9C204623F03F
:1057700007F900283FF42DAE8C4E251802E0A54213
:105780003FF427AE14F8011B304602F0C1FE00289A
:10579000F5D11EE601218A48834C01F009FF012161
:1057A000884801F005FF2578002D40F06482864886
:1057B000002106F0CBFD834A814904F1080009F07D
:1057C00057FE002800F02B872046012300F8083BF5
:1057D0009FED711B02229FED720B4FF448710AF08E
:1057E0007DFD9FED6D1B02224FF448719FED6C0B08
:1057F00004F108000AF0A6FD744B04F1080093EDD3
:10580000000B0AF0EDFD41F28836714BC4F8F43517
:1058100004F108002A46294684F8D055C4F8F065FA
:105820000AF0C4FD6B48FEF753FE6B48FEF750FECE
:10583000DCE55D4C2378002B00F0348294F8FCE624
:1058400094F8FD666548664F6649674D94F8BE2535
:1058500094F85234BEF1000F08BF3846002E08BF3E
:1058600029462CAC8DE80300204660490C9422F0B8
:1058700075FE4E4802F022FE00283FF4AAAD0C9CB3
:10588000204623F07DF800283FF4A3AD474E2518AD
:1058900002E0A5423FF49DAD14F8011B304602F032
:1058A00037FE0028F5D194E53F480378002B00F03F
:1058B0000E82083009F068FE3C4802F0FFFD002827
:1058C0003FF487AD4A4C394E04F1260502E0A5426B
:1058D0003FF47FAD14F8011B304602F019FE00289A
:1058E000F5D176E5002E00F09081002F00F08D813B
:1058F000B8F1000F41F03C80B9F1000F01F0FA81DE
:10590000002C01F03C803B48FEF7E2FD3248FEF7F8
:10591000DFFD6BE516B9002F00F0BD879DED1C2B58
:105920009DED141B9DED120BFFF722F85EE51E4B5B
:105930001E4883F8FC2602F0C1FD00283FF449AD63
:105940002D4C1A4E04F10D0502E0A5423FF441AD85
:1059500014F8011B304602F0DBFD0028F5D138E5D4
:10596000114B124883F8FD2602F0A8FD00283FF4F1
:1059700030AD224C0D4E04F1150502E0A5423FF476
:1059800028AD14F8011B304602F0C2FD0028F5D105
:105990001FE500BFAFF30080000000000000F03FF3
:1059A0000000000000001440E00A0020B01D0020AC
:1059B000DCF8020008F80200E80A00205CF50200AA
:1059C0007013002000150020001BB700000000200D
:1059D000084C0100F0F9020040F80200C0F7020094
:1059E000B8F70200C8F70200C4F7020078FA020014
:1059F000C8F9020044F80200CCF80200F0F80200F6
:105A0000B84802F05BFD002840F0A2850F9AB64925
:105A10002CA822F0A3FDB34802F050FD00283FF46B
:105A2000D8AC2CA822F0ACFF00283FF4D2AC2CACB0
:105A3000AC4E251802E0A5423FF4CBAC14F8011B94
:105A4000304602F065FD0028F5D1C2E4A74CA54818
:105A50002378002B40F08D8102F030FD00283FF4C8
:105A6000B8ACA34C9F4E04F11D0502E0A5423FF4E3
:105A7000B0AC14F8011B304602F04AFD0028F5D105
:105A8000A7E49A4C2378002B00F0DE801FAB11AA0C
:105A900010A904F108000AF007FD94F8FC36054649
:105AA000002B40F0B08504F108000AF0ADFC04F1D1
:105AB0000800B0EE408AF0EE608A0AF0B9FC119A54
:105AC0001F9902922CAA10460C920691109B8949AC
:105AD0008DED008B8DED040B2A4622F03FFD8148B1
:105AE00002F0ECFC00283FF474AC0C9C204622F041
:105AF00047FF00283FF46DAC7A4E251802E0A5421E
:105B00003FF467AC14F8011B304602F001FD002899
:105B1000F5D15EE4734802F0D1FC002840F02985FD
:105B20000F9A71492CA822F019FD6E4802F0C6FCAC
:105B300000283FF44EAC2CA822F022FF00283FF4AE
:105B400048AC2CAC674E251802E0AC423FF441ACA7
:105B500014F8011B304602F0DBFC0028F5D138E4D4
:105B6000624B6048012283F8FD2602F0A7FC002862
:105B70003FF42FAC604C5B4E04F1180502E0A542E7
:105B80003FF427AC14F8011B304602F0C1FC00289A
:105B9000F5D11EE455480378002B40F025850021FF
:105BA000564801F005FD5648002101F001FD4D4821
:105BB00002F084FC00283FF40CAC524C494D04F137
:105BC0000F0602E0A6423FF404AC14F8011B28467D
:105BD00002F09EFC0028F5D1FFF7FBBB414802F024
:105BE0006DFC00283FF4F5AB474C3E4E04F1260512
:105BF00002E0A5423FF4EDAB14F8011B304602F081
:105C000087FC0028F5D1FFF7E4BB364802F056FCCC
:105C100000283FF4DEAB3D4C324E04F1260502E095
:105C2000A5423FF4D6AB14F8011B304602F070FCDD
:105C30000028F5D1FFF7CDBB2D48FEF749FC3448CD
:105C4000FEF746FCFFF7D2BB264802F037FC0028DF
:105C50003FF4BFAB264C234E04F11D0502E0A542E4
:105C60003FF4B7AB14F8011B304602F051FC00289A
:105C7000F5D1FFF7AEBB1B4802F020FC00283FF433
:105C8000A8AB244C174E04F10E0502E0A5423FF4E8
:105C9000A0AB14F8011B304602F03AFC0028F5D105
:105CA000FFF797BB94F8FC5694F8FD661A481B4C16
:105CB0001B4B1C4A1C492CAF002D08BF0246002E6E
:105CC00008BF234638460C9722F048FCD1E505482A
:105CD00002F0F4FB00283FF47CAB054C014E04F1CC
:105CE0001D0526E0B01D002090F90200E00A00200A
:105CF00024F90200E4FA020008F9020070130020FF
:105D00000015002068FA0200A4F8020060F8020002
:105D100040F8020058FA0200B8F70200C4F7020087
:105D2000C8F70200C0F70200B0FA0200A5423FF433
:105D300050AB14F8011B304602F0EAFB0028F5D105
:105D4000FFF747BBBC4802F0B9FB00283FF441AB6A
:105D5000BA4CB94E04F11D0502E0A5423FF439AB3F
:105D600014F8011B304602F0D3FB0028F5D1FFF7F1
:105D700030BB02F0A3FB002840F06B85AE4802F078
:105D80009DFB002840F058850121AD4801F010FC32
:105D9000AC48012101F00CFCA74802F08FFB002861
:105DA00040F03985A44802F089FB002840F02685A0
:105DB000A548002106F0CAFADDE91C89002200236B
:105DC000404649461FF05AFE002800F04B8694F8E2
:105DD000FC36002B40F0658449EC108B9B480AF0A0
:105DE000EDFA9B4BC3E900892CA8012542464B469E
:105DF000984984F8E05622F0B1FB8F4802F05EFB30
:105E0000002840F0D4848C4802F058FB002840F071
:105E1000C18400228D4811460AF0C8FA864802F073
:105E20004DFB002840F07B84834802F047FB0028AC
:105E300040F068848848002106F088FA01237E48F3
:105E400084F8FE3602F03AFB002840F04A847A4893
:105E500002F034FB002840F037849FED693B9FED52
:105E60006A4BB0EE431AF0EE631A9FED692B9FED7B
:105E70006A0BFEF7F1FE94F8FC36002B40F0B98374
:105E800042464B4666A1D1E900011FF09BFC00226F
:105E9000724B714E1FF06CFB0022714B1FF068FBC0
:105EA00061A3D3E900231FF0B1F91FF039FEB0F56B
:105EB000FA6F38BF4FF4FA60824606F01DFA0027E9
:105EC000054606E006F042FA06F016FA401B504579
:105ED00009D894F8523430463946002BF2D194F860
:105EE000BE35002BEED1544802F0E8FA002840F00D
:105EF0007484514802F0E2FA002840F09885237833
:105F0000002B40F0A1854C4802F0D8FA002840F060
:105F10007D85494802F0D2FA002840F06A859FED5D
:105F2000383B9FED394BB0EE431AF0EE631AB0EEFA
:105F3000430AF0EE630A9FED3E2BFEF78DFE94F8C8
:105F4000FC36002B40F0A38342464B4634A1D1E9F6
:105F500000011FF037FC0022404B3F4E1FF008FBB2
:105F600000223F4B1FF004FB2FA3D3E900231FF0B7
:105F70004DF91FF0D5FDB0F5FA6F38BF4FF4FA6058
:105F8000804606F0B9F90027054606E006F0DEF97E
:105F900006F0B2F9401B804509D394F852343046DC
:105FA0003946002BF2D194F8BE35002BEED12248B1
:105FB00002F084FA002840F09F841F4802F07EFA25
:105FC000002840F08C842378002B40F0418500238A
:105FD000194884F8FE3602F071FA002840F06E8409
:105FE000154802F06BFA002840F0D4822378002B89
:105FF0003FF4FCA9FEF78AFAFFF7F8B9AFF3008087
:106000000000000000000000000000000000F0BFE1
:1060100000000000000000400000000000001040F0
:10602000182D4454FB211940000000000070A740C7
:1060300000000000000000C0B01D002024F9020094
:106040007013002000150020001BB700E80A002094
:106050000000002048FB0200808D5B0000004E40E5
:1060600000408F4002F02AFA002840F00384D44810
:1060700002F024FA002840F06E840121D14801F09A
:1060800097FAD148012101F093FACD4802F016FAAF
:10609000002840F04F84CA4802F010FA002840F06F
:1060A0003C84CA48002106F051F906F025F9C84B96
:1060B000002800F0E782984698609DED1C7B002246
:1060C000002351EC170B8DED0A7B1FF0D7FC002845
:1060D00000F0C28494F8FC36002B40F0C082DDE969
:1060E0000A56BC4B0D93184646EC105B0AF066F955
:1060F0004346C3E900561FA80125DDE90A23B64936
:1061000084F8E05622F02AFAAD4802F0D7F90028C8
:1061100040F04A84AA4802F0D1F9002840F03784C0
:10612000012384F8FE362CAA0023A54D0C929A4632
:10613000C346DBF80860A94AA94B43F2390702FBC2
:106140000676C6F30E42A3FB02135B0803EB430380
:10615000D31A012BCBF8086000F0D581022B9F4B9E
:1061600003FB067640F0AD81DFF89882C6F30E405F
:10617000A8FB00235B0B42F2107909FB13001FF010
:1061800081F90022974B1FF0F3F985A3D3E900238F
:106190001FF018FB0022944B1FF036F88F4B03FBC7
:1061A0000676CDE90801C6F30E40A8FB00235B0B81
:1061B000CBF8086009FB13001FF064F90022894B3B
:1061C0001FF0D6F976A3D3E900231FF0FBFA0022D3
:1061D000854B1FF019F89DED087B06460F460AF126
:1061E000010ACDE902678DED007B52460A237F4903
:1061F0000C9822F0B3F9284602F060F9002840F02C
:106200004981284602F05AF9002840F03781DDE93B
:1062100008899FED652B49EC108B47EC116BFEF75D
:10622000A7FB42464B46404649461FF0A1F932467D
:10623000804689463B46304639461FF099F90B4661
:106240000246494640461EF0E1FF41EC100B1CF0AF
:106250003FFB94F8FC36002B40F00081DDE90A2377
:1062600051EC100B1FF0AEFA0022614B614E1FF093
:106270007FF90022604B1FF07BF94DA3D3E9002387
:106280001EF0C4FF1FF04CFCB0F5FA6F38BF4FF49E
:10629000FA60814606F030F80027804607E006F0F5
:1062A00055F806F029F8A0EB0800484509D894F8FD
:1062B000523430463946002BF1D194F8BE35002BCC
:1062C000EDD14248002106F041F8BAF10A0F7FF4FF
:1062D00030AF4A48FEF7FCF84948FEF7F9F80D9D43
:1062E00094F8FC362846002B40F0AB810AF08CF87D
:1062F0002846B0EE409AF0EE609A0AF099F8B0EEB7
:10630000408AF0EE608A53EC192B19EE100A1946F8
:106310001FF02EF953EC182B06460F4618EE100A04
:1063200019461FF025F90B460246394630461EF045
:106330006DFF41EC100B1CF0CBFA9FED1F1B57ECCF
:10634000106BB0EE410AF0EE610A9FED172BFEF7DD
:106350000FFB94F8FC36002B40F06981DDE90A233D
:10636000304639461FF02EFA0022214B214E1FF0F5
:10637000FFF80022204B1FF0FBF80DA3D3E9002308
:106380001EF044FF1FF0CCFBB0F5FA6F38BF4FF49E
:10639000FA60804605F0B0FF002705463BE000BFED
:1063A000000000000088C340000000000000F0BFB3
:1063B000000000000070A740000000000000000086
:1063C000B01D00207013002000150020001BB70036
:1063D00000000020E80A002048FB02006D4EC64184
:1063E000ABAAAAAA000034400000244054FC0200DA
:1063F00000004E40808D5B0000408F4070FC02002A
:1064000040F802005917B7D105F0A0FF05F074FF5E
:10641000401B404509D894F8523430463946002B89
:10642000F2D194F8BE35002BEED10023CA4884F88F
:10643000FE3602F043F800283FF4D2ADC74DC64FF8
:1064400005F12B0602E0AE423FF4CAAD15F8011B80
:10645000384602F05DF80028F5D1C1E5B8A3D3E9CC
:106460000023DDE90A018DED080B1FF081F89DED99
:10647000080B02460B4651EC100BF3E60D212846A3
:1064800002F046F800283FF4C2AE0A21284602F086
:106490003FF8BCE6DDF83080404622F071FA002873
:1064A0003FF4AFAE42469146804402E0C8453FF417
:1064B000A8AE19F8011B284602F02AF80028F5D1E9
:1064C0009FE6A74BCBF80860C6F30E46A3FB062356
:1064D0005B0B42F2107000FB13601EF0D3FF002232
:1064E000A04B1FF045F898A3D3E900231FF06AF9E9
:1064F00000229D4B1EF088FE0026CDE908010027F2
:1065000041EC170B6BE6994B03FB0676944BCBF8EB
:106510000860C6F30E46A3FB06235B0B42F2107025
:1065200000FB13601EF0AEFF00228E4B1FF020F820
:1065300085A3D3E900231FF045F900228A4B1EF002
:1065400063FE9FED837B06460F468DED087B46E696
:10655000874C814D04F1110602E0A6423FF456AA91
:1065600014F8011B284601F0D3FF0028F5D1FFF7EE
:106570004DBA804C784E04F1110502E0AC423FF474
:10658000CFAA14F8011B304601F0C2FF0028F5D154
:10659000FFF7C6BA0D21704801F0BAFF00283FF49A
:1065A00025AD0A216C4801F0B3FF1FE509F054FF47
:1065B00053EC102B7048CDE9082309F061FFFFF779
:1065C000C4B894F8FC36002B00F052826B490220CC
:1065D0009DED120B09F090FF0546002F40F06581FC
:1065E000D4F8E425FEF7FCBF083008F06DFFFFF794
:1065F000D6BA53A3D3E90023404649461EF0B8FF5C
:1066000002460B463EE45C4809F026FF5A48B0EECD
:10661000408AF0EE608A09F033FFFFF750BA58481D
:10662000FDF756FF5748FDF753FFFEF7DFBE44A3C3
:10663000D3E90023DDE90A011EF09AFF02460B466A
:106640008EE609F009FF2846B0EE409AF0EE609A17
:1066500009F016FFB0EE408AF0EE608A53E638A3E8
:10666000D3E90023DDE90A011EF082FF424B0D93BE
:1066700006460F4647EC106B184609F0B1FEC8E914
:10668000006738E51A4698460123936015E52CA368
:10669000D3E90023404649461EF06AFF02460B46F6
:1066A00054E427A3D3E90023404649461EF060FF87
:1066B00006460F4647EC106B2F4809F091FE324B0F
:1066C000C3E90067FFF790BB0D21234801F020FFCD
:1066D00000283FF4C2AB0A211F4801F019FFFFF761
:1066E000BCBB2A4D1C4F05F1290602E0AE423FF427
:1066F000AEAB15F8011B384601F00AFF0028F5D1B2
:10670000FFF7A5BB0D21144801F002FF00283FF45C
:1067100091AB0A21104801F0FBFEFFF78BBB1C4D2B
:106720000D4F05F1160602E0AE423FF47DAB15F8C1
:10673000011B384601F0ECFE0028F5D1FFF774BBD1
:106740006666666666663940000000000088C340E1
:106750000000000000000000B01D002090FC0200BE
:106760005917B7D100003440000024406D4EC64197
:10677000BCFC020094F90200E80A0020501100203D
:1067800010FA020040F80200000000207CFB02002A
:1067900064FB02000D21C64801F0BAFE00283FF458
:1067A00038AB0A21C24801F0B3FEFFF732BB2CA878
:1067B00022F0E6F800283FF426AB2CADBC4F2E1893
:1067C00002E0AE423FF41FAB15F8011B384601F062
:1067D0009FFE0028F5D1FFF716BBB64DB44F05F16B
:1067E0001B0602E0B5423FF484AB15F8011B3846A6
:1067F00001F08EFE0028F5D1FFF77BBB0D21AC48E0
:1068000001F086FE00283FF4D3AA0A21A84801F02F
:106810007FFEFFF7CDBAA84DA54F05F10E0602E0A9
:10682000AE423FF4BFAA15F8011B384601F070FED6
:106830000028F5D1FFF7B6BA0D219D4801F068FE9A
:1068400000283FF4A1AA0A21994801F061FEFFF750
:106850009BBA9A4D964F05F1230602E0AE423FF4F3
:106860008DAA15F8011B384601F052FE0028F5D11B
:10687000FFF784BA924D8E4F05F1250602E0AE4235
:106880003FF4F5AB15F8011B384601F041FE002836
:10689000F5D1FFF7ECBB8B48FDF71AFE8A48FDF7F0
:1068A00017FEFEF7A3BDD4F8E055884902209DED00
:1068B000140B09F021FE0246FEF792BE844D7C4F78
:1068C00005F11F0602E0B5423FF48AAB15F8011B43
:1068D000384601F01DFE0028F5D1FFF781BB0D21E0
:1068E000734801F015FE00283FF46DAB0A21704893
:1068F00001F00EFEFFF767BB764D6D4F05F11B06ED
:1069000002E0AE423FF459AB15F8011B384601F0E6
:10691000FFFD0028F5D1FFF750BB0D21644801F0C1
:10692000F7FD00283FF4BDAB0A21614801F0F0FDFE
:10693000FFF7B7BB604D5E4F05F10E0602E0B542B2
:106940003FF4A9AB15F8011B384601F0E1FD002822
:10695000F5D1FFF7A0BB0D21554801F0D9FD002866
:106960003FF48BAB0A21524801F0D2FDFFF785BB03
:10697000002C7EF4C8AFB9F1000F40F0CC8256482D
:10698000FDF7A6FD5048FDF7A3FDFEF72FBD0D2135
:10699000474801F0BDFD00283FF4C2AB0A2144483E
:1069A00001F0B6FDFFF7BCBB1FA821F0E9FF0028EE
:1069B0003FF4B0AB1FAD3E4F2E1802E0AE423FF4A5
:1069C000A9AB15F8011B384601F0A2FD0028F5D14E
:1069D000FFF7A0BB002C7EF4BEADB9F1000F40F074
:1069E0008C823E48FDF774FD3748FDF771FDFEF7D8
:1069F000FDBC0D212E4801F08BFD00283FF48FAA2D
:106A00000A212B4801F084FDFFF789BA344D284F45
:106A100005F12B0602E0B5423FF47BAA15F8011BF5
:106A2000384601F075FD0028F5D1FFF772BA0D2147
:106A30001F4801F06DFD00283FF461AA0A211C489F
:106A400001F066FDFFF75BBAFDF760FDFFF75BBA8B
:106A5000FDF75CFDFFF7BBBA9FED137B8DED0A7B65
:106A6000FFF738BB4FF00008DFF88490FFF7AFB9AD
:106A70001C4901209DED120B09F03EFD0546002F3B
:106A80003FF4AEADFEF7A5BD3A463946164809F0CB
:106A90008DFC1648FDF71CFD0B48FDF719FDFEF7B0
:106AA000A5BC00BFAFF30080000000000000244040
:106AB000B01D0020A8FB020058FA020024FB0200CF
:106AC0002CFC020028F8020040F802008811002087
:106AD0000CFC0200F0FB020060F80200A4F80200C7
:106AE000C4FB020050110020E80A002064F90200F3
:106AF00000002440002C3FF474AF7B4C94F8FC362B
:106B0000002B40F0E48004F1080318460D9309F0CF
:106B10007BFC5BEC10AB94F8FC360D98002B40F03E
:106B2000D18009F085FC57EC106B94F8FD36002BF2
:106B300000F0C380DDE91223504659461EF066FB83
:106B4000DDE9142304460D46304639461EF05EFB4F
:106B50008046894652465B46204629461EF054FB35
:106B600032463B4604460D46404649461EF04CFB25
:106B7000002206460F460023204629461EF060FFED
:106B800040B100220023304639461EF059FF00284C
:106B900040F0A38147EC116BDDE91AAB45EC104BDB
:106BA0001BF030FE0022514BB0EE408AF0EE608ABE
:106BB000504659461EF0DCFC52465B461EF0D8FC9F
:106BC0002246804689462B46204629461EF0D0FCA8
:106BD00002460B46404649461EF016FB32468046AA
:106BE00089463B46304639461EF0C2FC02460B46FB
:106BF000404649461EF008FB39A3D3E900238046EE
:106C000089461EF027FF002840F0678100220023FC
:106C1000404649461EF01EFF18B14FF000084FF0E5
:106C2000000949EC108B1BF053FE53EC102B10EEB7
:106C3000100A03F1004153EC182B1EF0C3FD002293
:106C4000804689460023504659461EF003FF10B97E
:106C500009F10043994642464B46204629461EF01C
:106C600087FC32463B461EF0D1FA0022204B1EF034
:106C70007FFC4246CDE908014B46304639461EF0BE
:106C800077FC02460B46204629461EF0BDFA00223C
:106C9000174B1EF06DFC9DED1C8B9DED083BB0EE7F
:106CA000484AF0EE684A41EC120B9DED141B9DED35
:106CB000120BFDF785FCFEF799BBDDE91245DDE916
:106CC000148947E709F0DCFB57EC106B2DE704F162
:106CD000080318460D9309F0BFFB5BEC10AB1AE7F5
:106CE000FCA9F1D24D6250BFE00A00200000104024
:106CF0000000E03F002C3FF442AE934C94F8FC3689
:106D0000002B40F0E18004F1080318460D9309F0D0
:106D10007BFB5BEC10AB94F8FC360D98002B40F03D
:106D2000CE8009F085FB57EC106B94F8FD36002BF4
:106D300000F0C080DDE91223504659461EF066FA85
:106D4000DDE9142304460D46304639461EF05EFA4E
:106D50008046894652465B46204629461EF054FA34
:106D600032463B4604460D46404649461EF04CFA24
:106D7000002206460F460023204629461EF060FEEC
:106D800040B100220023304639461EF059FE00284B
:106D900040F0AB8047EC116BDDE91AAB45EC104BD2
:106DA0001BF030FD0022694BB0EE408AF0EE608AA5
:106DB000504659461EF0DCFB52465B461EF0D8FB9F
:106DC0002246804689462B46204629461EF0D0FBA7
:106DD00002460B46404649461EF016FA32468046A9
:106DE00089463B46304639461EF0C2FB02460B46FA
:106DF000404649461EF008FA51A3D3E900238046D5
:106E000089461EF027FE00286FD10022002340464D
:106E100049461EF01FFE18B14FF000084FF0000960
:106E200049EC108B1BF054FD53EC102B10EE100AA4
:106E300003F1004153EC182B1EF0C4FC00228046E5
:106E400089460023504659461EF004FE002870D1A2
:106E500042464B46204629461EF08AFB32463B46B8
:106E60001EF0D4F900223A4B1EF082FB4246CDE9D7
:106E700008014B46304639461EF07AFB02460B4667
:106E8000204629461EF0C0F90022314B1EF070FB4F
:106E90009DED1C8B9DED083BB0EE484AF0EE684A34
:106EA00041EC120B9DED141B9DED120BFDF7D4FE72
:106EB000FEF79CBADDE91245DDE914894AE709F0DD
:106EC000DFFA57EC106B30E704F1080318460D9316
:106ED00009F0C2FA5BEC10AB1DE71E48FDF7F8FAAB
:106EE0001D48FDF7F5FAFEF781BA1C48FDF7F0FAE8
:106EF0001948FDF7EDFAFEF779BA9DED1C4B9DEDB3
:106F0000183B9DED162B9DED141B9DED120BFDF70F
:106F100057FBFEF76BBA9DED1C4B9DED183B9DEDAD
:106F2000162B9DED141B9DED120BFDF795FEFEF744
:106F30005DBA09F1004399468AE700BFAFF30080CC
:106F4000FCA9F1D24D6250BFE00A002000001040C1
:106F50000000E03F18FD020040F80200E8FC0200DB
:106F60002DE9F0433F48C1B0002105F0EFF9FDF7EE
:106F7000B3F9FDF793FA3C48002105F0E7F93B48E7
:106F800001F09CFA00285CD1394DDFF8E080DFF891
:106F9000F490384E00270FE00D2814D0B5F8F436E1
:106FA000FE2B25DCEA18013382F80007A5F8F43639
:106FB0003046394605F0CAF9404601F09DFA431CB7
:106FC000F6D00A28E8D1B5F8F436002BF0D02B44DF
:106FD000002483F8004795F800379BB94FF480727E
:106FE0000021484621F01AF80023A5F8F436DFE71F
:106FF000002319464FF480724846A5F8F43621F074
:107000000DF8D5E7FF224946684621F079FD68462C
:107010008DF8FF4021F0B4FC0CE01DF80320A2F134
:107020006101192905D8203A68460DF8032021F09E
:10703000A7FC0134A3B29842EFD86846FEF7A8F93E
:10704000CCE70D480A4DFDF743FA0C48FDF740FA2E
:107050002B78002B99D10A48FDF73AFA0748FDF73B
:1070600037FA92E70087930300366E01B01D0020C7
:10707000E00A0020C0D4010048FD020040F80200F0
:1070800068FD0200E0110020406820B14B68C01A82
:10709000B0FA80F040097047F8B5436833B11E6814
:1070A00026B11AB111B11B7A042B02D0002420465C
:1070B000F8BDB6F86440944228BF14460546A2B213
:1070C0003046012312F004FE0028EFD16B681868E7
:1070D00013F018F90028E9D105F00EF96B681B6868
:1070E000B3F86630032B0646E1DD084F08E0386848
:1070F00005F05EFF6B681B68B3F86630032BD6DDC6
:1071000005F0FAF8801B0428F1D9D0E720250020EB
:10711000044A02604FF4FA610022018142608272E7
:10712000704700BFACFD02000020704790F91800C6
:10713000704700BF062070470120704790F8140187
:10714000704700BF8079704738B583798B4200F073
:10715000A780A1F109030D460446032B00F2A2808B
:10716000DFE803F07A464602303007F07BF872B66B
:10717000D4F8B40003680022A4F810213BB1D4F87D
:10718000C410D4F8C0200B681340FCD10360D4F8BD
:10719000BC0003680022A4F812213BB1D4F8CC1043
:1071A000D4F8C8200B681340FCD10360D4F8A410B5
:1071B0003D4A91F90130897802EBC3130B440C204E
:1071C00093F8401041F0010183F84010D4F8A81062
:1071D00091F90130897802EBC3130B4493F84020F6
:1071E00042F0010283F84020A07162B6012038BD50
:1071F000303007F037F872B6D4F8BC0003680022CC
:10720000A4F812213BB1D4F8CC10D4F8C8200B68F4
:107210001340FCD10360D4F8A410234A91F9013043
:10722000897802EBC3130B4493F840106FF300010D
:1072300083F84010D4F8A81091F90130897802EB56
:10724000C3130B4493F8402042F0010283F840201E
:10725000A57162B6012038BD303007F003F8D4F8CC
:10726000A410114A91F90130897802EBC3130B4441
:10727000092593F840106FF3000183F84010D4F80B
:10728000A81091F90130897802EBC3130B44012057
:1072900093F840206FF3000283F84020A57138BDB9
:1072A000012038BD002038BD0080004183790A2BC1
:1072B0000FD090F83D30A3B1D0F8A430D0F8B02072
:1072C00093F90130DB0103F1824303F500435A6176
:1072D000704790F8FC309B07EBD590F83D30002BC1
:1072E000EAD0D0F8A430D0F8B02093F90130DB0117
:1072F00003F1824303F500439A617047A0F1300027
:10730000D4E700BF2DE9F047089FBDF82490BDF8F1
:107310002880044616468A463A4600211D460DF04E
:10732000CDFA04F1300006F06BFF6A4BC4F8A0A060
:1073300003F13C02C4F8A460C4F8AC702360C4F844
:10734000A8502263B2786449DFF898A1634F012303
:1073500003FA02F2C4F8B020AA7884F8D69003FAAF
:1073600002F24FF0020C4FF07D0E0020C4F8B8205E
:1073700084F8D7800022A4F8E2C04FF019084FF635
:10738000FF7CA4F8F8E04FF003094FF0FF3E84F8CB
:10739000D820A4F8DA20A4F8DC20A4F8DE20A4F891
:1073A000E02084F8E42084F8F52084F8F620A4F89E
:1073B000FC2084F8002184F80121C4F8F0A084F8AE
:1073C000F490A4F8D0C0A4F8D2C0A4F8D4C0C4F8F3
:1073D000E880C4F8ECE0C4F80421C4E94C01C4E935
:1073E0005001C4E95401C4E95601C4F80821C4F8A5
:1073F000102184F8142184F81521C4F81821C4F848
:107400001C21C4F8202184F8382184F8482184F80C
:107410006021C4F86421C4F86821C4F86C21C4F860
:107420007021C4F87421C4F87821C4F87C2184F850
:10743000882184F8892184F88A21C4F88C21C4F831
:107440000C81C4F82831C4F880E1C4F884E1637683
:10745000337B042B98BF224A57F82300767B98BFD2
:10746000D25CB6FBF2F102FB11624FF48073D2B230
:1074700002F11C0103FA02F200EB810102F47C52DA
:107480000830C4F8B410C4F8C400C4F8C0202A7B83
:10749000687B57F82210042A9ABF114B9A5C00228D
:1074A000B0FBF2F302FB1303DBB24FF4807203F183
:1074B0001C0002FA03F301EB800003F47C53083153
:1074C000C4F8BC00C4F8CC10C4F8C8302046BDE8ED
:1074D000F08700BFD8FD02000000F03FBCFD0200B5
:1074E000B4FD0200003C1CC691B1DAB190F86431E1
:1074F0009B0770B50C461646054602D5303006F09F
:10750000B1FE0123C5F81861204685F8153170BD1C
:1075100080F81511C0F81811C0F81C11C0F820111E
:10752000012070471046704790F81521002A38D086
:1075300082790A2A70B5044600D070BD90F83D20CB
:10754000CB0F81EAE1769A420D46A6EBE17604D0B4
:10755000026880F83D30136B9847A06B636CB042B3
:10756000A8BF3046002DB4BF424202461344D4F8AF
:10757000BC5063642B68A4F8120186B2B34207D0F2
:10758000D4F8CC10D4F8C8200B681342FCD12E607C
:10759000002894F8643105DD43F0020384F8643177
:1075A00070BD70476FF3410384F86431C5E700BFD5
:1075B00030B590F87A3183B00446002B71D190F841
:1075C000793183F0010394F8002194F801518A4243
:1075D00031D094F8140184F80011002284F80121BC
:1075E000C4F8082158B3002172B66BB371B340F2EE
:1075F000E2420123C4F87C2184F8793162B6A37990
:107600000A2B2AD094F889318B4235D0D4F8A03097
:1076100000293BD1BFF35B8F2D4ADB4352E8000FBB
:10762000184042E80005002DF8D1BFF35B8F84F8C5
:10763000891103B030BD94F81421002A33D10029F8
:10764000D1D072B6002BD1D10029D7D1002384F834
:107650007A3162B6A3790A2BD4D119B994F864317E
:107660009A0728D494F8FC30DB0794F8893148BF96
:1076700081F001018B42C9D1002DD8D094F801319D
:10768000002BD4D1D4F8A0300029C3D0BFF35B8F36
:107690000F4A52E8000F184342E80005002DC4D0FD
:1076A000F7E700238FE7002284F8001184F8012116
:1076B000C4F8082197E794F87431019143F010035E
:1076C00084F8743104F1300006F0CCFD0199C9E76B
:1076D000F423002090F87831002B4AD0354A90F8F6
:1076E0000131126800B512698BB990F88A31012B0B
:1076F00022D0022B3BD190F8F430002B45D1D0F8AA
:107700008C31002B3CD180F88A315DF804FBD0F835
:107710000431D0F80C11D31A8B422BD3D0F8083196
:10772000C0F80421013BC0F808314BB980F80131A1
:1077300090F88A31012BDCD1022380F88A31DAE714
:107740001D4BD0F8A020BFF35B8F53E8001F5140C2
:1077500043E8001EBEF1000FF7D1BFF35B8F90F836
:107760008A31012BC5D190F80131002BE4D05DF8AE
:1077700004FB704790F88A31022BBCD05DF804FB03
:10778000013BC0F88C315DF804FB002200F5BA73B0
:10779000BFF35B8F53E8001F21F0200143E8001E78
:1077A000BEF1000FF6D1BFF35B8F80F88A215DF840
:1077B00004FB00BF14250020F423002090F87A3148
:1077C00070B5044680F81411002B63D190F879311C
:1077D00083F0010394F8016139BB94F8005172B64B
:1077E0005BB365B340F2E2420123C4F87C2184F824
:1077F000793162B6A3790A2B28D094F88931AB424B
:1078000033D0D4F8A030002D39D1BFF35B8F284A94
:10781000DB4352E8001F194042E800100028F8D16D
:10782000BFF35B8F84F8895170BD002584F8015146
:10783000C4F8085172B6002BD3D1002DD9D1002342
:1078400084F87A3162B6A3790A2BD6D11DB994F89F
:1078500064319A0720D494F8FC30DB0794F889311E
:1078600048BF85F00105AB42CBD1002EDAD094F8A9
:107870000131002BD6D1D4F8A030002DC5D0BFF3F4
:107880005B8F0B4A52E8001F194342E800100028A2
:10789000C6D0F7E700239DE794F8743143F0100356
:1078A00084F8743104F1300006F0DCFCD3E700BF4B
:1078B000F423002000000000F8B590F8783103B9F7
:1078C000F8BD04460CF04AFFA379984A94F8D61004
:1078D0000A2B08BF94F8FC3052F8217008BFC3F39C
:1078E000800694F8D830BD7A03F1FF3318BF002624
:1078F000012BEDB240F2DF8094F8283073408C4ABF
:1079000084F8F430C4F8F020B4F9D010481C12D038
:10791000884803F0D1FE03689B680546984709280C
:1079200000F0658228460CF09FFE011C18BF012163
:107930002046FFF73DFEB4F9D2104A1C16D0A379B9
:107940000A2B39D07B4803F0B7FE03689B680546D5
:107950009847092800F0D08028460CF085FEA379CE
:10796000092B00F0D3800B2B00F0D080B4F9D41099
:107970004B1C21D0A3790A2B1ED06E4803F09CFE2D
:1079800003689B6805469847092800F04C82284602
:107990000CF06AFEA379092B0ED1D4F8A830D4F8E4
:1079A000B82093F90130DB0103F1824303F5004372
:1079B000002800F0CC815A61B4F980114F1C10D01E
:1079C0005C4803F079FE03689B68054698470928E0
:1079D00000F075812B6828461B689847042800F042
:1079E0006E81B4F984114E1C15D0524803F064FE28
:1079F00003689B6805469847092800F0EE812846F1
:107A00000CF032FE94F84030B0FA80F0400960F398
:107A1000C30384F84030B4F982114D1C15D0454899
:107A200003F04AFE03689B6805469847092800F062
:107A3000D98128460CF018FE94F84030B0FA80F056
:107A4000400960F3041384F84030B4F98611D4F887
:107A50006451D4F87461481C00F02A81354803F061
:107A60002BFE03689B6807469847092800F0D381DE
:107A700038460CF0F9FDB0FA80F77F0994F83C30F5
:107A8000002B40F0298184F8883194F83E1067F388
:107A90001045002952D194F8642192074ED594F8EC
:107AA0003D0094F84020002800F04A81D70649D5CF
:107AB00046F0040646E0AA0700F074813323BB7247
:107AC000B4F8E230012293FA12F39AB2003218BFEE
:107AD0000122A4F8E23084F87B21EB0600F16B81EF
:107AE00094F87B31002B40F00781D4F8E83003EBA9
:107AF0008303A4F8F83007E70F4BB4F9D2101868E5
:107B00000DF008FEA379092B7FF42DAFD4F8A43033
:107B1000D4F8B02093F90130DB0103F1824303F57F
:107B20000043002800F011815A611FE720FE020087
:107B3000003C1CC6FC2200202C28002094F83D00AC
:107B400094F84020C2F3C00767F38E35C2F30012E9
:107B500094F8017162F3CF3567F34D3560F3C305D7
:107B6000002B00F0A380981F18BF012094F87A2101
:107B700060F34105002A00F0938094F8F40011B1FD
:107B8000AF0740F1D7806FF30005032B69D015F0E4
:107B9000020340F0C680002963D063F3820594F8A5
:107BA000793161F3861560F3C815002B5DD0D4F8E8
:107BB0007C31002B40F3268162F345150122013B05
:107BC00062F38C25C4F87C3105F002031BB1B306C7
:107BD00048BF46F00106321C18BF0122D4F87031AC
:107BE000C4F8746162F34925C4F8645125EA0303BB
:107BF00004F5B472BFF35B8F52E8001F194342E8EB
:107C000000100028F8D1BFF35B8FD4F87021BFF3C8
:107C10005B8F04F5B67322EA050553E8002F2A436B
:107C200043E800210029F8D1BFF35B8FA379D4F892
:107C30006421C4F870210A2B7FF442AE94F8153108
:107C4000002B00F09480D4F81801002800F08F80F9
:107C5000D4F81C319C427FF433AEBDE8F84007F005
:107C6000F5BC031C18BF012397E762F34515002AF2
:107C70003AD094F8D83033B938B905F00203042269
:107C800062F38C25A2E7002863D015F00203F6D139
:107C9000032262F38C2563F3041505F0020395E7D4
:107CA00062F3000594F8F400134676E718465DE7A2
:107CB00094F83C3093BB84F888311F46E5E694F88D
:107CC000D81081B32B6894F8F4105B6909B194F86B
:107CD0007A112846984784E607B394F8881100295A
:107CE00000F0AC800F46D0E662F38C25AA077FF542
:107CF00072AF46F010066AE794F8283094F8F51051
:107D00007340DAB2914200F0BF80D4F8E83084F8D2
:107D1000F52003EB8303A4F8F830F5E594F88871B7
:107D2000B3E6002339E794F8F4202B68012A5B6955
:107D3000CFD1CCE701287FF426AF45F0010524E739
:107D4000170748BF46F00206FCE69A610EE69A6104
:107D500032E6022363F38C2545F0100504F1300070
:107D600006F080FA46F0200605F002032EE704F143
:107D70003005284605F0CEFF284606F0EDFAD4F887
:107D8000BC50606B2A68A4F8120180B282423FF4B2
:107D900097ADD4F8CC10D4F8C8200B681342FCD1AE
:107DA0002860F8BD04F0A8FAD4F8EC30C01A032813
:107DB0003FF684AE91E604F09FFAB4F8E230C4F8DE
:107DC000EC00002B46D03023BB72002294F87B31AC
:107DD00084F8F620A4F8E22084E62B6828461B6984
:107DE00098470FE62B6828461B69984724E64E4BB8
:107DF000B4F9D01018680DF08DFC01462046FFF74D
:107E0000D7FB98E50122002345F0200584F87A216C
:107E100084F879312DE73B6838461B699847B0FAFA
:107E200080F77F092AE6404BB4F9D41018680DF0AA
:107E300071FCA379092B3FF4B0ADBDE504F130002E
:107E400006F02AFA012384F8883146F0080694F8EF
:107E50003C301AE6AD067FF543AEB4F8DC10B4F85A
:107E6000E020A4F8DA10A4F8DE20F88BA4F8DC00F7
:107E700094F8F600BD8BA4F8E05070B994F87B310B
:107E8000012284F8F6202DE6B4F8F820002A3FF409
:107E900036AD013AA4F8F82036E507EE901AB8EEB0
:107EA000677A07EE902AF8EE677A84F87B31C7EE9E
:107EB000276A16EE900A1DF007FB17A3D3E90023EB
:107EC0001DF0A2F916A3D3E900231DF051FB1DF00C
:107ED00047FE07EE900A1EB19FED147A77EE677A9F
:107EE00094F8D830C4ED3C7A022B04D0022384F8F5
:107EF000F4300023C4E717EE900A1DF0E5FA0022E3
:107F00000B4B1DF081F902460B461DF07FF91DF069
:107F100027FEC4F8F000E9E79A9999999999A93F41
:107F2000721CC7711CC75B402C2800200000C8428F
:107F3000000049402DE9F84304460F469046002AC8
:107F400054D1456C4D1BED0FD4F87431002B4BD040
:107F500094F8743143F0010384F87431002694F8E6
:107F6000003133B994F8742142F010021E4684F8AF
:107F70007421B4F98611481C16D0294803F09CFBE3
:107F800003689B6881469847092840D048460CF012
:107F90006BFBB0FA80F0400930B194F8743143F0D3
:107FA000080384F87431002694F840306DB1D90686
:107FB00026D496B101234246394684F83E3004F176
:107FC0003000BDE8F84305F021BE1A07F1D594F85A
:107FD000743143F0020384F8743194F864319B07E0
:107FE00006D40020BDE8F8830126B8E7CD0FABE743
:107FF00004F13000002106F04FF90020BDE8F883BD
:1080000094F8743143F0040384F87431E5E7D9F847
:10801000003048461B699847B0FA80F04009BBE73A
:10802000FC220020A0F13000FFF784BFF8B5D0F8A3
:10803000743104460E46002B4AD090F8743143F058
:10804000010380F87431002594F8003133B994F8B5
:10805000742142F010021D4684F87421B4F986118F
:10806000481C16D0264803F027FB03689B68074688
:10807000984709283CD038460CF0F6FAB0FA80F060
:10808000400930B194F8743143F0080384F8743136
:108090000025002E94F840300CDAD90621D48DB199
:1080A0000023314684F83E3004F13000BDE8F8404A
:1080B00005F0E6BD1A07F2D594F8743143F00203D7
:1080C00084F8743194F864319B0703D40020F8BD20
:1080D0000125B9E704F13000002106F0DDF80020A9
:1080E000F8BD94F8743143F0040384F87431E9E77F
:1080F0003B6838461B699847B0FA80F04009C0E7F2
:10810000FC220020A0F13000FFF790BFF8B5D0F8B6
:10811000A430BC4D93F90130D0F8B02005EBC31367
:1081200004469A61D0F8A830D0F8B82093F901300D
:1081300005EBC3130E469A610021FFF739FA314669
:1081400020460CF0A5FAD4F8A43093F901209878D1
:1081500005EBC2121318002783F84070D4F8A8105A
:1081600091F901308E78DB01E9188D1903F1824312
:1081700085F84070D4F8B0509560D4F8B8508D6050
:1081800002EB500210F0010F92F830104FF0050092
:1081900003F5004314BF60F3071160F3030103EB21
:1081A000560382F8301093F83020F0074FF00501A5
:1081B0004CBF61F3071261F3030283F83020236898
:1081C000914A5B68934240F01981A379092B22D030
:1081D00004F1300006F046F8D4F8A410894B91F968
:1081E0000120897803EBC2120A44092092F840105A
:1081F0006FF3000182F84010D4F8A82092F9011022
:10820000927803EBC113134493F840206FF30002FC
:1082100083F84020A071E3682269DB0103F1824109
:1082200001F5004101EB520103F1824391F8300066
:1082300012F0010503F50043134414BF6FF3071058
:1082400065F3030081F8300093F840206F4942F055
:10825000010283F8402094F8D60051F820301A68C3
:108260006FF341021A601A699207FCD41A6842F04F
:1082700001021A601A6912F00102FBD11D686449FB
:1082800062F305151D601D6862F314551D601D68BD
:1082900062F355551D601D6845F480351D601D68ED
:1082A00045F400351D601D6862F3CB251D601D6817
:1082B00062F30A251D601D6845F080051D601D687C
:1082C00045F040051D601D6862F383051D60DD8873
:1082D000052666F30205DD80DD8845F02005DD809A
:1082E000DD8862F30C35DD80DD8862F34D35DD809D
:1082F000DD8862F30825DD80DD8845F01005DD802E
:108300000D7862F341050D70D4F8AC208E68D578F5
:108310000122AA4016438E60EF088E69BF0007F164
:10832000804E16430EF5205E8E6105F00706DEF8DE
:108330001CC0B7000426BE4046EA0C06CEF81C60FE
:10834000CE6892B262F30F06CE600A7842F0020263
:108350000A704A6812F00202FBD194F8D7E02D4966
:108360000EF12B073E4651F827C062F3861C41F8F8
:1083700027C051F826205706FBD451F82620254F58
:108380004FF0060C6CF3030241F8262051F826202A
:1083900042F0400241F826207A6812F0180FFBD113
:1083A0001D4A1E4E74300EF101010FFA8EFE42F886
:1083B000201006EBCE02917941F002019171D17942
:1083C000C807FCD4123505F07F0545F4007546F862
:1083D0003E50D1798907FCD41A6842F002021A6033
:1083E0001A6912F00202FBD10123C4F86421C4F817
:1083F0006821C4F86C2184F87831F8BD0921204641
:10840000984708E7008000414971000020FE020003
:1084100000280040001C004000E0004120E0004136
:108420004FF0FF30704700BFA1F10200B0FA80F0BA
:108430004009704702207047A1F10100B0FA80F0B6
:1084400040097047A1F10800B0FA80F04009704778
:10845000807A7047A0F10400FAE700BF807A401AE2
:10846000B0FA80F040097047A0F10400F6E700BFC1
:1084700008207047A0F10400FAE700BF0020704711
:10848000A0F10400FAE700BF1123818183727047D5
:10849000A0F10400F8E700BF704700BFA0F104009E
:1084A000FAE700BF014B186800F05EBEE41200203E
:1084B000014B186800F066BEE4120020014B1868FA
:1084C00000F07ABEE4120020014B186800F030BEC4
:1084D000E4120020014B186801F004BAE4120020F5
:1084E000014B186800F01CBEE4120020014B186814
:1084F00000F018BEE4120020014B186800F07ABEAC
:10850000E4120020014B186800F0A0BFE412002024
:10851000014B186800F0A6BFE4120020014B186858
:1085200000F0D4BFE4120020014B186800F0D6BF61
:10853000E41200200368044A1B6B934203D1034BEF
:10854000186800F039BE1847BD840000E41200200E
:10855000A0F10400EEE700BF08B50368064A1B6BF4
:10856000934205D1054B186800F026FE00B208BD05
:10857000984700B208BD00BFBD840000E41200208F
:10858000A0F10400E8E700BF08B5036861B90B4A31
:10859000DB68934205D10A4B186801F0A3F901206A
:1085A00008BD9847012008BD064A9B689342F8D150
:1085B000034B186800F0BCFD012008BDD584000005
:1085C000E4120020C9840000A0F10400DCE700BF31
:1085D00030B583B01A4DADF804009DF804102B6837
:1085E00011F00104A3F8120112D12146204609F02E
:1085F0007BFE2146012009F077FE09F069FE09F0B3
:10860000A1FE0368B3F5966F12D0002003B030BD11
:108610000C49002009F068FE0B49012009F064FEB6
:1086200028684021803009F02BFE002003B030BDC7
:108630000121064803F0FCFA002003B030BD00BF62
:10864000E41200205186000089880000FC220020EE
:108650002DE9F04F83B072B68A490B6803F18000B0
:10866000C3F81821C3F8140162B6086872B6D0F8CE
:108670000431D0F80021D0F818419B1A48BF40338C
:10868000002C00F0D680D3F13F0300F0D280D0F868
:108690000451D0F81421A34228BF2346C5F140015C
:1086A000994228BF19464619002900F0E8802C1D80
:1086B0000444171DBE4238BFA242C0F0CE800B2931
:1086C00040F2CB80544214F0030400F0B7801778D6
:1086D0004755012C06F1010C02F1010800F0B080B1
:1086E00057787770022C06F1020C02F1020800F0B4
:1086F000A7809778B77006F1030C032602F10308F0
:108700000196A1EB040BABF10406B6082F19013654
:108710004FEA8609074414444FF0000E0EF1010E93
:1087200054F804AB47F804AB7645F7D8019CCB4529
:108730004C440CEB090708EB090E00F0898018F88F
:1087400026800CF82680661CB14240F281800234FB
:108750009EF801607E70A1427AD99EF80240BC70FA
:108760005618D0F81421D0F818410A44641A5B1A3C
:10877000C0F81421C0F8184164D0311D021D964282
:1087800038BF8842044671D30B2B6FD9724212F066
:1087900003025FD031780170012A00F1010406F173
:1087A000010E58D071784170022A00F1020406F1DE
:1087B000020E50D0B1788170C41C06F1030E03275D
:1087C000A3EB020CACF1040189084D1C16444FEADE
:1087D000850802440021013156F8049B42F8049BAD
:1087E0008D42F8D8C44507EB080204EB08010EEBF4
:1087F00008060DD01EF8257004F82570541CA342FD
:1088000006D9023274784C70934201D9B2788A70DA
:10881000D0F81421D0F81841C0F804311A44E41AF1
:10882000C0F81421C0F818411CB98030402109F06B
:1088300027FD62B6012003B0BDE8F08FB446904634
:1088400001945EE7294401F03F01C0F80411EBE711
:10885000561886E7B6461746B2E7741E561812F841
:10886000017B04F8017FB242F9D17AE7421EF41885
:1088700016F8011B02F8011FB442F9D1C8E71646E9
:1088800073E700BFE41200202DE9F04FD84883B011
:10889000002940F0AB810168D1F808311A4402F098
:1088A0003F02C1F808210023BFF35B8F81F810312C
:1088B000BFF35B8F0468BFF35B8F4FF0010104F5DA
:1088C0008873D3E84F2FC3E8401F0028F9D1BFF3C6
:1088D0005B8F12F0FF0F40F0DC80D4F80861D4F811
:1088E0000C118E4200F0918104F1400202EB060768
:1088F00004F1C00EC0F0D180C6F1400319444029F4
:1089000028BF40218B4228BF0B46002B00F0A181DD
:1089100006F1400506F1440C6019A44404F1C408B2
:10892000404538BFE645C0F08A810B2B40F2878175
:10893000404210F0030000F06181965D84F8C06051
:10894000012804F1C10C07F1010800F059817E787B
:1089500084F8C160022804F1C20C07F1020800F09B
:108960004F81BE7884F8C260032607F1030804F142
:10897000C30C0196A3EB000BABF10406B60805444B
:108980000136C030254420444FEA860900270137CC
:1089900055F804AB40F804ABB742F8D30198CB4587
:1089A00048440CEB090508EB09070DD018F82680A0
:1089B0000CF82680461CB34206D902307E786E70D1
:1089C000834201D9B878A8700EEB0300CB1A00F0EF
:1089D000FC8004F14405061DB24238BFA842C0F035
:1089E00025810B2B40F22281554215F0030500F042
:1089F000098194F840200270012D00F1010804F172
:108A0000410200F0008194F841204270022D00F1F3
:108A1000020804F1420200F0F68094F842208270CD
:108A200000F1030804F143020327A3EB0509A9F1B0
:108A30000406B60805F1400C01362844A4444FEA68
:108A4000860B4FF0000A0AF1010A5CF8045B40F85B
:108A5000045B5645F7D8D9455F4408EB0B0002EBA1
:108A60000B0500F0B28012F8262008F826207A1CA8
:108A7000934240F2AA8002376A784270BB4240F2C9
:108A8000A480AB788370704609F00EFC002840F09B
:108A9000A280012003B0BDE8F08F891B06F14003DE
:108AA00006F14400402904EB0308204404F1C40506
:108AB00028BF4021A84538BF8645C0F0AD800B29AE
:108AC00040F2AA80C8F1000818F0030800F0928074
:108AD000925D84F8C020B8F1010F04F1C10507F1DF
:108AE000010600F089807A7884F8C120B8F1020F7D
:108AF00004F1C20507F102067ED0BA7884F8C220DC
:108B0000FE1C04F1C3054FF00309434408F1C00003
:108B1000E2582250A1EB0808A8F10402234492086D
:108B2000013220445F684760022A4FEA820C35D048
:108B30009F688760032A31D0DF68C760042A2DD080
:108B40001F690761052A29D05F694761062A25D078
:108B50009F698761072A21D0DF69C761082A1DD074
:108B60001F6A0762092A19D05F6A47620A2A15D06C
:108B70009F6A87620B2A11D0DF6AC7620C2A0DD068
:108B80001F6B07630D2A09D05F6B47630E2A05D060
:108B90009F6B87630F2A01D0DB6BC363E045E14421
:108BA00005EB0C0306EB0C000FD016F8226005F85D
:108BB000226009F10102914207D909F102094278C4
:108BC0005A70494501D982789A70704609F06CFB59
:108BD00000283FF45EAFBFF35B8F002384F81031B1
:108BE0000120BFF35B8F03B0BDE8F08F01685AE648
:108BF000E41200203E467546C14686E7B846F44674
:108C00000190B7E680462F460FE7BFF35B8F84F8ED
:108C10001021BFF35B8F3CE704F1BF03781817F80E
:108C2000012B03F8012F8742F9D1CEE70138134415
:108C300012F8015B00F8015F9A42F9D1C5E704F12F
:108C4000BF00FE1817F8015B00F8015FBE42F9D1C2
:108C5000BAE67046BAE600BF70B5164E346814F036
:108C6000010402D0144B186870BD4FF4907011F0DD
:108C7000C1FF054600F18003C0F800410F49C5F867
:108C80000441C5F81431C5F80841C5F81841C5F8C4
:108C90000C4185F81C4185F81041A5F8124185F872
:108CA0001141032009F020FB034A012315602846E7
:108CB000336070BDE012002028130020D185000031
:108CC0002DE9F041C74AD2F8A8306FF386138CB073
:108CD000C2F8A830D2F8A8305906FBD4D2F8A83090
:108CE000C049042060F30303C2F8A830D2F8A830CA
:108CF00043F04003C2F8A8304B68DB06FCD4BA4B03
:108D0000BA491A6942F480621A619A6942F0010212
:108D10009A61A1F1D700032209F092FE04460028CF
:108D200000F09C81B24B0FCB8DE80F0003681D0F44
:108D3000E8B2C3F3036800F130073730092D88BF6C
:108D400007465FFA88F0C3F3035600F1300C373062
:108D5000B8F1090FC8BF8446F0B2C3F303458DF8DC
:108D600011C000F1300C3730092EC8BF8446E8B27C
:108D7000C3F3033E8DF812C000F1300C3730092DDB
:108D8000C8BF84465FFA8EF08DF810708DF813C05E
:108D9000C3F3032700F1300C3730BEF1090FD4BF05
:108DA000E6468646F8B2C3F303160A468DF814E089
:108DB00000F1370E3030092FCCBF77460746F0B2AE
:108DC00012688DF8157003F00F0300F1370730308B
:108DD000092ECCBF3E460646D8B2150F8DF8166058
:108DE00000F137063030092BCCBF33460346E8B2DA
:108DF000C2F3036C8DF8173000F137033030092DC2
:108E000088BF18465FFA8CF3C2F3035E8DF8180032
:108E100003F137003033BCF1090FCCBF84469C46C8
:108E20005FFA8EF3C2F303478DF819C003F1370CD4
:108E30003033BEF1090FD8BF9C46FBB2C2F30336F4
:108E40008DF81AC003F1370C3033092FD8BF9C4678
:108E5000F3B2C2F303258DF81BC003F1370C303396
:108E6000092ED8BF9C46EBB2C2F3031002998DF8CD
:108E70001CC003F1370C3033092DCCBF65461D46AD
:108E8000C3B209688DF81D5002F00F0203F13705D7
:108E900030330928CCBF28461846D3B24FEA117E9A
:108EA0008DF81E0003F137003033C1F30367092A40
:108EB000CCBF02461A465FFA8EF5F8B28DF81F2035
:108EC00005F137023035C1F30356BEF1090F88BFF3
:108ED000154600F137023030092FC8BF1046F3B2F3
:108EE00003F137028DF821003033C1F30340092E1E
:108EF000C8BF1346C2B2C1F3033E02F13708303295
:108F00000928D8BF90465FFA8EF2C1F303278DF887
:108F100022302046039B8DF8205002F13704303276
:108F2000BEF1090FD8BF1446FAB21B688DF8244071
:108F3000C1F3031602F137043032092FCCBF2746A4
:108F40001746F2B201F00F018DF8257002F13707D4
:108F50003032092ECCBF3E461646CAB21D0F8DF8E0
:108F6000266002F1370630320929CCBF314611465E
:108F7000EAB2C3F3036C8DF8271002F130013732E7
:108F8000092D88BF11465FFA8CF2C3F3035E8DF89A
:108F9000281002F130013732BCF1090FD4BF8C46E2
:108FA00094465FFA8EF2C3F3034402F13701303284
:108FB000BEF1090FCCBF8E469646E1B2C3F303372C
:108FC0008DF82AE001F1370E3031092CD8BF8E46DA
:108FD000FAB2C3F303268DF82BE002F1300E3732DC
:108FE00008E000BF001C004000080040EF00002027
:108FF00034FF0200092FD4BF77461746C3F3031589
:10900000F4B203F00F03DAB2E9B28DF82C7004F178
:1090100030073734092ED8BF3C4601F1300E02F13B
:10902000300737313732092DD8BF7146092BD4BFED
:109030003B4613468DF82E108DF82F308DF8238087
:109040008DF829C08DF82D400DF10F030DF12F0182
:1090500013F8012F20F8022F8B42F9D12A4B2B4A0B
:109060002B4F2C4D2C4880214FF080764FF08044C0
:1090700082F8501382F8511382F8521382F8531376
:109080009E609C629F625E6193F8582002F0FB0232
:1090900083F8582093F8582002F0FE0242F00102B3
:1090A00083F8582093F83C2002F0F0024FF0007152
:1090B00042F0070283F83C2099609C629D625961EE
:1090C00093F8592002F0FB0283F8592093F85920B5
:1090D00002F0FE0242F0010283F8592093F83C208E
:1090E00002F00F0242F0700283F83C2009F0F0FB1E
:1090F00009F0A8F8094809F019FC09F02FFC012033
:109100000CB0BDE8F08100BF0080004100E100E04C
:10911000000100C0000200C0E81200201000002082
:109120000120704708B509F00DF9006808BD00BFBF
:1091300038B590F81C3103B138BD044601251846F6
:1091400084F81C51064909F0CFF82846054909F072
:10915000CBF804F180004021BDE8384009F090B818
:10916000518600008988000003460022C0F80021D3
:10917000C0F81821C0F804214021803083F8112163
:1091800009F07EB838B504464FF08245D4F808217E
:10919000D4F80C319A4200D138BD09F0CDF800283E
:1091A000FAD094F81231DB07F6D56B7B03F07F031E
:1091B000022BEBD038BD00BF38B5054609F0BCF82E
:1091C000044670B195F8124114F0010409D04FF033
:1091D00082435C7B04F07F04A4F10204B4FA84F4BB
:1091E00064090348002103F0B1F8204638BD00BFF0
:1091F000804F1200D0F80031D0F80421934200F0E3
:1092000016812DE9F04F5A1C02F03F02C45CC0F8F1
:10921000002183B072B6D0F80431D0F80021D0F824
:1092200018519B1A48BF4033002D00F0E380D3F162
:109230003F0300F0DF80D0F80461D0F81421AB4286
:1092400028BF2B46C6F14001994228BF194687190D
:10925000002900F0F880351D054402F1040E774521
:1092600038BFAA42C0F0DA800B2940F2D7805542BD
:1092700015F0030500F0C38092F800E000F806E066
:10928000012D07F1010802F1010900F0BA8092F8FE
:1092900001E087F801E0022D07F1020802F102095E
:1092A00000F0AF8092F802E087F802E007F10308CF
:1092B000032702F103090097A1EB050BABF10407AB
:1092C000BF0806EB050E01374FEA870A86441544AE
:1092D0004FF0000C01940CF1010C55F8044B4EF8C2
:1092E000044B6745F7D8009D019CD345554408EBD6
:1092F0000A0E09EB0A0C00F08C8019F8279008F888
:1093000027906F1CB94240F2848002359CF80170AE
:109310008EF80170A9427CD99CF802508EF8025058
:109320005718D0F81421D0F818510A446D1A5B1A56
:10933000C0F81421C0F8185165D0011D3A1D9042A3
:1093400038BF8F42054675D30B2B73D9424212F0BA
:10935000030260D039780170012A00F1010507F19C
:10936000010E59D079784170022A00F1020507F107
:10937000020E51D0B9788170C51C07F1030E4FF071
:109380000308A3EB020CACF1040189084E1C17443E
:109390004FEA860902440021013157F804AB42F834
:1093A00004AB8E42F8D8CC4508EB090205EB090165
:1093B0000EEB09070DD01EF826E005F826E0551C37
:1093C000AB4206D902327D784D70934201D9BA780A
:1093D0008A70D0F81421D0F81851C0F804311A441A
:1093E000ED1AC0F81421C0F818511DB98030402181
:1093F00008F046FF62B620B203B0BDE8F08FB84671
:109400009146009558E7314401F03F01C0F804113E
:10941000EBE7571885E7BE469046B2E77D1E571822
:1094200012F801EB05F801EFBA42F9D179E74FF0F4
:10943000FF307047421EFD1817F8011B02F8011F8C
:10944000BD42F9D1C5E717466FE700BFD0F8042148
:10945000D0F800319A421ABFD0F80031C05C4FF00A
:10946000FF30704770B504460E464FF0824508F055
:1094700063FF50B394F8120110F0010025D06B7B0C
:1094800003F07F03022B01D0002070BD94F81C0173
:1094900000B970BDD4F80831D4F80C219B1A5A1EBB
:1094A0000ED4002AE3D0D4F80C31234483F8406072
:1094B000D4F80C31013303F03F03C4F80C3170BD14
:1094C00003F13F02002AD2D0EDE770BDD0F804319D
:1094D000D0F80001181A48BF40307047D0F8083162
:1094E000D0F80C219B1A581E48BF03F13F0070476B
:1094F0002DE9F04F00F5887383B04FF00101BFF301
:109500005B8FD3E84F2FC3E8441F002CF9D1BFF382
:109510005B8F12F0FF0F40F0E480D0F80861D0F8C4
:109520000C118E4200F0B68100F1400303EB0607F8
:1095300000F1C005C0F0D880C6F1400211444029B6
:1095400028BF40218A4228BF0A46002A00F0C7816E
:1095500006F1400E06F1440400EB0E08044400F14D
:10956000C40CE04538BFA542C0F0AE810B2A40F2E2
:10957000AB816C4214F0030400F07F819E5D80F8A3
:10958000C060012C00F1C10C07F1010800F07B81E3
:109590007E7880F8C160022C00F1C20C07F102084D
:1095A00000F07181BE7880F8C260032607F10308DD
:1095B00000F1C30C0196A2EB040BABF10407BF084A
:1095C0000EEB04060137C034064404444FEA870911
:1095D0004FF0000E0EF1010E56F804AB44F804AB48
:1095E000BE45F7D3019CCB454C4408EB090E0CEB70
:1095F00009060FD018F827800CF82780671CBA429C
:1096000008D902349EF801707770A24202D99EF800
:109610000240B470AC188A1A00F01A81261D00F1BD
:109620004407BC4238BFB342C0F045810B2A40F228
:1096300042815F4217F0030700F0298190F8403023
:109640002370012F04F1010C00F1410300F01D8192
:1096500090F841306370022F04F1020C00F14203D4
:1096600000F0138190F84230A37004F1030C00F174
:1096700043034FF00309A2EB0708A8F1040E4FEAD9
:109680009E0E07F140060EF1010E3C4406444FEADF
:109690008E0A0027013756F804BB44F804BBBE45C8
:1096A000F8D8D04509EB0A0403EB0A070CEB0A06CD
:1096B00000F0CE8013F82E300CF82E30631C9A4246
:1096C00040F2C68002347B787370A24240F2C080C0
:1096D000BB78B3700446284608F0E6FD002840F049
:1096E000BE8003B0BDE8F08F891B06F1400206F191
:1096F0004404402900EB020C044400F1C40E28BFCE
:109700004021F44538BFA542C0F0CB800B2940F280
:10971000C8806C4214F0030400F0AB809B5D80F8BD
:10972000C030012C00F1C10607F1010E00F0A98044
:109730007B7880F8C130022C00F1C20607F1020EDE
:1097400000F09F80BB7880F8C23007F1030E00F173
:10975000C3064FF0030C1319034404F1C0081A6840
:1097600040F808200F1B3A1F920800EB0804013252
:10977000D3F80480C4F80480022A4FEA82084FD04C
:10978000D3F80890C4F80890032A49D0D3F80C9075
:10979000C4F80C90042A43D0D3F81090C4F8109069
:1097A000052A3DD0D3F81490C4F81490062A37D077
:1097B000D3F81890C4F81890072A31D0D3F81C9029
:1097C000C4F81C90082A2BD0D3F82090C4F820901D
:1097D000092A25D0D3F82490C4F824900A2A1FD04F
:1097E000D3F82890C4F828900B2A19D0D3F82C90DD
:1097F000C4F82C900C2A13D0D3F83090C4F83090D1
:109800000D2A0DD0D3F83490C4F834900E2A07D026
:10981000D3F83890C4F838900F2A01D0DB6BE3639B
:1098200047450CEB080306EB08040EEB080C0FD0C1
:109830001EF8227006F822705A1C914208D9023391
:109840009CF801206270994202D99CF80230A37002
:109850000446284608F028FD00283FF442AFBFF335
:109860005B8F002384F81031BFF35B8F03B0BDE83A
:10987000F08FBE46A4462E466DE7B8460194AC462E
:1098800099E6A44667E7019495E6B946F3E6B9463A
:10989000A446F0E6BFF35B8F80F81021BFF35B8F27
:1098A0001FE700F1BF037C1817F8012B03F8012F05
:1098B000A742F9D1CCE7013C1A4413F8016B04F834
:1098C000016F9342F9D1C3E700F1BF0407EB020E29
:1098D00017F8016B04F8016FBE45F9D19AE62C46E2
:1098E00099E600BF38B590F81C3103B938BD05467C
:1098F000FFF7FEFD4FF08244D5F80821D5F80C3172
:109900009A420BD008F018FD40B195F81231DB07F0
:1099100004D5637B03F07F03022BEDD000242146A6
:1099200085F81C41204608F0DFFC2146012008F0A4
:10993000DBFC08F0CDFCC5F80041C5F81841C5F8BE
:109940000441C5F80841C5F80C4185F8104185F877
:10995000114138BD90F8103103B17047D0F808219B
:10996000D0F80C319A4200F0FD802DE9F04F00F55F
:10997000887383B04FF00101BFF35B8FD3E84F2FA3
:10998000C3E8441F002CF9D1BFF35B8F12F0FF0F27
:1099900040F0E580D0F80861D0F80C118E4200F05C
:1099A000AB8100F1400303EB060700F1C005C0F0F6
:1099B000DA80C6F140021144402928BF40218A4282
:1099C00028BF0A46002A00F0BC8106F1400E06F1CD
:1099D000440400EB0E08044400F1C40CE04538BF19
:1099E000A542C0F0A3810B2A40F2A0816C4214F082
:1099F000030400F077819E5D80F8C060012C00F1C7
:109A0000C10C07F1010800F071817E7880F8C16017
:109A1000022C00F1C20C07F1020800F06581BE784B
:109A200080F8C260032607F1030800F1C30C019619
:109A3000A2EB040BABF10407BF080EEB04060137E1
:109A4000C034064404444FEA87094FF0000E0EF17B
:109A5000010E56F804AB44F804ABBE45F7D3019CA5
:109A6000CB454C440CEB090608EB090E0FD018F857
:109A700027800CF82780671CBA4208D902349EF868
:109A800001707770A24202D99EF80240B470AC18FF
:109A90008A1A58D0261D00F14407BC4238BFB34291
:109AA000C0F03B810B2A40F238815F4217F0030778
:109AB00000F01F8190F840302370012F04F1010C59
:109AC00000F1410300F0168190F841306370022FDD
:109AD00004F1020C00F1420300F00C8190F84230D6
