S01700004D6F74696F6E53747265616D696E672E73726563ED
S2140040000000032069A80000D1420000D142000051
S214004010D1420000D1420000D14200000000000062
S214004020000000000000000000000000D142000078
S214004030D142000000000000D142000005A70000A9
S214004040D1420000D1420000D1420000D14200001F
S214004050D1420000D1420000D1420000D14200000F
S214004060D1420000D1420000D1420000D1420000FF
S214004070D9A50000E9A50000F9A5000009A60000E2
S21400408019A6000029A6000039A6000049A60000CF
S21400409059A6000069A6000079A6000089A60000BF
S2140040A099A60000A5A60000B5A60000C5A60000BB
S2140040B0D1420000D1420000D1420000D1420000AF
S2140040C0D1420000D1420000D1420000D14200009F
S2140040D0D1420000D1420000D1420000D14200008F
S2140040E0D1420000D14200000000000000000000A5
S2140040F000000000D14200006DA50000D142000083
S21400410079A5000085A50000D1420000D14200003C
S214004110D1420000D142000091A50000D14200002B
S2140041209DA50000A9A50000D1420000D1420000D4
S214004130D1420000D1420000D1420000D14200002E
S214004140D1420000D1420000D1420000D14200001E
S214004150D1420000D1420000D1420000D14200000E
S214004160D1420000D1420000B5A50000D1420000B7
S214004170C1A50000CDA50000000000000000000062
S214004180155D0100195D01001D5D0100215D010046
S21400419061A5000059A70000D1420000D1420000EE
S2140041A0D1420000D1420000D1420000D1420000BE
S2140041B0D1420000D1420000D1420000D1420000AE
S2140041C0D1420000D1420000D1420000D14200009E
S2140041D0D1420000D5A60000D1420000D142000026
S2140041E0EDA60000D1420000D1420000D1420000FE
S2140041F0D1420000D1420000D1420000D14200006E
S214004200D1420000D1420000D1420000D14200005D
S214004210D1420000D1420000D1420000D14200004D
S214004220D1420000D1420000D1420000D14200003D
S214004230D1420000D1420000D1420000D14200002D
S214004240D1420000D1420000D1420000D14200001D
S214004250D1420000D1420000D1420000D14200000D
S214004260D142000010B5054C237833B9044B13B186
S2140042700448AFF300800123237010BDC00A00205D
S21400428000000000F8DD02000C4B43B10C480D495D
S21400429010B5AFF300800C48036823B910BD0A4878
S2140042A0036833B97047094B002BF7D0BDE81040C0
S2140042B01847064B002BF5D0184700BF000000003B
S2140042C0F8DD0200C40A0020BC0A0020000000003E
S2140042D0FEE700BF014B024A1A607047000000204C
S2140042E0006CDC02000000002DE9F0414A4C4B480F
S2140042F02DED068B00210025257006F0A3FC484B0B
S2140043000A221868022107F0F9FF4448002106F047
S21400431099FC0121434801F0C9FD0121424801F002
S214004320C5FD4248002106F08DFC04F108003E4A17
S2140043303C4908F0FDFD00285ED09FED318B9FEDD7
S214004340329BB0EE481AF0EE681AB0EE490AF0EE6C
S214004350690A02224FF4487104F1080009F0AAFA2B
S214004360B0EE481AF0EE681AB0EE490AF0EE690AA6
S21400437002224FF4487104F5886604F1080009F03B
S214004380C9FA022730464FF448789FED21AB86EDF8
S214004390029B86ED068B84F85074C4F8408409F0BE
S2140043A0A3FD04F58F63184683ED029B83ED068B11
S2140043B084F88874C4F8788409F096FDB0EE4A0A4A
S2140043C0F0EE6A0A04F1080009F0F2FADFF860E09D
S2140043D001264CF2503341F288372A46294604F12A
S2140043E008008EED00AB84F8B064C4F8C073C4F85F
S2140043F0C43309F0C3FA2670BDEC068BBDE8F08125
S214004400000000000000F03F000000000000144024
S2140044100000000000D8A340E00A0020808D5B006A
S214004420FC22002040110020D0120020001BB70004
S2140044300800002010B5184C184BC4F8B43404F12A
S214004440080008F0DDFC04F5976001F0DFFA144B75
S214004450002204F5886004F58F61C0E90223C0E9F4
S2140044600623C0E90A23C0E90C23C1E90223C1E9F7
S2140044700623C1E90A23C1E90C2300230122C4F85C
S2140044804024C4F8782484F8503484F8603484F8DF
S214004490883484F8983410BDE00A0020C0A8006D67
S2140044A00000F03F10B5094C0948002106F0CAFB91
S2140044B04FF4E131204602F08FFC204602F080FCEB
S2140044C004480021BDE8104006F0BCBB801B00205D
S2140044D0808D5B00001BB700C0B170B504460C4869
S2140044E002F068FC00B970BD20461FF0A9F900284C
S2140044F0F9D0074E251801E0A542F4D014F8011BA8
S214004500304602F081FC0028F6D170BD704700BF2F
S214004510801B0020000000002DE9F04FDFF82CB3D0
S2140045202DED048B9BF8003089B08DED040B8DEDDE
S214004530061B8DED023B002B00F04381B0EE448A53
S214004540F0EE648A0022002351EC140B59EC128B17
S2140045501CF020FA002800F02381B0EE480AF0EEA6
S214004560680ADFF8ECA29AF808300BF10800002B76
S21400457000F0988009F01CFA8AED008B01238BF876
S214004580B0349AF80830A848002B40F0D28009F0E2
S21400459023FAA54857EC106B09F032FA9BF8CC3496
S2140045A0012B55EC104B00F0D28042464B4630466D
S2140045B039461BF0B7FDDDE9022306460F462046C6
S2140045C029461BF0AFFD42464B4604460D46404684
S2140045D049461BF059FFDDE902238046894610460E
S2140045E019461BF051FF02460B46404649461BF053
S2140045F099FD41EC100B1AF0C1FB32463B46DDE953
S2140046000401B0EE409AF0EE609A1BF089FD224657
S2140046102B46CDE90201DDE906011BF081FD9DED8B
S214004620021B41EC100B1AF0A7FB0022002351ECF2
S214004630100BB0EE408AF0EE608A1CF097F9002866
S21400464040F0A4809AF808307849002B5BD147ECFC
S214004650106B012009F010FA45EC104B7449064621
S214004660012009F009FAB0EE490AF0EE690A04469C
S2140046706E49012009F000FA6E4A92F800211AB13C
S2140046806D4B93F8003193B96C4802F093FB002809
S2140046906ED16A4802F08EFB60BB09B0BDEC048B9D
S2140046A0BDE8F08F09F072F98AED008B66E7002509
S2140046B00346B0EE480AF0EE680A224631460095F8
S2140046C0594808F0F1FF002800F090805B4802F09F
S2140046D071FB0028DDD06F21584802F095FB0028BA
S2140046E0D7D06B21554802F08FFB544802F062FB8E
S2140046F00028D2D051480A2109B0BDEC048BBDE891
S214004700F04F02F081BB47EC106B022009F0B4F9C1
S21400471045EC104B06464649022009F0ADF9B0EECE
S214004720490AF0EE690A04464049022009F0A4F955
S214004730A2E709F079F93C4857EC106B09F088F9C4
S2140047409BF8CC34012B55EC104B7FF42EAFDDE9F3
S214004750040132463B461BF0E5FC2246CDE9040147
S2140047602B46DDE906011BF0DDFCCDE906011CE762
S214004770334C324D04F12E0614F8011B284602F085
S21400478043FB002885D0A642F6D182E751EC180BF1
S21400479023A3D3E900231BF0C5FC41EC180B51E71B
S2140047A09BF8B034DFF8A8A0002B3FF4EAAE9AF8E6
S2140047B008309AED000B0BF1080063BB09F0E6F831
S2140047C0DFE61E4802F0F6FA00283FF462AF1D4C02
S2140047D01A4D04F14E0614F8011B284602F014FB8D
S2140047E000283FF456AFB442F5D152E7134802F022
S2140047F0E1FA00283FF44DAF134C104D04F11C06AF
S21400480014F8011B284602F0FFFA00283FF441AFD7
S214004810B442F5D13DE709F0CBF8B2E6AFF300803D
S214004820182D4454FB211940E80A0020200F0020D0
S214004830580F002040110020D0120020801B0020BE
S2140048408CA402001CA402006CA40200E00A002053
S2140048500800002070B58F4C23782DED068B002BBA
S21400486000F0C780B0EE40AAF0EE60AAB0EE419A23
S214004870F0EE619A0022002351EC120BB0EE428A51
S214004880F0EE628A1CF086F8002800F0A280B0EEF7
S214004890480AF0EE680A804D2B7A04F10800002BD7
S2140048A036D009F085F885ED008B012384F8B03406
S2140048B094F8CC34012B72D0B0EE4A0AF0EE6A0AB5
S2140048C02B7A7649002B48D1012009F0D5F8B0EEB6
S2140048D0490AF0EE690A05467149012009F0CCF84C
S2140048E02378002B48D06F4B93F800311BB16E4BEA
S2140048F093F800318BB96D4802F05CFA002840F05E
S214004900A2806A4802F056FAF8B9BDEC068B70BD74
S21400491009F03CF885ED008BC7E702462946644857
S21400492008F076FF002800F09D80604802F042FA0A
S2140049300028E6D06F215D4802F066FA0028E0D035
S2140049406B215A4802F060FADBE7BDEC068B0A21C1
S2140049505648BDE8704002F057BA022009F08CF8BD
S214004960B0EE490AF0EE690A05464D49022009F004
S21400497083F82378002BB6D14C4802F01BFA0028A7
S214004980BFD04C4C494D04F14E0614F8011B284686
S21400499002F03AFA0028B4D0B442F6D1B1E72B7A46
S2140049A04348002B39D109F017F851EC1A0B53EC99
S2140049B0102B1BF0B7FB41EC1A0B3D4809F020F812
S2140049C051EC190B53EC102B1BF0ACFB41EC190B04
S2140049D072E794F8B034304D002B3FF469AF2B7A71
S2140049E095ED000B04F10800002B50D108F0CEFF27
S2140049F05EE72E4802F0DEF9002882D02D4C2B4DC3
S214004A0004F14E0614F8011B284602F0FDF90028B2
S214004A103FF477AFB442F5D173E709F005F851ECEF
S214004A201A0B53EC102B1BF07DFB41EC1A0B2048A5
S214004A3009F00EF851EC190B53EC102B1BF072FB1F
S214004A4041EC190B38E71C4C184D04F12E0614F8EF
S214004A50011B284602F0D8F900283FF452AFA642C0
S214004A60F5D14EE7114802F0A5F900283FF449AF0A
S214004A70124C0E4D04F11C0614F8011B284602F0D9
S214004A80C3F900283FF43DAFA642F5D139E708F058
S214004A908FFF0DE7E00A002008000020200F00200E
S214004AA0580F002040110020D0120020801B00204C
S214004AB0E80A00201CA402008CA402006CA40200D9
S214004AC02DE9F04FBC4C2DED028B237889B08DED8F
S214004AD0040B8DED061B002B00F04481B0EE448ADB
S214004AE0F0EE648A0022002351EC140B57EC126B94
S214004AF05BEC13AB1BF04EFF002800F02381B0EEFA
S214004B00480AF0EE680AAD4D2B7A04F10800002B37
S214004B1000F0998008F04CFF85ED008B012384F8A7
S214004B20B0342B7AA648002B40F0E38008F054FF00
S214004B30A3488DED020B08F063FF94F8CC34012BEC
S214004B4059EC108B00F0E380DDE9020132463B466B
S214004B501BF0E8FA5246CDE902015B46404649465C
S214004B601BF0E0FA32463B468046894630463946D8
S214004B701BF08AFC524606460F465B465046594690
S214004B801BF082FC02460B46304639461BF0CAFA3A
S214004B9041EC100B1AF0F2F8DDE90223B0EE408A81
S214004BA0F0EE608ADDE904011BF0BAFA42464B4695
S214004BB0CDE90401DDE906011BF0B2FA9DED041B08
S214004BC041EC100B1AF0D8F857EC106B00220023BB
S214004BD010EE100A39461BF0C9FE002840F0A880E7
S214004BE02B7A7849002B59D19DED020B012008F055
S214004BF043FF49EC108B74490546012008F03CFF42
S214004C00B0EE480AF0EE680A80466E49012008F0C9
S214004C1033FF2278002A59D06C4A92F800211AB144
S214004C206B4B93F800319BB96A4802F0C3F8002832
S214004C3040F0AD80674802F0BDF830BB09B0BDEC6F
S214004C40028BBDE8F08F08F0A1FE85ED008B65E7CE
S214004C500124034642462946009447EC106B584808
S214004C6008F022FD002800F0BB805A4802F0A2F8A7
S214004C700028DFD06F21574802F0C6F80028D9D0A8
S214004C806B21544802F0C0F8D4E752480A2109B014
S214004C90BDEC028BBDE8F04F02F0B6B89DED020BFE
S214004CA0022008F0E9FE49EC108B47490546022031
S214004CB008F0E2FEB0EE480AF0EE680A8046414987
S214004CC0022008F0D9FE2278002AA5D1414802F039
S214004CD071F80028AED0404C3E4D04F14E0614F854
S214004CE0011B284602F090F80028A3D0B442F6D163
S214004CF0A0E708F099FE32488DED020B08F0A8FEFA
S214004D0094F8CC34012B59EC108B7FF41DAFDDE901
S214004D100223DDE904011BF005FA4246CDE9040151
S214004D204B46DDE906011BF0FDF9CDE906010BE770
S214004D30304639461EA3D3E900231BF0F3F9064696
S214004D400F464DE794F8B0341C4D002B3FF4E9AE07
S214004D502B7A95ED000B04F10800002B55D108F0D6
S214004D6015FEDEE61B4802F025F800283FF462AF89
S214004D70194C184D04F14E0614F8011B284602F093
S214004D8043F800283FF456AFB442F5D152E7134C2F
S214004D90104D04F12E0614F8011B284602F034F8D4
S214004DA000283FF447AFA642F5D143E7AFF30080B3
S214004DB0182D4454FB211940E00A0020080000206A
S214004DC0E80A0020200F0020580F00204011002085
S214004DD0D0120020801B00201CA402008CA402001D
S214004DE00B4801F0E7FF00283FF424AF094C084DBC
S214004DF004F11C0614F8011B284602F005F80028EA
S214004E003FF418AFA642F5D114E708F0D1FD88E6C6
S214004E10801B00206CA402002DE9F04F0178B74FEC
S214004E20C3B000220023002647290546CDE9062305
S214004E30CDE90823CDE90A23CDE90C23CDE90E6799
S214004E4012D04D2910D0AE4801F0B4FF002840F033
S214004E50AF80AB4801F0AEFF18B10A21A84801F0B8
S214004E60D3FF43B0BDE8F08F42AA002442F8F44DC9
S214004E70A44928461EF0E8FA2A78002AF1D0DFF87E
S214004E80C0A2DFF8C092A04627462646AB460AE0F8
S214004E90592A43D0492A48D04A2A4ED0462A53D0C7
S214004EA01BF8012F6AB102F0DF02582AF0D106AAD9
S214004EB0584695491EF0C8FA1BF8012F0126002A0D
S214004EC0F1D12B78472B45D04D2BCAD1059BC92B4A
S214004ED000F0DC8140F3B880CB2B00F0F581C0F207
S214004EE03E81B3F5FA7F00F0498240F2F512934214
S214004EF040F0B380824801F05DFF0028A9D0834CC3
S214004F007F4E04F1140501E0AC42A2D014F8011B58
S214004F10304601F079FF0028F6D19AE708AA7C49C6
S214004F2058461EF091FA0127BAE70AAA494658469B
S214004F301EF08AFA4FF00108B2E70CAA514658460E
S214004F401EF082FA0124ABE70EAA724958461EF0FC
S214004F507BFAA5E7059B142B00F0F68237DC012BC5
S214004F6000F0E58240F3BB80022B00F03B82032B6F
S214004F7040F0848236B12FB1B8F1000F02D0002C79
S214004F8040F044845E4801F015FF00283FF461AF0E
S214004F90614C5B4D04F1170602E0A6423FF459AFA0
S214004FA014F8011B284601F02FFF0028F5D150E722
S214004FB05A4C534D04F1160614F8011B284601F00E
S214004FC023FF00283FF445AFB442F5D141E75A2B02
S214004FD000F0948267DD5B2B00F076825C2B40F05D
S214004FE04D824F4C2378002B00F07283002E40F049
S214004FF04383002F00F0E4834A4B1B7A002B40F0DB
S214005000D583D4F8AC53484901209DED080B08F031
S21400501033FD02464548294608F0B0FC384801F002
S214005020C9FE00283FF415AF414C354E04F11C056F
S21400503002E0A5423FF40DAF14F8011B304601F024
S214005040E3FE0028F5D104E7732B00F0E580C82BBB
S21400505000F0AA81722B00F05A81294801F0AAFEBE
S214005060002840F0DF8210A8059A32491EF0C6F9E3
S214005070234801F09FFE00283FF4EBAE10A81EF078
S214005080DFFB00283FF4E5AE10AC1D4E251802E00D
S214005090AC423FF4DEAE14F8011B304601F0B4FE1D
S2140050A00028F5D1D5E6152B40F0E8811D4B1448B5
S2140050B001221A7201F07EFE00283FF4CAAE1E4C92
S2140050C00F4E04F1120502E0AC423FF4C2AE14F8F3
S2140050D0011B304601F098FE0028F5D1B9E6002BFA
S2140050E040F0CC81064801F065FE00283FF4B1AEE2
S2140050F0124C034E04F11C0529E000BF0000F0BF6F
S214005100801B0020D0A40200DCA40200A8A7020096
S214005110E4A40200FCA4020054A50200D4A70200E6
S214005120E00A002008000020580F0020E80A0020AF
S214005130E4A5020030A602007CA5020004A5020039
S214005140F4A40200ECA40200A5423FF482AE14F8D8
S214005150011B304601F058FE0028F5D179E6012102
S214005160B348B44C00F0A2FE0121B34800F09EFE06
S2140051702578002D40F04082B048002105F062FD01
S214005180AD4AAB4904F1080007F0D2FE002800F053
S214005190B6822046012300F8083B9FEDA11B0222A1
S2140051A09FEDA10B4FF4487108F084FB9FED9C1B0C
S2140051B002224FF448719FED9C0B04F1080008F0A2
S2140051C0A9FB9F4B04F1080093ED000B08F0F0FBE1
S2140051D041F288364CF2503304F108002A4629463C
S2140051E0C4F8C063C4F8C43308F0C8FB954801F09F
S2140051F0E1FD00283FF42DAE934C924E04F11E05BF
S21400520002E0AC423FF425AE14F8011B304601F034
S214005210FBFD0028F5D11CE6864C2378002B00F019
S214005220C181874B94F8CC6493F808E08748884F90
S2140052308849894D94F8A62394F83A32BEF1000FB7
S21400524008BF3846002E08BF294610AC8DE803007C
S214005250204682491EF0D2F87A4801F0ABFD0028BD
S2140052603FF4F7AD20461EF0EBFA00283FF4F1AD10
S214005270744E251802E0A5423FF4EBAD14F8011B6E
S214005280304601F0C1FD0028F5D1E2E56948037813
S214005290002B00F09B81083007F0CCFF694801F036
S2140052A089FD00283FF4D5AD6D4C664E04F1260509
S2140052B002E0AC423FF4CDAD14F8011B304601F0DD
S2140052C0A3FD0028F5D1C4E55A480378002B40F02A
S2140052D0FB810021564800F0E9FD5748002100F008
S2140052E0E5FD584801F066FD00283FF4B2AD5D4C80
S2140052F0544E04F10F0502E0AC423FF4AAAD14F898
S214005300011B304601F080FD0028F5D1A1E5494B90
S2140053101B78002B00F0C281494B53481B7A002BA8
S21400532040F0A08108F058FB53EC102B4E48CDE916
S214005330022308F065FB10AC8DED000BDDE90223BF
S21400534020464A491EF05AF83E4801F033FD002830
S2140053503FF47FAD20461EF073FA00283FF479AD87
S214005360384E251802E0A5423FF473AD14F8011B31
S214005370304601F049FD0028F5D16AE5314801F0D4
S21400538019FD00283FF465AD394C2E4E04F1130587
S21400539002E0AC423FF45DAD14F8011B304601F06C
S2140053A033FD0028F5D154E522480378002B00F0A1
S2140053B0E380083007F0E0FE224801F0FBFC0028FE
S2140053C03FF447AD2B4C1F4E04F11E0502E0AC42E5
S2140053D03FF43FAD14F8011B304601F015FD0028E0
S2140053E0F5D136E536B12FB1B8F1000F02D0002C5A
S2140053F040F0FE81134801F0DDFC00283FF429ADA3
S2140054001D4C104D04F1170602E0B4423FF421ADE6
S21400541014F8011B284601F0F7FC0028F5D118E522
S214005420000000000000F03F0000000000001440F4
S21400543040110020E00A0020D0120020001BB70018
S21400544008000020801B002090A60200C4A40200D2
S214005450BCA40200CCA40200C8A4020028A7020034
S21400546068A6020008A70200E80A002018A70200A3
S21400547094A7020048A602003CA50200B74801F027
S21400548099FC002840F0DE8010A8059AB4491DF06B
S214005490B5FFB24801F08EFC00283FF4DAAC10A845
S2140054A01EF0CEF900283FF4D4AC10ACAB4E251855
S2140054B002E0AC423FF4CDAC14F8011B304601F0DC
S2140054C0A3FC0028F5D1C4E4A64BA448012283F827
S2140054D0CC2401F06FFC00283FF4BBACA24C9F4EDE
S2140054E004F1180502E0A5423FF4B3AC14F8011B22
S2140054F0304601F089FC0028F5D1AAE4994B97487C
S21400550083F8CC2401F056FC00283FF4A2AC974C5C
S214005510924E04F1150502E0A5423FF49AAC14F849
S214005520011B304601F070FC0028F5D191E416B955
S214005530002F00F0FB809DED0E2B9DED081B9DEDD2
S214005540060BFFF787F98CE4894B84481A7201F042
S21400555031FC00283FF47DAC864C804E04F10D05EE
S21400556002E0A5423FF475AC14F8011B304601F08A
S2140055704BFC0028F5D16CE4784801F01BFC0028B1
S2140055803FF467AC7C4C754E04F11D0502E0AC425E
S2140055903FF45FAC14F8011B304601F035FC0028E0
S2140055A0F5D156E4724A94F8CC74157A734E744862
S2140055B0744B754A754910AC002D08BF0246002F83
S2140055C008BF334620461DF019FF45E6634801F044
S2140055D0F1FB00283FF43DAC674C604E04F11D051E
S2140055E002E0AC423FF435AC14F8011B304601F043
S2140055F00BFC0028F5D12CE4584801F0DBFB002812
S2140056003FF427AC624C554E04F10E0502E0AC4266
S2140056103FF41FAC14F8011B304601F0F5FB0028E0
S214005620F5D116E45B4C4D4E04F1110502E0A5429F
S2140056303FF419AD14F8011B304601F0E5FB0028D5
S214005640F5D110E5544C454E04F1110502E0A54293
S2140056503FF41AAF14F8011B304601F0D5FB0028C2
S214005660F5D111E708F0E0F953EC102B4B48CDE9E3
S214005670022308F0EDF95EE63D4B1B7A002B00F0A6
S214005680AC80474902209DED060B08F0F5F905466B
S214005690002F40F08D80D4F8B023BBE42F4801F0F3
S2140056A089FB00283FF4D5AB334C2C4E04F11D0586
S2140056B014F8011B304601F0A7FB00283FF4C9ABE5
S2140056C0A542F5D1FFF7C5BB083007F055FD00E64B
S2140056D0224801F06FFB00283FF4BBAB264C1F4E60
S2140056E004F11D0502E0A5423FF4B3AB14F8011B1C
S2140056F0304601F089FB0028F5D1FFF7AABB174812
S21400570001F058FB00283FF4A4AB264C134E04F1DE
S214005710450502E0A5423FF49CAB14F8011B304659
S21400572001F072FB0028F5D1FFF793BB0B4801F0A0
S21400573041FB00283FF48DAB1B4C084E04F11705C7
S21400574002E0A5423FF485AB14F8011B304601F099
S2140057505BFB0028F5D1FFF77CBB00BF801B002059
S21400576030A60200E00A0020A8A5020090A50200CC
S214005770080000206CA50200C4A50200C8A4020010
S214005780BCA40200CCA40200C4A4020060A70200CD
S214005790F8A60200C0A7020034A60200E80A00200D
S2140057A0200F0020B0A6020024A50200D4F8AC53B7
S2140057B01D4902209DED080B08F05EF9024629E41B
S2140057C03A463946194808F0D9F81948FEF784FED3
S2140057D01848FEF781FEFFF744BB174901209DEDF0
S2140057E0060B08F049F90546002F3FF454AF0AE4CB
S2140057F09DED0E4B9DED0C3B9DED0A2B9DED081B84
S2140058009DED060BFFF75CF9FFF72BBB9DED0E4BEE
S2140058109DED0C3B9DED0A2B9DED081B9DED060BAB
S214005820FEF77AFEFFF71DBB580F0020E80A00209F
S21400583004A6020098C90200200F00202DE9F043BC
S2140058404548C1B0002105F0FDF9FEF74DFDFEF715
S21400585029FE4248002105F0F5F9414801F0AAFA70
S21400586000285CD13F4DDFF8F880DFF814913E4EFB
S21400587000270FE00D2814D0B5F8C434FE2B25DC25
S214005880EA18013382F8D004A5F8C4343046394605
S21400589005F0D8F9404601F0ABFA431CF6D00A28CA
S2140058A0E8D1B5F8C434002BF0D02B44002483F89C
S2140058B0D04495F8D0349BB94FF480720021484606
S2140058C01DF0FCFA0023A5F8C434DFE700231946D0
S2140058D04FF480724846A5F8C4341DF0EFFAD5E7B9
S2140058E0FF22494668461EF06BF868468DF8FF4072
S2140058F01DF0A6FF0CE01DF80320A2F16101192996
S21400590005D8203A68460DF803201DF099FF0134AB
S214005910A3B29842EFD86846FFF77EFACCE7134862
S214005920104DFEF7D9FD1248FEF7D6FD2B7833B1A1
S2140059301048FEF7D1FD0E48FEF7CEFD93E70E4861
S214005940FEF7CAFD0A48FEF7C7FD0C48FEF7C4FD81
S2140059500748FEF7C1FD86E70087930300366E0111
S214005960801B0020E00A0020C0D40100ECA7020043
S21400597098C902000CA802004CA8020084A80200E5
S214005980B00F0020406820B14B68C01AB0FA80F013
S21400599040097047F8B5436833B11E6826B11AB19E
S2140059A011B11B7A042B02D000242046F8BDB6F8AD
S2140059B06440944228BF14460546A2B230460123EE
S2140059C010F0E0FD0028EFD16B68186811F0F4F8CD
S2140059D00028E9D105F00CF96B681B68B3F866304F
S2140059E0032B0646E1DD084F08E0386805F05CFF4B
S2140059F06B681B68B3F86630032BD6DD05F0F8F845
S214005A00801B0428F1D9D0E7F0220020044A026067
S214005A104FF4FA610022018142608272704700BF33
S214005A20D0A802000020704790F91800704700BF09
S214005A30062070470120704790F81401704700BF99
S214005A408079704738B583798B4200F0A780A1F142
S214005A5009030D460446032B00F2A280DFE803F09C
S214005A607A464602303007F079F872B6D4F8B400B9
S214005A7003680022A4F810213BB1D4F8C410D4F86F
S214005A80C0200B681340FCD10360D4F8BC00036848
S214005A900022A4F812213BB1D4F8CC10D4F8C820C8
S214005AA00B681340FCD10360D4F8A4103D4A91F96A
S214005AB00130897802EBC3130B440C2093F8401096
S214005AC041F0010183F84010D4F8A81091F9013094
S214005AD0897802EBC3130B4493F8402042F001028E
S214005AE083F84020A07162B6012038BD303007F040
S214005AF035F872B6D4F8BC0003680022A4F8122168
S214005B003BB1D4F8CC10D4F8C8200B681340FCD1B5
S214005B100360D4F8A410234A91F90130897802EB87
S214005B20C3130B4493F840106FF3000183F8401042
S214005B30D4F8A81091F90130897802EBC3130B440E
S214005B4093F8402042F0010283F84020A57162B627
S214005B50012038BD303007F001F8D4F8A410114AFF
S214005B6091F90130897802EBC3130B44092593F8A9
S214005B7040106FF3000183F84010D4F8A81091F994
S214005B800130897802EBC3130B44012093F84020C0
S214005B906FF3000283F84020A57138BD012038BDA0
S214005BA0002038BD0080004183790A2B0FD090F882
S214005BB03D30A3B1D0F8A430D0F8B02093F901302E
S214005BC0DB0103F1824303F500435A61704790F806
S214005BD0FC309B07EBD590F83D30002BEAD0D0F890
S214005BE0A430D0F8B02093F90130DB0103F18243F2
S214005BF003F500439A617047A0F13000D4E700BF78
S214005C002DE9F047089FBDF82490BDF8288004468B
S214005C1016468A463A4600211D460BF0A9FA04F1BC
S214005C20300006F069FF6A4BC4F8A0A003F13C02FE
S214005C30C4F8A460C4F8AC702360C4F8A85022630B
S214005C40B2786449DFF898A1634F012303FA02F2A1
S214005C50C4F8B020AA7884F8D69003FA02F24FF07F
S214005C60020C4FF07D0E0020C4F8B82084F8D780D0
S214005C700022A4F8E2C04FF019084FF6FF7CA4F803
S214005C80F8E04FF003094FF0FF3E84F8D820A4F860
S214005C90DA20A4F8DC20A4F8DE20A4F8E02084F8BB
S214005CA0E42084F8F52084F8F620A4F8FC2084F894
S214005CB0002184F80121C4F8F0A084F8F490A4F838
S214005CC0D0C0A4F8D2C0A4F8D4C0C4F8E880C4F801
S214005CD0ECE0C4F80421C4E94C01C4E95001C4E96D
S214005CE05401C4E95601C4F80821C4F8102184F808
S214005CF0142184F81521C4F81821C4F81C21C4F80E
S214005D00202184F8382184F8482184F86021C4F8DA
S214005D106421C4F86821C4F86C21C4F87021C4F862
S214005D207421C4F87821C4F87C2184F8882184F88A
S214005D30892184F88A21C4F88C21C4F80C81C4F81F
S214005D402831C4F880E1C4F884E16376337B042B01
S214005D5098BF224A57F82300767B98BFD25CB6FBE2
S214005D60F2F102FB11624FF48073D2B202F11C0111
S214005D7003FA02F200EB810102F47C520830C4F808
S214005D80B410C4F8C400C4F8C0202A7B687B57F857
S214005D902210042A9ABF114B9A5C0022B0FBF2F341
S214005DA002FB1303DBB24FF4807203F11C0002FA0D
S214005DB003F301EB800003F47C530831C4F8BC0005
S214005DC0C4F8CC10C4F8C8302046BDE8F08700BF41
S214005DD0FCA802000000F03FE0A80200D8A80200DD
S214005DE0003C1CC691B1DAB190F864319B0770B5DF
S214005DF00C461646054602D5303006F0AFFE0123A7
S214005E00C5F81861204685F8153170BD80F8151163
S214005E10C0F81811C0F81C11C0F8201101207047F6
S214005E201046704790F81521002A38D082790A2A41
S214005E3070B5044600D070BD90F83D20CB0F81EAC7
S214005E40E1769A420D46A6EBE17604D0026880F829
S214005E503D30136B9847A06B636CB042A8BF3046CA
S214005E60002DB4BF424202461344D4F8BC506364CB
S214005E702B68A4F8120186B2B34207D0D4F8CC102F
S214005E80D4F8C8200B681342FCD12E60002894F882
S214005E90643105DD43F0020384F8643170BD704759
S214005EA06FF3410384F86431C5E700BF30B590F85E
S214005EB07A3183B00446002B71D190F8793183F0A3
S214005EC0010394F8002194F801518A4231D094F8E5
S214005ED0140184F80011002284F80121C4F8082176
S214005EE058B3002172B66BB371B340F2E24201239D
S214005EF0C4F87C2184F8793162B6A3790A2B2AD0BB
S214005F0094F889318B4235D0D4F8A03000293BD1A3
S214005F10BFF35B8F2D4ADB4352E8000F184042E880
S214005F200005002DF8D1BFF35B8F84F8891103B00C
S214005F3030BD94F81421002A33D10029D1D072B68E
S214005F40002BD1D10029D7D1002384F87A3162B64C
S214005F50A3790A2BD4D119B994F864319A0728D4B6
S214005F6094F8FC30DB0794F8893148BF81F00101D2
S214005F708B42C9D1002DD8D094F80131002BD4D152
S214005F80D4F8A0300029C3D0BFF35B8F0F4A52E885
S214005F90000F184342E80005002DC4D0F7E70023A1
S214005FA08FE7002284F8001184F80121C4F8082144
S214005FB097E794F87431019143F0100384F8743134
S214005FC004F1300006F0CAFD0199C9E7C42100209B
S214005FD090F87831002B4AD0354A90F80131126893
S214005FE000B512698BB990F88A31012B22D0022BAA
S214005FF03BD190F8F430002B45D1D0F88C31002BF3
S2140060003CD180F88A315DF804FBD0F80431D0F832
S2140060100C11D31A8B422BD3D0F80831C0F80421C8
S214006020013BC0F808314BB980F8013190F88A314D
S214006030012BDCD1022380F88A31DAE71D4BD0F839
S214006040A020BFF35B8F53E8001F514043E8001EBB
S214006050BEF1000FF7D1BFF35B8F90F88A31012BAA
S214006060C5D190F80131002BE4D05DF804FB7047F1
S21400607090F88A31022BBCD05DF804FB013BC0F8D7
S2140060808C315DF804FB002200F5BA73BFF35B8F1A
S21400609053E8001F21F0200143E8001EBEF1000F68
S2140060A0F6D1BFF35B8F80F88A215DF804FB00BF52
S2140060B0E4220020C421002090F87A3170B504460E
S2140060C080F81411002B63D190F8793183F0010326
S2140060D094F8016139BB94F8005172B65BB365B3AE
S2140060E040F2E2420123C4F87C2184F8793162B69A
S2140060F0A3790A2B28D094F88931AB4233D0D4F850
S214006100A030002D39D1BFF35B8F284ADB4352E81D
S214006110001F194042E800100028F8D1BFF35B8F3B
S21400612084F8895170BD002584F80151C4F80851DF
S21400613072B6002BD3D1002DD9D1002384F87A3142
S21400614062B6A3790A2BD6D11DB994F864319A07A2
S21400615020D494F8FC30DB0794F8893148BF85F0EA
S2140061600105AB42CBD1002EDAD094F80131002BDA
S214006170D6D1D4F8A030002DC5D0BFF35B8F0B4A24
S21400618052E8001F194342E800100028C6D0F7E77F
S21400619000239DE794F8743143F0100384F87431BB
S2140061A004F1300006F0DAFCD3E700BFC42100207B
S2140061B0F8B590F8783103B9F8BD04460AF028FF20
S2140061C0A379984A94F8D6100A2B08BF94F8FC30A6
S2140061D052F8217008BFC3F3800694F8D830BD7A11
S2140061E003F1FF3318BF0026012BEDB240F2DF802B
S2140061F094F8283073408C4A84F8F430C4F8F020C1
S214006200B4F9D010481C12D0884803F0D1FE0368B9
S2140062109B6805469847092800F0658228460AF0DC
S2140062207DFE011C18BF01212046FFF73FFEB4F992
S214006230D2104A1C16D0A3790A2B39D07B4803F01B
S214006240B7FE03689B6805469847092800F0D0808B
S21400625028460AF063FEA379092B00F0D3800B2BA7
S21400626000F0D080B4F9D4104B1C21D0A3790A2BAF
S2140062701ED06E4803F09CFE03689B680546984750
S214006280092800F04C8228460AF048FEA379092B1C
S2140062900ED1D4F8A830D4F8B82093F90130DB0139
S2140062A003F1824303F50043002800F0CC815A61D5
S2140062B0B4F980114F1C10D05C4803F079FE0368D7
S2140062C09B6805469847092800F075812B68284684
S2140062D01B689847042800F06E81B4F984114E1CA0
S2140062E015D0524803F064FE03689B68054698473D
S2140062F0092800F0EE8128460AF010FE94F8403097
S214006300B0FA80F0400960F3C30384F84030B4F973
S21400631082114D1C15D0454803F04AFE03689B6861
S21400632005469847092800F0D98128460AF0F6FD68
S21400633094F84030B0FA80F0400960F3041384F813
S2140063404030B4F98611D4F86451D4F87461481C0E
S21400635000F02A81354803F02BFE03689B68074649
S2140063609847092800F0D38138460AF0D7FDB0FADE
S21400637080F77F0994F83C30002B40F0298184F8A0
S214006380883194F83E1067F31045002952D194F8EE
S214006390642192074ED594F83D0094F840200028DA
S2140063A000F04A81D70649D546F0040646E0AA071B
S2140063B000F074813323BB72B4F8E230012293FA02
S2140063C012F39AB2003218BF0122A4F8E23084F821
S2140063D07B21EB0600F16B8194F87B31002B40F0BB
S2140063E00781D4F8E83003EB8303A4F8F83007E716
S2140063F00F4BB4F9D21018680BF0E6FDA379092B01
S2140064007FF42DAFD4F8A430D4F8B02093F901303F
S214006410DB0103F1824303F50043002800F01181FD
S2140064205A611FE744A90200003C1CC6CC2000208D
S214006430FC25002094F83D0094F84020C2F3C007E5
S21400644067F38E35C2F3001294F8017162F3CF350C
S21400645067F34D3560F3C305002B00F0A380981F4B
S21400646018BF012094F87A2160F34105002A00F055
S214006470938094F8F40011B1AF0740F1D7806FF322
S2140064800005032B69D015F0020340F0C6800029F2
S21400649063D063F3820594F8793161F3861560F36F
S2140064A0C815002B5DD0D4F87C31002B40F3268134
S2140064B062F345150122013B62F38C25C4F87C315A
S2140064C005F002031BB1B30648BF46F00106321CB6
S2140064D018BF0122D4F87031C4F8746162F34925FC
S2140064E0C4F8645125EA030304F5B472BFF35B8F66
S2140064F052E8001F194342E800100028F8D1BFF305
S2140065005B8FD4F87021BFF35B8F04F5B67322EA75
S214006510050553E8002F2A4343E800210029F8D157
S214006520BFF35B8FA379D4F86421C4F870210A2BDB
S2140065307FF442AE94F81531002B00F09480D4F826
S2140065401801002800F08F80D4F81C319C427FF49C
S21400655033AEBDE8F84006F0CFBE031C18BF0123DB
S21400656097E762F34515002A3AD094F8D83033B945
S21400657038B905F00203042262F38C25A2E700284E
S21400658063D015F00203F6D1032262F38C2563F381
S214006590041505F0020395E762F3000594F8F4008D
S2140065A0134676E718465DE794F83C3093BB84F8CC
S2140065B088311F46E5E694F8D81081B32B6894F826
S2140065C0F4105B6909B194F87A112846984784E676
S2140065D007B394F88811002900F0AC800F46D0E687
S2140065E062F38C25AA077FF572AF46F010066AE7BD
S2140065F094F8283094F8F5107340DAB2914200F01F
S214006600BF80D4F8E83084F8F52003EB8303A4F8C1
S214006610F830F5E594F88871B3E6002339E794F886
S214006620F4202B68012A5B69CFD1CCE701287FF4E0
S21400663026AF45F0010524E7170748BF46F00206D7
S214006640FCE69A610EE69A6132E6022363F38C2535
S21400665045F0100504F1300006F080FA46F02006FA
S21400666005F002032EE704F13005284605F0CEFFBC
S214006670284606F0EDFAD4F8BC50606B2A68A4F8F9
S214006680120180B282423FF497ADD4F8CC10D4F811
S214006690C8200B681342FCD12860F8BD04F0A8FAA5
S2140066A0D4F8EC30C01A03283FF684AE91E604F026
S2140066B09FFAB4F8E230C4F8EC00002B46D0302342
S2140066C0BB72002294F87B3184F8F620A4F8E2200E
S2140066D084E62B6828461B6998470FE62B682846F1
S2140066E01B69984724E64E4BB4F9D01018680BF097
S2140066F06BFC01462046FFF7D9FB98E501220023F4
S21400670045F0200584F87A2184F879312DE73B6836
S21400671038461B699847B0FA80F77F092AE6404B4F
S214006720B4F9D41018680BF04FFCA379092B3FF48A
S214006730B0ADBDE504F1300006F02AFA012384F876
S214006740883146F0080694F83C301AE6AD067FF528
S21400675043AEB4F8DC10B4F8E020A4F8DA10A4F8DD
S214006760DE20F88BA4F8DC0094F8F600BD8BA4F8C5
S214006770E05070B994F87B31012284F8F6202DE6BB
S214006780B4F8F820002A3FF436AD013AA4F8F82011
S21400679036E507EE901AB8EE677A07EE902AF8EE1E
S2140067A0677A84F87B31C7EE276A16EE900A19F0EE
S2140067B017FE17A3D3E9002319F0B2FC16A3D3E9FA
S2140067C0002319F061FE1AF057F907EE900A1EB181
S2140067D09FED147A77EE677A94F8D830C4ED3C7A59
S2140067E0022B04D0022384F8F4300023C4E717EE0B
S2140067F0900A19F0F5FD00220B4B19F091FC0246A9
S2140068000B4619F08FFC1AF037F9C4F8F000E9E7E8
S2140068109A9999999999A93F721CC7711CC75B40B0
S214006820FC2500200000C842000049402DE9F8433E
S21400683004460F469046002A54D1456C4D1BED0F7A
S214006840D4F87431002B4BD094F8743143F0010324
S21400685084F87431002694F8003133B994F8742122
S21400686042F010021E4684F87421B4F98611481CC2
S21400687016D0294803F09CFB03689B68814698471E
S214006880092840D048460AF049FBB0FA80F0400993
S21400689030B194F8743143F0080384F8743100265C
S2140068A094F840306DB1D90626D496B101234246FD
S2140068B0394684F83E3004F13000BDE8F84305F070
S2140068C021BE1A07F1D594F8743143F0020384F818
S2140068D0743194F864319B0706D40020BDE8F88331
S2140068E00126B8E7CD0FABE704F13000002106F033
S2140068F04FF90020BDE8F88394F8743143F00403A0
S21400690084F87431E5E7D9F8003048461B699847A3
S214006910B0FA80F04009BBE7CC200020A0F13000A0
S214006920FFF784BFF8B5D0F8743104460E46002B46
S2140069304AD090F8743143F0010380F87431002592
S21400694094F8003133B994F8742142F010021D46D1
S21400695084F87421B4F98611481C16D0264803F032
S21400696027FB03689B680746984709283CD03846AB
S2140069700AF0D4FAB0FA80F0400930B194F87431D5
S21400698043F0080384F874310025002E94F8403054
S2140069900CDAD90621D48DB10023314684F83E3076
S2140069A004F13000BDE8F84005F0E6BD1A07F2D560
S2140069B094F8743143F0020384F8743194F8643127
S2140069C09B0703D40020F8BD0125B9E704F1300089
S2140069D0002106F0DDF80020F8BD94F8743143F08D
S2140069E0040384F87431E9E73B6838461B69984726
S2140069F0B0FA80F04009C0E7CC200020A0F13000BB
S214006A00FFF790BFF8B5D0F8A430BC4D93F901302D
S214006A10D0F8B02005EBC31304469A61D0F8A8302E
S214006A20D0F8B82093F9013005EBC3130E469A61EF
S214006A300021FFF73BFA314620460AF083FAD4F8E5
S214006A40A43093F90120987805EBC212131800279A
S214006A5083F84070D4F8A81091F901308E78DB01E5
S214006A60E9188D1903F1824385F84070D4F8B050C8
S214006A709560D4F8B8508D6002EB500210F0010F0C
S214006A8092F830104FF0050003F5004314BF60F392
S214006A90071160F3030103EB560382F8301093F8F6
S214006AA03020F0074FF005014CBF61F3071261F389
S214006AB0030283F830202368914A5B68934240F0D3
S214006AC01981A379092B22D004F1300006F046F88C
S214006AD0D4F8A410894B91F90120897803EBC212EF
S214006AE00A44092092F840106FF3000182F8401023
S214006AF0D4F8A82092F90110927803EBC11313443E
S214006B0093F840206FF3000283F84020A071E368FA
S214006B102269DB0103F1824101F5004101EB5201DC
S214006B2003F1824391F8300012F0010503F50043AB
S214006B30134414BF6FF3071065F3030081F83000A9
S214006B4093F840206F4942F0010283F8402094F801
S214006B50D60051F820301A686FF341021A601A699D
S214006B609207FCD41A6842F001021A601A6912F001
S214006B700102FBD11D68644962F305151D601D689E
S214006B8062F314551D601D6862F355551D601D683F
S214006B9045F480351D601D6845F400351D601D6890
S214006BA062F3CB251D601D6862F30A251D601D6813
S214006BB045F080051D601D6845F040051D601D6898
S214006BC062F383051D60DD88052666F30205DD8019
S214006BD0DD8845F02005DD80DD8862F30C35DD803C
S214006BE0DD8862F34D35DD80DD8862F30825DD80C3
S214006BF0DD8845F01005DD800D7862F341050D70E7
S214006C00D4F8AC208E68D5780122AA4016438E6050
S214006C10EF088E69BF0007F1804E16430EF5205E22
S214006C208E6105F00706DEF81CC0B7000426BE40DD
S214006C3046EA0C06CEF81C60CE6892B262F30F06E7
S214006C40CE600A7842F002020A704A6812F0020227
S214006C50FBD194F8D7E02D490EF12B073E4651F8AC
S214006C6027C062F3861C41F827C051F82620570635
S214006C70FBD451F82620254F4FF0060C6CF3030288
S214006C8041F8262051F8262042F0400241F82620FE
S214006C907A6812F0180FFBD11D4A1E4E74300EF1A2
S214006CA001010FFA8EFE42F8201006EBCE02917913
S214006CB041F002019171D179C807FCD4123505F074
S214006CC07F0545F4007546F83E50D1798907FCD417
S214006CD01A6842F002021A601A6912F00202FBD128
S214006CE00123C4F86421C4F86821C4F86C2184F830
S214006CF07831F8BD09212046984708E70080004112
S214006D00455A000044A9020000280040001C00402C
S214006D1000E0004120E000414FF0FF30704700BF28
S214006D20A1F10200B0FA80F04009704702207047D7
S214006D30A1F10100B0FA80F040097047A1F1080007
S214006D40B0FA80F040097047807A7047A0F10400DE
S214006D50FAE700BF807A401AB0FA80F04009704720
S214006D60A0F10400F6E700BF08207047A0F1040079
S214006D70FAE700BF00207047A0F10400FAE700BF62
S214006D801123818183727047A0F10400F8E700BFE9
S214006D90704700BFA0F10400FAE700BF014B186877
S214006DA000F05EBEB4100020014B186800F066BE0E
S214006DB0B4100020014B186800F07ABEB410002012
S214006DC0014B186800F030BEB4100020014B186864
S214006DD001F004BAB4100020014B186800F01CBE85
S214006DE0B4100020014B186800F018BEB410002044
S214006DF0014B186800F07ABEB4100020014B1868EA
S214006E0000F0A0BFB4100020014B186800F0A6BF29
S214006E10B4100020014B186800F0D4BFB410002056
S214006E20014B186800F0D6BFB41000200368044A6F
S214006E301B6B934203D1034B186800F039BE18470A
S214006E40B56D0000B4100020A0F10400EEE700BF0E
S214006E5008B50368064A1B6B934205D1054B1868B4
S214006E6000F026FE00B208BD984700B208BD00BF7D
S214006E70B56D0000B4100020A0F10400E8E700BFE4
S214006E8008B5036861B90B4ADB68934205D10A4B23
S214006E90186801F0A3F9012008BD9847012008BD35
S214006EA0064A9B689342F8D1034B186800F0BCFD75
S214006EB0012008BDCD6D0000B4100020C16D00009B
S214006EC0A0F10400DCE700BF30B583B01A4DADF882
S214006ED004009DF804102B6811F00104A3F81201B9
S214006EE012D12146204607F07DFE2146012007F0FC
S214006EF079FE07F06BFE07F0A3FE0368B3F5966F06
S214006F0012D0002003B030BD0C49002007F06AFE06
S214006F100B49012007F066FE28684021803007F004
S214006F202DFE002003B030BD0121064803F0FCFA18
S214006F30002003B030BD00BFB4100020496F000031
S214006F4081710000CC2000202DE9F04F83B072B68E
S214006F508A490B6803F18000C3F81821C3F81401AE
S214006F6062B6086872B6D0F80431D0F80021D0F8BE
S214006F7018419B1A48BF4033002C00F0D680D3F14E
S214006F803F0300F0D280D0F80451D0F81421A34279
S214006F9028BF2346C5F14001994228BF1946461925
S214006FA0002900F0E8802C1D0444171DBE4238BF9F
S214006FB0A242C0F0CE800B2940F2CB80544214F09F
S214006FC0030400F0B78017784755012C06F1010C32
S214006FD002F1010800F0B08057787770022C06F1B5
S214006FE0020C02F1020800F0A7809778B77006F14D
S214006FF0030C032602F103080196A1EB040BABF188
S2140070000406B6082F1901364FEA860907441444C9
S2140070104FF0000E0EF1010E54F804AB47F804AB27
S2140070207645F7D8019CCB454C440CEB090708EB9A
S214007030090E00F0898018F826800CF82680661C59
S214007040B14240F2818002349EF801607E70A14217
S2140070507AD99EF80240BC705618D0F81421D0F8A1
S21400706018410A44641A5B1AC0F81421C0F8184183
S21400707064D0311D021D964238BF8842044671D343
S2140070800B2B6FD9724212F003025FD03178017079
S214007090012A00F1010406F1010E58D07178417002
S2140070A0022A00F1020406F1020E50D0B178817077
S2140070B0C41C06F1030E0327A3EB020CACF104017B
S2140070C089084D1C16444FEA850802440021013108
S2140070D056F8049B42F8049B8D42F8D8C44507EB4B
S2140070E0080204EB08010EEB08060DD01EF825700A
S2140070F004F82570541CA34206D9023274784C70EA
S214007100934201D9B2788A70D0F81421D0F8184189
S214007110C0F804311A44E41AC0F81421C0F8184123
S2140071201CB98030402107F029FD62B6012003B06B
S214007130BDE8F08FB446904601945EE7294401F01E
S2140071403F01C0F80411EBE7561886E7B646174627
S214007150B2E7741E561812F8017B04F8017FB2429B
S214007160F9D17AE7421EF41816F8011B02F8011F3F
S214007170B442F9D1C8E7164673E700BFB410002042
S2140071802DE9F04FD84883B0002940F0AB81016864
S214007190D1F808311A4402F03F02C1F80821002352
S2140071A0BFF35B8F81F81031BFF35B8F0468BFF3CA
S2140071B05B8F4FF0010104F58873D3E84F2FC3E8C7
S2140071C0401F0028F9D1BFF35B8F12F0FF0F40F08D
S2140071D0DC80D4F80861D4F80C118E4200F091815E
S2140071E004F1400202EB060704F1C00EC0F0D180A5
S2140071F0C6F140031944402928BF40218B4228BFCE
S2140072000B46002B00F0A18106F1400506F1440C68
S2140072106019A44404F1C408404538BFE645C0F0F0
S2140072208A810B2B40F28781404210F0030000F069
S2140072306181965D84F8C060012804F1C10C07F1F5
S214007240010800F059817E7884F8C160022804F1B4
S214007250C20C07F1020800F04F81BE7884F8C260C5
S214007260032607F1030804F1C30C0196A3EB000BF9
S214007270ABF10406B60805440136C0302544204468
S2140072804FEA86090027013755F804AB40F804ABEF
S214007290B742F8D30198CB4548440CEB090508EBF8
S2140072A009070DD018F826800CF82680461CB34235
S2140072B006D902307E786E70834201D9B878A870FD
S2140072C00EEB0300CB1A00F0FC8004F14405061D0B
S2140072D0B24238BFA842C0F025810B2B40F2228173
S2140072E0554215F0030500F0098194F8402002701D
S2140072F0012D00F1010804F1410200F0008194F82C
S21400730041204270022D00F1020804F1420200F012
S214007310F68094F84220827000F1030804F14302DC
S2140073200327A3EB0509A9F10406B60805F1400CEE
S21400733001362844A4444FEA860B4FF0000A0AF1AF
S214007340010A5CF8045B40F8045B5645F7D8D9455B
S2140073505F4408EB0B0002EB0B0500F0B28012F85E
S214007360262008F826207A1C934240F2AA8002378C
S2140073706A784270BB4240F2A480AB788370704655
S21400738007F010FC002840F0A280012003B0BDE802
S214007390F08F891B06F1400306F14400402904EBF8
S2140073A00308204404F1C40528BF4021A84538BF7F
S2140073B08645C0F0AD800B2940F2AA80C8F10008CF
S2140073C018F0030800F09280925D84F8C020B8F1AF
S2140073D0010F04F1C10507F1010600F089807A78F3
S2140073E084F8C120B8F1020F04F1C20507F10206C5
S2140073F07ED0BA7884F8C220FE1C04F1C3054FF094
S2140074000309434408F1C000E2582250A1EB0808E3
S214007410A8F1040223449208013220445F684760C2
S214007420022A4FEA820C35D09F688760032A31D043
S214007430DF68C760042A2DD01F690761052A29D096
S2140074405F694761062A25D09F698761072A21D090
S214007450DF69C761082A1DD01F6A0762092A19D08A
S2140074605F6A47620A2A15D09F6A87620B2A11D084
S214007470DF6AC7620C2A0DD01F6B07630D2A09D07E
S2140074805F6B47630E2A05D09F6B87630F2A01D078
S214007490DB6BC363E045E14405EB0C0306EB0C0035
S2140074A00FD016F8226005F8226009F10102914219
S2140074B007D909F1020942785A70494501D98278FC
S2140074C09A70704607F06EFB00283FF45EAFBFF37D
S2140074D05B8F002384F810310120BFF35B8F03B06D
S2140074E0BDE8F08F01685AE6B41000203E467546A7
S2140074F0C14686E7B846F4460190B7E680462F4672
S2140075000FE7BFF35B8F84F81021BFF35B8F3CE778
S21400751004F1BF03781817F8012B03F8012F8742F0
S214007520F9D1CEE70138134412F8015B00F8015F89
S2140075309A42F9D1C5E704F1BF00FE1817F8015BBF
S21400754000F8015FBE42F9D1BAE67046BAE600BF5F
S21400755070B5164E346814F0010402D0144B186847
S21400756070BD4FF490700FF09FFF054600F180034A
S214007570C0F800410F49C5F80441C5F81431C5F8F4
S2140075800841C5F81841C5F80C4185F81C4185F836
S2140075901041A5F8124185F81141032007F022FB9F
S2140075A0034A012315602846336070BDB0100020E2
S2140075B0F8100020C96E00002DE9F041C74AD2F845
S2140075C0A8306FF386138CB0C2F8A830D2F8A83073
S2140075D05906FBD4D2F8A830C049042060F3030350
S2140075E0C2F8A830D2F8A83043F04003C2F8A8305A
S2140075F04B68DB06FCD4BA4BBA491A6942F480627F
S2140076001A619A6942F001029A61A1F1D700032239
S21400761007F08AFE0446002800F09C81B24B0FCB90
S2140076208DE80F0003681D0FE8B2C3F3036800F18E
S21400763030073730092D88BF07465FFA88F0C3F356
S214007640035600F1300C3730B8F1090FC8BF844636
S214007650F0B2C3F303458DF811C000F1300C37309B
S214007660092EC8BF8446E8B2C3F3033E8DF812C0A5
S21400767000F1300C3730092DC8BF84465FFA8EF013
S2140076808DF810708DF813C0C3F3032700F1300C8B
S2140076903730BEF1090FD4BFE6468646F8B2C3F3CC
S2140076A003160A468DF814E000F1370E3030092F25
S2140076B0CCBF77460746F0B212688DF8157003F017
S2140076C00F0300F137073030092ECCBF3E46064682
S2140076D0D8B2150F8DF8166000F137063030092B3A
S2140076E0CCBF33460346E8B2C2F3036C8DF81730BE
S2140076F000F137033030092D88BF18465FFA8CF347
S214007700C2F3035E8DF8180003F137003033BCF186
S214007710090FCCBF84469C465FFA8EF3C2F303473C
S2140077208DF819C003F1370C3033BEF1090FD8BFFE
S2140077309C46FBB2C2F303368DF81AC003F1370C31
S2140077403033092FD8BF9C46F3B2C2F303258DF819
S2140077501BC003F1370C3033092ED8BF9C46EBB262
S214007760C2F3031002998DF81CC003F1370C3033B6
S214007770092DCCBF65461D46C3B209688DF81D505D
S21400778002F00F0203F1370530330928CCBF284634
S2140077901846D3B24FEA117E8DF81E0003F137006B
S2140077A03033C1F30367092ACCBF02461A465FFA94
S2140077B08EF5F8B28DF81F2005F137023035C1F38B
S2140077C00356BEF1090F88BF154600F13702303068
S2140077D0092FC8BF1046F3B203F137028DF8210017
S2140077E03033C1F30340092EC8BF1346C2B2C1F3FB
S2140077F0033E02F1370830320928D8BF90465FFAB8
S2140078008EF2C1F303278DF822302046039B8DF8B5
S214007810205002F137043032BEF1090FD8BF1446AB
S214007820FAB21B688DF82440C1F3031602F1370440
S2140078303032092FCCBF27461746F2B201F00F01AF
S2140078408DF8257002F137073032092ECCBF3E4640
S2140078501646CAB21D0F8DF8266002F13706303282
S2140078600929CCBF31461146EAB2C3F3036C8DF842
S214007870271002F130013732092D88BF11465FFA12
S2140078808CF2C3F3035E8DF8281002F13001373214
S214007890BCF1090FD4BF8C4694465FFA8EF2C3F350
S2140078A0034402F137013032BEF1090FCCBF8E46D9
S2140078B09646E1B2C3F303378DF82AE001F1370E9E
S2140078C03031092CD8BF8E46FAB2C3F303268DF8A2
S2140078D02BE002F1300E373208E000BF001C0040FB
S2140078E000080040F300002058AA0200092FD4BF69
S2140078F077461746C3F30315F4B203F00F03DAB264
S214007900E9B28DF82C7004F130073734092ED8BF51
S2140079103C4601F1300E02F1300737313732092D7F
S214007920D8BF7146092BD4BF3B4613468DF82E10A0
S2140079308DF82F308DF823808DF829C08DF82D40D6
S2140079400DF10F030DF12F0113F8012F20F8022F70
S2140079508B42F9D12A4B2B4A2B4F2C4D2C48802199
S2140079604FF080764FF0804482F8501382F851131F
S21400797082F8521382F853139E609C629F625E6187
S21400798093F8582002F0FB0283F8582093F858200A
S21400799002F0FE0242F0010283F8582093F83C20E1
S2140079A002F0F0024FF0007142F0070283F83C202C
S2140079B099609C629D62596193F8592002F0FB021F
S2140079C083F8592093F8592002F0FE0242F0010293
S2140079D083F8592093F83C2002F00F0242F0700220
S2140079E083F83C2007F0F2FB07F0AAF8094807F0F6
S2140079F011FC07F027FC01200CB0BDE8F08100BFA9
S214007A000080004100E100E0000100C0000200C06C
S214007A10B8100020140000200120704708B507F0B9
S214007A200FF9006808BD00BF38B590F81C3103B1E7
S214007A3038BD04460125184684F81C51064907F04F
S214007A40D1F82846054907F0CDF804F1800040211A
S214007A50BDE8384007F092B8496F00008171000019
S214007A6003460022C0F80021C0F81821C0F80421FF
S214007A704021803083F8112107F080B838B50446DD
S214007A804FF08245D4F80821D4F80C319A4200D140
S214007A9038BD07F0CFF80028FAD094F81231DB078B
S214007AA0F6D56B7B03F07F03022BEBD038BD00BF0F
S214007AB038B5054607F0BEF8044670B195F8124191
S214007AC014F0010409D04FF082435C7B04F07F047D
S214007AD0A4F10204B4FA84F464090348002103F014
S214007AE0B1F8204638BD00BF804F1200D0F80031F4
S214007AF0D0F80421934200F016812DE9F04F5A1C6D
S214007B0002F03F02C45CC0F8002183B072B6D0F821
S214007B100431D0F80021D0F818519B1A48BF4033E2
S214007B20002D00F0E380D3F13F0300F0DF80D0F8B3
S214007B300461D0F81421AB4228BF2B46C6F14001A1
S214007B40994228BF19468719002900F0F880351D8C
S214007B50054402F1040E774538BFAA42C0F0DA8029
S214007B600B2940F2D780554215F0030500F0C3807C
S214007B7092F800E000F806E0012D07F1010802F196
S214007B80010900F0BA8092F801E087F801E0022DC2
S214007B9007F1020802F1020900F0AF8092F802E055
S214007BA087F802E007F10308032702F103090097AC
S214007BB0A1EB050BABF10407BF0806EB050E01377A
S214007BC04FEA870A864415444FF0000C01940CF1E6
S214007BD0010C55F8044B4EF8044B6745F7D8009D4A
S214007BE0019CD345554408EB0A0E09EB0A0C00F03D
S214007BF08C8019F8279008F827906F1CB94240F23D
S214007C00848002359CF801708EF80170A9427CD9F8
S214007C109CF802508EF802505718D0F81421D0F86D
S214007C2018510A446D1A5B1AC0F81421C0F818518E
S214007C3065D0011D3A1D904238BF8F42054675D368
S214007C400B2B73D9424212F0030260D039780170D0
S214007C50012A00F1010507F1010E59D0797841702B
S214007C60022A00F1020507F1020E51D0B9788170A0
S214007C70C51C07F1030E4FF00308A3EB020CACF192
S214007C80040189084E1C17444FEA86090244002165
S214007C90013157F804AB42F804AB8E42F8D8CC4515
S214007CA008EB090205EB09010EEB09070DD01EF8DB
S214007CB026E005F826E0551CAB4206D902327D7850
S214007CC04D70934201D9BA788A70D0F81421D0F852
S214007CD01851C0F804311A44ED1AC0F81421C0F83F
S214007CE018511DB98030402106F048FF62B620B218
S214007CF003B0BDE8F08FB8469146009558E731448A
S214007D0001F03F01C0F80411EBE7571885E7BE46BF
S214007D109046B2E77D1E571812F801EB05F801EF02
S214007D20BA42F9D179E74FF0FF307047421EFD188E
S214007D3017F8011B02F8011FBD42F9D1C5E7174627
S214007D406FE700BFD0F80421D0F800319A421ABF7E
S214007D50D0F80031C05C4FF0FF30704770B5044675
S214007D600E464FF0824506F065FF50B394F81201B8
S214007D7010F0010025D06B7B03F07F03022B01D0AF
S214007D80002070BD94F81C0100B970BDD4F808310D
S214007D90D4F80C219B1A5A1E0ED4002AE3D0D4F82D
S214007DA00C31234483F84060D4F80C31013303F0DF
S214007DB03F03C4F80C3170BD03F13F02002AD2D055
S214007DC0EDE770BDD0F80431D0F80001181A48BFAE
S214007DD040307047D0F80831D0F80C219B1A581E56
S214007DE048BF03F13F0070472DE9F04F00F5887358
S214007DF083B04FF00101BFF35B8FD3E84F2FC3E88A
S214007E00441F002CF9D1BFF35B8F12F0FF0F40F038
S214007E10E480D0F80861D0F80C118E4200F0B681EC
S214007E2000F1400303EB060700F1C005C0F0D88060
S214007E30C6F140021144402928BF40218A4228BF8B
S214007E400A46002A00F0C78106F1400E06F14404F7
S214007E5000EB0E08044400F1C40CE04538BFA54210
S214007E60C0F0AE810B2A40F2AB816C4214F00304E2
S214007E7000F07F819E5D80F8C060012C00F1C10C8F
S214007E8007F1010800F07B817E7880F8C160022C43
S214007E9000F1C20C07F1020800F07181BE7880F88C
S214007EA0C260032607F1030800F1C30C0196A2EB9B
S214007EB0040BABF10407BF080EEB04060137C03411
S214007EC0064404444FEA87094FF0000E0EF1010EF7
S214007ED056F804AB44F804ABBE45F7D3019CCB453B
S214007EE04C4408EB090E0CEB09060FD018F8278057
S214007EF00CF82780671CBA4208D902349EF8017035
S214007F007770A24202D99EF80240B470AC188A1A62
S214007F1000F01A81261D00F14407BC4238BFB34268
S214007F20C0F045810B2A40F242815F4217F00307FA
S214007F3000F0298190F840302370012F04F1010CE5
S214007F4000F1410300F01D8190F841306370022F6C
S214007F5004F1020C00F1420300F0138190F8423065
S214007F60A37004F1030C00F143034FF00309A2EBE6
S214007F700708A8F1040E4FEA9E0E07F140060EF120
S214007F80010E3C4406444FEA8E0A0027013756F895
S214007F9004BB44F804BBBE45F8D8D04509EB0A0438
S214007FA003EB0A070CEB0A0600F0CE8013F82E301F
S214007FB00CF82E30631C9A4240F2C68002347B785E
S214007FC07370A24240F2C080BB78B3700446284665
S214007FD006F0E8FD002840F0BE8003B0BDE8F08F54
S214007FE0891B06F1400206F14404402900EB020C0E
S214007FF0044400F1C40E28BF4021F44538BFA54212
S214008000C0F0CB800B2940F2C8806C4214F0030409
S21400801000F0AB809B5D80F8C030012C00F1C106FB
S21400802007F1010E00F0A9807B7880F8C130022CA1
S21400803000F1C20607F1020E00F09F80BB7880F8C0
S214008040C23007F1030E00F1C3064FF0030C1319FC
S214008050034404F1C0081A6840F808200F1B3A1FB2
S214008060920800EB08040132D3F80480C4F80480B8
S214008070022A4FEA82084FD0D3F80890C4F8089036
S214008080032A49D0D3F80C90C4F80C90042A43D0A5
S214008090D3F81090C4F81090052A3DD0D3F8149069
S2140080A0C4F81490062A37D0D3F81890C4F818905D
S2140080B0072A31D0D3F81C90C4F81C90082A2BD07D
S2140080C0D3F82090C4F82090092A25D0D3F824901D
S2140080D0C4F824900A2A1FD0D3F82890C4F8289011
S2140080E00B2A19D0D3F82C90C4F82C900C2A13D055
S2140080F0D3F83090C4F830900D2A0DD0D3F83490D1
S214008100C4F834900E2A07D0D3F83890C4F83890C4
S2140081100F2A01D0DB6BE36347450CEB080306EB45
S21400812008040EEB080C0FD01EF8227006F822701A
S2140081305A1C914208D902339CF801206270994279
S21400814002D99CF80230A3700446284606F02AFDA1
S21400815000283FF442AFBFF35B8F002384F8103152
S214008160BFF35B8F03B0BDE8F08FBE46A4462E4635
S2140081706DE7B8460194AC4699E6A44667E70194D5
S21400818095E6B946F3E6B946A446F0E6BFF35B8F3C
S21400819080F81021BFF35B8F1FE700F1BF037C1848
S2140081A017F8012B03F8012FA742F9D1CCE7013CC1
S2140081B01A4413F8016B04F8016F9342F9D1C3E730
S2140081C000F1BF0407EB020E17F8016B04F8016F0D
S2140081D0BE45F9D19AE62C4699E600BF38B590F828
S2140081E01C3103B938BD0546FFF7FEFD4FF082444B
S2140081F0D5F80821D5F80C319A420BD006F01AFDB6
S21400820040B195F81231DB0704D5637B03F07F039A
S214008210022BEDD00024214685F81C41204606F0AE
S214008220E1FC2146012006F0DDFC06F0CFFCC5F897
S2140082300041C5F81841C5F80441C5F80841C5F81D
S2140082400C4185F8104185F8114138BD90F8103181
S21400825003B17047D0F80821D0F80C319A4200F0EC
S214008260FD802DE9F04F00F5887383B04FF00101D3
S214008270BFF35B8FD3E84F2FC3E8441F002CF9D120
S214008280BFF35B8F12F0FF0F40F0E580D0F8086177
S214008290D0F80C118E4200F0AB8100F1400303EBE6
S2140082A0060700F1C005C0F0DA80C6F140021144AE
S2140082B0402928BF40218A4228BF0A46002A00F0EB
S2140082C0BC8106F1400E06F1440400EB0E0804449F
S2140082D000F1C40CE04538BFA542C0F0A3810B2ACC
S2140082E040F2A0816C4214F0030400F077819E5D9A
S2140082F080F8C060012C00F1C10C07F1010800F005
S21400830071817E7880F8C160022C00F1C20C07F102
S214008310020800F06581BE7880F8C260032607F187
S214008320030800F1C30C0196A2EB040BABF10407A3
S214008330BF080EEB04060137C034064404444FEA77
S21400834087094FF0000E0EF1010E56F804AB44F804
S21400835004ABBE45F7D3019CCB454C440CEB090659
S21400836008EB090E0FD018F827800CF82780671C3A
S214008370BA4208D902349EF801707770A24202D938
S2140083809EF80240B470AC188A1A58D0261D00F128
S2140083904407BC4238BFB342C0F03B810B2A40F2D0
S2140083A038815F4217F0030700F01F8190F84030D5
S2140083B02370012F04F1010C00F1410300F0168137
S2140083C090F841306370022F04F1020C00F1420372
S2140083D000F00C8190F84230A37004F1030C00F119
S2140083E043034FF00309A2EB0708A8F1040E4FEA77
S2140083F09E0E07F140060EF1010E3C4406444FEA7D
S2140084008E0A0027013756F804BB44F804BBBE4565
S214008410F8D8D04509EB0A040CEB0A0603EB0A076A
S2140084200DD013F82E300CF82E30631C9A4206D965
S21400843002347B787370A24201D9BB78B3700446CD
S214008440284606F0AFFB30B1BFF35B8F002384F8FD
S2140084501031BFF35B8F03B0BDE8F08F7047891B08
S21400846006F1400206F14404402900EB020C0444E5
S21400847000F1C40E28BF4021F44538BFA542C0F025
S214008480BE800B2940F2BB806C4214F0030400F05F
S2140084909E809B5D80F8C030012C00F1C10607F17C
S2140084A0010E00F096807B7880F8C130022C00F137
S2140084B0C20607F1020E00F08E80BB7880F8C2304C
S2140084C007F1030E00F1C3064FF0030C1319034423
S2140084D004F1C0081A6840F808200F1B3A1F9208DB
S2140084E000EB08040132D3F80480C4F80480022AA2
S2140084F04FEA82084FD0D3F80890C4F80890032AB1
S21400850049D0D3F80C90C4F80C90042A43D0D3F882
S2140085101090C4F81090052A3DD0D3F81490C4F8F3
S2140085201490062A37D0D3F81890C4F81890072A63
S21400853031D0D3F81C90C4F81C90082A2BD0D3F85E
S2140085402090C4F82090092A25D0D3F82490C4F8A7
S21400855024900A2A1FD0D3F82890C4F828900B2A13
S21400856019D0D3F82C90C4F82C900C2A13D0D3F83A
S2140085703090C4F830900D2A0DD0D3F83490C4F85B
S21400858034900E2A07D0D3F83890C4F838900F2AC3
S21400859001D0DB6BE36347450CEB080306EB0804EE
S2140085A00EEB080C3FF44BAF1EF8227006F8227054
S2140085B05A1C91427FF643AF02339CF8012062704A
S2140085C099427FF63CAF9CF80230A37037E7BE4670
S2140085D02E46A4467AE74FF0020C77E7B846AC463C
S2140085E00194A1E6012601969EE6A446B946FAE65F
S2140085F0BFF35B8F80F81021BFF35B8F2BE700F192
S214008600BF037C1817F8012B03F8012FA742F9D1F6
S21400861015E7013C1A4413F8016B04F8016F934206
S214008620F9D10CE700F1BF0407EB020E17F8016B57
S21400863004F8016FBE45F9D1A5E62C46A4E600BFB6
S21400864008B5FEF785FF014B186008BDB410002082
S214008650406A7047007970470120704738B5044675
S21400866008F07CFD2046144B40F8303B04F044FAFA
S214008670124A13492260002300203C320125A4F848
S214008680FC30C4F86431C4F86831C4F86C31C4F8FE
S2140086907031C4F87431C4E94C01C4E95001C4E92E
S2140086A05401C4E956012263C4F8285184F83831CD
S2140086B084F84831204638BD80C00200FCA802007D
S2140086C00000F03F2DE9F04FC64BDFF858A3C64A2E
S2140086D0C649C74EEDB008AC4FF000084FF003098E
S2140086E080F8008006908DE808022046C14B0CF00A
S2140086F077F8A1686268237B2069CAF80810CAF870
S21400870004206169A2698AF80C30E369CAF810008F
S214008710CAF81410206A616ACAF81820CAF81C3011
S21400872094F8282094F82930CAF82000802794F876
S2140087302A00CAF824108AF82820A18D94F82E2042
S2140087408AF8293094F82F308AF82F308AF82A00D1
S214008750AAF82C108AF82E2014A93A460AF13000FE
S2140087601AF0AEFA3A4634A90AF1B0001AF0A8FA9E
S214008770CDF80490A04AD4F83011D4F83401D4F8D7
S21400878038310092D4F83C21CAF83011D4F84011A0
S214008790CAF83401CAF84011CAF838312046CAF877
S2140087A03C21964B964A97490AF032F9A0686268CF
S2140087B094F80CE02369B0607260A069E26986F8FC
S2140087C00CE0336194F828E0636A94F829C0656980
S2140087D0B4F82CA0B061F26194F82A00226A7362A1
S2140087E086F828E094F82E3094F82FE086F829C012
S2140087F086F82E3086F82FE014A97561326286F866
S2140088002A003A46A6F82CA006F130001AF058FACC
S2140088103A4634A906F1B0001AF052FAD4F84031BC
S214008820D4F83011D4F83421C6F84031D4F83831B1
S214008830C6F83011C6F83421C6F83831D4F83C31C1
S21400884094F844E1C6F83C3120464FF4004186F8DF
S21400885044E10BF06BFD01266B4B94F806A0B4F8D0
S21400886004C0DFF8C4E101960093A5688EF806A060
S2140088703946AEF804C0CEF808502046634B644A2A
S214008880644F07F0A1FC04F108000FC87B61D4F820
S2140088902A30C7F82A30236B94F806E03B63636BF4
S2140088A0B4F804A094F818C0E56987F806E0B86044
S2140088B094F819E0206AF9603A61616A94F8282011
S2140088C07B63A36BA7F804A087F818C087F819E0A5
S2140088D0FD61796287F82820BB63386294F83C0013
S2140088E0E36C216C94F844C094F845E0A26C87F8D9
S2140088F03C00FB64206DB4F85C3094F83DA0656DD8
S214008900396487F844C094F8581094F859C087F82A
S21400891045E0BA6494F85AE094F85B203865A7F806
S2140089205C30206E636E87F859C087F85AE087F887
S2140089303DA07D6587F85B2038667B6687F8581013
S214008940A16E354B00962046B966344A344F402116
S21400895008F040F904F108000FC87B61D4F82A300B
S214008960C7F82A30236B94F806E03B63636BB4F8D1
S21400897004A094F818C0E56987F806E0B86094F893
S21400898019E0206AF9603A61616A94F828207B63EE
S214008990A36BA7F804A087F818C087F819E0FD6154
S2140089A0386287F82820BB63796294F83C100096FA
S2140089B0E56C94F83DA0226C94F844C094F845E029
S2140089C087F83C10FD64A16C256D87F83DA03A64DD
S2140089D0B4F85CA094F8582087F844C087F845E0BF
S2140089E024E000BF70AC0200D0AC020060AC020015
S2140089F0841F002090AB0200B0AC020050AC020016
S214008A0080AB0200A0AC020070AE020030AE0200E6
S214008A1000AD0200E018002040AE0200E0AD02000B
S214008A204C190020401E0020741B002094F85AC0E9
S214008A3094F85BE0B9643D6594F85910656D7D6502
S214008A4087F8582087F8591087F85AC087F85BE0EF
S214008A50A7F85CA02046C14BC14AC24F202108F0AF
S214008A60B9F804F108000FC87B61D4F82A30C7F8BB
S214008A702A30236B94F806E03B63636BB4F804A0DB
S214008A8094F818C0E56987F806E0B86094F819E02D
S214008A90206AF9603A61616A94F828207B63A36BC8
S214008AA0A7F804A087F818C087F819E0FD613862B7
S214008AB087F82820BB63796294F83C100096E56C32
S214008AC094F83DA0226C94F844C094F845E087F8EA
S214008AD03C10FD64A16C256D87F83DA03A64B4F89F
S214008AE05CA094F8582087F844C087F845E094F8CE
S214008AF05AC094F85BE0B9643D6594F85910656D0A
S214008B007D6587F8582087F8591087F85AC087F887
S214008B105BE0A7F85CA02046934B944A944F102144
S214008B2008F058F804F108000FC87B61D4F82A3022
S214008B30C7F82A30236BB4F804E03B63636B94F801
S214008B4006A094F818C0E569A7F804E0B86094F8A1
S214008B5019E0206AF9603A61616A94F828207B631C
S214008B60A36B87F806A087F818C087F819E0FD61A0
S214008B703862796287F82820BB6394F83C3087F81F
S214008B803C3094F83D20216C94F844E094F845007D
S214008B90A36CCDF80C8087F83D20E26C3964FA644B
S214008BA094F85A10226D656D87F84500BB6494F8FA
S214008BB0580094F859303A6587F85A1094F85B20B4
S214008BC0B4F85C1087F844E07D6587F8580087F8AD
S214008BD0593087F85B20A7F85C10DFF8B8C1DFF8DB
S214008BE0B8E1644B644ACDF804C04FF0680A2046EA
S214008BF00821CDF808A0CDF800E008F045FB04F108
S214008C0008000FC85D4FB4F804E07B61D4F82A3042
S214008C10C7F82A30236B3B63636B94F806A094F87E
S214008C2018C0E569A7F804E0B86094F819E0206A6F
S214008C30F9603A61616A94F828207B63A36B87F831
S214008C4006A087F818C087F819E0FD61386287F833
S214008C502820BB63796294F83C1094F83D30206C71
S214008C6094F845C087F83D30E36C94F844A087F844
S214008C703C103864A16C206D87F845C0FB6494F8FE
S214008C8058C094F85A30656D87F844A0B964B4F8B3
S214008C905CA094F85910386587F858C094F85B00C3
S214008CA0B4F85EC087F85A304FF0650EB4F86030FE
S214008CB0334A7D6587F8591087F85B00A7F85CA0F3
S214008CC0A7F860302F49A7F85EC0B4F862C0CDF8A8
S214008CD00C80CDF808E00192E26E009194F87010D6
S214008CE0656EFA66626FB4F880A094F882E0A7F822
S214008CF062C07D6694F883C0A56E87F870107A67A8
S214008D00E16FA26FBD66BA67F967A7F880A087F81B
S214008D1082E087F883C020461B4B1C4A1C4F042168
S214008D2008F0B2FA04F108000FC87B61D4F82A30C4
S214008D30C7F82A30236BB4F804E03B63636B94F8FF
S214008D4006A094F818C0E569A7F804E0B86094F89F
S214008D5019E0206AF9603A61616A1FE050AE0200CD
S214008D60F0AD0200AC19002060AE020000AE0200BA
S214008D700C1A002020AD020010AE02006C1A002073
S214008D8090AD020050AD020030AD020020AE0200F1
S214008D90F01A002080AD020040AD020094F82820B2
S214008DA07B63A36B87F806A087F818C087F819E0DE
S214008DB0FD61796287F82820BB63386294F83C002E
S214008DC087F83C0094F83DA0216C94F844C094F8D1
S214008DD045E0A26CE36C206D656D87F83DA03964B4
S214008DE0B4F860A094F8581087F844C087F845E0B7
S214008DF094F859C094F85AE0BA64FB6494F85B207F
S214008E00B4F85C303865B4F85E007D6587F85810B5
S214008E1087F85AE087F85B20A7F85C30A7F85E0072
S214008E20A7F860A087F859C0B4F862C0616E79668A
S214008E30616FA36EE06E94F870E07967A16FE56FDE
S214008E40A7F862C0BB66B4F880C094F88230F866B3
S214008E5087F870E0B96794F883E0C04AFD6720465B
S214008E604FF40011A7F880C087F8823087F883E0B7
S214008E7008F07EF904F108000FC8B94FB4F804C032
S214008E8094F806E0256AF9607B61E169D4F82A3037
S214008E9094F818A0A7F804C087F806E094F819C05C
S214008EA094F828E0B8603A61F9613D62C7F82A3064
S214008EB0656AAC4A87F818A020464FF4800187F808
S214008EC019C07D6287F828E008F052F904F108001E
S214008ED00FC8A54FB4F804C094F806E0256AF960F8
S214008EE07B61E169D4F82A3094F818A0A7F804C08A
S214008EF087F806E094F819C094F828E0B8603A615C
S214008F00F9613D62C7F82A30656A984A87F818A062
S214008F1020464FF4000187F819C07D6287F828E0E4
S214008F2008F026F904F10800914FA388BB8007C813
S214008F30052394F806E094F818A000933A61626955
S214008F40637E94F828C0656A87F806E0F960D4F86E
S214008F502AE0216A7A61E269B86087F818A07B7611
S214008F60FA6139627D6287F828C0C7F82AE0204691
S214008F70804B814F4FF000424FF0006107F0DEFB60
S214008F8004F108000FC8B4F804E07B61D4F82A3076
S214008F9094F806A0A7F804E0C7F82A3094F819E079
S214008FA0236B94F818C0E56987F806A0B860F960E6
S214008FB0206A616A3A6187F819E094F8282094F8E4
S214008FC034E03B634FF0040AA36B87F818C0FD61DA
S214008FD03862796287F82820BB6387F834E094F813
S214008FE040E0CDF800A0E56BFD6387F840E0204642
S214008FF0624B634F4FF080424FF0806107F09EFB5C
S21400900004F108000FC8B4F804C094F806E0A7F806
S21400901004C0B86094F818C0E069F9607B61216A02
S21400902094F8283087F806E03A6194F819E0626A06
S21400903087F818C0F861D4F82AC094F8340039626A
S21400904087F82830A16B236BC7F82AC087F819E089
S2140090503B6387F83400B9637A62E26BCDF8009020
S21400906094F840E0FA6387F840E02046454B464FC8
S2140090704FF000524FF0007107F060FB04F108005B
S2140090800FC894F806E07B61D4F82A3087F806E02B
S214009090C7F82A3094F819E0236B94F818C0B4F88F
S2140090A00490E569B860F960206A616A3A6187F8F9
S2140090B019E094F8282094F834E03B63A36B87F813
S2140090C018C087F834E0A7F80490FD61386279622A
S2140090D0BB6387F82820E26B009694F84060FA633A
S2140090E087F840602046294B294E4FF080524FF0BB
S2140090F0807107F023FB04F108000FC8A7793261DE
S2140091007361D4F82A2094F8343094F818C0B4F870
S214009110049094F819E0256AB771B060E769606A50
S214009120F160C6F82A2094F82810226B86F83430AE
S214009130A36B86F818C0A6F8049086F819E0F761C5
S214009140356270623263B36386F82810E16BCDF83F
S21400915004A0CDF8088094F840E01BE0E0AB0200E5
S21400916050180020F0AB02008018002000AC02006F
S214009170B018002010AC0200FC10002020AC02004A
S2140091808417002030AC0200C817002040AC020054
S2140091900C180020D44F00972046F16386F840E074
S2140091A0D24BD34A4FF40061FCF72AFD04F10C00C1
S2140091B007C8D04B94F806C0A668E569D860606B0F
S2140091C094F8189094F81980276AB4F804A083F8E5
S2140091D006C09E6094F828C0D4F82A6019615A61C7
S2140091E0A16B94F83C20DD615863656A83F818909B
S2140091F004F1440083F819801F625D6283F828C07A
S214009200C3F82A60996383F83C20A3F804A094F876
S2140092103DA094F8406094F851C094F85270656D83
S21400922094F83E9094F8508083F8406007C85864DD
S2140092309964E06D216ED8651966D4E91A01DA647E
S214009240226FA66D1A67626F83F83DA0C3E91A0104
S21400925083F851C083F852705D659E655A6783F83F
S2140092603E9083F85080D4E91E89D4E92212C3E9DF
S2140092702212D4F88020D4F89070D4F89400D4F851
S2140092809810C3F88020D4F89C20C3F89070C3F8D8
S2140092909400D4F8A070D4F8A400C3F89810C3F8CB
S2140092A09C20D4F8A810D4F8AC20C3F8A0701E46B2
S2140092B0D4F8B070C3F8A400C3F8A810D4F8B4006B
S2140092C0D4F8B810C3F8AC20D4F8BC40389AC3F829
S2140092D0B070C3E91E89C3F8B400C3F8B810C3F869
S2140092E0BC40C3F8C020399A3A9C3B9BBDF8F0902E
S2140092F0BDF8F280BDF8F4C09DF8F6E09DF8F77072
S2140093009DF8F800BDF8FA10BDF800A1C6F8C42014
S214009310C6F8C840BDF8FC20BDF8FE40C6F8CC3004
S214009320A6F8D090A6F8D280BDF802919DF80481E8
S214009330429BA6F8D4C086F8D6E086F8D77086F8A2
S214009340D800A6F8DA10A6F8DC20A6F8DE40A6F8C4
S214009350E0A0A6F8E29086F8E480C6F8E830439BE2
S214009360C6F8EC30449A9DF814819DF815E19DF8F6
S21400937016719DF83531BDF818C19DF820A19DF8ED
S214009380219149984A99479CC6F8F02086F8F480BF
S2140093904B9ABDF8308186F8F5E086F8F670BDF891
S2140093A032E19DF8347186F815314EABA6F8F8C058
S2140093B086F800A186F80191C6F80401C6F80811DF
S2140093C0C6F80C21A6F81081A6F812E1C6F8FC40F3
S2140093D086F8147198CB0DF5A47CC6F81831BCE855
S2140093E00F0006F5947EAEE80F00BCE80F00AEE86E
S2140093F00F00BCE80F00AEE80F009CE80300C6F8BC
S2140094001C41C6F820718EE8030061A80FC89DF8BD
S21400941080E1659C9DF898819DF899C1BDF8A0A152
S21400942086F860E1C6F864019DF89AE19DF89B0114
S214009430C6F86811C6F86C216799C6F87031C6F888
S2140094407441BDF8A231BDF8A44186F8788186F84B
S21400945079C1BDF8A6819DF8A8C1274A86F87AE1A9
S2140094604FF0010986F87B01C6F87C11A6F880A1AA
S214009470A6F88231A6F88441A6F88681052786F8E4
S21400948088C19DF8A9119DF8AAE16B9C1B4B8DE83D
S214009490840208A886F8891186F88AE1C6F88C4105
S2140094A0174A184C4FF48061FCF7AAFB0AA80FC8AD
S2140094B09DF826709DF838C0E160DDF84A109DF8EA
S2140094C039E00F9E119DBDF82480A771A060109F03
S2140094D09DF8480022616361159A169B84F818C0AF
S2140094E0C4F82A1010E000BF10AD020080AE0200E3
S2140094F0C0AC020040110020B0AE020090AE0200E8
S214009500A0AE0200D01200209DF85CC084F819E0DE
S21400951019A9E6612762656284F828006263A3637E
S21400952084F83CC0A4F804809DF85D809DF8600037
S2140095309DF871709DF85EC09DF870E09DF87260B1
S214009540249D84F840000EC9DDE922AB1D986164B5
S214009550A2641E991F9AE36484F85170209B259F8D
S21400956084F83D80C4E91AAB84F83EC084F850E025
S21400957084F852606065A16525676767E2652366C3
S214009580DDE9262317469846DDE92A232CA99246CC
S2140095909B464EC92898C4F89C60349EC4F8800048
S2140095A0C4F8901030983199C4F89420C4F89830D4
S2140095B0329A339BC4F8B0603D464646C4E91E5610
S2140095C0C4F8A000C4F8A41035983699C4F8A820AA
S2140095D0C4F8AC30379A389BC4F8B40055465E469B
S2140095E0C4E92256C4F8B810C4F8C030C4F8BC2089
S2140095F0399A3A983B9BBDF8F080BDF8F2C0BDF8AA
S214009600F4E09DF8F6709DF8F7609DF8F810BDF848
S214009610FEA0C4F8C420C4F8C800BDF8FA20BDF8FF
S214009620FC00C4F8CC30A4F8D080429BBDF8008182
S214009630A4F8D2C0A4F8D4E0BDF802C19DF804E1B5
S21400964084F8D67084F8D76084F8D810A4F8DC00C4
S214009650A4F8DEA0A4F8E080A4F8E2C084F8E4E071
S214009660C4F8E830A4F8DA20439A479B44999DF85A
S21400967015C19DF81671BDF81861C4F8FC309DF848
S21400968035319DF814A19DF820E19DF82181499877
S214009690C4F8EC20C4F8F0104B9A4A9984F8F5C048
S2140096A084F8F670BDF830C1BDF83271A4F8F860E1
S2140096B084F815319DF8346184F8F4A04EAB84F834
S2140096C000E184F80181C4F80401C4F80811C4F864
S2140096D00C21A4F810C1A4F8127184F81461C8CB48
S2140096E00DF5A47EC4F81831BEE80F0004F5947C8E
S2140096F0ACE80F00BEE80F00ACE80F00BEE80F00B5
S214009700ACE80F009EE80300C4F81C61C4F82071A2
S2140097108CE8030061A8C3C89DF880C184F860C1C6
S214009720C4F864019DF899C19DF89801C4F86811C1
S214009730C4F86C6167999DF89A61659DBDF8A0A113
S214009740C4F8707184F878019DF89B71BDF8A20189
S21400975084F879C184F87A61BDF8A6C1BDF8A46121
S214009760C4F87C119DF8A811DFF890E3C4F8745192
S2140097704FF0020884F87B71A4F880A10327A4F8B0
S2140097808201A4F88461A4F886C184F888119DF843
S214009790A9A19DF8AAC16B9ECDF800E0CDF808807F
S2140097A00197CF4B84F889A184F88AC1C4F88C61EC
S2140097B0CC4ACD4C08A84FF40071FCF721FA0AA851
S2140097C00FC89DF82660BDF824E0A671A0600F9E25
S2140097D01098DDF84AA0169D9DF838C0A4F804E05D
S2140097E0E1609DF839E01199226163619DF8482097
S2140097F0159BE66120629DF85C6084F819E019A864
S214009800616284F82820C4F82AA06363A56384F8FC
S2140098103C6084F818C09DF85DC09DF85E609DF8B9
S214009820603084F83E6007C8DDE922AB9DF87260C0
S21400983084F8403060649DF871301D989DF870E0A3
S214009840A164E2641E991F9A84F8513084F852602D
S214009850209B249E6065259884F83DC0C4E91AAB19
S21400986084F850E0A16526676067E2652366DDE957
S214009870262315461E46DDE92A232899C4F88010BB
S21400988092462C9A2E99C4F890209B462F9A2D9B90
S214009890C4F89430C4F89810309B3199C4F89C20D2
S2140098A0329AC4F8A030C4F8A410339B3499C4F894
S2140098B0A820359AC4F8AC30C4E91E56369BC4F8C6
S2140098C0B010C4F8B4203799389AC4F8B830554662
