:104000000000032029B60000D1420000D142000088
:10401000D1420000D1420000D14200000000000067
:10402000000000000000000000000000D14200007D
:10403000D142000000000000D1420000C5B40000E1
:10404000D1420000D1420000D1420000D142000024
:10405000D1420000D1420000D1420000D142000014
:10406000D1420000D1420000D1420000D142000004
:1040700099B30000A9B30000B9B30000C9B30000B0
:10408000D9B30000E9B30000F9B3000009B400009F
:1040900019B4000029B4000039B4000049B400008C
:1040A00059B4000065B4000075B4000085B4000088
:1040B000D1420000D1420000D1420000D1420000B4
:1040C000D1420000D1420000D1420000D1420000A4
:1040D000D1420000D1420000D1420000D142000094
:1040E000D1420000D14200000000000000000000AA
:1040F00000000000D14200002DB30000D1420000BA
:1041000039B3000045B30000D1420000D1420000A5
:10411000D1420000D142000051B30000D142000062
:104120005DB3000069B30000D1420000D14200003D
:10413000D1420000D1420000D1420000D142000033
:10414000D1420000D1420000D1420000D142000023
:10415000D1420000D1420000D1420000D142000013
:10416000D1420000D142000075B30000D1420000EE
:1041700081B300008DB300000000000000000000CB
:104180000D77010011770100157701001977010003
:1041900021B3000019B50000D1420000D142000057
:1041A000D1420000D1420000D1420000D1420000C3
:1041B000D1420000D1420000D1420000D1420000B3
:1041C000D1420000D1420000D1420000D1420000A3
:1041D000D142000095B40000D1420000D14200005D
:1041E000ADB40000D1420000D1420000D142000035
:1041F000D1420000D1420000D1420000D142000073
:10420000D1420000D1420000D1420000D142000062
:10421000D1420000D1420000D1420000D142000052
:10422000D1420000D1420000D1420000D142000042
:10423000D1420000D1420000D1420000D142000032
:10424000D1420000D1420000D1420000D142000022
:10425000D1420000D1420000D1420000D142000012
:10426000D142000010B5054C237833B9044B13B18B
:104270000448AFF300800123237010BDC00A002062
:10428000000000003C0103000C4B43B10C480D49F9
:1042900010B5AFF300800C48036823B910BD0A487D
:1042A000036833B97047094B002BF7D0BDE81040C5
:1042B0001847064B002BF5D0184700BF0000000040
:1042C0003C010300C40A0020BC0A002000000000DA
:1042D000FEE700BF000000002DE9F8434C4B4D4CB9
:1042E000186800252DED068B0A222946257008F056
:1042F00009FE0121484802F0B7FC0121474802F0BD
:10430000B3FC012646486670002107F07BFB04F1F0
:104310000800424A404909F015FC30B9BDEC068B53
:10432000032384F88834BDE8F8839FED338B9FED39
:10433000349BB0EE481AF0EE681AB0EE490AF0EE7F
:10434000690A02224FF4487104F108000AF0A6F944
:10435000B0EE481AF0EE681AB0EE490AF0EE690ABB
:1043600002224FF4487104F5926704F108000AF044
:10437000C9F99FED25AB38464FF448794FF0020854
:1043800087ED029B87ED068BC4F8909484F8A08497
:104390000AF0A2FC04F59963184683ED029B83EDB5
:1043A000068BC4F8C89484F8D8840AF095FCB0EE63
:1043B0004A0AF0EE6A0A04F108000AF0F1F9194815
:1043C000194F84F8006541F2883380ED00AB8360BB
:1043D0002A46294604F10800C4F80834C4F80C74CD
:1043E0000AF0C4F9BDEC068BC4F80455267084F8B5
:1043F0008854BDE8F88300BF000000000000F03FD3
:1044000000000000000014400000000000D8A3409D
:104410007C230020E00A0020C0110020501300205F
:10442000001BB70000000020084C01000000000045
:104430002DE9F04F2DED028B89B00F4607901646FF
:1044400051EC120B53EC102B8DED041B8DED023B48
:104450008DED004B1DF010FD9DED041B9DED023B0D
:1044600053EC112B82468B4651EC130B1DF004FDCF
:104470000022804689460023504659461EF018F90E
:1044800040B100220023404649461EF011F90028A1
:1044900040F0888049EC118B4BEC10AB1AF0EAFF2E
:1044A000DDE90045B0EE408AF0EE608A0022464B1E
:1044B000204629461DF094FE22462B461DF090FE14
:1044C000524604460D465B46504659461DF088FE4E
:1044D00002460B46204629461DF0CEFC42460446C5
:1044E0000D464B46404649461DF07AFE02460B46B5
:1044F000204629461DF0C0FC31A3D3E90023044621
:104500000D461EF0DFF800284CD100220023204683
:1045100029461EF0D7F800284AD145EC104B1BF075
:104520000FF853EC102B10EE100A03F1004153EC7E
:10453000182B1DF07FFF079B04460D461BB901F1A8
:10454000004304461D46DDE90001002200231EF061
:10455000B9F880BB42464B46204629461DF040FE36
:1045600002460B46504659461DF086FC0022174B6A
:104570001DF036FE5246C7E900015B46204629463B
:104580001DF02EFE42464B461DF078FC00220F4BDC
:104590001DF026FEC6E90001012009B0BDEC028B2A
:1045A000BDE8F08F002009B0BDEC028BBDE8F08FB4
:1045B00000240025B1E705F100431D46CAE700BF0E
:1045C000FCA9F1D24D6250BF000010400000E03F56
:1045D00038B51D4C04F1080009F01EFA1B4B0022EF
:1045E00004F5926504F5996004F5A161C5E902231B
:1045F000C5E90623C5E90A23C5E90C23C0E902235E
:10460000C0E90623C0E90A23C0E90C23C1E902235B
:10461000C1E90623C1E90A23C1E90C2300230122D1
:10462000C4F89024C4F8C824C4F8082584F8A03439
:1046300084F8B03484F8D83484F8E83484F8183531
:1046400084F8283538BD00BFE00A00200000F03FA4
:104650000F48F8B54FF4E131044603F09DFA2046C7
:1046600003F08EFA07F0A4F90A4E0027054620460B
:1046700003F080FA00B1F8BD07F09AF9401BB0F5DD
:10468000FA6F39463046F6D207F0BCF9EFE700BFC3
:10469000001C0020804F120070B5044620F050FF2F
:1046A00060B1074E251801E0AC4207D014F8011B99
:1046B000304603F089FA0028F6D170BD012070BDA4
:1046C000001C002070B586B002460D4901A820F0FC
:1046D00029FD01A820F034FF60B101AC094E251876
:1046E00001E0AC4206D014F8011B304603F06CFA2E
:1046F0000028F6D10A21034803F066FA06B070BD1F
:10470000A8C70200001C00202F4991F8883470B51A
:10471000013BDBB2052B96BF2C4A2D4E52F823608D
:104720000B782DED028BBAB0002B41D0294C2A48D2
:10473000237B002B32D00AF06FF82748B0EE408A76
:10474000F0EE608A0AF07CF8D4E9004500200021F0
:10475000CDE904018DED020B8DED008B3246CDE9E4
:10476000064508A81D4920F0DDFC08A820F0E8FE59
:1047700060B108AC1A4E251801E0AC4206D014F81E
:10478000011B304603F020FA0028F6D10A21144814
:1047900003F01AFA3AB0BDEC028B70BD0AF014F8BF
:1047A0000D48B0EE408AF0EE608A0AF021F8CBE7BF
:1047B0009FED030B074CB0EE408AF0EE608AC3E732
:1047C0000000000000000000E00A002090C7020086
:1047D000B4C7020000000020E80A0020BCC70200A5
:1047E000001C00203F2823D070B509D8182824D0F9
:1047F00021281BD1374C94F88834012B57D070BD39
:104800007E2845D0852812D1324C23781BB194F8EC
:10481000EE33002B58D194F88834013B0022012B51
:1048200084F84125EBD884F8882470BD70BD70BD34
:10483000284B012283F840257047264C23781BB172
:1048400004F1080009F0A8FA00236F21224884F837
:10485000413584F8883403F0B7F918B16B211E484C
:1048600003F0B2F91C481D4C0A21054603F0ACF9CF
:1048700004F1180614F8011B284603F0A5F908B145
:10488000B442F7D10A211448BDE8704003F09CB946
:10489000104B93F88824022AB1D11A78002AAED09E
:1048A0000021012283F8411583F8882470BD227805
:1048B000002AA4D004F1080084F8413509F0CAFAAE
:1048C000022384F8883470BD04F1080009F064FA0A
:1048D000A1E700BFE00A0020001C0020E0C70200A2
:1048E00070B5354C237886B063B36378002B41D024
:1048F000324B1B7B062284F8882403B39FED2A0BDE
:104900002F4809F04DFF002211462D4809F02EFFD7
:10491000002301226F212B48C4F8043584F8883421
:1049200084F8422503F050F918B16B21254803F0B3
:104930004BF90A21234803F047F906B070BD9FEDFB
:104940001C0BDDE701A809221F4920F0EBFB01A8A1
:1049500020F0F6FD0028ECD001AC1A4E251801E03D
:10496000AC42E6D014F8011B304603F02DF90028C4
:10497000F6D1DEE701A80922134920F0D3FB01A8F4
:1049800020F0DEFD0028D4D001AC0E4E251801E049
:10499000AC42CED014F8011B304603F015F90028C4
:1049A000F6D1C6E7AFF300800000000000C06F4002
:1049B0000000000000002440E00A00200000002069
:1049C000E80A0020001C0020A8C702002DE9F041E1
:1049D0008C4C2DED048B237886B0002B79D0637836
:1049E000002B00F0AB80B0EE409AF0EE609AB0EE93
:1049F000418AF0EE618A94F84335DFF82882012B72
:104A00007FD0B0EE490AF0EE690A98F80C307E4982
:104A1000C3B3022009F028FFB0EE480AF0EE680A9E
:104A200005467A49022009F01FFFD4F8F433AB425F
:104A3000064638D042F21073324629467448C4F80C
:104A4000083409F0D9FD002800F09B80714E002742
:104A500003E03046394606F0D5FF94F8EE3323B92B
:104A600094F88232002B00F0818006F0A1FFD4F888
:104A70004435C31AF92B0546EBD9FFF745FEC4F8B8
:104A80004455E6E7012009F0EFFEB0EE480AF0EEEB
:104A9000680A05465D49012009F0E6FED4F8F433C2
:104AA000AB420646C6D1D4F8F833B342C2D16F2127
:104AB000594803F089F818B16B21574803F084F87E
:104AC0000A21554803F080F806B0BDEC048BBDE820
:104AD000F08101A80922514920F024FB01A820F00F
:104AE0002FFD0028ECD001AC4B4E251801E0A5426B
:104AF000E6D014F8011B304603F066F80028F6D122
:104B0000DEE798F80C3004F10800002B62D109F0C0
:104B10005BFE51EC190B53EC102B1DF0AFF941EC7F
:104B2000190B04F1080009F063FE51EC180B53EC6B
:104B3000102B1DF0A3F941EC180B62E701A8092224
:104B4000364920F0EFFA01A820F0FAFC0028B7D08F
:104B500001AC314E251801E0A542B1D014F8011B7B
:104B6000304603F031F80028F6D1A9E7D8F808302C
:104B70002948C4F808346F2103F026F800289BD197
:104B80009EE72748002106F03DFF3246294620488F
:104B900009F032FD00287FF459AFD8F808301F49DA
:104BA000C4F8083401A8182220F0BCFA01A820F0AB
:104BB000C7FC002884D001AC174E251802E0A5429E
:104BC0003FF47EAF14F8011B304602F0FDFF0028D1
:104BD000F5D175E709F020FE51EC190B53EC102BC1
:104BE0001DF04CF941EC190B04F1080009F028FE06
:104BF00051EC180B53EC102B1DF040F941EC180B45
:104C0000FFE600BFE00A0020700F0020A80F002080
:104C1000E80A0020C0D40100001C0020A8C7020040
:104C2000009F240000000020F0B5994C2DED068B6C
:104C3000237887B0002B00F0A280B0EE40AAF0EEFF
:104C400060AAB0EE419AF0EE619A0022002351EC86
:104C5000130BB0EE438AF0EE638A1DF047FD002887
:104C60007DD0B0EE480AF0EE680A8A4D2B7B04F145
:104C70000800002B4BD009F093FD85ED008B01233C
:104C800084F800356378002B00F0AB8094F843354E
:104C9000804D012B00F08B80B0EE4A0AF0EE6A0ADC
:104CA0002B7B7D49002B4CD1012009F0DDFDB0EEBE
:104CB000490AF0EE690A05467849012009F0D4FD59
:104CC0000646D4F8F4339D4226D03246294674482D
:104CD00009F092FC002800F09C80724E002703E04F
:104CE0003046394606F08EFE94F8EE3313B994F848
:104CF0008232ABB106F05CFED4F84435C31AF92B0E
:104D00000546EDD9FFF700FDC4F84455E8E709F082
:104D100035FD85ED008BB2E7D4F8F8339E42D4D14F
:104D20006F21614802F050FF18B16B215E4802F01C
:104D30004BFF0A215C4802F047FF07B0BDEC068B31
:104D4000F0BD022009F090FDB0EE490AF0EE690ACC
:104D500005465249022009F087FD0646B1E794F85E
:104D60000035002B8ED04B4D2B7B95ED000B04F1C5
:104D70000800002B40F0898009F000FD82E701A8BF
:104D800009224A4920F0CEF901A820F0D9FB0028D9
:104D9000CFD001AC444E251801E0A542C9D014F88B
:104DA000011B304602F010FF0028F6D1C1E72B7B33
:104DB0003B48002B53D109F007FD51EC1A0B53EC83
:104DC000102B1DF05BF841EC1A0B354809F010FD73
:104DD00051EC190B53EC102B1DF050F841EC190B52
:104DE0005AE701A80922314920F09CF901A820F0D6
:104DF000A7FB00289DD001AC2B4E251801E0A54251
:104E000097D014F8011B304602F0DEFE0028F6D1E0
:104E10008FE72748002106F0F5FD32462946204855
:104E200009F0EAFB00287FF458AF01A818221F49B7
:104E300020F078F901A820F083FB00283FF479AF37
:104E400001AC194E251802E0A5423FF472AF14F8E8
:104E5000011B304602F0B8FE0028F5D169E709F0E1
:104E6000DBFC51EC1A0B53EC102B1DF007F841EC56
:104E70001A0B0B4809F0E4FC51EC190B53EC102B06
:104E80001CF0FCFF41EC190B06E709F089FCF9E680
:104E9000E00A002000000020700F0020A80F002072
:104EA000E80A0020C0D40100001C0020A8C70200AE
:104EB000009F2400000000002DE9F04FCA4E2DEDA8
:104EC000088B33788BB0002B00F02281B0EE40AA23
:104ED000F0EE60AAB0EE419AF0EE619A0022002353
:104EE00051EC150BB0EE458AF0EE658A59EC138B48
:104EF0005BEC14AB1DF0FAFB002800F0F880B0EE7C
:104F0000480AF0EE680AB94C237B06F10800002B32
:104F100000F0B28009F044FC84ED008B012386F898
:104F200000357378002B00F00B81B04BB0481B7B31
:104F3000002B40F0A68009F047FCAD4855EC104B23
:104F400009F056FC96F84335012B8DED020B00F06D
:104F5000A68042464B46204629461CF08FFF52460B
:104F60005B4606460F46DDE902011CF087FF42461C
:104F70004B4604460D46404649461DF031F952461F
:104F8000804689465B46504659461DF029F902463F
:104F90000B46404649461CF071FF41EC100B1AF0DD
:104FA000CFFA0022002351EC100BB0EE40BAF0EE25
:104FB00060BA1DF091FB002840F0268132463B4646
:104FC00051EC1A0B1CF058FF22462B46CDE902018A
:104FD00051EC190B1CF050FF9DED021B41EC100B26
:104FE0001AF046FA0022002351EC100BB0EE408A72
:104FF000F0EE608A1DF066FB002840F0E5807B4BF8
:105000007C491B7B002B5BD147EC106B012009F026
:105010002BFC45EC104B78490646012009F024FC96
:10502000B0EE4B0AF0EE6B0A04467249012009F01B
:105030001BFC054600230093B0EE480AF0EE680A18
:105040002B46224631466A4809F022FA07460028D4
:1050500000F08E806F21694802F0B6FD18B16B2117
:10506000664802F0B1FD0A21644802F0ADFD0BB0C4
:10507000BDEC088BBDE8F08F09F080FB84ED008B60
:105080004CE709F0C9FB5A4855EC104B09F0D8FB26
:1050900096F84335012B8DED020B7FF45AAF224673
:1050A0002B4651EC1A0B1CF0E9FEDDE9022341EC22
:1050B0001A0B51EC190B1CF0E1FE41EC190B48E7FF
:1050C00047EC106B022009F0CFFB45EC104B4A492E
:1050D0000646022009F0C8FBB0EE4B0AF0EE6B0A60
:1050E00004464449022009F0BFFB0546A2E796F8B2
:1050F0000035002B3FF415AF3C4B1A7B93ED000BB2
:1051000006F10800002A40F0998009F037FB08E713
:1051100005A809223A4920F005F805A820F010FA60
:105120000028A0D005AC354E251801E0A5429AD044
:1051300014F8011B304602F047FD0028F6D192E733
:1051400005A809222E491FF0EDFF05A820F0F8F967
:10515000002888D005AC294E251801E0AC4282D049
:1051600014F8011B304602F02FFD0028F6D17AE733
:105170002448002106F046FCB0EE480AF0EE680A2A
:1051800000972B4622463146194809F081F900283C
:105190007FF460AF05A8182219491FF0C3FF05A8C6
:1051A00020F0CEF900283FF45EAF05AC134E251871
:1051B00002E0A5423FF457AF14F8011B304602F05D
:1051C00003FD0028F5D14EE751EC180B04A3D3E9F9
:1051D00000231CF053FE41EC180B10E7AFF30080E6
:1051E000182D4454FB211940E00A00200000002043
:1051F000E80A0020700F0020A80F0020001C0020EB
:10520000A8C70200009F240005A802220D491FF034
:1052100089FF05A820F094F900283FF424AF05ACDD
:10522000094E251802E0A5423FF41DAF14F8011BFA
:10523000304602F0C9FC0028F5D114E709F0B0FAB5
:105240006FE600BFA8C70200001C0020000000009D
:105250002DE9F04FDFF880A32DED088B9AF8003090
:105260008DB0002B00F02E81B0EE40AAF0EE60AAC7
:10527000B0EE419AF0EE619A0022002351EC150B3A
:10528000B0EE458AF0EE658A59EC138B57EC146B3F
:105290001DF02CFA002800F00481B0EE480AF0EE70
:1052A000680AC54C237B0AF10800002B00F0BE8081
:1052B00009F076FA84ED008B01238AF800359AF81C
:1052C0000130002B00F01D81DFF8ECB2BB489BF8E9
:1052D0000C30002B40F0AF8009F076FAB74855EC5F
:1052E000104B09F085FA9AF84335012B8DED040B2C
:1052F00000F0AF8042464B46204629461CF0BEFDDA
:105300003246CDE902013B46DDE904011CF0B6FD61
:1053100042464B4604460D46404649461CF060FF57
:105320003246804689463B46304639461CF058FF97
:1053300002460B46404649461CF0A0FD41EC100BCE
:105340001AF0FEF80022002351EC100BB0EE40BA28
:10535000F0EE60BA1DF0C0F9002840F03F81DDE9B1
:10536000022351EC1A0B1CF087FD22462B46CDE997
:10537000040151EC190B1CF07FFD9DED041B41EC69
:10538000100B1AF075F80022002351EC100BB0EE50
:10539000408AF0EE608A1DF095F9002840F0FE800A
:1053A0009BF80C308649002B64D19DED020B012047
:1053B00009F05AFA45EC104B82490646012009F0E3
:1053C00053FAB0EE4B0AF0EE6B0A04467C4901201A
:1053D00009F04AFA054601270097B0EE480AF0EEB8
:1053E000680A2B4622463146744809F051F80028D5
:1053F00000F0AA80744C002503E02046294606F000
:1054000001FB9AF8EE3323B99AF88232002B00F0B0
:10541000908006F0CDFADAF84435C31AF92B064627
:10542000EBD9FFF771F9CAF84465E6E709F0A6F988
:1054300084ED008B40E709F0EFF9604855EC104B24
:1054400009F0FEF99AF84335012B8DED040B7FF43A
:1054500051AF22462B4651EC1A0B1CF00FFDDDE933
:10546000042341EC1A0B51EC190B1CF007FD41EC25
:10547000190B3FE79DED020B022009F0F5F945EC11
:10548000104B50490646022009F0EEF9B0EE4B0AE7
:10549000F0EE6B0A04464A49022009F0E5F9054698
:1054A00099E79AF80035002B3FF409AF424B1A7B7D
:1054B00093ED000B0AF10800002A40F0A98009F0E2
:1054C0005DF9FCE607A8092240491FF02BFE07A85A
:1054D00020F036F860B107AC3D4E251801E0A5423A
:1054E00006D014F8011B304602F06EFB0028F6D1FE
:1054F0000A21374802F068FB0DB0BDEC088BBDE80F
:10550000F08F07A8092231491FF00CFE07A820F0F0
:1055100017F80028ECD007AC2D4E251801E0AC425E
:10552000E6D014F8011B304602F04EFB0028F6D1FD
:10553000DEE76F21264802F047FB0028D8D06B2118
:10554000234802F041FBD3E72248002106F05AFA33
:10555000B0EE480AF0EE680A00972B462246314624
:10556000164808F095FF00287FF444AF07A81822DA
:1055700016491FF0D7FD07A81FF0E2FF0028B7D09B
:1055800007AC134E251801E0AC42B1D014F8011B52
:10559000304602F019FB0028F6D1A9E751EC180BB0
:1055A00003A3D3E900231CF069FC41EC180BF7E6D8
:1055B000182D4454FB21194000000020E80A002067
:1055C000700F0020A80F0020C0D40100A8C702005F
:1055D000001C0020009F2400E00A002007A80222EF
:1055E0000D491FF09FFD07A81FF0AAFF00283FF4F8
:1055F0007FAF07AC094E251802E0A5423FF478AF13
:1056000014F8011B304602F0DFFA0028F5D16FE7ED
:1056100009F0C6F853E600BFA8C70200001C00202E
:105620002DE9F04F2DED048B01788B4F9DB00022BA
:105630000023002647290546CDE90423CDE90623AA
:10564000CDE90823CDE90A23CDE90C23CDE90E23CA
:10565000CDE91223CDE9106720D04D291ED016A820
:1056600014227E491FF05EFD16A81FF069FF60B18D
:1056700016AC7B4E251801E0A54206D014F8011B9C
:10568000304602F0A1FA0028F6D10A21744802F04F
:105690009BFA1DB0BDEC048BBDE8F08F1CAA002462
:1056A00042F8644D6F4928461FF062FD012845D13C
:1056B0002A78002AEDD00094A246A146A0462746AB
:1056C0002646AB4602F0DF02582A42D0592A00F0A3
:1056D00095805A2A00F09980492A00F09E804A2A33
:1056E00000F0A980522A00F0AE80462A00F09D808A
:1056F000502A34D112AA5C4958461FF039FD0124C2
:105700002DE05A4C2378002B00F09783002E40F0B8
:10571000B283002F00F00B84554B1B7B002B40F015
:10572000E683D4F8F453534901209DED060B09F0AC
:105730009BF802465048294609F018F86F2148485E
:1057400002F042FA0028A0D06B21454802F03CFA52
:105750009BE704AA494958461FF00AFD01261BF899
:10576000012F002AAED12B78472B00F095804D2BCE
:105770008FD1039B1E2B00F26A8101A252F823F005
:105780003D5A00003D5A00004F5A00003D570000AE
:105790003D5700003D5700004F5A00004F5A00008F
:1057A0004F5A00004F5A00004F5A00004F5A000055
:1057B0004F5A00004F5A00004F5A00004F5A000045
:1057C0004F5A00004F5A00004F5A00004F5A000035
:1057D0004F5A00004F5A00004F5A00004F5A000025
:1057E0004F5A00004F5A00004F5A00004F5A000015
:1057F0004F5A00004F5A00001D5A000006AA2049C7
:1058000058461FF0B5FC0127A9E708AA1D495846CC
:105810001FF0AEFC4FF00108A1E70AAA1A4958464A
:105820001FF0A6FC4FF0010999E710AA1749584646
:105830001FF09EFC93E70CAA154958461FF098FCF0
:105840004FF0010A8BE70EAA124958461FF090FC50
:105850000123009383E700BF0000F0BFA8C7020048
:10586000001C0020FCC7020040C80200E00A002023
:1058700000000020A80F0020E80A002008C802004D
:1058800010C8020018C8020020C8020038C8020070
:1058900028C8020030C80200039B5C2B00F264821F
:1058A00001A252F823F000BF295D0000475D00000F
:1058B000455C0000815B0000375B0000695D000013
:1058C000695D0000695D0000695D0000695D0000C0
:1058D000695D0000695D0000695D0000695D0000B0
:1058E000695D0000695D0000695D0000695D0000A0
:1058F000695D0000695D0000215B00000B5B00003A
:10590000695D0000695D0000695D0000695D00007F
:10591000695D0000695D0000055B0000695D0000D5
:10592000695D0000695D0000695D0000695D00005F
:10593000695D0000695D0000695D0000695D00004F
:10594000B35A0000695D0000695D0000695D0000F8
:10595000695D0000695D0000695D0000695D00002F
:10596000695D0000695D0000695D0000695D00001F
:10597000695D0000695D0000695D0000695D00000F
:105980003D5700003D5700003D5700003D570000C7
:105990003D5700003D570000695D0000695D000053
:1059A000695D0000695D0000695D0000695D0000DF
:1059B000695D0000695D0000695D0000695D0000CF
:1059C000695D0000695D0000695D0000695D0000BF
:1059D000695D0000695D0000695D0000695D0000AF
:1059E000695D0000695D0000695D0000695D00009F
:1059F000695D0000695D0000695D0000695D00008F
:105A0000695D0000695D0000695D0000695D00007E
:105A10009B5A0000835A000003570000BA4C2378B9
:105A2000002B40F0BB8100236F21B84884F88834F4
:105A300002F0CAF800287FF487AE26E6B24C23783D
:105A4000002BF0D004F1080008F004FAEBE716A8E8
:105A50000222AF491FF066FB16A81FF071FD002857
:105A60003FF413AE16ACA94E251802E0A5423FF450
:105A70000CAE14F8011B304602F0A6F80028F5D150
:105A800003E6A14BA14801226F2183F8432502F0D0
:105A90009BF800287FF458AEF7E59B4B9B4800220B
:105AA0006F2183F8432502F08FF800287FF44CAE75
:105AB000EBE526B91FB9B8F1000F00F01382924B45
:105AC0001A78002A00F0B9815B78914916A809225A
:105AD000002B40F0E4811FF025FB16A81FF030FDDD
:105AE00000283FF4D2AD16AC884E251802E0A5423E
:105AF0003FF4CBAD14F8011B304602F065F80028E6
:105B0000F5D1C2E5FEF7ECFEC3E5824B7F480122EA
:105B10006F211A7302F058F800287FF415AEB4E52F
:105B20007C4B7A4800226F211A7302F04DF800284E
:105B30007FF40AAEA9E5002C00F08381DDE912456F
:105B400000220023204629461CF0D0FD002800F04A
:105B500078812046294600226F4B1CF041FB002231
:105B60006E4B1CF08BF91CF013FE4EF6602398422E
:105B70006B4A28BF1846A0FB020105F043FFDDE594
:105B8000002E00F04081002F00F03D81B9F1000FA0
:105B900040F0B781BAF1000F40F0A181009B002BCB
:105BA00000F0A0815B4C5F48237B002B40F0D2814A
:105BB00008F00AFEB0EE408AF0EE608A237B594876
:105BC000002B40F0058208F013FEB0EE409AF0EE94
:105BD000609A4D4B93F84335002B00F0F481DDE9DA
:105BE000042351EC180B1CF049F9DDE90623CDE93B
:105BF000000151EC190B1CF041F99DED002B41EC1B
:105C0000130BB0EE491AF0EE691AB0EE480AF0EE46
:105C1000680A16AA14A900209DED0E4BFEF708FC99
:105C2000002800F092819DED105B9DED164B9DEDDF
:105C3000143B9DED082B9DED061B9DED040BFFF71E
:105C40003BF926E5002E00F0C480002F00F0C18053
:105C5000B9F1000F40F03B81BAF1000F40F03F81F5
:105C6000009B002B00F03E812A4C2E48237B002B0A
:105C700040F0A28108F0A8FDB0EE408AF0EE608A04
:105C8000237B2848002B40F0908108F0B1FDB0EE56
:105C9000409AF0EE609A1C4B93F84335002B00F0CD
:105CA0007F81DDE9042351EC180B1CF0E7F8DDE9F6
:105CB0000623CDE9000151EC190B1CF0DFF89DED36
:105CC000002B41EC130BB0EE491AF0EE691AB0EE5E
:105CD000480AF0EE680A16AA14A901209DED0E4BA1
:105CE000FEF7A6FB002800F030819DED105B9DEDD6
:105CF000164B9DED143B9DED082B9DED061B9DED78
:105D0000040BFFF7A5FAC4E4E00A0020001C002001
:105D1000A8C702000000002000408F400000E03FC4
:105D2000C0D40100E80A002026B91FB9B8F1000F5D
:105D300000F003819DED082B9DED061B9DED040BEE
:105D4000FEF744FEA5E426B91FB9B8F1000F00F034
:105D5000F4809DED103B9DED082B9DED061B9DED08
:105D6000040BFEF761FF94E416A802229C491FF081
:105D7000D9F916A81FF0E4FB00283FF486AC16AC56
:105D8000984E251802E0AC423FF47FAC14F8011B9A
:105D9000304601F019FF0028F5D176E4924E002735
:105DA00003E03046394605F02DFE94F8EE331BB97A
:105DB00094F88232002B6ED005F0FAFDD4F8443509
:105DC000C31AF92B0546ECD9FEF79EFCC4F84455DE
:105DD000E7E716A8012282491FF0A4F916A81FF0D0
:105DE000AFFB00283FF451AC16AC7E4E251802E004
:105DF000AC423FF44AAC14F8011B304601F0E4FE1B
:105E00000028F5D141E416A8012275491FF08AF94E
:105E100016A81FF095FB00283FF437AC16AC714E66
:105E2000251802E0A5423FF430AC14F8011B3046BF
:105E300001F0CAFE0028F5D127E40920FEF742FC54
:105E400027E416A8012266491FF06CF916A81FF076
:105E500077FB00283FF419AC16AC624E251802E01F
:105E6000AC423FF412AC14F8011B304601F0ACFE1A
:105E70000028F5D109E45D4B1B7B002B71D004F5A4
:105E8000926102209DED040B08F0EEFC054687BBF5
:105E9000D4F8F8234EE4564807F07EFFC3E51FF020
:105EA00041F916A81FF04CFB00283FF4EEAB16ACEE
:105EB0004C4E251802E0A5423FF4E7AB14F8011B55
:105EC000304601F081FE0028F5D1FFF7DEBB009BD4
:105ED000002B52D01420FEF7F5FBFFF7DABB009B36
:105EE000002BF7D10120FEF7EDFBFFF7D2BBD4F872
:105EF000F453404902209DED060B08F0B5FC024624
:105F000018E4009B002BE5D1BAF1000FEAD09DED1B
:105F1000105B9DED0C4B9DED0A3B9DED082B9DED1F
:105F2000061B9DED040BFEF7C7FFFFF7B2BB04F1A4
:105F300008003A46394608F019FC2F48FEF7ACFB3A
:105F40002E48FEF7A9FBFFF7A4BB0220FEF7BAFB21
:105F5000FFF79FBB08F060FCB0EE408AF0EE608A6D
:105F60002CE604F5926101209DED040B08F07CFC09
:105F70000546002F8CD0FFF7D6BBBAF1000FB1D089
:105F80009DED105B9DED0C4B9DED0A3B9DED082BAF
:105F90009DED061B9DED040BFFF75AF9FFF779BB4A
:105FA0009DED042B9DED063B8DE608F049FCB0EE1F
:105FB000409AF0EE609A6EE608F02EFCB0EE408A51
:105FC000F0EE608A5CE69DED042B9DED063B18E645
:105FD00008F036FCB0EE409AF0EE609AF9E500BFAA
:105FE000A8C70200001C0020C0D40100000000204F
:105FF000E80A0020A80F002048C80200F0EA0200CA
:10600000037803B970472DE9F04F2DED048BD3B021
:1060100012AC0146FF2220461FF052FB002520460D
:1060200084F8FF501FF08CFA0AE0E25CA2F16101F3
:10603000192904D8203A2046E2541FF081FA01358C
:10604000ABB29842F1D858B12318002513F8012CAF
:10605000202A02F0FB0100F1FF301FD009291DD0DA
:106060000722B74920461FF0D9FA28B10322B549C3
:1060700020461FF0D3FAB0B96F21B34801F0A4FD58
:1060800018B16B21B04801F09FFD0A21AE4801F024
:106090009BFD53B0BDEC048BBDE8F08F03F8015DB0
:1060A0000028D3D1DCE70322A84920461FF0B6FA26
:1060B0000028E1D02378242B07D0472B01D04D2B8B
:1060C000DAD12046FFF7ACFAE3E7A14920461FF0FA
:1060D000CBF8002800F08F809E4920461FF0C4F8BE
:1060E000002800F088809C4920461FF0BDF8002859
:1060F00000F0AB80994920461FF0B6F8002800F068
:10610000AB80974920461FF0AFF8002800F0AB8025
:10611000944920461FF0A8F8002800F05F819249BA
:1061200020461FF0A1F8002800F0028103228F49C9
:1061300020461FF073FA8146002840F0F5808C4D10
:106140002B78002B00F07A816E78002E00F076819B
:1061500088490DF14B001FF03DFC874910F1000804
:106160000DF14B0018BF4FF001081FF033FC8349BD
:10617000071C0DF14B0018BF01271FF02BFC8049B5
:1061800000280DF14B0018BF4FF000081FF022FC53
:106190009FED697BE2784FF0000A4FF0000B00287A
:1061A00018BF0027CDE904ABCDE906ABCDE908ABBC
:1061B0008DED0A7B002A00F03D810DF14B04CDF8F6
:1061C0000C90CA46CB460DE0592A00F0F3815A2ABA
:1061D00000F0E981462A00F0F48114F8012F002A2A
:1061E00000F03081582AEFD104AA664920461EF0FB
:1061F000BFFFB246F1E7644A5D4B167B60495E4DD6
:1062000093F843455B485D4B604A002E08BF294622
:106210000091012C08BF034620210AA81EF036FF7A
:106220000AA81FF08DF900283FF42FAF0AAC464EA4
:10623000251802E0A5423FF428AF14F8011B3046B0
:1062400001F0C2FC0028F5D11FE75148FEF724FAFF
:106250005048FEF721FA1CE74F48FEF71DFA4D485B
:10626000FEF71AFA15E74D48FEF716FA4948FEF709
:1062700013FA4B48FEF710FA4648FEF70DFA494864
:10628000FEF70AFA4348FEF707FA4748FEF704FA12
:106290004048FEF701FA4548FEF7FEF93D48FEF793
:1062A000FBF94348FEF7F8F93A48FEF7F5F941489B
:1062B000FEF7F2F93748FEF7EFF93F48FEF7ECF941
:1062C0003448FEF7E9F93D48FEF7E6F93148FEF7B4
:1062D000E3F93B48FEF7E0F92E48FEF7DDF93948CF
:1062E000FEF7DAF92B48FEF7D7F93748FEF7D4F96D
:1062F0002848FEF7D1F93548FEF7CEF92548FEF7D4
:10630000CBF93348FEF7C8F92248FEF7C5F9314802
:10631000FEF7C2F91F48FEF7BFF92F48FEF7BCF998
:106320001C48FEF7B9F9B4E61420FEF7CBF9B0E645
:10633000FEF7D6FAADE600BF000000000000F0BF97
:106340005CC8020064C80200001C002068C802008B
:106350006CC8020070C8020080C80200A4C8020015
:10636000ACC802007CC9020040CA020044CA020054
:10637000E00A00204CC8020054C8020050C80200C5
:1063800058C8020008C802000000002074C80200BB
:1063900084C80200F0EA0200A8C80200B0C80200E7
:1063A000B8C80200C0C80200C8C80200D8C80200AD
:1063B000E8C80200F8C8020008C9020018C90200B3
:1063C00028C9020034C9020040C902004CC90200B9
:1063D0005CC902006CC9020048C802008A48FEF786
:1063E0005BF98A48FEF758F98948FEF755F987485E
:1063F000FEF752F98748FEF74FF98448FEF74CF94B
:106400008548FEF749F98148FEF746F98348FEF7CB
:1064100043F97E48FEF740F98148FEF73DF97B4895
:10642000FEF73AF97F48FEF737F97848FEF734F976
:106430007D486DE70120FEF745F92AE60920FEF7C1
:1064400041F926E6BBF1000FF4D0BAF1000F04D1F8
:10645000039B13B9B9F1000FECD07448002F00F082
:10646000C58008F0B1F97148B0EE409AF0EE609A3C
:1064700008F0BEF9B0EE408AF0EE608AB8F1000F85
:1064800000F0A680DDE9042351EC190B1BF0F6FCAB
:10649000DDE9062341EC190B51EC180B1BF0EEFC67
:1064A00041EC180B002F66D0B0EE490AF0EE690AF5
:1064B0005F49012008F0D8F9B0EE480AF0EE680A0A
:1064C00006465C49012008F0CFF99DED0A0B044611
:1064D000564808F053F922463146544808F08CF8E3
:1064E000002839D0DFF86481534E002710E005F012
:1064F0005FFAD5F84435C31AF92B044671D84046E3
:1065000001F056FB85283946304666D005F07AFA08
:1065100095F8EE33002BEAD195F88232002BE6D1C4
:10652000454E002703E03046394605F06BFA95F8F2
:10653000EE3323B995F88232002B3FF4EEAE05F02E
:1065400037FAD5F84435C31AF92B0446EBD9FEF7D0
:10655000DBF8C5F84445E6E73848002105F052FA73
:1065600022463146314808F047F80028BAD11820B1
:10657000FEF7A8F88DE5B0EE490AF0EE690A2C495D
:10658000022008F071F9B0EE480AF0EE680A0646FB
:106590002849022008F068F99DED0A0B04462348BB
:1065A00008F0FEF897E708AA254920461EF0E0FD0E
:1065B000B14612E606AA234920461EF0D9FD0396ED
:1065C0000BE60AAA204920461EF0D2FDB34604E697
:1065D0009DED049B9DED068B64E7144807F0DCFB02
:1065E0009EE7FEF791F8C5F8444588E708F014F9EE
:1065F0000E48B0EE409AF0EE609A08F021F9B0EE45
:10660000408AF0EE608A39E780C90200F0EA0200B1
:1066100098C90200B0C90200C8C90200E0C902005E
:10662000F8C9020010CA020028CA0200E80A0020C5
:10663000700F0020A80F0020C0D40100009F24008C
:1066400018C8020010C8020038C80200001C002050
:106650002DE9F04359485A4C87B0002105F0D2F992
:10666000FDF73AFEFDF7F4FF0021544805F0CAF9A2
:106670005448FEF711F85448FEF70EF82378002B23
:1066800000F09580514FDFF8548100251FE094F809
:106690004135002B50D094F8EE33002B45D0022327
:1066A00084F8883405F084F994F84035064623B917
:1066B000D4F84435C31AF92B05D9FEF725F8C4F8E8
:1066C000446584F840554248002105F09BF938465E
:1066D00001F06EFA431C17D03F2829D0212827D07B
:1066E0007E2825D0182823D0852821D00A2827D015
:1066F0000D2825D0B4F84835FE2B34DCE2180133E0
:1067000082F84C05A4F8483594F8883484F84C563F
:10671000032BC7D02378002BC4D094F8EE33002B82
:10672000B5D194F84135002BB5D184F88854B9E738
:10673000C0B2FEF757F8E7E7012384F88834B1E7E1
:10674000B4F84835002BDFD02344404683F84C553D
:10675000FFF756FC4FF48072002140461EF0F6F918
:10676000A4F84855D0E74FF4807200214046A4F8C1
:1067700048551EF0EBF91722164901A81EF0D2FC6D
:1067800001A81EF0DDFE68B101AB03EB00091E4657
:1067900001E0B14506D016F8011B384601F014FAA5
:1067A0000028F6D10A21384601F00EFAACE70A4873
:1067B000FDF772FF0448FDF76FFF63E7001BB700AA
:1067C000E00A0020E0C70200F0EA0200001C0020FE
:1067D000C0D40100A8C7020048CA02002C10002043
:1067E0000020704790F91800704700BF06207047DE
:1067F0000120704790F81401704700BF80797047FE
:1068000038B583798B4200F0A780A1F109030D46CA
:106810000446032B00F2A280DFE803F07A4646022A
:10682000303006F09FFF72B6D4F8B400036800223F
:10683000A4F810213BB1D4F8C410D4F8C0200B68E0
:106840001340FCD10360D4F8BC0003680022A4F814
:1068500012213BB1D4F8CC10D4F8C8200B681340F7
:10686000FCD10360D4F8A4103D4A91F90130897835
:1068700002EBC3130B440C2093F8401041F00101CC
:1068800083F84010D4F8A81091F90130897802EB10
:10689000C3130B4493F8402042F0010283F84020D8
:1068A000A07162B6012038BD303006F05BFF72B6D1
:1068B000D4F8BC0003680022A4F812213BB1D4F83C
:1068C000CC10D4F8C8200B681340FCD10360D4F876
:1068D000A410234A91F90130897802EBC3130B44C9
:1068E00093F840106FF3000183F84010D4F8A8101B
:1068F00091F90130897802EBC3130B4493F84020DF
:1069000042F0010283F84020A57162B6012038BD33
:10691000303006F027FFD4F8A410114A91F9013065
:10692000897802EBC3130B44092593F840106FF3E9
:10693000000183F84010D4F8A81091F9013089784B
:1069400002EBC3130B44012093F840206FF30002C5
:1069500083F84020A57138BD012038BD002038BD26
:106960000080004183790A2B0FD090F83D30A3B10D
:10697000D0F8A430D0F8B02093F90130DB0103F156
:10698000824303F500435A61704790F8FC309B073F
:10699000EBD590F83D30002BEAD0D0F8A430D0F8F9
:1069A000B02093F90130DB0103F1824303F500438A
:1069B0009A617047A0F13000D4E700BF2DE9F0479D
:1069C000089FBDF82490BDF82880044616468A46E4
:1069D0003A4600211D460CF0C7F804F1300006F0DD
:1069E0008FFE6A4BC4F8A0A003F13C02C4F8A46077
:1069F000C4F8AC702360C4F8A8502263B27864492C
:106A0000DFF898A1634F012303FA02F2C4F8B02023
:106A1000AA7884F8D69003FA02F24FF0020C4FF0F5
:106A20007D0E0020C4F8B82084F8D7800022A4F896
:106A3000E2C04FF019084FF6FF7CA4F8F8E04FF0E1
:106A400003094FF0FF3E84F8D820A4F8DA20A4F818
:106A5000DC20A4F8DE20A4F8E02084F8E42084F808
:106A6000F52084F8F620A4F8FC2084F8002184F8AE
:106A70000121C4F8F0A084F8F490A4F8D0C0A4F8E0
:106A8000D2C0A4F8D4C0C4F8E880C4F8ECE0C4F8DC
:106A90000421C4E94C01C4E95001C4E95401C4E92A
:106AA0005601C4F80821C4F8102184F8142184F890
:106AB0001521C4F81821C4F81C21C4F8202184F839
:106AC000382184F8482184F86021C4F86421C4F88E
:106AD0006821C4F86C21C4F87021C4F87421C4F88A
:106AE0007821C4F87C2184F8882184F8892184F8ED
:106AF0008A21C4F88C21C4F80C81C4F82831C4F868
:106B000080E1C4F884E16376337B042B98BF224A8A
:106B100057F82300767B98BFD25CB6FBF2F102FBFC
:106B200011624FF48073D2B202F11C0103FA02F237
:106B300000EB810102F47C520830C4F8B410C4F8B0
:106B4000C400C4F8C0202A7B687B57F82210042AAE
:106B50009ABF114B9A5C0022B0FBF2F302FB1303C5
:106B6000DBB24FF4807203F11C0002FA03F301EB75
:106B7000800003F47C530831C4F8BC00C4F8CC1086
:106B8000C4F8C8302046BDE8F08700BFC4CA020080
:106B90000000F03FA8CA0200A0CA0200003C1CC6C8
:106BA00091B1DAB190F864319B0770B50C46164686
:106BB000054602D5303006F0D5FD0123C5F8186131
:106BC000204685F8153170BD80F81511C0F81811F0
:106BD000C0F81C11C0F82011012070471046704702
:106BE00090F81521002A38D082790A2A70B5044617
:106BF00000D070BD90F83D20CB0F81EAE1769A423B
:106C00000D46A6EBE17604D0026880F83D30136BA8
:106C10009847A06B636CB042A8BF3046002DB4BF4C
:106C2000424202461344D4F8BC5063642B68A4F873
:106C3000120186B2B34207D0D4F8CC10D4F8C820E1
:106C40000B681342FCD12E60002894F8643105DDF6
:106C500043F0020384F8643170BD70476FF3410361
:106C600084F86431C5E700BF30B590F87A3183B05D
:106C70000446002B71D190F8793183F0010394F828
:106C8000002194F801518A4231D094F8140184F81B
:106C90000011002284F80121C4F8082158B3002112
:106CA00072B66BB371B340F2E2420123C4F87C21A7
:106CB00084F8793162B6A3790A2B2AD094F8893105
:106CC0008B4235D0D4F8A03000293BD1BFF35B8F85
:106CD0002D4ADB4352E8000F184042E80005002D22
:106CE000F8D1BFF35B8F84F8891103B030BD94F8FD
:106CF0001421002A33D10029D1D072B6002BD1D172
:106D00000029D7D1002384F87A3162B6A3790A2BFF
:106D1000D4D119B994F864319A0728D494F8FC3086
:106D2000DB0794F8893148BF81F001018B42C9D15A
:106D3000002DD8D094F80131002BD4D1D4F8A03054
:106D40000029C3D0BFF35B8F0F4A52E8000F1843EE
:106D500042E80005002DC4D0F7E700238FE70022AA
:106D600084F8001184F80121C4F8082197E794F809
:106D70007431019143F0100384F8743104F1300050
:106D800006F0F0FC0199C9E74422002090F8783120
:106D9000002B4AD0354A90F80131126800B51269CB
:106DA0008BB990F88A31012B22D0022B3BD190F87D
:106DB000F430002B45D1D0F88C31002B3CD180F839
:106DC0008A315DF804FBD0F80431D0F80C11D31AE5
:106DD0008B422BD3D0F80831C0F80421013BC0F816
:106DE00008314BB980F8013190F88A31012BDCD1A0
:106DF000022380F88A31DAE71D4BD0F8A020BFF3D8
:106E00005B8F53E8001F514043E8001EBEF1000FA6
:106E1000F7D1BFF35B8F90F88A31012BC5D190F881
:106E20000131002BE4D05DF804FB704790F88A3103
:106E3000022BBCD05DF804FB013BC0F88C315DF83F
:106E400004FB002200F5BA73BFF35B8F53E8001F09
:106E500021F0200143E8001EBEF1000FF6D1BFF380
:106E60005B8F80F88A215DF804FB00BF642300205B
:106E70004422002090F87A3170B5044680F814114D
:106E8000002B63D190F8793183F0010394F801610C
:106E900039BB94F8005172B65BB365B340F2E2427D
:106EA0000123C4F87C2184F8793162B6A3790A2BD6
:106EB00028D094F88931AB4233D0D4F8A030002DDB
:106EC00039D1BFF35B8F284ADB4352E8001F1940DA
:106ED00042E800100028F8D1BFF35B8F84F8895195
:106EE00070BD002584F80151C4F8085172B6002B1A
:106EF000D3D1002DD9D1002384F87A3162B6A37999
:106F00000A2BD6D11DB994F864319A0720D494F88D
:106F1000FC30DB0794F8893148BF85F00105AB42AE
:106F2000CBD1002EDAD094F80131002BD6D1D4F891
:106F3000A030002DC5D0BFF35B8F0B4A52E8001F75
:106F4000194342E800100028C6D0F7E700239DE768
:106F500094F8743143F0100384F8743104F1300074
:106F600006F000FCD3E700BF442200200000000030
:106F7000F8B590F8783103B9F8BD04460BF044FD3C
:106F8000A379984A94F8D6100A2B08BF94F8FC30DD
:106F900052F8217008BFC3F3800694F8D830BD7A48
:106FA00003F1FF3318BF0026012BEDB240F2DF8062
:106FB00094F8283073408C4A84F8F430C4F8F020F8
:106FC000B4F9D010481C12D0884803F0D1FE0368F1
:106FD0009B6805469847092800F0658228460BF013
:106FE00099FC011C18BF01212046FFF73DFEB4F9B2
:106FF000D2104A1C16D0A3790A2B39D07B4803F053
:10700000B7FE03689B6805469847092800F0D080C2
:1070100028460BF07FFCA379092B00F0D3800B2BC3
:1070200000F0D080B4F9D4104B1C21D0A3790A2BE6
:107030001ED06E4803F09CFE03689B680546984787
:10704000092800F04C8228460BF064FCA379092B38
:107050000ED1D4F8A830D4F8B82093F90130DB0170
:1070600003F1824303F50043002800F0CC815A610C
:10707000B4F980114F1C10D05C4803F079FE03680E
:107080009B6805469847092800F075812B682846BB
:107090001B689847042800F06E81B4F984114E1CD7
:1070A00015D0524803F064FE03689B680546984774
:1070B000092800F0EE8128460BF02CFC94F84030B3
:1070C000B0FA80F0400960F3C30384F84030B4F9AB
:1070D00082114D1C15D0454803F04AFE03689B6899
:1070E00005469847092800F0D98128460BF012FC84
:1070F00094F84030B0FA80F0400960F3041384F84B
:107100004030B4F98611D4F86451D4F87461481C45
:1071100000F02A81354803F02BFE03689B68074680
:107120009847092800F0D38138460BF0F3FBB0FAFA
:1071300080F77F0994F83C30002B40F0298184F8D7
:10714000883194F83E1067F31045002952D194F825
:10715000642192074ED594F83D0094F84020002811
:1071600000F04A81D70649D546F0040646E0AA0752
:1071700000F074813323BB72B4F8E230012293FA39
:1071800012F39AB2003218BF0122A4F8E23084F858
:107190007B21EB0600F16B8194F87B31002B40F0F2
:1071A0000781D4F8E83003EB8303A4F8F83007E74D
:1071B0000F4BB4F9D21018680CF002FCA379092B1C
:1071C0007FF42DAFD4F8A430D4F8B02093F9013077
:1071D000DB0103F1824303F50043002800F0118135
:1071E0005A611FE70CCB0200003C1CC64C2100205A
:1071F0007C26002094F83D0094F84020C2F3C0079C
:1072000067F38E35C2F3001294F8017162F3CF3543
:1072100067F34D3560F3C305002B00F0A380981F82
:1072200018BF012094F87A2160F34105002A00F08C
:10723000938094F8F40011B1AF0740F1D7806FF359
:107240000005032B69D015F0020340F0C680002929
:1072500063D063F3820594F8793161F3861560F3A6
:10726000C815002B5DD0D4F87C31002B40F326816B
:1072700062F345150122013B62F38C25C4F87C3191
:1072800005F002031BB1B30648BF46F00106321CED
:1072900018BF0122D4F87031C4F8746162F3492533
:1072A000C4F8645125EA030304F5B472BFF35B8F9D
:1072B00052E8001F194342E800100028F8D1BFF33C
:1072C0005B8FD4F87021BFF35B8F04F5B67322EAAD
:1072D000050553E8002F2A4343E800210029F8D18F
:1072E000BFF35B8FA379D4F86421C4F870210A2B13
:1072F0007FF442AE94F81531002B00F09480D4F85E
:107300001801002800F08F80D4F81C319C427FF4D3
:1073100033AEBDE8F84006F0FFBD031C18BF0123E3
:1073200097E762F34515002A3AD094F8D83033B97C
:1073300038B905F00203042262F38C25A2E7002885
:1073400063D015F00203F6D1032262F38C2563F3B8
:10735000041505F0020395E762F3000594F8F400C4
:10736000134676E718465DE794F83C3093BB84F803
:1073700088311F46E5E694F8D81081B32B6894F85D
:10738000F4105B6909B194F87A112846984784E6AD
:1073900007B394F88811002900F0AC800F46D0E6BE
:1073A00062F38C25AA077FF572AF46F010066AE7F4
:1073B00094F8283094F8F5107340DAB2914200F056
:1073C000BF80D4F8E83084F8F52003EB8303A4F8F9
:1073D000F830F5E594F88871B3E6002339E794F8BE
:1073E000F4202B68012A5B69CFD1CCE701287FF418
:1073F00026AF45F0010524E7170748BF46F002060F
:10740000FCE69A610EE69A6132E6022363F38C256C
:1074100045F0100504F1300006F0A4F946F020060E
:1074200005F002032EE704F13005284605F0F2FED0
:10743000284606F011FAD4F8BC50606B2A68A4F80C
:10744000120180B282423FF497ADD4F8CC10D4F848
:10745000C8200B681342FCD12860F8BD04F0A8FADC
:10746000D4F8EC30C01A03283FF684AE91E604F05D
:107470009FFAB4F8E230C4F8EC00002B46D0302379
:10748000BB72002294F87B3184F8F620A4F8E22045
:1074900084E62B6828461B6998470FE62B68284628
:1074A0001B69984724E64E4BB4F9D01018680CF0CD
:1074B00087FA01462046FFF7D7FB98E50122002313
:1074C00045F0200584F87A2184F879312DE73B686E
:1074D00038461B699847B0FA80F77F092AE6404B87
:1074E000B4F9D41018680CF06BFAA379092B3FF4A7
:1074F000B0ADBDE504F1300006F04EF9012384F88B
:10750000883146F0080694F83C301AE6AD067FF55F
:1075100043AEB4F8DC10B4F8E020A4F8DA10A4F814
:10752000DE20F88BA4F8DC0094F8F600BD8BA4F8FC
:10753000E05070B994F87B31012284F8F6202DE6F2
:10754000B4F8F820002A3FF436AD013AA4F8F82048
:1075500036E507EE901AB8EE677A07EE902AF8EE55
:10756000677A84F87B31C7EE276A16EE900A1AF024
:10757000E3FD17A3D3E900231AF07EFC16A3D3E999
:1075800000231AF02DFE1BF023F907EE900A1EB11E
:107590009FED147A77EE677A94F8D830C4ED3C7A90
:1075A000022B04D0022384F8F4300023C4E717EE42
:1075B000900A1AF0C1FD00220B4B1AF05DFC024646
:1075C0000B461AF05BFC1BF003F9C4F8F000E9E786
:1075D0009A9999999999A93F721CC7711CC75B40E8
:1075E0007C2600200000C842000049402DE9F843F5
:1075F00004460F469046002A54D1456C4D1BED0FB2
:10760000D4F87431002B4BD094F8743143F001035B
:1076100084F87431002694F8003133B994F8742159
:1076200042F010021E4684F87421B4F98611481CF9
:1076300016D0294803F09CFB03689B688146984755
:10764000092840D048460BF065F9B0FA80F04009AF
:1076500030B194F8743143F0080384F87431002693
:1076600094F840306DB1D90626D496B10123424634
:10767000394684F83E3004F13000BDE8F84305F0A7
:1076800045BD1A07F1D594F8743143F0020384F82C
:10769000743194F864319B0706D40020BDE8F88368
:1076A0000126B8E7CD0FABE704F13000002106F06A
:1076B00073F80020BDE8F88394F8743143F00403B4
:1076C00084F87431E5E7D9F8003048461B699847DB
:1076D000B0FA80F04009BBE74C210020A0F1300057
:1076E000FFF784BFF8B5D0F8743104460E46002B7E
:1076F0004AD090F8743143F0010380F874310025CA
:1077000094F8003133B994F8742142F010021D4608
:1077100084F87421B4F98611481C16D0264803F069
:1077200027FB03689B680746984709283CD03846E2
:107730000BF0F0F8B0FA80F0400930B194F87431F1
:1077400043F0080384F874310025002E94F840308B
:107750000CDAD90621D48DB10023314684F83E30AD
:1077600004F13000BDE8F84005F00ABD1A07F2D573
:1077700094F8743143F0020384F8743194F864315E
:107780009B0703D40020F8BD0125B9E704F13000C0
:10779000002106F001F80020F8BD94F8743143F0A0
:1077A000040384F87431E9E73B6838461B6998475D
:1077B000B0FA80F04009C0E74C210020A0F1300071
:1077C000FFF790BFF8B5D0F8A430BC4D93F9013065
:1077D000D0F8B02005EBC31304469A61D0F8A83066
:1077E000D0F8B82093F9013005EBC3130E469A6127
:1077F0000021FFF739FA314620460BF09FF8D4F804
:10780000A43093F90120987805EBC21213180027D1
:1078100083F84070D4F8A81091F901308E78DB011C
:10782000E9188D1903F1824385F84070D4F8B050FF
:107830009560D4F8B8508D6002EB500210F0010F43
:1078400092F830104FF0050003F5004314BF60F3C9
:10785000071160F3030103EB560382F8301093F82D
:107860003020F0074FF005014CBF61F3071261F3C0
:10787000030283F830202368914A5B68934240F00A
:107880001981A379092B22D004F1300005F06AFF99
:10789000D4F8A410894B91F90120897803EBC21226
:1078A0000A44092092F840106FF3000182F840105A
:1078B000D4F8A82092F90110927803EBC113134475
:1078C00093F840206FF3000283F84020A071E36832
:1078D0002269DB0103F1824101F5004101EB520114
:1078E00003F1824391F8300012F0010503F50043E3
:1078F000134414BF6FF3071065F3030081F83000E1
:1079000093F840206F4942F0010283F8402094F838
:10791000D60051F820301A686FF341021A601A69D4
:107920009207FCD41A6842F001021A601A6912F038
:107930000102FBD11D68644962F305151D601D68D5
:1079400062F314551D601D6862F355551D601D6876
:1079500045F480351D601D6845F400351D601D68C7
:1079600062F3CB251D601D6862F30A251D601D684A
:1079700045F080051D601D6845F040051D601D68CF
:1079800062F383051D60DD88052666F30205DD8050
:10799000DD8845F02005DD80DD8862F30C35DD8073
:1079A000DD8862F34D35DD80DD8862F30825DD80FA
:1079B000DD8845F01005DD800D7862F341050D701E
:1079C000D4F8AC208E68D5780122AA4016438E6088
:1079D000EF088E69BF0007F1804E16430EF5205E5A
:1079E0008E6105F00706DEF81CC0B7000426BE4015
:1079F00046EA0C06CEF81C60CE6892B262F30F061F
:107A0000CE600A7842F002020A704A6812F002025E
:107A1000FBD194F8D7E02D490EF12B073E4651F8E3
:107A200027C062F3861C41F827C051F8262057066C
:107A3000FBD451F82620254F4FF0060C6CF30302BF
:107A400041F8262051F8262042F0400241F8262035
:107A50007A6812F0180FFBD11D4A1E4E74300EF1D9
:107A600001010FFA8EFE42F8201006EBCE0291794A
:107A700041F002019171D179C807FCD4123505F0AB
:107A80007F0545F4007546F83E50D1798907FCD44E
:107A90001A6842F002021A601A6912F00202FBD15F
:107AA0000123C4F86421C4F86821C4F86C2184F867
:107AB0007831F8BD09212046984708E70080004149
:107AC000016800000CCB020000280040001C0040B0
:107AD00000E0004120E000414FF0FF30704700BF60
:107AE000A1F10200B0FA80F040097047022070470F
:107AF000A1F10100B0FA80F040097047A1F108003F
:107B0000B0FA80F040097047807A7047A0F1040015
:107B1000FAE700BF807A401AB0FA80F04009704757
:107B2000A0F10400F6E700BF08207047A0F10400B0
:107B3000FAE700BF00207047A0F10400FAE700BF99
:107B40001123818183727047A0F10400F8E700BF20
:107B5000704700BFA0F10400FAE700BF014B1868AE
:107B600000F05EBE34110020014B186800F066BEC4
:107B700034110020014B186800F07ABE3411002047
:107B8000014B186800F030BE34110020014B18681A
:107B900001F004BA34110020014B186800F01CBE3B
:107BA00034110020014B186800F018BE3411002079
:107BB000014B186800F07ABE34110020014B1868A0
:107BC00000F0A0BF34110020014B186800F0A6BFE0
:107BD00034110020014B186800F0D4BF341100208C
:107BE000014B186800F0D6BF341100200368044A26
:107BF0001B6B934203D1034B186800F039BE184742
:107C0000757B000034110020A0F10400EEE700BFF6
:107C100008B50368064A1B6B934205D1054B1868EB
:107C200000F026FE00B208BD984700B208BD00BFB4
:107C3000757B000034110020A0F10400E8E700BFCC
:107C400008B5036861B90B4ADB68934205D10A4B5A
:107C5000186801F0A3F9012008BD9847012008BD6C
:107C6000064A9B689342F8D1034B186800F0BCFDAC
:107C7000012008BD8D7B000034110020817B0000B5
:107C8000A0F10400DCE700BF30B583B01A4DADF8B9
:107C900004009DF804102B6811F00104A3F81201F0
:107CA00012D12146204608F075FC2146012008F03B
:107CB00071FC08F063FC08F09BFC0368B3F5966F59
:107CC00012D0002003B030BD0C49002008F062FC47
:107CD0000B49012008F05EFC28684021803008F044
:107CE00025FC002003B030BD0121064803F0FCFA5A
:107CF000002003B030BD00BF34110020097D00001A
:107D0000417F00004C2100202DE9F04F83B072B676
:107D10008A490B6803F18000C3F81821C3F81401E5
:107D200062B6086872B6D0F80431D0F80021D0F8F5
:107D300018419B1A48BF4033002C00F0D680D3F185
:107D40003F0300F0D280D0F80451D0F81421A342B0
:107D500028BF2346C5F14001994228BF194646195C
:107D6000002900F0E8802C1D0444171DBE4238BFD6
:107D7000A242C0F0CE800B2940F2CB80544214F0D6
:107D8000030400F0B78017784755012C06F1010C69
:107D900002F1010800F0B08057787770022C06F1EC
:107DA000020C02F1020800F0A7809778B77006F184
:107DB000030C032602F103080196A1EB040BABF1BF
:107DC0000406B6082F1901364FEA86090744144401
:107DD0004FF0000E0EF1010E54F804AB47F804AB5F
:107DE0007645F7D8019CCB454C440CEB090708EBD2
:107DF000090E00F0898018F826800CF82680661C91
:107E0000B14240F2818002349EF801607E70A1424E
:107E10007AD99EF80240BC705618D0F81421D0F8D8
:107E200018410A44641A5B1AC0F81421C0F81841BA
:107E300064D0311D021D964238BF8842044671D37A
:107E40000B2B6FD9724212F003025FD031780170B0
:107E5000012A00F1010406F1010E58D07178417039
:107E6000022A00F1020406F1020E50D0B1788170AE
:107E7000C41C06F1030E0327A3EB020CACF10401B2
:107E800089084D1C16444FEA85080244002101313F
:107E900056F8049B42F8049B8D42F8D8C44507EB82
:107EA000080204EB08010EEB08060DD01EF8257041
:107EB00004F82570541CA34206D9023274784C7021
:107EC000934201D9B2788A70D0F81421D0F81841C1
:107ED000C0F804311A44E41AC0F81421C0F818415B
:107EE0001CB98030402108F021FB62B6012003B0AC
:107EF000BDE8F08FB446904601945EE7294401F056
:107F00003F01C0F80411EBE7561886E7B64617465E
:107F1000B2E7741E561812F8017B04F8017FB242D2
:107F2000F9D17AE7421EF41816F8011B02F8011F76
:107F3000B442F9D1C8E7164673E700BF34110020F8
:107F40002DE9F04FD84883B0002940F0AB8101689B
:107F5000D1F808311A4402F03F02C1F80821002389
:107F6000BFF35B8F81F81031BFF35B8F0468BFF301
:107F70005B8F4FF0010104F58873D3E84F2FC3E8FE
:107F8000401F0028F9D1BFF35B8F12F0FF0F40F0C4
:107F9000DC80D4F80861D4F80C118E4200F0918195
:107FA00004F1400202EB060704F1C00EC0F0D180DC
:107FB000C6F140031944402928BF40218B4228BF05
:107FC0000B46002B00F0A18106F1400506F1440CA0
:107FD0006019A44404F1C408404538BFE645C0F028
:107FE0008A810B2B40F28781404210F0030000F0A1
:107FF0006181965D84F8C060012804F1C10C07F12D
:10800000010800F059817E7884F8C160022804F1EB
:10801000C20C07F1020800F04F81BE7884F8C260FC
:10802000032607F1030804F1C30C0196A3EB000B30
:10803000ABF10406B60805440136C030254420449F
:108040004FEA86090027013755F804AB40F804AB26
:10805000B742F8D30198CB4548440CEB090508EB2F
:1080600009070DD018F826800CF82680461CB3426C
:1080700006D902307E786E70834201D9B878A87034
:108080000EEB0300CB1A00F0FC8004F14405061D42
:10809000B24238BFA842C0F025810B2B40F22281AA
:1080A000554215F0030500F0098194F84020027054
:1080B000012D00F1010804F1410200F0008194F863
:1080C00041204270022D00F1020804F1420200F04A
:1080D000F68094F84220827000F1030804F1430214
:1080E0000327A3EB0509A9F10406B60805F1400C26
:1080F00001362844A4444FEA860B4FF0000A0AF1E7
:10810000010A5CF8045B40F8045B5645F7D8D94592
:108110005F4408EB0B0002EB0B0500F0B28012F895
:10812000262008F826207A1C934240F2AA800237C3
:108130006A784270BB4240F2A480AB78837070468C
:1081400008F008FA002840F0A280012003B0BDE842
:10815000F08F891B06F1400306F14400402904EB2F
:108160000308204404F1C40528BF4021A84538BFB6
:108170008645C0F0AD800B2940F2AA80C8F1000806
:1081800018F0030800F09280925D84F8C020B8F1E6
:10819000010F04F1C10507F1010600F089807A782A
:1081A00084F8C120B8F1020F04F1C20507F10206FC
:1081B0007ED0BA7884F8C220FE1C04F1C3054FF0CB
:1081C0000309434408F1C000E2582250A1EB08081B
:1081D000A8F1040223449208013220445F684760FA
:1081E000022A4FEA820C35D09F688760032A31D07B
:1081F000DF68C760042A2DD01F690761052A29D0CE
:108200005F694761062A25D09F698761072A21D0C7
:10821000DF69C761082A1DD01F6A0762092A19D0C1
:108220005F6A47620A2A15D09F6A87620B2A11D0BB
:10823000DF6AC7620C2A0DD01F6B07630D2A09D0B5
:108240005F6B47630E2A05D09F6B87630F2A01D0AF
:10825000DB6BC363E045E14405EB0C0306EB0C006C
:108260000FD016F8226005F8226009F10102914250
:1082700007D909F1020942785A70494501D9827833
:108280009A70704608F066F900283FF45EAFBFF3BD
:108290005B8F002384F810310120BFF35B8F03B0A4
:1082A000BDE8F08F01685AE6341100203E4675465D
:1082B000C14686E7B846F4460190B7E680462F46A9
:1082C0000FE7BFF35B8F84F81021BFF35B8F3CE7B0
:1082D00004F1BF03781817F8012B03F8012F874228
:1082E000F9D1CEE70138134412F8015B00F8015FC1
:1082F0009A42F9D1C5E704F1BF00FE1817F8015BF7
:1083000000F8015FBE42F9D1BAE67046BAE600BF96
:1083100070B5164E346814F0010402D0144B18687E
:1083200070BD4FF490700FF07BFB054600F18003A9
:10833000C0F800410F49C5F80441C5F81431C5F82B
:108340000841C5F81841C5F80C4185F81C4185F86D
:108350001041A5F8124185F81141032008F01AF9DF
:10836000034A012315602846336070BD3011002098
:1083700078110020897C00002DE9F041C74AD2F82D
:10838000A8306FF386138CB0C2F8A830D2F8A830AA
:108390005906FBD4D2F8A830C049042060F3030387
:1083A000C2F8A830D2F8A83043F04003C2F8A83091
:1083B0004B68DB06FCD4BA4BBA491A6942F48062B6
:1083C0001A619A6942F001029A61A1F1D700032271
:1083D00008F08CFC0446002800F09C81B24B0FCBC7
:1083E0008DE80F0003681D0FE8B2C3F3036800F1C6
:1083F00030073730092D88BF07465FFA88F0C3F38E
:10840000035600F1300C3730B8F1090FC8BF84466D
:10841000F0B2C3F303458DF811C000F1300C3730D2
:10842000092EC8BF8446E8B2C3F3033E8DF812C0DC
:1084300000F1300C3730092DC8BF84465FFA8EF04A
:108440008DF810708DF813C0C3F3032700F1300CC2
:108450003730BEF1090FD4BFE6468646F8B2C3F303
:1084600003160A468DF814E000F1370E3030092F5C
:10847000CCBF77460746F0B212688DF8157003F04E
:108480000F0300F137073030092ECCBF3E460646B9
:10849000D8B2150F8DF8166000F137063030092B71
:1084A000CCBF33460346E8B2C2F3036C8DF81730F5
:1084B00000F137033030092D88BF18465FFA8CF37E
:1084C000C2F3035E8DF8180003F137003033BCF1BE
:1084D000090FCCBF84469C465FFA8EF3C2F3034774
:1084E0008DF819C003F1370C3033BEF1090FD8BF36
:1084F0009C46FBB2C2F303368DF81AC003F1370C69
:108500003033092FD8BF9C46F3B2C2F303258DF850
:108510001BC003F1370C3033092ED8BF9C46EBB299
:10852000C2F3031002998DF81CC003F1370C3033ED
:10853000092DCCBF65461D46C3B209688DF81D5094
:1085400002F00F0203F1370530330928CCBF28466B
:108550001846D3B24FEA117E8DF81E0003F13700A2
:108560003033C1F30367092ACCBF02461A465FFACB
:108570008EF5F8B28DF81F2005F137023035C1F3C2
:108580000356BEF1090F88BF154600F1370230309F
:10859000092FC8BF1046F3B203F137028DF821004E
:1085A0003033C1F30340092EC8BF1346C2B2C1F332
:1085B000033E02F1370830320928D8BF90465FFAEF
:1085C0008EF2C1F303278DF822302046039B8DF8ED
:1085D000205002F137043032BEF1090FD8BF1446E3
:1085E000FAB21B688DF82440C1F3031602F1370478
:1085F0003032092FCCBF27461746F2B201F00F01E7
:108600008DF8257002F137073032092ECCBF3E4677
:108610001646CAB21D0F8DF8266002F137063032B9
:108620000929CCBF31461146EAB2C3F3036C8DF879
:10863000271002F130013732092D88BF11465FFA49
:108640008CF2C3F3035E8DF8281002F1300137324B
:10865000BCF1090FD4BF8C4694465FFA8EF2C3F387
:10866000034402F137013032BEF1090FCCBF8E4610
:108670009646E1B2C3F303378DF82AE001F1370ED5
:108680003031092CD8BF8E46FAB2C3F303268DF8D9
:108690002BE002F1300E373208E000BF001C004032
:1086A00000080040EF00002020CC0200092FD4BFBA
:1086B00077461746C3F30315F4B203F00F03DAB29B
:1086C000E9B28DF82C7004F130073734092ED8BF89
:1086D0003C4601F1300E02F1300737313732092DB7
:1086E000D8BF7146092BD4BF3B4613468DF82E10D8
:1086F0008DF82F308DF823808DF829C08DF82D400E
:108700000DF10F030DF12F0113F8012F20F8022FA7
:108710008B42F9D12A4B2B4A2B4F2C4D2C488021D0
:108720004FF080764FF0804482F8501382F8511356
:1087300082F8521382F853139E609C629F625E61BE
:1087400093F8582002F0FB0283F8582093F8582041
:1087500002F0FE0242F0010283F8582093F83C2018
:1087600002F0F0024FF0007142F0070283F83C2063
:1087700099609C629D62596193F8592002F0FB0256
:1087800083F8592093F8592002F0FE0242F00102CA
:1087900083F8592093F83C2002F00F0242F0700257
:1087A00083F83C2008F0EAF907F0A2FE094808F037
:1087B00013FA08F029FA01200CB0BDE8F08100BFDF
:1087C0000080004100E100E0000100C0000200C0A4
:1087D00038110020100000200120704708B507F074
:1087E00007FF006808BD00BF38B590F81C3103B121
:1087F00038BD04460125184684F81C51064907F087
:10880000C9FE2846054907F0C5FE04F18000402155
:10881000BDE8384007F08ABE097D0000417F0000B6
:1088200003460022C0F80021C0F81821C0F8042136
:108830004021803083F8112107F078BE38B5044616
:108840004FF08245D4F80821D4F80C319A4200D177
:1088500038BD07F0C7FE0028FAD094F81231DB07C4
:10886000F6D56B7B03F07F03022BEBD038BD00BF46
:1088700038B5054607F0B6FE044670B195F81241CA
:1088800014F0010409D04FF082435C7B04F07F04B4
:10889000A4F10204B4FA84F464090348002103F04B
:1088A000B1F8204638BD00BF804F1200D0F800312B
:1088B000D0F80421934200F016812DE9F04F5A1CA4
:1088C00002F03F02C45CC0F8002183B072B6D0F859
:1088D0000431D0F80021D0F818519B1A48BF40331A
:1088E000002D00F0E380D3F13F0300F0DF80D0F8EB
:1088F0000461D0F81421AB4228BF2B46C6F14001D9
:10890000994228BF19468719002900F0F880351DC3
:10891000054402F1040E774538BFAA42C0F0DA8060
:108920000B2940F2D780554215F0030500F0C380B3
:1089300092F800E000F806E0012D07F1010802F1CD
:10894000010900F0BA8092F801E087F801E0022DF9
:1089500007F1020802F1020900F0AF8092F802E08C
:1089600087F802E007F10308032702F103090097E3
:10897000A1EB050BABF10407BF0806EB050E0137B1
:108980004FEA870A864415444FF0000C01940CF11D
:10899000010C55F8044B4EF8044B6745F7D8009D81
:1089A000019CD345554408EB0A0E09EB0A0C00F074
:1089B0008C8019F8279008F827906F1CB94240F274
:1089C000848002359CF801708EF80170A9427CD930
:1089D0009CF802508EF802505718D0F81421D0F8A5
:1089E00018510A446D1A5B1AC0F81421C0F81851C6
:1089F00065D0011D3A1D904238BF8F42054675D3A0
:108A00000B2B73D9424212F0030260D03978017007
:108A1000012A00F1010507F1010E59D07978417062
:108A2000022A00F1020507F1020E51D0B9788170D7
:108A3000C51C07F1030E4FF00308A3EB020CACF1C9
:108A4000040189084E1C17444FEA8609024400219C
:108A5000013157F804AB42F804AB8E42F8D8CC454C
:108A600008EB090205EB09010EEB09070DD01EF812
:108A700026E005F826E0551CAB4206D902327D7887
:108A80004D70934201D9BA788A70D0F81421D0F889
:108A90001851C0F804311A44ED1AC0F81421C0F876
:108AA00018511DB98030402107F040FD62B620B258
:108AB00003B0BDE8F08FB8469146009558E73144C1
:108AC00001F03F01C0F80411EBE7571885E7BE46F7
:108AD0009046B2E77D1E571812F801EB05F801EF3A
:108AE000BA42F9D179E74FF0FF307047421EFD18C6
:108AF00017F8011B02F8011FBD42F9D1C5E717465F
:108B00006FE700BFD0F80421D0F800319A421ABFB5
:108B1000D0F80031C05C4FF0FF30704770B50446AC
:108B20000E464FF0824507F05DFD50B394F81201F8
:108B300010F0010025D06B7B03F07F03022B01D0E6
:108B4000002070BD94F81C0100B970BDD4F8083144
:108B5000D4F80C219B1A5A1E0ED4002AE3D0D4F864
:108B60000C31234483F84060D4F80C31013303F016
:108B70003F03C4F80C3170BD03F13F02002AD2D08C
:108B8000EDE770BDD0F80431D0F80001181A48BFE5
:108B900040307047D0F80831D0F80C219B1A581E8D
:108BA00048BF03F13F0070472DE9F04F00F588738F
:108BB00083B04FF00101BFF35B8FD3E84F2FC3E8C1
:108BC000441F002CF9D1BFF35B8F12F0FF0F40F070
:108BD000E480D0F80861D0F80C118E4200F0B68124
:108BE00000F1400303EB060700F1C005C0F0D88098
:108BF000C6F140021144402928BF40218A4228BFC3
:108C00000A46002A00F0C78106F1400E06F144042E
:108C100000EB0E08044400F1C40CE04538BFA54247
:108C2000C0F0AE810B2A40F2AB816C4214F0030419
:108C300000F07F819E5D80F8C060012C00F1C10CC6
:108C400007F1010800F07B817E7880F8C160022C7A
:108C500000F1C20C07F1020800F07181BE7880F8C3
:108C6000C260032607F1030800F1C30C0196A2EBD2
:108C7000040BABF10407BF080EEB04060137C03448
:108C8000064404444FEA87094FF0000E0EF1010E2E
:108C900056F804AB44F804ABBE45F7D3019CCB4572
:108CA0004C4408EB090E0CEB09060FD018F827808E
:108CB0000CF82780671CBA4208D902349EF801706C
:108CC0007770A24202D99EF80240B470AC188A1A9A
:108CD00000F01A81261D00F14407BC4238BFB342A0
:108CE000C0F045810B2A40F242815F4217F0030732
:108CF00000F0298190F840302370012F04F1010C1D
:108D000000F1410300F01D8190F841306370022FA3
:108D100004F1020C00F1420300F0138190F842309C
:108D2000A37004F1030C00F143034FF00309A2EB1D
:108D30000708A8F1040E4FEA9E0E07F140060EF157
:108D4000010E3C4406444FEA8E0A0027013756F8CC
:108D500004BB44F804BBBE45F8D8D04509EB0A046F
:108D600003EB0A070CEB0A0600F0CE8013F82E3056
:108D70000CF82E30631C9A4240F2C68002347B7895
:108D80007370A24240F2C080BB78B370044628469C
:108D900007F0E0FB002840F0BE8003B0BDE8F08F94
:108DA000891B06F1400206F14404402900EB020C45
:108DB000044400F1C40E28BF4021F44538BFA54249
:108DC000C0F0CB800B2940F2C8806C4214F0030441
:108DD00000F0AB809B5D80F8C030012C00F1C10633
:108DE00007F1010E00F0A9807B7880F8C130022CD9
:108DF00000F1C20607F1020E00F09F80BB7880F8F8
:108E0000C23007F1030E00F1C3064FF0030C131933
:108E1000034404F1C0081A6840F808200F1B3A1FE9
:108E2000920800EB08040132D3F80480C4F80480EF
:108E3000022A4FEA82084FD0D3F80890C4F808906D
:108E4000032A49D0D3F80C90C4F80C90042A43D0DC
:108E5000D3F81090C4F81090052A3DD0D3F81490A0
:108E6000C4F81490062A37D0D3F81890C4F8189094
:108E7000072A31D0D3F81C90C4F81C90082A2BD0B4
:108E8000D3F82090C4F82090092A25D0D3F8249054
:108E9000C4F824900A2A1FD0D3F82890C4F8289048
:108EA0000B2A19D0D3F82C90C4F82C900C2A13D08C
:108EB000D3F83090C4F830900D2A0DD0D3F8349008
:108EC000C4F834900E2A07D0D3F83890C4F83890FC
:108ED0000F2A01D0DB6BE36347450CEB080306EB7D
:108EE00008040EEB080C0FD01EF8227006F8227052
:108EF0005A1C914208D902339CF8012062709942B1
:108F000002D99CF80230A3700446284607F022FBE1
:108F100000283FF442AFBFF35B8F002384F8103189
:108F2000BFF35B8F03B0BDE8F08FBE46A4462E466C
:108F30006DE7B8460194AC4699E6A44667E701940C
:108F400095E6B946F3E6B946A446F0E6BFF35B8F73
:108F500080F81021BFF35B8F1FE700F1BF037C187F
:108F600017F8012B03F8012FA742F9D1CCE7013CF8
:108F70001A4413F8016B04F8016F9342F9D1C3E767
:108F800000F1BF0407EB020E17F8016B04F8016F44
:108F9000BE45F9D19AE62C4699E600BF38B590F85F
:108FA0001C3103B938BD0546FFF7FEFD4FF0824482
:108FB000D5F80821D5F80C319A420BD007F012FBF6
:108FC00040B195F81231DB0704D5637B03F07F03D2
:108FD000022BEDD00024214685F81C41204607F0E5
:108FE000D9FA2146012007F0D5FA07F0C7FAC5F8EB
:108FF0000041C5F81841C5F80441C5F80841C5F855
:109000000C4185F8104185F8114138BD90F81031B8
:1090100003B17047D0F80821D0F80C319A4200F023
:10902000FD802DE9F04F00F5887383B04FF001010A
:10903000BFF35B8FD3E84F2FC3E8441F002CF9D157
:10904000BFF35B8F12F0FF0F40F0E580D0F80861AE
:10905000D0F80C118E4200F0AB8100F1400303EB1D
:10906000060700F1C005C0F0DA80C6F140021144E5
:10907000402928BF40218A4228BF0A46002A00F022
:10908000BC8106F1400E06F1440400EB0E080444D6
:1090900000F1C40CE04538BFA542C0F0A3810B2A03
:1090A00040F2A0816C4214F0030400F077819E5DD1
:1090B00080F8C060012C00F1C10C07F1010800F03C
:1090C00071817E7880F8C160022C00F1C20C07F13A
:1090D000020800F06581BE7880F8C260032607F1BF
:1090E000030800F1C30C0196A2EB040BABF10407DB
:1090F000BF080EEB04060137C034064404444FEAAF
:1091000087094FF0000E0EF1010E56F804AB44F83B
:1091100004ABBE45F7D3019CCB454C440CEB090690
:1091200008EB090E0FD018F827800CF82780671C71
:10913000BA4208D902349EF801707770A24202D96F
:109140009EF80240B470AC188A1A58D0261D00F15F
:109150004407BC4238BFB342C0F03B810B2A40F207
:1091600038815F4217F0030700F01F8190F840300C
:109170002370012F04F1010C00F1410300F016816E
:1091800090F841306370022F04F1020C00F14203A9
:1091900000F00C8190F84230A37004F1030C00F150
:1091A00043034FF00309A2EB0708A8F1040E4FEAAE
:1091B0009E0E07F140060EF1010E3C4406444FEAB4
:1091C0008E0A0027013756F804BB44F804BBBE459D
:1091D000F8D8D04509EB0A040CEB0A0603EB0A07A2
:1091E0000DD013F82E300CF82E30631C9A4206D99D
:1091F00002347B787370A24201D9BB78B370044605
:10920000284607F0A7F930B1BFF35B8F002384F83D
:109210001031BFF35B8F03B0BDE8F08F7047891B3F
:1092200006F1400206F14404402900EB020C04441C
:1092300000F1C40E28BF4021F44538BFA542C0F05C
:10924000BE800B2940F2BB806C4214F0030400F096
:109250009E809B5D80F8C030012C00F1C10607F1B3
:10926000010E00F096807B7880F8C130022C00F16E
:10927000C20607F1020E00F08E80BB7880F8C23083
:1092800007F1030E00F1C3064FF0030C131903445A
:1092900004F1C0081A6840F808200F1B3A1F920812
:1092A00000EB08040132D3F80480C4F80480022AD9
:1092B0004FEA82084FD0D3F80890C4F80890032AE8
:1092C00049D0D3F80C90C4F80C90042A43D0D3F8BA
:1092D0001090C4F81090052A3DD0D3F81490C4F82B
:1092E0001490062A37D0D3F81890C4F81890072A9B
:1092F00031D0D3F81C90C4F81C90082A2BD0D3F896
:109300002090C4F82090092A25D0D3F82490C4F8DE
:1093100024900A2A1FD0D3F82890C4F828900B2A4A
:1093200019D0D3F82C90C4F82C900C2A13D0D3F871
:109330003090C4F830900D2A0DD0D3F83490C4F892
:1093400034900E2A07D0D3F83890C4F838900F2AFA
:1093500001D0DB6BE36347450CEB080306EB080425
:109360000EEB080C3FF44BAF1EF8227006F822708B
:109370005A1C91427FF643AF02339CF80120627081
:1093800099427FF63CAF9CF80230A37037E7BE46A7
:109390002E46A4467AE74FF0020C77E7B846AC4673
:1093A0000194A1E6012601969EE6A446B946FAE696
:1093B000BFF35B8F80F81021BFF35B8F2BE700F1C9
:1093C000BF037C1817F8012B03F8012FA742F9D12E
:1093D00015E7013C1A4413F8016B04F8016F93423E
:1093E000F9D10CE700F1BF0407EB020E17F8016B8F
:1093F00004F8016FBE45F9D1A5E62C46A4E600BFEE
:1094000008B5FEF785FF014B186008BD3411002038
:10941000406A7047007970470120704738B50446AC
:1094200009F098FB2046144B40F8303B04F068F9F3
:10943000124A13492260002300203C320125A4F87F
:10944000FC30C4F86431C4F86831C4F86C31C4F835
:109450007031C4F87431C4E94C01C4E95001C4E965
:109460005401C4E956012263C4F8285184F8383104
:1094700084F84831204638BD80E20200C4CA0200A8
:109480000000F03F2DE9F04FC64BDFF858A3C64A65
:10949000C649C74EEDB008AC4FF000084FF00309C5
:1094A00080F8008006908DE808022046C14B0CF041
:1094B00093FEA1686268237B2069CAF80810CAF885
:1094C00004206169A2698AF80C30E369CAF81000C7
:1094D000CAF81410206A616ACAF81820CAF81C3049
:1094E00094F8282094F82930CAF82000802794F8AE
:1094F0002A00CAF824108AF82820A18D94F82E207A
:109500008AF8293094F82F308AF82F308AF82A0008
:10951000AAF82C108AF82E2014A93A460AF1300035
:109520001BF016FA3A4634A90AF1B0001BF010FA03
:10953000CDF80490A04AD4F83011D4F83401D4F80E
:1095400038310092D4F83C21CAF83011D4F84011D7
:10955000CAF83401CAF84011CAF838312046CAF8AE
:109560003C21964B964A97490AF04EFFA0686268E4
:1095700094F80CE02369B0607260A069E26986F833
:109580000CE0336194F828E0636A94F829C06569B7
:10959000B4F82CA0B061F26194F82A00226A7362D8
:1095A00086F828E094F82E3094F82FE086F829C049
:1095B00086F82E3086F82FE014A97561326286F89D
:1095C0002A003A46A6F82CA006F130001BF0C0F99C
:1095D0003A4634A906F1B0001BF0BAF9D4F840318C
:1095E000D4F83011D4F83421C6F84031D4F83831E9
:1095F000C6F83011C6F83421C6F83831D4F83C31F9
:1096000094F844E1C6F83C3120464FF4004186F816
:1096100044E10CF087FB01266B4B94F806A0B4F8EC
:1096200004C0DFF8C4E101960093A5688EF806A097
:109630003946AEF804C0CEF808502046634B644A61
:10964000644F08F0BDFA04F108000FC87B61D4F83C
:109650002A30C7F82A30236B94F806E03B63636B2B
:10966000B4F804A094F818C0E56987F806E0B8607B
:1096700094F819E0206AF9603A61616A94F8282048
:109680007B63A36BA7F804A087F818C087F819E0DC
:10969000FD61796287F82820BB63386294F83C004A
:1096A000E36C216C94F844C094F845E0A26C87F810
:1096B0003C00FB64206DB4F85C3094F83DA0656D0F
:1096C000396487F844C094F8581094F859C087F862
:1096D00045E0BA6494F85AE094F85B203865A7F83E
:1096E0005C30206E636E87F859C087F85AE087F8BF
:1096F0003DA07D6587F85B2038667B6687F858104B
:10970000A16E354B00962046B966344A344F40214D
:1097100008F05CFF04F108000FC87B61D4F82A3020
:10972000C7F82A30236B94F806E03B63636BB4F808
:1097300004A094F818C0E56987F806E0B86094F8CA
:1097400019E0206AF9603A61616A94F828207B6325
:10975000A36BA7F804A087F818C087F819E0FD618B
:10976000386287F82820BB63796294F83C10009631
:10977000E56C94F83DA0226C94F844C094F845E060
:1097800087F83C10FD64A16C256D87F83DA03A6414
:10979000B4F85CA094F8582087F844C087F845E0F6
:1097A00024E000BF38CE020098CE020028CE02008E
:1097B0000420002058CD020078CE020018CE02000E
:1097C00048CD020068CE020038D00200F8CF020077
:1097D000C8CE02006019002008D00200A8CF020005
:1097E000CC190020C01E0020F41B002094F85AC0A1
:1097F00094F85BE0B9643D6594F85910656D7D653A
:1098000087F8582087F8591087F85AC087F85BE026
:10981000A7F85CA02046C14BC14AC24F202108F0E6
:10982000D5FE04F108000FC87B61D4F82A30C7F8D0
:109830002A30236B94F806E03B63636BB4F804A012
:1098400094F818C0E56987F806E0B86094F819E064
:10985000206AF9603A61616A94F828207B63A36BFF
:10986000A7F804A087F818C087F819E0FD613862EE
:1098700087F82820BB63796294F83C100096E56C69
:1098800094F83DA0226C94F844C094F845E087F821
:109890003C10FD64A16C256D87F83DA03A64B4F8D6
:1098A0005CA094F8582087F844C087F845E094F805
:1098B0005AC094F85BE0B9643D6594F85910656D41
:1098C0007D6587F8582087F8591087F85AC087F8BF
:1098D0005BE0A7F85CA02046934B944A944F10217C
:1098E00008F074FE04F108000FC87B61D4F82A3038
:1098F000C7F82A30236BB4F804E03B63636B94F839
:1099000006A094F818C0E569A7F804E0B86094F8D8
:1099100019E0206AF9603A61616A94F828207B6353
:10992000A36B87F806A087F818C087F819E0FD61D7
:109930003862796287F82820BB6394F83C3087F856
:109940003C3094F83D20216C94F844E094F84500B4
:10995000A36CCDF80C8087F83D20E26C3964FA6482
:1099600094F85A10226D656D87F84500BB6494F831
:10997000580094F859303A6587F85A1094F85B20EB
:10998000B4F85C1087F844E07D6587F8580087F8E4
:10999000593087F85B20A7F85C10DFF8B8C1DFF812
:1099A000B8E1644B644ACDF804C04FF0680A204621
:1099B0000821CDF808A0CDF800E009F061F904F124
:1099C00008000FC85D4FB4F804E07B61D4F82A307A
:1099D000C7F82A30236B3B63636B94F806A094F8B6
:1099E00018C0E569A7F804E0B86094F819E0206AA7
:1099F000F9603A61616A94F828207B63A36B87F869
:109A000006A087F818C087F819E0FD61386287F86A
:109A10002820BB63796294F83C1094F83D30206CA8
:109A200094F845C087F83D30E36C94F844A087F87B
:109A30003C103864A16C206D87F845C0FB6494F835
:109A400058C094F85A30656D87F844A0B964B4F8EA
:109A50005CA094F85910386587F858C094F85B00FA
:109A6000B4F85EC087F85A304FF0650EB4F8603035
:109A7000334A7D6587F8591087F85B00A7F85CA02A
:109A8000A7F860302F49A7F85EC0B4F862C0CDF8DF
:109A90000C80CDF808E00192E26E009194F870100D
:109AA000656EFA66626FB4F880A094F882E0A7F859
:109AB00062C07D6694F883C0A56E87F870107A67DF
:109AC000E16FA26FBD66BA67F967A7F880A087F853
:109AD00082E087F883C020461B4B1C4A1C4F0421A0
