:104000000000032051AB0000D1420000D14200006B
:10401000D1420000D1420000D14200000000000067
:10402000000000000000000000000000D14200007D
:10403000D142000000000000D1420000EDA90000C4
:10404000D1420000D1420000D1420000D142000024
:10405000D1420000D1420000D1420000D142000014
:10406000D1420000D1420000D1420000D142000004
:10407000C1A80000D1A80000E1A80000F1A800003C
:1040800001A9000011A9000021A9000031A9000028
:1040900041A9000051A9000061A9000071A9000018
:1040A00081A900008DA900009DA90000ADA9000014
:1040B000D1420000D1420000D1420000D1420000B4
:1040C000D1420000D1420000D1420000D1420000A4
:1040D000D1420000D1420000D1420000D142000094
:1040E000D1420000D14200000000000000000000AA
:1040F00000000000D142000055A80000D14200009D
:1041000061A800006DA80000D1420000D14200006B
:10411000D1420000D142000079A80000D142000045
:1041200085A8000091A80000D1420000D142000003
:10413000D1420000D1420000D1420000D142000033
:10414000D1420000D1420000D1420000D142000023
:10415000D1420000D1420000D1420000D142000013
:10416000D1420000D14200009DA80000D1420000D1
:10417000A9A80000B5A80000000000000000000091
:10418000DD5E0100E15E0100E55E0100E95E010027
:1041900049A8000041AA0000D1420000D14200001D
:1041A000D1420000D1420000D1420000D1420000C3
:1041B000D1420000D1420000D1420000D1420000B3
:1041C000D1420000D1420000D1420000D1420000A3
:1041D000D1420000BDA90000D1420000D142000040
:1041E000D5A90000D1420000D1420000D142000018
:1041F000D1420000D1420000D1420000D142000073
:10420000D1420000D1420000D1420000D142000062
:10421000D1420000D1420000D1420000D142000052
:10422000D1420000D1420000D1420000D142000042
:10423000D1420000D1420000D1420000D142000032
:10424000D1420000D1420000D1420000D142000022
:10425000D1420000D1420000D1420000D142000012
:10426000D142000010B5054C237833B9044B13B18B
:104270000448AFF300800123237010BDC00A002062
:104280000000000024C702000C4B43B10C480D494C
:1042900010B5AFF300800C48036823B910BD0A487D
:1042A000036833B97047094B002BF7D0BDE81040C5
:1042B0001847064B002BF5D0184700BF0000000040
:1042C00024C70200C40A0020BC0A0020000000002D
:1042D000FEE700BF014B024A1A6070470000002051
:1042E000006CDC02000000002DE9F0415E4B5F4EE7
:1042F00018682DED068B0A22022108F097F801219B
:104300005B4801F017FF01215A4801F013FF01211A
:10431000594801F00FFF4FF00108584886F8008017
:10432000002106F003FE06F10800524A504908F049
:10433000BFFE50B944A5D5E90045032386F84034B3
:104340002046294606F0F2FDFAE79FED418B9FEDEE
:10435000429BB0EE481AF0EE681AB0EE490AF0EE51
:10436000690A02224FF4487106F1080009F062FB65
:10437000B0EE481AF0EE681AB0EE490AF0EE690A9B
:1043800002224FF4487106F1080009F083FBB0EEF9
:10439000481AF0EE681AB0EE490AF0EE690A0222F5
:1043A0004FF4487106F58964334802F045F8022558
:1043B0004FF44877204684ED029B84ED068B86F807
:1043C0005854C6F8487409F04FFE06F59063184635
:1043D0009FED23AB83ED029B83ED068B86F8905413
:1043E000C6F8807409F040FE06F59763184683ED21
:1043F000029B83ED068B86F8C854C6F8B87409F0A2
:1044000033FEB0EE4A0AF0EE6A0A06F1080009F03F
:104410008FFB1B4C86F8F084002241F28833114652
:104420004CF2503506F1080084ED00ABA360C6F8ED
:10443000C033C6F8C45309F061FBBDEC068B002302
:10444000C6F8F434BDE8F081000E27070000000034
:10445000000000000000F03F0000000000001440D9
:104460000000000000D8A34034230020E00A002010
:10447000781100200813002098140020001BB700BA
:104480000800002038B51D4C04F1080008F078FD44
:104490001B4B002204F5896504F5906004F59761D3
:1044A000C5E90223C5E90623C5E90A23C5E90C23AA
:1044B000C0E90223C0E90623C0E90A23C0E90C23AE
:1044C000C1E90223C1E90623C1E90A23C1E90C239A
:1044D00000230122C4F84824C4F88024C4F8B82476
:1044E00084F8583484F8683484F8903484F8A0341C
:1044F00084F8C83484F8D83438BD00BFE00A0020FE
:104500000000F03F0C4870B54FF4E131044602F072
:10451000D7FD204602F0C8FD06F0DEFC41F28736EA
:104520000546204602F0BAFD00B170BD06F0D4FC8D
:10453000401BB042F5D970BDB81B002070B50446D1
:104540001DF0BEFF60B1074E251801E0AC4207D058
:1045500014F8011B304602F0CBFD0028F6D170BDE7
:10456000012070BDB81B002070B586B002460D4911
:1045700001A81DF083FD01A81DF0A2FF60B101ACF0
:10458000094E251801E0AC4206D014F8011B304654
:1045900002F0AEFD0028F6D10A21034802F0A8FD82
:1045A00006B070BD78910200B81B002070B52F4D89
:1045B0002F4C95F840342F48013BDBB2052B96BFBA
:1045C0002D4A2E4E52F82360237B2DED048BBAB07A
:1045D000002B3DD009F0E8FA2648B0EE408AF0EE14
:1045E000608A09F0F5FAB0EE409AF0EE609A237B0B
:1045F000D5F8F404224A002B34D0022109F0B4FB90
:10460000D4E900013246CDE906018DED040B8DEDB4
:10461000029B8DED008B08A81A491DF02FFD08A8FC
:104620001DF04EFF60B108AC174E251801E0AC42FA
:1046300006D014F8011B304602F05AFD0028F6D1CE
:104640000A21114802F054FD3AB0BDEC048B70BD54
:1046500009F082FA0748B0EE408AF0EE608A09F06D
:104660008FFAC0E7012109F07FFBC9E7E00A0020CB
:1046700008000020E80A00206091020084910200F6
:10468000980F00208C910200B81B00200000000051
:1046900070B5274C237886B04BB3264B1B7B062284
:1046A00084F8402403B39FED1E0B234809F040FA21
:1046B00000221146204809F021FA002301226F212F
:1046C0001E48C4F8F43484F8403484F8FA2402F024
:1046D0000FFD18B16B21194802F00AFD0A21174895
:1046E00002F006FD06B070BD9FED0F0BDDE701A8DF
:1046F000092213491DF0C2FC01A81DF0E1FE0028AB
:10470000ECD001AC0D4E251801E0A542E6D014F81E
:10471000011B304602F0ECFC0028F6D1DEE700BFBA
:104720000000000000C06F400000000000002440B6
:10473000E00A002008000020E80A0020B81B002042
:10474000789102002DE9F041824C2DED068B237803
:1047500086B0002B00F0CD80B0EE40AAF0EE60AA4B
:10476000B0EE419AF0EE619A94F8FB64B0EE428AA2
:10477000F0EE628A012E784D00F08D80B0EE4A0A8C
:10478000F0EE6A0A2B7B7549002B55D0022009F008
:1047900033FAB0EE490AF0EE690A71490646022082
:1047A00009F02AFAB0EE480AF0EE680A80466D4930
:1047B000022009F021FA07463146424642F21076BD
:1047C0006948C4F8C06309F0E3F8AB68C4F8C033C3
:1047D000002848D0D4F8F4349F421BD0634D3146B2
:1047E00005F1300008F098FA00223946284602F018
:1047F00091F9D5F864319A0709D55D4E0027304606
:10480000394606F093FBD5F864319B07F7D46B6CFF
:10481000C4F8F4346F21574802F06AFC18B16B21D8
:10482000544802F065FC0A21524802F061FC06B0CF
:10483000BDEC068BBDE8F081012009F0DDF9B0EE9A
:10484000490AF0EE690A46490646012009F0D4F902
:10485000B0EE480AF0EE680A80464249012009F0AD
:10486000CBF90746A8E701A8182243491DF006FC2A
:1048700001A81DF025FE0028D5D001AC3D4E25181D
:1048800001E0A542CFD014F8011B304602F030FC05
:104890000028F6D1C7E72B7B04F10800002B40D09D
:1048A00009F082F951EC1A0B53EC102B1AF0DEFAD6
:1048B00041EC1A0B04F1080009F08AF953EC102BB3
:1048C00051EC190B1AF0D2FA2B7B41EC190B002B8F
:1048D00036D004F597620221D4F8F40409F044FAC2
:1048E00053EC102B51EC180B1AF0C0FA41EC180BDA
:1048F00044E701A8092220491DF0C0FB01A81DF0D2
:10490000DFFD00288FD001AC1A4E251801E0AC4223
:1049100089D014F8011B304602F0EAFB0028F6D1DA
:1049200081E709F019F951EC1A0B53EC102B1AF02E
:104930009DFA41EC1A0B04F1080009F021F9BDE7DA
:1049400004F597623146D4F8F40409F00DFA53ECFB
:10495000102BC7E7E00A002008000020280F0020E5
:10496000600F0020980F0020E80A00209814002013
:10497000C0D40100B81B0020789102002DE9F04D51
:104980002DED088BB0EE438AF0EE638AB0EE40BAAC
:10499000F0EE60BA86B00022002351EC130BB0EEAB
:1049A00041AAF0EE61AAB0EE429AF0EE629A1AF0D5
:1049B00095FE002800F0E180B0EE480AF0EE680AAB
:1049C0009C4C9D48237B002B00F0928009F0B0F8AE
:1049D00084ED008B994D012385F8F0342B78002B62
:1049E00000F0F58095F8FB34924C012B00F0D68056
:1049F000B0EE4B0AF0EE6B0A237B9149002B40F09E
:104A00009180012009F0F8F8B0EE4A0AF0EE6A0A47
:104A100006468C49012009F0EFF8024631468648E7
:104A200008F0B6FF00228046002351EC190B1AF063
:104A300037FE002861D095F8FB34002B43D1B0EE4F
:104A4000490AF0EE690A237B7F49002B40F09080F1
:104A5000012009F0D1F80646D5F8F4349E4232D050
:104A6000D4E900010022794B794C1AF0DBFC824634
:104A7000D5F8B8048B461AF035FB734BD3E9022303
:104A80001AF0D0FC5B4652461AF0A2FB1AF050FE18
:104A9000014604F1300008F03FF90022314620467B
:104AA00002F038F8D4F864319A0709D5694E002726
:104AB0003046394606F03AFAD4F864319B07F7D409
:104AC000636CC5F8F434B8F1000F39D06F21624837
:104AD00002F00EFB18B16B215F4802F009FB0A21BE
:104AE0005D4802F005FB06B0BDEC088BBDE8F08D1B
:104AF00009F00CF884ED008B6CE795F8FB140129A4
:104B00009DD1237B504AD5F8F40403B1022109F06A
:104B10002BF951EC190B53EC102B1AF0A7F941ECBF
:104B2000190B8CE7022009F067F8B0EE4A0AF0EEA4
:104B30006A0A06464349022009F05EF802466DE71C
:104B400001A8182245491DF099FA01A81DF0B8FCEA
:104B50000028C4D001AC404E251801E0A542BED0CB
:104B600014F8011B304602F0C3FA0028F6D1B6E76C
:104B7000022009F041F806466EE7304D95F8F03412
:104B8000002B3FF42BAF2B4C237B94ED000B05F156
:104B90000800002B4BD108F0B9FF1FE7237B264804
:104BA0007BBB08F0D9FF51EC1B0B53EC102B1AF018
:104BB0005DF941EC1B0B204808F0E2FF51EC1A0BA9
:104BC00053EC102B1AF052F941EC1A0B10E701A824
:104BD000092222491DF052FA01A81DF071FC00289B
:104BE0003FF47DAF01AC1C4E251802E0AC423FF40F
:104BF00076AF14F8011B304602F07AFA0028F5D19E
:104C00006DE708F0D1FF51EC1B0B53EC102B1AF0A1
:104C10002DF941EC1B0B084808F0DAFF51EC1A0B98
:104C200053EC102B1AF022F941EC1A0BE0E608F0D5
:104C30007FFFD3E608000020E80A0020E00A0020F9
:104C4000280F0020600F0020980F002000004E4029
:104C500098140020C0D40100B81B002078910200F5
:104C60002DE9F04F2DED048BB0EE458AF0EE658A0C
:104C70008FB00022002351EC150B8DED020B8DED52
:104C8000041B59EC138B5BEC14AB1AF027FD0028C6
:104C900000F0F580B0EE480AF0EE680AAE4CAF487E
:104CA000237B002B00F0B08008F042FF84ED008BE6
:104CB000AB4E012386F8F0343378002B00F00881E6
:104CC000A54BA6481B7B002B40F0A38008F044FFB7
:104CD000A24855EC104B08F053FF96F8FB34012B1B
:104CE0008DED060B00F0A38042464B462046294638
:104CF0001AF0BCF852465B4606460F46DDE906014F
:104D00001AF0B4F842464B4604460D464046494622
:104D10001AF05EFA5246804689465B46504659462E
:104D20001AF056FA02460B46404649461AF09EF8DB
:104D300041EC100B18F0C6FE0022002351EC100BC2
:104D4000B0EE409AF0EE609A1AF0BEFC002840F0F7
:104D5000E180DDE9020132463B461AF085F8224641
:104D60002B46CDE90201DDE904011AF07DF89DED45
:104D7000021B41EC100B18F0A3FE0022002351ECA3
:104D8000100BB0EE408AF0EE608A1AF093FC002817
:104D900040F0B680704B73491B7B002B58D147EC19
:104DA000106B012008F028FF45EC104B6E490646B9
:104DB000012008F021FFB0EE490AF0EE690A05462D
:104DC0006849012008F018FF03460124B0EE480AA4
:104DD000F0EE680A2A4631460094604808F024FD47
:104DE00000285DD06F21614802F082F918B16B2173
:104DF0005E4802F07DF90A215C4802F079F90FB0B3
:104E0000BDEC048BBDE8F08F08F080FE84ED008BD4
:104E10004EE708F0C9FE514855EC104B08F0D8FE9B
:104E200096F8FB34012B8DED060B7FF45DAFDDE9C9
:104E3000020122462B461AF019F8DDE90623CDE9D6
:104E40000201DDE904011AF011F8CDE904014BE794
:104E500047EC106B022008F0CFFE45EC104B4249A6
:104E60000646022008F0C8FEB0EE490AF0EE690AD4
:104E700005463C49022008F0BFFE0346A5E7384E30
:104E800096F8F034002B3FF417AF334B1A7B93EDB9
:104E9000000B06F10800002A56D108F037FE0BE798
:104EA00009A8182232491DF0E9F809A81DF008FBED
:104EB0000028A0D009AC2D4E251801E0AC429AD0B4
:104EC00014F8011B304602F013F90028F6D192E7DE
:104ED00009A8092226491DF0D1F809A81DF0F0FA09
:104EE000002888D009AC214E251801E0A54282D0C7
:104EF00014F8011B304602F0FBF80028F6D17AE7DF
:104F000051EC180B12A3D3E9002319F0AFFF41ECC9
:104F1000180B3FE709A8022215491DF0AFF809A8B0
:104F20001DF0CEFA00283FF466AF09AC0F4E2518ED
:104F300002E0A5423FF45FAF14F8011B304602F0D7
:104F4000D7F80028F5D156E708F0F2FDB4E600BF27
:104F5000182D4454FB21194008000020E80A0020C5
:104F6000E00A0020280F0020600F0020B81B00205E
:104F700078910200000000002DE9F04F2DED068B26
:104F8000B0EE458AF0EE658AB0EE42AAF0EE62AA73
:104F900091B00022002351EC150B8DED020B8DED2D
:104FA000041B59EC138B57EC146B1AF097FB002879
:104FB00000F06081B0EE480AF0EE680AC64CC748BF
:104FC000237B002B00F0C08008F0B2FD84ED008B45
:104FD000DFF82CA301238AF8F0349AF80030002B74
:104FE00000F05A81DFF8F0B2BC489BF80C30002B7F
:104FF00040F00A8108F0B0FDB84855EC104B08F0BD
:10500000BFFD9AF8FB34012B8DED080B00F00A81EF
:1050100042464B462046294619F028FF3246CDE944
:1050200006013B46DDE9080119F020FF42464B46E8
:1050300004460D46404649461AF0CAF832468046B4
:1050400089463B46304639461AF0C2F802460B46BE
:105050004046494619F00AFF41EC100B18F032FDAA
:105060000022002351EC100BB0EE409AF0EE609A53
:105070001AF02AFB002840F04F81DDE90623DDE924
:10508000020119F0F1FE22462B46CDE90201DDE9CD
:10509000040119F0E9FE9DED021B41EC100B18F024
:1050A0000FFD0022002351EC100BB0EE408AF0EE11
:1050B000608A1AF0FFFA002840F024819BF80C3037
:1050C0008749002B40F0BF809DED060B012008F0C2
:1050D00093FD45EC104B83490646012008F08CFDFA
:1050E000B0EE490AF0EE690A05467D49012008F054
:1050F00083FD03460024B0EE480AF0EE680A2A4613
:1051000031460094754808F08FFB002800F01E819E
:105110000022002351EC1A0B1AF0C2FAC8B19AF817
:10512000FB345BB36F21704801F0E2FF18B16B21D3
:105130006D4801F0DDFF0A216B4801F0D9FF11B085
:10514000BDEC068BBDE8F08F08F0E0FC84ED008B31
:105150003EE79AF8FB14012910D19BF80C30634A02
:10516000DAF8F40403B1022108F0FEFD51EC1A0B49
:1051700053EC102B19F07AFE41EC1A0BB0EE4A0AF0
:10518000F0EE6A0A9BF80C305849002B00F09E8024
:10519000022008F031FD0446DAF8F4349C42C1D014
:1051A0000022534BDBE900011AF03CF90646DAF81D
:1051B000B8040F4619F096FF4C4BD3E902231AF0BE
:1051C00031F932463B461AF003F81AF0B1FA494E6B
:1051D000014606F1300007F09FFD002221463046CF
:1051E00001F098FCD6F864319A0709D5424C0025A5
:1051F0002046294605F09AFED6F864319B07F7D47D
:10520000736CCAF8F4348DE708F0CEFC334855ECE3
:10521000104B08F0DDFC9AF8FB34012B8DED080BE8
:105220007FF4F6AEDDE9020122462B4619F01EFEA0
:10523000DDE90823CDE90201DDE9040119F016FEDC
:10524000CDE90401E4E69DED060B022008F0D4FC54
:1052500045EC104B23490646022008F0CDFCB0EE89
:10526000490AF0EE690A05461D49022008F0C4FC0F
:1052700003463FE7DFF888A09AF8F034002B3FF4AC
:10528000ACAE154B1A7B93ED000B0AF10800002A17
:1052900076D108F03BFCA0E60BA8092217491CF0C8
:1052A000EDFE0BA81DF00CF900283FF444AF0BAC49
:1052B0000D4E251802E0AC423FF43DAF14F8011B3F
:1052C000304601F015FF0028F5D134E7012008F041
:1052D00093FC044660E700BF08000020E80A0020B5
:1052E000280F0020600F0020B81B0020980F00201E
:1052F00000004E4098140020C0D4010078910200B4
:10530000E00A002051EC180B21A3D3E9002319F087
:10531000ADFD41EC180BD1E60BA802221A491CF096
:10532000ADFE0BA81DF0CCF800283FF404AF0BAC89
:10533000164E251802E0A5423FF4FDAE14F8011BFD
:10534000304601F0D5FE0028F5D1F4E60BA818226E
:105350000D491CF093FE0BA81DF0B2F800283FF495
:10536000EAAE0BAC094E251802E0A5423FF4E3AECD
:1053700014F8011B304601F0BBFE0028F5D1DAE637
:1053800008F0D6FB29E600BF78910200B81B002088
:10539000182D4454FB2119402DE9F04F0178944F0A
:1053A00095B000220023002647290546CDE90223B7
:1053B000CDE90423CDE90623CDE90823CDE90A236D
:1053C000CDE90C671ED04D291CD00FA814228949A5
:1053D0001CF054FE0FA81DF073F860B10FAC864EA0
:1053E000251801E0A54206D014F8011B304601F053
:1053F0007FFE0028F6D10A217F4801F079FE15B022
:10540000BDE8F08F14AA002442F84C4D7B49284691
:105410001CF05AFE2A78002AF1D0DFF8F8A1A14644
:10542000A04627462646AB4602F0DF02582A38D06F
:10543000592A41D05A2A4AD0492A54D04A2A5ED001
:10544000462A00F0CA801BF8012F002AECD12B78E5
:10545000472B5FD04D2BD2D1019B1E2B00F2088130
:10546000DFE813F0FC00FC000601F500F500F50094
:1054700006010601060106010601060106010601F4
:1054800006010601060106010601060106010601E4
:1054900006010601060106010601060106010601D4
:1054A000DA0002AA584656491CF00EFE1BF8012FDE
:1054B0000126002AB8D1CAE704AA584651491CF06F
:1054C00003FE1BF8012F0127002AADD1BFE706AA72
:1054D00058464D491CF0F8FD1BF8012F4FF001080C
:1054E000002AA1D1B3E708AA584651461CF0ECFDAA
:1054F0001BF8012F4FF00109002A95D1A7E70AAA4E
:10550000584642491CF0E0FD1BF8012F0124002AF7
:105510008AD19CE7019B5C2B00F29C81DFE813F0B1
:105520004201510120016D019A019A019A019A01EB
:105530009A019A019A019A019A019A019A019A0193
:105540009A019A019A019A0162018F019A019A01C6
:105550009A019A019A019A011D019A019A019A01F0
:105560009A019A019A019A019A019A01F8009A0106
:105570009A019A019A019A019A019A019A019A0153
:105580009A019A019A019A019A019A019A019A0143
:105590009A019A019A019A019A019A019A019A0133
:1055A0009A019A019A019A019A019A019A019A0123
:1055B0009A019A019A019A019A019A019A019A0113
:1055C0009A019A019A019A019A019A019A019A0103
:1055D0009A019A01ED00E200C2000CAA58460C495B
:1055E0001CF072FD1BF8012F002A7FF41DAF2EE77F
:1055F0000000F0BF78910200B81B0020B0910200BB
:10560000BC910200C4910200CC910200DC91020026
:10561000E4910200D4910200AF4C04F1080007F0BD
:105620006BFEAE4807F032FB00236F21AC4884F8D4
:10563000403401F05DFD00283FF4DDAE6B21A84849
:1056400001F056FD0A21A64801F052FDD7E66F2170
:10565000A34801F04DFD0028F0D1CCE69E4C04F1AA
:10566000080007F0A7FE00219C4807F029FBDBE7B4
:105670000FA802229B491CF001FD0FA81CF020FF7F
:1056800000283FF4B8AE0FAC954E251802E0AC42AE
:105690003FF4B1AE14F8011B304601F029FD00289B
:1056A000F5D1A8E6002E40F0EF80002F00F03D81FC
:1056B0008D4B1B7B002B40F01D81874BD3F8AC43F7
:1056C0008A4901209DED040B08F096FA02468848AD
:1056D000214608F013FA6F21814801F009FD0028E6
:1056E000ACD188E67C4B7E4801226F2183F8FB24F5
:1056F00001F0FEFC0028A1D17DE6774B784800221E
:105700006F2183F8FB2401F0F3FC002896D172E6A8
:1057100026B91FB9B8F1000F00F0F7806E4B714940
:105720001B780FA80922002B40F0BF801CF0A6FCBC
:105730000FA81CF0C5FE00283FF45DAE0FAC684E0C
:10574000251802E0AC423FF456AE14F8011B304677
:1057500001F0CEFC0028F5D14DE6FEF799FF4EE6AC
:1057600036B12FB1B9F1000F02D0002C40F0F88013
:105770000FA801225B491CF081FC0FA81CF0A0FEC1
:1057800000283FF438AE0FAC554E251802E0A54274
:105790003FF431AE14F8011B304601F0A9FC00289B
:1057A000F5D128E626B91FB9B8F1000F00F0AD8099
:1057B0009DED062B9DED041B9DED020BFEF7C2FF38
:1057C0001DE626B91FB9B8F1000F00F09E809DEDCF
:1057D0000C3B9DED062B9DED041B9DED020BFFF791
:1057E000CDF80CE6404B3E4800226F211A7301F0C1
:1057F0007FFC00287FF422AFFDE536B12FB1B9F16F
:10580000000F02D0002C40F09C800FA801223549E7
:105810001CF034FC0FA81CF053FE00283FF4EBAD45
:105820000FAC2F4E251802E0A5423FF4E4AD14F86A
:10583000011B304601F05CFC0028F5D1DBE52A4B6A
:10584000274801226F211A7301F052FC00287FF4CF
:10585000F5AED0E50FA8022222491CF00FFC0FA8DC
:105860001CF02EFE00283FF4C6AD0FAC1C4E2518D0
:1058700002E0A5423FF4BFAD14F8011B304601F031
:1058800037FC0028F5D1B6E5174B1B7B002B40D029
:10589000114D022005F589619DED020B08F0ACF970
:1058A000044657BBD5F8B02311E71CF0E7FB0FA85F
:1058B0001CF006FE00283FF49EAD0FAC084E2518E4
:1058C00002E0A5423FF497AD14F8011B304601F009
:1058D0000FFC0028F5D18EE5E00A0020C814002056
:1058E000B81B00207891020008000020600F002003
:1058F000E80A0020224BD3F8AC43224902209DED58
:10590000040B08F079F90246E1E60120FEF72CFECF
:1059100075E51B4D012005F589619DED020B08F031
:105920006BF90446002FBDD0CAE63A463946164800
:1059300008F0E4F81548FEF701FE1548FEF7FEFDF5
:105940005DE59DED0C5B9DED0A4B9DED083B9DEDEE
:10595000062B9DED041B9DED020BFFF70DFB4EE5A5
:105960009DED0C5B9DED0A4B9DED083B9DED062BDF
:105970009DED041B9DED020BFFF772F93FE500BFA3
:10598000E00A0020600F0020E80A0020EC910200ED
:10599000B8B202002DE9F04FC7B0FEF7A5FCFEF744
:1059A000B1FDAE48AE4CDFF8F0A2DFF8F082AD4DAD
:1059B000FEF7C4FDAC48FEF7C1FD06AF00261FE0B0
:1059C00094F8F934002B50D094F8A633002B49D02A
:1059D000022384F8403405F07FFA94F8F8348146C5
:1059E00023B9D4F80436C31AF92B05D9FEF7DEFD26
:1059F000C4F8049684F8F8649C48002105F096FAEF
:105A0000284601F069FB421C16D03F2878D0212897
:105A100043D07E2852D018285AD00A2829D00D28E1
:105A200027D0B4F8FC34FE2B00F3B680E218013323
:105A300082F80005A4F8FC34D8F8643184F80066D4
:105A40009B075CBFD8F84430C4F8F43494F8403471
:105A5000032BC0D094F8A633002BB1D194F8F934BD
:105A6000002BB1D184F84064B5E7012384F84034B9
:105A7000B1E7B4F8FC34002BDED0234483F8006592
:105A800094F80035002B3FD14FF480720021784804
:105A90001CF054F8A4F8FC64CEE794F84034012BD1
:105AA000CAD1744884F8F93407F084FC00217248A4
:105AB00007F006F9022384F84034BDE794F8403437
:105AC000022BB9D1012384F8F96484F84034B3E798
:105AD000684807F011FC684807F0D8F86F2128469D
:105AE00084F8F96484F8406401F002FB18B16B217A
:105AF000284601F0FDFA0A21284601F0F9FA9BE751
:105B0000012384F8F83497E7FF22594938461CF0FE
:105B100097FD384687F8FF604FF000091CF0D0FC75
:105B20000BE0FA5CA2F16101192904D8203A384649
:105B3000FA541CF0C5FC09F101091FFA89F39842D7
:105B4000EFD83B78242B47D14C4938461CF03CFB1E
:105B5000002845D04A4938461CF036FB00283FD083
:105B6000484938461CF030FB002866D04649384684
:105B70001CF02AFB002843D1DFF8249119F8011BFF
:105B8000284601F0B5FA10B1404B9945F6D10A21EB
:105B9000284601F0ADFA77E74FF4807200213448CF
:105BA000A4F8FC641BF0CAFF1722394938461CF0E0
:105BB00065FA38461CF084FC00289CD007EB000BEB
:105BC000B94601E0CB4596D019F8011B284601F0F3
:105BD0008FFA0028F6D18EE73846FFF7DDFB53E752
:105BE000DFF8C09019F8011B284601F081FA00285F
:105BF000CDD0CA45F6D10A21284601F079FA43E70B
:105C00001422234901A81CF039FA01A81CF058FC01
:105C10000028BCD001AB03EB000B994601E0CB455B
:105C2000B5D019F8011B284601F062FA0028F6D118
:105C30000A21284601F05CFA26E7DFF86C9019F893
:105C4000011B284601F054FA0028A0D0114B9945B9
:105C5000F5D10A21284601F04BFA15E730920200EF
:105C6000E00A0020B81B0020B8B20200C0D4010036
:105C7000E00F0020E80A0020C8140020F091020084
:105C8000F491020004920200289202002F92020076
:105C900078910200269202000292020098140020DD
:105CA0002C920200F8910200089202000020704736
:105CB00090F91800704700BF062070470120704718
:105CC00090F81401704700BF8079704738B5837928
:105CD0008B4200F0A780A1F109030D460446032B77
:105CE00000F2A280DFE803F07A464602303006F088
:105CF000CDFF72B6D4F8B40003680022A4F81021D6
:105D00003BB1D4F8C410D4F8C0200B681340FCD1C8
:105D10000360D4F8BC0003680022A4F812213BB150
:105D2000D4F8CC10D4F8C8200B681340FCD1036021
:105D3000D4F8A4103D4A91F90130897802EBC313DD
:105D40000B440C2093F8401041F0010183F84010FF
:105D5000D4F8A81091F90130897802EBC3130B44F1
:105D600093F8402042F0010283F84020A07162B60F
:105D7000012038BD303006F089FF72B6D4F8BC007F
:105D800003680022A4F812213BB1D4F8CC10D4F857
:105D9000C8200B681340FCD10360D4F8A410234A38
:105DA00091F90130897802EBC3130B4493F840104A
:105DB0006FF3000183F84010D4F8A81091F9013076
:105DC000897802EBC3130B4493F8402042F00102A0
:105DD00083F84020A57162B6012038BD303006F04E
:105DE00055FFD4F8A410114A91F90130897802EBDB
:105DF000C3130B44092593F840106FF3000183F897
:105E00004010D4F8A81091F90130897802EBC3133F
:105E10000B44012093F840206FF3000283F84020E8
:105E2000A57138BD012038BD002038BD008000417B
:105E300083790A2B0FD090F83D30A3B1D0F8A4306D
:105E4000D0F8B02093F90130DB0103F1824303F570
:105E500000435A61704790F8FC309B07EBD590F8EF
:105E60003D30002BEAD0D0F8A430D0F8B02093F920
:105E70000130DB0103F1824303F500439A6170476F
:105E8000A0F13000D4E700BF2DE9F047089FBDF82E
:105E90002490BDF82880044616468A463A460021DA
:105EA0001D460BF049FA04F1300006F0BDFE6A4BC6
:105EB000C4F8A0A003F13C02C4F8A460C4F8AC701C
:105EC0002360C4F8A8502263B2786449DFF898A12F
:105ED000634F012303FA02F2C4F8B020AA7884F8D1
:105EE000D69003FA02F24FF0020C4FF07D0E002024
:105EF000C4F8B82084F8D7800022A4F8E2C04FF09C
:105F000019084FF6FF7CA4F8F8E04FF003094FF0B2
:105F1000FF3E84F8D820A4F8DA20A4F8DC20A4F806
:105F2000DE20A4F8E02084F8E42084F8F52084F84A
:105F3000F620A4F8FC2084F8002184F80121C4F89C
:105F4000F0A084F8F490A4F8D0C0A4F8D2C0A4F8CB
:105F5000D4C0C4F8E880C4F8ECE0C4F80421C4E973
:105F60004C01C4E95001C4E95401C4E95601C4F824
:105F70000821C4F8102184F8142184F81521C4F8EC
:105F80001821C4F81C21C4F8202184F8382184F891
:105F9000482184F86021C4F86421C4F86821C4F859
:105FA0006C21C4F87021C4F87421C4F87821C4F8B5
:105FB0007C2184F8882184F8892184F88A21C4F816
:105FC0008C21C4F80C81C4F82831C4F880E1C4F8ED
:105FD00084E16376337B042B98BF224A57F8230071
:105FE000767B98BFD25CB6FBF2F102FB11624FF4F4
:105FF0008073D2B202F11C0103FA02F200EB8101BC
:1060000002F47C520830C4F8B410C4F8C400C4F8D8
:10601000C0202A7B687B57F82210042A9ABF114BB4
:106020009A5C0022B0FBF2F302FB1303DBB24FF4E5
:10603000807203F11C0002FA03F301EB800003F409
:106040007C530831C4F8BC00C4F8CC10C4F8C83084
:106050002046BDE8F08700BF8C9202000000F03FB0
:106060007092020068920200003C1CC691B1DAB145
:1060700090F864319B0770B50C461646054602D56C
:10608000303006F003FE0123C5F81861204685F87C
:10609000153170BD80F81511C0F81811C0F81C1129
:1060A000C0F82011012070471046704790F8152164
:1060B000002A38D082790A2A70B5044600D070BD13
:1060C00090F83D20CB0F81EAE1769A420D46A6EB8F
:1060D000E17604D0026880F83D30136B9847A06BDE
:1060E000636CB042A8BF3046002DB4BF42420246A6
:1060F0001344D4F8BC5063642B68A4F8120186B230
:10610000B34207D0D4F8CC10D4F8C8200B6813429F
:10611000FCD12E60002894F8643105DD43F00203C1
:1061200084F8643170BD70476FF3410384F86431C3
:10613000C5E700BF30B590F87A3183B00446002B34
:1061400071D190F8793183F0010394F8002194F82B
:1061500001518A4231D094F8140184F800110022D0
:1061600084F80121C4F8082158B3002172B66BB33A
:1061700071B340F2E2420123C4F87C2184F8793102
:1061800062B6A3790A2B2AD094F889318B4235D094
:10619000D4F8A03000293BD1BFF35B8F2D4ADB43FD
:1061A00052E8000F184042E80005002DF8D1BFF377
:1061B0005B8F84F8891103B030BD94F81421002A54
:1061C00033D10029D1D072B6002BD1D10029D7D13B
:1061D000002384F87A3162B6A3790A2BD4D119B995
:1061E00094F864319A0728D494F8FC30DB0794F8CB
:1061F000893148BF81F001018B42C9D1002DD8D02F
:1062000094F80131002BD4D1D4F8A0300029C3D0A8
:10621000BFF35B8F0F4A52E8000F184342E80005B6
:10622000002DC4D0F7E700238FE7002284F8001187
:1062300084F80121C4F8082197E794F8743101919A
:1062400043F0100384F8743104F1300006F01EFDB1
:106250000199C9E7FC21002090F87831002B4AD041
:10626000354A90F80131126800B512698BB990F87F
:106270008A31012B22D0022B3BD190F8F430002B35
:1062800045D1D0F88C31002B3CD180F88A315DF8B3
:1062900004FBD0F80431D0F80C11D31A8B422BD365
:1062A000D0F80831C0F80421013BC0F808314BB9DF
:1062B00080F8013190F88A31012BDCD1022380F87B
:1062C0008A31DAE71D4BD0F8A020BFF35B8F53E88B
:1062D000001F514043E8001EBEF1000FF7D1BFF38D
:1062E0005B8F90F88A31012BC5D190F80131002BDA
:1062F000E4D05DF804FB704790F88A31022BBCD0E3
:106300005DF804FB013BC0F88C315DF804FB002212
:1063100000F5BA73BFF35B8F53E8001F21F0200133
:1063200043E8001EBEF1000FF6D1BFF35B8F80F88B
:106330008A215DF804FB00BF1C230020FC21002003
:1063400090F87A3170B5044680F81411002B63D1AF
:1063500090F8793183F0010394F8016139BB94F826
:10636000005172B65BB365B340F2E2420123C4F858
:106370007C2184F8793162B6A3790A2B28D094F86D
:106380008931AB4233D0D4F8A030002D39D1BFF3DE
:106390005B8F284ADB4352E8001F194042E8001097
:1063A0000028F8D1BFF35B8F84F8895170BD0025B8
:1063B00084F80151C4F8085172B6002BD3D1002DD6
:1063C000D9D1002384F87A3162B6A3790A2BD6D1C9
:1063D0001DB994F864319A0720D494F8FC30DB0797
:1063E00094F8893148BF85F00105AB42CBD1002E2E
:1063F000DAD094F80131002BD6D1D4F8A030002D9A
:10640000C5D0BFF35B8F0B4A52E8001F194342E827
:1064100000100028C6D0F7E700239DE794F87431F8
:1064200043F0100384F8743104F1300006F02EFCC0
:10643000D3E700BFFC21002061B32DE9F84F57ECF2
:10644000106B0C46924605460022002310EE100AFF
:10645000394659EC118B19F037F9C0B900220023E5
:106460004046494619F030F988B905F59470C5F8E9
:106470002841C5E94C6785F838A1C5E9508907F07E
:10648000F3FD012185F860110846BDE8F88F002072
:10649000BDE8F88F08467047F8B590F8783103B931
:1064A000F8BD04460AF098FEA379984A94F8D610ED
:1064B0000A2B08BF94F8FC3052F8217008BFC3F3D0
:1064C000800694F8D830BD7A03F1FF3318BF002658
:1064D000012BEDB240F2DF8094F8283073408C4AF3
:1064E00084F8F430C4F8F020B4F9D010481C12D06D
:1064F000884803F0D1FE03689B6805469847092841
:1065000000F0658228460AF0EDFD011C18BF01214C
:106510002046FFF70FFEB4F9D2104A1C16D0A3791B
:106520000A2B39D07B4803F0B7FE03689B68054609
:106530009847092800F0D08028460AF0D3FDA379B7
:10654000092B00F0D3800B2B00F0D080B4F9D410CD
:106550004B1C21D0A3790A2B1ED06E4803F09CFE61
:1065600003689B6805469847092800F04C82284636
:106570000AF0B8FDA379092B0ED1D4F8A830D4F8CD
:10658000B82093F90130DB0103F1824303F50043A6
:10659000002800F0CC815A61B4F980114F1C10D052
:1065A0005C4803F079FE03689B6805469847092814
:1065B00000F075812B6828461B689847042800F076
:1065C0006E81B4F984114E1C15D0524803F064FE5C
:1065D00003689B6805469847092800F0EE81284625
:1065E0000AF080FD94F84030B0FA80F0400960F382
:1065F000C30384F84030B4F982114D1C15D04548CE
:1066000003F04AFE03689B6805469847092800F096
:10661000D98128460AF066FD94F84030B0FA80F03F
:10662000400960F3041384F84030B4F98611D4F8BB
:106630006451D4F87461481C00F02A81354803F095
:106640002BFE03689B6807469847092800F0D38112
:1066500038460AF047FDB0FA80F77F0994F83C30DD
:10666000002B40F0298184F8883194F83E1067F3BC
:106670001045002952D194F8642192074ED594F820
:106680003D0094F84020002800F04A81D70649D503
:1066900046F0040646E0AA0700F074813323BB727B
:1066A000B4F8E230012293FA12F39AB2003218BF22
:1066B0000122A4F8E23084F87B21EB0600F16B8123
:1066C00094F87B31002B40F00781D4F8E83003EBDD
:1066D0008303A4F8F83007E70F4BB4F9D210186819
:1066E0000BF056FDA379092B7FF42DAFD4F8A4301D
:1066F000D4F8B02093F90130DB0103F1824303F5B4
:106700000043002800F011815A611FE7D492020073
:10671000003C1CC6042100202C26002094F83D00DB
:1067200094F84020C2F3C00767F38E35C2F300121D
:1067300094F8017162F3CF3567F34D3560F3C3050B
:10674000002B00F0A380981F18BF012094F87A2135
:1067500060F34105002A00F0938094F8F40011B131
:10676000AF0740F1D7806FF30005032B69D015F018
:10677000020340F0C680002963D063F3820594F8D9
:10678000793161F3861560F3C815002B5DD0D4F81C
:106790007C31002B40F3268162F345150122013B39
:1067A00062F38C25C4F87C3105F002031BB1B306FB
:1067B00048BF46F00106321C18BF0122D4F87031E0
:1067C000C4F8746162F34925C4F8645125EA0303EF
:1067D00004F5B472BFF35B8F52E8001F194342E81F
:1067E00000100028F8D1BFF35B8FD4F87021BFF3FD
:1067F0005B8F04F5B67322EA050553E8002F2A43A0
:1068000043E800210029F8D1BFF35B8FA379D4F8C6
:106810006421C4F870210A2B7FF442AE94F815313C
:10682000002B00F09480D4F81801002800F08F802D
:10683000D4F81C319C427FF433AEBDE8F84006F03A
:106840001BBE031C18BF012397E762F34515002AFE
:106850003AD094F8D83033B938B905F0020304229D
:1068600062F38C25A2E7002863D015F00203F6D16D
:10687000032262F38C2563F3041505F0020395E708
:1068800062F3000594F8F400134676E718465DE7D6
:1068900094F83C3093BB84F888311F46E5E694F8C1
:1068A000D81081B32B6894F8F4105B6909B194F89F
:1068B0007A112846984784E607B394F8881100298E
:1068C00000F0AC800F46D0E662F38C25AA077FF576
:1068D00072AF46F010066AE794F8283094F8F51085
:1068E0007340DAB2914200F0BF80D4F8E83084F807
:1068F000F52003EB8303A4F8F830F5E594F88871EC
:10690000B3E6002339E794F8F4202B68012A5B6989
:10691000CFD1CCE701287FF426AF45F0010524E76D
:10692000170748BF46F00206FCE69A610EE69A6138
:1069300032E6022363F38C2545F0100504F13000A4
:1069400006F0A4F946F0200605F002032EE704F154
:106950003005284605F0F2FE284606F037FAD4F84E
:10696000BC50606B2A68A4F8120180B282423FF4E6
:1069700097ADD4F8CC10D4F8C8200B681342FCD1E2
:106980002860F8BD04F0A8FAD4F8EC30C01A032847
:106990003FF684AE91E604F09FFAB4F8E230C4F812
:1069A000EC00002B46D03023BB72002294F87B31E0
:1069B00084F8F620A4F8E22084E62B6828461B69B8
:1069C00098470FE62B6828461B69984724E64E4BEC
:1069D000B4F9D01018680BF0DBFB01462046FFF736
:1069E000A9FB98E50122002345F0200584F87A21CF
:1069F00084F879312DE73B6838461B699847B0FA2F
:106A000080F77F092AE6404BB4F9D41018680BF0E0
:106A1000BFFBA379092B3FF4B0ADBDE504F1300015
:106A200006F04EF9012384F8883146F0080694F800
:106A30003C301AE6AD067FF543AEB4F8DC10B4F88E
:106A4000E020A4F8DA10A4F8DE20F88BA4F8DC002B
:106A500094F8F600BD8BA4F8E05070B994F87B313F
:106A6000012284F8F6202DE6B4F8F820002A3FF43D
:106A700036AD013AA4F8F82036E507EE901AB8EEE4
:106A8000677A07EE902AF8EE677A84F87B31C7EED2
:106A9000276A16EE900A18F047FB17A3D3E90023E4
:106AA00018F0E2F916A3D3E9002318F091FB18F0CF
:106AB00087FE07EE900A1EB19FED147A77EE677A93
:106AC00094F8D830C4ED3C7A022B04D0022384F829
:106AD000F4300023C4E717EE900A18F025FB0022DB
:106AE0000B4B18F0C1F902460B4618F0BFF918F02D
:106AF00067FEC4F8F000E9E79A9999999999A93F36
:106B0000721CC7711CC75B402C2600200000C842C5
:106B1000000049402DE9F84304460F469046002AFC
:106B200054D1456C4D1BED0FD4F87431002B4BD074
:106B300094F8743143F0010384F87431002694F81A
:106B4000003133B994F8742142F010021E4684F8E3
:106B50007421B4F98611481C16D0294803F09CFB17
:106B600003689B6881469847092840D048460AF048
:106B7000B9FAB0FA80F0400930B194F8743143F0BA
:106B8000080384F87431002694F840306DB1D906BA
:106B900026D496B101234246394684F83E3004F1AA
:106BA0003000BDE8F84305F045BD1A07F1D594F86B
:106BB000743143F0020384F8743194F864319B0714
:106BC00006D40020BDE8F8830126B8E7CD0FABE777
:106BD00004F13000002106F073F80020BDE8F883CE
:106BE00094F8743143F0040384F87431E5E7D9F87C
:106BF000003048461B699847B0FA80F04009BBE76F
:106C000004210020A0F13000FFF784BFF8B5D0F8D0
:106C1000743104460E46002B4AD090F8743143F08C
:106C2000010380F87431002594F8003133B994F8E9
:106C3000742142F010021D4684F87421B4F98611C3
:106C4000481C16D0264803F027FB03689B680746BC
:106C5000984709283CD038460AF044FAB0FA80F048
:106C6000400930B194F8743143F0080384F874316A
:106C70000025002E94F840300CDAD90621D48DB1CD
:106C80000023314684F83E3004F13000BDE8F8407E
:106C900005F00ABD1A07F2D594F8743143F00203E7
:106CA00084F8743194F864319B0703D40020F8BD54
:106CB0000125B9E704F13000002106F001F80020B9
:106CC000F8BD94F8743143F0040384F87431E9E7B3
:106CD0003B6838461B699847B0FA80F04009C0E726
:106CE00004210020A0F13000FFF790BFF8B5D0F8E4
:106CF000A430BC4D93F90130D0F8B02005EBC3139C
:106D000004469A61D0F8A830D0F8B82093F9013041
:106D100005EBC3130E469A610021FFF70BFA3146CB
:106D200020460AF0F3F9D4F8A43093F901209878BA
:106D300005EBC2121318002783F84070D4F8A8108E
:106D400091F901308E78DB01E9188D1903F1824346
:106D500085F84070D4F8B0509560D4F8B8508D6084
:106D600002EB500210F0010F92F830104FF00500C6
:106D700003F5004314BF60F3071160F3030103EB55
:106D8000560382F8301093F83020F0074FF00501D9
:106D90004CBF61F3071261F3030283F830202368CC
:106DA000914A5B68934240F01981A379092B22D064
:106DB00004F1300005F06AFFD4F8A410894B91F972
:106DC0000120897803EBC2120A44092092F840108E
:106DD0006FF3000182F84010D4F8A82092F9011056
:106DE000927803EBC113134493F840206FF3000231
:106DF00083F84020A071E3682269DB0103F182413E
:106E000001F5004101EB520103F1824391F830009A
:106E100012F0010503F50043134414BF6FF307108C
:106E200065F3030081F8300093F840206F4942F089
:106E3000010283F8402094F8D60051F820301A68F7
:106E40006FF341021A601A699207FCD41A6842F083
:106E500001021A601A6912F00102FBD11D6864492F
:106E600062F305151D601D6862F314551D601D68F1
:106E700062F355551D601D6845F480351D601D6821
:106E800045F400351D601D6862F3CB251D601D684B
:106E900062F30A251D601D6845F080051D601D68B0
:106EA00045F040051D601D6862F383051D60DD88A7
:106EB000052666F30205DD80DD8845F02005DD80CE
:106EC000DD8862F30C35DD80DD8862F34D35DD80D1
:106ED000DD8862F30825DD80DD8845F01005DD8062
:106EE0000D7862F341050D70D4F8AC208E68D5782A
:106EF0000122AA4016438E60EF088E69BF0007F199
:106F0000804E16430EF5205E8E6105F00706DEF812
:106F10001CC0B7000426BE4046EA0C06CEF81C6032
:106F2000CE6892B262F30F06CE600A7842F0020297
:106F30000A704A6812F00202FBD194F8D7E02D499A
:106F40000EF12B073E4651F827C062F3861C41F82C
:106F500027C051F826205706FBD451F82620254F8C
:106F60004FF0060C6CF3030241F8262051F826205E
:106F700042F0400241F826207A6812F0180FFBD147
:106F80001D4A1E4E74300EF101010FFA8EFE42F8BA
:106F9000201006EBCE02917941F002019171D17976
:106FA000C807FCD4123505F07F0545F4007546F896
:106FB0003E50D1798907FCD41A6842F002021A6067
:106FC0001A6912F00202FBD10123C4F86421C4F84B
:106FD0006821C4F86C2184F87831F8BD0921204675
:106FE000984708E700800041CD5C0000D492020081
:106FF00000280040001C004000E0004120E000416B
:107000004FF0FF30704700BFA1F10200B0FA80F0EE
:107010004009704702207047A1F10100B0FA80F0EA
:1070200040097047A1F10800B0FA80F040097047AC
:10703000807A7047A0F10400FAE700BF807A401A16
:10704000B0FA80F040097047A0F10400F6E700BFF5
:1070500008207047A0F10400FAE700BF0020704745
:10706000A0F10400FAE700BF112381818372704709
:10707000A0F10400F8E700BF704700BFA0F10400D2
:10708000FAE700BF014B186800F05EBEEC1000206C
:10709000014B186800F066BEEC100020014B186828
:1070A00000F07ABEEC100020014B186800F030BEF2
:1070B000EC100020014B186801F004BAEC1000201D
:1070C000014B186800F01CBEEC100020014B186842
:1070D00000F018BEEC100020014B186800F07ABEDA
:1070E000EC100020014B186800F0A0BFEC1000204D
:1070F000014B186800F0A6BFEC100020014B186887
:1071000000F0D4BFEC100020014B186800F0D6BF8F
:10711000EC1000200368044A1B6B934203D1034B1D
:10712000186800F039BE18479D700000EC10002070
:10713000A0F10400EEE700BF08B50368064A1B6B28
:10714000934205D1054B186800F026FE00B208BD39
:10715000984700B208BD00BF9D700000EC100020F1
:10716000A0F10400E8E700BF08B5036861B90B4A65
:10717000DB68934205D10A4B186801F0A3F901209E
:1071800008BD9847012008BD064A9B689342F8D184
:10719000034B186800F0BCFD012008BDB57000006D
:1071A000EC100020A9700000A0F10400DCE700BF93
:1071B00030B583B01A4DADF804009DF804102B686B
:1071C00011F00104A3F8120112D12146204607F064
:1071D000C9FD2146012007F0C5FD07F0B7FD07F006
:1071E000EFFD0368B3F5966F12D0002003B030BDF9
:1071F0000C49002007F0B6FD0B49012007F0B2FD55
:1072000028684021803007F079FD002003B030BDB0
:107210000121064803F0FCFA002003B030BD00BF96
:10722000EC1000203172000069740000042100207D
:107230002DE9F04F83B072B68A490B6803F18000E4
:10724000C3F81821C3F8140162B6086872B6D0F802
:107250000431D0F80021D0F818419B1A48BF4033C0
:10726000002C00F0D680D3F13F0300F0D280D0F89C
:107270000451D0F81421A34228BF2346C5F1400190
:10728000994228BF19464619002900F0E8802C1DB4
:107290000444171DBE4238BFA242C0F0CE800B2965
:1072A00040F2CB80544214F0030400F0B78017780A
:1072B0004755012C06F1010C02F1010800F0B080E5
:1072C00057787770022C06F1020C02F1020800F0E8
:1072D000A7809778B77006F1030C032602F1030824
:1072E0000196A1EB040BABF10406B6082F19013689
:1072F0004FEA8609074414444FF0000E0EF1010EC8
:1073000054F804AB47F804AB7645F7D8019CCB455D
:107310004C440CEB090708EB090E00F0898018F8C3
:1073200026800CF82680661CB14240F2818002342F
:107330009EF801607E70A1427AD99EF80240BC702E
:107340005618D0F81421D0F818410A44641A5B1A70
:10735000C0F81421C0F8184164D0311D021D9642B6
:1073600038BF8842044671D30B2B6FD9724212F09A
:1073700003025FD031780170012A00F1010406F1A7
:10738000010E58D071784170022A00F1020406F112
:10739000020E50D0B1788170C41C06F1030E032791
:1073A000A3EB020CACF1040189084D1C16444FEA12
:1073B000850802440021013156F8049B42F8049BE1
:1073C0008D42F8D8C44507EB080204EB08010EEB28
:1073D00008060DD01EF8257004F82570541CA34231
:1073E00006D9023274784C70934201D9B2788A700F
:1073F000D0F81421D0F81841C0F804311A44E41A26
:10740000C0F81421C0F818411CB98030402107F0A1
:1074100075FC62B6012003B0BDE8F08FB44690461B
:1074200001945EE7294401F03F01C0F80411EBE745
:10743000561886E7B6461746B2E7741E561812F875
:10744000017B04F8017FB242F9D17AE7421EF418B9
:1074500016F8011B02F8011FB442F9D1C8E716461D
:1074600073E700BFEC1000202DE9F04FD84883B03F
:10747000002940F0AB810168D1F808311A4402F0CC
:107480003F02C1F808210023BFF35B8F81F8103160
:10749000BFF35B8F0468BFF35B8F4FF0010104F50E
:1074A0008873D3E84F2FC3E8401F0028F9D1BFF3FA
:1074B0005B8F12F0FF0F40F0DC80D4F80861D4F845
:1074C0000C118E4200F0918104F1400202EB06079C
:1074D00004F1C00EC0F0D180C6F140031944402928
:1074E00028BF40218B4228BF0B46002B00F0A18112
:1074F00006F1400506F1440C6019A44404F1C408E7
:10750000404538BFE645C0F08A810B2B40F28781A9
:10751000404210F0030000F06181965D84F8C06085
:10752000012804F1C10C07F1010800F059817E78AF
:1075300084F8C160022804F1C20C07F1020800F0CF
:107540004F81BE7884F8C260032607F1030804F176
:10755000C30C0196A3EB000BABF10406B60805447F
:107560000136C030254420444FEA86090027013700
:1075700055F804AB40F804ABB742F8D30198CB45BB
:1075800048440CEB090508EB09070DD018F82680D4
:107590000CF82680461CB34206D902307E786E7005
:1075A000834201D9B878A8700EEB0300CB1A00F023
:1075B000FC8004F14405061DB24238BFA842C0F069
:1075C00025810B2B40F22281554215F0030500F076
:1075D000098194F840200270012D00F1010804F1A6
:1075E000410200F0008194F841204270022D00F128
:1075F000020804F1420200F0F68094F84220827002
:1076000000F1030804F143020327A3EB0509A9F1E4
:107610000406B60805F1400C01362844A4444FEA9C
:10762000860B4FF0000A0AF1010A5CF8045B40F88F
:10763000045B5645F7D8D9455F4408EB0B0002EBD5
:107640000B0500F0B28012F8262008F826207A1CDC
:10765000934240F2AA8002376A784270BB4240F2FD
:10766000A480AB788370704607F05CFB002840F084
:10767000A280012003B0BDE8F08F891B06F1400312
:1076800006F14400402904EB0308204404F1C4053A
:1076900028BF4021A84538BF8645C0F0AD800B29E2
:1076A00040F2AA80C8F1000818F0030800F09280A8
:1076B000925D84F8C020B8F1010F04F1C10507F113
:1076C000010600F089807A7884F8C120B8F1020FB1
:1076D00004F1C20507F102067ED0BA7884F8C22010
:1076E000FE1C04F1C3054FF00309434408F1C00038
:1076F000E2582250A1EB0808A8F1040223449208A2
:10770000013220445F684760022A4FEA820C35D07C
:107710009F688760032A31D0DF68C760042A2DD0B4
:107720001F690761052A29D05F694761062A25D0AC
:107730009F698761072A21D0DF69C761082A1DD0A8
:107740001F6A0762092A19D05F6A47620A2A15D0A0
:107750009F6A87620B2A11D0DF6AC7620C2A0DD09C
:107760001F6B07630D2A09D05F6B47630E2A05D094
:107770009F6B87630F2A01D0DB6BC363E045E14455
:1077800005EB0C0306EB0C000FD016F8226005F891
:10779000226009F10102914207D909F102094278F8
:1077A0005A70494501D982789A70704607F0BAFA42
:1077B00000283FF45EAFBFF35B8F002384F81031E5
:1077C0000120BFF35B8F03B0BDE8F08F01685AE67C
:1077D000EC1000203E467546C14686E7B846F446A2
:1077E0000190B7E680462F460FE7BFF35B8F84F822
:1077F0001021BFF35B8F3CE704F1BF03781817F843
:10780000012B03F8012F8742F9D1CEE70138134449
:1078100012F8015B00F8015F9A42F9D1C5E704F163
:10782000BF00FE1817F8015B00F8015FBE42F9D1F6
:10783000BAE67046BAE600BF70B5164E346814F06A
:10784000010402D0144B186870BD4FF490700EF014
:10785000CFFC054600F18003C0F800410F49C5F890
:107860000441C5F81431C5F80841C5F81841C5F8F8
:107870000C4185F81C4185F81041A5F8124185F8A6
:107880001141032007F06EFA034A012315602846D0
:10789000336070BDE810002030110020B17100008D
:1078A0002DE9F041C74AD2F8A8306FF386138CB0A7
:1078B000C2F8A830D2F8A8305906FBD4D2F8A830C4
:1078C000C049042060F30303C2F8A830D2F8A830FE
:1078D00043F04003C2F8A8304B68DB06FCD4BA4B37
:1078E000BA491A6942F480621A619A6942F0010247
:1078F0009A61A1F1D700032207F0E0FD04460028B9
:1079000000F09C81B24B0FCB8DE80F0003681D0F78
:10791000E8B2C3F3036800F130073730092D88BFA0
:1079200007465FFA88F0C3F3035600F1300C373096
:10793000B8F1090FC8BF8446F0B2C3F303458DF810
:1079400011C000F1300C3730092EC8BF8446E8B2B0
:10795000C3F3033E8DF812C000F1300C3730092D0F
:10796000C8BF84465FFA8EF08DF810708DF813C092
:10797000C3F3032700F1300C3730BEF1090FD4BF39
:10798000E6468646F8B2C3F303160A468DF814E0BD
:1079900000F1370E3030092FCCBF77460746F0B2E2
:1079A00012688DF8157003F00F0300F137073030BF
:1079B000092ECCBF3E460646D8B2150F8DF816608C
:1079C00000F137063030092BCCBF33460346E8B20E
:1079D000C2F3036C8DF8173000F137033030092DF6
:1079E00088BF18465FFA8CF3C2F3035E8DF8180067
:1079F00003F137003033BCF1090FCCBF84469C46FD
:107A00005FFA8EF3C2F303478DF819C003F1370C08
:107A10003033BEF1090FD8BF9C46FBB2C2F3033628
:107A20008DF81AC003F1370C3033092FD8BF9C46AC
:107A3000F3B2C2F303258DF81BC003F1370C3033CA
:107A4000092ED8BF9C46EBB2C2F3031002998DF801
:107A50001CC003F1370C3033092DCCBF65461D46E1
:107A6000C3B209688DF81D5002F00F0203F137050B
:107A700030330928CCBF28461846D3B24FEA117ECE
:107A80008DF81E0003F137003033C1F30367092A74
:107A9000CCBF02461A465FFA8EF5F8B28DF81F2069
:107AA00005F137023035C1F30356BEF1090F88BF27
:107AB000154600F137023030092FC8BF1046F3B227
:107AC00003F137028DF821003033C1F30340092E52
:107AD000C8BF1346C2B2C1F3033E02F137083032C9
:107AE0000928D8BF90465FFA8EF2C1F303278DF8BC
:107AF00022302046039B8DF8205002F137043032AB
:107B0000BEF1090FD8BF1446FAB21B688DF82440A5
:107B1000C1F3031602F137043032092FCCBF2746D8
:107B20001746F2B201F00F018DF8257002F1370708
:107B30003032092ECCBF3E461646CAB21D0F8DF814
:107B4000266002F1370630320929CCBF3146114692
:107B5000EAB2C3F3036C8DF8271002F1300137321B
:107B6000092D88BF11465FFA8CF2C3F3035E8DF8CE
:107B7000281002F130013732BCF1090FD4BF8C4616
:107B800094465FFA8EF2C3F3034402F137013032B8
:107B9000BEF1090FCCBF8E469646E1B2C3F3033760
:107BA0008DF82AE001F1370E3031092CD8BF8E460E
:107BB000FAB2C3F303268DF82BE002F1300E373210
:107BC00008E000BF001C004000080040F700002053
:107BD000E8930200092FD4BF77461746C3F3031575
:107BE000F4B203F00F03DAB2E9B28DF82C7004F1AD
:107BF00030073734092ED8BF3C4601F1300E02F170
:107C0000300737313732092DD8BF7146092BD4BF21
:107C10003B4613468DF82E108DF82F308DF82380BB
:107C20008DF829C08DF82D400DF10F030DF12F01B6
:107C300013F8012F20F8022F8B42F9D12A4B2B4A3F
:107C40002B4F2C4D2C4880214FF080764FF08044F4
:107C500082F8501382F8511382F8521382F85313AA
:107C60009E609C629F625E6193F8582002F0FB0266
:107C700083F8582093F8582002F0FE0242F00102E7
:107C800083F8582093F83C2002F0F0024FF0007186
:107C900042F0070283F83C2099609C629D62596122
:107CA00093F8592002F0FB0283F8592093F85920E9
:107CB00002F0FE0242F0010283F8592093F83C20C2
:107CC00002F00F0242F0700283F83C2007F03EFB06
:107CD00006F0F6FF094807F067FB07F07DFB01207F
:107CE0000CB0BDE8F08100BF0080004100E100E081
:107CF000000100C0000200C0F010002018000020A9
:107D00000120704708B507F05BF8006808BD00BFA8
:107D100038B590F81C3103B138BD0446012518462A
:107D200084F81C51064907F01DF82846054907F05C
:107D300019F804F180004021BDE8384006F0DEBFAC
:107D4000317200006974000003460022C0F800216F
:107D5000C0F81821C0F804214021803083F8112197
:107D600006F0CCBF38B504464FF08245D4F8082160
:107D7000D4F80C319A4200D138BD07F01BF8002826
:107D8000FAD094F81231DB07F6D56B7B03F07F0352
:107D9000022BEBD038BD00BF38B5054607F00AF816
:107DA000044670B195F8124114F0010409D04FF067
:107DB00082435C7B04F07F04A4F10204B4FA84F4EF
:107DC00064090348002103F0B1F8204638BD00BF24
:107DD000804F1200D0F80031D0F80421934200F017
:107DE00016812DE9F04F5A1C02F03F02C45CC0F826
:107DF000002183B072B6D0F80431D0F80021D0F859
:107E000018519B1A48BF4033002D00F0E380D3F196
:107E10003F0300F0DF80D0F80461D0F81421AB42BA
:107E200028BF2B46C6F14001994228BF1946871941
:107E3000002900F0F880351D054402F1040E774555
:107E400038BFAA42C0F0DA800B2940F2D7805542F1
:107E500015F0030500F0C38092F800E000F806E09A
:107E6000012D07F1010802F1010900F0BA8092F832
:107E700001E087F801E0022D07F1020802F1020992
:107E800000F0AF8092F802E087F802E007F1030803
:107E9000032702F103090097A1EB050BABF10407DF
:107EA000BF0806EB050E01374FEA870A86441544E2
:107EB0004FF0000C01940CF1010C55F8044B4EF8F6
:107EC000044B6745F7D8009D019CD345554408EB0A
:107ED0000A0E09EB0A0C00F08C8019F8279008F8BC
:107EE00027906F1CB94240F2848002359CF80170E3
:107EF0008EF80170A9427CD99CF802508EF802508D
:107F00005718D0F81421D0F818510A446D1A5B1A8A
:107F1000C0F81421C0F8185165D0011D3A1D9042D7
:107F200038BF8F42054675D30B2B73D9424212F0EE
:107F3000030260D039780170012A00F1010507F1D0
:107F4000010E59D079784170022A00F1020507F13B
:107F5000020E51D0B9788170C51C07F1030E4FF0A5
:107F60000308A3EB020CACF1040189084E1C174472
:107F70004FEA860902440021013157F804AB42F868
:107F800004AB8E42F8D8CC4508EB090205EB090199
:107F90000EEB09070DD01EF826E005F826E0551C6B
:107FA000AB4206D902327D784D70934201D9BA783E
:107FB0008A70D0F81421D0F81851C0F804311A444E
:107FC000ED1AC0F81421C0F818511DB980304021B5
:107FD00006F094FE62B620B203B0BDE8F08FB8465A
:107FE0009146009558E7314401F03F01C0F8041173
:107FF000EBE7571885E7BE469046B2E77D1E571857
:1080000012F801EB05F801EFBA42F9D179E74FF028
:10801000FF307047421EFD1817F8011B02F8011FC0
:10802000BD42F9D1C5E717466FE700BFD0F804217C
:10803000D0F800319A421ABFD0F80031C05C4FF03E
:10804000FF30704770B504460E464FF0824506F08B
:10805000B1FE50B394F8120110F0010025D06B7BF3
:1080600003F07F03022B01D0002070BD94F81C01A7
:1080700000B970BDD4F80831D4F80C219B1A5A1EEF
:108080000ED4002AE3D0D4F80C31234483F84060A6
:10809000D4F80C31013303F03F03C4F80C3170BD48
:1080A00003F13F02002AD2D0EDE770BDD0F80431D1
:1080B000D0F80001181A48BF40307047D0F8083196
:1080C000D0F80C219B1A581E48BF03F13F0070479F
:1080D0002DE9F04F00F5887383B04FF00101BFF335
:1080E0005B8FD3E84F2FC3E8441F002CF9D1BFF3B7
:1080F0005B8F12F0FF0F40F0E480D0F80861D0F8F9
:108100000C118E4200F0B68100F1400303EB06072C
:1081100000F1C005C0F0D880C6F1400211444029EA
:1081200028BF40218A4228BF0A46002A00F0C781A2
:1081300006F1400E06F1440400EB0E08044400F181
:10814000C40CE04538BFA542C0F0AE810B2A40F216
:10815000AB816C4214F0030400F07F819E5D80F8D7
:10816000C060012C00F1C10C07F1010800F07B8117
:108170007E7880F8C160022C00F1C20C07F1020881
:1081800000F07181BE7880F8C260032607F1030811
:1081900000F1C30C0196A2EB040BABF10407BF087E
:1081A0000EEB04060137C034064404444FEA870945
:1081B0004FF0000E0EF1010E56F804AB44F804AB7C
:1081C000BE45F7D3019CCB454C4408EB090E0CEBA4
:1081D00009060FD018F827800CF82780671CBA42D0
:1081E00008D902349EF801707770A24202D99EF835
:1081F0000240B470AC188A1A00F01A81261D00F1F2
:108200004407BC4238BFB342C0F045810B2A40F25C
:1082100042815F4217F0030700F0298190F8403057
:108220002370012F04F1010C00F1410300F01D81C6
:1082300090F841306370022F04F1020C00F1420308
:1082400000F0138190F84230A37004F1030C00F1A8
:1082500043034FF00309A2EB0708A8F1040E4FEA0D
:108260009E0E07F140060EF1010E3C4406444FEA13
:108270008E0A0027013756F804BB44F804BBBE45FC
:10828000F8D8D04509EB0A0403EB0A070CEB0A0601
:1082900000F0CE8013F82E300CF82E30631C9A427A
:1082A00040F2C68002347B787370A24240F2C080F4
:1082B000BB78B3700446284606F034FD002840F031
:1082C000BE8003B0BDE8F08F891B06F1400206F1C5
:1082D0004404402900EB020C044400F1C40E28BF02
:1082E0004021F44538BFA542C0F0CB800B2940F2B5
:1082F000C8806C4214F0030400F0AB809B5D80F8F2
:10830000C030012C00F1C10607F1010E00F0A98078
:108310007B7880F8C130022C00F1C20607F1020E12
:1083200000F09F80BB7880F8C23007F1030E00F1A7
:10833000C3064FF0030C1319034404F1C0081A6874
:1083400040F808200F1B3A1F920800EB0804013286
:10835000D3F80480C4F80480022A4FEA82084FD080
:10836000D3F80890C4F80890032A49D0D3F80C90A9
:10837000C4F80C90042A43D0D3F81090C4F810909D
:10838000052A3DD0D3F81490C4F81490062A37D0AB
:10839000D3F81890C4F81890072A31D0D3F81C905D
:1083A000C4F81C90082A2BD0D3F82090C4F8209051
:1083B000092A25D0D3F82490C4F824900A2A1FD083
:1083C000D3F82890C4F828900B2A19D0D3F82C9011
:1083D000C4F82C900C2A13D0D3F83090C4F8309005
:1083E0000D2A0DD0D3F83490C4F834900E2A07D05B
:1083F000D3F83890C4F838900F2A01D0DB6BE363D0
:1084000047450CEB080306EB08040EEB080C0FD0F5
:108410001EF8227006F822705A1C914208D90233C5
:108420009CF801206270994202D99CF80230A37036
:108430000446284606F076FC00283FF442AFBFF31E
:108440005B8F002384F81031BFF35B8F03B0BDE86E
:10845000F08FBE46A4462E466DE7B8460194AC4662
:1084600099E6A44667E7019495E6B946F3E6B9466E
:10847000A446F0E6BFF35B8F80F81021BFF35B8F5B
:108480001FE700F1BF037C1817F8012B03F8012F39
:10849000A742F9D1CCE7013C1A4413F8016B04F868
:1084A000016F9342F9D1C3E700F1BF0407EB020E5D
:1084B00017F8016B04F8016FBE45F9D19AE62C4616
:1084C00099E600BF38B590F81C3103B938BD0546B0
:1084D000FFF7FEFD4FF08244D5F80821D5F80C31A6
:1084E0009A420BD006F066FC40B195F81231DB07DA
:1084F00004D5637B03F07F03022BEDD000242146DB
:1085000085F81C41204606F02DFC2146012006F08E
:1085100029FC06F01BFCC5F80041C5F81841C5F858
:108520000441C5F80841C5F80C4185F8104185F8AB
:10853000114138BD90F8103103B17047D0F80821CF
:10854000D0F80C319A4200F0FD802DE9F04F00F593
:10855000887383B04FF00101BFF35B8FD3E84F2FD7
:10856000C3E8441F002CF9D1BFF35B8F12F0FF0F5B
:1085700040F0E580D0F80861D0F80C118E4200F090
:10858000AB8100F1400303EB060700F1C005C0F02A
:10859000DA80C6F140021144402928BF40218A42B6
:1085A00028BF0A46002A00F0BC8106F1400E06F101
:1085B000440400EB0E08044400F1C40CE04538BF4D
:1085C000A542C0F0A3810B2A40F2A0816C4214F0B6
:1085D000030400F077819E5D80F8C060012C00F1FB
:1085E000C10C07F1010800F071817E7880F8C1604C
:1085F000022C00F1C20C07F1020800F06581BE7880
:1086000080F8C260032607F1030800F1C30C01964D
:10861000A2EB040BABF10407BF080EEB0406013715
:10862000C034064404444FEA87094FF0000E0EF1AF
:10863000010E56F804AB44F804ABBE45F7D3019CD9
:10864000CB454C440CEB090608EB090E0FD018F88B
:1086500027800CF82780671CBA4208D902349EF89C
:1086600001707770A24202D99EF80240B470AC1833
:108670008A1A58D0261D00F14407BC4238BFB342C5
:10868000C0F03B810B2A40F238815F4217F00307AC
:1086900000F01F8190F840302370012F04F1010C8D
:1086A00000F1410300F0168190F841306370022F11
:1086B00004F1020C00F1420300F00C8190F842300A
:1086C000A37004F1030C00F143034FF00309A2EB84
:1086D0000708A8F1040E4FEA9E0E07F140060EF1BE
:1086E000010E3C4406444FEA8E0A0027013756F833
:1086F00004BB44F804BBBE45F8D8D04509EB0A04D6
:108700000CEB0A0603EB0A070DD013F82E300CF819
:108710002E30631C9A4206D902347B787370A242D1
:1087200001D9BB78B3700446284606F0FBFA30B195
:10873000BFF35B8F002384F81031BFF35B8F03B06E
:10874000BDE8F08F7047891B06F1400206F1440432
:10875000402900EB020C044400F1C40E28BF402164
:10876000F44538BFA542C0F0BE800B2940F2BB8063
:108770006C4214F0030400F09E809B5D80F8C030D2
:10878000012C00F1C10607F1010E00F096807B7804
:1087900080F8C130022C00F1C20607F1020E00F091
:1087A0008E80BB7880F8C23007F1030E00F1C3065B
:1087B0004FF0030C1319034404F1C0081A6840F881
:1087C00008200F1B3A1F920800EB08040132D3F86F
:1087D0000480C4F80480022A4FEA82084FD0D3F8FC
:1087E0000890C4F80890032A49D0D3F80C90C4F834
:1087F0000C90042A43D0D3F81090C4F81090052AA6
:108800003DD0D3F81490C4F81490062A37D0D3F88A
:108810001890C4F81890072A31D0D3F81C90C4F8E7
:108820001C90082A2BD0D3F82090C4F82090092A55
:1088300025D0D3F82490C4F824900A2A1FD0D3F866
:108840002890C4F828900B2A19D0D3F82C90C4F89B
:108850002C900C2A13D0D3F83090C4F830900D2A05
:108860000DD0D3F83490C4F834900E2A07D0D3F842
:108870003890C4F838900F2A01D0DB6BE36347458A
:108880000CEB080306EB08040EEB080C3FF44BAFAF
:108890001EF8227006F822705A1C91427FF643AFF0
:1088A00002339CF80120627099427FF63CAF9CF83D
:1088B0000230A37037E7BE462E46A4467AE74FF053
:1088C000020C77E7B846AC460194A1E60126019672
:1088D0009EE6A446B946FAE6BFF35B8F80F8102106
:1088E000BFF35B8F2BE700F1BF037C1817F8012B58
:1088F00003F8012FA742F9D115E7013C1A4413F8F8
:10890000016B04F8016F9342F9D10CE700F1BF0449
:1089100007EB020E17F8016B04F8016FBE45F9D1A1
:10892000A5E62C46A4E600BF08B5FEF785FF014B7F
:10893000186008BDEC100020406A7047007970474D
:108940000120704738B5044608F0ECFC2046144B73
:1089500040F8303B04F068F9124A134922600023C2
:1089600000203C320125A4F8FC30C4F86431C4F87E
:108970006831C4F86C31C4F87031C4F87431C4E99A
:108980004C01C4E95001C4E95401C4E95601226311
:10899000C4F8285184F8383184F84831204638BD6D
:1089A00048AA02008C9202000000F03F2DE9F04F2F
:1089B000C64BDFF858A3C64AC649C74EEDB008AC4F
:1089C0004FF000084FF0030980F8008006908DE812
:1089D00008022046C14B0BF0E7FFA1686268237BC9
:1089E0002069CAF80810CAF804206169A2698AF8E7
:1089F0000C30E369CAF81000CAF81410206A616AE2
:108A0000CAF81820CAF81C3094F8282094F82930A5
:108A1000CAF82000802794F82A00CAF824108AF89F
:108A20002820A18D94F82E208AF8293094F82F3030
:108A30008AF82F308AF82A00AAF82C108AF82E20FB
:108A400014A93A460AF1300018F07AFF3A4634A9E0
:108A50000AF1B00018F074FFCDF80490A04AD4F8E1
:108A60003011D4F83401D4F838310092D4F83C21D4
:108A7000CAF83011D4F84011CAF83401CAF84011CC
:108A8000CAF838312046CAF83C21964B964A974995
:108A90000AF0A2F8A068626894F80CE02369B0605C
:108AA0007260A069E26986F80CE0336194F828E00E
:108AB000636A94F829C06569B4F82CA0B061F261CA
:108AC00094F82A00226A736286F828E094F82E301F
:108AD00094F82FE086F829C086F82E3086F82FE02B
:108AE00014A97561326286F82A003A46A6F82CA0CD
:108AF00006F1300018F024FF3A4634A906F1B00020
:108B000018F01EFFD4F84031D4F83011D4F83421D5
:108B1000C6F84031D4F83831C6F83011C6F83421DF
:108B2000C6F83831D4F83C3194F844E1C6F83C3109
:108B300020464FF4004186F844E10BF0DBFC0126AF
:108B40006B4B94F806A0B4F804C0DFF8C4E10196BA
:108B50000093A5688EF806A03946AEF804C0CEF89A
:108B600008502046634B644A644F07F011FC04F13F
:108B700008000FC87B61D4F82A30C7F82A30236B6D
:108B800094F806E03B63636BB4F804A094F818C053
:108B9000E56987F806E0B86094F819E0206AF960A2
:108BA0003A61616A94F828207B63A36BA7F804A05C
:108BB00087F818C087F819E0FD61796287F82820E6
:108BC000BB63386294F83C00E36C216C94F844C0B9
:108BD00094F845E0A26C87F83C00FB64206DB4F883
:108BE0005C3094F83DA0656D396487F844C094F812
:108BF000581094F859C087F845E0BA6494F85AE0E0
:108C000094F85B203865A7F85C30206E636E87F8B7
:108C100059C087F85AE087F83DA07D6587F85B204A
:108C200038667B6687F85810A16E354B0096204653
:108C3000B966344A344F402108F0B0F804F1080016
:108C40000FC87B61D4F82A30C7F82A30236B94F818
:108C500006E03B63636BB4F804A094F818C0E569C0
:108C600087F806E0B86094F819E0206AF9603A6184
:108C7000616A94F828207B63A36BA7F804A087F8A7
:108C800018C087F819E0FD61386287F82820BB63B7
:108C9000796294F83C100096E56C94F83DA0226C43
:108CA00094F844C094F845E087F83C10FD64A16C4A
:108CB000256D87F83DA03A64B4F85CA094F858207C
:108CC00087F844C087F845E024E000BF0096020022
:108CD00060960200F0950200BC1F00202095020063
:108CE00040960200E09502001095020030960200C6
:108CF00000980200C0970200909602001819002008
:108D0000D09702007097020084190020781E00207E
:108D1000AC1B002094F85AC094F85BE0B9643D6540
:108D200094F85910656D7D6587F8582087F85910BB
:108D300087F85AC087F85BE0A7F85CA02046C14BD3
:108D4000C14AC24F202108F029F804F108000FC8D9
:108D50007B61D4F82A30C7F82A30236B94F806E0F8
:108D60003B63636BB4F804A094F818C0E56987F816
:108D700006E0B86094F819E0206AF9603A61616A27
:108D800094F828207B63A36BA7F804A087F818C089
:108D900087F819E0FD61386287F82820BB637962A3
:108DA00094F83C100096E56C94F83DA0226C94F881
:108DB00044C094F845E087F83C10FD64A16C256D33
:108DC00087F83DA03A64B4F85CA094F8582087F87E
:108DD00044C087F845E094F85AC094F85BE0B96461
:108DE0003D6594F85910656D7D6587F8582087F8C2
:108DF000591087F85AC087F85BE0A7F85CA02046B6
:108E0000934B944A944F102107F0C8FF04F10800D7
:108E10000FC87B61D4F82A30C7F82A30236BB4F826
:108E200004E03B63636B94F806A094F818C0E5690E
:108E3000A7F804E0B86094F819E0206AF9603A6194
:108E4000616A94F828207B63A36B87F806A087F8F3
:108E500018C087F819E0FD613862796287F8282028
:108E6000BB6394F83C3087F83C3094F83D20216C8B
:108E700094F844E094F84500A36CCDF80C8087F892
:108E80003D20E26C3964FA6494F85A10226D656DE5
:108E900087F84500BB6494F8580094F859303A6557
:108EA00087F85A1094F85B20B4F85C1087F844E017
:108EB0007D6587F8580087F8593087F85B20A7F858
:108EC0005C10DFF8B8C1DFF8B8E1644B644ACDF854
:108ED00004C04FF0680A20460821CDF808A0CDF85C
:108EE00000E008F0B5FA04F108000FC85D4FB4F8CF
:108EF00004E07B61D4F82A30C7F82A30236B3B6347
:108F0000636B94F806A094F818C0E569A7F804E02C
:108F1000B86094F819E0206AF9603A61616A94F8DF
:108F200028207B63A36B87F806A087F818C087F812
:108F300019E0FD61386287F82820BB63796294F8F4
:108F40003C1094F83D30206C94F845C087F83D30D3
:108F5000E36C94F844A087F83C103864A16C206D51
:108F600087F845C0FB6494F858C094F85A30656D92
:108F700087F844A0B964B4F85CA094F85910386537
:108F800087F858C094F85B00B4F85EC087F85A3090
:108F90004FF0650EB4F86030334A7D6587F859109C
:108FA00087F85B00A7F85CA0A7F860302F49A7F806
:108FB0005EC0B4F862C0CDF80C80CDF808E0019234
:108FC000E26E009194F87010656EFA66626FB4F804
:108FD00080A094F882E0A7F862C07D6694F883C010
:108FE000A56E87F870107A67E16FA26FBD66BA67E9
:108FF000F967A7F880A087F882E087F883C0204649
:109000001B4B1C4A1C4F042108F022FA04F10800F3
:109010000FC87B61D4F82A30C7F82A30236BB4F824
:1090200004E03B63636B94F806A094F818C0E5690C
:10903000A7F804E0B86094F819E0206AF9603A6192
:10904000616A1FE0E097020080970200E4190020A7
:10905000F097020090970200441A0020B096020098
:10906000A0970200A41A002020970200E0960200B8
:10907000C0960200B0970200281B00201097020043
:10908000D096020094F828207B63A36B87F806A093
:1090900087F818C087F819E0FD61796287F8282001
:1090A000BB63386294F83C0087F83C0094F83DA01C
:1090B000216C94F844C094F845E0A26CE36C206DF8
:1090C000656D87F83DA03964B4F860A094F8581035
:1090D00087F844C087F845E094F859C094F85AE0FE
:1090E000BA64FB6494F85B20B4F85C303865B4F87B
:1090F0005E007D6587F8581087F85AE087F85B2096
:10910000A7F85C30A7F85E00A7F860A087F859C000
:10911000B4F862C0616E7966616FA36EE06E94F818
:1091200070E07967A16FE56FA7F862C0BB66B4F81D
:1091300080C094F88230F86687F870E0B96794F8D8
:1091400083E0C04AFD6720464FF40011A7F880C0B5
:1091500087F8823087F883E008F0EEF804F1080021
:109160000FC8B94FB4F804C094F806E0256AF96056
:109170007B61E169D4F82A3094F818A0A7F804C0FC
:1091800087F806E094F819C094F828E0B8603A61CE
:10919000F9613D62C7F82A30656AAC4A87F818A0C1
:1091A00020464FF4800187F819C07D6287F828E0D7
:1091B00008F0C2F804F108000FC8A54FB4F804C0C5
:1091C00094F806E0256AF9607B61E169D4F82A30F9
:1091D00094F818A0A7F804C087F806E094F819C01E
:1091E00094F828E0B8603A61F9613D62C7F82A3026
:1091F000656A984A87F818A020464FF4000187F85E
:1092000019C07D6287F828E008F096F804F108009C
:10921000914FA388BB8007C8052394F806E094F813
:1092200018A000933A616269637E94F828C0656A69
:1092300087F806E0F960D4F82AE0216A7A61E269E9
:10924000B86087F818A07B76FA6139627D6287F88A
:1092500028C0C7F82AE02046804B814F4FF00042DB
:109260004FF0006107F04EFB04F108000FC8B4F89E
:1092700004E07B61D4F82A3094F806A0A7F804E053
:10928000C7F82A3094F819E0236B94F818C0E56900
:1092900087F806A0B860F960206A616A3A6187F8C9
:1092A00019E094F8282094F834E03B634FF0040A66
:1092B000A36B87F818C0FD613862796287F82820AF
:1092C000BB6387F834E094F840E0CDF800A0E56B8C
:1092D000FD6387F840E02046624B634F4FF08042C9
:1092E0004FF0806107F00EFB04F108000FC8B4F8DE
:1092F00004C094F806E0A7F804C0B86094F818C059
:10930000E069F9607B61216A94F8283087F806E00B
:109310003A6194F819E0626A87F818C0F861D4F8E5
:109320002AC094F83400396287F82830A16B236B87
:10933000C7F82AC087F819E03B6387F83400B9639F
:109340007A62E26BCDF8009094F840E0FA6387F817
:1093500040E02046454B464F4FF000524FF0007121
:1093600007F0D0FA04F108000FC894F806E07B611A
:10937000D4F82A3087F806E0C7F82A3094F819E0C4
:10938000236B94F818C0B4F80490E569B860F960EC
:10939000206A616A3A6187F819E094F8282094F805
:1093A00034E03B63A36B87F818C087F834E0A7F874
:1093B0000490FD6138627962BB6387F82820E26B14
:1093C000009694F84060FA6387F840602046294B85
:1093D000294E4FF080524FF0807107F093FA04F15C
:1093E00008000FC8A77932617361D4F82A2094F875
:1093F000343094F818C0B4F8049094F819E0256A51
:10940000B771B060E769606AF160C6F82A2094F825
:109410002810226B86F83430A36B86F818C0A6F8A3
:10942000049086F819E0F761356270623263B363C5
:1094300086F82810E16BCDF804A0CDF8088094F8E8
:1094400040E01BE070950200881800208095020023
:10945000B818002090950200E8180020A09502009E
:1094600034110020B0950200BC170020C095020006
:1094700000180020D095020044180020D44F009717
:109480002046F16386F840E0D24BD34A4FF40061A6
:10949000FCF7FAFC04F10C0007C8D04B94F806C0A6
:1094A000A668E569D860606B94F8189094F8198004
:1094B000276AB4F804A083F806C09E6094F828C018
:1094C000D4F82A6019615A61A16B94F83C20DD61DF
:1094D0005863656A83F8189004F1440083F8198092
:1094E0001F625D6283F828C0C3F82A60996383F81D
:1094F0003C20A3F804A094F83DA094F8406094F8B0
:1095000051C094F85270656D94F83E9094F8508074
:1095100083F8406007C858649964E06D216ED8658F
:109520001966D4E91A01DA64226FA66D1A67626FB0
:1095300083F83DA0C3E91A0183F851C083F8527043
:109540005D659E655A6783F83E9083F85080D4E944
:109550001E89D4E92212C3E92212D4F88020D4F85B
:109560009070D4F89400D4F89810C3F88020D4F800
:109570009C20C3F89070C3F89400D4F8A070D4F87D
:10958000A400C3F89810C3F89C20D4F8A810D4F80D
:10959000AC20C3F8A0701E46D4F8B070C3F8A40085
:1095A000C3F8A810D4F8B400D4F8B810C3F8AC20AD
:1095B000D4F8BC40389AC3F8B070C3E91E89C3F828
:1095C000B400C3F8B810C3F8BC40C3F8C020399A3F
:1095D0003A9C3B9BBDF8F090BDF8F280BDF8F4C01A
:1095E0009DF8F6E09DF8F7709DF8F800BDF8FA10C8
:1095F000BDF800A1C6F8C420C6F8C840BDF8FC20DC
:10960000BDF8FE40C6F8CC30A6F8D090A6F8D280BF
:10961000BDF802919DF80481429BA6F8D4C086F85B
:10962000D6E086F8D77086F8D800A6F8DA10A6F843
:10963000DC20A6F8DE40A6F8E0A0A6F8E29086F8C6
:10964000E480C6F8E830439BC6F8EC30449A9DF8B5
:1096500014819DF815E19DF816719DF83531BDF81E
:1096600018C19DF820A19DF8219149984A99479CDD
:10967000C6F8F02086F8F4804B9ABDF8308186F861
:10968000F5E086F8F670BDF832E19DF8347186F8A1
:1096900015314EABA6F8F8C086F800A186F8019106
:1096A000C6F80401C6F80811C6F80C21A6F8108106
:1096B000A6F812E1C6F8FC4086F8147198CB0DF5B7
:1096C000A47CC6F81831BCE80F0006F5947EAEE81D
:1096D0000F00BCE80F00AEE80F00BCE80F00AEE8DA
:1096E0000F009CE80300C6F81C41C6F820718EE804
:1096F000030061A80FC89DF880E1659C9DF89881E2
:109700009DF899C1BDF8A0A186F860E1C6F8640192
:109710009DF89AE19DF89B01C6F86811C6F86C2186
:109720006799C6F87031C6F87441BDF8A231BDF82A
:10973000A44186F8788186F879C1BDF8A6819DF8A4
:10974000A8C1274A86F87AE14FF0010986F87B0123
:10975000C6F87C11A6F880A1A6F88231A6F884414B
:10976000A6F88681052786F888C19DF8A9119DF87D
:10977000AAE16B9C1B4B8DE8840208A886F889112E
:1097800086F88AE1C6F88C41174A184C4FF480617C
:10979000FCF77AFB0AA80FC89DF826709DF838C020
:1097A000E160DDF84A109DF839E00F9E119DBDF88B
:1097B0002480A771A060109F9DF84800226163611A
:1097C000159A169B84F818C0C4F82A1010E000BF40
:1097D000A096020010980200509602007811002016
:1097E00040980200209802003098020008130020E0
:1097F0009DF85CC084F819E019A9E66127626562EA
:1098000084F828006263A36384F83CC0A4F8048051
:109810009DF85D809DF860009DF871709DF85EC0B8
:109820009DF870E09DF87260249D84F840000EC998
:10983000DDE922AB1D986164A2641E991F9AE3645E
:1098400084F85170209B259F84F83D80C4E91AABB1
:1098500084F83EC084F850E084F852606065A165E9
:1098600025676767E2652366DDE926231746984684
:10987000DDE92A232CA992469B464EC92898C4F8B4
:109880009C60349EC4F88000C4F8901030983199E0
:10989000C4F89420C4F89830329A339BC4F8B0606E
:1098A0003D464646C4E91E56C4F8A000C4F8A410BC
:1098B00035983699C4F8A820C4F8AC30379A389B4C
:1098C000C4F8B40055465E46C4E92256C4F8B81040
:1098D000C4F8C030C4F8BC20399A3A983B9BBDF814
:1098E000F080BDF8F2C0BDF8F4E09DF8F6709DF888
:1098F000F7609DF8F810BDF8FEA0C4F8C420C4F8C5
:10990000C800BDF8FA20BDF8FC00C4F8CC30A4F8BB
:10991000D080429BBDF80081A4F8D2C0A4F8D4E066
:10992000BDF802C19DF804E184F8D67084F8D760D0
:1099300084F8D810A4F8DC00A4F8DEA0A4F8E08035
:10994000A4F8E2C084F8E4E0C4F8E830A4F8DA202F
:10995000439A479B44999DF815C19DF81671BDF82F
:109960001861C4F8FC309DF835319DF814A19DF8BC
:1099700020E19DF821814998C4F8EC20C4F8F0104A
:109980004B9A4A9984F8F5C084F8F670BDF830C156
:10999000BDF83271A4F8F86084F815319DF834618F
:1099A00084F8F4A04EAB84F800E184F80181C4F897
:1099B0000401C4F80811C4F80C21A4F810C1A4F8DB
:1099C000127184F81461C8CB0DF5A47EC4F8183167
:1099D000BEE80F0004F5947CACE80F00BEE80F0071
:1099E000ACE80F00BEE80F00ACE80F009EE80300F3
:1099F000C4F81C61C4F820718CE8030061A8C3C8D6
:109A00009DF880C184F860C1C4F864019DF899C1D3
:109A10009DF89801C4F86811C4F86C6167999DF8C5
:109A20009A61659DBDF8A0A1C4F8707184F87801B1
:109A30009DF89B71BDF8A20184F879C184F87A6120
:109A4000BDF8A6C1BDF8A461C4F87C119DF8A811A9
:109A5000DFF890E3C4F874514FF0020884F87B718A
:109A6000A4F880A10327A4F88201A4F88461A4F8D3
:109A700086C184F888119DF8A9A19DF8AAC16B9EA2
:109A8000CDF800E0CDF808800197CF4B84F889A18C
:109A900084F88AC1C4F88C61CC4ACD4C08A84FF434
:109AA0000071FCF7F1F90AA80FC89DF82660BDF80F
:109AB00024E0A671A0600F9E1098DDF84AA0169DC4
:109AC0009DF838C0A4F804E0E1609DF839E01199F0
:109AD000226163619DF84820159BE66120629DF834
