:104000000000032009BE0000D1420000D1420000A0
:10401000D1420000D1420000D14200000000000067
:10402000000000000000000000000000D14200007D
:10403000D142000000000000D1420000A5BC0000F9
:10404000D1420000D1420000D1420000D142000024
:10405000D1420000D1420000D1420000D142000014
:10406000D1420000D1420000D1420000D142000004
:1040700079BB000089BB000099BB0000A9BB000010
:10408000B9BB0000C9BB0000D9BB0000E9BB000000
:10409000F9BB000009BC000019BC000029BC0000ED
:1040A00039BC000045BC000055BC000065BC0000E8
:1040B000D1420000D1420000D1420000D1420000B4
:1040C000D1420000D1420000D1420000D1420000A4
:1040D000D1420000D1420000D1420000D142000094
:1040E000D1420000D14200000000000000000000AA
:1040F00000000000D14200000DBB0000D1420000D2
:1041000019BB000025BB0000D1420000D1420000D5
:10411000D1420000D142000031BB0000D14200007A
:104120003DBB000049BB0000D1420000D14200006D
:10413000D1420000D1420000D1420000D142000033
:10414000D1420000D1420000D1420000D142000023
:10415000D1420000D1420000D1420000D142000013
:10416000D1420000D142000055BB0000D142000006
:1041700061BB00006DBB00000000000000000000FB
:10418000B17C0100B57C0100B97C0100BD7C01005F
:1041900001BB0000F9BC0000D1420000D142000088
:1041A000D1420000D1420000D1420000D1420000C3
:1041B000D1420000D1420000D1420000D1420000B3
:1041C000D1420000D1420000D1420000D1420000A3
:1041D000D142000075BC0000D1420000D142000075
:1041E0008DBC0000D1420000D1420000D14200004D
:1041F000D1420000D1420000D1420000D142000073
:10420000D1420000D1420000D1420000D142000062
:10421000D1420000D1420000D1420000D142000052
:10422000D1420000D1420000D1420000D142000042
:10423000D1420000D1420000D1420000D142000032
:10424000D1420000D1420000D1420000D142000022
:10425000D1420000D1420000D1420000D142000012
:10426000D142000010B5054C237833B9044B13B18B
:104270000448AFF300800123237010BDC00A002062
:1042800000000000580103000C4B43B10C480D49DD
:1042900010B5AFF300800C48036823B910BD0A487D
:1042A000036833B97047094B002BF7D0BDE81040C5
:1042B0001847064B002BF5D0184700BF0000000040
:1042C00058010300C40A0020BC0A002000000000BE
:1042D000FEE700BF000000002DE9F0414A4C4B48CA
:1042E0002DED068B00250021257007F07BFF484B44
:1042F0000A221868022109F0D1FA4448002107F087
:1043000071FF2946434803F09FF82946424803F0CD
:104310009BF83E48002107F065FF04F108003E4A83
:104320003C490AF0D9F800285ED09FED318B9FED13
:10433000329BB0EE481AF0EE681AB0EE490AF0EE81
:10434000690A02224FF4487104F108000AF062FE83
:10435000B0EE481AF0EE681AB0EE490AF0EE690ABB
:1043600002224FF4487104F58B6604F108000AF04C
:1043700081FE022730464FF448789FED21AB86ED51
:10438000029B86ED068B84F86874C4F858840BF0A1
:1043900083F904F59263184683ED029B83ED068B47
:1043A00084F8A074C4F890840BF076F9B0EE4A0A51
:1043B000F0EE6A0A04F108000AF0AAFEDFF85CE0F9
:1043C000012642F2107341F288372A46294604F149
:1043D00008008EED00AB84F8C864C4F8D873C4F844
:1043E000DC330AF07BFE2670BDEC068BBDE8F08165
:1043F000000000000000F03F00000000000014403A
:104400000000000000C06F40E00A0020808D5B00CB
:104410001423002058110020E81200200000002082
:1044200010B5184C184BC4F8CC3404F1080009F04E
:10443000BFFF04F59A6002F0B7FD144B002204F5AB
:104440008B6004F59261C0E90223C0E90623C0E94C
:104450000A23C0E90C23C1E90223C1E90623C1E90B
:104460000A23C1E90C2300230122C4F85824C4F80C
:10447000902484F8683484F8783484F8A03484F87C
:10448000B03410BDE00A0020C0A8006D0000F03F6D
:1044900010B5094C0948002107F0A4FE4FF4E131A2
:1044A000204603F069FF204603F05AFF044800212C
:1044B000BDE8104007F096BE981B0020808D5B0081
:1044C000001BB700C0B170B504460C4803F042FFB2
:1044D00000B970BD204621F0B3F90028F9D0074E8D
:1044E000251801E0A542F4D014F8011B304603F072
:1044F0005BFF0028F6D170BD704700BF981B0020FD
:1045000070B5284C94F8E4349EB004F10800E3B987
:104510000AF012FE53EC102B04F10800CDE902233F
:104520000AF01EFE05AC8DED000BDDE902232046EE
:104530001D4920F073FF1D4803F00CFF80B91B4894
:1045400003F008FF10BB1EB070BD0AF01DFE53EC57
:10455000102B04F10800CDE902230AF029FEE1E75F
:10456000204621F06DF90028E9D0104E251801E011
:10457000AC42E4D014F8011B304603F015FF0028CC
:10458000F6D10A4803F0E6FE0028DCD00D210748EA
:1045900003F00AFF0028D6D00A21044803F004FFE4
:1045A0001EB070BDE00A00201CC40200981B002051
:1045B0002DE9F0419AB0804607F0EAFD234C244EE5
:1045C0000027054606E007F00DFE07F0E1FD401B61
:1045D00040450CD894F8523230463946002BF2D17F
:1045E00094F8BE33002BEED11AB0BDE8F08102463C
:1045F000184901A820F012FF174803F0ABFE88B954
:10460000154803F0A7FE0028EED00D21124803F054
:10461000CBFE0028E8D00A210F4803F0C5FE1AB0EF
:10462000BDE8F08101A821F00BF90028E8D001AC29
:10463000094E251801E0AC42E2D014F8011B3046C7
:1046400003F0B2FE0028F6D1DAE700BFE00A00204E
:10465000808D5B002CC40200981B0020000000002D
:104660002DE9F047DFF88CA32DED048B9AF800308C
:10467000A4B08DED040B8DED061B8DED023B002BE0
:1046800000F05A81B0EE448AF0EE648A00220023E2
:1046900051EC140B59EC128B1EF04CF9002800F071
:1046A0003B81B0EE480AF0EE680A9AF8E4340AF169
:1046B00008063046002B00F09B800AF029FDC24B13
:1046C00083ED008B01238AF8C8349AF8E43430462D
:1046D000002B40F0DA800AF02FFD304655EC104BED
:1046E0000AF03EFD9AF8E534012B8DED080B00F041
:1046F000DA8042464B46204629461DF0E3FCDDE9C0
:10470000022306460F46DDE908011DF0DBFC4246A8
:104710004B4604460D46404649461DF085FEDDE900
:10472000022380468946104619461DF07DFE02464A
:104730000B46404649461DF0C5FC41EC100B1CF0F1
:10474000EBFA32463B46DDE90401B0EE409AF0EE6A
:10475000609A1DF0B5FC22462B46CDE90201DDE949
:1047600006011DF0ADFC9DED021B41EC100B1CF091
:10477000D1FA0022002351EC100BB0EE408AF0EE8B
:10478000608A1EF0C3F8002840F0BC809AF8E43438
:104790008E49002B63D147EC106B01200AF044FDD9
:1047A00045EC104B8A49064601200AF03DFDB0EE6B
:1047B000490AF0EE690A0446844901200AF034FDF2
:1047C000844A92F800211AB1834B93F80031ABB9B7
:1047D000824803F0BFFD002840F085807F4803F049
:1047E000B9FD002870D124B0BDEC048BBDE8F08782
:1047F0000AF07CFC744B83ED008B63E700250346D5
:10480000B0EE480AF0EE680A224631460095744838
:104810000AF0FAFA002840F0A7809AF85222D2B2A1
:10482000072A0BACCCBF6F496F49204620F0F6FD3C
:104830006A4803F08FFD0028D0D0204621F000F810
:104840000028CBD0654E251801E0A542C6D014F84B
:10485000011B304603F0A8FD0028F6D1BEE747EC67
:10486000106B02200AF0E0FC45EC104B064658495C
:1048700002200AF0D9FCB0EE490AF0EE690A0446BB
:10488000524902200AF0D0FC9AE70AF07DFC30463B
:1048900055EC104B0AF08CFC9AF8E534012B8DEDA9
:1048A000080B7FF426AFDDE9040122462B461DF0FC
:1048B00009FCDDE90823CDE90401DDE906011DF06D
:1048C00001FCCDE9060114E70D21444803F06CFD1D
:1048D000002888D00A21414803F066FD24B0BDECD1
:1048E000048BBDE8F087414C3C4D04F12E0614F8D2
:1048F000011B284603F058FD00283FF46FAFA64285
:10490000F5D16BE751EC180B2DA3D3E900231DF073
:10491000D9FB41EC180B39E79AF8C8340BB39AF875
:10492000E434002B68D1284B0AF1080693ED000B04
:1049300030460AF0DBFBC8E6284803F00BFD0028F0
:104940003FF44CAF2A4C254D04F14E0614F8011BE0
:10495000284603F029FD00283FF440AFB442F5D1CA
:104960003CE70AF10806B0E61C4803F0F3FC80B906
:104970001A4803F0EFFCB8B99AF8E634002B7FF43C
:1049800032AF9AF80030002B3FF42DAFFFF7B8FD9F
:1049900029E76F21114803F007FD0028E8D06B21BB
:1049A0000E4803F001FDE3E70D210C4803F0FCFC89
:1049B0000028E1D00A21094803F0F6FCDCE700BF3B
:1049C000182D4454FB21194000000020380F00200E
:1049D000700F002058110020E8120020981B0020C2
:1049E000E80A0020A0C40200E0C4020028C50200BA
:1049F00050C40200E00A0020044B0AF1080693EDBF
:104A0000000B30460AF084FB5FE600BF0000002088
:104A100070B5AD4C2DED068B23789AB0002B00F0CD
:104A2000E780B0EE40AAF0EE60AAB0EE419AF0EE58
:104A3000619A0022002351EC120BB0EE428AF0EE94
:104A4000628A1DF077FF002800F0C180B0EE480AAE
:104A5000F0EE680A94F8E43404F10800002B3BD02F
:104A60000AF056FB994B83ED008B012384F8C83480
:104A700094F8E534012B00F08F80B0EE4A0AF0EE96
:104A80006A0A94F8E4349249002B55D101200AF0C7
:104A9000CBFBB0EE490AF0EE690A05468D490120CC
:104AA0000AF0C2FB2378002B55D08B4B93F80031D2
:104AB0001BB18A4B93F80031A3B9894803F04AFC33
:104AC000002840F0C080864803F044FC002855D1FF
:104AD0001AB0BDEC068B70BD0AF008FB7B4B83ED72
:104AE000008BC2E7024629467E480AF041FA0028B8
:104AF00040F0B88094F85222D2B2072A01ACCCBF61
:104B000079497A49204620F089FC754803F022FC57
:104B10000028D8D0204620F093FE0028D3D0704E35
:104B2000251801E0A542CED014F8011B304603F051
:104B30003BFC0028F6D1C6E702200AF075FBB0EE78
:104B4000490AF0EE690A0546624902200AF06CFB48
:104B50002378002BA9D1624803F0FCFB0028B2D0D7
:104B6000634C5F4D04F14E0614F8011B284603F018
:104B70001BFC0028A7D0B442F6D1A4E70D21584869
:104B800003F012FC0028A3D00A21554803F00CFCC6
:104B90001AB0BDEC068B70BD94F8E4345148002B7C
:104BA0003BD10AF0C9FA51EC1A0B53EC102B1DF053
:104BB00089FA41EC1A0B4B480AF0D2FA51EC190B66
:104BC00053EC102B1DF07EFA41EC190B55E794F8CD
:104BD000C834002B3FF44CAF94F8E434002B55D18B
:104BE0003A4B04F1080093ED000B0AF07FFA3FE71F
:104BF0003B4803F0AFFB00283FF465AF3C4C384D19
:104C000004F14E0614F8011B284603F0CDFB0028E2
:104C10003FF459AFB442F5D155E70AF0B5FA51EC7B
:104C20001A0B53EC102B1DF04DFA41EC1A0B2D48CA
:104C30000AF0BEFA51EC190B53EC102B1DF042FA9E
:104C400041EC190B19E72B4C254D04F12E0614F8F5
:104C5000011B284603F0A8FB00283FF434AFA6420E
:104C6000F5D130E71E4803F075FB10BB1C4803F07C
:104C700071FB98B994F8E634002B7FF429AF2378C0
:104C8000002B3FF425AFFFF73BFC21E70F4B04F16E
:104C9000080093ED000B0AF03BFAE9E60D211048FD
:104CA00003F082FB0028E5D00A210D4803F07CFBCD
:104CB000E0E76F210A4803F077FB0028D6D06B218C
:104CC000074803F071FBD1E7E00A00200000002054
:104CD000380F0020700F002058110020E81200202B
:104CE000981B0020E80A0020A0C4020058C502005A
:104CF00050C4020028C502002DE9F04F0C4C2DEDE8
:104D0000048B2378E7B08DED0C0BABB9094803F0A9
:104D100021FB002840F0F881064803F01BFB002827
:104D200040F0D68167B0BDEC048BBDE8F08F00BFCA
:104D3000E00A0020981B002053EC102BB0EE418AB3
:104D4000F0EE618A8DED043BB0EE449AF0EE649A89
:104D50008DED022B8DED001B34A8C74959EC128B49
:104D600057EC136B20F05AFBC44803F0F3FA002809
:104D700040F0D981C14803F0EDFA002840F0B88135
:104D80000022002351EC190B1DF0D4FD002800F087
:104D9000EE8194F8E434002B00F0DC81B0EE490A97
:104DA000F0EE690AB64B199318460AF0B1F9B54B03
:104DB00083ED009B012384F8C834199D94F8E434F2
:104DC0002846002B40F007820AF0B6F928468DED00
:104DD000100B0AF0C5F994F8E534012B8DED120B98
:104DE00000F0078242464B46DDE910011DF06AF9EA
:104DF0003246CDE90E013B46DDE912011DF062F9B4
:104E0000424682468B464B4640464946CDE914AB66
:104E10001DF00AFB3246804689463B4630463946FD
:104E20001DF002FB02460B46404649461DF04AF97A
:104E300041EC100B41EC190B1BF06EFF4BEC17AB68
:104E40008DED087B9DED0E7B8DED067B9DED0C7B46
:104E50008DED027B9DED127B8DED0A0B8DED048BAC
:104E60008DED007BDDE91023874934A820F0D6FAC8
:104E7000824803F06FFA002840F0FA817F4803F07F
:104E800069FA002840F0E881B0EE490AF0EE690ABC
:104E90001BF042FFDDE90E23B0EE409AF0EE609A7F
:104EA000DDE90C011DF00CF9DDE91423CDE90C015D
:104EB00051EC180B1DF004F99DED0C1B41EC100B8F
:104EC0001BF028FF5BEC10AB0022002310EE100A51
:104ED00059461DF01BFD002840F0468200226B4B16
:104EE000504659461DF0A0FA61A3D3E900231DF0F6
:104EF000C5FB5246CDE900015B46654934A820F068
:104F00008DFA5E4803F026FA002840F083815B4862
:104F100003F020FA002840F0938194F8E4345D49CE
:104F2000002B40F041819DED0E0B01200AF07CF931
:104F300059490C909DED140B01200AF075F9B0EE63
:104F4000490AF0EE690A1790524901200AF06CF9FB
:104F50001890DDE90E23DDE910011DF0B1F8DDE95F
:104F60001423CDE90E01DDE912011DF0A9F89DED34
:104F70000E1B41EC100B1BF0CDFE57EC106B00220A
:104F8000002310EE100A39461DF0C0FC002840F046
:104F9000E18100223D4B304639461DF045FA34A3ED
:104FA000D3E900231DF06AFB3246CDE900013B4600
:104FB0003A4934A820F032FA304803F0CBF90028FF
:104FC00040F08D812D4803F0C5F9002840F07B8129
:104FD000189B0093CDE904ABCDE90267179B0C9AAF
:104FE0002F4934A820F01AFA244803F0B3F9002816
:104FF00040F05481214803F0ADF9002840F086814B
:105000002378002B00F09181264B93F80031002B80
:1050100000F0B580244B93F80031002B00F0AF80F6
:105020000125189B179A0C99199800954BEC10AB19
:1050300009F0EAFE002840F0C18194F85222D2B271
:10504000072A1BACCCBF19491949204620F0E6F9C4
:105050000A4803F07FF900283FF45EAE204620F0B6
:10506000EFFB00283FF458AE24E000BFAFF3008010
:10507000182D4454FB210940A0C50200981B0020B4
:10508000E80A002000000020C8C502000080664039
:1050900010C60200380F0020700F002034C6020036
:1050A00058C6020058110020E8120020A0C40200D7
:1050B000E0C40200BA4E251802E0A5423FF42CAE2F
:1050C00014F8011B304603F06FF90028F5D123E6F0
:1050D0000D21B34803F068F900283FF423AE0A21FC
:1050E000AF4803F061F967B0BDEC048BBDE8F08F09
:1050F0000D21AB4803F058F900283FF441AE0A21D6
:10510000A74803F051F93BE6A64CA54D04F14E0625
:1051100014F8011B284603F047F900283FF4FCADC2
:10512000B442F5D1F8E534A820F08AFB00283FF41A
:1051300021AE34ABDFF868A21D189B4602E05D4546
:105140003FF418AE1BF8011B504603F02DF9002860
:10515000F5D10FE6944BB0EE490AF0EE690A184615
:10516000199309F0C3FF914B83ED009B22E694F85D
:10517000C834002B40F002818B4B19931DE6884800
:1051800003F0E8F800283FF4C7AD894C844D04F1E2
:105190002E0614F8011B284603F006F900283FF4F8
:1051A000BBADA642F5D1B7E59DED0E0B02200AF08E
:1051B0003BF880490C909DED140B02200AF034F866
:1051C000B0EE490AF0EE690A17907B4902200AF016
:1051D0002BF81890BDE609F0D7FF28468DED100B8F
:1051E00009F0E6FF94F8E534012B8DED120B7FF406
:1051F000F9ADDDE90C01DDE910231CF063FFDDE909
:105200001223CDE90C0151EC180B1CF05BFF41ECB3
:10521000180BE7E534A820F013FB00283FF477AE25
:1052200034AB5F4E1D181F4602E0BD423FF46FAE27
:1052300017F8011B304603F0B7F80028F5D166E6F1
:105240000D21574803F0B0F800283FF466AE0A215C
:10525000534803F0A9F860E60D21514803F0A4F883
:1052600000283FF411AE0A214D4803F09DF80BE6EB
:1052700034A820F0E5FA00283FF400AE34AB484EE5
:105280001D181F4602E0BD423FF4F8AD17F8011BA0
:10529000304603F089F80028F5D1EFE534A820F076
:1052A000CFFA00283FF4A6AE34AF3D4E3D1802E0E1
:1052B000BD423FF49FAE17F8011B304603F074F86F
:1052C0000028F5D196E60D21354803F06DF8002849
:1052D0003FF47EAE0A21324803F066F878E634A83F
:1052E00020F0AEFA00283FF46DAE34ABDFF8B080AA
:1052F0001D18994602E0A9453FF464AE19F8011B58
:10530000404603F051F80028F5D15BE60D21244812
:1053100003F04AF800283FF473AE0A21204803F056
:1053200043F82378002B7FF46FAE1D4803F012F88A
:1053300000283FF4F1AC1B4C194D04F14E0614F853
:10534000011B284603F030F800283FF4E5ACA642E4
:10535000F5D1E1E4304639460FA3D3E900231CF030
:10536000B1FE06460F4614E6504659460AA3D3E955
:1053700000231CF0A7FE82468B46AFE594F8E43488
:1053800083BB094A094B199293ED000B104609F0B3
:10539000ADFE12E5AFF30080182D4454FB211940F7
:1053A000981B002050C40200E80A002000000020E2
:1053B00028C50200700F0020380F0020194802F0A5
:1053C000C9FF18BB174802F0C5FFA0B994F8E6342E
:1053D000002B7FF4A7AC2378002B3FF4A3ACFFF79E
:1053E0008FF89FE4104A114B199293ED000B104671
:1053F00009F08EFEE1E40D210A4802F0D5FF0028F5
:10540000E4D00A21074802F0CFFFDFE76F2105480B
:1054100002F0CAFF0028D5D06B21024802F0C4FF79
:10542000D0E700BF981B0020E80A00200000002001
:105430002DE9F04F2DED048B0178B34FE1B0002240
:105440000023002647290546CDE91623CDE9182378
:10545000CDE91A23CDE91C23CDE91E6719D04D29CA
:1054600017D0AA4802F076FF002840F0BA80A7487B
:1054700002F070FF40B10D21A44802F095FF18B171
:105480000A21A24802F090FF61B0BDEC048BBDE898
:10549000F08F13AA00249E49139428461FF0E4FFBE
:1054A0002A78002AF0D0DFF89CA2DFF89C92A04670
:1054B00027462646AB460AE0592A48D0492A4DD00D
:1054C0004A2A53D0462A58D01BF8012F6AB102F05D
:1054D000DF02582AF0D116AA58468E491FF0C4FFA1
:1054E0001BF8012F0126002AF1D12B78472B4AD037
:1054F0004D2BC9D1139BC92B00F0D98200F3BD807D
:10550000732B00F0998240F33A81742B00F0ED8206
:10551000C82B40F0FA81804B1B78002B01F04180B2
:105520007E4809F001F9794802F014FF00289ED066
:105530007B4C764E04F11E0501E0A54297D014F88D
:10554000011B304602F030FF0028F6D18FE718AA81
:10555000744958461FF088FF0127B5E71AAA494643
:1055600058461FF081FF4FF00108ADE71CAA5146D5
:1055700058461FF079FF0124A6E71EAA6A4958463B
:105580001FF072FFA0E7139B142B00F0378337DC6A
:10559000012B00F0FB8140F3D980022B00F0038245
:1055A000032B40F0EB8236B12FB1B8F1000F02D0DF
:1055B000002C41F0E583554802F0CCFE00283FF472
:1055C00056AF5A4C514D04F1170602E0A6423FF483
:1055D0004EAF14F8011B284602F0E6FE0028F5D174
:1055E00045E7534C494D04F1160614F8011B2846B3
:1055F00002F0DAFE00283FF43AAFB442F5D136E7C4
:105600005A2B00F0698161DD5B2B00F0DD825C2BA1
:1056100040F0B482404D2B78002B01F05E80002ECC
:1056200041F03D80002F01F08C8395F8E434002B8D
:1056300041F06883D5F8C4433E4901209DED180B25
:1056400009F0F2FD02463548214609F047FD2F4892
:1056500002F080FE00283FF40AAF374C2B4E04F1D5
:105660001C0502E0A5423FF402AF14F8011B3046CE
:1056700002F09AFE0028F5D1F9E6CB2B00F0098163
:10568000C0F2B980B3F5FA7F00F0658140F2F512FF
:10569000934240F03A81204D1C482B78002B40F07B
:1056A000298502F057FE00283FF4E1AE234C174E47
:1056B00004F11D0502E0AC423FF4D9AE14F8011B21
:1056C000304602F071FE0028F5D1D0E6152B40F0EF
:1056D0005582114B0D48012283F8E42402F03AFE72
:1056E00000283FF4C4AE164C084E04F1120502E047
:1056F000A5423FF4BCAE14F8011B304602F054FE44
:105700000028F5D1B3E600BF0000F0BF981B0020D1
:10571000B0C60200BCC60200E00A0020E80A002071
:105720002CC80200C4C60200DCC6020038C7020052
:1057300088CB0200700F0020C8C70200A8C7020073
:1057400060C70200D4C60200CCC60200002B40F0A5
:105750001582A94802F0FEFD00283FF488AEA74C50
:10576000A54E04F11C0502E0A5423FF480AE14F8FA
:10577000011B304602F018FE0028F5D177E6722BA7
:1057800040F0C3809E4B1A78002A00F09B8793F864
:10579000E4349C48002B40F0778709F0CDFC53ECB3
:1057A000102B9848CDE90A2309F0DAFC2EAB1846F5
:1057B00009938DED000BDDE90A2393491FF02EFEBE
:1057C0008D4802F0C7FD00283FF451AE099C2046E9
:1057D00020F036F800283FF44AAE874E251802E044
:1057E000A5423FF444AE14F8011B304602F0DCFD44
:1057F0000028F5D13BE601218448814C01F024FECC
:105800000121834801F020FE2578002D40F05B84C3
:105810008048002106F0E6FC7D4A7C4904F108003E
:1058200008F05AFE002800F065872046012300F8A2
:10583000083B9FED6D1B02229FED6D0B4FF44871ED
:1058400009F0E8FB9FED681B02224FF448719FEDC1
:10585000680B04F1080009F00DFC6F4B04F108001F
:1058600093ED000B09F054FC41F2883642F21073BC
:1058700004F108002A462946C4F8DC33C4F8D8638A
:1058800009F02CFC6548FEF71DFE6548FEF71AFE80
:10589000FAE55B480378002B40F0278700215B483E
:1058A00001F0D2FD5A48002101F0CEFD524802F02D
:1058B00051FD00283FF4DBAD5A4C4F4D04F10F066B
:1058C00002E0A6423FF4D3AD14F8011B284602F0D3
:1058D0006BFD0028F5D1CAE5494B474883F8E5241C
:1058E00002F038FD00283FF4C2AD4F4C424E04F1A7
:1058F000150502E0A5423FF4BAAD14F8011B30468D
:1059000002F052FD0028F5D1B1E53B4802F022FD3E
:10591000002840F09C86139A44492EA81FF07EFD73
:10592000354802F017FD00283FF4A1AD2EA81FF066
:1059300087FF00283FF49BAD2EAC2F4E251802E0C8
:10594000A5423FF494AD14F8011B304602F02CFD43
:105950000028F5D18BE52A4D27482B78002B40F005
:105960007F8102F0F7FC00283FF481AD304C224EDD
:1059700004F11D0502E0A5423FF479AD14F8011BC6
:10598000304602F011FD0028F5D170E516B9002F60
:1059900001F0AA809DED1E2B9DED181B9DED160BB1
:1059A000FFF736F870E536B12FB1B8F1000F02D02D
:1059B000002C41F0F381104802F0CCFC00283FF4A9
:1059C00056AD1C4C0C4D04F1170602E0A6423FF404
:1059D0004EAD14F8011B284602F0E6FC0028F5D174
:1059E00045E500BFAFF30080000000000000F03F7D
:1059F0000000000000001440981B0020E4C60200D4
:105A0000E00A0020E80A00201CC40200581100200F
:105A1000E8120020001BB7000000002074C802003C
:105A20001CC70200ECC8020074C7020014C80200C0
:105A3000A8C7020020C702007D4D2B78002B00F084
:105A40009A8595F8E4E495F8E5647A4C7A487B4FBA
:105A50007B4995F8BE2395F85232002E08BF2146A7
:105A6000BEF1000F08BF38462EAC8DE8030020467B
:105A7000744909941FF0D2FC734802F06BFC0028B3
:105A80003FF4F5AC099C20461FF0DAFE00283FF4F5
:105A9000EEAC6D4E251802E0A5423FF4E8AC14F8D8
:105AA000011B304602F080FC0028F5D1DFE460489D
:105AB0000378002B00F08C85083008F093FE6248D4
:105AC00002F048FC00283FF4D2AC604C5E4E04F17A
:105AD000260502E0A5423FF4CAAC14F8011B30468B
:105AE00002F062FC0028F5D1C1E4514C2378002B70
:105AF00000F0858521AB15AA14A904F1080009F06E
:105B00006BFB94F8E4340546002B40F06D8604F1FD
:105B1000080009F011FB04F10800B0EE408AF0EE35
:105B2000608A09F01DFB159A219902922EAA10464F
:105B300009920691149B46498DED008B8DED040B67
:105B40002A461FF06BFC404802F004FC00283FF49A
:105B50008EAC099C20461FF073FE00283FF487ACF2
:105B6000394E251802E0A5423FF481AC14F8011B20
:105B7000304602F019FC0028F5D178E4324802F0F2
:105B8000E9FB002840F05285139A32492EA81FF0F5
:105B900045FC2D4802F0DEFB00283FF468AC2EA83F
:105BA0001FF04EFE00283FF462AC2EAC264E2518A6
:105BB00002E0AC423FF45BAC14F8011B304602F04B
:105BC000F3FB0028F5D152E4194B1F48012283F85A
:105BD000E52402F0BFFB00283FF449AC1E4C1A4EEE
:105BE00004F1180502E0A5423FF441AC14F8011B92
:105BF000304602F0D9FB0028F5D138E40C4B1248AE
:105C000083F8E42402F0A6FB00283FF430AC134CE8
:105C10000D4E04F10D0502E0A5423FF428AC14F846
:105C2000011B304602F0C0FB0028F5D11FE400BF85
:105C3000E00A0020A8C60200A4C602009CC602001A
:105C4000ACC60200FCC80200981B00204CC8020031
:105C500068C9020014C802008CC7020050C70200C5
:105C600002F078FB002840F02E87D34802F072FB48
:105C7000002840F01B870121D04801F0E5FBD04807
:105C8000012101F0E1FBCC4802F064FB002840F068
:105C9000FC86C94802F05EFB002840F0E986C9484E
:105CA000002106F09FFADDE91E670022002330463E
:105CB00039461CF03FFE002801F03F8095F8E4349F
:105CC000002B40F07C85C04B1193184647EC106BBD
:105CD00009F00CFABD4BC3E900672EA80124324637
:105CE0003B46BB4985F8C8441FF098FBB24802F018
:105CF00031FB002840F0A486AF4802F02BFB0028BF
:105D000040F091860022B048114609F0E7F9AA4810
:105D100002F020FB002840F06687A74802F01AFB3B
:105D2000002840F05387AB48002106F05BFA0123BE
:105D3000A14885F8E63402F00DFB002840F03487D6
:105D40009D4802F007FB002840F021879FED8E2B35
:105D50009FED8F1B9FED900BFEF75AFE95F8E434F4
:105D6000002B40F0218532463B4600209A491CF02A
:105D700085FC0022994B1CF057FB0022984B1CF02D
:105D800053FB87A3D3E900231CF09CF91CF024FEED
:105D9000B0F5FA6F38BF4FF4FA60FEF709FC864899
:105DA00002F0D8FA002840F02C86834802F0D2FA9C
:105DB000002840F09A872B78002B40F0B2877E486D
:105DC00002F0C8FA002840F081857B4802F0C2FA50
:105DD000002840F06E859FED6E1B9FED6B2BB0EEA3
:105DE000410AF0EE610AFEF713FE119C95F8E434C7
:105DF0002046002B40F04E8509F09EF92046B0EE7B
:105E0000409AF0EE609A09F0ABF9B0EE408AF0EEFD
:105E1000608A53EC192B19EE100A19461CF004FB8A
:105E200053EC182B8046894618EE100A19461CF0D0
:105E3000FBFA0B460246494640461CF043F941EC4A
:105E4000100B1AF069FF95F8E43459EC108B002B15
:105E500040F0138510EE100A494632463B461CF0CE
:105E60000DFC00225D4B1CF0DFFA00225C4B1CF0A5
:105E7000DBFA4BA3D3E900231CF024F91CF0ACFDA2
:105E8000B0F5FA6F38BF4FF4FA60FEF791FB4A485D
:105E900002F060FA002840F04A85474802F05AFABA
:105EA000002840F037852B78002B40F03E87424891
:105EB00002F050FA002840F01B853F4802F04AFAF1
:105EC000002840F053859FED383B9FED2F4BB0EEFF
:105ED000431AF0EE631AB0EE430AF0EE630A9FED48
:105EE0002C2BFEF709FF95F8E434002B40F0BA8420
:105EF00032463B462EA1D1E900011CF0BFFB002237
:105F0000364B1CF091FA0022354B1CF08DFA24A37D
:105F1000D3E900231CF0D6F81CF05EFDB0F5FA6F53
:105F200038BF4FF4FA60FEF743FB234802F012FA41
:105F3000002840F03585204802F00CFA002840F097
:105F400022852B78002B40F0F4861B4802F002FAE1
:105F5000002840F04485184802F0FCF9002840F081
:105F6000F8849FED0B1B9FED082BB0EE410AF0EE7D
:105F7000610AFEF74DFD119C95F8E4342046002B94
:105F800040F061842EE000BF000000000000F0BF80
:105F90000000000000000000000000000000E03FE2
:105FA000000000000070A74000000000000000405A
:105FB000182D4454FB210940981B00205811002043
:105FC000E8120020001BB700E80A002000000020B3
:105FD000CCC90200808D5B000000E03F00004E4015
:105FE00000408F4009F0A8F82046B0EE409AF0EE4D
:105FF000609A09F0B5F8B0EE408AF0EE608A53EC92
:10600000192B19EE100A19461CF00EFA53EC182B36
:106010008046894618EE100A19461CF005FA0B4610
:106020000246494640461CF04DF841EC100B1AF070
:1060300073FE95F8E43459EC108B002B40F0E083AC
:1060400032463B46404649461CF018FB0022CC4BEA
:106050001CF0EAF90022CB4B1CF0E6F9C0A3D3E90F
:1060600000231CF02FF81CF0B7FCB0F5FA6F38BF16
:106070004FF4FA60FEF79CFAC34802F06BF900286F
:1060800040F01586C04802F065F9002840F02086EF
:106090002B78002B40F041860023BB4885F8E6347E
:1060A00002F058F9002840F04585B74802F052F94F
:1060B000002840F0DD822B78002B3FF4E5A9FEF7A5
:1060C0001FFAFFF7E1B9B04802F044F900283FF4A5
:1060D000CEA9AE4CAC4E04F10E0502E0A5423FF451
:1060E000C6A914F8011B304602F05EF90028F5D16C
:1060F000FFF7BDB902F02EF9002840F0C785A2488D
:1061000002F028F9002840F0B4850121A04801F0F0
:106110009BF9A048012101F097F99B4802F01AF978
:10612000002840F09585984802F014F9002840F0C6
:1061300049849948002106F055F806F029F8974B54
:10614000002800F07B830A9398609DED1E7B00225F
:10615000002351EC170B8DED0C7B1CF0EBFB0028A2
:1061600000F0FC8595F8E434002B40F05383DDE922
:106170000C678B4B1193184647EC106B08F0B6FF79
:106180000A9BC3E9006721A80124DDE90C238549A6
:1061900085F8C8441FF042F97B4802F0DBF800287C
:1061A00040F04085784802F0D5F8002840F02D8571
:1061B000012385F8E6342EAA00231095724C09922B
:1061C0001D4622E0DDE90C2351EC100B1CF056FAC1
:1061D00000226B4B1CF028F900226A4B1CF024F9BA
:1061E0005FA3D3E900231BF06DFF1CF0F5FBB0F5B6
:1061F000FA6F38BF4FF4FA60FEF7DAF9664800210B
:1062000005F0F0FF0A2D00F035810A99664A8E6884
:10621000664B43F2390702FB0676C6F30E42A3FB38
:1062200002035B0803EB4303D31A012B8E6000F0DB
:10623000FC80022B5C4B03FB067640F0D780DFF836
:106240007CA1C6F30E40AAFB00235B0B42F2107B3D
:106250000BFB13001CF072F80022554B1CF0E4F805
:1062600041A3D3E900231CF009FA0022514B1BF093
:1062700027FF4D4B03FB06768046C6F30E40AAFB74
:1062800000230A9A5B0B96600BFB130089461CF0F7
:1062900055F80022464B1CF0C7F833A3D3E900237E
:1062A0001CF0ECF90022434B1BF00AFF06460F4698
:1062B0000135CDE90267CDE900892A460A233E4926
:1062C00009981FF0ABF8204602F044F8002877D177
:1062D000204602F03FF8A8BB49EC108B9FED242B21
:1062E00047EC116BFEF794FB42464B46404649464D
:1062F0001CF09AF83246804689463B46304639467D
:106300001CF092F80B460246494640461BF0DAFE66
:1063100041EC100B1AF000FD109B93F8E434002BB5
:106320003FF450AF14A3D3E90023DDE90C018DED58
:106330000E0B1CF079F89DED0E0B02460B4651EC4E
:10634000100B43E70D21204602F02EF80028C3D0A1
:106350000A21204602F028F8BEE700BFAFF3008014
:10636000000000000070A740000000000088C3404B
:10637000000000000000F0BF666666666666394091
:1063800000004E4000408F40981B0020DCC80200F7
:1063900058110020E8120020001BB7000000002068
:1063A000E80A0020CCC902006D4EC641ABAAAAAAD9
:1063B00000003440000024400CCB02005917B7D134
:1063C000DDF824A050461FF03BFA002880D052464A
:1063D0009346824402E0DA453FF47AAF1BF8011B92
:1063E000204601F0E1FF0028F5D171E7CE4A8E602A
:1063F000C6F30E46A2FB0632520B42F2107000FBAF
:1064000012601BF09BFF0022C84B1CF00DF8BEA3CE
:10641000D3E900231CF032F90022C54B1BF050FEDB
:10642000002680468946002742E7C24BBE4A03FB4E
:1064300006760A9B9E60C6F30E46A2FB0632520BFE
:1064400042F2107000FB12601BF078FF0022B74B85
:106450001BF0EAFFACA3D3E900231CF00FF90022E4
:10646000B34B1BF02DFE4FF0000806460F464FF0D1
:1064700000091DE7B048109D01F06CFF002840F0B6
:106480007683AD4801F066FF002840F06483119CDC
:1064900095F8E4342046002B40F0788108F04CFE5B
:1064A0002046B0EE409AF0EE609A08F059FEB0EE49
:1064B000408AF0EE608A53EC192B19EE100A194647
:1064C0001BF0B2FF53EC182B06460F4618EE100ACD
:1064D00019461BF0A9FF0B460246394630461BF011
:1064E000F1FD41EC100B1AF017FC9FED891B57ECE6
:1064F000106BB0EE410AF0EE610A9FED872BFEF7BC
:1065000087FA95F8E434002B40F03681DDE90C235E
:10651000304639461CF0B2F80022884B1BF084FF4D
:106520000022874B1BF080FF7DA3D3E900231BF0E3
:10653000C9FD1CF051FAB0F5FA6F38BF4FF4FA609C
:10654000FEF736F800237C4885F8E63401F002FFB8
:1065500000283FF4AAAD7B4C774F04F12B0602E0F4
:10656000B4423FF4A2AD14F8011B384601F01CFF01
:106570000028F5D199E595F8E44495F8E56472486A
:10658000724D734B734A74492EAF002C08BF0246FC
:10659000002E08BF2B46384609971EF03FFFFFF735
:1065A0006BBA654801F0D6FE00283EF460AF6B4C34
:1065B000614E04F11D0502E0A5423EF458AF14F807
:1065C000011B304601F0F0FE0028F5D1FEF74FBF69
:1065D000594801F0BFFE00283EF449AF5F4C564ECB
:1065E00004F11D0502E0A5423EF441AF14F8011B81
:1065F000304601F0D9FE0028F5D1FEF738BF4E48ED
:1066000001F0A8FE00283EF432AF544C4A4E04F18B
:106610001D0502E0A5423EF42AAF14F8011B3046E6
:1066200001F0C2FE0028F5D1FEF721BF4C4C424ECE
:1066300004F1110502E0AC423FF4A6AA14F8011BD4
:10664000304601F0B1FE0028F5D1FFF79DBA454C68
:10665000394D04F1110602E0A6423FF45CA914F89A
:10666000011B284601F0A0FE0028F5D1FFF753B921
:106670000D21314801F098FE00283FF41CAD0A219D
:106680002D4801F091FE16E508F07EFD53EC102B2D
:106690003548CDE90A2308F08BFDFFF787B895F858
:1066A000E434002B00F06083304902209DED160B8E
:1066B00008F0BAFD0446002F40F02683D5F8C82321
:1066C000FEF7C1BF2548FDF7FDFE1B4801F042FE65
:1066D00000283EF4D9AEFEF7CEBE2048FDF7F2FE0C
:1066E0002348FDF7EFFEFEF7CFBE083008F01CF898
:1066F000FFF7D4B81F48FDF7E5FE1D48FDF7E2FEA1
:10670000FEF7C2BEAFF30080000000000088C34067
:106710000000000000000000000000000000F0BFCA
:10672000000000000070A7405917B7D100003440A6
:10673000000024406D4EC641981B002000004E40D2
:1067400000408F4048CB02009CC60200A8C6020051
:10675000ACC60200A4C6020034C90200A8C70200E9
:1067600018C8020074CB0200E80A0020380F00208D
:106770001CC7020094C80200DFA3D3E90023DDE9AF
:106780000C011BF051FE02460B46C1E608F0FCFC72
:106790002046B0EE409AF0EE609A08F009FDB0EEA7
:1067A000408AF0EE608A86E6D3A3D3E90023304620
:1067B00039461BF039FE02460B46FFF7D6BACEA388
:1067C000D3E90023304639461BF02EFECC4B119303
:1067D00080468946184649EC108B08F099FCC94B55
:1067E000C3E90089FFF779BAC54808F0CDFCC44871
:1067F000B0EE408AF0EE608A08F0DAFCFFF793B959
:10680000BDA3D3E90023304639461BF00DFE0246F6
:106810000B4617E4B8A3D3E90023DDE90C011BF014
:1068200003FEB74B119306460F46184647EC106B14
:1068300008F06EFC0A9BC3E90067A4E41A460A93B9
:106840000123936081E408F09FFC2046B0EE409A5B
:10685000F0EE609A08F0ACFCB0EE408AF0EE608A90
:10686000FFF7CDBBA4A3D3E90023304639461BF084
:10687000DBFD02460B46FFF73DBB9FA3D3E9002398
:10688000304639461BF0D0FD02460B46404649468D
:10689000FFF7E5BA08F078FC2046B0EE409AF0EE3B
:1068A000609A08F085FCB0EE408AF0EE608AFFF74F
:1068B000B0BA0D21944801F077FD00283FF48BAA6F
:1068C0000A21914801F070FDFFF785BA8F4CDFF87F
:1068D000389204F1110802E0A0453FF476AA14F8BA
:1068E000011B484601F060FD0028F5D1FFF76DBAA5
:1068F000874CDFF8149204F1170802E0A0453FF43A
:10690000DCAA14F8011B484601F04EFD0028F5D121
:10691000FFF7D3BA0D217C4801F046FD00283FF473
:10692000C2AA0A21784801F03FFDFFF7BCBA794CB2
:10693000DFF8D49104F11B0802E044453FF4ADAA0E
:1069400014F8011B484601F02FFD0028F5D1FFF790
:10695000A4BA0D216C4801F027FD00283FF401ABDB
:106960000A21694801F020FDFFF7FBBA0D216648B6
:1069700001F01AFD00283FF4A6AA0A21624801F09E
:1069800013FDFFF7A0BA0D215F4801F00DFD0028AF
:106990003FF4D7AA0A215C4801F006FDFFF7D1BAFF
:1069A0005D4CDFF8649104F11B0802E044453FF4BC
:1069B000C2AA14F8011B484601F0F6FC0028F5D1E4
:1069C000FFF7B9BA0D21504801F0EEFC00283FF462
:1069D000B0AB0A214C4801F0E7FCFFF7AABB4F4CD3
:1069E000DFF8249104F1110802E0A0453FF4B3AAB6
:1069F00014F8011B484601F0D7FC0028F5D1FFF739
:106A0000AABA474CDFF8009104F11B0802E0A04548
:106A10003FF4CBA914F8011B484601F0C5FC00283F
:106A2000F5D1FFF7C2B90D21374801F0BDFC0028B0
:106A30003FF468A90A21344801F0B6FCFFF762B9B7
:106A40002EA81EF0FDFE00283FF456A92EACDFF85C
:106A5000B89004EB000802E0A0453FF44DA914F8FB
:106A6000011B484601F0A0FC0028F5D1FFF744B90E
:106A70000D21254801F098FC00283FF410A90A21B7
:106A8000214801F091FCFFF70AB9264C1E4F04F192
:106A90000E0602E0A6423FF4FCA814F8011B38469B
:106AA00001F082FC0028F5D1FFF7F3B80D2116485C
:106AB00001F07AFC00283FF4DEA80A21124801F018
:106AC00073FCFFF7D8B8184C0F4F04F1230602E00F
:106AD000A6423FF4CAA814F8011B384601F064FC32
:106AE0000028F5D1FFF7C1B81048FDF7EBFC1048BE
:106AF000FDF7E8FCFEF7C8BC666666666666394068
:106B0000E80A002000000020981B002030CA020084
:106B100060CA020044CA020078CA020094CA020095
:106B200014CA0200DCC80200A8C9020004C702009F
:106B30001CC70200A24CA34F04F11F0602E0A642AC
:106B40003FF4B3AA14F8011B384601F02DFC0028CD
:106B5000F5D1FFF7AABA0D219A4801F025FC0028CB
:106B60003FF495AC0A21974801F01EFC8FE4964C47
:106B7000944F04F11E0602E0B4423FF482AC14F8D4
:106B8000011B384601F010FC0028F5D179E40D21F5
:106B90008C4801F009FC00283FF4D8A80A21894854
:106BA00001F002FCFFF7D2B8884CDFF8189204F12C
:106BB000130802E0A0453FF4C3A814F8011B48469F
:106BC00001F0F2FB0028F5D1FFF7BAB80D217D489E
:106BD00001F0EAFB00283FF4A6A80A21794801F059
:106BE000E3FBFFF7A0B87A4CDFF8D89104F1160860
:106BF00002E0A0453FF491A814F8011B484601F0BB
:106C0000D3FB0028F5D1FFF788B80D216D4801F0BE
:106C1000CBFB00283FF4CCAA0A216A4801F0C4FB50
:106C2000FFF7C6BA21A81EF00BFE00283FF4BAAA4F
:106C300021AC644F261802E0A6423FF4B3AA14F830
:106C4000011B384601F0B0FB0028F5D1FFF7AABAC6
:106C5000604C5C4F04F10E0602E0A6423FF463AACA
:106C600014F8011B384601F09FFB0028F5D1FFF70F
:106C70005ABA0D21534801F097FB00283FF445AA6A
:106C80000A21504801F090FBFFF73FBA524C4D4F9C
:106C900004F1250602E0A6423FF431AA14F8011BD4
:106CA000384601F081FB0028F5D1FFF728BA4B4C9C
:106CB000444F04F11B0602E0A6423FF4E3A914F896
:106CC000011B384601F070FB0028F5D1FFF7DAB957
:106CD0000D213C4801F068FB00283FF4D9A90A21A6
:106CE000384801F061FBFFF7D3B90D21354801F0B9
:106CF0005BFB00283FF45FA80A21324801F054FBF7
:106D0000FFF759B8D5F8C443354902209DED180B5B
:106D100008F08AFA0246FEF796BCFDF7F1FBFFF792
:106D2000BBB9FDF7EDFBFFF74AB8FDF7E9FBFFF74D
:106D3000BEB8FDF7E5FBFFF708B90026294FFEF7BF
:106D4000BDBF3A463946284808F0C8F92748FDF73C
:106D5000B9FB2748FDF7B6FBFEF796BB9FED167B08
:106D60008DED0C7BFFF7FEB9224901209DED160B3E
:106D700008F05AFA0446002F3FF4A0ACFEF75CBCC2
:106D80009DED1E4B9DED1C3B9DED1A2B9DED181BA3
:106D90009DED160BFDF764FCFEF776BB9DED1E4BDB
:106DA0009DED1C3B9DED1A2B9DED181B9DED160BCB
:106DB000FDF7A2FFFEF768BB0000000000002440C2
:106DC000C4CA0200981B002028CB020000CA02009F
:106DD000E8C90200DCC80200E4CA0200A8CA020036
:106DE000700F002000002440E80A0020E8C70200DD
:106DF0001CC70200380F00202DE9F0433F48C1B006
:106E0000002105F0EFF9FDF767FAFDF741FB3C487B
:106E1000002105F0E7F93B4801F09CFA00285CD11D
:106E2000394DDFF8E080DFF8F490384E00270FE0AE
:106E30000D2814D0B5F8DC34FE2B25DCEA1801331C
:106E400082F8E804A5F8DC343046394605F0CAF982
:106E5000404601F09DFA431CF6D00A28E8D1B5F867
:106E6000DC34002BF0D02B44002483F8E84495F860
:106E7000E8349BB94FF48072002148461EF02EF88A
:106E80000023A5F8DC34DFE7002319464FF48072B5
:106E90004846A5F8DC341EF021F8D5E7FF22494624
:106EA00068461EF08DFD68468DF8FF401EF0C8FC58
:106EB0000CE01DF80320A2F16101192905D8203A40
:106EC00068460DF803201EF0BBFC0134A3B29842C3
:106ED000EFD86846FEF7ACFACCE70D480A4DFDF74F
:106EE000F1FA0C48FDF7EEFA2B78002B99D10A48FD
:106EF000FDF7E8FA0748FDF7E5FA92E70087930304
:106F000000366E01981B0020E00A0020C0D401006A
:106F1000A0CB02001CC70200C0CB0200C80F00209B
:106F2000406820B14B68C01AB0FA80F04009704741
:106F3000F8B5436833B11E6826B11AB111B11B7A96
:106F4000042B02D000242046F8BDB6F864409442D9
:106F500028BF14460546A2B23046012311F0E0FADC
:106F60000028EFD16B68186811F0F4FD0028E9D112
:106F700005F00EF96B681B68B3F86630032B064604
:106F8000E1DD084F08E0386805F05EFF6B681B68BC
:106F9000B3F86630032BD6DD05F0FAF8801B042821
:106FA000F1D9D0E708230020044A02604FF4FA61C7
:106FB0000022018142608272704700BF04CC02004F
:106FC0000020704790F91800704700BF06207047F6
:106FD0000120704790F81401704700BF8079704716
:106FE00038B583798B4200F0A780A1F109030D46E3
:106FF0000446032B00F2A280DFE803F07A46460243
:10700000303007F07BF872B6D4F8B4000368002281
:10701000A4F810213BB1D4F8C410D4F8C0200B68F8
:107020001340FCD10360D4F8BC0003680022A4F82C
:1070300012213BB1D4F8CC10D4F8C8200B6813400F
:10704000FCD10360D4F8A4103D4A91F9013089784D
:1070500002EBC3130B440C2093F8401041F00101E4
:1070600083F84010D4F8A81091F90130897802EB28
:10707000C3130B4493F8402042F0010283F84020F0
:10708000A07162B6012038BD303007F037F872B613
:10709000D4F8BC0003680022A4F812213BB1D4F854
:1070A000CC10D4F8C8200B681340FCD10360D4F88E
:1070B000A410234A91F90130897802EBC3130B44E1
:1070C00093F840106FF3000183F84010D4F8A81033
:1070D00091F90130897802EBC3130B4493F84020F7
:1070E00042F0010283F84020A57162B6012038BD4C
:1070F000303007F003F8D4F8A410114A91F90130A8
:10710000897802EBC3130B44092593F840106FF301
:10711000000183F84010D4F8A81091F90130897863
:1071200002EBC3130B44012093F840206FF30002DD
:1071300083F84020A57138BD012038BD002038BD3E
:107140000080004183790A2B0FD090F83D30A3B125
:10715000D0F8A430D0F8B02093F90130DB0103F16E
:10716000824303F500435A61704790F8FC309B0757
:10717000EBD590F83D30002BEAD0D0F8A430D0F811
:10718000B02093F90130DB0103F1824303F50043A2
:107190009A617047A0F13000D4E700BF2DE9F047B5
:1071A000089FBDF82490BDF82880044616468A46FC
:1071B0003A4600211D460BF0A9FF04F1300006F00D
:1071C0006BFF6A4BC4F8A0A003F13C02C4F8A460B2
:1071D000C4F8AC702360C4F8A8502263B278644944
:1071E000DFF898A1634F012303FA02F2C4F8B0203C
:1071F000AA7884F8D69003FA02F24FF0020C4FF00E
:107200007D0E0020C4F8B82084F8D7800022A4F8AE
:10721000E2C04FF019084FF6FF7CA4F8F8E04FF0F9
:1072200003094FF0FF3E84F8D820A4F8DA20A4F830
:10723000DC20A4F8DE20A4F8E02084F8E42084F820
:10724000F52084F8F620A4F8FC2084F8002184F8C6
:107250000121C4F8F0A084F8F490A4F8D0C0A4F8F8
:10726000D2C0A4F8D4C0C4F8E880C4F8ECE0C4F8F4
:107270000421C4E94C01C4E95001C4E95401C4E942
:107280005601C4F80821C4F8102184F8142184F8A8
:107290001521C4F81821C4F81C21C4F8202184F851
:1072A000382184F8482184F86021C4F86421C4F8A6
:1072B0006821C4F86C21C4F87021C4F87421C4F8A2
:1072C0007821C4F87C2184F8882184F8892184F805
:1072D0008A21C4F88C21C4F80C81C4F82831C4F880
:1072E00080E1C4F884E16376337B042B98BF224AA3
:1072F00057F82300767B98BFD25CB6FBF2F102FB15
:1073000011624FF48073D2B202F11C0103FA02F24F
:1073100000EB810102F47C520830C4F8B410C4F8C8
:10732000C400C4F8C0202A7B687B57F82210042AC6
:107330009ABF114B9A5C0022B0FBF2F302FB1303DD
:10734000DBB24FF4807203F11C0002FA03F301EB8D
:10735000800003F47C530831C4F8BC00C4F8CC109E
:10736000C4F8C8302046BDE8F08700BF30CC02002A
:107370000000F03F14CC02000CCC0200003C1CC604
:1073800091B1DAB190F864319B0770B50C4616469E
:10739000054602D5303006F0B1FE0123C5F818616C
:1073A000204685F8153170BD80F81511C0F8181108
:1073B000C0F81C11C0F8201101207047104670471A
:1073C00090F81521002A38D082790A2A70B504462F
:1073D00000D070BD90F83D20CB0F81EAE1769A4253
:1073E0000D46A6EBE17604D0026880F83D30136BC1
:1073F0009847A06B636CB042A8BF3046002DB4BF65
:10740000424202461344D4F8BC5063642B68A4F88B
:10741000120186B2B34207D0D4F8CC10D4F8C820F9
:107420000B681342FCD12E60002894F8643105DD0E
:1074300043F0020384F8643170BD70476FF3410379
:1074400084F86431C5E700BF30B590F87A3183B075
:107450000446002B71D190F8793183F0010394F840
:10746000002194F801518A4231D094F8140184F833
:107470000011002284F80121C4F8082158B300212A
:1074800072B66BB371B340F2E2420123C4F87C21BF
:1074900084F8793162B6A3790A2B2AD094F889311D
:1074A0008B4235D0D4F8A03000293BD1BFF35B8F9D
:1074B0002D4ADB4352E8000F184042E80005002D3A
:1074C000F8D1BFF35B8F84F8891103B030BD94F815
:1074D0001421002A33D10029D1D072B6002BD1D18A
:1074E0000029D7D1002384F87A3162B6A3790A2B18
:1074F000D4D119B994F864319A0728D494F8FC309F
:10750000DB0794F8893148BF81F001018B42C9D172
:10751000002DD8D094F80131002BD4D1D4F8A0306C
:107520000029C3D0BFF35B8F0F4A52E8000F184306
:1075300042E80005002DC4D0F7E700238FE70022C2
:1075400084F8001184F80121C4F8082197E794F821
:107550007431019143F0100384F8743104F1300068
:1075600006F0CCFD0199C9E7DC21002090F87831C4
:10757000002B4AD0354A90F80131126800B51269E3
:107580008BB990F88A31012B22D0022B3BD190F895
:10759000F430002B45D1D0F88C31002B3CD180F851
:1075A0008A315DF804FBD0F80431D0F80C11D31AFD
:1075B0008B422BD3D0F80831C0F80421013BC0F82E
:1075C00008314BB980F8013190F88A31012BDCD1B8
:1075D000022380F88A31DAE71D4BD0F8A020BFF3F0
:1075E0005B8F53E8001F514043E8001EBEF1000FBF
:1075F000F7D1BFF35B8F90F88A31012BC5D190F89A
:107600000131002BE4D05DF804FB704790F88A311B
:10761000022BBCD05DF804FB013BC0F88C315DF857
:1076200004FB002200F5BA73BFF35B8F53E8001F21
:1076300021F0200143E8001EBEF1000FF6D1BFF398
:107640005B8F80F88A215DF804FB00BFFC220020DC
:10765000DC21002090F87A3170B5044680F81411CE
:10766000002B63D190F8793183F0010394F8016124
:1076700039BB94F8005172B65BB365B340F2E24295
:107680000123C4F87C2184F8793162B6A3790A2BEE
:1076900028D094F88931AB4233D0D4F8A030002DF3
:1076A00039D1BFF35B8F284ADB4352E8001F1940F2
:1076B00042E800100028F8D1BFF35B8F84F88951AD
:1076C00070BD002584F80151C4F8085172B6002B32
:1076D000D3D1002DD9D1002384F87A3162B6A379B1
:1076E0000A2BD6D11DB994F864319A0720D494F8A6
:1076F000FC30DB0794F8893148BF85F00105AB42C7
:10770000CBD1002EDAD094F80131002BD6D1D4F8A9
:10771000A030002DC5D0BFF35B8F0B4A52E8001F8D
:10772000194342E800100028C6D0F7E700239DE780
:1077300094F8743143F0100384F8743104F130008C
:1077400006F0DCFCD3E700BFDC21002000000000D5
:10775000F8B590F8783103B9F8BD04460BF026FC73
:10776000A379984A94F8D6100A2B08BF94F8FC30F5
:1077700052F8217008BFC3F3800694F8D830BD7A60
:1077800003F1FF3318BF0026012BEDB240F2DF807A
:1077900094F8283073408C4A84F8F430C4F8F02010
:1077A000B4F9D010481C12D0884803F0D1FE036809
:1077B0009B6805469847092800F0658228460BF02B
:1077C0007BFB011C18BF01212046FFF73DFEB4F9E9
:1077D000D2104A1C16D0A3790A2B39D07B4803F06B
:1077E000B7FE03689B6805469847092800F0D080DB
:1077F00028460BF061FBA379092B00F0D3800B2BFB
:1078000000F0D080B4F9D4104B1C21D0A3790A2BFE
:107810001ED06E4803F09CFE03689B68054698479F
:10782000092800F04C8228460BF046FBA379092B6F
:107830000ED1D4F8A830D4F8B82093F90130DB0188
:1078400003F1824303F50043002800F0CC815A6124
:10785000B4F980114F1C10D05C4803F079FE036826
:107860009B6805469847092800F075812B682846D3
:107870001B689847042800F06E81B4F984114E1CEF
:1078800015D0524803F064FE03689B68054698478C
:10789000092800F0EE8128460BF00EFB94F84030EA
:1078A000B0FA80F0400960F3C30384F84030B4F9C3
:1078B00082114D1C15D0454803F04AFE03689B68B1
:1078C00005469847092800F0D98128460BF0F4FABC
:1078D00094F84030B0FA80F0400960F3041384F863
:1078E0004030B4F98611D4F86451D4F87461481C5E
:1078F00000F02A81354803F02BFE03689B68074699
:107900009847092800F0D38138460BF0D5FAB0FA31
:1079100080F77F0994F83C30002B40F0298184F8EF
:10792000883194F83E1067F31045002952D194F83D
:10793000642192074ED594F83D0094F84020002829
:1079400000F04A81D70649D546F0040646E0AA076A
:1079500000F074813323BB72B4F8E230012293FA51
:1079600012F39AB2003218BF0122A4F8E23084F870
:107970007B21EB0600F16B8194F87B31002B40F00A
:107980000781D4F8E83003EB8303A4F8F83007E765
:107990000F4BB4F9D21018680CF0E4FAA379092B54
:1079A0007FF42DAFD4F8A430D4F8B02093F901308F
:1079B000DB0103F1824303F50043002800F011814D
:1079C0005A611FE778CC0200003C1CC6E42000206E
:1079D0000C26002094F83D0094F84020C2F3C00724
:1079E00067F38E35C2F3001294F8017162F3CF355C
:1079F00067F34D3560F3C305002B00F0A380981F9B
:107A000018BF012094F87A2160F34105002A00F0A4
:107A1000938094F8F40011B1AF0740F1D7806FF371
:107A20000005032B69D015F0020340F0C680002941
:107A300063D063F3820594F8793161F3861560F3BE
:107A4000C815002B5DD0D4F87C31002B40F3268183
:107A500062F345150122013B62F38C25C4F87C31A9
:107A600005F002031BB1B30648BF46F00106321C05
:107A700018BF0122D4F87031C4F8746162F349254B
:107A8000C4F8645125EA030304F5B472BFF35B8FB5
:107A900052E8001F194342E800100028F8D1BFF354
:107AA0005B8FD4F87021BFF35B8F04F5B67322EAC5
:107AB000050553E8002F2A4343E800210029F8D1A7
:107AC000BFF35B8FA379D4F86421C4F870210A2B2B
:107AD0007FF442AE94F81531002B00F09480D4F876
:107AE0001801002800F08F80D4F81C319C427FF4EC
:107AF00033AEBDE8F84006F0D7BE031C18BF012323
:107B000097E762F34515002A3AD094F8D83033B994
:107B100038B905F00203042262F38C25A2E700289D
:107B200063D015F00203F6D1032262F38C2563F3D0
:107B3000041505F0020395E762F3000594F8F400DC
:107B4000134676E718465DE794F83C3093BB84F81B
:107B500088311F46E5E694F8D81081B32B6894F875
:107B6000F4105B6909B194F87A112846984784E6C5
:107B700007B394F88811002900F0AC800F46D0E6D6
:107B800062F38C25AA077FF572AF46F010066AE70C
:107B900094F8283094F8F5107340DAB2914200F06E
:107BA000BF80D4F8E83084F8F52003EB8303A4F811
:107BB000F830F5E594F88871B3E6002339E794F8D6
:107BC000F4202B68012A5B69CFD1CCE701287FF430
:107BD00026AF45F0010524E7170748BF46F0020627
:107BE000FCE69A610EE69A6132E6022363F38C2585
:107BF00045F0100504F1300006F080FA46F020064A
:107C000005F002032EE704F13005284605F0CEFF0B
:107C1000284606F0EDFAD4F8BC50606B2A68A4F848
:107C2000120180B282423FF497ADD4F8CC10D4F860
:107C3000C8200B681342FCD12860F8BD04F0A8FAF4
:107C4000D4F8EC30C01A03283FF684AE91E604F075
:107C50009FFAB4F8E230C4F8EC00002B46D0302391
:107C6000BB72002294F87B3184F8F620A4F8E2205D
:107C700084E62B6828461B6998470FE62B68284640
:107C80001B69984724E64E4BB4F9D01018680CF0E5
:107C900069F901462046FFF7D7FB98E5012200234A
:107CA00045F0200584F87A2184F879312DE73B6886
:107CB00038461B699847B0FA80F77F092AE6404B9F
:107CC000B4F9D41018680CF04DF9A379092B3FF4DE
:107CD000B0ADBDE504F1300006F02AFA012384F8C6
:107CE000883146F0080694F83C301AE6AD067FF578
:107CF00043AEB4F8DC10B4F8E020A4F8DA10A4F82D
:107D0000DE20F88BA4F8DC0094F8F600BD8BA4F814
:107D1000E05070B994F87B31012284F8F6202DE60A
:107D2000B4F8F820002A3FF436AD013AA4F8F82060
:107D300036E507EE901AB8EE677A07EE902AF8EE6D
:107D4000677A84F87B31C7EE276A16EE900A1AF03C
:107D500017FB17A3D3E900231AF0B2F916A3D3E94E
:107D600000231AF061FB1AF057FE07EE900A1EB1CD
:107D70009FED147A77EE677A94F8D830C4ED3C7AA8
:107D8000022B04D0022384F8F4300023C4E717EE5A
:107D9000900A1AF0F5FA00220B4B1AF091F90246FC
:107DA0000B461AF08FF91AF037FEC4F8F000E9E735
:107DB0009A9999999999A93F721CC7711CC75B4000
:107DC0000C2600200000C842000049402DE9F8437D
:107DD00004460F469046002A54D1456C4D1BED0FCA
:107DE000D4F87431002B4BD094F8743143F0010374
:107DF00084F87431002694F8003133B994F8742172
:107E000042F010021E4684F87421B4F98611481C11
:107E100016D0294803F09CFB03689B68814698476D
:107E2000092840D048460BF047F8B0FA80F04009E6
:107E300030B194F8743143F0080384F874310026AB
:107E400094F840306DB1D90626D496B1012342464C
:107E5000394684F83E3004F13000BDE8F84305F0BF
:107E600021BE1A07F1D594F8743143F0020384F867
:107E7000743194F864319B0706D40020BDE8F88380
:107E80000126B8E7CD0FABE704F13000002106F082
:107E90004FF90020BDE8F88394F8743143F00403EF
:107EA00084F87431E5E7D9F8003048461B699847F3
:107EB000B0FA80F04009BBE7E4200020A0F13000D8
:107EC000FFF784BFF8B5D0F8743104460E46002B96
:107ED0004AD090F8743143F0010380F874310025E2
:107EE00094F8003133B994F8742142F010021D4621
:107EF00084F87421B4F98611481C16D0264803F082
:107F000027FB03689B680746984709283CD03846FA
:107F10000AF0D2FFB0FA80F0400930B194F8743121
:107F200043F0080384F874310025002E94F84030A3
:107F30000CDAD90621D48DB10023314684F83E30C5
:107F400004F13000BDE8F84005F0E6BD1A07F2D5AF
:107F500094F8743143F0020384F8743194F8643176
:107F60009B0703D40020F8BD0125B9E704F13000D8
:107F7000002106F0DDF80020F8BD94F8743143F0DC
:107F8000040384F87431E9E73B6838461B69984775
:107F9000B0FA80F04009C0E7E4200020A0F13000F2
:107FA000FFF790BFF8B5D0F8A430BC4D93F901307D
:107FB000D0F8B02005EBC31304469A61D0F8A8307E
:107FC000D0F8B82093F9013005EBC3130E469A613F
:107FD0000021FFF739FA314620460AF081FFD4F834
:107FE000A43093F90120987805EBC21213180027EA
:107FF00083F84070D4F8A81091F901308E78DB0135
:10800000E9188D1903F1824385F84070D4F8B05017
:108010009560D4F8B8508D6002EB500210F0010F5B
:1080200092F830104FF0050003F5004314BF60F3E1
:10803000071160F3030103EB560382F8301093F845
:108040003020F0074FF005014CBF61F3071261F3D8
:10805000030283F830202368914A5B68934240F022
:108060001981A379092B22D004F1300006F046F8DB
:10807000D4F8A410894B91F90120897803EBC2123E
:108080000A44092092F840106FF3000182F8401072
:10809000D4F8A82092F90110927803EBC11313448D
:1080A00093F840206FF3000283F84020A071E3684A
:1080B0002269DB0103F1824101F5004101EB52012C
:1080C00003F1824391F8300012F0010503F50043FB
:1080D000134414BF6FF3071065F3030081F83000F9
:1080E00093F840206F4942F0010283F8402094F851
:1080F000D60051F820301A686FF341021A601A69ED
:108100009207FCD41A6842F001021A601A6912F050
:108110000102FBD11D68644962F305151D601D68ED
:1081200062F314551D601D6862F355551D601D688E
:1081300045F480351D601D6845F400351D601D68DF
:1081400062F3CB251D601D6862F30A251D601D6862
:1081500045F080051D601D6845F040051D601D68E7
:1081600062F383051D60DD88052666F30205DD8068
:10817000DD8845F02005DD80DD8862F30C35DD808B
:10818000DD8862F34D35DD80DD8862F30825DD8012
:10819000DD8845F01005DD800D7862F341050D7036
:1081A000D4F8AC208E68D5780122AA4016438E60A0
:1081B000EF088E69BF0007F1804E16430EF5205E72
:1081C0008E6105F00706DEF81CC0B7000426BE402D
:1081D00046EA0C06CEF81C60CE6892B262F30F0637
:1081E000CE600A7842F002020A704A6812F0020277
:1081F000FBD194F8D7E02D490EF12B073E4651F8FC
:1082000027C062F3861C41F827C051F82620570684
:10821000FBD451F82620254F4FF0060C6CF30302D7
:1082200041F8262051F8262042F0400241F826204D
:108230007A6812F0180FFBD11D4A1E4E74300EF1F1
:1082400001010FFA8EFE42F8201006EBCE02917962
:1082500041F002019171D179C807FCD4123505F0C3
:108260007F0545F4007546F83E50D1798907FCD466
:108270001A6842F002021A601A6912F00202FBD177
:108280000123C4F86421C4F86821C4F86C2184F87F
:108290007831F8BD09212046984708E70080004161
:1082A000E16F000078CC020000280040001C004074
:1082B00000E0004120E000414FF0FF30704700BF78
:1082C000A1F10200B0FA80F0400970470220704727
:1082D000A1F10100B0FA80F040097047A1F1080057
:1082E000B0FA80F040097047807A7047A0F104002E
:1082F000FAE700BF807A401AB0FA80F04009704770
:10830000A0F10400F6E700BF08207047A0F10400C8
:10831000FAE700BF00207047A0F10400FAE700BFB1
:108320001123818183727047A0F10400F8E700BF38
:10833000704700BFA0F10400FAE700BF014B1868C6
:1083400000F05EBECC100020014B186800F066BE45
:10835000CC100020014B186800F07ABECC10002031
:10836000014B186800F030BECC100020014B18689B
:1083700001F004BACC100020014B186800F01CBEBC
:10838000CC100020014B186800F018BECC10002063
:10839000014B186800F07ABECC100020014B186821
:1083A00000F0A0BFCC100020014B186800F0A6BF61
:1083B000CC100020014B186800F0D4BFCC10002076
:1083C000014B186800F0D6BFCC1000200368044AA7
:1083D0001B6B934203D1034B186800F039BE18475A
:1083E00055830000CC100020A0F10400EEE700BF90
:1083F00008B50368064A1B6B934205D1054B186804
:1084000000F026FE00B208BD984700B208BD00BFCC
:1084100055830000CC100020A0F10400E8E700BF65
:1084200008B5036861B90B4ADB68934205D10A4B72
:10843000186801F0A3F9012008BD9847012008BD84
:10844000064A9B689342F8D1034B186800F0BCFDC4
:10845000012008BD6D830000CC1000206183000066
:10846000A0F10400DCE700BF30B583B01A4DADF8D1
:1084700004009DF804102B6811F00104A3F8120108
:1084800012D12146204608F057FB2146012008F072
:1084900053FB08F045FB08F07DFB0368B3F5966FCE
:1084A00012D0002003B030BD0C49002008F044FB7E
:1084B0000B49012008F040FB28684021803008F07B
:1084C00007FB002003B030BD0121064803F0FCFA91
:1084D000002003B030BD00BFCC100020E9840000B4
:1084E00021870000E42000202DE9F04F83B072B610
:1084F0008A490B6803F18000C3F81821C3F81401FE
:1085000062B6086872B6D0F80431D0F80021D0F80D
:1085100018419B1A48BF4033002C00F0D680D3F19D
:108520003F0300F0D280D0F80451D0F81421A342C8
:1085300028BF2346C5F14001994228BF1946461974
:10854000002900F0E8802C1D0444171DBE4238BFEE
:10855000A242C0F0CE800B2940F2CB80544214F0EE
:10856000030400F0B78017784755012C06F1010C81
:1085700002F1010800F0B08057787770022C06F104
:10858000020C02F1020800F0A7809778B77006F19C
:10859000030C032602F103080196A1EB040BABF1D7
:1085A0000406B6082F1901364FEA86090744144419
:1085B0004FF0000E0EF1010E54F804AB47F804AB77
:1085C0007645F7D8019CCB454C440CEB090708EBEA
:1085D000090E00F0898018F826800CF82680661CA9
:1085E000B14240F2818002349EF801607E70A14267
:1085F0007AD99EF80240BC705618D0F81421D0F8F1
:1086000018410A44641A5B1AC0F81421C0F81841D2
:1086100064D0311D021D964238BF8842044671D392
:108620000B2B6FD9724212F003025FD031780170C8
:10863000012A00F1010406F1010E58D07178417051
:10864000022A00F1020406F1020E50D0B1788170C6
:10865000C41C06F1030E0327A3EB020CACF10401CA
:1086600089084D1C16444FEA850802440021013157
:1086700056F8049B42F8049B8D42F8D8C44507EB9A
:10868000080204EB08010EEB08060DD01EF8257059
:1086900004F82570541CA34206D9023274784C7039
:1086A000934201D9B2788A70D0F81421D0F81841D9
:1086B000C0F804311A44E41AC0F81421C0F8184173
:1086C0001CB98030402108F003FA62B6012003B0E3
:1086D000BDE8F08FB446904601945EE7294401F06E
:1086E0003F01C0F80411EBE7561886E7B646174677
:1086F000B2E7741E561812F8017B04F8017FB242EB
:10870000F9D17AE7421EF41816F8011B02F8011F8E
:10871000B442F9D1C8E7164673E700BFCC10002079
:108720002DE9F04FD84883B0002940F0AB810168B3
:10873000D1F808311A4402F03F02C1F808210023A1
:10874000BFF35B8F81F81031BFF35B8F0468BFF319
:108750005B8F4FF0010104F58873D3E84F2FC3E816
:10876000401F0028F9D1BFF35B8F12F0FF0F40F0DC
:10877000DC80D4F80861D4F80C118E4200F09181AD
:1087800004F1400202EB060704F1C00EC0F0D180F4
:10879000C6F140031944402928BF40218B4228BF1D
:1087A0000B46002B00F0A18106F1400506F1440CB8
:1087B0006019A44404F1C408404538BFE645C0F040
:1087C0008A810B2B40F28781404210F0030000F0B9
:1087D0006181965D84F8C060012804F1C10C07F145
:1087E000010800F059817E7884F8C160022804F104
:1087F000C20C07F1020800F04F81BE7884F8C26015
:10880000032607F1030804F1C30C0196A3EB000B48
:10881000ABF10406B60805440136C03025442044B7
:108820004FEA86090027013755F804AB40F804AB3E
:10883000B742F8D30198CB4548440CEB090508EB47
:1088400009070DD018F826800CF82680461CB34284
:1088500006D902307E786E70834201D9B878A8704C
:108860000EEB0300CB1A00F0FC8004F14405061D5A
:10887000B24238BFA842C0F025810B2B40F22281C2
:10888000554215F0030500F0098194F8402002706C
:10889000012D00F1010804F1410200F0008194F87B
:1088A00041204270022D00F1020804F1420200F062
:1088B000F68094F84220827000F1030804F143022C
:1088C0000327A3EB0509A9F10406B60805F1400C3E
:1088D00001362844A4444FEA860B4FF0000A0AF1FF
:1088E000010A5CF8045B40F8045B5645F7D8D945AB
:1088F0005F4408EB0B0002EB0B0500F0B28012F8AE
:10890000262008F826207A1C934240F2AA800237DB
:108910006A784270BB4240F2A480AB7883707046A4
:1089200008F0EAF8002840F0A280012003B0BDE87A
:10893000F08F891B06F1400306F14400402904EB47
:108940000308204404F1C40528BF4021A84538BFCE
:108950008645C0F0AD800B2940F2AA80C8F100081E
:1089600018F0030800F09280925D84F8C020B8F1FE
:10897000010F04F1C10507F1010600F089807A7842
:1089800084F8C120B8F1020F04F1C20507F1020614
:108990007ED0BA7884F8C220FE1C04F1C3054FF0E3
:1089A0000309434408F1C000E2582250A1EB080833
:1089B000A8F1040223449208013220445F68476012
:1089C000022A4FEA820C35D09F688760032A31D093
:1089D000DF68C760042A2DD01F690761052A29D0E6
:1089E0005F694761062A25D09F698761072A21D0E0
:1089F000DF69C761082A1DD01F6A0762092A19D0DA
:108A00005F6A47620A2A15D09F6A87620B2A11D0D3
:108A1000DF6AC7620C2A0DD01F6B07630D2A09D0CD
:108A20005F6B47630E2A05D09F6B87630F2A01D0C7
:108A3000DB6BC363E045E14405EB0C0306EB0C0084
:108A40000FD016F8226005F8226009F10102914268
:108A500007D909F1020942785A70494501D982784B
:108A60009A70704608F048F800283FF45EAFBFF3F4
:108A70005B8F002384F810310120BFF35B8F03B0BC
:108A8000BDE8F08F01685AE6CC1000203E467546DE
:108A9000C14686E7B846F4460190B7E680462F46C1
:108AA0000FE7BFF35B8F84F81021BFF35B8F3CE7C8
:108AB00004F1BF03781817F8012B03F8012F874240
:108AC000F9D1CEE70138134412F8015B00F8015FD9
:108AD0009A42F9D1C5E704F1BF00FE1817F8015B0F
:108AE00000F8015FBE42F9D1BAE67046BAE600BFAF
:108AF00070B5164E346814F0010402D0144B186897
:108B000070BD4FF4907010F09DFC054600F180039D
:108B1000C0F800410F49C5F80441C5F81431C5F843
:108B20000841C5F81841C5F80C4185F81C4185F885
:108B30001041A5F8124185F81141032007F0FCFF10
:108B4000034A012315602846336070BDC810002019
:108B500010110020698400002DE9F041C74AD2F8C5
:108B6000A8306FF386138CB0C2F8A830D2F8A830C2
:108B70005906FBD4D2F8A830C049042060F303039F
:108B8000C2F8A830D2F8A83043F04003C2F8A830A9
:108B90004B68DB06FCD4BA4BBA491A6942F48062CE
:108BA0001A619A6942F001029A61A1F1D700032289
:108BB00008F06EFB0446002800F09C81B24B0FCBFE
:108BC0008DE80F0003681D0FE8B2C3F3036800F1DE
:108BD00030073730092D88BF07465FFA88F0C3F3A6
:108BE000035600F1300C3730B8F1090FC8BF844686
:108BF000F0B2C3F303458DF811C000F1300C3730EB
:108C0000092EC8BF8446E8B2C3F3033E8DF812C0F4
:108C100000F1300C3730092DC8BF84465FFA8EF062
:108C20008DF810708DF813C0C3F3032700F1300CDA
:108C30003730BEF1090FD4BFE6468646F8B2C3F31B
:108C400003160A468DF814E000F1370E3030092F74
:108C5000CCBF77460746F0B212688DF8157003F066
:108C60000F0300F137073030092ECCBF3E460646D1
:108C7000D8B2150F8DF8166000F137063030092B89
:108C8000CCBF33460346E8B2C2F3036C8DF817300D
:108C900000F137033030092D88BF18465FFA8CF396
:108CA000C2F3035E8DF8180003F137003033BCF1D6
:108CB000090FCCBF84469C465FFA8EF3C2F303478C
:108CC0008DF819C003F1370C3033BEF1090FD8BF4E
:108CD0009C46FBB2C2F303368DF81AC003F1370C81
:108CE0003033092FD8BF9C46F3B2C2F303258DF869
:108CF0001BC003F1370C3033092ED8BF9C46EBB2B2
:108D0000C2F3031002998DF81CC003F1370C303305
:108D1000092DCCBF65461D46C3B209688DF81D50AC
:108D200002F00F0203F1370530330928CCBF284683
:108D30001846D3B24FEA117E8DF81E0003F13700BA
:108D40003033C1F30367092ACCBF02461A465FFAE3
:108D50008EF5F8B28DF81F2005F137023035C1F3DA
:108D60000356BEF1090F88BF154600F137023030B7
:108D7000092FC8BF1046F3B203F137028DF8210066
:108D80003033C1F30340092EC8BF1346C2B2C1F34A
:108D9000033E02F1370830320928D8BF90465FFA07
:108DA0008EF2C1F303278DF822302046039B8DF805
:108DB000205002F137043032BEF1090FD8BF1446FB
:108DC000FAB21B688DF82440C1F3031602F1370490
:108DD0003032092FCCBF27461746F2B201F00F01FF
:108DE0008DF8257002F137073032092ECCBF3E4690
:108DF0001646CAB21D0F8DF8266002F137063032D2
:108E00000929CCBF31461146EAB2C3F3036C8DF891
:108E1000271002F130013732092D88BF11465FFA61
:108E20008CF2C3F3035E8DF8281002F13001373263
:108E3000BCF1090FD4BF8C4694465FFA8EF2C3F39F
:108E4000034402F137013032BEF1090FCCBF8E4628
:108E50009646E1B2C3F303378DF82AE001F1370EED
:108E60003031092CD8BF8E46FAB2C3F303268DF8F1
:108E70002BE002F1300E373208E000BF001C00404A
:108E800000080040EF0000208CCD0200092FD4BF65
:108E900077461746C3F30315F4B203F00F03DAB2B3
:108EA000E9B28DF82C7004F130073734092ED8BFA1
:108EB0003C4601F1300E02F1300737313732092DCF
:108EC000D8BF7146092BD4BF3B4613468DF82E10F0
:108ED0008DF82F308DF823808DF829C08DF82D4026
:108EE0000DF10F030DF12F0113F8012F20F8022FC0
:108EF0008B42F9D12A4B2B4A2B4F2C4D2C488021E9
:108F00004FF080764FF0804482F8501382F851136E
:108F100082F8521382F853139E609C629F625E61D6
:108F200093F8582002F0FB0283F8582093F8582059
:108F300002F0FE0242F0010283F8582093F83C2030
:108F400002F0F0024FF0007142F0070283F83C207B
:108F500099609C629D62596193F8592002F0FB026E
:108F600083F8592093F8592002F0FE0242F00102E2
:108F700083F8592093F83C2002F00F0242F070026F
:108F800083F83C2008F0CCF807F084FD094808F08D
:108F9000F5F808F00BF901200CB0BDE8F08100BF36
:108FA0000080004100E100E0000100C0000200C0BC
:108FB000D0100020100000200120704708B507F0F5
:108FC000E9FD006808BD00BF38B590F81C3103B159
:108FD00038BD04460125184684F81C51064907F09F
:108FE000ABFD2846054907F0A7FD04F180004021AC
:108FF000BDE8384007F06CBDE9840000218700001F
:1090000003460022C0F80021C0F81821C0F804214E
:109010004021803083F8112107F05ABD38B504464D
:109020004FF08245D4F80821D4F80C319A4200D18F
:1090300038BD07F0A9FD0028FAD094F81231DB07FB
:10904000F6D56B7B03F07F03022BEBD038BD00BF5E
:1090500038B5054607F098FD044670B195F8124101
:1090600014F0010409D04FF082435C7B04F07F04CC
:10907000A4F10204B4FA84F464090348002103F063
:10908000B1F8204638BD00BF804F1200D0F8003143
:10909000D0F80421934200F016812DE9F04F5A1CBC
:1090A00002F03F02C45CC0F8002183B072B6D0F871
:1090B0000431D0F80021D0F818519B1A48BF403332
:1090C000002D00F0E380D3F13F0300F0DF80D0F803
:1090D0000461D0F81421AB4228BF2B46C6F14001F1
:1090E000994228BF19468719002900F0F880351DDC
:1090F000054402F1040E774538BFAA42C0F0DA8079
:109100000B2940F2D780554215F0030500F0C380CB
:1091100092F800E000F806E0012D07F1010802F1E5
:10912000010900F0BA8092F801E087F801E0022D11
:1091300007F1020802F1020900F0AF8092F802E0A4
:1091400087F802E007F10308032702F103090097FB
:10915000A1EB050BABF10407BF0806EB050E0137C9
:109160004FEA870A864415444FF0000C01940CF135
:10917000010C55F8044B4EF8044B6745F7D8009D99
:10918000019CD345554408EB0A0E09EB0A0C00F08C
:109190008C8019F8279008F827906F1CB94240F28C
:1091A000848002359CF801708EF80170A9427CD948
:1091B0009CF802508EF802505718D0F81421D0F8BD
:1091C00018510A446D1A5B1AC0F81421C0F81851DE
:1091D00065D0011D3A1D904238BF8F42054675D3B8
:1091E0000B2B73D9424212F0030260D03978017020
:1091F000012A00F1010507F1010E59D0797841707B
:10920000022A00F1020507F1020E51D0B9788170EF
:10921000C51C07F1030E4FF00308A3EB020CACF1E1
:10922000040189084E1C17444FEA860902440021B4
:10923000013157F804AB42F804AB8E42F8D8CC4564
:1092400008EB090205EB09010EEB09070DD01EF82A
:1092500026E005F826E0551CAB4206D902327D789F
:109260004D70934201D9BA788A70D0F81421D0F8A1
:109270001851C0F804311A44ED1AC0F81421C0F88E
:1092800018511DB98030402107F022FC62B620B28F
:1092900003B0BDE8F08FB8469146009558E73144D9
:1092A00001F03F01C0F80411EBE7571885E7BE460F
:1092B0009046B2E77D1E571812F801EB05F801EF52
:1092C000BA42F9D179E74FF0FF307047421EFD18DE
:1092D00017F8011B02F8011FBD42F9D1C5E7174677
:1092E0006FE700BFD0F80421D0F800319A421ABFCE
:1092F000D0F80031C05C4FF0FF30704770B50446C5
:109300000E464FF0824507F03FFC50B394F812012F
:1093100010F0010025D06B7B03F07F03022B01D0FE
:10932000002070BD94F81C0100B970BDD4F808315C
:10933000D4F80C219B1A5A1E0ED4002AE3D0D4F87C
:109340000C31234483F84060D4F80C31013303F02E
:109350003F03C4F80C3170BD03F13F02002AD2D0A4
:10936000EDE770BDD0F80431D0F80001181A48BFFD
:1093700040307047D0F80831D0F80C219B1A581EA5
:1093800048BF03F13F0070472DE9F04F00F58873A7
:1093900083B04FF00101BFF35B8FD3E84F2FC3E8D9
:1093A000441F002CF9D1BFF35B8F12F0FF0F40F088
:1093B000E480D0F80861D0F80C118E4200F0B6813C
:1093C00000F1400303EB060700F1C005C0F0D880B0
:1093D000C6F140021144402928BF40218A4228BFDB
:1093E0000A46002A00F0C78106F1400E06F1440447
:1093F00000EB0E08044400F1C40CE04538BFA54260
:10940000C0F0AE810B2A40F2AB816C4214F0030431
:1094100000F07F819E5D80F8C060012C00F1C10CDE
:1094200007F1010800F07B817E7880F8C160022C92
:1094300000F1C20C07F1020800F07181BE7880F8DB
:10944000C260032607F1030800F1C30C0196A2EBEA
:10945000040BABF10407BF080EEB04060137C03460
:10946000064404444FEA87094FF0000E0EF1010E46
:1094700056F804AB44F804ABBE45F7D3019CCB458A
:109480004C4408EB090E0CEB09060FD018F82780A6
:109490000CF82780671CBA4208D902349EF8017084
:1094A0007770A24202D99EF80240B470AC188A1AB2
:1094B00000F01A81261D00F14407BC4238BFB342B8
:1094C000C0F045810B2A40F242815F4217F003074A
:1094D00000F0298190F840302370012F04F1010C35
:1094E00000F1410300F01D8190F841306370022FBC
:1094F00004F1020C00F1420300F0138190F84230B5
:10950000A37004F1030C00F143034FF00309A2EB35
:109510000708A8F1040E4FEA9E0E07F140060EF16F
:10952000010E3C4406444FEA8E0A0027013756F8E4
:1095300004BB44F804BBBE45F8D8D04509EB0A0487
:1095400003EB0A070CEB0A0600F0CE8013F82E306E
:109550000CF82E30631C9A4240F2C68002347B78AD
:109560007370A24240F2C080BB78B37004462846B4
:1095700007F0C2FA002840F0BE8003B0BDE8F08FCB
:10958000891B06F1400206F14404402900EB020C5D
:10959000044400F1C40E28BF4021F44538BFA54261
:1095A000C0F0CB800B2940F2C8806C4214F0030459
:1095B00000F0AB809B5D80F8C030012C00F1C1064B
:1095C00007F1010E00F0A9807B7880F8C130022CF1
:1095D00000F1C20607F1020E00F09F80BB7880F810
:1095E000C23007F1030E00F1C3064FF0030C13194C
:1095F000034404F1C0081A6840F808200F1B3A1F02
:10960000920800EB08040132D3F80480C4F8048007
:10961000022A4FEA82084FD0D3F80890C4F8089085
:10962000032A49D0D3F80C90C4F80C90042A43D0F4
:10963000D3F81090C4F81090052A3DD0D3F81490B8
:10964000C4F81490062A37D0D3F81890C4F81890AC
:10965000072A31D0D3F81C90C4F81C90082A2BD0CC
:10966000D3F82090C4F82090092A25D0D3F824906C
:10967000C4F824900A2A1FD0D3F82890C4F8289060
:109680000B2A19D0D3F82C90C4F82C900C2A13D0A4
:10969000D3F83090C4F830900D2A0DD0D3F8349020
:1096A000C4F834900E2A07D0D3F83890C4F8389014
:1096B0000F2A01D0DB6BE36347450CEB080306EB95
:1096C00008040EEB080C0FD01EF8227006F822706A
:1096D0005A1C914208D902339CF8012062709942C9
:1096E00002D99CF80230A3700446284607F004FA19
:1096F00000283FF442AFBFF35B8F002384F81031A2
:10970000BFF35B8F03B0BDE8F08FBE46A4462E4684
:109710006DE7B8460194AC4699E6A44667E7019424
:1097200095E6B946F3E6B946A446F0E6BFF35B8F8B
:1097300080F81021BFF35B8F1FE700F1BF037C1897
:1097400017F8012B03F8012FA742F9D1CCE7013C10
:109750001A4413F8016B04F8016F9342F9D1C3E77F
:1097600000F1BF0407EB020E17F8016B04F8016F5C
:10977000BE45F9D19AE62C4699E600BF38B590F877
:109780001C3103B938BD0546FFF7FEFD4FF082449A
:10979000D5F80821D5F80C319A420BD007F0F4F92E
:1097A00040B195F81231DB0704D5637B03F07F03EA
:1097B000022BEDD00024214685F81C41204607F0FD
:1097C000BBF92146012007F0B7F907F0A9F9C5F860
:1097D0000041C5F81841C5F80441C5F80841C5F86D
:1097E0000C4185F8104185F8114138BD90F81031D1
:1097F00003B17047D0F80821D0F80C319A4200F03C
:10980000FD802DE9F04F00F5887383B04FF0010122
:10981000BFF35B8FD3E84F2FC3E8441F002CF9D16F
:10982000BFF35B8F12F0FF0F40F0E580D0F80861C6
:10983000D0F80C118E4200F0AB8100F1400303EB35
:10984000060700F1C005C0F0DA80C6F140021144FD
:10985000402928BF40218A4228BF0A46002A00F03A
:10986000BC8106F1400E06F1440400EB0E080444EE
:1098700000F1C40CE04538BFA542C0F0A3810B2A1B
:1098800040F2A0816C4214F0030400F077819E5DE9
:1098900080F8C060012C00F1C10C07F1010800F054
:1098A00071817E7880F8C160022C00F1C20C07F152
:1098B000020800F06581BE7880F8C260032607F1D7
:1098C000030800F1C30C0196A2EB040BABF10407F3
:1098D000BF080EEB04060137C034064404444FEAC7
:1098E00087094FF0000E0EF1010E56F804AB44F854
:1098F00004ABBE45F7D3019CCB454C440CEB0906A9
:1099000008EB090E0FD018F827800CF82780671C89
:10991000BA4208D902349EF801707770A24202D987
:109920009EF80240B470AC188A1A58D0261D00F177
:109930004407BC4238BFB342C0F03B810B2A40F21F
:1099400038815F4217F0030700F01F8190F8403024
:109950002370012F04F1010C00F1410300F0168186
:1099600090F841306370022F04F1020C00F14203C1
:1099700000F00C8190F84230A37004F1030C00F168
:1099800043034FF00309A2EB0708A8F1040E4FEAC6
:109990009E0E07F140060EF1010E3C4406444FEACC
:1099A0008E0A0027013756F804BB44F804BBBE45B5
:1099B000F8D8D04509EB0A040CEB0A0603EB0A07BA
:1099C0000DD013F82E300CF82E30631C9A4206D9B5
:1099D00002347B787370A24201D9BB78B37004461D
:1099E000284607F089F830B1BFF35B8F002384F875
:1099F0001031BFF35B8F03B0BDE8F08F7047891B58
:109A000006F1400206F14404402900EB020C044434
:109A100000F1C40E28BF4021F44538BFA542C0F074
:109A2000BE800B2940F2BB806C4214F0030400F0AE
:109A30009E809B5D80F8C030012C00F1C10607F1CB
:109A4000010E00F096807B7880F8C130022C00F186
:109A5000C20607F1020E00F08E80BB7880F8C2309B
:109A600007F1030E00F1C3064FF0030C1319034472
:109A700004F1C0081A6840F808200F1B3A1F92082A
:109A800000EB08040132D3F80480C4F80480022AF1
:109A90004FEA82084FD0D3F80890C4F80890032A00
:109AA00049D0D3F80C90C4F80C90042A43D0D3F8D2
:109AB0001090C4F81090052A3DD0D3F81490C4F843
:109AC0001490062A37D0D3F81890C4F81890072AB3
:109AD00031D0D3F81C90C4F81C90082A2BD0D3F8AE
