S01700004D6F74696F6E53747265616D696E672E73726563ED
S21400400000000320C9C30000D1420000D1420000D6
S214004010D1420000D1420000D14200000000000062
S214004020000000000000000000000000D142000078
S214004030D142000000000000D142000065C200002E
S214004040D1420000D1420000D1420000D14200001F
S214004050D1420000D1420000D1420000D14200000F
S214004060D1420000D1420000D1420000D1420000FF
S21400407039C1000049C1000059C1000069C10000F3
S21400408079C1000089C1000099C10000A9C10000E3
S214004090B9C10000C9C10000D9C10000E9C10000D3
S2140040A0F9C1000005C2000015C2000025C20000CC
S2140040B0D1420000D1420000D1420000D1420000AF
S2140040C0D1420000D1420000D1420000D14200009F
S2140040D0D1420000D1420000D1420000D14200008F
S2140040E0D1420000D14200000000000000000000A5
S2140040F000000000D1420000CDC00000D142000008
S214004100D9C00000E5C00000D1420000D142000046
S214004110D1420000D1420000F1C00000D1420000B0
S214004120FDC0000009C10000D1420000D1420000DD
S214004130D1420000D1420000D1420000D14200002E
S214004140D1420000D1420000D1420000D14200001E
S214004150D1420000D1420000D1420000D14200000E
S214004160D1420000D142000015C10000D14200003B
S21400417021C100002DC1000000000000000000006A
S214004180D1940100D5940100D9940100DD9401007A
S214004190C1C00000B9C20000D1420000D1420000F8
S2140041A0D1420000D1420000D1420000D1420000BE
S2140041B0D1420000D1420000D1420000D1420000AE
S2140041C0D1420000D1420000D1420000D14200009E
S2140041D0D142000035C20000D1420000D1420000AA
S2140041E04DC20000D1420000D1420000D142000082
S2140041F0D1420000D1420000D1420000D14200006E
S214004200D1420000D1420000D1420000D14200005D
S214004210D1420000D1420000D1420000D14200004D
S214004220D1420000D1420000D1420000D14200003D
S214004230D1420000D1420000D1420000D14200002D
S214004240D1420000D1420000D1420000D14200001D
S214004250D1420000D1420000D1420000D14200000D
S214004260D142000010B5054C237833B9044B13B186
S2140042700448AFF300800123237010BDC00A00205D
S21400428000000000683503000C4B43B10C480D4994
S21400429010B5AFF300800C48036823B910BD0A4878
S2140042A0036833B97047094B002BF7D0BDE81040C0
S2140042B01847064B002BF5D0184700BF000000003B
S2140042C068350300C40A0020BC0A00200000000075
S2140042D0FEE700BF000000002DE9F0414A4C4B48C5
S2140042E02DED068B00250021257008F05BFA484B63
S2140042F00A221868022109F0B1FD4448002108F09E
S21400430051FA2946434803F07FFB2946424803F00A
S2140043107BFB3E48002108F045FA04F108003E4ABF
S2140043203C490BF019F900285CD09FED318B9FEDCE
S214004330329BB0EE481AF0EE681AB0EE490AF0EE7C
S214004340690A02224FF4487104F108000BF0FEFFE0
S214004350B0EE481AF0EE681AB0EE490AF0EE690AB6
S21400436002224FF4487104F5CE6604F108000CF002
S21400437021F8022730464FF448789FED21AB86EDB2
S214004380029B86ED068B84F88076C4F870860CF067
S21400439023FB04F5D563184683ED029B83ED068B5D
S2140043A084F8B876C4F8A8860CF016FBB0EE4A0A75
S2140043B0F0EE6A0A04F108000CF04AF8174F184BA2
S2140043C0C4F8F435012641F288332A46294604F11A
S2140043D0080087ED00AB84F8E066C4F8F0350CF012
S2140043E01DF82670BDEC068BBDE8F081AFF30080AB
S2140043F0000000000000F03F000000000000144035
S2140044000000000000C06F40E00A0020808D5B00C6
S2140044102C2500207013002000150020000000202E
S214004420084C010010B5184C184BC4F8E43604F1DB
S21400443008000AF031FF04F5DD6003F095F8144B30
S214004440002204F5CE6004F5D561C0E90223C0E978
S2140044500623C0E90A23C0E90C23C1E90223C1E907
S2140044600623C1E90A23C1E90C2300230122C4F86C
S2140044707026C4F8A82684F8803684F8903684F827
S214004480B83684F8C83610BDE00A0020C0A8006D13
S2140044900000F03F10B5094C0948002108F082F9E9
S2140044A04FF4E131204604F047FA204604F038FA8B
S2140044B004480021BDE8104008F074B9B01D002083
S2140044C0808D5B00001BB700C0B170B504460C4879
S2140044D004F020FA00B970BD204624F091FA0028B6
S2140044E0F9D0074E251801E0A542F4D014F8011BB8
S2140044F0304604F039FA0028F6D170BD704700BF88
S214004500B01D002070B5284C94F8FC369EB004F11F
S2140045100800E3B90BF0B0FF53EC102B04F10800D1
S214004520CDE902230BF0BCFF05AC8DED000BDDE9F9
S214004530022320461D4924F049F81D4804F0EAF9F4
S21400454080B91B4804F0E6F910BB1EB070BD0BF036
S214004550BBFF53EC102B04F10800CDE902230BF04F
S214004560C7FFE1E7204624F04BFA0028E9D0104EBA
S214004570251801E0AC42E4D014F8011B304604F0E4
S214004580F3F90028F6D10A4804F0C4F90028DCD074
S2140045900D21074804F0E8F90028D6D00A2104487F
S2140045A004F0E2F91EB070BDE00A0020DCF502005F
S2140045B0B01D0020000000002DE9F04FC64C2DED88
S2140045C0028B2378A7B08DED080B8DED0A1B002B10
S2140045D000F0A281B0EE448AF0EE648A0022002346
S2140045E051EC140B59EC128B57EC136B21F07EFA3E
S2140045F0002800F05081B0EE480AF0EE680A94F801
S214004600FC3604F108052846002B00F0BA800BF0B3
S2140046101FFFB24B83ED008B012384F8E03694F83D
S214004620FC362846002B40F0F9800BF025FF284684
S2140046308DED040B0BF034FF94F8FD36012B8DED59
S214004640060B00F0F98042464B46DDE9040120F0F7
S21400465015FE32463B46CDE90201DDE9060120F0B3
S2140046600DFE42464B4682468B464046494620F063
S214004670B7FF32463B46804689463046394620F0EC
S214004680AFFF02460B464046494620F0F7FD41EC98
S214004690100B1EF055F9DDE90223B0EE408AF0EE6D
S2140046A0608ADDE9080120F0E7FD52465B46CDE969
S2140046B00801DDE90A0120F0DFFD9DED081B41EC55
S2140046C0100B1EF0D5F857EC106B0022002310EEEE
S2140046D0100A394621F0F6F9002840F01381DDE98A
S2140046E00223DDE9040120F0C7FD52465B46CDE912
S2140046F00401DDE9060120F0BFFD9DED041B41EC41
S214004700100B1EF0B5F859EC108B0022002310EEAB
S214004710100A494621F0D6F9002840F0CE8094F8D9
S214004720FC366F49002B63D19DED020B01200BF088
S2140047301BFF4BEC10AB6B49054601200BF014FF3A
S214004740B0EE480AF0EE680A8246654901200BF092
S2140047500BFF654A92F800211AB1644B93F80031BA
S214004760ABB9634804F0D6F8002840F0858060486E
S21400477004F0D0F8002870D127B0BDEC028BBDE85D
S214004780F08F0BF053FE554B83ED008B44E74FF054
S214004790000E034652462946CDF800E047EC106B63
S2140047A054480BF0E5F9002840F0CE8094F85224E7
S2140047B0D2B2072A0DACCCBF4F495049204623F051
S2140047C005FF4B4804F0A6F80028D0D0204624F079
S2140047D017F90028CBD0464E251801E0A542C6D0D2
S2140047E014F8011B304604F0BFF80028F6D1BEE7E7
S2140047F09DED020B02200BF0B7FE4BEC10AB05460E
S214004800384902200BF0B0FEB0EE480AF0EE680A17
S2140048108246334902200BF0A7FE9AE70BF054FEBF
S21400482028468DED040B0BF063FE94F8FD36012B45
S2140048308DED060B7FF407AFDDE90801DDE9042303
S21400484020F01CFDDDE90623CDE90801DDE90A01BB
S21400485020F014FDCDE90A01F5E60D21244804F008
S21400486083F8002888D00A21214804F07DF827B074
S214004870BDEC028BBDE8F08F214C1D4D04F12E06D9
S21400488014F8011B284604F06FF800283FF46FAFB9
S214004890A642F5D16BE794F8E036002B51D094F899
S2140048A0FC36002B40F0EA800C4B04F1080593ED33
S2140048B0000B28460BF0BAFDB1E64046494604A375
S2140048C0D3E9002320F0DAFC8046894627E700BFBC
S2140048D0182D4454FB211940E00A00200000002057
S2140048E050110020881100207013002000150020B1
S2140048F0B01D0020E80A00203CF602007CF602000C
S214004900C4F60200304639466FA3D3E9002320F0F0
S214004910B5FC06460F46E2E6714803F0FBFF0028AA
S2140049203FF425AF6F4C6E4D04F14E0614F8011B94
S214004930284604F019F800283FF419AFA642F5D12E
S21400494015E704F108056AE6654803F0E3FF00286A
S2140049507CD1634803F0DEFF002840F0838094F8A3
S214004960FE36002B7FF408AF42464B4630463946AB
S21400497021F0BCF8002840F08A8032463B4640468C
S214004980494620F079FC06460F464DA3D3E900239E
S2140049903046394621F0A0F840B932463B464AA197
S2140049A0D1E9000120F068FC06460F4653EC182BB0
S2140049B03046394620F014FE4B4BD3E9006780465C
S2140049C08946002200233046394621F099F800280F
S2140049D070D094F8FC36002B62D132463B464046F7
S2140049E0494620F027FF0022404B414E20F0F8FDBC
S2140049F00022404B20F0F4FD35A3D3E9002320F03D
S214004A003DFC21F0C5F8B0F5FA6F38BF4FF4FA60F8
S214004A10804607F09DFE0027054606E007F0C2FE2A
S214004A2007F096FE401B404509D894F852343046AD
S214004A303946002BF2D194F8BE35002BEED1237800
S214004A40002B3FF499AEFFF75DFD95E66F212448F5
S214004A5003F08AFF00283FF47CAF6B21204803F068
S214004A6083FF76E70D211E4803F07EFF00283FF403
S214004A7076AF0A211A4803F077FF70E71A4B04F165
S214004A80080593ED000B28460BF0E2FCC7E5304620
S214004A90394642464B4620F0EFFB06460F4674E783
S214004AA00DA3D3E900233046394620F099FD02468F
S214004AB00B4694E70026104F8BE700BFAFF300804D
S214004AC0182D4454FB210940182D4454FB2119404D
S214004AD0000000000070A74066666666666639409D
S214004AE0B01D0020ECF502000000002000004E4043
S214004AF0808D5B0000408F400000244000000000D6
S214004B002DE9F043974C2DED068B23789DB0002BB6
S214004B1000F0EE80B0EE409AF0EE609AB0EE41AA59
S214004B20F0EE61AA0022002351EC120BB0EE428A8E
S214004B30F0EE628A20F0DAFF002800F0C780B0EEC0
S214004B40480AF0EE680A94F8FC3604F10800002BD8
S214004B503CD00BF07DFC844B83ED008B012384F866
S214004B60E03694F8FD36012B00F0958094F8FC367C
S214004B707E49002B5AD1B0EE490AF0EE690A0120B0
S214004B800BF0F2FCB0EE4A0AF0EE6A0A05467849E7
S214004B9001200BF0E9FC2378002B5AD0754B93F8D4
S214004BA000311BB1744B93F80031ABB9734803F076
S214004BB0B1FE002840F0C780704803F0ABFE002826
S214004BC05AD11DB0BDEC068BBDE8F0830BF02EFC71
S214004BD0654B83ED008BC1E70246294668480BF01B
S214004BE087FA002840F0D68094F85224D2B2072ADA
S214004BF003ACCCBF63496449204623F0E7FC5F481A
S214004C0003F088FE0028D7D0204623F0F9FE0028BF
S214004C10D2D05A4E251801E0AC42CDD014F8011B74
S214004C20304603F0A1FE0028F6D1C5E7B0EE490AEB
S214004C30F0EE690A02200BF097FCB0EE4A0AF0EE9E
S214004C406A0A05464A4902200BF08EFC2378002BA0
S214004C50A4D14A4803F05EFE0028ADD04B4C474D29
S214004C6004F14E0614F8011B284603F07DFE0028CA
S214004C70A2D0A642F6D19FE70D21404803F074FE6D
S214004C8000289ED00A213D4803F06EFE1DB0BDEC04
S214004C90068BBDE8F08394F8FC363948002B3CD1EF
S214004CA00BF0EAFB51EC190B53EC102B20F0E6FA54
S214004CB041EC190B32480BF0F3FB51EC1A0B53EC9A
S214004CC0102B20F0DBFA41EC1A0B4FE794F8E03695
S214004CD0002B3FF446AF94F8FC36002B40F0DA8009
S214004CE0214B04F1080093ED000B0BF09FFB38E717
S214004CF0224803F00FFE00283FF45EAF234C1F4D02
S214004D0004F14E0614F8011B284603F02DFE002879
S214004D103FF452AFA642F5D14EE70BF0D5FB51EC6F
S214004D20190B53EC102B20F0A9FA41EC190B144880
S214004D300BF0DEFB51EC1A0B53EC102B20F09EFA16
S214004D4041EC1A0B12E7124C0C4D04F12E0614F827
S214004D50011B284603F008FE00283FF42DAFA642AC
S214004D60F5D129E7E00A00200000002050110020BD
S214004D70881100207013002000150020B01D0020B0
S214004D80E80A00203CF60200F4F60200ECF5020009
S214004D90C4F60200604803F0BDFD002840F0938092
S214004DA05D4803F0B7FD002840F0818094F8FE3699
S214004DB0002B7FF406AF94F8FC365848002B71D0D1
S214004DC00BF082FB57EC106B94F8FC365348002B24
S214004DD040F08F800BF064FB53EC102B51EC1A0B59
S214004DE020F04AFA32463B46CDE9000151EC190B59
S214004DF020F042FA9DED001B41EC100B1DF03AFD31
S214004E00474BD3E90067002200233046394659EC69
S214004E10108B20F075FE002870D094F8FC36002B1E
S214004E205DD132463B464046494620F003FD00220F
S214004E303C4B3D4E20F0D4FB00223C4B20F0D0FBF8
S214004E4031A3D3E9002320F019FA20F0A1FEB0F533
S214004E50FA6F38BF4FF4FA60804607F079FC0027F7
S214004E60054606E007F09EFC07F072FC401B404536
S214004E7009D894F8523430463946002BF2D194F8CB
S214004E80BE35002BEED12378002B3FF49AAEFFF709
S214004E9039FB96E6224B04F1080093ED000B0BF06D
S214004EA0D7FA5EE60BF0E8FA57EC106B8CE70D21AC
S214004EB0194803F059FD00283FF478AF0A21164838
S214004EC003F052FD72E76F21134803F04DFD0028F2
S214004ED03FF466AF6B21104803F046FD60E70CA375
S214004EE0D3E900233046394620F07AFB02460B46CB
S214004EF099E70BF0FDFA53EC102B6FE700260C4FEA
S214004F008BE700BFAFF30080000000000070A740F2
S214004F106666666666663940B01D0020E80A0020B0
S214004F200000002000004E40808D5B0000408F4057
S214004F3000002440000000002DE9F04F0C4C2DED41
S214004F40048B2378E5B08DED0C0BABB9094803F064
S214004F50E1FC002840F0F181064803F0DBFC002865
S214004F6040F0CF8165B0BDEC048BBDE8F08F00BF8C
S214004F70E00A0020B01D002053EC102BB0EE418A52
S214004F80F0EE618A8DED043BB0EE449AF0EE649A42
S214004F908DED022B8DED001B32A8C54959EC128B06
S214004FA057EC136B23F012FBC24803F0B3FC002847
S214004FB040F0D281BF4803F0ADFC002840F0B1813C
S214004FC00022002351EC190B20F090FD002800F081
S214004FD0E78194F8FC36002B00F0D581B0EE490A44
S214004FE0F0EE690AB44B179318460BF031FAB34B40
S214004FF083ED009B012384F8E036179D94F8FC3679
S2140050002846002B40F000820BF036FA28468DED3D
S214005010100B0BF045FA94F8FD36012B8DED120BB4
S21400502000F0008242464B46DDE9100120F026F9EA
S2140050303246CDE90E013B46DDE9120120F01EF9AD
S21400504042464B4682468B464046494620F0C8FAC2
S2140050503246804689463B463046394620F0C0FAFE
S21400506002460B464046494620F008F941EC100B34
S21400507041EC190B1DF064FC9DED0E7B8DED067B5F
S2140050809DED0C7B8DED027B9DED127BCDE908AB93
S2140050908DED0A0B8DED048B8DED007BDDE9102385
S2140050A0874932A823F092FA824803F033FC00289E
S2140050B040F0F7817F4803F02DFC002840F0E581A2
S2140050C0B0EE490AF0EE690A1DF03AFCDDE90E235F
S2140050D0B0EE409AF0EE609ADDE90C0120F0CCF8D4
S2140050E052465B46CDE90C0151EC180B20F0C4F893
S2140050F09DED0C1B41EC100B1DF0BAFB59EC108B10
S2140051000022002310EE100A494620F0DBFC00289F
S21400511040F0468200226B4B4046494620F060FA3B
S21400512061A3D3E9002320F085FB4246CDE90001C8
S2140051304B46654932A823F049FA5E4803F0EAFB7D
S214005140002840F080815B4803F0E4FB002840F034
S214005150908194F8FC365D49002B40F03E819DED31
S2140051600E0B01200BF000FA59490C904BEC10ABDB
S21400517001200BF0F9F9B0EE490AF0EE690A159035
S214005180524901200BF0F0F91690DDE90E23DDE917
S214005190100120F071F852465B46CDE90E01DDE9BC
S2140051A0120120F069F89DED0E1B41EC100B1DF06E
S2140051B05FFB57EC106B0022002310EE100A3946F6
S2140051C020F080FC002840F0E18100223D4B304674
S2140051D0394620F005FA34A3D3E9002320F02AFB51
S2140051E03246CDE900013B463A4932A823F0EEF9B3
S2140051F0304803F08FFB002840F08D812D4803F0E7
S21400520089FB002840F07B81169B0093CDE904893A
S214005210CDE90267159B0C9A2F4932A823F0D6F9E0
S214005220244803F077FB002840F05181214803F022
S21400523071FB002840F086812378002B00F09181D6
S214005240264B93F80031002B00F0B280244B93F8E5
S2140052500031002B00F0AC800125169B159A0C99A6
S2140052601798009549EC108B0AF082FC002840F055
S214005270C18194F85224D2B2072A19ACCCBF19497E
S2140052801949204623F0A2F90A4803F043FB0028F8
S2140052903FF462AE204623F0B3FB00283FF45CAE3A
S2140052A0044E251825E000BF182D4454FB21094064
S2140052B03CF70200B01D0020E80A00200000002095
S2140052C064F7020000806640ACF702005011002030
S2140052D088110020D0F70200F4F7020070130020B7
S2140052E0001500203CF602007CF60200A5423FF4C2
S2140052F033AE14F8011B304603F036FB0028F5D118
S2140053002AE60D21B44803F02FFB00283FF42AAE0E
S2140053100A21B14803F028FB65B0BDEC048BBDE85C
S214005320F08F0D21AC4803F01FFB00283FF448AE79
S2140053300A21A94803F018FB42E6A84CA64D04F142
S2140053404E0614F8011B284603F00EFB00283FF417
S21400535003AEB442F5D1FFE532A823F051FB002896
S2140053603FF428AE32ABDFF870A21D189B4602E071
S214005370AB453FF41FAE1BF8011B504603F0F4FA92
S2140053800028F5D116E6964BB0EE490AF0EE690A0B
S214005390184617930BF04AF8924B83ED009B29E6CC
S2140053A094F8E036002B40F005818D4B179324E6E9
S2140053B0894803F0AFFA00283FF4CEAD8A4C864DFC
S2140053C004F12E0614F8011B284603F0CDFA002837
S2140053D03FF4C2ADA642F5D1BEE59DED0E0B022010
S2140053E00BF0C2F881490C904BEC10AB02200BF08E
S2140053F0BBF8B0EE490AF0EE690A15907C49022027
S2140054000BF0B2F81690C0E60BF05EF828468DED6D
S214005410100B0BF06DF894F8FD36012B8DED120B8A
S2140054207FF400AEDDE90C01DDE910231FF026FF56
S214005430DDE91223CDE90C0151EC180B1FF01EFF1D
S21400544041EC180BEEE532A823F0DAFA00283FF418
S2140054507AAE32AB604E1D181F4602E0AF423FF4F4
S21400546072AE17F8011B304603F07EFA0028F5D11D
S21400547069E60D21584803F077FA00283FF469AE34
S2140054800A21554803F070FA63E60D21524803F0EE
S2140054906BFA00283FF414AE0A214F4803F064FA72
S2140054A00EE632A823F0ACFA00283FF403AE32AB87
S2140054B0494E1D181F4602E0BD423FF4FBAD17F8EB
S2140054C0011B304603F050FA0028F5D1F2E532A869
S2140054D023F096FA00283FF4A9AE0DF1C80ADFF8CB
S2140054E0F8B00AEB000502E055453FF49FAE1AF807
S2140054F0011B584603F038FA0028F5D196E60D2130
S214005500354803F031FA00283FF47EAE0A213248CF
S21400551003F02AFA78E632A823F072FA00283FF45D
S2140055206DAE32ABDFF8B0B01D189A4602E05545B6
S2140055303FF464AE1AF8011B584603F015FA00282B
S214005540F5D15BE60D21244803F00EFA00283FF45F
S21400555073AE0A21204803F007FA2378002B7FF465
S2140055606FAE1D4803F0D6F900283FF4F5AC1B4C8F
S214005570194D04F14E0614F8011B284603F0F4F901
S21400558000283FF4E9ACA642F5D1E5E430463946BA
S2140055900FA3D3E900231FF071FE06460F4614E65C
S2140055A0404649460AA3D3E900231FF067FE80461B
S2140055B08946AFE594F8FC36002B40F09D80084AFB
S2140055C0084B179293ED000B10460AF02FFF14E5D8
S2140055D0182D4454FB211940B01D0020ECF50200A4
S2140055E0E80A002000000020C4F60200881100200F
S2140055F050110020644803F08DF9002840F0918097
S214005600614803F087F900287FD194F8FE36002B16
S2140056107FF4A8AC32463B464046494620F066FA40
S214005620002800F08A8032463B46404649461FF036
S21400563023FE06460F464CA3D3E9002330463946E0
S21400564020F04AFA40B932463B4649A1D1E900016A
S2140056501FF012FE06460F4653EC192B304639460D
S2140056601FF0BEFF494BD3E90067804689460022FB
S21400567000233046394620F043FA002870D094F8CC
S214005680FC36002B62D132463B464046494620F067
S214005690D1F800223E4B3F4E1FF0A2FF00223E4BA9
S2140056A01FF09EFF34A3D3E900231FF0E7FD20F090
S2140056B06FFAB0F5FA6F38BF4FF4FA60804607F01D
S2140056C047F80027054606E007F06CF807F040F8B4
S2140056D0401B404509D894F8523430463946002BD2
S2140056E0F2D194F8BE35002BEED12378002B3FF490
S2140056F039ACFEF707FF35E4284A244B179293EDA2
S214005700000B10460AF0A4FE77E40D211E4803F0B5
S2140057102BF900283FF479AF0A211B4803F024F93F
S21400572073E76F21184803F01FF900283FF468AFAD
S2140057306B21154803F018F962E7304639464246B1
S2140057404B461FF099FD06460F4674E70CA3D3E9B7
S2140057500023304639461FF043FF02460B4694E7C7
S21400576000260F4F8BE700BF182D4454FB2109403D
S214005770182D4454FB211940000000000070A7407B
S2140057806666666666663940B01D0020000000202A
S21400579000004E40808D5B0000408F40E80A0020ED
S2140057A000002440000000002DE9F04F2DED048B92
S2140057B00178B34FDFB000220023002647290546B4
S2140057C0CDE91223CDE91423CDE91623CDE918231C
S2140057D0CDE91A23CDE91C6719D04D2917D0A94861
S2140057E003F098F8002840F0D480A64803F092F81A
S2140057F040B10D21A34803F0B7F818B10A21A1481B
S21400580003F0B2F85FB0BDEC048BBDE8F08F0FAAD2
S21400581000249D490F94284622F0FEFE2A78002A8E
S214005820F0D0DFF8A0A2A146A04627462646AB4603
S21400583002F0DF02582A40D0592A49D0492A52D0CD
S2140058404A2A5CD0522A66D0462A00F097801BF877
S214005850012F002AECD12B78472B67D04D2BD1D1C6
S2140058600F9BC92B00F02A8200F3E080732B00F018
S214005870EA8140F35F81742B00F00B83C82B40F065
S214005880C782824B1B78002B00F06484804809F0A6
S2140058908FFE7C4803F03EF80028A6D07D4C794E5B
S2140058A004F11E0501E0A5429FD014F8011B304606
S2140058B003F05AF80028F6D197E712AA5846764918
S2140058C022F0AAFE1BF8012F0126002AB0D1C2E75B
S2140058D014AA5846714922F09FFE1BF8012F012793
S2140058E0002AA5D1B7E716AA58466D4922F094FEBD
S2140058F01BF8012F4FF00108002A99D1ABE718AA30
S2140059005846514622F088FE1BF8012F4FF0010939
S214005910002A8DD19FE71AAA5846624922F07CFEDB
S2140059201BF8012F0124002A82D194E70F9B142B29
S21400593000F007823CDC012B00F0F68140F3E180AA
S214005940022B00F0D981032B40F0EC82002E00F0F1
S2140059504D83002F00F04A83B8F1000F41F02981F3
S214005960B9F1000F01F0DC82002C01F029814E48CD
S214005970FEF7AAFD4D48FEF7A7FD43E71CAA5846CA
S2140059804B4922F049FE1BF8012F002A7FF450AF46
S21400599061E7484C3B4D04F1160614F8011B2846F7
S2140059A002F0E2FF00283FF420AFA642F5D11CE744
S2140059B05A2B00F0DF8140F387805B2B00F0D88203
S2140059C05C2B40F0AF82314C2378002B00F03C83F8
S2140059D0002E40F0FC87002F01F08F8294F8FC36F2
S2140059E0002B41F0F580D4F8DC55334901209DEDBD
S2140059F0140B0AF0B9FD0246254829460AF00EFDAA
S214005A00204802F087FF00283FF4EFAE2B4C1D4ED7
S214005A1004F11C0502E0A5423FF4E7AE14F8011BB2
S214005A20304602F0A1FF0028F5D1DEE6CB2B00F0D1
S214005A30B982C0F2BB80B3F5FA7F00F00F8240F265
S214005A40F512934240F0E481104C0E482378002B68
S214005A5040F00E8502F05EFF00283FF4C6AE184CFC
S214005A60084E04F11D0502E0A5423FF4BEAE14F850
S214005A70011B304602F078FF0028F5D1B5E600BFDE
S214005A800000F0BFB01D00204CF80200E00A002025
S214005A90E80A002028FA020058F8020060F802001F
S214005AA068F8020078F8020008F90200C0F8020060
S214005AB080F8020050FD020088110020C4F90200A0
S214005AC0A4F9020070F80200152B40F02B82BA4BA6
S214005AD0BA48012283F8FC2602F01CFF00283FF497
S214005AE084AEB74CB54E04F1120502E0A5423FF471
S214005AF07CAE14F8011B304602F036FF0028F5D1C4
S214005B0073E6002B40F00E82AC4802F003FF00283C
S214005B103FF46BAEAB4CA94E04F11C0502E0A54267
S214005B203FF463AE14F8011B304602F01DFF002858
S214005B30F5D15AE6722B40F06B819F4B1A78002AFB
S214005B4000F0828293F8FC369F48002B40F03487A2
S214005B500AF092FC53EC102B9B48CDE908230AF080
S214005B609FFC2CAB18460C938DED000BDDE908234B
S214005B70964922F02BFD914802F0CCFE00283FF417
S214005B8034AE0C9C204622F03BFF00283FF42DAE9E
S214005B908A4E251802E0A5423FF427AE14F8011BF2
S214005BA0304602F0E1FE0028F5D11EE601218848C5
S214005BB0814C01F029FF0121864801F025FF257858
S214005BC0002D40F060828448002106F0EBFD814AFB
S214005BD07F4904F1080009F0BFFC002800F00F8799
S214005BE02046012300F8083B9FED6F1B02229FED25
S214005BF0700B4FF448710AF0A9FB9FED6B1B022255
S214005C004FF448719FED6A0B04F108000AF0D2FBCE
S214005C10724B04F1080093ED000B0AF019FC41F2F8
S214005C2088326F4BC4F8F02504F108002A4629464E
S214005C30C4F8F4350AF0F2FB6A48FEF745FC6A48F9
S214005C40FEF742FCDEE55C4C2378002B00F0328247
S214005C5094F8FCE694F8FD666448654F6549664D21
S214005C6094F8BE2594F85234BEF1000F08BF3846AB
S214005C70002E08BF29462CAC8DE8030020465F495D
S214005C800C9422F0A3FC4D4802F044FE00283FF49A
S214005C90ACAD0C9C204622F0B3FE00283FF4A5AD28
S214005CA0464E251802E0A5423FF49FAD14F8011BAE
S214005CB0304602F059FE0028F5D196E53E480378B6
S214005CC0002B00F00C82083009F0D2FC3B4802F0B2
S214005CD021FE00283FF489AD494C384E04F12605D4
S214005CE002E0A5423FF481AD14F8011B304602F0F5
S214005CF03BFE0028F5D178E5002E00F08E81002FBF
S214005D0000F08B81B8F1000F41F01880B9F1000F58
S214005D1001F01C82002C01F018803A48FEF7D4FBF4
S214005D203148FEF7D1FB6DE516B9002F00F0FE876F
S214005D309DED1C2B9DED141B9DED120BFEF7E0FE5A
S214005D4060E51D4B1D4883F8FC2602F0E3FD0028A5
S214005D503FF44BAD2C4C194E04F10D0502E0A54264
S214005D603FF443AD14F8011B304602F0FDFD002859
S214005D70F5D13AE5104B114883F8FD2602F0CAFD2E
S214005D8000283FF432AD214C0C4E04F1150502E01C
S214005D90A5423FF42AAD14F8011B304602F0E4FD9C
S214005DA00028F5D121E500BF000000000000F03F0C
S214005DB00000000000001440E00A0020B01D002093
S214005DC05CF9020088F80200E80A0020DCF5020010
S214005DD07013002000150020001BB70000000020F4
S214005DE0084C010070FA0200C0F8020040F80200F9
S214005DF038F8020048F8020044F80200F8FA0200F8
S214005E0048FA0200C4F802004CF9020070F90200D9
S214005E10B84802F07FFD002840F0A0850F9AB649EA
S214005E202CA822F0D3FBB34802F074FD00283FF400
S214005E30DCAC2CA822F0E4FD00283FF4D6AC2CAC59
S214005E40AC4E251802E0A5423FF4CFAC14F8011B77
S214005E50304602F089FD0028F5D1C6E4A74C237829
S214005E60002B40F08E81A34802F054FD00283FF43A
S214005E70BCACA34C9F4E04F11D0502E0A5423FF4C6
S214005E80B4AC14F8011B304602F06EFD0028F5D1C4
S214005E90ABE49A4C2378002B00F0DE801FAB11AAEF
S214005EA010A904F108000AF037FB94F8FC36054602
S214005EB0002B40F0AC8504F108000AF0DDFA04F18E
S214005EC00800B0EE408AF0EE608A0AF0E9FA119A0D
S214005ED01F9902922CAA10460C920691109B894993
S214005EE08DED008B8DED040B2A4622F06FFB81486A
S214005EF002F010FD00283FF478AC0C9C204622F0FF
S214005F007FFD00283FF471AC7A4E251802E0A542CA
S214005F103FF46BAC14F8011B304602F025FD002858
S214005F20F5D162E4734802F0F5FC002840F02785BE
S214005F300F9A71492CA822F049FB6E4802F0EAFC41
S214005F4000283FF452AC2CA822F05AFD00283FF45B
S214005F504CAC2CAC674E251802E0AC423FF445AC86
S214005F6014F8011B304602F0FFFC0028F5D13CE493
S214005F70624B6048012283F8FD2602F0CBFC002825
S214005F803FF433AC604C5B4E04F1180502E0A542CA
S214005F903FF42BAC14F8011B304602F0E5FC002859
S214005FA0F5D122E455480378002B40F023850021E4
S214005FB0564801F029FD5648002101F025FD4D48C0
S214005FC002F0A8FC00283FF410AC524C494D04F1F6
S214005FD00F0602E0A6423FF408AC14F8011B284660
S214005FE002F0C2FC0028F5D1FFF7FFBB414802F0E3
S214005FF091FC00283FF4F9AB474C3E4E04F12605D1
S21400600002E0A5423FF4F1AB14F8011B304602F063
S214006010ABFC0028F5D1FFF7E8BB364802F07AFC67
S21400602000283FF4E2AB3D4C324E04F1260502E078
S214006030A5423FF4DAAB14F8011B304602F094FC9C
S2140060400028F5D1FFF7D1BB2D48FEF73DFA3448BE
S214006050FEF73AFAFFF7D6BB264802F05BFC0028AC
S2140060603FF4C3AB264C234E04F11D0502E0A542C7
S2140060703FF4BBAB14F8011B304602F075FC002859
S214006080F5D1FFF7B2BB1B4802F044FC00283FF4F2
S214006090ACAB244C174E04F10E0502E0A5423FF4CB
S2140060A0A4AB14F8011B304602F05EFC0028F5D1C4
S2140060B0FFF79BBB94F8FC5694F8FD661A481B4CF9
S2140060C01B4B1C4A1C492CAF002D08BF0246002E55
S2140060D008BF234638460C9722F078FAD3E50548E1
S2140060E002F018FC00283FF480AB054C014E04F18A
S2140060F01D0526E0B01D002010FA0200E00A002070
S214006100A4F9020064FB020088F902007013002064
S21400611000150020E8FA020024F90200E0F8020068
S214006120C0F80200D8FA020038F8020044F802006C
S21400613048F8020040F8020030FB0200A5423FF497
S21400614054AB14F8011B304602F00EFC0028F5D1C3
S214006150FFF74BBBBA4802F0DDFB00283FF445AB27
S214006160B84CB74E04F11D0502E0A5423FF43DAB26
S21400617014F8011B304602F0F7FB0028F5D1FFF7B4
S21400618034BBB148FEF7A0F9AD4802F0C3FB0028C7
S21400619040F050860121AD4801F036FCAC480121A4
S2140061A001F032FCA64802F0B5FB002840F00D8650
S2140061B0A34802F0AFFB002840F04485A548002124
S2140061C006F0F0FADDE91C89002200234046494625
S2140061D01FF08CFC002800F07E8694F8FC36002B1E
S2140061E040F06A8449EC108B9B480AF01FF99B4BE1
S2140061F0C3E900892CA8012542464B46984984F8F5
S214006200E05622F0E3F98E4802F084FB002840F0C6
S21400621026858B4802F07EFB002840F04786002249
S2140062208D4811460AF0FAF8854802F073FB0028FC
S21400623040F02B86824802F06DFB002840F018865E
S2140062408848002106F0AEFA01237D4884F8FE3621
S21400625002F060FB002840F0FA85794802F05AFB0D
S214006260002840F0A5859FED683B9FED694BB0EE9A
S214006270431AF0EE631A9FED682B9FED690BFEF74D
S2140062805BFE94F8FC36002B40F0D78342464B4624
S21400629065A1D1E900011FF0CDFA0022724B714EC4
S2140062A01FF09EF90022714B1FF09AF960A3D3E904
S2140062B000231EF0E3FF1FF06BFCB0F5FA6F38BF4B
S2140062C04FF4FA60824606F043FA0027054606E0D9
S2140062D006F068FA06F03CFA401B504509D894F8D8
S2140062E0523430463946002BF2D194F8BE35002B96
S2140062F0EED1534802F00EFB002840F04984504887
S21400630002F008FB002840F036842378002B40F08B
S214006310DA854B4802F0FEFA002840F02B85484804
S21400632002F0F8FA002840F036859FED373B9FEDE7
S214006330384BB0EE431AF0EE631AB0EE430AF0EEB6
S214006340630A9FED3D2BFEF7F7FD94F8FC36002B15
S21400635040F0698342464B4633A1D1E900011FF065
S21400636069FA0022404B3F4E1FF03AF900223F4B9D
S2140063701FF036F92EA3D3E900231EF07FFF1FF08F
S21400638007FCB0F5FA6F38BF4FF4FA60804606F0A7
S214006390DFF90027054606E006F004FA06F0D8F90D
S2140063A0401B804509D394F8523430463946002BBA
S2140063B0F2D194F8BE35002BEED1214802F0AAFAAD
S2140063C0002840F02E841E4802F0A4FA002840F070
S2140063D01B842378002B40F07A850023184884F825
S2140063E0FE3602F097FA002840F0FD83144802F0CB
S2140063F091FA002840F0D4822378002B3FF402AABA
S214006400FEF780F8FFF7FEB900000000000000006D
S214006410000000000000F0BF000000000000004088
S2140064200000000000001040182D4454FB211940C5
S214006430000000000070A74000000000000000C040
S214006440B01D0020A4F90200A4FB02007013002077
S21400645000150020001BB700E80A002000000020FE
S214006460C8FB0200808D5B0000004E4000408F405D
S21400647002F050FA002840F04884934802F04AFAA6
S214006480002840F035840121904801F0BDFA90487C
S214006490012101F0B9FA8C4802F03CFA002840F0DD
S2140064A01684894802F036FA002840F003848948AA
S2140064B0002106F077F906F04BF9874B002800F02C
S2140064C02183984698609DED1C7B0022002351ECAA
S2140064D0170B8DED0A7B1FF009FB002800F01A85CC
S2140064E094F8FC36002B40F0FA82DDE90A567B4B26
S2140064F00D93184646EC105B09F098FF4346C3E937
S21400650000561FA80125DDE90A23754984F8E056E0
S21400651022F05CF86C4802F0FDF9002840F0B583E4
S214006520694802F0F7F9002840F01784012384F840
S214006530FE362CAA0023644D0C929A46C346DBF81E
S2140065400860684A684B43F2390702FB0676C6F3D2
S2140065500E42A3FB02135B0803EB4303D31A012B83
S214006560CBF8086000F0D581022B5E4B03FB067665
S21400657040F0AD81DFF88C81C6F30E40A8FB002307
S2140065805B0B42F2107909FB13001EF0B3FF0022EA
S214006590564B1FF025F846A3D3E900231FF04AF90F
S2140065A00022534B1EF068FE4E4B03FB0676CDE9E9
S2140065B00801C6F30E40A8FB00235B0BCBF808606F
S2140065C009FB13001EF096FF0022484B1FF008F848
S2140065D037A3D3E900231FF02DF90022444B1EF009
S2140065E04BFE9DED087B06460F460AF1010ACDE9F3
S2140065F002678DED007B52460A233E490C9821F037
S214006600E5FF284602F086F9002840F03D8128463E
S21400661002F080F9002840F04E81DDE908899FED00
S214006620262B49EC108B47EC116BFEF769FA4246B5
S2140066304B46404649461EF0D3FF324680468946C2
S2140066403B46304639461EF0CBFF0B4602464946CF
S21400665040461EF013FE41EC100B1CF071F994F846
S214006660FC36002B40F00081DDE90A2351EC100BCC
S2140066701FF0E0F80022204B204E1EF0B1FF002253
S2140066801F4B1EF0ADFF0EA3D3E900231EF0F6FD50
S2140066901FF07EFAB0F5FA6F38BF4FF4FA60814605
S2140066A006F056F80027804636E000BFAFF30080BD
S2140066B0000000000088C340000000000000F0BF9B
S2140066C0000000000070A740B01D002070130020DE
S2140066D000150020001BB70000000020E80A00207C
S2140066E0C8FB02006D4EC641ABAAAAAA0000344001
S2140066F000002440D4FC020000004E40808D5B0069
S21400670000408F405917B7D106F04CF806F020F835
S214006710A0EB0800484509D894F85234304639466C
S214006720002BF1D194F8BE35002BEDD1D2480021D4
S21400673006F038F8BAF10A0F7FF401AFCF4802F03E
S214006740E9F8002840F00782CC4802F0E3F8002879
S21400675040F0F5810D9D94F8FC362846002B40F05D
S214006760E08109F089FE2846B0EE409AF0EE609A85
S21400677009F096FEB0EE408AF0EE608A53EC192BD4
S21400678019EE100A19461EF02BFF53EC182B06467E
S2140067900F4618EE100A19461EF022FF0B46024658
S2140067A0394630461EF06AFD41EC100B1CF0C8F866
S2140067B09FEDA71B57EC106BB0EE410AF0EE610A96
S2140067C09FEDA52BFEF79CF994F8FC36002B40F0C5
S2140067D09E81DDE90A23304639461FF02BF8002259
S2140067E0A74BA84E1EF0FCFE0022A74B1EF0F8FE9C
S2140067F09BA3D3E900231EF041FD1FF0C9F9B0F5B5
S214006800FA6F38BF4FF4FA60804605F0A1FF002704
S214006810054606E005F0C6FF05F09AFF401B40451A
S21400682009D894F8523430463946002BF2D194F801
S214006830BE35002BEED10023904884F8FE3602F0D9
S21400684069F800283FF4D2AD904D8C4F05F12B0629
S21400685002E0AE423FF4CAAD15F8011B384602F01E
S21400686083F80028F5D1C1E57FA3D3E90023DDE94D
S2140068700A018DED080B1EF0B3FE9DED080B0246D7
S2140068800B4651EC100BF3E6DDF83080404622F064
S214006890B7F800283FF4BBAE42469146804402E07B
S2140068A0C1453FF4B4AE19F8011B284602F05CF867
S2140068B00028F5D1ABE60D21284602F055F8002851
S2140068C03FF4ABAE0A21284602F04EF8A5E6704B20
S2140068D0CBF80860C6F30E46A3FB06235B0B42F21A
S2140068E0107000FB13601EF005FE0022694B1EF0C0
S2140068F077FE5FA3D3E900231EF09CFF0022664BC1
S2140069001EF0BAFC0026CDE90801002741EC170B63
S2140069106BE6624B03FB06765D4BCBF80860C6F36E
S2140069200E46A3FB06235B0B42F2107000FB1360BF
S2140069301EF0E0FD0022574B1EF052FE4CA3D3E99A
S21400694000231EF077FF0022534B1EF095FC9FEDB0
S214006950407B06460F468DED087B46E6504C474D7D
S21400696004F1110602E0A6423FF458AA14F8011BEF
S214006970284601F0F9FF0028F5D1FFF74FBA494C39
S2140069803E4E04F1110502E0AC423FF4D1AA14F8E1
S214006990011B304601F0E8FF0028F5D1FFF7C8BA22
S2140069A00D21364801F0E0FF00283FF425AD0A210E
S2140069B0324801F0D9FF1FE509F086FD53EC102B95
S2140069C03948CDE9082309F093FDFFF7CAB894F8D3
S2140069D0FC36002B00F08582344902209DED120B18
S2140069E009F0C2FD0546002F40F0F480D4F8E025FB
S2140069F0FFF702B8083008F0DBFDFFF7D8BA2C48DE
S214006A00FDF762FD2B48FDF75FFDFEF7FBBE26484F
S214006A1009F05AFD2448B0EE408AF0EE608A09F08C
S214006A2067FDFFF754BA10A3D3E900234046494652
S214006A301EF0D6FD02460B468EE40BA3D3E90023D8
S214006A40404649461EF0CCFD02460B4620E400BFF9
S214006A500000000000000000000000000000F0BF82
S214006A60000000000070A7406666666666663940ED
S214006A70000000000088C340001BB700B01D0020C7
S214006A8000004E40808D5B0000408F4010FD0200ED
S214006A905917B7D100003440000024406D4EC6415F
S214006AA03CFD020014FA0200E80A00205011002003
S214006AB090FA0200C0F80200C7A3D3E900234046BC
S214006AC049461EF08DFD06460F4647EC106BC4483F
S214006AD009F0BEFCC34BC3E90067FFF78BBBBEA340
S214006AE0D3E90023DDE90A011EF07AFDBC4B0D93C5
S214006AF006460F4647EC106B184609F0A9FCC8E995
S214006B000067FEE41A46984601239360DBE4B2A3CE
S214006B10D3E90023DDE90A011EF062FD02460B46BA
S214006B2059E609F0D1FC2846B0EE409AF0EE609A9D
S214006B3009F0DEFCB0EE408AF0EE608A1EE60D211B
S214006B40A94801F011FF00283FF404AE0A21A64828
S214006B5001F00AFFFEE5A54DA34F05F11E0602E073
S214006B60AE423FF4F1AD15F8011B384601F0FCFECD
S214006B700028F5D1E8E50D219B4801F0F5FE002838
S214006B803FF4C3AB0A21984801F0EEFEFFF7BDBB09
S214006B90974D954F05F11B0602E0B5423FF4AFABAB
S214006BA015F8011B384601F0DFFE0028F5D1FFF787
S214006BB0A6BB002C7EF4DBAEB9F1000F40F0D78305
S214006BC08C48FDF781FC8C48FDF77EFCFEF71ABE6C
S214006BD0D4F8DC55894902209DED140B09F0C4FC5D
S214006BE00246FEF709BF864D7F4F05F11F0602E0FD
S214006BF0B5423FF4FBAB15F8011B384601F0B4FE76
S214006C000028F5D1FFF7F2BB0D21774801F0ACFE66
S214006C1000283FF4DEAB0A21734801F0A5FEFFF71B
S214006C20D8BB784D704F05F11B0602E0AE423FF42C
S214006C30CAAB15F8011B384601F096FE0028F5D1C0
S214006C40FFF7C1BB0D21684801F08EFE00283FF417
S214006C50B5AA0A21644801F087FEFFF7AFBA2CA850
S214006C6021F0CEFE00283FF4D4AA2CAD5E4F2E189D
S214006C7002E0AE423FF4CDAA15F8011B384601F0FB
S214006C8073FE0028F5D1FFF7C4BA1FA821F0B8FE9E
S214006C9000283FF445AC1FAD534F2E1802E0AE421D
S214006CA03FF43EAC15F8011B384601F05DFE0028A7
S214006CB0F5D135E40D214C4801F056FE00283FF48E
S214006CC0F6AB0A21484801F04FFEFFF7F0BB4E4DE9
S214006CD0454F05F10E0602E0B5423FF4E2AB15F86B
S214006CE0011B384601F040FE0028F5D1FFF7D9BB5E
S214006CF00D213D4801F038FE00283FF4C4AB0A21C0
S214006D00394801F031FEFFF7BEBB404D364F05F166
S214006D10250602E0B5423FF4B0AB15F8011B384635
S214006D2001F022FE0028F5D1FFF7A7BB3848FDF793
S214006D30CBFB3148FDF7C8FBFEF764BD002C7EF4A4
S214006D40ECAFB9F1000F40F004833248FDF7BCFB0E
S214006D502948FDF7B9FBFEF755BD0D21224801F085
S214006D6003FE00283FF4E2AB0A211F4801F0FCFDB9
S214006D70FFF7DCBB284D1C4F05F12B0602E0B542A1
S214006D803FF4CDAA15F8011B384601F0EDFD0028AA
S214006D90F5D1FFF7C4BA0D21134801F0E5FD002830
S214006DA03FF4C3AA0A21104801F0DEFDFFF7BDBA82
S214006DB00D210D4801F0D8FD00283FF454AA0A2101
S214006DC0094801F0D1FDFFF74EBA0F4D064F05F109
S214006DD00E0626E0AFF30080666666666666394095
S214006DE0E80A002000000020B01D0020F0FC020091
S214006DF028FC020024F90200C0F8020088110020D6
S214006E008CFC020070FC0200D8FA0200ACFC020007
S214006E10A8F80200E0F8020044FC0200AE423FF48C
S214006E20C7A915F8011B384601F09EFD0028F5D1CC
S214006E30FFF7BEB90D21BA4801F096FD00283FF4D1
S214006E40A9A90A21B64801F08FFDFFF7A3B9B54DF1
S214006E50B34F05F1290602E0AE423FF4FEA915F84D
S214006E60011B384601F080FD0028F5D1FFF7F5B983
S214006E700D21AB4801F078FD00283FF4E1A90A2176
S214006E80A74801F071FDFFF7DBB9A74DA44F05F148
S214006E90160602E0AE423FF4CDA915F8011B3846AF
S214006EA001F062FD0028F5D1FFF7C4B90D219C481A
S214006EB001F05AFD00283FF4B2A90A21984801F0D3
S214006EC053FDFFF7ACB9FDF71DFBFFF722BAFDF740
S214006ED019FBFFF782BA4FF00008DFF86C92FFF755
S214006EE07CB9924901209DED120B09F03DFB054649
S214006EF0002F3FF47BADFEF778BD3A4639468C4806
S214006F0009F08CFA8B48FDF7DFFA8B48FDF7DCFAC0
S214006F10FEF778BC9FED7E7B8DED0A7BFFF7E0BA2F
S214006F20002C3FF44DAE854C94F8FC36002B40F018
S214006F30E48004F1080318460D9309F09DFA5BEC13
S214006F4010AB94F8FC360D98002B40F0D18009F079
S214006F50A7FA57EC106B94F8FD36002B00F0C380B0
S214006F60DDE91223504659461EF088F9DDE9142360
S214006F7004460D46304639461EF080F9804689465E
S214006F8052465B46204629461EF076F932463B4678
S214006F9004460D46404649461EF06EF90022064657
S214006FA00F460023204629461EF082FD40B10022EF
S214006FB00023304639461EF07BFD002840F0B9819C
S214006FC047EC116BDDE91AAB45EC104B1BF052FC9D
S214006FD000225B4BB0EE408AF0EE608A504659467F
S214006FE01EF0FEFA52465B461EF0FAFA224680462D
S214006FF089462B46204629461EF0F2FA02460B46E4
S214007000404649461EF038F93246804689463B4699
S214007010304639461EF0E4FA02460B4640464946DC
S2140070201EF02AF93CA3D3E90023804689461EF0C9
S21400703049FD002840F07D81002200234046494655
S2140070401EF040FD18B14FF000084FF0000949EC63
S214007050108B1BF075FC53EC102B10EE100A03F18E
S214007060004153EC182B1EF0E5FB002280468946B3
S2140070700023504659461EF025FD10B909F100437D
S214007080994642464B46204629461EF0A9FA324605
S2140070903B461EF0F3F800222A4B1EF0A1FA4246A9
S2140070A0CDE908014B46304639461EF099FA0246AD
S2140070B00B46204629461EF0DFF80022214B1EF024
S2140070C08FFA9DED1C8B9DED083BB0EE484AF0EE26
S2140070D0684A41EC120B9DED141B9DED120BFDF75B
S2140070E06BFAFEF78FBBDDE91245DDE9148947E749
S2140070F009F0FEF957EC106B2DE704F1080318466B
S2140071000D9309F0E1F95BEC10AB1AE7AFF30080E2
S2140071100000000000002440FCA9F1D24D6250BFE0
S214007120B01D0020FCFB0200E4FB02005011002012
S214007130E80A0020E4F90200C0F80200E00A002095
S214007140000010400000E03F00002440002C3FF408
S214007150FCAD934C94F8FC36002B40F0E18004F133
S214007160080318460D9309F087F95BEC10AB94F80A
S214007170FC360D98002B40F0CE8009F091F957ECC4
S214007180106B94F8FD36002B00F0C080DDE912236A
S214007190504659461EF072F8DDE9142304460D46A3
S2140071A0304639461EF06AF88046894652465B46A7
S2140071B0204629461EF060F832463B4604460D46F9
S2140071C0404649461EF058F8002206460F46002361
S2140071D0204629461EF06CFC40B1002200233046B3
S2140071E039461EF065FC002840F0AB8047EC116B7A
S2140071F0DDE91AAB45EC104B1BF03CFB0022694B5B
S214007200B0EE408AF0EE608A504659461EF0E8F925
S21400721052465B461EF0E4F92246804689462B46D7
S214007220204629461EF0DCF902460B4640464946F3
S2140072301EF022F83246804689463B46304639469E
S2140072401EF0CEF902460B46404649461EF014F89C
S21400725051A3D3E90023804689461EF033FC00285C
S2140072606FD100220023404649461EF02BFC18B181
S2140072704FF000084FF0000949EC108B1BF060FB44
S21400728053EC102B10EE100A03F1004153EC182BB0
S2140072901EF0D0FA00228046894600235046594602
S2140072A01EF010FC002870D142464B462046294668
S2140072B01EF096F932463B461DF0E0FF00223A4BA0
S2140072C01EF08EF94246CDE908014B463046394657
S2140072D01EF086F902460B46204629461DF0CCFFD6
S2140072E00022314B1EF07CF99DED1C8B9DED083B7A
S2140072F0B0EE484AF0EE684A41EC120B9DED141BC6
S2140073009DED120BFDF718FEFEF77CBADDE912457F
S214007310DDE914894AE709F0EBF857EC106B30E723
S21400732004F1080318460D9309F0CEF85BEC10AB99
S2140073301DE71E48FDF7C8F81D48FDF7C5F8FEF71F
S21400734061BA1C48FDF7C0F81948FDF7BDF8FEF70E
S21400735059BA9DED1C4B9DED183B9DED162B9DEDF2
S214007360141B9DED120BFDF7E7FDFEF74BBA9DEDE6
S2140073701C4B9DED183B9DED162B9DED141B9DEDB6
S214007380120BFDF719F9FEF73DBA09F100439946CD
S2140073908AE700BFAFF30080FCA9F1D24D6250BF70
S2140073A0E00A0020000010400000E03F98FD0200C8
S2140073B0C0F8020068FD02002DE9F0433F48C1B066
S2140073C0002105F0EFF9FCF787FFFDF763F83C486E
S2140073D0002105F0E7F93B4801F09CFA00285CD153
S2140073E0394DDFF8E080DFF8F490384E00270FE0E4
S2140073F00D2814D0B5F8F436FE2B25DCEA18013338
S21400740082F80007A5F8F4363046394605F0CAF982
S214007410404601F09DFA431CF6D00A28E8D1B5F89C
S214007420F436002BF0D02B44002483F8004795F860
S21400743000379BB94FF480720021484620F026FEA4
S2140074400023A5F8F436DFE7002319464FF48072D0
S2140074504846A5F8F43620F019FED5E7FF2249463F
S214007460684621F08DFB68468DF8FF4021F0C8FA8B
S2140074700CE01DF80320A2F16101192905D8203A75
S21400748068460DF8032021F0BBFA0134A3B29842F7
S214007490EFD86846FEF788F9CCE70D480A4DFDF7A9
S2140074A013F80C48FDF710F82B78002B99D10A48F2
S2140074B0FDF70AF80748FDF707F892E700879303F9
S2140074C000366E01B01D0020E00A0020C0D4010086
S2140074D0C8FD0200C0F80200E8FD0200E01100202E
S2140074E0406820B14B68C01AB0FA80F04009704777
S2140074F0F8B5436833B11E6826B11AB111B11B7ACC
S214007500042B02D000242046F8BDB6F8644094420E
S21400751028BF14460546A2B23046012312F010FCDE
S2140075200028EFD16B68186812F024FF0028E9D114
S21400753005F00EF96B681B68B3F86630032B064639
S214007540E1DD084F08E0386805F05EFF6B681B68F1
S214007550B3F86630032BD6DD05F0FAF8801B042856
S214007560F1D9D0E720250020044A02604FF4FA61E2
S2140075700022018142608272704700BF2CFE02002A
S2140075800020704790F91800704700BF062070472B
S2140075900120704790F81401704700BF807970474B
S2140075A038B583798B4200F0A780A1F109030D4618
S2140075B00446032B00F2A280DFE803F07A46460278
S2140075C0303007F07BF872B6D4F8B40003680022B7
S2140075D0A4F810213BB1D4F8C410D4F8C0200B682E
S2140075E01340FCD10360D4F8BC0003680022A4F862
S2140075F012213BB1D4F8CC10D4F8C8200B68134045
S214007600FCD10360D4F8A4103D4A91F90130897882
S21400761002EBC3130B440C2093F8401041F0010119
S21400762083F84010D4F8A81091F90130897802EB5D
S214007630C3130B4493F8402042F0010283F8402025
S214007640A07162B6012038BD303007F037F872B648
S214007650D4F8BC0003680022A4F812213BB1D4F889
S214007660CC10D4F8C8200B681340FCD10360D4F8C3
S214007670A410234A91F90130897802EBC3130B4416
S21400768093F840106FF3000183F84010D4F8A81068
S21400769091F90130897802EBC3130B4493F840202C
S2140076A042F0010283F84020A57162B6012038BD81
S2140076B0303007F003F8D4F8A410114A91F90130DD
S2140076C0897802EBC3130B44092593F840106FF337
S2140076D0000183F84010D4F8A81091F90130897899
S2140076E002EBC3130B44012093F840206FF3000213
S2140076F083F84020A57138BD012038BD002038BD74
S2140077000080004183790A2B0FD090F83D30A3B15A
S214007710D0F8A430D0F8B02093F90130DB0103F1A3
S214007720824303F500435A61704790F8FC309B078C
S214007730EBD590F83D30002BEAD0D0F8A430D0F846
S214007740B02093F90130DB0103F1824303F50043D7
S2140077509A617047A0F13000D4E700BF2DE9F047EA
S214007760089FBDF82490BDF82880044616468A4631
S2140077703A4600211D460DF0D9F804F1300006F017
S2140077806BFF6A4BC4F8A0A003F13C02C4F8A460E7
S214007790C4F8AC702360C4F8A8502263B278644979
S2140077A0DFF898A1634F012303FA02F2C4F8B02071
S2140077B0AA7884F8D69003FA02F24FF0020C4FF043
S2140077C07D0E0020C4F8B82084F8D7800022A4F8E4
S2140077D0E2C04FF019084FF6FF7CA4F8F8E04FF02F
S2140077E003094FF0FF3E84F8D820A4F8DA20A4F866
S2140077F0DC20A4F8DE20A4F8E02084F8E42084F856
S214007800F52084F8F620A4F8FC2084F8002184F8FB
S2140078100121C4F8F0A084F8F490A4F8D0C0A4F82D
S214007820D2C0A4F8D4C0C4F8E880C4F8ECE0C4F829
S2140078300421C4E94C01C4E95001C4E95401C4E977
S2140078405601C4F80821C4F8102184F8142184F8DD
S2140078501521C4F81821C4F81C21C4F8202184F886
S214007860382184F8482184F86021C4F86421C4F8DB
S2140078706821C4F86C21C4F87021C4F87421C4F8D7
S2140078807821C4F87C2184F8882184F8892184F83A
S2140078908A21C4F88C21C4F80C81C4F82831C4F8B5
S2140078A080E1C4F884E16376337B042B98BF224AD8
S2140078B057F82300767B98BFD25CB6FBF2F102FB4A
S2140078C011624FF48073D2B202F11C0103FA02F285
S2140078D000EB810102F47C520830C4F8B410C4F8FE
S2140078E0C400C4F8C0202A7B687B57F82210042AFC
S2140078F09ABF114B9A5C0022B0FBF2F302FB130313
S214007900DBB24FF4807203F11C0002FA03F301EBC2
S214007910800003F47C530831C4F8BC00C4F8CC10D3
S214007920C4F8C8302046BDE8F08700BF58FE020005
S2140079300000F03F3CFE020034FE0200003C1CC685
S21400794091B1DAB190F864319B0770B50C461646D3
S214007950054602D5303006F0B1FE0123C5F81861A1
S214007960204685F8153170BD80F81511C0F818113D
S214007970C0F81C11C0F8201101207047104670474F
S21400798090F81521002A38D082790A2A70B5044664
S21400799000D070BD90F83D20CB0F81EAE1769A4288
S2140079A00D46A6EBE17604D0026880F83D30136BF6
S2140079B09847A06B636CB042A8BF3046002DB4BF9A
S2140079C0424202461344D4F8BC5063642B68A4F8C1
S2140079D0120186B2B34207D0D4F8CC10D4F8C8202F
S2140079E00B681342FCD12E60002894F8643105DD44
S2140079F043F0020384F8643170BD70476FF34103AF
S214007A0084F86431C5E700BF30B590F87A3183B0AA
S214007A100446002B71D190F8793183F0010394F875
S214007A20002194F801518A4231D094F8140184F868
S214007A300011002284F80121C4F8082158B300215F
S214007A4072B66BB371B340F2E2420123C4F87C21F4
S214007A5084F8793162B6A3790A2B2AD094F8893152
S214007A608B4235D0D4F8A03000293BD1BFF35B8FD2
S214007A702D4ADB4352E8000F184042E80005002D6F
S214007A80F8D1BFF35B8F84F8891103B030BD94F84A
S214007A901421002A33D10029D1D072B6002BD1D1BF
S214007AA00029D7D1002384F87A3162B6A3790A2B4D
S214007AB0D4D119B994F864319A0728D494F8FC30D4
S214007AC0DB0794F8893148BF81F001018B42C9D1A8
S214007AD0002DD8D094F80131002BD4D1D4F8A030A2
S214007AE00029C3D0BFF35B8F0F4A52E8000F18433C
S214007AF042E80005002DC4D0F7E700238FE70022F8
S214007B0084F8001184F80121C4F8082197E794F856
S214007B107431019143F0100384F8743104F130009D
S214007B2006F0CCFD0199C9E7F423002090F87831DF
S214007B30002B4AD0354A90F80131126800B5126918
S214007B408BB990F88A31012B22D0022B3BD190F8CA
S214007B50F430002B45D1D0F88C31002B3CD180F886
S214007B608A315DF804FBD0F80431D0F80C11D31A32
S214007B708B422BD3D0F80831C0F80421013BC0F863
S214007B8008314BB980F8013190F88A31012BDCD1ED
S214007B90022380F88A31DAE71D4BD0F8A020BFF325
S214007BA05B8F53E8001F514043E8001EBEF1000FF4
S214007BB0F7D1BFF35B8F90F88A31012BC5D190F8CF
S214007BC00131002BE4D05DF804FB704790F88A3151
S214007BD0022BBCD05DF804FB013BC0F88C315DF88D
S214007BE004FB002200F5BA73BFF35B8F53E8001F57
S214007BF021F0200143E8001EBEF1000FF6D1BFF3CE
S214007C005B8F80F88A215DF804FB00BF14250020F6
S214007C10F423002090F87A3170B5044680F81411E9
S214007C20002B63D190F8793183F0010394F8016159
S214007C3039BB94F8005172B65BB365B340F2E242CA
S214007C400123C4F87C2184F8793162B6A3790A2B23
S214007C5028D094F88931AB4233D0D4F8A030002D28
S214007C6039D1BFF35B8F284ADB4352E8001F194027
S214007C7042E800100028F8D1BFF35B8F84F88951E2
S214007C8070BD002584F80151C4F8085172B6002B67
S214007C90D3D1002DD9D1002384F87A3162B6A379E6
S214007CA00A2BD6D11DB994F864319A0720D494F8DB
S214007CB0FC30DB0794F8893148BF85F00105AB42FC
S214007CC0CBD1002EDAD094F80131002BD6D1D4F8DF
S214007CD0A030002DC5D0BFF35B8F0B4A52E8001FC3
S214007CE0194342E800100028C6D0F7E700239DE7B6
S214007CF094F8743143F0100384F8743104F13000C2
S214007D0006F0DCFCD3E700BFF423002000000000F0
S214007D10F8B590F8783103B9F8BD04460CF056FD76
S214007D20A379984A94F8D6100A2B08BF94F8FC302A
S214007D3052F8217008BFC3F3800694F8D830BD7A95
S214007D4003F1FF3318BF0026012BEDB240F2DF80AF
S214007D5094F8283073408C4A84F8F430C4F8F02045
S214007D60B4F9D010481C12D0884803F0D1FE03683E
S214007D709B6805469847092800F0658228460CF05F
S214007D80ABFC011C18BF01212046FFF73DFEB4F9ED
S214007D90D2104A1C16D0A3790A2B39D07B4803F0A0
S214007DA0B7FE03689B6805469847092800F0D08010
S214007DB028460CF091FCA379092B00F0D3800B2BFE
S214007DC000F0D080B4F9D4104B1C21D0A3790A2B34
S214007DD01ED06E4803F09CFE03689B6805469847D5
S214007DE0092800F04C8228460CF076FCA379092B73
S214007DF00ED1D4F8A830D4F8B82093F90130DB01BE
S214007E0003F1824303F50043002800F0CC815A6159
S214007E10B4F980114F1C10D05C4803F079FE03685B
S214007E209B6805469847092800F075812B68284608
S214007E301B689847042800F06E81B4F984114E1C24
S214007E4015D0524803F064FE03689B6805469847C1
S214007E50092800F0EE8128460CF03EFC94F84030ED
S214007E60B0FA80F0400960F3C30384F84030B4F9F8
S214007E7082114D1C15D0454803F04AFE03689B68E6
S214007E8005469847092800F0D98128460CF024FCBE
S214007E9094F84030B0FA80F0400960F3041384F898
S214007EA04030B4F98611D4F86451D4F87461481C93
S214007EB000F02A81354803F02BFE03689B680746CE
S214007EC09847092800F0D38138460CF005FCB0FA34
S214007ED080F77F0994F83C30002B40F0298184F825
S214007EE0883194F83E1067F31045002952D194F873
S214007EF0642192074ED594F83D0094F8402000285F
S214007F0000F04A81D70649D546F0040646E0AA079F
S214007F1000F074813323BB72B4F8E230012293FA86
S214007F2012F39AB2003218BF0122A4F8E23084F8A5
S214007F307B21EB0600F16B8194F87B31002B40F03F
S214007F400781D4F8E83003EB8303A4F8F83007E79A
S214007F500F4BB4F9D21018680DF014FCA379092B56
S214007F607FF42DAFD4F8A430D4F8B02093F90130C4
S214007F70DB0103F1824303F50043002800F0118182
S214007F805A611FE7A0FE0200003C1CC6FC2200202F
S214007F902C28002094F83D0094F84020C2F3C00737
S214007FA067F38E35C2F3001294F8017162F3CF3591
S214007FB067F34D3560F3C305002B00F0A380981FD0
S214007FC018BF012094F87A2160F34105002A00F0DA
S214007FD0938094F8F40011B1AF0740F1D7806FF3A7
S214007FE00005032B69D015F0020340F0C680002977
S214007FF063D063F3820594F8793161F3861560F3F4
S214008000C815002B5DD0D4F87C31002B40F32681B8
S21400801062F345150122013B62F38C25C4F87C31DE
S21400802005F002031BB1B30648BF46F00106321C3A
S21400803018BF0122D4F87031C4F8746162F3492580
S214008040C4F8645125EA030304F5B472BFF35B8FEA
S21400805052E8001F194342E800100028F8D1BFF389
S2140080605B8FD4F87021BFF35B8F04F5B67322EAFA
S214008070050553E8002F2A4343E800210029F8D1DC
S214008080BFF35B8FA379D4F86421C4F870210A2B60
S2140080907FF442AE94F81531002B00F09480D4F8AB
S2140080A01801002800F08F80D4F81C319C427FF421
S2140080B033AEBDE8F84007F03FBB031C18BF0123F2
S2140080C097E762F34515002A3AD094F8D83033B9CA
S2140080D038B905F00203042262F38C25A2E70028D3
S2140080E063D015F00203F6D1032262F38C2563F306
S2140080F0041505F0020395E762F3000594F8F40012
S214008100134676E718465DE794F83C3093BB84F850
S21400811088311F46E5E694F8D81081B32B6894F8AA
S214008120F4105B6909B194F87A112846984784E6FA
S21400813007B394F88811002900F0AC800F46D0E60B
S21400814062F38C25AA077FF572AF46F010066AE741
S21400815094F8283094F8F5107340DAB2914200F0A3
S214008160BF80D4F8E83084F8F52003EB8303A4F846
S214008170F830F5E594F88871B3E6002339E794F80B
S214008180F4202B68012A5B69CFD1CCE701287FF465
S21400819026AF45F0010524E7170748BF46F002065C
S2140081A0FCE69A610EE69A6132E6022363F38C25BA
S2140081B045F0100504F1300006F080FA46F020067F
S2140081C005F002032EE704F13005284605F0CEFF41
S2140081D0284606F0EDFAD4F8BC50606B2A68A4F87E
S2140081E0120180B282423FF497ADD4F8CC10D4F896
S2140081F0C8200B681342FCD12860F8BD04F0A8FA2A
S214008200D4F8EC30C01A03283FF684AE91E604F0AA
S2140082109FFAB4F8E230C4F8EC00002B46D03023C6
S214008220BB72002294F87B3184F8F620A4F8E22092
S21400823084E62B6828461B6998470FE62B68284675
S2140082401B69984724E64E4BB4F9D01018680DF019
S21400825099FA01462046FFF7D7FB98E5012200234E
S21400826045F0200584F87A2184F879312DE73B68BB
S21400827038461B699847B0FA80F77F092AE6404BD4
S214008280B4F9D41018680DF07DFAA379092B3FF4E1
S214008290B0ADBDE504F1300006F02AFA012384F8FB
S2140082A0883146F0080694F83C301AE6AD067FF5AD
S2140082B043AEB4F8DC10B4F8E020A4F8DA10A4F862
S2140082C0DE20F88BA4F8DC0094F8F600BD8BA4F84A
S2140082D0E05070B994F87B31012284F8F6202DE640
S2140082E0B4F8F820002A3FF436AD013AA4F8F82096
S2140082F036E507EE901AB8EE677A07EE902AF8EEA3
S214008300677A84F87B31C7EE276A16EE900A1DF06E
S21400831013F917A3D3E900231CF0AEFF16A3D3E985
S21400832000231DF05DF91DF053FC07EE900A1EB108
S2140083309FED147A77EE677A94F8D830C4ED3C7ADD
S214008340022B04D0022384F8F4300023C4E717EE8F
S214008350900A1DF0F1F800220B4B1CF08DFF024630
S2140083600B461CF08BFF1DF033FCC4F8F000E9E769
S2140083709A9999999999A93F721CC7711CC75B4035
S2140083802C2800200000C842000049402DE9F84390
S21400839004460F469046002A54D1456C4D1BED0FFF
S2140083A0D4F87431002B4BD094F8743143F00103A9
S2140083B084F87431002694F8003133B994F87421A7
S2140083C042F010021E4684F87421B4F98611481C47
S2140083D016D0294803F09CFB03689B6881469847A3
S2140083E0092840D048460CF077F9B0FA80F04009EA
S2140083F030B194F8743143F0080384F874310026E1
S21400840094F840306DB1D90626D496B10123424681
S214008410394684F83E3004F13000BDE8F84305F0F4
S21400842021BE1A07F1D594F8743143F0020384F89C
S214008430743194F864319B0706D40020BDE8F883B5
S2140084400126B8E7CD0FABE704F13000002106F0B7
S2140084504FF90020BDE8F88394F8743143F0040324
S21400846084F87431E5E7D9F8003048461B69984728
S214008470B0FA80F04009BBE7FC220020A0F13000F3
S214008480FFF784BFF8B5D0F8743104460E46002BCB
S2140084904AD090F8743143F0010380F87431002517
S2140084A094F8003133B994F8742142F010021D4656
S2140084B084F87421B4F98611481C16D0264803F0B7
S2140084C027FB03689B680746984709283CD0384630
S2140084D00CF002F9B0FA80F0400930B194F874312B
S2140084E043F0080384F874310025002E94F84030D9
S2140084F00CDAD90621D48DB10023314684F83E30FB
S21400850004F13000BDE8F84005F0E6BD1A07F2D5E4
S21400851094F8743143F0020384F8743194F86431AB
S2140085209B0703D40020F8BD0125B9E704F130000D
S214008530002106F0DDF80020F8BD94F8743143F011
S214008540040384F87431E9E73B6838461B699847AA
S214008550B0FA80F04009C0E7FC220020A0F130000D
S214008560FFF790BFF8B5D0F8A430BC4D93F90130B2
S214008570D0F8B02005EBC31304469A61D0F8A830B3
S214008580D0F8B82093F9013005EBC3130E469A6174
S2140085900021FFF739FA314620460CF0B1F8D4F83E
S2140085A0A43093F90120987805EBC212131800271F
S2140085B083F84070D4F8A81091F901308E78DB016A
S2140085C0E9188D1903F1824385F84070D4F8B0504D
S2140085D09560D4F8B8508D6002EB500210F0010F91
S2140085E092F830104FF0050003F5004314BF60F317
S2140085F0071160F3030103EB560382F8301093F87B
S2140086003020F0074FF005014CBF61F3071261F30D
S214008610030283F830202368914A5B68934240F057
S2140086201981A379092B22D004F1300006F046F810
S214008630D4F8A410894B91F90120897803EBC21273
S2140086400A44092092F840106FF3000182F84010A7
S214008650D4F8A82092F90110927803EBC1131344C2
S21400866093F840206FF3000283F84020A071E3687F
S2140086702269DB0103F1824101F5004101EB520161
S21400868003F1824391F8300012F0010503F5004330
S214008690134414BF6FF3071065F3030081F830002E
S2140086A093F840206F4942F0010283F8402094F886
S2140086B0D60051F820301A686FF341021A601A6922
S2140086C09207FCD41A6842F001021A601A6912F086
S2140086D00102FBD11D68644962F305151D601D6823
S2140086E062F314551D601D6862F355551D601D68C4
S2140086F045F480351D601D6845F400351D601D6815
S21400870062F3CB251D601D6862F30A251D601D6897
S21400871045F080051D601D6845F040051D601D681C
S21400872062F383051D60DD88052666F30205DD809D
S214008730DD8845F02005DD80DD8862F30C35DD80C0
S214008740DD8862F34D35DD80DD8862F30825DD8047
S214008750DD8845F01005DD800D7862F341050D706B
S214008760D4F8AC208E68D5780122AA4016438E60D5
S214008770EF088E69BF0007F1804E16430EF5205EA7
S2140087808E6105F00706DEF81CC0B7000426BE4062
S21400879046EA0C06CEF81C60CE6892B262F30F066C
S2140087A0CE600A7842F002020A704A6812F00202AC
S2140087B0FBD194F8D7E02D490EF12B073E4651F831
S2140087C027C062F3861C41F827C051F826205706BA
S2140087D0FBD451F82620254F4FF0060C6CF303020D
S2140087E041F8262051F8262042F0400241F8262083
S2140087F07A6812F0180FFBD11D4A1E4E74300EF127
S21400880001010FFA8EFE42F8201006EBCE02917997
S21400881041F002019171D179C807FCD4123505F0F8
S2140088207F0545F4007546F83E50D1798907FCD49B
S2140088301A6842F002021A601A6912F00202FBD1AC
S2140088400123C4F86421C4F86821C4F86C2184F8B4
S2140088507831F8BD09212046984708E70080004196
S214008860A1750000A0FE020000280040001C004089
S21400887000E0004120E000414FF0FF30704700BFAD
S214008880A1F10200B0FA80F040097047022070475C
S214008890A1F10100B0FA80F040097047A1F108008C
S2140088A0B0FA80F040097047807A7047A0F1040063
S2140088B0FAE700BF807A401AB0FA80F040097047A5
S2140088C0A0F10400F6E700BF08207047A0F10400FE
S2140088D0FAE700BF00207047A0F10400FAE700BFE7
S2140088E01123818183727047A0F10400F8E700BF6E
S2140088F0704700BFA0F10400FAE700BF014B1868FC
S21400890000F05EBEE4120020014B186800F066BE60
S214008910E4120020014B186800F07ABEE412002032
S214008920014B186800F030BEE4120020014B1868B6
S21400893001F004BAE4120020014B186800F01CBED7
S214008940E4120020014B186800F018BEE412002064
S214008950014B186800F07ABEE4120020014B18683C
S21400896000F0A0BFE4120020014B186800F0A6BF7C
S214008970E4120020014B186800F0D4BFE412002077
S214008980014B186800F0D6BFE41200200368044AC2
S2140089901B6B934203D1034B186800F039BE18478F
S2140089A015890000E4120020A0F10400EEE700BFE5
S2140089B008B50368064A1B6B934205D1054B186839
S2140089C000F026FE00B208BD984700B208BD00BF02
S2140089D015890000E4120020A0F10400E8E700BFBB
S2140089E008B5036861B90B4ADB68934205D10A4BA8
S2140089F0186801F0A3F9012008BD9847012008BDBA
S214008A00064A9B689342F8D1034B186800F0BCFDF9
S214008A10012008BD2D890000E412002021890000F5
S214008A20A0F10400DCE700BF30B583B01A4DADF806
S214008A3004009DF804102B6811F00104A3F812013D
S214008A4012D12146204609F087FC2146012009F074
S214008A5083FC09F075FC09F0ADFC0368B3F5966F6E
S214008A6012D0002003B030BD0C49002009F074FC81
S214008A700B49012009F070FC28684021803009F07D
S214008A8037FC002003B030BD0121064803F0FCFA95
S214008A90002003B030BD00BFE4120020A98A000009
S214008AA0E18C0000FC2200202DE9F04F83B072B666
S214008AB08A490B6803F18000C3F81821C3F8140133
S214008AC062B6086872B6D0F80431D0F80021D0F843
S214008AD018419B1A48BF4033002C00F0D680D3F1D3
S214008AE03F0300F0D280D0F80451D0F81421A342FE
S214008AF028BF2346C5F14001994228BF19464619AA
S214008B00002900F0E8802C1D0444171DBE4238BF23
S214008B10A242C0F0CE800B2940F2CB80544214F023
S214008B20030400F0B78017784755012C06F1010CB6
S214008B3002F1010800F0B08057787770022C06F139
S214008B40020C02F1020800F0A7809778B77006F1D1
S214008B50030C032602F103080196A1EB040BABF10C
S214008B600406B6082F1901364FEA8609074414444E
S214008B704FF0000E0EF1010E54F804AB47F804ABAC
S214008B807645F7D8019CCB454C440CEB090708EB1F
S214008B90090E00F0898018F826800CF82680661CDE
S214008BA0B14240F2818002349EF801607E70A1429C
S214008BB07AD99EF80240BC705618D0F81421D0F826
S214008BC018410A44641A5B1AC0F81421C0F8184108
S214008BD064D0311D021D964238BF8842044671D3C8
S214008BE00B2B6FD9724212F003025FD031780170FE
S214008BF0012A00F1010406F1010E58D07178417087
S214008C00022A00F1020406F1020E50D0B1788170FB
S214008C10C41C06F1030E0327A3EB020CACF10401FF
S214008C2089084D1C16444FEA85080244002101318C
S214008C3056F8049B42F8049B8D42F8D8C44507EBCF
S214008C40080204EB08010EEB08060DD01EF825708E
S214008C5004F82570541CA34206D9023274784C706E
S214008C60934201D9B2788A70D0F81421D0F818410E
S214008C70C0F804311A44E41AC0F81421C0F81841A8
S214008C801CB98030402109F033FB62B6012003B0E6
S214008C90BDE8F08FB446904601945EE7294401F0A3
S214008CA03F01C0F80411EBE7561886E7B6461746AC
S214008CB0B2E7741E561812F8017B04F8017FB24220
S214008CC0F9D17AE7421EF41816F8011B02F8011FC4
S214008CD0B442F9D1C8E7164673E700BFE412002095
S214008CE02DE9F04FD84883B0002940F0AB810168E9
S214008CF0D1F808311A4402F03F02C1F808210023D7
S214008D00BFF35B8F81F81031BFF35B8F0468BFF34E
S214008D105B8F4FF0010104F58873D3E84F2FC3E84B
S214008D20401F0028F9D1BFF35B8F12F0FF0F40F011
S214008D30DC80D4F80861D4F80C118E4200F09181E2
S214008D4004F1400202EB060704F1C00EC0F0D18029
S214008D50C6F140031944402928BF40218B4228BF52
S214008D600B46002B00F0A18106F1400506F1440CED
S214008D706019A44404F1C408404538BFE645C0F075
S214008D808A810B2B40F28781404210F0030000F0EE
S214008D906181965D84F8C060012804F1C10C07F17A
S214008DA0010800F059817E7884F8C160022804F139
S214008DB0C20C07F1020800F04F81BE7884F8C2604A
S214008DC0032607F1030804F1C30C0196A3EB000B7E
S214008DD0ABF10406B60805440136C03025442044ED
S214008DE04FEA86090027013755F804AB40F804AB74
S214008DF0B742F8D30198CB4548440CEB090508EB7D
S214008E0009070DD018F826800CF82680461CB342B9
S214008E1006D902307E786E70834201D9B878A87081
S214008E200EEB0300CB1A00F0FC8004F14405061D8F
S214008E30B24238BFA842C0F025810B2B40F22281F7
S214008E40554215F0030500F0098194F840200270A1
S214008E50012D00F1010804F1410200F0008194F8B0
S214008E6041204270022D00F1020804F1420200F097
S214008E70F68094F84220827000F1030804F1430261
S214008E800327A3EB0509A9F10406B60805F1400C73
S214008E9001362844A4444FEA860B4FF0000A0AF134
S214008EA0010A5CF8045B40F8045B5645F7D8D945E0
S214008EB05F4408EB0B0002EB0B0500F0B28012F8E3
S214008EC0262008F826207A1C934240F2AA80023711
S214008ED06A784270BB4240F2A480AB7883707046DA
S214008EE009F01AFA002840F0A280012003B0BDE87D
S214008EF0F08F891B06F1400306F14400402904EB7D
S214008F000308204404F1C40528BF4021A84538BF03
S214008F108645C0F0AD800B2940F2AA80C8F1000853
S214008F2018F0030800F09280925D84F8C020B8F133
S214008F30010F04F1C10507F1010600F089807A7877
S214008F4084F8C120B8F1020F04F1C20507F1020649
S214008F507ED0BA7884F8C220FE1C04F1C3054FF018
S214008F600309434408F1C000E2582250A1EB080868
S214008F70A8F1040223449208013220445F68476047
S214008F80022A4FEA820C35D09F688760032A31D0C8
S214008F90DF68C760042A2DD01F690761052A29D01B
S214008FA05F694761062A25D09F698761072A21D015
S214008FB0DF69C761082A1DD01F6A0762092A19D00F
S214008FC05F6A47620A2A15D09F6A87620B2A11D009
S214008FD0DF6AC7620C2A0DD01F6B07630D2A09D003
S214008FE05F6B47630E2A05D09F6B87630F2A01D0FD
S214008FF0DB6BC363E045E14405EB0C0306EB0C00BA
S2140090000FD016F8226005F8226009F1010291429D
S21400901007D909F1020942785A70494501D9827880
S2140090209A70704609F078F900283FF45EAFBFF3F7
S2140090305B8F002384F810310120BFF35B8F03B0F1
S214009040BDE8F08F01685AE6E41200203E467546F9
S214009050C14686E7B846F4460190B7E680462F46F6
S2140090600FE7BFF35B8F84F81021BFF35B8F3CE7FD
S21400907004F1BF03781817F8012B03F8012F874275
S214009080F9D1CEE70138134412F8015B00F8015F0E
S2140090909A42F9D1C5E704F1BF00FE1817F8015B44
S2140090A000F8015FBE42F9D1BAE67046BAE600BFE4
S2140090B070B5164E346814F0010402D0144B1868CC
S2140090C070BD4FF4907011F0CDFD054600F18003A1
S2140090D0C0F800410F49C5F80441C5F81431C5F879
S2140090E00841C5F81841C5F80C4185F81C4185F8BB
S2140090F01041A5F8124185F81141032009F02CF91A
S214009100034A012315602846336070BDE012002034
S21400911028130020298A00002DE9F041C74AD2F81A
S214009120A8306FF386138CB0C2F8A830D2F8A830F7
S2140091305906FBD4D2F8A830C049042060F30303D4
S214009140C2F8A830D2F8A83043F04003C2F8A830DE
S2140091504B68DB06FCD4BA4BBA491A6942F4806203
S2140091601A619A6942F001029A61A1F1D7000322BE
S21400917009F09EFC0446002800F09C81B24B0FCB01
S2140091808DE80F0003681D0FE8B2C3F3036800F113
S21400919030073730092D88BF07465FFA88F0C3F3DB
S2140091A0035600F1300C3730B8F1090FC8BF8446BB
S2140091B0F0B2C3F303458DF811C000F1300C373020
S2140091C0092EC8BF8446E8B2C3F3033E8DF812C02A
S2140091D000F1300C3730092DC8BF84465FFA8EF098
S2140091E08DF810708DF813C0C3F3032700F1300C10
S2140091F03730BEF1090FD4BFE6468646F8B2C3F351
S21400920003160A468DF814E000F1370E3030092FA9
S214009210CCBF77460746F0B212688DF8157003F09B
S2140092200F0300F137073030092ECCBF3E46064606
S214009230D8B2150F8DF8166000F137063030092BBE
S214009240CCBF33460346E8B2C2F3036C8DF8173042
S21400925000F137033030092D88BF18465FFA8CF3CB
S214009260C2F3035E8DF8180003F137003033BCF10B
S214009270090FCCBF84469C465FFA8EF3C2F30347C1
S2140092808DF819C003F1370C3033BEF1090FD8BF83
S2140092909C46FBB2C2F303368DF81AC003F1370CB6
S2140092A03033092FD8BF9C46F3B2C2F303258DF89E
S2140092B01BC003F1370C3033092ED8BF9C46EBB2E7
S2140092C0C2F3031002998DF81CC003F1370C30333B
S2140092D0092DCCBF65461D46C3B209688DF81D50E2
S2140092E002F00F0203F1370530330928CCBF2846B9
S2140092F01846D3B24FEA117E8DF81E0003F13700F0
S2140093003033C1F30367092ACCBF02461A465FFA18
S2140093108EF5F8B28DF81F2005F137023035C1F30F
S2140093200356BEF1090F88BF154600F137023030EC
S214009330092FC8BF1046F3B203F137028DF821009B
S2140093403033C1F30340092EC8BF1346C2B2C1F37F
S214009350033E02F1370830320928D8BF90465FFA3C
S2140093608EF2C1F303278DF822302046039B8DF83A
S214009370205002F137043032BEF1090FD8BF144630
S214009380FAB21B688DF82440C1F3031602F13704C5
S2140093903032092FCCBF27461746F2B201F00F0134
S2140093A08DF8257002F137073032092ECCBF3E46C5
S2140093B01646CAB21D0F8DF8266002F13706303207
S2140093C00929CCBF31461146EAB2C3F3036C8DF8C7
S2140093D0271002F130013732092D88BF11465FFA97
S2140093E08CF2C3F3035E8DF8281002F13001373299
S2140093F0BCF1090FD4BF8C4694465FFA8EF2C3F3D5
S214009400034402F137013032BEF1090FCCBF8E465D
S2140094109646E1B2C3F303378DF82AE001F1370E22
S2140094203031092CD8BF8E46FAB2C3F303268DF826
S2140094302BE002F1300E373208E000BF001C00407F
S21400944000080040EF000020B4FF0200092FD4BF40
S21400945077461746C3F30315F4B203F00F03DAB2E8
S214009460E9B28DF82C7004F130073734092ED8BFD6
S2140094703C4601F1300E02F1300737313732092D04
S214009480D8BF7146092BD4BF3B4613468DF82E1025
S2140094908DF82F308DF823808DF829C08DF82D405B
S2140094A00DF10F030DF12F0113F8012F20F8022FF5
S2140094B08B42F9D12A4B2B4A2B4F2C4D2C4880211E
S2140094C04FF080764FF0804482F8501382F85113A4
S2140094D082F8521382F853139E609C629F625E610C
S2140094E093F8582002F0FB0283F8582093F858208F
S2140094F002F0FE0242F0010283F8582093F83C2066
S21400950002F0F0024FF0007142F0070283F83C20B0
S21400951099609C629D62596193F8592002F0FB02A3
S21400952083F8592093F8592002F0FE0242F0010217
S21400953083F8592093F83C2002F00F0242F07002A4
S21400954083F83C2009F0FCF908F0B4FE094809F05D
S21400955025FA09F03BFA01200CB0BDE8F08100BF07
S2140095600080004100E100E0000100C0000200C0F1
S214009570E8120020100000200120704708B508F00F
S21400958019FF006808BD00BF38B590F81C3103B15C
S21400959038BD04460125184684F81C51064908F0D3
S2140095A0DBFE2846054908F0D7FE04F1800040217E
S2140095B0BDE8384008F09CBEA98A0000E18C000097
S2140095C003460022C0F80021C0F81821C0F8042184
S2140095D04021803083F8112108F08ABE38B5044651
S2140095E04FF08245D4F80821D4F80C319A4200D1C5
S2140095F038BD08F0D9FE0028FAD094F81231DB07FF
S214009600F6D56B7B03F07F03022BEBD038BD00BF93
S21400961038B5054608F0C8FE044670B195F8124104
S21400962014F0010409D04FF082435C7B04F07F0401
S214009630A4F10204B4FA84F464090348002103F098
S214009640B1F8204638BD00BF804F1200D0F8003178
S214009650D0F80421934200F016812DE9F04F5A1CF1
S21400966002F03F02C45CC0F8002183B072B6D0F8A6
S2140096700431D0F80021D0F818519B1A48BF403367
S214009680002D00F0E380D3F13F0300F0DF80D0F838
S2140096900461D0F81421AB4228BF2B46C6F1400126
S2140096A0994228BF19468719002900F0F880351D11
S2140096B0054402F1040E774538BFAA42C0F0DA80AE
S2140096C00B2940F2D780554215F0030500F0C38001
S2140096D092F800E000F806E0012D07F1010802F11B
S2140096E0010900F0BA8092F801E087F801E0022D47
S2140096F007F1020802F1020900F0AF8092F802E0DA
S21400970087F802E007F10308032702F10309009730
S214009710A1EB050BABF10407BF0806EB050E0137FE
S2140097204FEA870A864415444FF0000C01940CF16A
S214009730010C55F8044B4EF8044B6745F7D8009DCE
S214009740019CD345554408EB0A0E09EB0A0C00F0C1
S2140097508C8019F8279008F827906F1CB94240F2C1
S214009760848002359CF801708EF80170A9427CD97D
S2140097709CF802508EF802505718D0F81421D0F8F2
S21400978018510A446D1A5B1AC0F81421C0F8185113
S21400979065D0011D3A1D904238BF8F42054675D3ED
S2140097A00B2B73D9424212F0030260D03978017055
S2140097B0012A00F1010507F1010E59D079784170B0
S2140097C0022A00F1020507F1020E51D0B978817025
S2140097D0C51C07F1030E4FF00308A3EB020CACF117
S2140097E0040189084E1C17444FEA860902440021EA
S2140097F0013157F804AB42F804AB8E42F8D8CC459A
S21400980008EB090205EB09010EEB09070DD01EF85F
S21400981026E005F826E0551CAB4206D902327D78D4
S2140098204D70934201D9BA788A70D0F81421D0F8D6
S2140098301851C0F804311A44ED1AC0F81421C0F8C3
S21400984018511DB98030402108F052FD62B620B292
S21400985003B0BDE8F08FB8469146009558E731440E
S21400986001F03F01C0F80411EBE7571885E7BE4644
S2140098709046B2E77D1E571812F801EB05F801EF87
S214009880BA42F9D179E74FF0FF307047421EFD1813
S21400989017F8011B02F8011FBD42F9D1C5E71746AC
S2140098A06FE700BFD0F80421D0F800319A421ABF03
S2140098B0D0F80031C05C4FF0FF30704770B50446FA
S2140098C00E464FF0824508F06FFD50B394F8120133
