S01600004752424C436F6D70617469626C652E73726563E7
S2140040000000032089B50000D1420000D142000024
S214004010D1420000D1420000D14200000000000062
S214004020000000000000000000000000D142000078
S214004030D142000000000000D142000025B400007C
S214004040D1420000D1420000D1420000D14200001F
S214004050D1420000D1420000D1420000D14200000F
S214004060D1420000D1420000D1420000D1420000FF
S214004070F9B2000009B3000019B3000029B300002C
S21400408039B3000049B3000059B3000069B300001B
S21400409079B3000089B3000099B30000A9B300000B
S2140040A0B9B30000C5B30000D5B30000E5B3000007
S2140040B0D1420000D1420000D1420000D1420000AF
S2140040C0D1420000D1420000D1420000D14200009F
S2140040D0D1420000D1420000D1420000D14200008F
S2140040E0D1420000D14200000000000000000000A5
S2140040F000000000D14200008DB20000D142000056
S21400410099B20000A5B20000D1420000D1420000E2
S214004110D1420000D1420000B1B20000D1420000FE
S214004120BDB20000C9B20000D1420000D14200007A
S214004130D1420000D1420000D1420000D14200002E
S214004140D1420000D1420000D1420000D14200001E
S214004150D1420000D1420000D1420000D14200000E
S214004160D1420000D1420000D5B20000D14200008A
S214004170E1B20000EDB20000000000000000000008
S214004180617F0100657F0100697F01006D7F01008E
S21400419081B2000079B40000D1420000D142000094
S2140041A0D1420000D1420000D1420000D1420000BE
S2140041B0D1420000D1420000D1420000D1420000AE
S2140041C0D1420000D1420000D1420000D14200009E
S2140041D0D1420000F5B30000D1420000D1420000F9
S2140041E00DB40000D1420000D1420000D1420000D0
S2140041F0D1420000D1420000D1420000D14200006E
S214004200D1420000D1420000D1420000D14200005D
S214004210D1420000D1420000D1420000D14200004D
S214004220D1420000D1420000D1420000D14200003D
S214004230D1420000D1420000D1420000D14200002D
S214004240D1420000D1420000D1420000D14200001D
S214004250D1420000D1420000D1420000D14200000D
S214004260D142000010B5054C237833B9044B13B186
S2140042700448AFF300800123237010BDC00A00205D
S21400428000000000FC0B03000C4B43B10C480D492A
S21400429010B5AFF300800C48036823B910BD0A4878
S2140042A0036833B97047094B002BF7D0BDE81040C0
S2140042B01847064B002BF5D0184700BF000000003B
S2140042C0FC0B0300C40A0020BC0A0020000000000B
S2140042D0FEE700BF000000002DE9F843504B514CAC
S2140042E0186800252DED068B0A222946257008F051
S2140042F0B9FD01214C4802F067FC01214B4802F051
S21400430063FC01264A486670002107F02BFB04F187
S2140043100800464A444909F09BFE30B9BDEC068BBE
S214004320032384F87036BDE8F8839FED378B9FED46
S214004330389BB0EE481AF0EE681AB0EE490AF0EE76
S214004340690A02224FF4487104F108000AF06EFD73
S214004350B0EE481AF0EE681AB0EE490AF0EE690AB6
S21400436002224FF4487104F5CF6704F108000AF002
S21400437091FD4FF4487938464FF002089FED26AB82
S21400438087ED029B87ED068BC4F8789684F88886BE
S2140043900BF06AF804F5D663184683ED029B83EDAE
S2140043A0068BC4F8B09684F8C0860BF05DF8B0EEC5
S2140043B04A0AF0EE6A0A04F108000AF0B9FDDFF8CE
S2140043C07C901C4A1C4F84F8E86641F2883304F55A
S2140043D0B9614FF0000882ED00AB9360C1E9008937
S2140043E02A46294604F10800C4F8F035C4F8F475E6
S2140043F00AF084FDBDEC068BC4F8EC56267084F8F3
S2140044007056BDE8F88300BF000000000000F03FD3
S21400441000000000000014400000000000D8A34088
S21400442064250020E00A0020A8130020381500208C
S214004430001BB70000000020084C010000004440AC
S2140044402DE9F04F2DED028B89B00F4607901646EA
S21400445051EC120B53EC102B8DED041B8DED023B33
S2140044608DED004B1EF010FA9DED041B9DED023BFA
S21400447053EC112B82468B4651EC130B1EF004FABC
S2140044800022804689460023504659461EF018FEF4
S21400449040B100220023404649461EF011FE002887
S2140044A040F0888049EC118B4BEC10AB1BF0EAFC1B
S2140044B0DDE90045B0EE408AF0EE608A0022464B09
S2140044C0204629461EF094FB22462B461EF090FB03
S2140044D0524604460D465B46504659461EF088FB3B
S2140044E002460B46204629461EF0CEF942460446B2
S2140044F00D464B46404649461EF07AFB02460B46A2
S214004500204629461EF0C0F931A3D3E9002304460D
S2140045100D461EF0DFFD00284CD100220023204669
S21400452029461EF0D7FD00284AD145EC104B1BF05B
S2140045300FFD53EC102B10EE100A03F1004153EC64
S214004540182B1EF07FFC079B04460D461BB901F195
S214004550004304461D46DDE90001002200231EF04C
S214004560B9FD80BB42464B46204629461EF040FB1E
S21400457002460B46504659461EF086F90022174B57
S2140045801EF036FB5246C7E900015B462046294628
S2140045901EF02EFB42464B461EF078F900220F4BCB
S2140045A01EF026FBC6E90001012009B0BDEC028B17
S2140045B0BDE8F08F002009B0BDEC028BBDE8F08F9F
S2140045C000240025B1E705F100431D46CAE700BFF9
S2140045D0FCA9F1D24D6250BF000010400000E03F41
S2140045E038B51D4C04F1080009F0D4FB1B4B002223
S2140045F004F5CF6504F5D66004F5DE61C5E902234F
S214004600C5E90623C5E90A23C5E90C23C0E9022348
S214004610C0E90623C0E90A23C0E90C23C1E9022346
S214004620C1E90623C1E90A23C1E90C2300230122BC
S214004630C4F87826C4F8B026C4F8F02684F888367D
S21400464084F8983684F8C03684F8D03684F8003774
S21400465084F8103738BD00BFE00A00200000F03FA5
S2140046600F48F8B54FF4E131044603F045FA20460A
S21400467003F036FA07F04CF90A4E002705462046A6
S21400468003F028FA00B1F8BD07F042F9401BB0F578
S214004690FA6F39463046F6D207F064F9EFE700BF06
S2140046A0E81D0020804F120070B5044621F0A8FCDB
S2140046B060B1074E251801E0AC4207D014F8011B84
S2140046C0304603F031FA0028F6D170BD012070BDE7
S2140046D0E81D002070B586B002460D4901A821F0FD
S2140046E069FA01A821F08CFC60B101AC094E2518CE
S2140046F001E0AC4206D014F8011B304603F014FA71
S2140047000028F6D10A21034803F00EFA06B070BD61
S21400471068D20200E81D00202F4991F8703670B567
S214004720013BDBB2052B96BF2C4A2D4E52F8236078
S2140047300B782DED028BBAB0002B41D0294C2A48BD
S214004740237B002B32D00AF02FFC2748B0EE408A9D
S214004750F0EE608A0AF03CFCD4E900450020002117
S214004760CDE904018DED020B8DED008B3246CDE9CF
S214004770064508A81D4921F01DFA08A821F040FCAE
S21400478060B108AC1A4E251801E0AC4206D014F809
S214004790011B304603F0C8F90028F6D10A21144858
S2140047A003F0C2F93AB0BDEC028B70BD0AF0D4FB40
S2140047B00D48B0EE408AF0EE608A0AF0E1FBCBE7E7
S2140047C09FED030B074CB0EE408AF0EE608AC3E71D
S2140047D00000000000000000E00A002050D20200A6
S2140047E074D2020000000020E80A00207CD20200FA
S2140047F0E81D00203F2823D070B509D8182824D0FB
S21400480021281BD1374C94F87036012B57D070BD39
S2140048107E2845D0852812D1324C23781BB194F8D7
S214004820BE35002B58D194F87036013B0022012B80
S21400483084F82927EBD884F8702670BD70BD70BD4B
S214004840284B012283F828277047264C23781BB173
S21400485004F1080009F028FC00236F21224884F8A0
S214004860293784F8703603F05FF918B16B211E48BB
S21400487003F05AF91C481D4C0A21054603F054F96A
S21400488004F1180614F8011B284603F04DF908B188
S214004890B442F7D10A211448BDE8704003F044B989
S2140048A0104B93F87026022AB1D11A78002AAED09F
S2140048B00021012283F8291783F8702670BD22781C
S2140048C0002AA4D004F1080084F8293709F04AFC2D
S2140048D0022384F8703670BD04F1080009F0E4FB8A
S2140048E0A1E700BFE00A0020E81D0020A0D20200D9
S2140048F070B5354C237886B063B36378002B41D00F
S214004900324B1B7B062284F8702603B39FED2A0BDE
S2140049102F480AF00DFB002211462D480AF0EEFA49
S214004920002301226F212B48C4F8EC3684F8703639
S21400493084F82A2703F0F8F818B16B21254803F00D
S214004940F3F80A21234803F0EFF806B070BD9FED98
S2140049501C0BDDE701A809221F4921F02BF901A84D
S21400496021F04EFB0028ECD001AC1A4E251801E0D1
S214004970AC42E6D014F8011B304603F0D5F8002808
S214004980F6D1DEE701A80922134921F013F901A8A0
S21400499021F036FB0028D4D001AC0E4E251801E0DD
S2140049A0AC42CED014F8011B304603F0BDF8002808
S2140049B0F6D1C6E7AFF300800000000000C06F40ED
S2140049C00000000000002440E00A00200000002054
S2140049D0E80A0020E81D002068D202002DE9F04F0A
S2140049E07F4D2DED048B2B7889B0002B7ED06B7815
S2140049F0002B00F0B080B0EE409AF0EE609AB0EE79
S214004A00418AF0EE618A95F82B37012B754B01939E
S214004A1000F08480B0EE490AF0EE690A1B7B72490A
S214004A20002B47D002200AF0E7FAB0EE480AF0EE74
S214004A30680A04466D4902200AF0DEFAD5F8DC352D
S214004A40A342064647D042F21073C5F8F03506F08A
S214004A505FFF674FDFF8A481834641F2883A4FF044
S214004A6000090AE006F054FFA0EB0B00504549464B
S214004A70404600F2888006F075FF324621463846EA
S214004A800AF0AAF80028EDD0019B5A489B68C5F8A2
S214004A90F0356F2103F048F818B16B21554803F044
S214004AA043F80A21534803F03FF809B0BDEC048BE5
S214004AB0BDE8F08F01200AF09FFAB0EE480AF0EE4B
S214004AC0680A0446494901200AF096FAD5F8DC350A
S214004AD0A3420646B7D1D5F8E035B342B3D16F212D
S214004AE0444803F021F80028D7D1DAE703A80922C2
S214004AF0414921F05FF803A821F082FA0028D0D0BF
S214004B0003AC3C4E251801E0A542CAD014F8011BA0
S214004B10304603F009F80028F6D1C2E71B7B05F102
S214004B200800002B4DD10AF017FA51EC190B53EC84
S214004B30102B1DF0ABFE41EC190B05F108000AF036
S214004B401FFA53EC102B51EC180B1DF09FFE019B27
S214004B5041EC180B5EE703A80922274921F02AF842
S214004B6003A821F04DFA00289BD003AC214E25184F
S214004B7001E0A54295D014F8011B304602F0D4FFA0
S214004B800028F6D18DE7019B1B499B68C5F8F035D8
S214004B9003A8182221F00EF803A821F031FA002805
S214004BA03FF47FAF03AC2518124E02E0A5423FF457
S214004BB078AF14F8011B304602F0B6FF0028F5D196
S214004BC06FE70AF0F1F951EC190B53EC102B1DF0BE
S214004BD05DFE41EC190B05F108000AF0F9F9B0E7A3
S214004BE0E00A00200000002058110020901100204C
S214004BF0E80A0020E81D002068D20200C0D40100A8
S214004C002DE9F047924C2DED068B237886B0002BCD
S214004C1000F0A180B0EE40AAF0EE60AAB0EE419A95
S214004C20F0EE619A0022002351EC130BB0EE438A9B
S214004C30F0EE638A1EF062FA00287DD0B0EE480AD5
S214004C40F0EE680A834D2B7B04F10800002B58D049
S214004C500AF06EF985ED008B012384F8E836637858
S214004C60002B00F0AA8094F82B377A4D012B00F029
S214004C708A80B0EE4A0AF0EE6A0A2B7B7649002B51
S214004C8044D101200AF0B8F9B0EE490AF0EE690AFC
S214004C900546724901200AF0AFF9D4F8DC359D428A
S214004CA0064644D006F034FE6D4CDFF8C0818246DE
S214004CB041F288374FF000090AE006F029FEA0EB23
S214004CC00A00B8424946404600F28F8006F04AFE87
S214004CD032462946204609F07FFF0028EDD06F2196
S214004CE0604802F021FF18B16B215E4802F01CFFFD
S214004CF00A215C4802F018FF06B0BDEC068BBDE842
S214004D00F0870AF003F985ED008BA5E702200AF08C
S214004D1073F9B0EE490AF0EE690A05464F490220DB
S214004D200AF06AF9D4F8DC359D420646BAD1D4F8C2
S214004D30E0359E42B6D1D2E794F8E836002B8ED006
S214004D40444D2B7B95ED000B04F10800002B7CD125
S214004D500AF0DCF883E701A80922434920F02AFF7D
S214004D6001A821F04DF90028C2D001AC3D4E25180F
S214004D7001E0A542BCD014F8011B304602F0D4FE78
S214004D800028F6D1B4E72B7B3548002B47D10AF034
S214004D90E3F851EC1A0B53EC102B1DF077FD41ECA9
S214004DA01A0B2F480AF0ECF851EC190B53EC102BA9
S214004DB01DF06CFD41EC190B5BE701A809222A499E
S214004DC020F0F8FE01A821F01BF9002890D001ACD5
S214004DD0244E251801E0A5428AD014F8011B30465F
S214004DE002F0A2FE0028F6D182E701A818221E498A
S214004DF020F0E0FE01A821F003F900283FF478AF88
S214004E0001AC2518174E02E0A5423FF471AF14F826
S214004E10011B304602F088FE0028F5D168E70AF04C
S214004E20C3F851EC1A0B53EC102B1DF02FFD41EC80
S214004E301A0B0B480AF0CCF851EC190B53EC102B5C
S214004E401DF024FD41EC190B13E70AF071F806E794
S214004E50E00A0020000000205811002090110020D9
S214004E60E80A0020E81D002068D20200C0D4010035
S214004E702DE9F04FCA4E2DED088B33788BB0002B02
S214004E8000F03481B0EE40AAF0EE60AAB0EE419A8F
S214004E90F0EE619A0022002351EC150BB0EE458A25
S214004EA0F0EE658A59EC138B5BEC14AB1EF026F91A
S214004EB0002800F00A81B0EE480AF0EE680AB94C05
S214004EC0237B06F10800002B00F0C4800AF030F8BF
S214004ED084ED008B012386F8E8367378002B00F00B
S214004EE03581B04BB0481B7B002B40F0B8800AF0F1
S214004EF033F8AD4855EC104B0AF042F896F82B37CD
S214004F00012B8DED020B00F0B88042464B46204642
S214004F1029461DF0BBFC52465B4606460F46DDE9B9
S214004F2002011DF0B3FC42464B4604460D46404681
S214004F3049461DF05DFE5246804689465B46504611
S214004F4059461DF055FE02460B46404649461DF0A2
S214004F509DFC41EC100B1AF0FBFF0022002351ECE5
S214004F60100BB0EE40BAF0EE60BA1EF0BDF80028A6
S214004F7040F0268132463B4651EC1A0B1DF084FC6D
S214004F8022462B46CDE9020151EC190B1DF07CFCA4
S214004F909DED021B41EC100B1AF072FF002200235D
S214004FA051EC100BB0EE408AF0EE608A1EF092F8DC
S214004FB0002840F0E5807B4B7C491B7B002B6DD1A5
S214004FC047EC106B01200AF017F8794945EC104BB6
S214004FD0804601200AF010F8B0EE4B0AF0EE6B0A9D
S214004FE08146724901200AF007F8824606F090FCD6
S214004FF06D4D704E8346002400270CE006F088FCBA
S21400500041F28833A0EB0B0098423946304600F256
S214005010858006F0A7FCB0EE480AF0EE680A009419
S21400502053464A464146284609F01AFB0028E5D072
S2140050306F21614802F078FD18B16B215E4802F0DE
S21400504073FD0A215C4802F06FFD0BB0BDEC088BC7
S214005050BDE8F08F09F05AFF84ED008B3AE709F0BF
S214005060A3FF514855EC104B09F0B2FF96F82B37CA
S214005070012B8DED020B7FF448AF22462B4651ECF8
S2140050801A0B1DF003FCDDE9022341EC1A0B51EC70
S214005090190B1DF0FBFB41EC190B36E747EC106BC8
S2140050A0022009F0A9FF424945EC104B8046022039
S2140050B009F0A2FFB0EE4B0AF0EE6B0A81463B49C0
S2140050C0022009F099FF824690E796F8E836002B12
S2140050D03FF403AF334B1A7B93ED000B06F1080049
S2140050E0002A40F0878009F011FFF6E605A809229D
S2140050F0324920F05FFD05A820F082FF0028A0D0EE
S21400510005AC2D4E251801E0A5429AD014F8011BD7
S214005110304602F009FD0028F6D192E705A81822CD
S214005120264920F047FD05A820F06AFF002888D011
S21400513005AC2518204E01E0A54282D014F8011BCC
S214005140304602F0F1FC0028F6D17AE705A80922DD
S2140051501A4920F02FFD05A820F052FF00283FF442
S21400516070AF05AC144E251802E0AC423FF469AFB0
S21400517014F8011B304602F0D7FC0028F5D160E792
S21400518051EC180B04A3D3E900231DF07FFB41EC80
S214005190180B10E7AFF30080182D4454FB2119407C
S2140051A0E00A002000000020E80A00205811002035
S2140051B090110020C0D40100E81D002068D2020033
S2140051C005A802220D4920F0F5FC05A820F018FFDE
S2140051D000283FF436AF05AC094E251802E0A5427C
S2140051E03FF42FAF14F8011B304602F09DFC002858
S2140051F0F5D126E709F09CFE6FE600BF68D20200F4
S214005200E81D0020000000002DE9F04FCA4E2DEDED
S214005210088B33788BB0002B00F03481B0EE40AAB8
S214005220F0EE60AAB0EE419AF0EE619A00220023FA
S21400523051EC150BB0EE458AF0EE658A59EC138BEF
S2140052405BEC14AB1DF05AFF002800F00A81B0EEAC
S214005250480AF0EE680AB94C237B06F10800002BDA
S21400526000F0C48009F064FE84ED008B012386F80C
S214005270E8367378002B00F03581B04BB0481B7BC6
S214005280002B40F0B88009F067FEAD4855EC104B97
S21400529009F076FE96F82B37012B8DED020B00F009
S2140052A0B88042464B46204629461DF0EFFA524645
S2140052B05B4606460F46DDE902011DF0E7FA424668
S2140052C04B4604460D46404649461DF091FC524664
S2140052D0804689465B46504659461DF089FC024684
S2140052E00B46404649461DF0D1FA41EC100B1AF029
S2140052F02FFE0022002351EC100BB0EE40BAF0EE69
S21400530060BA1DF0F1FE002840F0268132463B468A
S21400531051EC1A0B1DF0B8FA22462B46CDE90201D5
S21400532051EC190B1DF0B0FA9DED021B41EC100B71
S2140053301AF0A6FD0022002351EC100BB0EE408AB6
S214005340F0EE608A1DF0C6FE002840F0E5807B4B3C
S2140053507C491B7B002B6DD147EC106B012009F0BC
S2140053604BFE794945EC104B8046012009F044FE7F
S214005370B0EE4B0AF0EE6B0A81467249012009F046
S2140053803BFE824606F0C4FA6D4D704E83460124FD
S21400539000270CE006F0BCFA41F28833A0EB0B00C5
S2140053A098423946304600F2858006F0DBFAB0EEC9
S2140053B0480AF0EE680A009453464A464146284694
S2140053C009F04EF90028E5D06F21614802F0ACFBE9
S2140053D018B16B215E4802F0A7FB0A215C4802F078
S2140053E0A3FB0BB0BDEC088BBDE8F08F09F08EFD7B
S2140053F084ED008B3AE709F0D7FD514855EC104B89
S21400540009F0E6FD96F82B37012B8DED020B7FF4A5
S21400541048AF22462B4651EC1A0B1DF037FADDE951
S214005420022341EC1A0B51EC190B1DF02FFA41EC3C
S214005430190B36E747EC106B022009F0DDFD4249F8
S21400544045EC104B8046022009F0D6FDB0EE4B0A24
S214005450F0EE6B0A81463B49022009F0CDFD8246FC
S21400546090E796F8E836002B3FF403AF334B1A7BF1
S21400547093ED000B06F10800002A40F0878009F043
S21400548045FDF6E605A80922324920F093FB05A85B
S21400549020F0B6FD0028A0D005AC2D4E251801E062
S2140054A0A5429AD014F8011B304602F03DFB0028B6
S2140054B0F6D192E705A81822264920F07BFB05A81E
S2140054C020F09EFD002888D005AC2518204E01E06F
S2140054D0A54282D014F8011B304602F025FB0028B6
S2140054E0F6D17AE705A809221A4920F063FB05A839
S2140054F020F086FD00283FF470AF05AC144E25184A
S21400550002E0AC423FF469AF14F8011B304602F0EB
S2140055100BFB0028F5D160E751EC180B04A3D3E988
S21400552000231DF0B3F941EC180B10E7AFF3008031
S214005530182D4454FB211940E00A002000000020EA
S214005540E80A00205811002090110020C0D4010065
S214005550E81D002068D2020005A802220D4920F0AE
S21400556029FB05A820F04CFD00283FF436AF05AC1B
S214005570094E251802E0A5423FF42FAF14F8011B90
S214005580304602F0D1FA0028F5D126E709F0D0FC23
S2140055906FE600BF68D20200E81D00202DE9F04F3C
S2140055A02DED048B01788B4F9DB000220023002642
S2140055B047290546CDE90423CDE90623CDE908238E
S2140055C0CDE90A23CDE90C23CDE90E23CDE912233C
S2140055D0CDE9106720D04D291ED016A814227E498A
S2140055E020F0E8FA16A820F00BFD60B116AC7B4E52
S2140055F0251801E0A54206D014F8011B304602F03B
S21400560093FA0028F6D10A21744802F08DFA1DB0EC
S214005610BDEC048BBDE8F08F1CAA002442F8644D54
S2140056206F49284620F0ECFA012845D12A78002A4E
S214005630EDD00094A246A146A04627462646AB4695
S21400564002F0DF02582A42D0592A00F095805A2AE2
S21400565000F09980492A00F09E804A2A00F0A9802E
S214005660522A00F0AE80462A00F09D80502A34D19F
S21400567012AA5C49584620F0C3FA01242DE05A4C81
S2140056802378002B00F09783002E40F0B283002F83
S21400569000F00B84554B1B7B002B40F0E683D4F8C0
S2140056A0DC55534901209DED060B09F0A5FC02468A
S2140056B05048294609F022FC6F21484802F034FA87
S2140056C00028A0D06B21454802F02EFA9BE704AADA
S2140056D04949584620F094FA01261BF8012F002A63
S2140056E0AED12B78472B00F095804D2B8FD1039BA6
S2140056F01E2B00F26A8101A252F823F0B95900006D
S214005700B9590000CB590000B9560000B956000040
S214005710B9560000CB590000CB590000CB59000009
S214005720CB590000CB590000CB590000CB590000E4
S214005730CB590000CB590000CB590000CB590000D4
S214005740CB590000CB590000CB590000CB590000C4
S214005750CB590000CB590000CB590000CB590000B4
S214005760CB590000CB590000CB590000CB590000A4
S214005770CB5900009959000006AA2049584620F047
S2140057803FFA0127A9E708AA1D49584620F038FA2B
S2140057904FF00108A1E70AAA1A49584620F030FA45
S2140057A04FF0010999E710AA1749584620F028FA41
S2140057B093E70CAA1549584620F022FA4FF0010A42
S2140057C08BE70EAA1249584620F01AFA01230093D6
S2140057D083E700BF0000F0BF68D20200E81D00208B
S2140057E0BCD2020000D30200E00A00200000002025
S2140057F090110020E80A0020C8D20200D0D2020091
S214005800D8D20200E0D20200F8D20200E8D20200AB
S214005810F0D20200039B5C2B00F2648201A252F8D5
S21400582023F000BFA55C0000C35C0000C15B000065
S214005830FD5A0000B35A0000E55C0000E55C00007D
S214005840E55C0000E55C0000E55C0000E55C00004F
S214005850E55C0000E55C0000E55C0000E55C00003F
S214005860E55C0000E55C0000E55C0000E55C00002F
S214005870E55C00009D5A0000875A0000E55C0000C9
S214005880E55C0000E55C0000E55C0000E55C00000F
S214005890E55C0000815A0000E55C0000E55C000065
S2140058A0E55C0000E55C0000E55C0000E55C0000EF
S2140058B0E55C0000E55C0000E55C00002F5A000097
S2140058C0E55C0000E55C0000E55C0000E55C0000CF
S2140058D0E55C0000E55C0000E55C0000E55C0000BF
S2140058E0E55C0000E55C0000E55C0000E55C0000AF
S2140058F0E55C0000E55C0000E55C0000B9560000D1
S214005900B9560000B9560000B9560000B956000056
S214005910B9560000E55C0000E55C0000E55C0000B0
S214005920E55C0000E55C0000E55C0000E55C00006E
S214005930E55C0000E55C0000E55C0000E55C00005E
S214005940E55C0000E55C0000E55C0000E55C00004E
S214005950E55C0000E55C0000E55C0000E55C00003E
S214005960E55C0000E55C0000E55C0000E55C00002E
S214005970E55C0000E55C0000E55C0000E55C00001E
S214005980E55C0000E55C0000E55C0000175A0000DE
S214005990FF5900007F560000BA4C2378002B40F0D9
S2140059A0BB8100236F21B84884F8703602F0BCF83B
S2140059B000287FF487AE26E6B24C2378002BF0D082
S2140059C004F1080008F0CEFBEBE716A80222AF4968
S2140059D020F0F0F816A820F013FB00283FF413AED2
S2140059E016ACA94E251802E0A5423FF40CAE14F8FA
S2140059F0011B304602F098F80028F5D103E6A14BCB
S214005A00A14801226F2183F82B2702F08DF8002889
S214005A107FF458AEF7E59B4B9B4800226F2183F836
S214005A202B2702F081F800287FF44CAEEBE526B970
S214005A301FB9B8F1000F00F01382924B1A78002AB3
S214005A4000F0B9815B78914916A80922002B40F036
S214005A50E48120F0AFF816A820F0D2FA00283FF430
S214005A60D2AD16AC884E251802E0A5423FF4CBAD69
S214005A7014F8011B304602F057F80028F5D1C2E5AD
S214005A80FEF736FFC3E5824B7F4801226F211A736B
S214005A9002F04AF800287FF415AEB4E57C4B7A484D
S214005AA000226F211A7302F03FF800287FF40AAE36
S214005AB0A9E5002C00F08381DDE9124500220023D1
S214005AC0204629461DF01AFB002800F07881204663
S214005AD0294600226F4B1DF08BF800226E4B1CF0FF
S214005AE0D5FE1DF05DFB4EF6602398426B4A28BF3C
S214005AF01846A0FB020105F035FFDDE5002E00F09C
S214005B004081002F00F03D81B9F1000F40F0B781D1
S214005B10BAF1000F40F0A181009B002B00F0A0819D
S214005B205B4C5F48237B002B40F0D28109F014FACF
S214005B30B0EE408AF0EE608A237B5948002B40F096
S214005B40058209F01DFAB0EE409AF0EE609A4D4BD1
S214005B5093F82B37002B00F0F481DDE9042351EC99
S214005B60180B1CF093FEDDE90623CDE9000151EC8D
S214005B70190B1CF08BFE9DED002B41EC130BB0EEC9
S214005B80491AF0EE691AB0EE480AF0EE680A16AA4C
S214005B9014A900209DED0E4BFEF752FC002800F0E5
S214005BA092819DED105B9DED164B9DED143B9DED9A
S214005BB0082B9DED061B9DED040BFFF759F926E516
S214005BC0002E00F0C480002F00F0C180B9F1000F55
S214005BD040F03B81BAF1000F40F03F81009B002B64
S214005BE000F03E812A4C2E48237B002B40F0A281F9
S214005BF009F0B2F9B0EE408AF0EE608A237B2848BE
S214005C00002B40F0908109F0BBF9B0EE409AF0EE20
S214005C10609A1C4B93F82B37002B00F07F81DDE950
S214005C20042351EC180B1CF031FEDDE90623CDE908
S214005C30000151EC190B1CF029FE9DED002B41ECE8
S214005C40130BB0EE491AF0EE691AB0EE480AF0EE01
S214005C50680A16AA14A901209DED0E4BFEF7F0FB6C
S214005C60002800F030819DED105B9DED164B9DEDFC
S214005C70143B9DED082B9DED061B9DED040BFFF7D9
S214005C80C3FAC4E4E00A0020E81D002068D202003F
S214005C900000002000408F400000E03FC0D401001C
S214005CA0E80A002026B91FB9B8F1000F00F00381FA
S214005CB09DED082B9DED061B9DED040BFEF78EFE5D
S214005CC0A5E426B91FB9B8F1000F00F0F4809DEDE9
S214005CD0103B9DED082B9DED061B9DED040BFEF77E
S214005CE08FFF94E416A802229C491FF063FF16A8B3
S214005CF020F086F900283FF486AC16AC984E25189E
S214005D0002E0AC423FF47FAC14F8011B304601F0D1
S214005D100BFF0028F5D176E4924E002703E03046CC
S214005D20394605F01FFE94F8BE351BB994F8523478
S214005D30002B6ED005F0ECFDD4F83037C31AF92BE3
S214005D400546ECD9FEF7E8FCC4F83057E7E716A896
S214005D50012282491FF02EFF16A820F051F90028D4
S214005D603FF451AC16AC7E4E251802E0AC423FF430
S214005D704AAC14F8011B304601F0D6FE0028F5D1D7
S214005D8041E416A8012275491FF014FF16A820F05A
S214005D9037F900283FF437AC16AC714E251802E0F0
S214005DA0A5423FF430AC14F8011B304601F0BCFEAF
S214005DB00028F5D127E40920FEF78CFC27E416A876
S214005DC0012266491FF0F6FE16A820F019F90028F1
S214005DD03FF419AC16AC624E251802E0AC423FF414
S214005DE012AC14F8011B304601F09EFE0028F5D1D7
S214005DF009E45D4B1B7B002B71D004F5CF610220BC
S214005E009DED040B09F0F8F8054687BBD4F8E025AD
S214005E104EE4564808F048F9C3E51FF0CBFE16A836
S214005E2020F0EEF800283FF4EEAB16AC4C4E2518EA
S214005E3002E0A5423FF4E7AB14F8011B304601F040
S214005E4073FE0028F5D1FFF7DEBB009B002B52D077
S214005E501420FEF73FFCFFF7DABB009B002BF7D1C0
S214005E600120FEF737FCFFF7D2BBD4F8DC554049DB
S214005E7002209DED060B09F0BFF8024618E4009BD1
S214005E80002BE5D1BAF1000FEAD09DED105B9DED39
S214005E900C4B9DED0A3B9DED082B9DED061B9DEDE5
S214005EA0040BFEF7E5FFFFF7B2BB04F108003A4625
S214005EB0394609F023F82F48FEF7F6FB2E48FEF782
S214005EC0F3FBFFF7A4BB0220FEF704FCFFF79FBB23
S214005ED009F06AF8B0EE408AF0EE608A2CE604F527
S214005EE0CF6101209DED040B09F086F80546002FD2
S214005EF08CD0FFF7D6BBBAF1000FB1D09DED105B8A
S214005F009DED0C4B9DED0A3B9DED082B9DED061B74
S214005F109DED040BFFF778F9FFF779BB9DED042B99
S214005F209DED063B8DE609F053F8B0EE409AF0EE94
S214005F30609A6EE609F038F8B0EE408AF0EE608AB5
S214005F405CE69DED042B9DED063B18E609F040F857
S214005F50B0EE409AF0EE609AF9E500BF68D2020013
S214005F60E81D0020C0D4010000000020E80A002040
S214005F709011002008D30200B0F5020000000000D7
S214005F80037803B970472DE9F04F2DED048BD3B09D
S214005F9012AC0146FF22204620F0F2F800252046EB
S214005FA084F8FF5020F02CF80AE0E25CA2F16101D0
S214005FB0192904D8203A2046E25420F021F8013569
S214005FC0ABB29842F1D858B12318002513F8012C2B
S214005FD0202A02F0FB0100F1FF301FD009291DD056
S214005FE00722B749204620F079F828B10322B549A0
S214005FF0204620F073F8B0B96F21B34801F094FD45
S21400600018B16B21B04801F08FFD0A21AE4801F0AF
S2140060108BFD53B0BDEC048BBDE8F08F03F8015D3B
S2140060200028D3D1DCE70322A849204620F056F802
S2140060300028E1D02378242B07D0472B01D04D2B06
S214006040DAD12046FFF7AAFAE3E7A14920461FF077
S2140060505BFE002800F08F809E4920461FF054FE0D
S214006060002800F088809C4920461FF04DFE00283E
S21400607000F0AB80994920461FF046FE002800F04D
S214006080AB80974920461FF03FFE002800F0AB800B
S214006090944920461FF038FE002800F05F819249A0
S2140060A020461FF031FE002800F0028103228F49AF
S2140060B0204620F013F88146002840F0F5808C4DED
S2140060C02B78002B00F07A816E78002E00F0768117
S2140060D088490DF14B0020F0DDF9874910F10008E2
S2140060E00DF14B0018BF4FF0010820F0D3F983499B
S2140060F0071C0DF14B0018BF012720F0CBF9804993
S21400610000280DF14B0018BF4FF0000820F0C2F930
S2140061109FED697BE2784FF0000A4FF0000B0028F5
S21400612018BF0027CDE904ABCDE906ABCDE908AB37
S2140061308DED0A7B002A00F03D810DF14B04CDF871
S2140061400C90CA46CB460DE0592A00F008825A2A1F
S21400615000F0FE81462A00F0C18114F8012F002AC3
S21400616000F03081582AEFD104AA664920461FF075
S21400617047FDB246F1E7644A5D4B167B60495E4DCB
S21400618093F82B475B485D4B604A002E08BF2946B4
S2140061900091012C08BF034620210AA81FF0BEFC70
S2140061A00AA81FF02DFF00283FF42FAF0AAC464E7A
S2140061B0251802E0AC423FF428AF14F8011B304625
S2140061C001F0B2FC0028F5D11FE75148FEF76CFA43
S2140061D05048FEF769FA1CE74F48FEF765FA4D4847
S2140061E0FEF762FA15E74D48FEF75EFA4948FEF7F5
S2140061F05BFA4B48FEF758FA4648FEF755FA494808
S214006200FEF752FA4348FEF74FFA4748FEF74CFAB5
S2140062104048FEF749FA4548FEF746FA3D48FEF77D
S21400622043FA4348FEF740FA3A48FEF73DFA41483B
S214006230FEF73AFA3748FEF737FA3F48FEF734FAE1
S2140062403448FEF731FA3D48FEF72EFA3148FEF79D
S2140062502BFA3B48FEF728FA2E48FEF725FA39486F
S214006260FEF722FA2B48FEF71FFA3748FEF71CFA0D
S2140062702848FEF719FA3548FEF716FA2548FEF7BD
S21400628013FA3348FEF710FA2248FEF70DFA3148A3
S214006290FEF70AFA1F48FEF707FA2F48FEF704FA39
S2140062A01C48FEF701FAB4E61420FEF713FAB0E62F
S2140062B0FEF71EFBADE600BF000000000000F0BFCA
S2140062C01CD3020024D30200E81D002028D30200BD
S2140062D02CD3020030D3020040D3020064D3020065
S2140062E06CD302003CD4020000D5020004D50200A4
S2140062F0E00A00200CD3020014D3020010D30200E0
S21400630018D30200C8D202000000002034D30200D6
S21400631044D30200B0F5020068D3020070D3020036
S21400632078D3020080D3020088D3020098D30200FC
S214006330A8D30200B8D30200C8D30200D8D3020004
S214006340E8D30200F4D3020000D402000CD402000A
S2140063501CD402002CD4020008D302008348FEF7A7
S214006360A3F98348FEF7A0F98248FEF79DF9804816
S214006370FEF79AF98048FEF797F97D48FEF794F9FC
S2140063807E48FEF791F97A48FEF78EF97C48FEF7CC
S2140063908BF97748FEF788F97A48FEF785F974484E
S2140063A0FEF782F97848FEF77FF97148FEF77CF928
S2140063B076486DE70120FEF78DF92AE60920FEF7FC
S2140063C089F926E6BBF1000FF4D0BAF1000F04D12C
S2140063D0039B13B9B9F1000FECD06D48002F00F005
S2140063E0A98008F0B9FD6A48B0EE409AF0EE609ACF
S2140063F008F0C6FDB0EE408AF0EE608AB8F1000FF5
S21400640000F09380DDE9042351EC190B1CF03EFAF2
S214006410DDE9062341EC190B51EC180B1CF036FA9B
S21400642041EC180B002F64D0B0EE490AF0EE690A72
S2140064305849012008F0E0FDB0EE480AF0EE680A80
S21400644080465549012008F0D7FD9DED0A0B04460D
S2140064504F4808F05BFD05F05BFADFF834B14F4EAD
S214006460824622464146584641F28839002708F0BF
S214006470B3FB80B905F04CFAA0EB0A004845394654
S214006480304632D805F06EFA22464146584608F0A5
S214006490A3FB0028EED0DFF81481404E002708E06A
S2140064A0404601F035FB85283946304639D005F0A0
S2140064B059FA95F8BE3523B995F85234002B3FF4B7
S2140064C0ECAE05F025FAD5F83037C31AF92B04469A
S2140064D0E6D9FEF721F9C5F83047E1E70AAA3049C0
S2140064E020461FF08DFBB34637E61820FEF7F2F87D
S2140064F08FE5B0EE490AF0EE690A2649022008F058
S2140065007BFDB0EE480AF0EE680A8046224902207B
S21400651008F072FD9DED0A0B04461D4808F008FDC4
S21400652099E71B4807F0C0FDB7E69DED049B9DED7F
S214006530068B77E708F038FD1548B0EE409AF0EE87
S214006540609A08F045FDB0EE408AF0EE608A55E7A6
S21400655008AA144920461FF053FBB146FDE506AADB
S214006560114920461FF04CFB0396F6E540D4020086
S214006570B0F5020058D4020070D4020088D402009D
S214006580A0D40200B8D40200D0D40200E8D402009E
S214006590E80A00205811002090110020C0D4010005
S2140065A0F8D20200D8D20200D0D20200E81D0020A5
S2140065B02DE9F04359485A4C87B0002105F0D2F92E
S2140065C0FDF78AFEFEF74CF80021544805F0CAF99C
S2140065D05448FEF769F85448FEF766F82378002B0F
S2140065E000F09580514FDFF8548100251FE094F8A5
S2140065F02937002B50D094F8BE35002B45D0022307
S21400660084F8703605F084F994F82837064623B9DE
S214006610D4F83037C31AF92B05D9FEF77DF8C4F83D
S214006620306784F828574248002105F09BF9384621
S21400663001F06EFA431C17D03F2829D0212827D016
S2140066407E2825D0182823D0852821D00A2827D0B0
S2140066500D2825D0B4F82C37FE2B34DCE218013395
S21400666082F83407A4F82C3794F8703684F8345837
S214006670032BC7D02378002BC4D094F8BE35002B4C
S214006680B5D194F82937002BB5D184F87056B9E700
S214006690C0B2FEF7AFF8E7E7012384F87036B1E73B
S2140066A0B4F82C37002BDFD02344404683F8345709
S2140066B0FFF766FC4FF48072002140461EF08EFF06
S2140066C0A4F82C57D0E74FF4807200214046A4F877
S2140066D02C571EF083FF1722164901A81FF06AFAEE
S2140066E001A81FF08DFC68B101AB03EB00091E4644
S2140066F001E0B14506D016F8011B384601F014FA41
S2140067000028F6D10A21384601F00EFAACE70A480E
S214006710FDF7CAFF0448FDF7C7FF63E7001BB70095
S214006720E00A0020A0D20200B0F50200E81D00201A
S214006730C0D4010068D2020008D50200141200205E
S2140067400020704790F91800704700BF0620704779
S2140067500120704790F81401704700BF8079704799
S21400676038B583798B4200F0A780A1F109030D4666
S2140067700446032B00F2A280DFE803F07A464602C6
S214006780303006F09FFF72B6D4F8B40003680022DB
S214006790A4F810213BB1D4F8C410D4F8C0200B687C
S2140067A01340FCD10360D4F8BC0003680022A4F8B0
S2140067B012213BB1D4F8CC10D4F8C8200B68134093
S2140067C0FCD10360D4F8A4103D4A91F901308978D1
S2140067D002EBC3130B440C2093F8401041F0010168
S2140067E083F84010D4F8A81091F90130897802EBAC
S2140067F0C3130B4493F8402042F0010283F8402074
S214006800A07162B6012038BD303006F05BFF72B66C
S214006810D4F8BC0003680022A4F812213BB1D4F8D7
S214006820CC10D4F8C8200B681340FCD10360D4F811
S214006830A410234A91F90130897802EBC3130B4464
S21400684093F840106FF3000183F84010D4F8A810B6
S21400685091F90130897802EBC3130B4493F840207A
S21400686042F0010283F84020A57162B6012038BDCF
S214006870303006F027FFD4F8A410114A91F9013001
S214006880897802EBC3130B44092593F840106FF385
S214006890000183F84010D4F8A81091F901308978E7
S2140068A002EBC3130B44012093F840206FF3000261
S2140068B083F84020A57138BD012038BD002038BDC2
S2140068C00080004183790A2B0FD090F83D30A3B1A9
S2140068D0D0F8A430D0F8B02093F90130DB0103F1F2
S2140068E0824303F500435A61704790F8FC309B07DB
S2140068F0EBD590F83D30002BEAD0D0F8A430D0F895
S214006900B02093F90130DB0103F1824303F5004325
S2140069109A617047A0F13000D4E700BF2DE9F04738
S214006920089FBDF82490BDF82880044616468A467F
S2140069303A4600211D460CF041FD04F1300006F0F9
S2140069408FFE6A4BC4F8A0A003F13C02C4F8A46012
S214006950C4F8AC702360C4F8A8502263B2786449C7
S214006960DFF898A1634F012303FA02F2C4F8B020BF
S214006970AA7884F8D69003FA02F24FF0020C4FF091
S2140069807D0E0020C4F8B82084F8D7800022A4F832
S214006990E2C04FF019084FF6FF7CA4F8F8E04FF07D
S2140069A003094FF0FF3E84F8D820A4F8DA20A4F8B4
S2140069B0DC20A4F8DE20A4F8E02084F8E42084F8A4
S2140069C0F52084F8F620A4F8FC2084F8002184F84A
S2140069D00121C4F8F0A084F8F490A4F8D0C0A4F87C
S2140069E0D2C0A4F8D4C0C4F8E880C4F8ECE0C4F878
S2140069F00421C4E94C01C4E95001C4E95401C4E9C6
S214006A005601C4F80821C4F8102184F8142184F82B
S214006A101521C4F81821C4F81C21C4F8202184F8D4
S214006A20382184F8482184F86021C4F86421C4F829
S214006A306821C4F86C21C4F87021C4F87421C4F825
S214006A407821C4F87C2184F8882184F8892184F888
S214006A508A21C4F88C21C4F80C81C4F82831C4F803
S214006A6080E1C4F884E16376337B042B98BF224A26
S214006A7057F82300767B98BFD25CB6FBF2F102FB98
S214006A8011624FF48073D2B202F11C0103FA02F2D3
S214006A9000EB810102F47C520830C4F8B410C4F84C
S214006AA0C400C4F8C0202A7B687B57F82210042A4A
S214006AB09ABF114B9A5C0022B0FBF2F302FB130361
S214006AC0DBB24FF4807203F11C0002FA03F301EB11
S214006AD0800003F47C530831C4F8BC00C4F8CC1022
S214006AE0C4F8C8302046BDE8F08700BF84D5020051
S214006AF00000F03F68D5020060D50200003C1CC6CE
S214006B0091B1DAB190F864319B0770B50C46164621
S214006B10054602D5303006F0D5FD0123C5F81861CC
S214006B20204685F8153170BD80F81511C0F818118B
S214006B30C0F81C11C0F8201101207047104670479D
S214006B4090F81521002A38D082790A2A70B50446B2
S214006B5000D070BD90F83D20CB0F81EAE1769A42D6
S214006B600D46A6EBE17604D0026880F83D30136B44
S214006B709847A06B636CB042A8BF3046002DB4BFE8
S214006B80424202461344D4F8BC5063642B68A4F80F
S214006B90120186B2B34207D0D4F8CC10D4F8C8207D
S214006BA00B681342FCD12E60002894F8643105DD92
S214006BB043F0020384F8643170BD70476FF34103FD
S214006BC084F86431C5E700BF30B590F87A3183B0F9
S214006BD00446002B71D190F8793183F0010394F8C4
S214006BE0002194F801518A4231D094F8140184F8B7
S214006BF00011002284F80121C4F8082158B30021AE
S214006C0072B66BB371B340F2E2420123C4F87C2142
S214006C1084F8793162B6A3790A2B2AD094F88931A0
S214006C208B4235D0D4F8A03000293BD1BFF35B8F20
S214006C302D4ADB4352E8000F184042E80005002DBD
S214006C40F8D1BFF35B8F84F8891103B030BD94F898
S214006C501421002A33D10029D1D072B6002BD1D10D
S214006C600029D7D1002384F87A3162B6A3790A2B9B
S214006C70D4D119B994F864319A0728D494F8FC3022
S214006C80DB0794F8893148BF81F001018B42C9D1F6
S214006C90002DD8D094F80131002BD4D1D4F8A030F0
S214006CA00029C3D0BFF35B8F0F4A52E8000F18438A
S214006CB042E80005002DC4D0F7E700238FE7002246
S214006CC084F8001184F80121C4F8082197E794F8A5
S214006CD07431019143F0100384F8743104F13000EC
S214006CE006F0F0FC0199C9E72C24002090F87831D2
S214006CF0002B4AD0354A90F80131126800B5126967
S214006D008BB990F88A31012B22D0022B3BD190F818
S214006D10F430002B45D1D0F88C31002B3CD180F8D4
S214006D208A315DF804FBD0F80431D0F80C11D31A80
S214006D308B422BD3D0F80831C0F80421013BC0F8B1
S214006D4008314BB980F8013190F88A31012BDCD13B
S214006D50022380F88A31DAE71D4BD0F8A020BFF373
S214006D605B8F53E8001F514043E8001EBEF1000F42
S214006D70F7D1BFF35B8F90F88A31012BC5D190F81D
S214006D800131002BE4D05DF804FB704790F88A319F
S214006D90022BBCD05DF804FB013BC0F88C315DF8DB
S214006DA004FB002200F5BA73BFF35B8F53E8001FA5
S214006DB021F0200143E8001EBEF1000FF6D1BFF31C
S214006DC05B8F80F88A215DF804FB00BF4C2500200D
S214006DD02C24002090F87A3170B5044680F81411FF
S214006DE0002B63D190F8793183F0010394F80161A8
S214006DF039BB94F8005172B65BB365B340F2E24219
S214006E000123C4F87C2184F8793162B6A3790A2B71
S214006E1028D094F88931AB4233D0D4F8A030002D76
S214006E2039D1BFF35B8F284ADB4352E8001F194075
S214006E3042E800100028F8D1BFF35B8F84F8895130
S214006E4070BD002584F80151C4F8085172B6002BB5
S214006E50D3D1002DD9D1002384F87A3162B6A37934
S214006E600A2BD6D11DB994F864319A0720D494F829
S214006E70FC30DB0794F8893148BF85F00105AB424A
S214006E80CBD1002EDAD094F80131002BD6D1D4F82D
S214006E90A030002DC5D0BFF35B8F0B4A52E8001F11
S214006EA0194342E800100028C6D0F7E700239DE704
S214006EB094F8743143F0100384F8743104F1300010
S214006EC006F000FCD3E700BF2C24002000000000E2
S214006ED0F8B590F8783103B9F8BD04460CF0BEF961
S214006EE0A379984A94F8D6100A2B08BF94F8FC3079
S214006EF052F8217008BFC3F3800694F8D830BD7AE4
S214006F0003F1FF3318BF0026012BEDB240F2DF80FD
S214006F1094F8283073408C4A84F8F430C4F8F02093
S214006F20B4F9D010481C12D0884803F0D1FE03688C
S214006F309B6805469847092800F0658228460CF0AD
S214006F4013F9011C18BF01212046FFF73DFEB4F9D6
S214006F50D2104A1C16D0A3790A2B39D07B4803F0EE
S214006F60B7FE03689B6805469847092800F0D0805E
S214006F7028460CF0F9F8A379092B00F0D3800B2BE8
S214006F8000F0D080B4F9D4104B1C21D0A3790A2B82
S214006F901ED06E4803F09CFE03689B680546984723
S214006FA0092800F04C8228460CF0DEF8A379092B5D
S214006FB00ED1D4F8A830D4F8B82093F90130DB010C
S214006FC003F1824303F50043002800F0CC815A61A8
S214006FD0B4F980114F1C10D05C4803F079FE0368AA
S214006FE09B6805469847092800F075812B68284657
S214006FF01B689847042800F06E81B4F984114E1C73
S21400700015D0524803F064FE03689B68054698470F
S214007010092800F0EE8128460CF0A6F894F84030D7
S214007020B0FA80F0400960F3C30384F84030B4F946
S21400703082114D1C15D0454803F04AFE03689B6834
S21400704005469847092800F0D98128460CF08CF8A8
S21400705094F84030B0FA80F0400960F3041384F8E6
S2140070604030B4F98611D4F86451D4F87461481CE1
S21400707000F02A81354803F02BFE03689B6807461C
S2140070809847092800F0D38138460CF06DF8B0FA1E
S21400709080F77F0994F83C30002B40F0298184F873
S2140070A0883194F83E1067F31045002952D194F8C1
S2140070B0642192074ED594F83D0094F840200028AD
S2140070C000F04A81D70649D546F0040646E0AA07EE
S2140070D000F074813323BB72B4F8E230012293FAD5
S2140070E012F39AB2003218BF0122A4F8E23084F8F4
S2140070F07B21EB0600F16B8194F87B31002B40F08E
S2140071000781D4F8E83003EB8303A4F8F83007E7E8
S2140071100F4BB4F9D21018680DF07CF8A379092B40
S2140071207FF42DAFD4F8A430D4F8B02093F9013012
S214007130DB0103F1824303F50043002800F01181D0
S2140071405A611FE7CCD50200003C1CC63423002041
S2140071505C28002094F83D0094F84020C2F3C00755
S21400716067F38E35C2F3001294F8017162F3CF35DF
S21400717067F34D3560F3C305002B00F0A380981F1E
S21400718018BF012094F87A2160F34105002A00F028
S214007190938094F8F40011B1AF0740F1D7806FF3F5
S2140071A00005032B69D015F0020340F0C6800029C5
S2140071B063D063F3820594F8793161F3861560F342
S2140071C0C815002B5DD0D4F87C31002B40F3268107
S2140071D062F345150122013B62F38C25C4F87C312D
S2140071E005F002031BB1B30648BF46F00106321C89
S2140071F018BF0122D4F87031C4F8746162F34925CF
S214007200C4F8645125EA030304F5B472BFF35B8F38
S21400721052E8001F194342E800100028F8D1BFF3D7
S2140072205B8FD4F87021BFF35B8F04F5B67322EA48
S214007230050553E8002F2A4343E800210029F8D12A
S214007240BFF35B8FA379D4F86421C4F870210A2BAE
S2140072507FF442AE94F81531002B00F09480D4F8F9
S2140072601801002800F08F80D4F81C319C427FF46F
S21400727033AEBDE8F84006F0D7BF031C18BF0123A5
S21400728097E762F34515002A3AD094F8D83033B918
S21400729038B905F00203042262F38C25A2E7002821
S2140072A063D015F00203F6D1032262F38C2563F354
S2140072B0041505F0020395E762F3000594F8F40060
S2140072C0134676E718465DE794F83C3093BB84F89F
S2140072D088311F46E5E694F8D81081B32B6894F8F9
S2140072E0F4105B6909B194F87A112846984784E649
S2140072F007B394F88811002900F0AC800F46D0E65A
S21400730062F38C25AA077FF572AF46F010066AE78F
S21400731094F8283094F8F5107340DAB2914200F0F1
S214007320BF80D4F8E83084F8F52003EB8303A4F894
S214007330F830F5E594F88871B3E6002339E794F859
S214007340F4202B68012A5B69CFD1CCE701287FF4B3
S21400735026AF45F0010524E7170748BF46F00206AA
S214007360FCE69A610EE69A6132E6022363F38C2508
S21400737045F0100504F1300006F0A4F946F02006AA
S21400738005F002032EE704F13005284605F0F2FE6C
S214007390284606F011FAD4F8BC50606B2A68A4F8A8
S2140073A0120180B282423FF497ADD4F8CC10D4F8E4
S2140073B0C8200B681342FCD12860F8BD04F0A8FA78
S2140073C0D4F8EC30C01A03283FF684AE91E604F0F9
S2140073D09FFAB4F8E230C4F8EC00002B46D0302315
S2140073E0BB72002294F87B3184F8F620A4F8E220E1
S2140073F084E62B6828461B6998470FE62B682846C4
S2140074001B69984724E64E4BB4F9D01018680CF068
S21400741001FF01462046FFF7D7FB98E5012200232F
S21400742045F0200584F87A2184F879312DE73B6809
S21400743038461B699847B0FA80F77F092AE6404B22
S214007440B4F9D41018680CF0E5FEA379092B3FF4C4
S214007450B0ADBDE504F1300006F04EF9012384F826
S214007460883146F0080694F83C301AE6AD067FF5FB
S21400747043AEB4F8DC10B4F8E020A4F8DA10A4F8B0
S214007480DE20F88BA4F8DC0094F8F600BD8BA4F898
S214007490E05070B994F87B31012284F8F6202DE68E
S2140074A0B4F8F820002A3FF436AD013AA4F8F820E4
S2140074B036E507EE901AB8EE677A07EE902AF8EEF1
S2140074C0677A84F87B31C7EE276A16EE900A1BF0BF
S2140074D03BFB17A3D3E900231BF0D6F916A3D3E989
S2140074E000231BF085FB1BF07BFE07EE900A1EB107
S2140074F09FED147A77EE677A94F8D830C4ED3C7A2C
S214007500022B04D0022384F8F4300023C4E717EEDD
S214007510900A1BF019FB00220B4B1BF0B5F9024634
S2140075200B461BF0B3F91BF05BFEC4F8F000E9E76E
S2140075309A9999999999A93F721CC7711CC75B4083
S2140075405C2800200000C842000049402DE9F843AE
S21400755004460F469046002A54D1456C4D1BED0F4D
S214007560D4F87431002B4BD094F8743143F00103F7
S21400757084F87431002694F8003133B994F87421F5
S21400758042F010021E4684F87421B4F98611481C95
S21400759016D0294803F09CFB03689B6881469847F1
S2140075A0092840D048460BF0DFFDB0FA80F04009CD
S2140075B030B194F8743143F0080384F8743100262F
S2140075C094F840306DB1D90626D496B101234246D0
S2140075D0394684F83E3004F13000BDE8F84305F043
S2140075E045BD1A07F1D594F8743143F0020384F8C8
S2140075F0743194F864319B0706D40020BDE8F88304
S2140076000126B8E7CD0FABE704F13000002106F005
S21400761073F80020BDE8F88394F8743143F004034F
S21400762084F87431E5E7D9F8003048461B69984776
S214007630B0FA80F04009BBE734230020A0F1300008
S214007640FFF784BFF8B5D0F8743104460E46002B19
S2140076504AD090F8743143F0010380F87431002565
S21400766094F8003133B994F8742142F010021D46A4
S21400767084F87421B4F98611481C16D0264803F005
S21400768027FB03689B680746984709283CD038467E
S2140076900BF06AFDB0FA80F0400930B194F874310E
S2140076A043F0080384F874310025002E94F8403027
S2140076B00CDAD90621D48DB10023314684F83E3049
S2140076C004F13000BDE8F84005F00ABD1A07F2D50F
S2140076D094F8743143F0020384F8743194F86431FA
S2140076E09B0703D40020F8BD0125B9E704F130005C
S2140076F0002106F001F80020F8BD94F8743143F03C
S214007700040384F87431E9E73B6838461B699847F8
S214007710B0FA80F04009C0E734230020A0F1300022
S214007720FFF790BFF8B5D0F8A430BC4D93F9013000
S214007730D0F8B02005EBC31304469A61D0F8A83001
S214007740D0F8B82093F9013005EBC3130E469A61C2
S2140077500021FFF739FA314620460BF019FDD4F820
S214007760A43093F90120987805EBC212131800276D
S21400777083F84070D4F8A81091F901308E78DB01B8
S214007780E9188D1903F1824385F84070D4F8B0509B
S2140077909560D4F8B8508D6002EB500210F0010FDF
S2140077A092F830104FF0050003F5004314BF60F365
S2140077B0071160F3030103EB560382F8301093F8C9
S2140077C03020F0074FF005014CBF61F3071261F35C
S2140077D0030283F830202368914A5B68934240F0A6
S2140077E01981A379092B22D004F1300005F06AFF35
S2140077F0D4F8A410894B91F90120897803EBC212C2
S2140078000A44092092F840106FF3000182F84010F5
S214007810D4F8A82092F90110927803EBC113134410
S21400782093F840206FF3000283F84020A071E368CD
S2140078302269DB0103F1824101F5004101EB5201AF
S21400784003F1824391F8300012F0010503F500437E
S214007850134414BF6FF3071065F3030081F830007C
S21400786093F840206F4942F0010283F8402094F8D4
S214007870D60051F820301A686FF341021A601A6970
S2140078809207FCD41A6842F001021A601A6912F0D4
S2140078900102FBD11D68644962F305151D601D6871
S2140078A062F314551D601D6862F355551D601D6812
S2140078B045F480351D601D6845F400351D601D6863
S2140078C062F3CB251D601D6862F30A251D601D68E6
S2140078D045F080051D601D6845F040051D601D686B
S2140078E062F383051D60DD88052666F30205DD80EC
S2140078F0DD8845F02005DD80DD8862F30C35DD800F
S214007900DD8862F34D35DD80DD8862F30825DD8095
S214007910DD8845F01005DD800D7862F341050D70B9
S214007920D4F8AC208E68D5780122AA4016438E6023
S214007930EF088E69BF0007F1804E16430EF5205EF5
S2140079408E6105F00706DEF81CC0B7000426BE40B0
S21400795046EA0C06CEF81C60CE6892B262F30F06BA
S214007960CE600A7842F002020A704A6812F00202FA
S214007970FBD194F8D7E02D490EF12B073E4651F87F
S21400798027C062F3861C41F827C051F82620570608
S214007990FBD451F82620254F4FF0060C6CF303025B
S2140079A041F8262051F8262042F0400241F82620D1
S2140079B07A6812F0180FFBD11D4A1E4E74300EF175
S2140079C001010FFA8EFE42F8201006EBCE029179E6
S2140079D041F002019171D179C807FCD4123505F047
S2140079E07F0545F4007546F83E50D1798907FCD4EA
S2140079F01A6842F002021A601A6912F00202FBD1FB
S214007A000123C4F86421C4F86821C4F86C2184F802
S214007A107831F8BD09212046984708E700800041E4
S214007A2061670000CCD5020000280040001C004022
S214007A3000E0004120E000414FF0FF30704700BFFB
S214007A40A1F10200B0FA80F04009704702207047AA
S214007A50A1F10100B0FA80F040097047A1F10800DA
S214007A60B0FA80F040097047807A7047A0F10400B1
S214007A70FAE700BF807A401AB0FA80F040097047F3
S214007A80A0F10400F6E700BF08207047A0F104004C
S214007A90FAE700BF00207047A0F10400FAE700BF35
S214007AA01123818183727047A0F10400F8E700BFBC
S214007AB0704700BFA0F10400FAE700BF014B18684A
S214007AC000F05EBE1C130020014B186800F066BE76
S214007AD01C130020014B186800F07ABE1C1300200F
S214007AE0014B186800F030BE1C130020014B1868CC
S214007AF001F004BA1C130020014B186800F01CBEED
S214007B001C130020014B186800F018BE1C13002040
S214007B10014B186800F07ABE1C130020014B186851
S214007B2000F0A0BF1C130020014B186800F0A6BF91
S214007B301C130020014B186800F0D4BF1C13002053
S214007B40014B186800F0D6BF1C1300200368044AD7
S214007B501B6B934203D1034B186800F039BE1847DD
S214007B60D57A00001C130020A0F10400EEE700BF49
S214007B7008B50368064A1B6B934205D1054B186887
S214007B8000F026FE00B208BD984700B208BD00BF50
S214007B90D57A00001C130020A0F10400E8E700BF1F
S214007BA008B5036861B90B4ADB68934205D10A4BF6
S214007BB0186801F0A3F9012008BD9847012008BD08
S214007BC0064A9B689342F8D1034B186800F0BCFD48
S214007BD0012008BDED7A00001C130020E17A0000A9
S214007BE0A0F10400DCE700BF30B583B01A4DADF855
S214007BF004009DF804102B6811F00104A3F812018C
S214007C0012D12146204609F0EFF82146012009F05E
S214007C10EBF809F0DDF809F015F90368B3F5966F8F
S214007C2012D0002003B030BD0C49002009F0DCF86B
S214007C300B49012009F0D8F828684021803009F067
S214007C409FF8002003B030BD0121064803F0FCFA7F
S214007C50002003B030BD00BF1C130020697C00006C
S214007C60A17E0000342300202DE9F04F83B072B6C9
S214007C708A490B6803F18000C3F81821C3F8140181
S214007C8062B6086872B6D0F80431D0F80021D0F891
S214007C9018419B1A48BF4033002C00F0D680D3F121
S214007CA03F0300F0D280D0F80451D0F81421A3424C
S214007CB028BF2346C5F14001994228BF19464619F8
S214007CC0002900F0E8802C1D0444171DBE4238BF72
S214007CD0A242C0F0CE800B2940F2CB80544214F072
S214007CE0030400F0B78017784755012C06F1010C05
S214007CF002F1010800F0B08057787770022C06F188
S214007D00020C02F1020800F0A7809778B77006F11F
S214007D10030C032602F103080196A1EB040BABF15A
S214007D200406B6082F1901364FEA8609074414449C
S214007D304FF0000E0EF1010E54F804AB47F804ABFA
S214007D407645F7D8019CCB454C440CEB090708EB6D
S214007D50090E00F0898018F826800CF82680661C2C
S214007D60B14240F2818002349EF801607E70A142EA
S214007D707AD99EF80240BC705618D0F81421D0F874
S214007D8018410A44641A5B1AC0F81421C0F8184156
S214007D9064D0311D021D964238BF8842044671D316
S214007DA00B2B6FD9724212F003025FD0317801704C
S214007DB0012A00F1010406F1010E58D071784170D5
S214007DC0022A00F1020406F1020E50D0B17881704A
S214007DD0C41C06F1030E0327A3EB020CACF104014E
S214007DE089084D1C16444FEA8508024400210131DB
S214007DF056F8049B42F8049B8D42F8D8C44507EB1E
S214007E00080204EB08010EEB08060DD01EF82570DC
S214007E1004F82570541CA34206D9023274784C70BC
S214007E20934201D9B2788A70D0F81421D0F818415C
S214007E30C0F804311A44E41AC0F81421C0F81841F6
S214007E401CB98030402108F09BFF62B6012003B0C9
S214007E50BDE8F08FB446904601945EE7294401F0F1
S214007E603F01C0F80411EBE7561886E7B6461746FA
S214007E70B2E7741E561812F8017B04F8017FB2426E
S214007E80F9D17AE7421EF41816F8011B02F8011F12
S214007E90B442F9D1C8E7164673E700BF1C130020AA
S214007EA02DE9F04FD84883B0002940F0AB81016837
S214007EB0D1F808311A4402F03F02C1F80821002325
S214007EC0BFF35B8F81F81031BFF35B8F0468BFF39D
S214007ED05B8F4FF0010104F58873D3E84F2FC3E89A
S214007EE0401F0028F9D1BFF35B8F12F0FF0F40F060
S214007EF0DC80D4F80861D4F80C118E4200F0918131
S214007F0004F1400202EB060704F1C00EC0F0D18077
S214007F10C6F140031944402928BF40218B4228BFA0
S214007F200B46002B00F0A18106F1400506F1440C3B
S214007F306019A44404F1C408404538BFE645C0F0C3
S214007F408A810B2B40F28781404210F0030000F03C
S214007F506181965D84F8C060012804F1C10C07F1C8
S214007F60010800F059817E7884F8C160022804F187
S214007F70C20C07F1020800F04F81BE7884F8C26098
S214007F80032607F1030804F1C30C0196A3EB000BCC
S214007F90ABF10406B60805440136C030254420443B
S214007FA04FEA86090027013755F804AB40F804ABC2
S214007FB0B742F8D30198CB4548440CEB090508EBCB
S214007FC009070DD018F826800CF82680461CB34208
S214007FD006D902307E786E70834201D9B878A870D0
S214007FE00EEB0300CB1A00F0FC8004F14405061DDE
S214007FF0B24238BFA842C0F025810B2B40F2228146
S214008000554215F0030500F0098194F840200270EF
S214008010012D00F1010804F1410200F0008194F8FE
S21400802041204270022D00F1020804F1420200F0E5
S214008030F68094F84220827000F1030804F14302AF
S2140080400327A3EB0509A9F10406B60805F1400CC1
S21400805001362844A4444FEA860B4FF0000A0AF182
S214008060010A5CF8045B40F8045B5645F7D8D9452E
S2140080705F4408EB0B0002EB0B0500F0B28012F831
S214008080262008F826207A1C934240F2AA8002375F
S2140080906A784270BB4240F2A480AB788370704628
S2140080A008F082FE002840F0A280012003B0BDE860
S2140080B0F08F891B06F1400306F14400402904EBCB
S2140080C00308204404F1C40528BF4021A84538BF52
S2140080D08645C0F0AD800B2940F2AA80C8F10008A2
S2140080E018F0030800F09280925D84F8C020B8F182
S2140080F0010F04F1C10507F1010600F089807A78C6
S21400810084F8C120B8F1020F04F1C20507F1020697
S2140081107ED0BA7884F8C220FE1C04F1C3054FF066
S2140081200309434408F1C000E2582250A1EB0808B6
S214008130A8F1040223449208013220445F68476095
S214008140022A4FEA820C35D09F688760032A31D016
S214008150DF68C760042A2DD01F690761052A29D069
S2140081605F694761062A25D09F698761072A21D063
S214008170DF69C761082A1DD01F6A0762092A19D05D
S2140081805F6A47620A2A15D09F6A87620B2A11D057
S214008190DF6AC7620C2A0DD01F6B07630D2A09D051
S2140081A05F6B47630E2A05D09F6B87630F2A01D04B
S2140081B0DB6BC363E045E14405EB0C0306EB0C0008
S2140081C00FD016F8226005F8226009F101029142EC
S2140081D007D909F1020942785A70494501D98278CF
S2140081E09A70704608F0E0FD00283FF45EAFBFF3DB
S2140081F05B8F002384F810310120BFF35B8F03B040
S214008200BDE8F08F01685AE61C1300203E4675460E
S214008210C14686E7B846F4460190B7E680462F4644
S2140082200FE7BFF35B8F84F81021BFF35B8F3CE74B
S21400823004F1BF03781817F8012B03F8012F8742C3
S214008240F9D1CEE70138134412F8015B00F8015F5C
S2140082509A42F9D1C5E704F1BF00FE1817F8015B92
S21400826000F8015FBE42F9D1BAE67046BAE600BF32
S21400827070B5164E346814F0010402D0144B18681A
S21400828070BD4FF490700FF0F5FF054600F18003C7
S214008290C0F800410F49C5F80441C5F81431C5F8C7
S2140082A00841C5F81841C5F80C4185F81C4185F809
S2140082B01041A5F8124185F81141032008F094FDFD
S2140082C0034A012315602846336070BD181300204A
S2140082D060130020E97B00002DE9F041C74AD2F880
S2140082E0A8306FF386138CB0C2F8A830D2F8A83046
S2140082F05906FBD4D2F8A830C049042060F3030323
S214008300C2F8A830D2F8A83043F04003C2F8A8302C
S2140083104B68DB06FCD4BA4BBA491A6942F4806251
S2140083201A619A6942F001029A61A1F1D70003220C
S21400833009F006F90446002800F09C81B24B0FCBEA
S2140083408DE80F0003681D0FE8B2C3F3036800F161
S21400835030073730092D88BF07465FFA88F0C3F329
S214008360035600F1300C3730B8F1090FC8BF844609
S214008370F0B2C3F303458DF811C000F1300C37306E
S214008380092EC8BF8446E8B2C3F3033E8DF812C078
S21400839000F1300C3730092DC8BF84465FFA8EF0E6
S2140083A08DF810708DF813C0C3F3032700F1300C5E
S2140083B03730BEF1090FD4BFE6468646F8B2C3F39F
S2140083C003160A468DF814E000F1370E3030092FF8
S2140083D0CCBF77460746F0B212688DF8157003F0EA
S2140083E00F0300F137073030092ECCBF3E46064655
S2140083F0D8B2150F8DF8166000F137063030092B0D
S214008400CCBF33460346E8B2C2F3036C8DF8173090
S21400841000F137033030092D88BF18465FFA8CF319
S214008420C2F3035E8DF8180003F137003033BCF159
S214008430090FCCBF84469C465FFA8EF3C2F303470F
S2140084408DF819C003F1370C3033BEF1090FD8BFD1
S2140084509C46FBB2C2F303368DF81AC003F1370C04
S2140084603033092FD8BF9C46F3B2C2F303258DF8EC
S2140084701BC003F1370C3033092ED8BF9C46EBB235
S214008480C2F3031002998DF81CC003F1370C303389
S214008490092DCCBF65461D46C3B209688DF81D5030
S2140084A002F00F0203F1370530330928CCBF284607
S2140084B01846D3B24FEA117E8DF81E0003F137003E
S2140084C03033C1F30367092ACCBF02461A465FFA67
S2140084D08EF5F8B28DF81F2005F137023035C1F35E
S2140084E00356BEF1090F88BF154600F1370230303B
S2140084F0092FC8BF1046F3B203F137028DF82100EA
S2140085003033C1F30340092EC8BF1346C2B2C1F3CD
S214008510033E02F1370830320928D8BF90465FFA8A
S2140085208EF2C1F303278DF822302046039B8DF888
S214008530205002F137043032BEF1090FD8BF14467E
S214008540FAB21B688DF82440C1F3031602F1370413
S2140085503032092FCCBF27461746F2B201F00F0182
S2140085608DF8257002F137073032092ECCBF3E4613
S2140085701646CAB21D0F8DF8266002F13706303255
S2140085800929CCBF31461146EAB2C3F3036C8DF815
S214008590271002F130013732092D88BF11465FFAE5
S2140085A08CF2C3F3035E8DF8281002F130013732E7
S2140085B0BCF1090FD4BF8C4694465FFA8EF2C3F323
S2140085C0034402F137013032BEF1090FCCBF8E46AC
S2140085D09646E1B2C3F303378DF82AE001F1370E71
S2140085E03031092CD8BF8E46FAB2C3F303268DF875
S2140085F02BE002F1300E373208E000BF001C0040CE
S21400860000080040EF000020E0D60200092FD4BF8B
S21400861077461746C3F30315F4B203F00F03DAB236
S214008620E9B28DF82C7004F130073734092ED8BF24
S2140086303C4601F1300E02F1300737313732092D52
S214008640D8BF7146092BD4BF3B4613468DF82E1073
S2140086508DF82F308DF823808DF829C08DF82D40A9
S2140086600DF10F030DF12F0113F8012F20F8022F43
S2140086708B42F9D12A4B2B4A2B4F2C4D2C4880216C
S2140086804FF080764FF0804482F8501382F85113F2
S21400869082F8521382F853139E609C629F625E615A
S2140086A093F8582002F0FB0283F8582093F85820DD
S2140086B002F0FE0242F0010283F8582093F83C20B4
S2140086C002F0F0024FF0007142F0070283F83C20FF
S2140086D099609C629D62596193F8592002F0FB02F2
S2140086E083F8592093F8592002F0FE0242F0010266
S2140086F083F8592093F83C2002F00F0242F07002F3
S21400870083F83C2008F064FE08F01CFB094808F0DB
S2140087108DFE08F0A3FE01200CB0BDE8F08100BF7E
S2140087200080004100E100E0000100C0000200C03F
S21400873020130020100000200120704708B508F024
S21400874081FB006808BD00BF38B590F81C3103B146
S21400875038BD04460125184684F81C51064908F021
S21400876043FB2846054908F03FFB04F18000402102
S214008770BDE8384008F004BB697C0000A17E00001C
S21400878003460022C0F80021C0F81821C0F80421D2
S2140087904021803083F8112108F0F2BA38B504463B
S2140087A04FF08245D4F80821D4F80C319A4200D113
S2140087B038BD08F041FB0028FAD094F81231DB07E8
S2140087C0F6D56B7B03F07F03022BEBD038BD00BFE2
S2140087D038B5054608F030FB044670B195F81241EE
S2140087E014F0010409D04FF082435C7B04F07F0450
S2140087F0A4F10204B4FA84F464090348002103F0E7
S214008800B1F8204638BD00BF804F1200D0F80031C6
S214008810D0F80421934200F016812DE9F04F5A1C3F
S21400882002F03F02C45CC0F8002183B072B6D0F8F4
S2140088300431D0F80021D0F818519B1A48BF4033B5
S214008840002D00F0E380D3F13F0300F0DF80D0F886
S2140088500461D0F81421AB4228BF2B46C6F1400174
S214008860994228BF19468719002900F0F880351D5F
S214008870054402F1040E774538BFAA42C0F0DA80FC
S2140088800B2940F2D780554215F0030500F0C3804F
S21400889092F800E000F806E0012D07F1010802F169
S2140088A0010900F0BA8092F801E087F801E0022D95
S2140088B007F1020802F1020900F0AF8092F802E028
S2140088C087F802E007F10308032702F1030900977F
S2140088D0A1EB050BABF10407BF0806EB050E01374D
S2140088E04FEA870A864415444FF0000C01940CF1B9
S2140088F0010C55F8044B4EF8044B6745F7D8009D1D
S214008900019CD345554408EB0A0E09EB0A0C00F00F
S2140089108C8019F8279008F827906F1CB94240F20F
S214008920848002359CF801708EF80170A9427CD9CB
S2140089309CF802508EF802505718D0F81421D0F840
S21400894018510A446D1A5B1AC0F81421C0F8185161
S21400895065D0011D3A1D904238BF8F42054675D33B
S2140089600B2B73D9424212F0030260D039780170A3
S214008970012A00F1010507F1010E59D079784170FE
S214008980022A00F1020507F1020E51D0B978817073
S214008990C51C07F1030E4FF00308A3EB020CACF165
S2140089A0040189084E1C17444FEA86090244002138
S2140089B0013157F804AB42F804AB8E42F8D8CC45E8
S2140089C008EB090205EB09010EEB09070DD01EF8AE
S2140089D026E005F826E0551CAB4206D902327D7823
S2140089E04D70934201D9BA788A70D0F81421D0F825
S2140089F01851C0F804311A44ED1AC0F81421C0F812
S214008A0018511DB98030402108F0BAF962B620B27C
S214008A1003B0BDE8F08FB8469146009558E731445C
S214008A2001F03F01C0F80411EBE7571885E7BE4692
S214008A309046B2E77D1E571812F801EB05F801EFD5
S214008A40BA42F9D179E74FF0FF307047421EFD1861
S214008A5017F8011B02F8011FBD42F9D1C5E71746FA
S214008A606FE700BFD0F80421D0F800319A421ABF51
S214008A70D0F80031C05C4FF0FF30704770B5044648
S214008A800E464FF0824508F0D7F950B394F812011D
S214008A9010F0010025D06B7B03F07F03022B01D082
S214008AA0002070BD94F81C0100B970BDD4F80831E0
S214008AB0D4F80C219B1A5A1E0ED4002AE3D0D4F800
S214008AC00C31234483F84060D4F80C31013303F0B2
S214008AD03F03C4F80C3170BD03F13F02002AD2D028
S214008AE0EDE770BDD0F80431D0F80001181A48BF81
S214008AF040307047D0F80831D0F80C219B1A581E29
S214008B0048BF03F13F0070472DE9F04F00F588732A
S214008B1083B04FF00101BFF35B8FD3E84F2FC3E85C
S214008B20441F002CF9D1BFF35B8F12F0FF0F40F00B
S214008B30E480D0F80861D0F80C118E4200F0B681BF
S214008B4000F1400303EB060700F1C005C0F0D88033
S214008B50C6F140021144402928BF40218A4228BF5E
S214008B600A46002A00F0C78106F1400E06F14404CA
S214008B7000EB0E08044400F1C40CE04538BFA542E3
S214008B80C0F0AE810B2A40F2AB816C4214F00304B5
S214008B9000F07F819E5D80F8C060012C00F1C10C62
S214008BA007F1010800F07B817E7880F8C160022C16
S214008BB000F1C20C07F1020800F07181BE7880F85F
S214008BC0C260032607F1030800F1C30C0196A2EB6E
S214008BD0040BABF10407BF080EEB04060137C034E4
S214008BE0064404444FEA87094FF0000E0EF1010ECA
S214008BF056F804AB44F804ABBE45F7D3019CCB450E
S214008C004C4408EB090E0CEB09060FD018F8278029
S214008C100CF82780671CBA4208D902349EF8017007
S214008C207770A24202D99EF80240B470AC188A1A35
S214008C3000F01A81261D00F14407BC4238BFB3423B
S214008C40C0F045810B2A40F242815F4217F00307CD
S214008C5000F0298190F840302370012F04F1010CB8
S214008C6000F1410300F01D8190F841306370022F3F
S214008C7004F1020C00F1420300F0138190F8423038
S214008C80A37004F1030C00F143034FF00309A2EBB9
S214008C900708A8F1040E4FEA9E0E07F140060EF1F3
S214008CA0010E3C4406444FEA8E0A0027013756F868
S214008CB004BB44F804BBBE45F8D8D04509EB0A040B
S214008CC003EB0A070CEB0A0600F0CE8013F82E30F2
S214008CD00CF82E30631C9A4240F2C68002347B7831
S214008CE07370A24240F2C080BB78B3700446284638
S214008CF008F05AF8002840F0BE8003B0BDE8F08FB8
S214008D00891B06F1400206F14404402900EB020CE0
S214008D10044400F1C40E28BF4021F44538BFA542E4
S214008D20C0F0CB800B2940F2C8806C4214F00304DC
S214008D3000F0AB809B5D80F8C030012C00F1C106CE
S214008D4007F1010E00F0A9807B7880F8C130022C74
S214008D5000F1C20607F1020E00F09F80BB7880F893
S214008D60C23007F1030E00F1C3064FF0030C1319CF
S214008D70034404F1C0081A6840F808200F1B3A1F85
S214008D80920800EB08040132D3F80480C4F804808B
S214008D90022A4FEA82084FD0D3F80890C4F8089009
S214008DA0032A49D0D3F80C90C4F80C90042A43D078
S214008DB0D3F81090C4F81090052A3DD0D3F814903C
S214008DC0C4F81490062A37D0D3F81890C4F8189030
S214008DD0072A31D0D3F81C90C4F81C90082A2BD050
S214008DE0D3F82090C4F82090092A25D0D3F82490F0
S214008DF0C4F824900A2A1FD0D3F82890C4F82890E4
S214008E000B2A19D0D3F82C90C4F82C900C2A13D027
S214008E10D3F83090C4F830900D2A0DD0D3F83490A3
S214008E20C4F834900E2A07D0D3F83890C4F8389097
S214008E300F2A01D0DB6BE36347450CEB080306EB18
S214008E4008040EEB080C0FD01EF8227006F82270ED
S214008E505A1C914208D902339CF80120627099424C
S214008E6002D99CF80230A3700446284607F09CFFFF
S214008E7000283FF442AFBFF35B8F002384F8103125
S214008E80BFF35B8F03B0BDE8F08FBE46A4462E4608
S214008E906DE7B8460194AC4699E6A44667E70194A8
S214008EA095E6B946F3E6B946A446F0E6BFF35B8F0F
S214008EB080F81021BFF35B8F1FE700F1BF037C181B
S214008EC017F8012B03F8012FA742F9D1CCE7013C94
S214008ED01A4413F8016B04F8016F9342F9D1C3E703
S214008EE000F1BF0407EB020E17F8016B04F8016FE0
S214008EF0BE45F9D19AE62C4699E600BF38B590F8FB
S214008F001C3103B938BD0546FFF7FEFD4FF082441D
S214008F10D5F80821D5F80C319A420BD007F08CFF13
S214008F2040B195F81231DB0704D5637B03F07F036D
S214008F30022BEDD00024214685F81C41204607F080
S214008F4053FF2146012007F04FFF07F041FFC5F809
S214008F500041C5F81841C5F80441C5F80841C5F8F0
S214008F600C4185F8104185F8114138BD90F8103154
S214008F7003B17047D0F80821D0F80C319A4200F0BF
S214008F80FD802DE9F04F00F5887383B04FF00101A6
S214008F90BFF35B8FD3E84F2FC3E8441F002CF9D1F3
S214008FA0BFF35B8F12F0FF0F40F0E580D0F808614A
S214008FB0D0F80C118E4200F0AB8100F1400303EBB9
S214008FC0060700F1C005C0F0DA80C6F14002114481
S214008FD0402928BF40218A4228BF0A46002A00F0BE
S214008FE0BC8106F1400E06F1440400EB0E08044472
S214008FF000F1C40CE04538BFA542C0F0A3810B2A9F
S21400900040F2A0816C4214F0030400F077819E5D6C
S21400901080F8C060012C00F1C10C07F1010800F0D7
S21400902071817E7880F8C160022C00F1C20C07F1D5
S214009030020800F06581BE7880F8C260032607F15A
S214009040030800F1C30C0196A2EB040BABF1040776
S214009050BF080EEB04060137C034064404444FEA4A
S21400906087094FF0000E0EF1010E56F804AB44F8D7
S21400907004ABBE45F7D3019CCB454C440CEB09062C
S21400908008EB090E0FD018F827800CF82780671C0D
S214009090BA4208D902349EF801707770A24202D90B
S2140090A09EF80240B470AC188A1A58D0261D00F1FB
S2140090B04407BC4238BFB342C0F03B810B2A40F2A3
S2140090C038815F4217F0030700F01F8190F84030A8
S2140090D02370012F04F1010C00F1410300F016810A
S2140090E090F841306370022F04F1020C00F1420345
S2140090F000F00C8190F84230A37004F1030C00F1EC
S21400910043034FF00309A2EB0708A8F1040E4FEA49
S2140091109E0E07F140060EF1010E3C4406444FEA4F
S2140091208E0A0027013756F804BB44F804BBBE4538
S214009130F8D8D04509EB0A040CEB0A0603EB0A073D
S2140091400DD013F82E300CF82E30631C9A4206D938
S21400915002347B787370A24201D9BB78B3700446A0
S214009160284607F021FE30B1BFF35B8F002384F85A
S2140091701031BFF35B8F03B0BDE8F08F7047891BDB
S21400918006F1400206F14404402900EB020C0444B8
S21400919000F1C40E28BF4021F44538BFA542C0F0F8
S2140091A0BE800B2940F2BB806C4214F0030400F032
S2140091B09E809B5D80F8C030012C00F1C10607F14F
S2140091C0010E00F096807B7880F8C130022C00F10A
S2140091D0C20607F1020E00F08E80BB7880F8C2301F
S2140091E007F1030E00F1C3064FF0030C13190344F6
S2140091F004F1C0081A6840F808200F1B3A1F9208AE
S21400920000EB08040132D3F80480C4F80480022A74
S2140092104FEA82084FD0D3F80890C4F80890032A83
S21400922049D0D3F80C90C4F80C90042A43D0D3F855
S2140092301090C4F81090052A3DD0D3F81490C4F8C6
S2140092401490062A37D0D3F81890C4F81890072A36
S21400925031D0D3F81C90C4F81C90082A2BD0D3F831
S2140092602090C4F82090092A25D0D3F82490C4F87A
S21400927024900A2A1FD0D3F82890C4F828900B2AE6
S21400928019D0D3F82C90C4F82C900C2A13D0D3F80D
S2140092903090C4F830900D2A0DD0D3F83490C4F82E
S2140092A034900E2A07D0D3F83890C4F838900F2A96
S2140092B001D0DB6BE36347450CEB080306EB0804C1
S2140092C00EEB080C3FF44BAF1EF8227006F8227027
S2140092D05A1C91427FF643AF02339CF8012062701D
S2140092E099427FF63CAF9CF80230A37037E7BE4643
S2140092F02E46A4467AE74FF0020C77E7B846AC460F
S2140093000194A1E6012601969EE6A446B946FAE631
S214009310BFF35B8F80F81021BFF35B8F2BE700F164
S214009320BF037C1817F8012B03F8012FA742F9D1C9
S21400933015E7013C1A4413F8016B04F8016F9342D9
S214009340F9D10CE700F1BF0407EB020E17F8016B2A
S21400935004F8016FBE45F9D1A5E62C46A4E600BF89
S21400936008B5FEF785FF014B186008BD1C130020EA
S214009370406A7047007970470120704738B5044648
S2140093800AF012F82046144B40F8303B04F068F917
S214009390124A13492260002300203C320125A4F81B
S2140093A0FC30C4F86431C4F86831C4F86C31C4F8D1
S2140093B07031C4F87431C4E94C01C4E95001C4E901
S2140093C05401C4E956012263C4F8285184F83831A0
S2140093D084F84831204638BD40ED020084D50200AE
S2140093E00000F03F2DE9F04FC64BDFF858A3C64A01
S2140093F0C649C74EEDB008AC4FF000084FF0030961
S21400940080F8008006908DE808022046C14B0DF0DB
S2140094100DFBA1686268237B2069CAF80810CAF8A9
S21400942004206169A2698AF80C30E369CAF8100062
S214009430CAF81410206A616ACAF81820CAF81C30E4
S21400944094F8282094F82930CAF82000802794F849
S2140094502A00CAF824108AF82820A18D94F82E2015
S2140094608AF8293094F82F308AF82F308AF82A00A4
S214009470AAF82C108AF82E2014A93A460AF13000D1
S2140094801BF0AEFF3A4634A90AF1B0001BF0A8FF65
S214009490CDF80490A04AD4F83011D4F83401D4F8AA
S2140094A038310092D4F83C21CAF83011D4F8401173
S2140094B0CAF83401CAF84011CAF838312046CAF84A
S2140094C03C21964B964A97490BF0C8FBA068626809
S2140094D094F80CE02369B0607260A069E26986F8CF
S2140094E00CE0336194F828E0636A94F829C0656953
S2140094F0B4F82CA0B061F26194F82A00226A736274
S21400950086F828E094F82E3094F82FE086F829C0E4
S21400951086F82E3086F82FE014A97561326286F838
S2140095202A003A46A6F82CA006F130001BF058FF99
S2140095303A4634A906F1B0001BF052FFD4F8403189
S214009540D4F83011D4F83421C6F84031D4F8383184
S214009550C6F83011C6F83421C6F83831D4F83C3194
S21400956094F844E1C6F83C3120464FF4004186F8B2
S21400957044E10DF001F801266B4B94F806A0B4F810
S21400958004C0DFF8C4E101960093A5688EF806A033
S2140095903946AEF804C0CEF808502046634B644AFD
S2140095A0644F08F037FF04F108000FC87B61D4F859
S2140095B02A30C7F82A30236B94F806E03B63636BC7
S2140095C0B4F804A094F818C0E56987F806E0B86017
S2140095D094F819E0206AF9603A61616A94F82820E4
S2140095E07B63A36BA7F804A087F818C087F819E078
S2140095F0FD61796287F82820BB63386294F83C00E6
S214009600E36C216C94F844C094F845E0A26C87F8AB
S2140096103C00FB64206DB4F85C3094F83DA0656DAA
S214009620396487F844C094F8581094F859C087F8FD
S21400963045E0BA6494F85AE094F85B203865A7F8D9
S2140096405C30206E636E87F859C087F85AE087F85A
S2140096503DA07D6587F85B2038667B6687F85810E6
S214009660A16E354B00962046B966344A344F4021E9
S21400967009F0D6FB04F108000FC87B61D4F82A3045
S214009680C7F82A30236B94F806E03B63636BB4F8A4
S21400969004A094F818C0E56987F806E0B86094F866
S2140096A019E0206AF9603A61616A94F828207B63C1
S2140096B0A36BA7F804A087F818C087F819E0FD6127
S2140096C0386287F82820BB63796294F83C100096CD
S2140096D0E56C94F83DA0226C94F844C094F845E0FC
S2140096E087F83C10FD64A16C256D87F83DA03A64B0
S2140096F0B4F85CA094F8582087F844C087F845E092
S21400970024E000BFF8D8020058D90200E8D80200CA
S214009710EC21002018D8020038D90200D8D8020060
S21400972008D8020028D90200F8DA0200B8DA0200E7
S21400973088D90200481B0020C8DA020068DA020056
S214009740B41B0020A8200020DC1D002094F85AC07E
S21400975094F85BE0B9643D6594F85910656D7D65D5
S21400976087F8582087F8591087F85AC087F85BE0C2
S214009770A7F85CA02046C14BC14AC24F202109F081
S2140097804FFB04F108000FC87B61D4F82A30C7F8F5
S2140097902A30236B94F806E03B63636BB4F804A0AE
S2140097A094F818C0E56987F806E0B86094F819E000
S2140097B0206AF9603A61616A94F828207B63A36B9B
S2140097C0A7F804A087F818C087F819E0FD6138628A
S2140097D087F82820BB63796294F83C100096E56C05
S2140097E094F83DA0226C94F844C094F845E087F8BD
S2140097F03C10FD64A16C256D87F83DA03A64B4F872
S2140098005CA094F8582087F844C087F845E094F8A0
S2140098105AC094F85BE0B9643D6594F85910656DDC
S2140098207D6587F8582087F8591087F85AC087F85A
S2140098305BE0A7F85CA02046934B944A944F102117
S21400984009F0EEFA04F108000FC87B61D4F82A305C
S214009850C7F82A30236BB4F804E03B63636B94F8D4
S21400986006A094F818C0E569A7F804E0B86094F874
S21400987019E0206AF9603A61616A94F828207B63EF
S214009880A36B87F806A087F818C087F819E0FD6173
S2140098903862796287F82820BB6394F83C3087F8F2
S2140098A03C3094F83D20216C94F844E094F8450050
S2140098B0A36CCDF80C8087F83D20E26C3964FA641E
S2140098C094F85A10226D656D87F84500BB6494F8CD
