S024000053746570416E64446972656374696F6E4E6F6E436C656172506174682E7372656311
S2140040000000032021960000D1420000D1420000AB
S214004010D1420000D1420000D14200000000000062
S214004020000000000000000000000000D142000078
S214004030D142000000000000D1420000BD94000004
S214004040D1420000D1420000D1420000D14200001F
S214004050D1420000D1420000D1420000D14200000F
S214004060D1420000D1420000D1420000D1420000FF
S21400407091930000A1930000B1930000C19300004B
S214004080D1930000E1930000F1930000019400003A
S2140040901194000021940000319400004194000027
S2140040A0519400005D9400006D9400007D94000023
S2140040B0D1420000D1420000D1420000D1420000AF
S2140040C0D1420000D1420000D1420000D14200009F
S2140040D0D1420000D1420000D1420000D14200008F
S2140040E0D1420000D14200000000000000000000A5
S2140040F000000000D142000025930000D1420000DD
S214004100319300003D930000D1420000D1420000F0
S214004110D1420000D142000049930000D142000085
S2140041205593000061930000D1420000D142000088
S214004130D1420000D1420000D1420000D14200002E
S214004140D1420000D1420000D1420000D14200001E
S214004150D1420000D1420000D1420000D14200000E
S214004160D1420000D14200006D930000D142000011
S2140041707993000085930000000000000000000016
S2140041800D3C0100113C0100153C0100193C0100EA
S2140041901993000011950000D1420000D1420000A2
S2140041A0D1420000D1420000D1420000D1420000BE
S2140041B0D1420000D1420000D1420000D1420000AE
S2140041C0D1420000D1420000D1420000D14200009E
S2140041D0D14200008D940000D1420000D142000080
S2140041E0A5940000D1420000D1420000D142000058
S2140041F0D1420000D1420000D1420000D14200006E
S214004200D1420000D1420000D1420000D14200005D
S214004210D1420000D1420000D1420000D14200004D
S214004220D1420000D1420000D1420000D14200003D
S214004230D1420000D1420000D1420000D14200002D
S214004240D1420000D1420000D1420000D14200001D
S214004250D1420000D1420000D1420000D14200000D
S214004260D142000010B5054C237833B9044B13B186
S2140042700448AFF300800123237010BDC00A00205D
S21400428000000000346E02000C4B43B10C480D4990
S21400429010B5AFF300800C48036823B910BD0A4878
S2140042A0036833B97047094B002BF7D0BDE81040C0
S2140042B01847064B002BF5D0184700BF000000003B
S2140042C0346E0200C40A0020B40A00200000000079
S2140042D0FEE700BF2DE9F04F924B934C1D68934EBE
S2140042E08DB02846002106F079FD0A2228460221D4
S2140042F006F004FE21688E4807F076FA61688C485E
S21400430007F09AFA4FF41651304601F041FC05F0DA
S2140043104BFB0546304601F02FFC41F28734304611
S21400432001F024FC90B1834C8348804E012104F1B7
S2140043300B0500F095FC01E0AC420DD014F8011B13
S214004340304601F03DFC0028F6D10EE005F02CFBCF
S214004350401BA042E3D9E6E70D21744801F030FC8B
S21400436018B10A21714801F02BFC734D734F744E3F
S214004370DFF8DCA16D4CDFF8DC91C84618F8011BAD
S214004380204601F01DFC08B14745F7D10A2203A9D3
S2140043904FF4C8501AF0A4FC03A81BF051FD68B1F6
S2140043A003AB03EB000B984601E0D84506D018F89F
S2140043B0011B204601F004FC0028F6D10D21204602
S2140043C001F0FEFB002840F0148201224FF4C85191
S2140043D0594801F007F95B4B0093984618F8011B03
S2140043E0204601F0EDFB40B14645F7D10D212046B1
S2140043F001F0E6FB002840F09E8195F83C30002B4B
S214004400FBD1DFF85481C3461BF8011B204601F0A0
S214004410D7FB40B1DA45F7D10D21204601F0D0FB9D
S214004420002840F0E1814848DFF828B1002105F077
S214004430E5FA1BF8011B204601F0C2FB08B15F45F8
S214004440F7D10A2203A94FF496401AF049FC03A8B4
S2140044501BF0F6FC98B103AB0DF10C0B0344CDF842
S2140044600480D8469B4601E0C34506D018F8011BD9
S214004470204601F0A5FB0028F6D1DDF804800D21CA
S214004480204601F09DFB002840F0A98101224FF450
S21400449096412948DFF8ACB001F0A4F81BF8011BE0
S2140044A0204601F08DFB40B15E45F7D10D21204638
S2140044B001F086FB002840F0488195F83C30002B40
S2140044C0FBD1DFF894B01BF8011B204601F078FB07
S2140044D040B1D345F7D10D21204601F071FB0028ED
S2140044E040F078811848DFF86CB0002105F086FAB5
S2140044F01BF8011B204601F063FB08B15F45F7D1AE
S2140045000A2203A911481AF0EBFB03A81BF098FC3B
S21400451078B303AB0DF10C0B0344CDF80480D846FA
S2140045209B461DE02C1D002000000020B01500203A
S214004530A00B00207C3A0200700B0020993A020083
S214004540CE3A02009C3A0200001C4E0E00CEFFFF40
S214004550DE3A0200883A0200D03A0200C34506D08E
S21400456018F8011B204601F02BFB0028F6D1DDF8D9
S21400457004800D21204601F023FB002840F0258111
S21400458001229E499E48DFF884B201F02BF81BF802
S214004590011B204601F014FB40B15E45F7D10D210A
S2140045A0204601F00DFB002840F0D98095F83C30FD
S2140045B0002BFBD1DFF858B21BF8011B204601F098
S2140045C0FFFA40B1D345F7D10D21204601F0F8FAA5
S2140045D0002840F0F5808B48DFF838B2002105F05F
S2140045E00DFA1BF8011B204601F0EAFA08B15F45F8
S2140045F0F7D10A2203A984481AF072FB03A81BF01D
S2140046001FFC98B103AB0DF10C0B0344CDF80480EE
S214004610D8469B4601E0D84506D018F8011B204630
S21400462001F0CEFA0028F6D1DDF804800D212046F0
S21400463001F0C6FA002840F0BE8001227249704898
S214004640DFF8C8B100F0CEFF1BF8011B204601F0D2
S214004650B7FA40B15E45F7D10D21204601F0B0FA19
S214004660002840F08F8095F83C30002BFBD1DFF817
S214004670A0B11BF8011B204601F0A2FA40B1D345B9
S214004680F7D10D21204601F09BFA002840F08E80DD
S2140046905C48002105F0B2F919F8011B204601F02C
S2140046A08FFA08B14F45F7D10A2203A956481AF0E7
S2140046B017FB03A81BF0C4FB68B103AB03EB0009B0
S2140046C09B4601E0D94506D01BF8011B204601F0A9
S2140046D077FA0028F6D10D21204601F071FA00285D
S2140046E05FD101224849464800F07CFFDDF8009083
S2140046F019F8011B204601F063FA30B14E45F7D198
S2140047000D21204601F05CFA98BB95F83C30002B52
S214004710FBD118F8011B204601F052FA30B1D04503
S214004720F7D10D21204601F04BFAA8BB35480021F1
S21400473005F064F91FE60A21204601F041FA95F8D3
S2140047403C30002B7FF459AE5BE60A21204601F090
S21400475037FA95F83C30002B7FF4AFAEB1E60A216D
S214004760204601F02DFA95F83C30002B7FF41EAF62
S21400477020E70A21204601F023FA95F83C30002B6A
S214004780C3D1C6E70A21204601F01AFA95F83C3054
S214004790002B7FF468AF6AE70A21204601F010FA82
S2140047A0C4E70A21204601F00BFA9AE70A212046C0
S2140047B001F006FA6CE70A21204601F001FA3CE710
S2140047C00A21204601F0FCF905E70A21204601F0FF
S2140047D0F7F9D5E60A21204601F0F2F982E60A2129
S2140047E0204601F0EDF951E60A21204601F0E8F9ED
S2140047F019E60A21204601F0E3F9E6E500CEFFFFC0
S214004800700B0020001C4E0E00E7FFFF9C3A0200D3
S214004810D03A0200883A02000020704790F918004B
S214004820704700BF062070470120704790F81401BB
S214004830704700BF8079704738B583798B4200F0A7
S214004840A780A1F109030D460446032B00F2A280BF
S214004850DFE803F07A464602303006F07FFF72B695
S214004860D4F8B40003680022A4F810213BB1D4F8B1
S214004870C410D4F8C0200B681340FCD10360D4F8F1
S214004880BC0003680022A4F812213BB1D4F8CC1077
S214004890D4F8C8200B681340FCD10360D4F8A410E9
S2140048A03D4A91F90130897802EBC3130B440C2082
S2140048B093F8401041F0010183F84010D4F8A81096
S2140048C091F90130897802EBC3130B4493F840202A
S2140048D042F0010283F84020A07162B6012038BD84
S2140048E0303006F03BFF72B6D4F8BC0003680022F6
S2140048F0A4F812213BB1D4F8CC10D4F8C8200B6829
S2140049001340FCD10360D4F8A410234A91F9013077
S214004910897802EBC3130B4493F840106FF3000141
S21400492083F84010D4F8A81091F90130897802EB8A
S214004930C3130B4493F8402042F0010283F8402052
S214004940A57162B6012038BD303006F007FFD4F8F6
S214004950A410114A91F90130897802EBC3130B4475
S214004960092593F840106FF3000183F84010D4F83F
S214004970A81091F90130897802EBC3130B4401208B
S21400498093F840206FF3000283F84020A57138BDED
S214004990012038BD002038BD0080004183790A2BF5
S2140049A00FD090F83D30A3B1D0F8A430D0F8B020A6
S2140049B093F90130DB0103F1824303F500435A61AA
S2140049C0704790F8FC309B07EBD590F83D30002BF5
S2140049D0EAD0D0F8A430D0F8B02093F90130DB014B
S2140049E003F1824303F500439A617047A0F130005B
S2140049F0D4E700BF2DE9F047089FBDF82490BDF826
S214004A002880044616468A463A4600211D460AF085
S214004A102BFB04F1300006F06FFE6A4BC4F8A0A032
S214004A2003F13C02C4F8A460C4F8AC702360C4F878
S214004A30A8502263B2786449DFF898A1634F012337
S214004A4003FA02F2C4F8B020AA7884F8D69003FAE3
S214004A5002F24FF0020C4FF07D0E0020C4F8B82092
S214004A6084F8D7800022A4F8E2C04FF019084FF669
S214004A70FF7CA4F8F8E04FF003094FF0FF3E84F8FF
S214004A80D820A4F8DA20A4F8DC20A4F8DE20A4F8C5
S214004A90E02084F8E42084F8F52084F8F620A4F8D2
S214004AA0FC2084F8002184F80121C4F8F0A084F8E2
S214004AB0F490A4F8D0C0A4F8D2C0A4F8D4C0C4F827
S214004AC0E880C4F8ECE0C4F80421C4E94C01C4E969
S214004AD05001C4E95401C4E95601C4F80821C4F8D9
S214004AE0102184F8142184F81521C4F81821C4F87C
S214004AF01C21C4F8202184F8382184F8482184F841
S214004B006021C4F86421C4F86821C4F86C21C4F894
S214004B107021C4F87421C4F87821C4F87C2184F884
S214004B20882184F8892184F88A21C4F88C21C4F865
S214004B300C81C4F82831C4F880E1C4F884E16376B7
S214004B40337B042B98BF224A57F82300767B98BF06
S214004B50D25CB6FBF2F102FB11624FF48073D2B264
S214004B6002F11C0103FA02F200EB810102F47C520E
S214004B700830C4F8B410C4F8C400C4F8C0202A7BB7
S214004B80687B57F82210042A9ABF114B9A5C0022C1
S214004B90B0FBF2F302FB1303DBB24FF4807203F1B7
S214004BA01C0002FA03F301EB800003F47C53083187
S214004BB0C4F8BC00C4F8CC10C4F8C8302046BDE821
S214004BC0F08700BF043B02000000F03FE83A020016
S214004BD0E03A0200003C1CC690F81521002A38D0A6
S214004BE082790A2A70B5044600D070BD90F83D2040
S214004BF0CB0F81EAE1769A420D46A6EBE17604D029
S214004C00026880F83D30136B9847A06B636CB04227
S214004C10A8BF3046002DB4BF424202461344D4F823
S214004C20BC5063642B68A4F8120186B2B34207D066
S214004C30D4F8CC10D4F8C8200B681342FCD12E60F0
S214004C40002894F8643105DD43F0020384F86431EB
S214004C5070BD70476FF3410384F86431C5E700BF49
S214004C6030B590F87A3183B00446002B71D190F8B5
S214004C70793183F0010394F8002194F801518A42B7
S214004C8031D094F8140184F80011002284F8012130
S214004C90C4F8082158B3002172B66BB371B340F262
S214004CA0E2420123C4F87C2184F8793162B6A37904
S214004CB00A2B2AD094F889318B4235D0D4F8A0300C
S214004CC000293BD1BFF35B8F2D4ADB4352E8000F30
S214004CD0184042E80005002DF8D1BFF35B8F84F83A
S214004CE0891103B030BD94F81421002A33D100296D
S214004CF0D1D072B6002BD1D10029D7D1002384F8A9
S214004D007A3162B6A3790A2BD4D119B994F86431F2
S214004D109A0728D494F8FC30DB0794F8893148BF0A
S214004D2081F001018B42C9D1002DD8D094F8013111
S214004D30002BD4D1D4F8A0300029C3D0BFF35B8FAA
S214004D400F4A52E8000F184342E80005002DC4D071
S214004D50F7E700238FE7002284F8001184F801218A
S214004D60C4F8082197E794F87431019143F01003D2
S214004D7084F8743104F1300006F0F0FC0199C9E7BC
S214004D80F41B002090F87831002B4AD0354A90F872
S214004D900131126800B512698BB990F88A31012B7F
S214004DA022D0022B3BD190F8F430002B45D1D0F81E
S214004DB08C31002B3CD180F88A315DF804FBD0F8AA
S214004DC00431D0F80C11D31A8B422BD3D0F808310B
S214004DD0C0F80421013BC0F808314BB980F8013116
S214004DE090F88A31012BDCD1022380F88A31DAE789
S214004DF01D4BD0F8A020BFF35B8F53E8001F514037
S214004E0043E8001EBEF1000FF7D1BFF35B8F90F8AA
S214004E108A31012BC5D190F80131002BE4D05DF822
S214004E2004FB704790F88A31022BBCD05DF804FB77
S214004E30013BC0F88C315DF804FB002200F5BA7324
S214004E40BFF35B8F53E8001F21F0200143E8001EEC
S214004E50BEF1000FF6D1BFF35B8F80F88A215DF8B4
S214004E6004FB00BF141D0020F41B002090F87A31CC
S214004E7070B5044680F81411002B63D190F8793190
S214004E8083F0010394F8016139BB94F8005172B6BF
S214004E905BB365B340F2E2420123C4F87C2184F898
S214004EA0793162B6A3790A2B28D094F88931AB42BF
S214004EB033D0D4F8A030002D39D1BFF35B8F284A09
S214004EC0DB4352E8001F194042E800100028F8D1E2
S214004ED0BFF35B8F84F8895170BD002584F80151BB
S214004EE0C4F8085172B6002BD3D1002DD9D10023B7
S214004EF084F87A3162B6A3790A2BD6D11DB994F814
S214004F0064319A0720D494F8FC30DB0794F8893192
S214004F1048BF85F00105AB42CBD1002EDAD094F81D
S214004F200131002BD6D1D4F8A030002DC5D0BFF368
S214004F305B8F0B4A52E8001F194342E80010002816
S214004F40C6D0F7E700239DE794F8743143F01003CA
S214004F5084F8743104F1300006F000FCD3E700BF9B
S214004F60F41B002000000000F8B590F8783103B973
S214004F70F8BD044609F0C8FFA379984A94F8D610FD
S214004F800A2B08BF94F8FC3052F8217008BFC3F310
S214004F90800694F8D830BD7A03F1FF3318BF002698
S214004FA0012BEDB240F2DF8094F8283073408C4A33
S214004FB084F8F430C4F8F020B4F9D010481C12D0AD
S214004FC0884803F0D1FE03689B6805469847092881
S214004FD000F06582284609F01DFF011C18BF01215C
S214004FE02046FFF73DFEB4F9D2104A1C16D0A3792E
S214004FF00A2B39D07B4803F0B7FE03689B6805464A
S2140050009847092800F0D080284609F003FFA379C6
S214005010092B00F0D3800B2B00F0D080B4F9D4100D
S2140050204B1C21D0A3790A2B1ED06E4803F09CFEA1
S21400503003689B6805469847092800F04C82284676
S21400504009F0E8FEA379092B0ED1D4F8A830D4F8DD
S214005050B82093F90130DB0103F1824303F50043E6
S214005060002800F0CC815A61B4F980114F1C10D092
S2140050705C4803F079FE03689B6805469847092854
S21400508000F075812B6828461B689847042800F0B6
S2140050906E81B4F984114E1C15D0524803F064FE9C
S2140050A003689B6805469847092800F0EE81284665
S2140050B009F0B0FE94F84030B0FA80F0400960F392
S2140050C0C30384F84030B4F982114D1C15D045480E
S2140050D003F04AFE03689B6805469847092800F0D7
S2140050E0D981284609F096FE94F84030B0FA80F050
S2140050F0400960F3041384F84030B4F98611D4F8FC
S2140051006451D4F87461481C00F02A81354803F0D5
S2140051102BFE03689B6807469847092800F0D38152
S214005120384609F077FEB0FA80F77F0994F83C30ED
S214005130002B40F0298184F8883194F83E1067F3FC
S2140051401045002952D194F8642192074ED594F860
S2140051503D0094F84020002800F04A81D70649D543
S21400516046F0040646E0AA0700F074813323BB72BB
S214005170B4F8E230012293FA12F39AB2003218BF62
S2140051800122A4F8E23084F87B21EB0600F16B8163
S21400519094F87B31002B40F00781D4F8E83003EB1D
S2140051A08303A4F8F83007E70F4BB4F9D210186859
S2140051B00AF086FEA379092B7FF42DAFD4F8A4302D
S2140051C0D4F8B02093F90130DB0103F1824303F5F4
S2140051D00043002800F011815A611FE74C3B020093
S2140051E0003C1CC6FC1A00202C20002094F83D0031
S2140051F094F84020C2F3C00767F38E35C2F300125E
S21400520094F8017162F3CF3567F34D3560F3C3054B
S214005210002B00F0A380981F18BF012094F87A2175
S21400522060F34105002A00F0938094F8F40011B171
S214005230AF0740F1D7806FF30005032B69D015F058
S214005240020340F0C680002963D063F3820594F819
S214005250793161F3861560F3C815002B5DD0D4F85C
S2140052607C31002B40F3268162F345150122013B79
S21400527062F38C25C4F87C3105F002031BB1B3063B
S21400528048BF46F00106321C18BF0122D4F8703120
S214005290C4F8746162F34925C4F8645125EA03032F
S2140052A004F5B472BFF35B8F52E8001F194342E85F
S2140052B000100028F8D1BFF35B8FD4F87021BFF33D
S2140052C05B8F04F5B67322EA050553E8002F2A43E0
S2140052D043E800210029F8D1BFF35B8FA379D4F807
S2140052E06421C4F870210A2B7FF442AE94F815317D
S2140052F0002B00F09480D4F81801002800F08F806E
S214005300D4F81C319C427FF433AEBDE8F84006F07A
S214005310B7BB031C18BF012397E762F34515002AA5
S2140053203AD094F8D83033B938B905F002030422DD
S21400533062F38C25A2E7002863D015F00203F6D1AD
S214005340032262F38C2563F3041505F0020395E748
S21400535062F3000594F8F400134676E718465DE716
S21400536094F83C3093BB84F888311F46E5E694F801
S214005370D81081B32B6894F8F4105B6909B194F8DF
S2140053807A112846984784E607B394F888110029CE
S21400539000F0AC800F46D0E662F38C25AA077FF5B6
S2140053A072AF46F010066AE794F8283094F8F510C5
S2140053B07340DAB2914200F0BF80D4F8E83084F847
S2140053C0F52003EB8303A4F8F830F5E594F888712C
S2140053D0B3E6002339E794F8F4202B68012A5B69CA
S2140053E0CFD1CCE701287FF426AF45F0010524E7AE
S2140053F0170748BF46F00206FCE69A610EE69A6179
S21400540032E6022363F38C2545F0100504F13000E4
S21400541006F0A4F946F0200605F002032EE704F194
S2140054203005284605F0F2FE284606F051FAD4F874
S214005430BC50606B2A68A4F8120180B282423FF426
S21400544097ADD4F8CC10D4F8C8200B681342FCD122
S2140054502860F8BD04F0A8FAD4F8EC30C01A032887
S2140054603FF684AE91E604F09FFAB4F8E230C4F852
S214005470EC00002B46D03023BB72002294F87B3120
S21400548084F8F620A4F8E22084E62B6828461B69F8
S21400549098470FE62B6828461B69984724E64E4B2C
S2140054A0B4F9D01018680AF00BFD01462046FFF745
S2140054B0D7FB98E50122002345F0200584F87A21E1
S2140054C084F879312DE73B6838461B699847B0FA6F
S2140054D080F77F092AE6404BB4F9D41018680AF022
S2140054E0EFFCA379092B3FF4B0ADBDE504F1300025
S2140054F006F04EF9012384F8883146F0080694F841
S2140055003C301AE6AD067FF543AEB4F8DC10B4F8CE
S214005510E020A4F8DA10A4F8DE20F88BA4F8DC006B
S21400552094F8F600BD8BA4F8E05070B994F87B317F
S214005530012284F8F6202DE6B4F8F820002A3FF47D
S21400554036AD013AA4F8F82036E507EE901AB8EE24
S214005550677A07EE902AF8EE677A84F87B31C7EE12
S214005560276A16EE900A17F0F7FA17A3D3E9002376
S21400557017F092F916A3D3E9002317F041FB17F0B2
S21400558021FE07EE900A1EB19FED147A77EE677A39
S21400559094F8D830C4ED3C7A022B04D0022384F869
S2140055A0F4300023C4E717EE900A17F0D5FA00226D
S2140055B00B4B17F071F902460B4617F06FF917F010
S2140055C001FEC4F8F000E9E79A9999999999A93FDC
S2140055D0721CC7711CC75B402C2000200000C8420C
S2140055E0000049402DE9F84304460F469046002A3D
S2140055F054D1456C4D1BED0FD4F87431002B4BD0B5
S21400560094F8743143F0010384F87431002694F85A
S214005610003133B994F8742142F010021E4684F823
S2140056207421B4F98611481C16D0294803F09CFB57
S21400563003689B6881469847092840D0484609F089
S214005640E9FBB0FA80F0400930B194F8743143F0C9
S214005650080384F87431002694F840306DB1D906FA
S21400566026D496B101234246394684F83E3004F1EA
S2140056703000BDE8F84305F045BD1A07F1D594F8AB
S214005680743143F0020384F8743194F864319B0754
S21400569006D40020BDE8F8830126B8E7CD0FABE7B7
S2140056A004F13000002106F073F80020BDE8F8830E
S2140056B094F8743143F0040384F87431E5E7D9F8BC
S2140056C0003048461B699847B0FA80F04009BBE7AF
S2140056D0FC1A0020A0F13000FFF784BFF8B5D0F820
S2140056E0743104460E46002B4AD090F8743143F0CD
S2140056F0010380F87431002594F8003133B994F82A
S214005700742142F010021D4684F87421B4F9861103
S214005710481C16D0264803F027FB03689B680746FC
S214005720984709283CD0384609F074FBB0FA80F058
S214005730400930B194F8743143F0080384F87431AA
S2140057400025002E94F840300CDAD90621D48DB10D
S2140057500023314684F83E3004F13000BDE8F840BE
S21400576005F00ABD1A07F2D594F8743143F0020327
S21400577084F8743194F864319B0703D40020F8BD94
S2140057800125B9E704F13000002106F001F80020F9
S214005790F8BD94F8743143F0040384F87431E9E7F3
S2140057A03B6838461B699847B0FA80F04009C0E766
S2140057B0FC1A0020A0F13000FFF790BFF8B5D0F833
S2140057C0A430BC4D93F90130D0F8B02005EBC313DC
S2140057D004469A61D0F8A830D0F8B82093F9013082
S2140057E005EBC3130E469A610021FFF739FA3146DE
S2140057F0204609F023FBD4F8A43093F901209878CA
S21400580005EBC2121318002783F84070D4F8A810CE
S21400581091F901308E78DB01E9188D1903F1824386
S21400582085F84070D4F8B0509560D4F8B8508D60C4
S21400583002EB500210F0010F92F830104FF0050006
S21400584003F5004314BF60F3071160F3030103EB95
S214005850560382F8301093F83020F0074FF0050119
S2140058604CBF61F3071261F3030283F8302023680C
S214005870914A5B68934240F01981A379092B22D0A4
S21400588004F1300005F06AFFD4F8A410894B91F9B2
S2140058900120897803EBC2120A44092092F84010CE
S2140058A06FF3000182F84010D4F8A82092F9011096
S2140058B0927803EBC113134493F840206FF3000271
S2140058C083F84020A071E3682269DB0103F182417E
S2140058D001F5004101EB520103F1824391F83000DB
S2140058E012F0010503F50043134414BF6FF30710CD
S2140058F065F3030081F8300093F840206F4942F0CA
S214005900010283F8402094F8D60051F820301A6837
S2140059106FF341021A601A699207FCD41A6842F0C3
S21400592001021A601A6912F00102FBD11D6864496F
S21400593062F305151D601D6862F314551D601D6831
S21400594062F355551D601D6845F480351D601D6861
S21400595045F400351D601D6862F3CB251D601D688B
S21400596062F30A251D601D6845F080051D601D68F0
S21400597045F040051D601D6862F383051D60DD88E7
S214005980052666F30205DD80DD8845F02005DD800E
S214005990DD8862F30C35DD80DD8862F34D35DD8011
S2140059A0DD8862F30825DD80DD8845F01005DD80A2
S2140059B00D7862F341050D70D4F8AC208E68D5786A
S2140059C00122AA4016438E60EF088E69BF0007F1D9
S2140059D0804E16430EF5205E8E6105F00706DEF853
S2140059E01CC0B7000426BE4046EA0C06CEF81C6073
S2140059F0CE6892B262F30F06CE600A7842F00202D8
S214005A000A704A6812F00202FBD194F8D7E02D49DA
S214005A100EF12B073E4651F827C062F3861C41F86C
S214005A2027C051F826205706FBD451F82620254FCC
S214005A304FF0060C6CF3030241F8262051F826209E
S214005A4042F0400241F826207A6812F0180FFBD187
S214005A501D4A1E4E74300EF101010FFA8EFE42F8FA
S214005A60201006EBCE02917941F002019171D179B6
S214005A70C807FCD4123505F07F0545F4007546F8D6
S214005A803E50D1798907FCD41A6842F002021A60A7
S214005A901A6912F00202FBD10123C4F86421C4F88B
S214005AA06821C4F86C2184F87831F8BD09212046B5
S214005AB0984708E700800041394800004C3B020048
S214005AC000280040001C004000E0004120E00041AB
S214005AD04FF0FF30704700BFA1F10200B0FA80F02F
S214005AE04009704702207047A1F10100B0FA80F02B
S214005AF040097047A1F10800B0FA80F040097047ED
S214005B00807A7047A0F10400FAE700BF807A401A56
S214005B10B0FA80F040097047A0F10400F6E700BF35
S214005B2008207047A0F10400FAE700BF0020704785
S214005B30A0F10400FAE700BF112381818372704749
S214005B40A0F10400F8E700BF704700BFA0F1040012
S214005B50FAE700BF014B186800F05EBEE00A0020BE
S214005B60014B186800F066BEE00A0020014B18687A
S214005B7000F07ABEE00A0020014B186800F030BE44
S214005B80E00A0020014B186801F004BAE00A002081
S214005B90014B186800F01CBEE00A0020014B186894
S214005BA000F018BEE00A0020014B186800F07ABE2C
S214005BB0E00A0020014B186800F0A0BFE00A0020B1
S214005BC0014B186800F0A6BFE00A0020014B1868D9
S214005BD000F0D4BFE00A0020014B186800F0D6BFE2
S214005BE0E00A00200368044A1B6B934203D1034B70
S214005BF0186800F039BE18476D5B0000E00A002008
S214005C00A0F10400EEE700BF08B50368064A1B6B68
S214005C10934205D1054B186800F026FE00B208BD79
S214005C20984700B208BD00BF6D5B0000E00A002088
S214005C30A0F10400E8E700BF08B5036861B90B4AA5
S214005C40DB68934205D10A4B186801F0A3F90120DE
S214005C5008BD9847012008BD064A9B689342F8D1C4
S214005C60034B186800F0BCFD012008BD855B0000F2
S214005C70E00A0020795B0000A0F10400DCE700BF2A
S214005C8030B583B01A4DADF804009DF804102B68AB
S214005C9011F00104A3F8120112D12146204606F0A5
S214005CA0F9FE2146012006F0F5FE06F0E7FE06F0B6
S214005CB01FFF0368B3F5966F12D0002003B030BD07
S214005CC00C49002006F0E6FE0B49012006F0E2FE35
S214005CD028684021803006F0A9FE002003B030BDC1
S214005CE00121064803F0FCFA002003B030BD00BFD7
S214005CF0E00A0020015D0000395F0000FC1A002069
S214005D002DE9F04F83B072B68A490B6803F1800024
S214005D10C3F81821C3F8140162B6086872B6D0F842
S214005D200431D0F80021D0F818419B1A48BF403300
S214005D30002C00F0D680D3F13F0300F0D280D0F8DC
S214005D400451D0F81421A34228BF2346C5F14001D0
S214005D50994228BF19464619002900F0E8802C1DF4
S214005D600444171DBE4238BFA242C0F0CE800B29A5
S214005D7040F2CB80544214F0030400F0B78017784A
S214005D804755012C06F1010C02F1010800F0B08025
S214005D9057787770022C06F1020C02F1020800F028
S214005DA0A7809778B77006F1030C032602F1030864
S214005DB00196A1EB040BABF10406B6082F190136C9
S214005DC04FEA8609074414444FF0000E0EF1010E08
S214005DD054F804AB47F804AB7645F7D8019CCB459E
S214005DE04C440CEB090708EB090E00F0898018F804
S214005DF026800CF82680661CB14240F28180023470
S214005E009EF801607E70A1427AD99EF80240BC706E
S214005E105618D0F81421D0F818410A44641A5B1AB0
S214005E20C0F81421C0F8184164D0311D021D9642F6
S214005E3038BF8842044671D30B2B6FD9724212F0DA
S214005E4003025FD031780170012A00F1010406F1E7
S214005E50010E58D071784170022A00F1020406F152
S214005E60020E50D0B1788170C41C06F1030E0327D1
S214005E70A3EB020CACF1040189084D1C16444FEA52
S214005E80850802440021013156F8049B42F8049B21
S214005E908D42F8D8C44507EB080204EB08010EEB68
S214005EA008060DD01EF8257004F82570541CA34271
S214005EB006D9023274784C70934201D9B2788A704F
S214005EC0D0F81421D0F81841C0F804311A44E41A66
S214005ED0C0F81421C0F818411CB98030402106F0E3
S214005EE0A5FD62B6012003B0BDE8F08FB44690462B
S214005EF001945EE7294401F03F01C0F80411EBE786
S214005F00561886E7B6461746B2E7741E561812F8B5
S214005F10017B04F8017FB242F9D17AE7421EF418F9
S214005F2016F8011B02F8011FB442F9D1C8E716465D
S214005F3073E700BFE00A00202DE9F04FD84883B091
S214005F40002940F0AB810168D1F808311A4402F00C
S214005F503F02C1F808210023BFF35B8F81F81031A0
S214005F60BFF35B8F0468BFF35B8F4FF0010104F54E
S214005F708873D3E84F2FC3E8401F0028F9D1BFF33A
S214005F805B8F12F0FF0F40F0DC80D4F80861D4F885
S214005F900C118E4200F0918104F1400202EB0607DC
S214005FA004F1C00EC0F0D180C6F140031944402968
S214005FB028BF40218B4228BF0B46002B00F0A18152
S214005FC006F1400506F1440C6019A44404F1C40827
S214005FD0404538BFE645C0F08A810B2B40F28781EA
S214005FE0404210F0030000F06181965D84F8C060C6
S214005FF0012804F1C10C07F1010800F059817E78F0
S21400600084F8C160022804F1C20C07F1020800F00F
S2140060104F81BE7884F8C260032607F1030804F1B6
S214006020C30C0196A3EB000BABF10406B6080544BF
S2140060300136C030254420444FEA86090027013740
S21400604055F804AB40F804ABB742F8D30198CB45FB
S21400605048440CEB090508EB09070DD018F8268014
S2140060600CF82680461CB34206D902307E786E7045
S214006070834201D9B878A8700EEB0300CB1A00F063
S214006080FC8004F14405061DB24238BFA842C0F0A9
S21400609025810B2B40F22281554215F0030500F0B6
S2140060A0098194F840200270012D00F1010804F1E6
S2140060B0410200F0008194F841204270022D00F168
S2140060C0020804F1420200F0F68094F84220827042
S2140060D000F1030804F143020327A3EB0509A9F125
S2140060E00406B60805F1400C01362844A4444FEADD
S2140060F0860B4FF0000A0AF1010A5CF8045B40F8D0
S214006100045B5645F7D8D9455F4408EB0B0002EB15
S2140061100B0500F0B28012F8262008F826207A1C1C
S214006120934240F2AA8002376A784270BB4240F23D
S214006130A480AB788370704606F08CFC002840F094
S214006140A280012003B0BDE8F08F891B06F1400352
S21400615006F14400402904EB0308204404F1C4057A
S21400616028BF4021A84538BF8645C0F0AD800B2922
S21400617040F2AA80C8F1000818F0030800F09280E8
S214006180925D84F8C020B8F1010F04F1C10507F153
S214006190010600F089807A7884F8C120B8F1020FF1
S2140061A004F1C20507F102067ED0BA7884F8C22050
S2140061B0FE1C04F1C3054FF00309434408F1C00078
S2140061C0E2582250A1EB0808A8F1040223449208E2
S2140061D0013220445F684760022A4FEA820C35D0BD
S2140061E09F688760032A31D0DF68C760042A2DD0F5
S2140061F01F690761052A29D05F694761062A25D0ED
S2140062009F698761072A21D0DF69C761082A1DD0E8
S2140062101F6A0762092A19D05F6A47620A2A15D0E0
S2140062209F6A87620B2A11D0DF6AC7620C2A0DD0DC
S2140062301F6B07630D2A09D05F6B47630E2A05D0D4
S2140062409F6B87630F2A01D0DB6BC363E045E14495
S21400625005EB0C0306EB0C000FD016F8226005F8D1
S214006260226009F10102914207D909F10209427838
S2140062705A70494501D982789A70704606F0EAFB52
S21400628000283FF45EAFBFF35B8F002384F8103125
S2140062900120BFF35B8F03B0BDE8F08F01685AE6BC
S2140062A0E00A00203E467546C14686E7B846F446F4
S2140062B00190B7E680462F460FE7BFF35B8F84F862
S2140062C01021BFF35B8F3CE704F1BF03781817F883
S2140062D0012B03F8012F8742F9D1CEE7013813448A
S2140062E012F8015B00F8015F9A42F9D1C5E704F1A4
S2140062F0BF00FE1817F8015B00F8015FBE42F9D137
S214006300BAE67046BAE600BF70B5164E346814F0AA
S214006310010402D0144B186870BD4FF490700DF055
S214006320FFFD054600F18003C0F800410F49C5F89F
S2140063300441C5F81431C5F80841C5F81841C5F838
S2140063400C4185F81C4185F81041A5F8124185F8E6
S2140063501141032006F09EFB034A012315602846E0
S214006360336070BDDC0A0020240B0020815C000036
S2140063702DE9F041C74AD2F8A8306FF386138CB0E7
S214006380C2F8A830D2F8A8305906FBD4D2F8A83004
S214006390C049042060F30303C2F8A830D2F8A8303E
S2140063A043F04003C2F8A8304B68DB06FCD4BA4B77
S2140063B0BA491A6942F480621A619A6942F0010287
S2140063C09A61A1F1D700032206F010FF04460028C8
S2140063D000F09C81B24B0FCB8DE80F0003681D0FB9
S2140063E0E8B2C3F3036800F130073730092D88BFE1
S2140063F007465FFA88F0C3F3035600F1300C3730D7
S214006400B8F1090FC8BF8446F0B2C3F303458DF850
S21400641011C000F1300C3730092EC8BF8446E8B2F0
S214006420C3F3033E8DF812C000F1300C3730092D4F
S214006430C8BF84465FFA8EF08DF810708DF813C0D2
S214006440C3F3032700F1300C3730BEF1090FD4BF79
S214006450E6468646F8B2C3F303160A468DF814E0FD
S21400646000F1370E3030092FCCBF77460746F0B222
S21400647012688DF8157003F00F0300F137073030FF
S214006480092ECCBF3E460646D8B2150F8DF81660CC
S21400649000F137063030092BCCBF33460346E8B24E
S2140064A0C2F3036C8DF8173000F137033030092D36
S2140064B088BF18465FFA8CF3C2F3035E8DF81800A7
S2140064C003F137003033BCF1090FCCBF84469C463D
S2140064D05FFA8EF3C2F303478DF819C003F1370C49
S2140064E03033BEF1090FD8BF9C46FBB2C2F3033669
S2140064F08DF81AC003F1370C3033092FD8BF9C46ED
S214006500F3B2C2F303258DF81BC003F1370C30330A
S214006510092ED8BF9C46EBB2C2F3031002998DF841
S2140065201CC003F1370C3033092DCCBF65461D4621
S214006530C3B209688DF81D5002F00F0203F137054B
S21400654030330928CCBF28461846D3B24FEA117E0E
S2140065508DF81E0003F137003033C1F30367092AB4
S214006560CCBF02461A465FFA8EF5F8B28DF81F20A9
S21400657005F137023035C1F30356BEF1090F88BF67
S214006580154600F137023030092FC8BF1046F3B267
S21400659003F137028DF821003033C1F30340092E92
S2140065A0C8BF1346C2B2C1F3033E02F13708303209
S2140065B00928D8BF90465FFA8EF2C1F303278DF8FC
S2140065C022302046039B8DF8205002F137043032EB
S2140065D0BEF1090FD8BF1446FAB21B688DF82440E6
S2140065E0C1F3031602F137043032092FCCBF274619
S2140065F01746F2B201F00F018DF8257002F1370749
S2140066003032092ECCBF3E461646CAB21D0F8DF854
S214006610266002F1370630320929CCBF31461146D2
S214006620EAB2C3F3036C8DF8271002F1300137325B
S214006630092D88BF11465FFA8CF2C3F3035E8DF80E
S214006640281002F130013732BCF1090FD4BF8C4656
S21400665094465FFA8EF2C3F3034402F137013032F8
S214006660BEF1090FCCBF8E469646E1B2C3F30337A0
S2140066708DF82AE001F1370E3031092CD8BF8E464E
S214006680FAB2C3F303268DF82BE002F1300E373250
S21400669008E000BF001C004000080040E7000020A3
S2140066A0603C0200092FD4BF77461746C3F3031594
S2140066B0F4B203F00F03DAB2E9B28DF82C7004F1ED
S2140066C030073734092ED8BF3C4601F1300E02F1B0
S2140066D0300737313732092DD8BF7146092BD4BF62
S2140066E03B4613468DF82E108DF82F308DF82380FC
S2140066F08DF829C08DF82D400DF10F030DF12F01F7
S21400670013F8012F20F8022F8B42F9D12A4B2B4A7F
S2140067102B4F2C4D2C4880214FF080764FF0804434
S21400672082F8501382F8511382F8521382F85313EA
S2140067309E609C629F625E6193F8582002F0FB02A6
S21400674083F8582093F8582002F0FE0242F0010227
S21400675083F8582093F83C2002F0F0024FF00071C6
S21400676042F0070283F83C2099609C629D62596162
S21400677093F8592002F0FB0283F8592093F8592029
S21400678002F0FE0242F0010283F8592093F83C2002
S21400679002F00F0242F0700283F83C2006F06EFC16
S2140067A006F026F9094806F097FC06F0ADFC012035
S2140067B00CB0BDE8F08100BF0080004100E100E0C1
S2140067C0000100C0000200C0E40A0020080000200B
S2140067D00120704708B506F08BF9006808BD00BFB9
S2140067E038B590F81C3103B138BD0446012518466B
S2140067F084F81C51064906F04DF92846054906F06E
S21400680049F904F180004021BDE8384006F00EB991
S214006810015D0000395F000003460022C0F8002139
S214006820C0F81821C0F804214021803083F81121D7
S21400683006F0FCB838B504464FF08245D4F8082177
S214006840D4F80C319A4200D138BD06F04BF9002836
S214006850FAD094F81231DB07F6D56B7B03F07F0392
S214006860022BEBD038BD00BF38B5054606F03AF926
S214006870044670B195F8124114F0010409D04FF0A7
S21400688082435C7B04F07F04A4F10204B4FA84F42F
S21400689064090348002103F0B1F8204638BD00BF64
S2140068A0804F1200D0F80031D0F80421934200F057
S2140068B016812DE9F04F5A1C02F03F02C45CC0F866
S2140068C0002183B072B6D0F80431D0F80021D0F899
S2140068D018519B1A48BF4033002D00F0E380D3F1D7
S2140068E03F0300F0DF80D0F80461D0F81421AB42FB
S2140068F028BF2B46C6F14001994228BF1946871982
S214006900002900F0F880351D054402F1040E774595
S21400691038BFAA42C0F0DA800B2940F2D780554231
S21400692015F0030500F0C38092F800E000F806E0DA
S214006930012D07F1010802F1010900F0BA8092F872
S21400694001E087F801E0022D07F1020802F10209D2
S21400695000F0AF8092F802E087F802E007F1030843
S214006960032702F103090097A1EB050BABF104071F
S214006970BF0806EB050E01374FEA870A8644154422
S2140069804FF0000C01940CF1010C55F8044B4EF836
S214006990044B6745F7D8009D019CD345554408EB4A
S2140069A00A0E09EB0A0C00F08C8019F8279008F8FC
S2140069B027906F1CB94240F2848002359CF8017023
S2140069C08EF80170A9427CD99CF802508EF80250CD
S2140069D05718D0F81421D0F818510A446D1A5B1ACB
S2140069E0C0F81421C0F8185165D0011D3A1D904218
S2140069F038BF8F42054675D30B2B73D9424212F02F
S214006A00030260D039780170012A00F1010507F110
S214006A10010E59D079784170022A00F1020507F17B
S214006A20020E51D0B9788170C51C07F1030E4FF0E5
S214006A300308A3EB020CACF1040189084E1C1744B2
S214006A404FEA860902440021013157F804AB42F8A8
S214006A5004AB8E42F8D8CC4508EB090205EB0901D9
S214006A600EEB09070DD01EF826E005F826E0551CAB
S214006A70AB4206D902327D784D70934201D9BA787E
S214006A808A70D0F81421D0F81851C0F804311A448E
S214006A90ED1AC0F81421C0F818511DB980304021F5
S214006AA005F0C4FF62B620B203B0BDE8F08FB8466A
S214006AB09146009558E7314401F03F01C0F80411B3
S214006AC0EBE7571885E7BE469046B2E77D1E571897
S214006AD012F801EB05F801EFBA42F9D179E74FF069
S214006AE0FF307047421EFD1817F8011B02F8011F01
S214006AF0BD42F9D1C5E717466FE700BFD0F80421BD
S214006B00D0F800319A421ABFD0F80031C05C4FF07E
S214006B10FF30704770B504460E464FF0824505F0CC
S214006B20E1FF50B394F8120110F0010025D06B7B02
S214006B3003F07F03022B01D0002070BD94F81C01E7
S214006B4000B970BDD4F80831D4F80C219B1A5A1E2F
S214006B500ED4002AE3D0D4F80C31234483F84060E6
S214006B60D4F80C31013303F03F03C4F80C3170BD88
S214006B7003F13F02002AD2D0EDE770BDD0F8043111
S214006B80D0F80001181A48BF40307047D0F80831D6
S214006B90D0F80C219B1A581E48BF03F13F007047DF
S214006BA02DE9F04F00F5887383B04FF00101BFF375
S214006BB05B8FD3E84F2FC3E8441F002CF9D1BFF3F7
S214006BC05B8F12F0FF0F40F0E480D0F80861D0F839
S214006BD00C118E4200F0B68100F1400303EB06076D
S214006BE000F1C005C0F0D880C6F14002114440292B
S214006BF028BF40218A4228BF0A46002A00F0C781E3
S214006C0006F1400E06F1440400EB0E08044400F1C1
S214006C10C40CE04538BFA542C0F0AE810B2A40F256
S214006C20AB816C4214F0030400F07F819E5D80F817
S214006C30C060012C00F1C10C07F1010800F07B8157
S214006C407E7880F8C160022C00F1C20C07F10208C1
S214006C5000F07181BE7880F8C260032607F1030851
S214006C6000F1C30C0196A2EB040BABF10407BF08BE
S214006C700EEB04060137C034064404444FEA870985
S214006C804FF0000E0EF1010E56F804AB44F804ABBC
S214006C90BE45F7D3019CCB454C4408EB090E0CEBE4
S214006CA009060FD018F827800CF82780671CBA4210
S214006CB008D902349EF801707770A24202D99EF875
S214006CC00240B470AC188A1A00F01A81261D00F132
S214006CD04407BC4238BFB342C0F045810B2A40F29D
S214006CE042815F4217F0030700F0298190F8403098
S214006CF02370012F04F1010C00F1410300F01D8107
S214006D0090F841306370022F04F1020C00F1420348
S214006D1000F0138190F84230A37004F1030C00F1E8
S214006D2043034FF00309A2EB0708A8F1040E4FEA4D
S214006D309E0E07F140060EF1010E3C4406444FEA53
S214006D408E0A0027013756F804BB44F804BBBE453C
S214006D50F8D8D04509EB0A0403EB0A070CEB0A0641
S214006D6000F0CE8013F82E300CF82E30631C9A42BA
S214006D7040F2C68002347B787370A24240F2C08034
S214006D80BB78B3700446284605F064FE002840F041
S214006D90BE8003B0BDE8F08F891B06F1400206F105
S214006DA04404402900EB020C044400F1C40E28BF42
S214006DB04021F44538BFA542C0F0CB800B2940F2F5
S214006DC0C8806C4214F0030400F0AB809B5D80F832
S214006DD0C030012C00F1C10607F1010E00F0A980B9
S214006DE07B7880F8C130022C00F1C20607F1020E53
S214006DF000F09F80BB7880F8C23007F1030E00F1E8
S214006E00C3064FF0030C1319034404F1C0081A68B4
S214006E1040F808200F1B3A1F920800EB08040132C6
S214006E20D3F80480C4F80480022A4FEA82084FD0C0
S214006E30D3F80890C4F80890032A49D0D3F80C90E9
S214006E40C4F80C90042A43D0D3F81090C4F81090DD
S214006E50052A3DD0D3F81490C4F81490062A37D0EB
S214006E60D3F81890C4F81890072A31D0D3F81C909D
S214006E70C4F81C90082A2BD0D3F82090C4F8209091
S214006E80092A25D0D3F82490C4F824900A2A1FD0C3
S214006E90D3F82890C4F828900B2A19D0D3F82C9051
S214006EA0C4F82C900C2A13D0D3F83090C4F8309045
S214006EB00D2A0DD0D3F83490C4F834900E2A07D09B
S214006EC0D3F83890C4F838900F2A01D0DB6BE36310
S214006ED047450CEB080306EB08040EEB080C0FD036
S214006EE01EF8227006F822705A1C914208D9023306
S214006EF09CF801206270994202D99CF80230A37077
S214006F000446284605F0A6FD00283FF442AFBFF32E
S214006F105B8F002384F81031BFF35B8F03B0BDE8AE
S214006F20F08FBE46A4462E466DE7B8460194AC46A2
S214006F3099E6A44667E7019495E6B946F3E6B946AE
S214006F40A446F0E6BFF35B8F80F81021BFF35B8F9B
S214006F501FE700F1BF037C1817F8012B03F8012F79
S214006F60A742F9D1CCE7013C1A4413F8016B04F8A8
S214006F70016F9342F9D1C3E700F1BF0407EB020E9D
S214006F8017F8016B04F8016FBE45F9D19AE62C4656
S214006F9099E600BF38B590F81C3103B938BD0546F0
S214006FA0FFF7FEFD4FF08244D5F80821D5F80C31E6
S214006FB09A420BD005F096FD40B195F81231DB07EA
S214006FC004D5637B03F07F03022BEDD0002421461B
S214006FD085F81C41204605F05DFD2146012005F0A0
S214006FE059FD05F04BFDC5F80041C5F81841C5F838
S214006FF00441C5F80841C5F80C4185F8104185F8EC
S214007000114138BD90F8103103B17047D0F808210F
S214007010D0F80C319A4200F0FD802DE9F04F00F5D3
S214007020887383B04FF00101BFF35B8FD3E84F2F17
S214007030C3E8441F002CF9D1BFF35B8F12F0FF0F9B
S21400704040F0E580D0F80861D0F80C118E4200F0D0
S214007050AB8100F1400303EB060700F1C005C0F06A
S214007060DA80C6F140021144402928BF40218A42F6
S21400707028BF0A46002A00F0BC8106F1400E06F141
S214007080440400EB0E08044400F1C40CE04538BF8D
S214007090A542C0F0A3810B2A40F2A0816C4214F0F6
S2140070A0030400F077819E5D80F8C060012C00F13B
S2140070B0C10C07F1010800F071817E7880F8C1608C
S2140070C0022C00F1C20C07F1020800F06581BE78C0
S2140070D080F8C260032607F1030800F1C30C01968E
S2140070E0A2EB040BABF10407BF080EEB0406013756
S2140070F0C034064404444FEA87094FF0000E0EF1F0
S214007100010E56F804AB44F804ABBE45F7D3019C19
S214007110CB454C440CEB090608EB090E0FD018F8CB
S21400712027800CF82780671CBA4208D902349EF8DC
S21400713001707770A24202D99EF80240B470AC1873
S2140071408A1A58D0261D00F14407BC4238BFB34205
S214007150C0F03B810B2A40F238815F4217F00307EC
S21400716000F01F8190F840302370012F04F1010CCD
S21400717000F1410300F0168190F841306370022F51
S21400718004F1020C00F1420300F00C8190F842304A
S214007190A37004F1030C00F143034FF00309A2EBC4
S2140071A00708A8F1040E4FEA9E0E07F140060EF1FE
S2140071B0010E3C4406444FEA8E0A0027013756F873
S2140071C004BB44F804BBBE45F8D8D04509EB0A0416
S2140071D00CEB0A0603EB0A070DD013F82E300CF85A
S2140071E02E30631C9A4206D902347B787370A24212
S2140071F001D9BB78B3700446284605F02BFC30B1A5
S214007200BFF35B8F002384F81031BFF35B8F03B0AE
S214007210BDE8F08F7047891B06F1400206F1440472
S214007220402900EB020C044400F1C40E28BF4021A4
S214007230F44538BFA542C0F0BE800B2940F2BB80A3
S2140072406C4214F0030400F09E809B5D80F8C03012
S214007250012C00F1C10607F1010E00F096807B7844
S21400726080F8C130022C00F1C20607F1020E00F0D1
S2140072708E80BB7880F8C23007F1030E00F1C3069B
S2140072804FF0030C1319034404F1C0081A6840F8C1
S21400729008200F1B3A1F920800EB08040132D3F8AF
S2140072A00480C4F80480022A4FEA82084FD0D3F83C
S2140072B00890C4F80890032A49D0D3F80C90C4F874
S2140072C00C90042A43D0D3F81090C4F81090052AE6
S2140072D03DD0D3F81490C4F81490062A37D0D3F8CB
S2140072E01890C4F81890072A31D0D3F81C90C4F828
S2140072F01C90082A2BD0D3F82090C4F82090092A96
S21400730025D0D3F82490C4F824900A2A1FD0D3F8A6
S2140073102890C4F828900B2A19D0D3F82C90C4F8DB
S2140073202C900C2A13D0D3F83090C4F830900D2A45
S2140073300DD0D3F83490C4F834900E2A07D0D3F882
S2140073403890C4F838900F2A01D0DB6BE3634745CA
S2140073500CEB080306EB08040EEB080C3FF44BAFEF
S2140073601EF8227006F822705A1C91427FF643AF30
S21400737002339CF80120627099427FF63CAF9CF87D
S2140073800230A37037E7BE462E46A4467AE74FF093
S214007390020C77E7B846AC460194A1E601260196B2
S2140073A09EE6A446B946FAE6BFF35B8F80F8102146
S2140073B0BFF35B8F2BE700F1BF037C1817F8012B98
S2140073C003F8012FA742F9D115E7013C1A4413F838
S2140073D0016B04F8016F9342F9D10CE700F1BF048A
S2140073E007EB020E17F8016B04F8016FBE45F9D1E2
S2140073F0A5E62C46A4E600BF08B5FEF785FF014BC0
S214007400186008BDE00A0020406A7047007970479F
S2140074100120704738B5044607F01CFE2046144B82
S21400742040F8303B04F068F9124A13492260002302
S21400743000203C320125A4F8FC30C4F86431C4F8BE
S2140074406831C4F86C31C4F87031C4F87431C4E9DA
S2140074504C01C4E95001C4E95401C4E95601226351
S214007460C4F8285184F8383184F84831204638BDAD
S214007470C0520200043B02000000F03F2DE9F04F2E
S214007480C64BDFF858A3C64AC649C74EEDB008AC8F
S2140074904FF000084FF0030980F8008006908DE852
S2140074A008022046C14B0BF017F9A1686268237BDF
S2140074B02069CAF80810CAF804206169A2698AF827
S2140074C00C30E369CAF81000CAF81410206A616A22
S2140074D0CAF81820CAF81C3094F8282094F82930E6
S2140074E0CAF82000802794F82A00CAF824108AF8E0
S2140074F02820A18D94F82E208AF8293094F82F3071
S2140075008AF82F308AF82A00AAF82C108AF82E203B
S21400751014A93A460AF1300017F042FF3A4634A959
S2140075200AF1B00017F03CFFCDF80490A04AD4F85A
S2140075303011D4F83401D4F838310092D4F83C2114
S214007540CAF83011D4F84011CAF83401CAF840110C
S214007550CAF838312046CAF83C21964B964A9749D5
S21400756009F0D2F9A068626894F80CE02369B0606C
S2140075707260A069E26986F80CE0336194F828E04E
S214007580636A94F829C06569B4F82CA0B061F2610A
S21400759094F82A00226A736286F828E094F82E305F
S2140075A094F82FE086F829C086F82E3086F82FE06B
S2140075B014A97561326286F82A003A46A6F82CA00D
S2140075C006F1300017F0ECFE3A4634A906F1B0009A
S2140075D017F0E6FED4F84031D4F83011D4F8342150
S2140075E0C6F84031D4F83831C6F83011C6F8342120
S2140075F0C6F83831D4F83C3194F844E1C6F83C314A
S21400760020464FF4004186F844E10AF00BFE0126BE
S2140076106B4B94F806A0B4F804C0DFF8C4E10196FA
S2140076200093A5688EF806A03946AEF804C0CEF8DA
S21400763008502046634B644A644F06F041FD04F14F
S21400764008000FC87B61D4F82A30C7F82A30236BAD
S21400765094F806E03B63636BB4F804A094F818C093
S214007660E56987F806E0B86094F819E0206AF960E2
S2140076703A61616A94F828207B63A36BA7F804A09C
S21400768087F818C087F819E0FD61796287F8282026
S214007690BB63386294F83C00E36C216C94F844C0F9
S2140076A094F845E0A26C87F83C00FB64206DB4F8C3
S2140076B05C3094F83DA0656D396487F844C094F852
S2140076C0581094F859C087F845E0BA6494F85AE020
S2140076D094F85B203865A7F85C30206E636E87F8F8
S2140076E059C087F85AE087F83DA07D6587F85B208B
S2140076F038667B6687F85810A16E354B0096204694
S214007700B966344A344F402107F0E0F904F1080026
S2140077100FC87B61D4F82A30C7F82A30236B94F858
S21400772006E03B63636BB4F804A094F818C0E56900
S21400773087F806E0B86094F819E0206AF9603A61C4
S214007740616A94F828207B63A36BA7F804A087F8E7
S21400775018C087F819E0FD61386287F82820BB63F7
S214007760796294F83C100096E56C94F83DA0226C83
S21400777094F844C094F845E087F83C10FD64A16C8A
S214007780256D87F83DA03A64B4F85CA094F85820BC
S21400779087F844C087F845E024E000BF783E020042
S2140077A0D83E0200683E0200B4190020983D020050
S2140077B0B83E0200583E0200883D0200A83E020085
S2140077C07840020038400200083F020010130020F4
S2140077D048400200E83F02007C130020701800209A
S2140077E0A415002094F85AC094F85BE0B9643D658F
S2140077F094F85910656D7D6587F8582087F85910FC
S21400780087F85AC087F85BE0A7F85CA02046C14B13
S214007810C14AC24F202107F059F904F108000FC8E9
S2140078207B61D4F82A30C7F82A30236B94F806E038
S2140078303B63636BB4F804A094F818C0E56987F856
S21400784006E0B86094F819E0206AF9603A61616A67
S21400785094F828207B63A36BA7F804A087F818C0C9
S21400786087F819E0FD61386287F82820BB637962E3
S21400787094F83C100096E56C94F83DA0226C94F8C1
S21400788044C094F845E087F83C10FD64A16C256D73
S21400789087F83DA03A64B4F85CA094F8582087F8BE
S2140078A044C087F845E094F85AC094F85BE0B964A1
S2140078B03D6594F85910656D7D6587F8582087F802
S2140078C0591087F85AC087F85BE0A7F85CA02046F6
S2140078D0934B944A944F102107F0F8F804F10800EF
S2140078E00FC87B61D4F82A30C7F82A30236BB4F867
S2140078F004E03B63636B94F806A094F818C0E5694F
S214007900A7F804E0B86094F819E0206AF9603A61D4
S214007910616A94F828207B63A36B87F806A087F833
S21400792018C087F819E0FD613862796287F8282068
S214007930BB6394F83C3087F83C3094F83D20216CCB
S21400794094F844E094F84500A36CCDF80C8087F8D2
S2140079503D20E26C3964FA6494F85A10226D656D25
S21400796087F84500BB6494F8580094F859303A6597
S21400797087F85A1094F85B20B4F85C1087F844E057
S2140079807D6587F8580087F8593087F85B20A7F898
S2140079905C10DFF8B8C1DFF8B8E1644B644ACDF894
S2140079A004C04FF0680A20460821CDF808A0CDF89C
S2140079B000E007F0E5FB04F108000FC85D4FB4F8DF
S2140079C004E07B61D4F82A30C7F82A30236B3B6387
S2140079D0636B94F806A094F818C0E569A7F804E06D
S2140079E0B86094F819E0206AF9603A61616A94F820
S2140079F028207B63A36B87F806A087F818C087F853
S214007A0019E0FD61386287F82820BB63796294F834
S214007A103C1094F83D30206C94F845C087F83D3013
S214007A20E36C94F844A087F83C103864A16C206D91
S214007A3087F845C0FB6494F858C094F85A30656DD2
S214007A4087F844A0B964B4F85CA094F85910386577
S214007A5087F858C094F85B00B4F85EC087F85A30D0
S214007A604FF0650EB4F86030334A7D6587F85910DC
S214007A7087F85B00A7F85CA0A7F860302F49A7F846
S214007A805EC0B4F862C0CDF80C80CDF808E0019274
S214007A90E26E009194F87010656EFA66626FB4F844
S214007AA080A094F882E0A7F862C07D6694F883C050
S214007AB0A56E87F870107A67E16FA26FBD66BA6729
S214007AC0F967A7F880A087F882E087F883C0204689
S214007AD01B4B1C4A1C4F042107F052FB04F1080004
S214007AE00FC87B61D4F82A30C7F82A30236BB4F865
S214007AF004E03B63636B94F806A094F818C0E5694D
S214007B00A7F804E0B86094F819E0206AF9603A61D2
S214007B10616A1FE058400200F83F0200DC130020B4
S214007B2068400200084002003C140020283F020083
S214007B30184002009C140020983F0200583F0200A4
S214007B40383F02002840020020150020883F02002F
S214007B50483F020094F828207B63A36B87F806A0B2
S214007B6087F818C087F819E0FD61796287F8282041
S214007B70BB63386294F83C0087F83C0094F83DA05C
S214007B80216C94F844C094F845E0A26CE36C206D38
S214007B90656D87F83DA03964B4F860A094F8581075
S214007BA087F844C087F845E094F859C094F85AE03E
S214007BB0BA64FB6494F85B20B4F85C303865B4F8BB
S214007BC05E007D6587F8581087F85AE087F85B20D6
S214007BD0A7F85C30A7F85E00A7F860A087F859C041
S214007BE0B4F862C0616E7966616FA36EE06E94F859
S214007BF070E07967A16FE56FA7F862C0BB66B4F85E
S214007C0080C094F88230F86687F870E0B96794F818
S214007C1083E0C04AFD6720464FF40011A7F880C0F5
S214007C2087F8823087F883E007F01EFA04F1080030
S214007C300FC8B94FB4F804C094F806E0256AF96096
S214007C407B61E169D4F82A3094F818A0A7F804C03C
S214007C5087F806E094F819C094F828E0B8603A610E
S214007C60F9613D62C7F82A30656AAC4A87F818A001
S214007C7020464FF4800187F819C07D6287F828E017
S214007C8007F0F2F904F108000FC8A54FB4F804C0D5
S214007C9094F806E0256AF9607B61E169D4F82A3039
S214007CA094F818A0A7F804C087F806E094F819C05E
S214007CB094F828E0B8603A61F9613D62C7F82A3066
S214007CC0656A984A87F818A020464FF4000187F89E
S214007CD019C07D6287F828E007F0C6F904F10800AD
S214007CE0914FA388BB8007C8052394F806E094F854
S214007CF018A000933A616269637E94F828C0656AAA
S214007D0087F806E0F960D4F82AE0216A7A61E26929
S214007D10B86087F818A07B76FA6139627D6287F8CA
S214007D2028C0C7F82AE02046804B814F4FF000421B
S214007D304FF0006106F07EFC04F108000FC8B4F8AE
S214007D4004E07B61D4F82A3094F806A0A7F804E093
S214007D50C7F82A3094F819E0236B94F818C0E56940
S214007D6087F806A0B860F960206A616A3A6187F809
S214007D7019E094F8282094F834E03B634FF0040AA6
S214007D80A36B87F818C0FD613862796287F82820EF
S214007D90BB6387F834E094F840E0CDF800A0E56BCC
S214007DA0FD6387F840E02046624B634F4FF0804209
S214007DB04FF0806106F03EFC04F108000FC8B4F8EE
S214007DC004C094F806E0A7F804C0B86094F818C099
S214007DD0E069F9607B61216A94F8283087F806E04C
S214007DE03A6194F819E0626A87F818C0F861D4F826
S214007DF02AC094F83400396287F82830A16B236BC8
S214007E00C7F82AC087F819E03B6387F83400B963DF
S214007E107A62E26BCDF8009094F840E0FA6387F857
S214007E2040E02046454B464F4FF000524FF0007161
S214007E3006F000FC04F108000FC894F806E07B6129
S214007E40D4F82A3087F806E0C7F82A3094F819E004
S214007E50236B94F818C0B4F80490E569B860F9602C
S214007E60206A616A3A6187F819E094F8282094F845
S214007E7034E03B63A36B87F818C087F834E0A7F8B4
S214007E800490FD6138627962BB6387F82820E26B54
S214007E90009694F84060FA6387F840602046294BC5
S214007EA0294E4FF080524FF0807106F0C3FB04F16C
S214007EB008000FC8A77932617361D4F82A2094F8B5
S214007EC0343094F818C0B4F8049094F819E0256A91
S214007ED0B771B060E769606AF160C6F82A2094F866
S214007EE02810226B86F83430A36B86F818C0A6F8E4
S214007EF0049086F819E0F761356270623263B36306
S214007F0086F82810E16BCDF804A0CDF8088094F828
S214007F1040E01BE0E83D020080120020F83D020031
S214007F20B0120020083E0200E0120020183E0200B8
S214007F30280B0020283E0200B4110020383E020024
S214007F40F8110020483E02003C120020D44F009753
S214007F502046F16386F840E0D24BD34A4FF40061E6
S214007F60FCF748FD04F10C0007C8D04B94F806C097
S214007F70A668E569D860606B94F8189094F8198044
S214007F80276AB4F804A083F806C09E6094F828C058
S214007F90D4F82A6019615A61A16B94F83C20DD611F
S214007FA05863656A83F8189004F1440083F81980D2
S214007FB01F625D6283F828C0C3F82A60996383F85D
S214007FC03C20A3F804A094F83DA094F8406094F8F0
S214007FD051C094F85270656D94F83E9094F85080B5
S214007FE083F8406007C858649964E06D216ED865D0
S214007FF01966D4E91A01DA64226FA66D1A67626FF1
S21400800083F83DA0C3E91A0183F851C083F8527083
S2140080105D659E655A6783F83E9083F85080D4E984
S2140080201E89D4E92212C3E92212D4F88020D4F89B
S2140080309070D4F89400D4F89810C3F88020D4F840
S2140080409C20C3F89070C3F89400D4F8A070D4F8BD
S214008050A400C3F89810C3F89C20D4F8A810D4F84D
S214008060AC20C3F8A0701E46D4F8B070C3F8A400C5
S214008070C3F8A810D4F8B400D4F8B810C3F8AC20ED
S214008080D4F8BC40389AC3F8B070C3E91E89C3F868
S214008090B400C3F8B810C3F8BC40C3F8C020399A7F
S2140080A03A9C3B9BBDF8F090BDF8F280BDF8F4C05A
S2140080B09DF8F6E09DF8F7709DF8F800BDF8FA1008
S2140080C0BDF800A1C6F8C420C6F8C840BDF8FC201C
S2140080D0BDF8FE40C6F8CC30A6F8D090A6F8D28000
S2140080E0BDF802919DF80481429BA6F8D4C086F89C
S2140080F0D6E086F8D77086F8D800A6F8DA10A6F884
S214008100DC20A6F8DE40A6F8E0A0A6F8E29086F806
S214008110E480C6F8E830439BC6F8EC30449A9DF8F5
S21400812014819DF815E19DF816719DF83531BDF85E
S21400813018C19DF820A19DF8219149984A99479C1D
S214008140C6F8F02086F8F4804B9ABDF8308186F8A1
S214008150F5E086F8F670BDF832E19DF8347186F8E1
S21400816015314EABA6F8F8C086F800A186F8019146
S214008170C6F80401C6F80811C6F80C21A6F8108146
S214008180A6F812E1C6F8FC4086F8147198CB0DF5F7
S214008190A47CC6F81831BCE80F0006F5947EAEE85D
S2140081A00F00BCE80F00AEE80F00BCE80F00AEE81A
S2140081B00F009CE80300C6F81C41C6F820718EE844
S2140081C0030061A80FC89DF880E1659C9DF8988122
S2140081D09DF899C1BDF8A0A186F860E1C6F86401D3
S2140081E09DF89AE19DF89B01C6F86811C6F86C21C7
S2140081F06799C6F87031C6F87441BDF8A231BDF86B
S214008200A44186F8788186F879C1BDF8A6819DF8E4
S214008210A8C1274A86F87AE14FF0010986F87B0163
S214008220C6F87C11A6F880A1A6F88231A6F884418B
S214008230A6F88681052786F888C19DF8A9119DF8BD
S214008240AAE16B9C1B4B8DE8840208A886F889116E
S21400825086F88AE1C6F88C41174A184C4FF48061BC
S214008260FCF7C8FB0AA80FC89DF826709DF838C012
S214008270E160DDF84A109DF839E00F9E119DBDF8CB
S2140082802480A771A060109F9DF84800226163615A
S214008290159A169B84F818C0C4F82A1010E000BF80
S2140082A0183F020088400200C83E0200700B002003
S2140082B0B840020098400200A8400200000D0020CE
S2140082C09DF85CC084F819E019A9E661276265622A
S2140082D084F828006263A36384F83CC0A4F8048092
S2140082E09DF85D809DF860009DF871709DF85EC0F9
S2140082F09DF870E09DF87260249D84F840000EC9D9
S214008300DDE922AB1D986164A2641E991F9AE3649E
S21400831084F85170209B259F84F83D80C4E91AABF1
S21400832084F83EC084F850E084F852606065A16529
S21400833025676767E2652366DDE9262317469846C4
S214008340DDE92A232CA992469B464EC92898C4F8F4
S2140083509C60349EC4F88000C4F890103098319920
S214008360C4F89420C4F89830329A339BC4F8B060AE
S2140083703D464646C4E91E56C4F8A000C4F8A410FC
S21400838035983699C4F8A820C4F8AC30379A389B8C
S214008390C4F8B40055465E46C4E92256C4F8B81080
S2140083A0C4F8C030C4F8BC20399A3A983B9BBDF854
S2140083B0F080BDF8F2C0BDF8F4E09DF8F6709DF8C8
S2140083C0F7609DF8F810BDF8FEA0C4F8C420C4F805
S2140083D0C800BDF8FA20BDF8FC00C4F8CC30A4F8FC
S2140083E0D080429BBDF80081A4F8D2C0A4F8D4E0A7
S2140083F0BDF802C19DF804E184F8D67084F8D76011
S21400840084F8D810A4F8DC00A4F8DEA0A4F8E08075
S214008410A4F8E2C084F8E4E0C4F8E830A4F8DA206F
S214008420439A479B44999DF815C19DF81671BDF86F
S2140084301861C4F8FC309DF835319DF814A19DF8FC
S21400844020E19DF821814998C4F8EC20C4F8F0108A
S2140084504B9A4A9984F8F5C084F8F670BDF830C196
S214008460BDF83271A4F8F86084F815319DF83461CF
S21400847084F8F4A04EAB84F800E184F80181C4F8D7
S2140084800401C4F80811C4F80C21A4F810C1A4F81B
S214008490127184F81461C8CB0DF5A47EC4F81831A7
S2140084A0BEE80F0004F5947CACE80F00BEE80F00B1
S2140084B0ACE80F00BEE80F00ACE80F009EE8030033
S2140084C0C4F81C61C4F820718CE8030061A8C3C816
S2140084D09DF880C184F860C1C4F864019DF899C114
S2140084E09DF89801C4F86811C4F86C6167999DF806
S2140084F09A61659DBDF8A0A1C4F8707184F87801F2
S2140085009DF89B71BDF8A20184F879C184F87A6160
S214008510BDF8A6C1BDF8A461C4F87C119DF8A811E9
S214008520DFF890E3C4F874514FF0020884F87B71CA
S214008530A4F880A10327A4F88201A4F88461A4F813
S21400854086C184F888119DF8A9A19DF8AAC16B9EE2
S214008550CDF800E0CDF808800197CF4B84F889A1CC
S21400856084F88AC1C4F88C61CC4ACD4C08A84FF474
S2140085700071FCF73FFA0AA80FC89DF82660BDF800
S21400858024E0A671A0600F9E1098DDF84AA0169D04
S2140085909DF838C0A4F804E0E1609DF839E0119930
S2140085A0226163619DF84820159BE66120629DF874
S2140085B05C6084F819E019A8616284F82820C4F881
S2140085C02AA06363A56384F83C6084F818C09DF80D
S2140085D05DC09DF85E609DF8603084F83E6007C818
S2140085E0DDE922AB9DF8726084F8403060649DF847
S2140085F071301D989DF870E0A164E2641E991F9A80
S21400860084F8513084F85260209B249E606525983B
S21400861084F83DC0C4E91AAB84F850E0A16526672B
S2140086206067E2652366DDE9262315461E46DDE91A
S2140086302A232899C4F8801092462C9A2E99C4F8BA
S21400864090209B462F9A2D9BC4F89430C4F898101F
S214008650309B3199C4F89C20329AC4F8A030C4F8F4
S214008660A410339B3499C4F8A820359AC4F8AC30CB
S214008670C4E91E56369BC4F8B010C4F8B420379927
S214008680389AC4F8B83055465E4639A8C4E922562A
S214008690C4F8BC10C4F8C02007C8BDF8F0C0BDF8C8
S2140086A0F2E0BDF8F4609DF8F630C4F8C4009DF81A
S2140086B0F700BDF802A1C4F8C810C4F8CC209DF895
S2140086C0F810BDF8FA20A4F8D0C0A4F8D2E0BDF89F
S2140086D0FCC0BDF8FEE0A4F8D46084F8D630BDF83F
S2140086E00061429B84F8D7009DF80401A4F8DA20C4
S2140086F0A4F8DCC0A4F8DEE0A4F8E060A4F8E2A0E9
S21400870084F8E400C4F8E83084F8D8104399DDF81B
S21400871010C19DF814019DF815A19DF81621BDF80D
S21400872018E1479B9DF82061C4F8EC10C4F8F0C02F
S2140087304A999DF821C184F8F40084F8F5A0499878
S214008740BDF832A184F8F620A4F8F8E04B9ABDF8FC
S21400875030E1C4F8FC3084F800619DF835319DF8AE
S214008760346184F801C1C4F80401C4F80811C4F8DF
S2140087700C21A4F810E1A4F812A184F8146184F87E
S21400878015314E9B509AC4F818310DF5A47C154649
S214008790BCE80F0004F5947EAEE80F00BCE80F00BE
S2140087A0AEE80F00BCE80F00AEE80F009CE8030040
S2140087B04F9EC4F81C61C4F820518EE8030061A8DF
S2140087C00FC89DF880E184F860E1C4F864019DF864
S2140087D09BE19DF89801C4F86811C4F86C219DF8D7
S2140087E099119DF89A21C4F87031679B659D84F8AD
S2140087F0780184F87911BDF8A001BDF8A21184F8BB
S2140088007A2184F87BE1BDF8A421BDF8A6E1C4F87E
S2140088107C319DF8A831C4F87451A4F88001A4F8FE
S2140088208211A4F88421A4F886E184F888316B9A32
S2140088301C4E9DF8A9119DF8AAE102974FF0000A78
S21400884015468DE8400408A884F8891184F88AE162
S214008850C4F88C51144B154A154C4FF48071FCF734
S214008860C9F80BA807C8BDF824E00A9B9DF8266047
S214008870A4F804E0A3609DF838E00F9BE060109831
S2140088809DF848C0A67121619DF839601199626112
S21400889084F818E010E000BF683F0200A83F02001E
S2140088A0900E0020D83F0200783F0200B83F02003A
S2140088B020100020C83F0200159ADDF84AE0E36168
S2140088C02062169B9DF85C006676616284F828C07C
S2140088D06263A36384F83C00C4F82AE09DF85DE078
S2140088E09DF86010199A1A9B1B9884F84010DDE9D1
S2140088F022BC9DF870106264A3649DF871209DF8F8
S2140089007230E06484F850101D981E999DF85E60E1
S21400891084F8512084F852301F9A209B6065A16528
S2140089202498259984F83DE0C4E91ABC84F83E6092
S21400893020676167E2652366DDE92623DDE92A0113
S21400894005460E462C982899C4F88010C4F8900066
S2140089502D992E98C4F89410C4F898002F99309842
S214008960C4F89C10C4F8A00031993298C4F8A4103A
S214008970C4F8A80033993498C4F8AC10C4F8B00012
S21400898035993698C4F8B410C4E91E233799C4F84C
S214008990B8002A463898C4F8BC103346C4E92223E7
S2140089A0C4F8C000399B3A983B9ABDF8F0E0BDF891
S2140089B0F260BDF8F4109DF8F8C0C4F8C430C4F8EE
S2140089C0C8009DF8F6309DF8F700C4F8CC20A4F84F
S2140089D0D0E0BDF8FC20BDF8FAE0A4F8D260A4F818
S2140089E0D410BDF80061BDF8FE1084F8D63084F8C7
S2140089F0D70084F8D8C0BDF802019DF804C1429B98
S214008A00A4F8DAE0A4F8DC20A4F8DE10A4F8E0600D
S214008A10A4F8E20084F8E4C0C4F8E830439B449E1F
S214008A209DF815019DF814E19DF81611BDF8182162
S214008A30C4F8EC30C4F8F060479B9DF8206184F8D9
S214008A40F5004998BDF830C184F8F4E084F8F610D3
S214008A509DF821E14A99A4F8F820C4F8FC304B9A16
S214008A6084F800619DF83431BDF83261C4F8040121
S214008A709DF8350184F801E1C4F80811C4F80C210A
S214008A80A4F810C1A4F8126184F8150184F8143112
S214008A904E9B4F9AC4F8183115460DF5A47E509A91
S214008AA00792BEE80F0004F594760FC6BEE80F00E6
S214008AB00FC6BEE80F000FC69EE80300C4F81C51A0
S214008AC0079A619BC4F8643186E803009DF880111C
S214008AD084F860116299639BC4F868116499C4F8BD
S214008AE06C31C4F87011659B9DF89911C4F8743107
S214008AF084F879119DF89A319DF89B1184F87A31A3
S214008B0084F87B11679BBDF8A0119DF89801C4F806
S214008B107C31A4F88011BDF8A231BDF8A411C4F8C8
S214008B20202184F87801A4F88231BDF8A631A4F893
S214008B3084119DF8A80184F888016B98804AA4F8EF
S214008B4086319DF8A961059702929DF8AA71DFF813
S214008B5010C2DFF810E27B4ACDF810C005464FF48D
S214008B600053CDF80CE001920093514684F88961D9
S214008B7084F88A71C4F88C5108A84FF400334FF477
S214008B80802209F001F90CAA1CCA6F4D9DF82C70C2
S214008B900A9809992F73119F9DF848C09DF849E0DF
S214008BA0A8604FF0800A0F9869602A6110999DF8B6
S214008BB04A206B61AC61BDF84C309DF84E406F6248
S214008BC09DF84F7085F828C085F829E0AB85E861E8
S214008BD0296285F82A2014A9524685F82E4085F881
S214008BE02F7005F1300016F0DBFB524634A905F174
S214008BF0B00016F0D5FB544E544A554B02920193E2
S214008C005498559A569B534903914FF480570097B2
S214008C10CDF81480C6F83001C6F83421C6F83831CD
S214008C205C9B579FC6F83C711E46474B589DC3F841
S214008C304051454D5B9A5D98C5F84C213546424EED
S214008C400790BDF868C19DF86AE19DF86B81C6F88B
S214008C505051079DA3F848C183F84AE183F84B8139
S214008C60C6F85451494608A83B4F04974FF4803342
S214008C704FF4002209F088F80F9B0793109B374C9F
S214008C800A9D9DF82CE00C9A0E9F9DF848C0099806
S214008C90A5601E460D9B119D84F80CE022619DF890
S214008CA049E0079A9DF84A806361A761BDF84C3099
S214008CB09DF84E709DF84F9084F828C0A38514A99F
S214008CC06060E26126625246656284F829E084F8B4
S214008CD02E7004F1300084F82A8084F82F9016F065
S214008CE05FFB524634A904F1B00016F059FB54A8B5
S214008CF00FC8589D5B9E0795C4F84C615C9EC4F8EF
S214008D003001BDF868C1C4F834119DF86A719DF849
S214008D106B51C4F8506106985D9E0799C4F83821D7
S214008D20C4F85461C4F84011A4F848C1C4F83C31F2
S214008D3084F84A7184F84B516DB0BDE8F08F00BFDF
S214008D40A83D0200E83E0200C0150020C83D020013
S214008D50F83E0200D83D0200983E02001817002098
S214008D60883E0200B83D0200142903DC034A52F88C
S214008D7021007047024B186807F0F6BB343D02002E
S214008D802C200020F0B5B14AD2F8E4306FF38613F9
S214008D9085B0C2F8E430D2F8E4305E06FBD4D2F8F0
S214008DA0E430AA49012060F30303C2F8E430D2F8A5
S214008DB0E43043F04003C2F8E4304B6813F0040399
S214008DC0FBD1A348A34A816941F40061816111681F
S214008DD063F341011160936813F00203FBD1536300
S214008DE010799A4940F002001071D06B40F47C1064
S214008DF040F00200D06353649364D36413655365F4
S214008E009365906A40F001009062D1F8E42063F325
S214008E108612C1F8E4200A46D2F8E4305D06FBD498
S214008E20D2F8E4308949012060F30303C2F8E43045
S214008E30D2F8E43043F04003C2F8E4304B6813F055
S214008E400403FBD18248844A816941F480518161E0
S214008E50116863F341011160936813F00203FBD1BC
S214008E6053631079794940F002001071D06B40F4DA
S214008E707C1040F00200D06353649364D36413659F
S214008E8053659365D1F8A42063F38612C1F8A42035
S214008E900A46D2F8A4305C06FBD4D2F8A4306B495C
S214008EA0062060F30303C2F8A430D2F8A43043F0DF
S214008EB04003C2F8A4304B6813F01803FBD1644C8F
S214008EC0624A606940F400406061D1F8E80063F3EC
S214008ED08610C1F8E800D2F8E8305806FBD4D2F87D
S214008EE0E8305A49062060F30303C2F8E830D2F8A7
S214008EF0E83043F04003C2F8E8304B6813F018033C
S214008F00FBD1534C514AA06940F40050A061D1F8FF
S214008F10F80063F38610C1F8F800D2F8F830590666
S214008F20FBD4D2F8F8304949062060F30303C2F8B0
S214008F30F830D2F8F83043F04003C2F8F8304B6807
S214008F4013F01803FBD14248404AC469462544F052
S214008F504004C461C1F81C51046A44F02004046251
S214008F60D1F8F40063F38610C1F8F400D2F8F430B8
S214008F70C3F38013002BF9D1D2F8F4103448334CE5
S214008F8063F30301C2F8F410D2F8F41041F0400184
S214008F90C2F8F4105168C16941F01001C161D2F8FD
S214008FA0181163F38611C2F81811D4F81831C3F3F8
S214008FB08013002BF9D1D4F81811284A244D63F3F6
S214008FC00301C4F81811D4F8183143F04003C4F86C
S214008FD0183107CA63682C6A01AB44F010042C628F
S214008FE00DF1100C83E807004FF0010E1946042718
S214008FF002260325FE2451F8042B13686FF3410361
S2140090001360136913F00203FBD1107940F00200DD
S214009010107110686EF383001060106867F30A2002
S21400902010601673557382F82F4082F8303082F83D
S21400903031301375136843F00203136013699B07FE
S214009040FCD46145D7D105B0F0BD00BF001C004080
S214009050000800400060014100800141103D020010
S2140090608B498C4ACB682DE9F04743F080734FF06C
S21400907001080024CB605460C2F800800646FFF763
S21400908081FE854B85491A690D68854F64F3410258
S2140090901A611A69A72161F317421A611A6968F3FF
S2140090A083021A611A69072161F30B221A611A6991
S2140090B042F002021A612846414609F017F979483B
S2140090C0002100F09BFC2146284609F00FF9764B5C
S2140090D0764AC3F88480022183F8C010106807F02F
S2140090E057FB57F8040F036821B25B6A01349847B0
S2140090F0152CF6D106F06AFB6D4B186801F074FF6C
S2140091006C4801F0C9FA6C4B186804F077FC6B4B9E
S214009110186806F079FE6A4B1868FDF729F9694861
S21400912003F0D2FA684AD2F890306FF38613C2F88A
S2140091309030D2F89010C1F380110029F9D1D2F8FE
S2140091409000624C5B4F624BDFF890C161F3030006
S214009150C2F89000D2F8901041F04001C2F890108A
S21400916052686169D7F8EC0041F480614FF4805E84
S2140091706161E022C3F800E040F480404FF480389C
S2140091804FF4003E4FF480214FF400594FF48044D2
S2140091904FF4004A83F80C23C7F8EC00C3F800909D
S2140091A04FF4002083F80D234FF480171C6083F8DB
S2140091B00E23C3F800A083F80F23C3F8008083F8BB
S2140091C01023C3F800E083F811234FF4001E196043
S2140091D04FF4800183F81223186083F813234FF4AA
S2140091E000001F6083F81423C3F800E083F81523FB
S2140091F019604FF0807183F816234FF000781860DE
S21400920083F817231960DCF8000083F818234FF062
S21400921080614FF0006CC3F8008083F819234FF488
S2140092208078196083F81A236021C3F800C083F899
S2140092301B234FF0200C4022C3F808E083F8551398
S2140092409F6083F85413C3F80C804FF47A71C3F808
S2140092500CC083F8682383F8652300F07FFB00B119
S214009260FEE71C4BC0222146284683F8232009F03F
S2140092702FF842F63B0400F09DFBA042FBD9164BAC
S214009280186800F0DDFC01233370BDE8F08700BFEE
S214009290F0ED00E0001000E000180040482000203C
S2140092A0303D0200C0D4010000800041382000207C
S2140092B02C1D0020001B00202C1F00202C2000202E
S2140092C0E00A0020181C0020001C00400008004097
S2140092D000E100E000ED00E0201D0020141D00204D
S2140092E072B6094A094B012918BF00231360BFF361
S2140092F04F8F0749074BCA6802F4E0621343CB60FE
S214009300BFF34F8F00BFFDE7FCFF0220EF6916F0AA
S21400931000ED00E00400FA05014B186801F008B9FA
S214009320201D0020014808F069BC00BF1817002067
S214009330014808F08BBC00BF18170020014808F051
S214009340C1BC00BF18170020014808F057BC00BF7A
S21400935070180020014808F079BC00BF7018002083
S214009360014808F0AFBC00BF70180020014808F0A4
S21400937045BC00BFC0150020014808F067BC00BF10
S214009380C0150020014808F09DBC00BFC015002095
S214009390024B0021186807F043BA00BF38200020AF
S2140093A0024B0121186807F03BBA00BF38200020A6
S2140093B0024B0221186807F033BA00BF382000209D
S2140093C0024B0321186807F02BBA00BF3820002094
S2140093D0024B0421186807F023BA00BF382000208B
S2140093E0024B0521186807F01BBA00BF3820002082
S2140093F0024B0621186807F013BA00BF3820002079
S214009400024B0721186807F00BBA00BF382000206F
S214009410024B0821186807F003BA00BF3820002066
S214009420024B0921186807F0FBB900BF382000205E
S214009430024B0A21186807F0F3B900BF3820002055
S214009440024B0B21186807F0EBB900BF382000204C
S214009450014B186800F0B0BE201D0020024B0D2105
S214009460186807F0DDB900BF38200020024B0E2137
S214009470186807F0D5B900BF38200020024B0F212E
S214009480186807F0CDB900BF38200020024B034A09
S214009490DA62034805F024BF001000420FFC3F00CC
S2140094A020150020024B034ADA62034805F018BF75
S2140094B0001000430FFC3F009C14002008B50D4B25
S2140094C01B7803B108BD0C4B1B78002BFAD00B4B56
S2140094D0186806F0EFFF0A48FBF754FC0948FBF74C
S2140094E051FC0948FBF74EFC0848BDE80840FBF76E
S2140094F049BC00BFB0110020FC1A00202C20002020
S214009500700B0020000D0020900E00202010002080
S214009510304A2DE9F843304B1668304ADA62304656
S21400952000F0CAF92E4BDFF8F480D3F800904846D6
S21400953006F0DEFC2B4B186804F01AFC2A4B186861
S21400954008F06AFF294B1868FDF75CFD284B1F687A
S214009550384607F093F998F800305BB1254C26485A
S21400956004F1500501E054F8040F03681B6A98479D
S214009570AC42F8D1384607F095F9204803F0D2F807
S2140095801F4801F05BF9304600F0ACF91D4A1E4951
S214009590136809780133136011B198F8003023B9C5
S2140095A03046BDE8F84300F08DB9484606F082FF25
S2140095B01648FBF7E7FB1648FBF7E4FB1548FBF7F6
S2140095C0E1FB1548FBF7DEFB3046BDE8F84300F04C
S2140095D079B900BF141D0020006001410FFC3F0058
S2140095E02C2000202C1F002048200020E00A00200D
S2140095F038200020343D020010130020181C0020E4
S214009600001B0020101D0020B0110020700B002051
S214009610000D0020900E002020100020FC1A0020D4
S21400962008B51348134B98420BD01349814208D013
S214009630984206D2C2431A4422F00302043215F0BE
S214009640AFFE0E480E4B984208D007D2C2431A44CB
S21400965022F003020432002115F0A0FF02F08EFE75
S21400966015F0FEFA0748FFF7FBFCFAF733FEFEE7B5
S21400967000000020C00A0020BC700200C00A0020C3
S214009680D0240020FC1A00202DE9F8435248534D00
S214009690534CDFF8BC91DFF8BC81524F02F0EAFF72
S2140096A0514B524A52481A600026C3F8406100F0F7
S2140096B061FF504B504AC3F8406128461A6005F0D7
S2140096C0C9FC4E4B2B60204605F0C4FC4C4B236077
S2140096D0484605F0BFFC4B4C4B4DC9F80040404691
S2140096E005F0B8FCDFF87091C8F80040384605F081
S2140096F0B1FCDFF868813C60284605F0ABFC434CC3
S214009700434F2C60484605F0A5FC424DC9F8004082
S214009710404605F09FFC404CDFF84491C8F80040F6
S214009720384605F097FCDFF83C813C60284605F09B
S21400973091FC3A4F2C60484605F08CFC384C394D6D
S214009740C9F80040404605F085FC3846C8F8004099
S21400975005F080FC28463C6005F07CFC32482C6016
S214009760FDF758FE3148DFF80081314D314C324F5D
S214009770DFF8F890FDF74EFE3048FDF74BFE304818
S214009780FDF748FE40462F4B40F8043B05F062FCD0
S2140097902D4BC8F8003005F5A2707433C5F840614B
S2140097A0C5F80090C8F8043005F054FC07F17408BA
S2140097B004F5A270C4F84061C4F800902F60C5F8A4
S2140097C0448105F047FCC4F8448127601F48BDE883
S2140097D0F843FDF753BE00BF181C0020A415002058
S2140097E0101300203C140020B4190020783C02001E
S2140097F0001B002070180020C83C020078540200AD
S214009800E0510200405202009C140020F052020078
S214009810B0120020E0120020C0520200F811002012
S214009820105202003C120020700B0020000D002099
S214009830C015002018170020D4530200900E0020F8
S21400984020100020743B0200C43B0200FC1A0020DB
S2140098507C130020DC13002020150020801200203E
S214009860280B0020B4110020B0150020645302001D
S21400987070B50F4D2C6814F0010402D00D4B18681B
S21400988070BD30200AF04CFB0A4A046005214FF0F8
S214009890FF36012301758460C46004618461C4617D
S2140098A0046244628462C462466010602B6070BDCD
S2140098B00C1D0020181D0020014B5B6803607047DC
